{"contracts/Bet.sol":{"Bet":{"abi":[{"inputs":[],"stateMutability":"nonpayable","type":"constructor"},{"inputs":[],"name":"automate","outputs":[{"internalType":"contract IAutomate","name":"","type":"address"}],"stateMutability":"view","type":"function"},{"inputs":[],"name":"dedicatedMsgSender","outputs":[{"internalType":"address","name":"","type":"address"}],"stateMutability":"view","type":"function"},{"inputs":[],"name":"fundsOwner","outputs":[{"internalType":"address","name":"","type":"address"}],"stateMutability":"view","type":"function"},{"inputs":[],"name":"gelato1Balance","outputs":[{"internalType":"contract IGelato1Balance","name":"","type":"address"}],"stateMutability":"view","type":"function"},{"inputs":[{"internalType":"uint256","name":"","type":"uint256"}],"name":"home_team_score","outputs":[{"internalType":"uint256","name":"","type":"uint256"}],"stateMutability":"view","type":"function"},{"inputs":[{"internalType":"address","name":"user","type":"address"},{"internalType":"uint256","name":"gameID","type":"uint256"},{"internalType":"uint256","name":"teamID","type":"uint256"},{"internalType":"uint256","name":"homeTeamID","type":"uint256"},{"internalType":"uint256","name":"awayTeamID","type":"uint256"},{"internalType":"uint256","name":"startTime","type":"uint256"},{"internalType":"string","name":"web3ContractAddress","type":"string"}],"name":"moneyLineBet","outputs":[],"stateMutability":"payable","type":"function"},{"inputs":[{"internalType":"uint256","name":"","type":"uint256"}],"name":"newMoneyLineBet","outputs":[{"internalType":"uint256","name":"startTime","type":"uint256"},{"internalType":"uint256","name":"total","type":"uint256"},{"internalType":"uint256","name":"homeTeamID","type":"uint256"},{"internalType":"uint256","name":"awayTeamID","type":"uint256"},{"internalType":"bytes32","name":"taskID","type":"bytes32"}],"stateMutability":"view","type":"function"},{"inputs":[{"internalType":"uint256","name":"","type":"uint256"}],"name":"newPointSpreadBet","outputs":[{"internalType":"uint256","name":"startTime","type":"uint256"},{"internalType":"uint256","name":"total","type":"uint256"},{"internalType":"uint256","name":"homeTeamID","type":"uint256"},{"internalType":"uint256","name":"awayTeamID","type":"uint256"},{"internalType":"bytes32","name":"taskID","type":"bytes32"}],"stateMutability":"view","type":"function"},{"inputs":[{"internalType":"uint256","name":"","type":"uint256"}],"name":"newPointTotalBet","outputs":[{"internalType":"uint256","name":"startTime","type":"uint256"},{"internalType":"uint256","name":"total","type":"uint256"},{"internalType":"uint256","name":"homeTeamID","type":"uint256"},{"internalType":"uint256","name":"awayTeamID","type":"uint256"},{"internalType":"bytes32","name":"taskID","type":"bytes32"}],"stateMutability":"view","type":"function"},{"inputs":[{"internalType":"address","name":"user","type":"address"},{"internalType":"uint256","name":"gameID","type":"uint256"},{"internalType":"uint256","name":"teamID","type":"uint256"},{"internalType":"uint256","name":"homeTeamID","type":"uint256"},{"internalType":"uint256","name":"awayTeamID","type":"uint256"},{"internalType":"uint256","name":"startTime","type":"uint256"},{"internalType":"int256","name":"spread","type":"int256"},{"internalType":"string","name":"web3ContractAddress","type":"string"}],"name":"pointSpreadBet","outputs":[],"stateMutability":"payable","type":"function"},{"inputs":[{"internalType":"address","name":"user","type":"address"},{"internalType":"uint256","name":"gameID","type":"uint256"},{"internalType":"uint256","name":"pointAmount","type":"uint256"},{"internalType":"uint256","name":"homeTeamID","type":"uint256"},{"internalType":"uint256","name":"awayTeamID","type":"uint256"},{"internalType":"uint256","name":"startTime","type":"uint256"},{"internalType":"string","name":"web3ContractAddress","type":"string"}],"name":"pointTotalBet","outputs":[],"stateMutability":"payable","type":"function"},{"inputs":[],"name":"returnEscrow","outputs":[{"internalType":"uint256","name":"","type":"uint256"}],"stateMutability":"view","type":"function"},{"inputs":[{"internalType":"uint256","name":"gameID","type":"uint256"},{"internalType":"uint256","name":"teamID","type":"uint256"}],"name":"returnMoneyLineBetReceipt","outputs":[{"components":[{"internalType":"address","name":"addr","type":"address"},{"internalType":"uint256","name":"amount","type":"uint256"},{"internalType":"uint256","name":"teamID","type":"uint256"},{"internalType":"uint256","name":"gameID","type":"uint256"},{"internalType":"string","name":"betType","type":"string"},{"internalType":"uint256","name":"time","type":"uint256"},{"internalType":"bool","name":"active","type":"bool"}],"internalType":"struct Bet.Transaction","name":"","type":"tuple"}],"stateMutability":"view","type":"function"},{"inputs":[{"internalType":"uint256","name":"gameID","type":"uint256"},{"internalType":"uint256","name":"teamID","type":"uint256"}],"name":"returnMoneyLineBetTotal","outputs":[{"internalType":"uint256","name":"","type":"uint256"}],"stateMutability":"view","type":"function"},{"inputs":[{"internalType":"uint256","name":"gameID","type":"uint256"},{"internalType":"uint256","name":"bettingTeamID","type":"uint256"}],"name":"returnOdds","outputs":[{"internalType":"uint256","name":"","type":"uint256"}],"stateMutability":"view","type":"function"},{"inputs":[{"internalType":"uint256","name":"gameID","type":"uint256"},{"internalType":"uint256","name":"teamID","type":"uint256"}],"name":"returnPointSpreadBetReceipt","outputs":[{"components":[{"internalType":"address","name":"addr","type":"address"},{"internalType":"uint256","name":"amount","type":"uint256"},{"internalType":"uint256","name":"teamID","type":"uint256"},{"internalType":"uint256","name":"gameID","type":"uint256"},{"internalType":"string","name":"betType","type":"string"},{"internalType":"uint256","name":"time","type":"uint256"},{"internalType":"bool","name":"active","type":"bool"}],"internalType":"struct Bet.Transaction","name":"","type":"tuple"}],"stateMutability":"view","type":"function"},{"inputs":[{"internalType":"uint256","name":"gameID","type":"uint256"},{"internalType":"uint256","name":"teamID","type":"uint256"}],"name":"returnPointSpreadBetTotal","outputs":[{"internalType":"uint256","name":"","type":"uint256"}],"stateMutability":"view","type":"function"},{"inputs":[{"internalType":"uint256","name":"gameID","type":"uint256"}],"name":"returnPointTotalBetReceipt","outputs":[{"components":[{"internalType":"address","name":"addr","type":"address"},{"internalType":"uint256","name":"amount","type":"uint256"},{"internalType":"uint256","name":"teamID","type":"uint256"},{"internalType":"uint256","name":"gameID","type":"uint256"},{"internalType":"string","name":"betType","type":"string"},{"internalType":"uint256","name":"time","type":"uint256"},{"internalType":"bool","name":"active","type":"bool"}],"internalType":"struct Bet.Transaction","name":"","type":"tuple"}],"stateMutability":"view","type":"function"},{"inputs":[{"internalType":"uint256","name":"gameID","type":"uint256"}],"name":"returnPointTotalBetTotal","outputs":[{"internalType":"uint256","name":"","type":"uint256"}],"stateMutability":"view","type":"function"},{"inputs":[],"name":"returnReceipts","outputs":[{"components":[{"internalType":"address","name":"addr","type":"address"},{"internalType":"uint256","name":"amount","type":"uint256"},{"internalType":"uint256","name":"teamID","type":"uint256"},{"internalType":"uint256","name":"gameID","type":"uint256"},{"internalType":"string","name":"betType","type":"string"},{"internalType":"uint256","name":"time","type":"uint256"},{"internalType":"bool","name":"active","type":"bool"}],"internalType":"struct Bet.Transaction[]","name":"","type":"tuple[]"}],"stateMutability":"view","type":"function"},{"inputs":[{"internalType":"uint256","name":"gameID","type":"uint256"},{"internalType":"uint256","name":"winnerID","type":"uint256"},{"internalType":"uint256","name":"loserID","type":"uint256"}],"name":"rewardMoneyLineWinners","outputs":[],"stateMutability":"nonpayable","type":"function"},{"inputs":[{"internalType":"uint256","name":"gameID","type":"uint256"},{"internalType":"uint256","name":"winnerID","type":"uint256"},{"internalType":"uint256","name":"loserID","type":"uint256"},{"internalType":"int256","name":"winnerScore","type":"int256"},{"internalType":"int256","name":"loserScore","type":"int256"}],"name":"rewardPointSpreadWinners","outputs":[],"stateMutability":"nonpayable","type":"function"},{"inputs":[{"internalType":"uint256","name":"gameID","type":"uint256"},{"internalType":"uint256","name":"total","type":"uint256"}],"name":"rewardPointTotalWinners","outputs":[],"stateMutability":"nonpayable","type":"function"},{"inputs":[{"internalType":"uint256","name":"","type":"uint256"}],"name":"totalBetOnGame","outputs":[{"internalType":"uint256","name":"","type":"uint256"}],"stateMutability":"view","type":"function"},{"inputs":[{"internalType":"uint256","name":"","type":"uint256"},{"internalType":"uint256","name":"","type":"uint256"}],"name":"totalBetOnTeam","outputs":[{"internalType":"uint256","name":"","type":"uint256"}],"stateMutability":"view","type":"function"},{"inputs":[{"internalType":"address","name":"","type":"address"}],"name":"userReceipts","outputs":[{"internalType":"uint256","name":"escrow","type":"uint256"}],"stateMutability":"view","type":"function"},{"inputs":[{"internalType":"uint256","name":"","type":"uint256"}],"name":"visitor_team_score","outputs":[{"internalType":"uint256","name":"","type":"uint256"}],"stateMutability":"view","type":"function"}],"evm":{"bytecode":{"linkReferences":{},"object":"6101006040523480156200001257600080fd5b50732a6c106ae13b558bb9e2ec64bd2f1f7beff3a5e03081308173ffffffffffffffffffffffffffffffffffffffff1660808173ffffffffffffffffffffffffffffffffffffffff16815250508173ffffffffffffffffffffffffffffffffffffffff1663573ea5756040518163ffffffff1660e01b8152600401602060405180830381865afa158015620000ab573d6000803e3d6000fd5b505050506040513d601f19601f82011682018060405250810190620000d191906200039b565b73ffffffffffffffffffffffffffffffffffffffff1660c08173ffffffffffffffffffffffffffffffffffffffff168152505060008273ffffffffffffffffffffffffffffffffffffffff1663cd3d4fb960026040518263ffffffff1660e01b81526004016200014291906200044d565b602060405180830381865afa15801562000160573d6000803e3d6000fd5b505050506040513d601f19601f82011682018060405250810190620001869190620004af565b905060008173ffffffffffffffffffffffffffffffffffffffff1663ba1d0ff46040518163ffffffff1660e01b8152600401602060405180830381865afa158015620001d6573d6000803e3d6000fd5b505050506040513d601f19601f82011682018060405250810190620001fc9190620004af565b90508073ffffffffffffffffffffffffffffffffffffffff1663ded89a7c846040518263ffffffff1660e01b8152600401620002399190620004f2565b6040805180830381865afa15801562000256573d6000803e3d6000fd5b505050506040513d601f19601f820116820180604052508101906200027c91906200054c565b508073ffffffffffffffffffffffffffffffffffffffff1660a09073ffffffffffffffffffffffffffffffffffffffff1681525050505050508073ffffffffffffffffffffffffffffffffffffffff1660e08173ffffffffffffffffffffffffffffffffffffffff16815250505050336000806101000a81548173ffffffffffffffffffffffffffffffffffffffff021916908373ffffffffffffffffffffffffffffffffffffffff16021790555062000593565b600080fd5b600073ffffffffffffffffffffffffffffffffffffffff82169050919050565b6000620003638262000336565b9050919050565b620003758162000356565b81146200038157600080fd5b50565b60008151905062000395816200036a565b92915050565b600060208284031215620003b457620003b362000331565b5b6000620003c48482850162000384565b91505092915050565b7f4e487b7100000000000000000000000000000000000000000000000000000000600052602160045260246000fd5b6005811062000410576200040f620003cd565b5b50565b60008190506200042382620003fc565b919050565b6000620004358262000413565b9050919050565b620004478162000428565b82525050565b60006020820190506200046460008301846200043c565b92915050565b6000620004778262000336565b9050919050565b62000489816200046a565b81146200049557600080fd5b50565b600081519050620004a9816200047e565b92915050565b600060208284031215620004c857620004c762000331565b5b6000620004d88482850162000498565b91505092915050565b620004ec816200046a565b82525050565b6000602082019050620005096000830184620004e1565b92915050565b60008115159050919050565b62000526816200050f565b81146200053257600080fd5b50565b60008151905062000546816200051b565b92915050565b6000806040838503121562000566576200056562000331565b5b6000620005768582860162000498565b9250506020620005898582860162000535565b9150509250929050565b60805160a05160c05160e051615e0e620005e6600039600061275d015260005050600081816110be01528181611a5b01528181611c6e01526133380152600081816119d101526146dc0152615e0e6000f3fe60806040526004361061019c5760003560e01c80636bd4c7c0116100ec578063a4786f3d1161008a578063b1e49b9911610064578063b1e49b991461063e578063ec5a24d71461065a578063f227ce4d14610697578063f782a754146106d45761019c565b8063a4786f3d14610583578063a910e4a5146105c0578063a91faba2146105fd5761019c565b806381142907116100c657806381142907146104c05780638edd3971146104dc5780638ee95f9f1461051d578063914989fd146105465761019c565b80636bd4c7c01461041b5780637ea4178a1461045857806380eb6d04146104835761019c565b806328f150eb116101595780633b51e58a116101335780633b51e58a1461035f57806346ee3c591461038857806347f53fc9146103b357806357fb1d67146103f05761019c565b806328f150eb146102cc5780632b3a4ef6146102f75780633946f666146103345761019c565b8063037081e9146101a157806303bfeb20146101bd578063049aacfe146101e657806323821c21146102115780632429827f1461024e578063245a2fad1461028f575b600080fd5b6101bb60048036038101906101b69190614aa2565b610711565b005b3480156101c957600080fd5b506101e460048036038101906101df9190614b74565b6110bc565b005b3480156101f257600080fd5b506101fb6119cf565b6040516102089190614c26565b60405180910390f35b34801561021d57600080fd5b5061023860048036038101906102339190614c41565b6119f3565b6040516102459190614c7d565b60405180910390f35b34801561025a57600080fd5b5061027560048036038101906102709190614c41565b611a0b565b604051610286959493929190614cb1565b60405180910390f35b34801561029b57600080fd5b506102b660048036038101906102b19190614c41565b611a41565b6040516102c39190614c7d565b60405180910390f35b3480156102d857600080fd5b506102e1611a59565b6040516102ee9190614d13565b60405180910390f35b34801561030357600080fd5b5061031e60048036038101906103199190614d2e565b611a7d565b60405161032b9190614c7d565b60405180910390f35b34801561034057600080fd5b50610349611aa2565b6040516103569190614f8d565b60405180910390f35b34801561036b57600080fd5b5061038660048036038101906103819190614faf565b611c6c565b005b34801561039457600080fd5b5061039d61275b565b6040516103aa9190614d13565b60405180910390f35b3480156103bf57600080fd5b506103da60048036038101906103d59190614d2e565b61277f565b6040516103e79190614c7d565b60405180910390f35b3480156103fc57600080fd5b506104056127b1565b604051610412919061504b565b60405180910390f35b34801561042757600080fd5b50610442600480360381019061043d9190614d2e565b6127c9565b60405161044f9190615102565b60405180910390f35b34801561046457600080fd5b5061046d612973565b60405161047a9190614c7d565b60405180910390f35b34801561048f57600080fd5b506104aa60048036038101906104a59190614c41565b6129bd565b6040516104b79190614c7d565b60405180910390f35b6104da60048036038101906104d59190615124565b6129d5565b005b3480156104e857600080fd5b5061050360048036038101906104fe9190614c41565b613300565b604051610514959493929190614cb1565b60405180910390f35b34801561052957600080fd5b50610544600480360381019061053f9190614d2e565b613336565b005b34801561055257600080fd5b5061056d60048036038101906105689190614c41565b6138fb565b60405161057a9190615102565b60405180910390f35b34801561058f57600080fd5b506105aa60048036038101906105a591906151e2565b613a93565b6040516105b79190614c7d565b60405180910390f35b3480156105cc57600080fd5b506105e760048036038101906105e29190614d2e565b613ab1565b6040516105f49190615102565b60405180910390f35b34801561060957600080fd5b50610624600480360381019061061f9190614c41565b613c5b565b604051610635959493929190614cb1565b60405180910390f35b61065860048036038101906106539190615124565b613c91565b005b34801561066657600080fd5b50610681600480360381019061067c9190614d2e565b6145aa565b60405161068e9190614c7d565b60405180910390f35b3480156106a357600080fd5b506106be60048036038101906106b99190614d2e565b6145dc565b6040516106cb9190614c7d565b60405180910390f35b3480156106e057600080fd5b506106fb60048036038101906106f69190614c41565b614646565b6040516107089190614c7d565b60405180910390f35b3373ffffffffffffffffffffffffffffffffffffffff1660056000898152602001908152602001600020600701600088815260200190815260200160002060003373ffffffffffffffffffffffffffffffffffffffff1673ffffffffffffffffffffffffffffffffffffffff16815260200190815260200160002060000160009054906101000a900473ffffffffffffffffffffffffffffffffffffffff1673ffffffffffffffffffffffffffffffffffffffff1603610806576040517f08c379a00000000000000000000000000000000000000000000000000000000081526004016107fd906152b8565b60405180910390fd5b83850361081257600080fd5b8773ffffffffffffffffffffffffffffffffffffffff163373ffffffffffffffffffffffffffffffffffffffff1614610880576040517f08c379a00000000000000000000000000000000000000000000000000000000081526004016108779061534a565b60405180910390fd5b600034116108c3576040517f08c379a00000000000000000000000000000000000000000000000000000000081526004016108ba906153b6565b60405180910390fd5b848614806108d057508386145b61090f576040517f08c379a000000000000000000000000000000000000000000000000000000000815260040161090690615448565b60405180910390fd5b6000801916600560008981526020019081526020016000206008015403610b295760006040518060400160405280600267ffffffffffffffff81111561095857610957614977565b5b6040519080825280602002602001820160405280156109865781602001602082028036833780820191505090505b508152602001600267ffffffffffffffff8111156109a7576109a6614977565b5b6040519080825280602002602001820160405280156109da57816020015b60608152602001906001900390816109c55790505b508152509050600281600001516000815181106109fa576109f9615468565b5b60200260200101906004811115610a1457610a13615497565b5b90816004811115610a2857610a27615497565b5b8152505060048160000151600181518110610a4657610a45615468565b5b60200260200101906004811115610a6057610a5f615497565b5b90816004811115610a7457610a73615497565b5b81525050610a80614666565b8160200151600081518110610a9857610a97615468565b5b6020026020010181905250610ab782610ab2308b8861467d565b6146ac565b8160200151600181518110610acf57610ace615468565b5b6020026020010181905250610b0d30633b51e58a60e01b604051602001610af69190615501565b6040516020818303038152906040528360006146d8565b600560008a815260200190815260200160002060080181905550505b60006064600534610b3a919061554b565b610b4491906155d4565b905060006064605f34610b57919061554b565b610b6191906155d4565b90506000600560008b815260200190815260200160002090506000600160003373ffffffffffffffffffffffffffffffffffffffff1673ffffffffffffffffffffffffffffffffffffffff168152602001908152602001600020600101905060008260070160008c815260200190815260200160002060003373ffffffffffffffffffffffffffffffffffffffff1673ffffffffffffffffffffffffffffffffffffffff168152602001908152602001600020905060008360060160008d8152602001908152602001600020905060008054906101000a900473ffffffffffffffffffffffffffffffffffffffff1673ffffffffffffffffffffffffffffffffffffffff166108fc879081150290604051600060405180830381858888f19350505050158015610c95573d6000803e3d6000fd5b5084600160003373ffffffffffffffffffffffffffffffffffffffff1673ffffffffffffffffffffffffffffffffffffffff1681526020019081526020016000206000016000828254610ce89190615605565b92505081905550826040518060e001604052803373ffffffffffffffffffffffffffffffffffffffff1681526020018781526020018e81526020018f81526020016040518060400160405280600c81526020017f506f696e74205370726561640000000000000000000000000000000000000000815250815260200142815260200160011515815250908060018154018082558091505060019003906000526020600020906007020160009091909190915060008201518160000160006101000a81548173ffffffffffffffffffffffffffffffffffffffff021916908373ffffffffffffffffffffffffffffffffffffffff1602179055506020820151816001015560408201518160020155606082015181600301556080820151816004019080519060200190610e1b929190614786565b5060a0820151816005015560c08201518160060160006101000a81548160ff021916908315150217905550505034600260008f81526020019081526020016000206000828254610e6b9190615605565b9250508190555034600360008f815260200190815260200160002060008e81526020019081526020016000206000828254610ea69190615605565b9250508190555084846002016000828254610ec19190615605565b92505081905550848460030160008e81526020019081526020016000206000828254610eed9190615605565b925050819055508a8460040181905550898460050181905550888460010181905550878460000160003373ffffffffffffffffffffffffffffffffffffffff1673ffffffffffffffffffffffffffffffffffffffff16815260200190815260200160002060008e81526020019081526020016000208190555080339080600181540180825580915050600190039060005260206000200160009091909190916101000a81548173ffffffffffffffffffffffffffffffffffffffff021916908373ffffffffffffffffffffffffffffffffffffffff160217905550338260000160006101000a81548173ffffffffffffffffffffffffffffffffffffffff021916908373ffffffffffffffffffffffffffffffffffffffff1602179055508482600101600082825461101f9190615605565b925050819055508b82600201819055508c82600301819055506040518060400160405280600c81526020017f506f696e74205370726561640000000000000000000000000000000000000000815250826004019080519060200190611085929190614786565b5042826005018190555060018260060160006101000a81548160ff0219169083151502179055505050505050505050505050505050565b7f000000000000000000000000000000000000000000000000000000000000000073ffffffffffffffffffffffffffffffffffffffff163373ffffffffffffffffffffffffffffffffffffffff161461114a576040517f08c379a0000000000000000000000000000000000000000000000000000000008152600401611141906156a7565b60405180910390fd5b60005b600460008581526020019081526020016000206005016000848152602001908152602001600020805490508110156115d957600060046000868152602001908152602001600020600501600085815260200190815260200160002082815481106111ba576111b9615468565b5b9060005260206000200160009054906101000a900473ffffffffffffffffffffffffffffffffffffffff169050600060046000878152602001908152602001600020600601600086815260200190815260200160002060008373ffffffffffffffffffffffffffffffffffffffff1673ffffffffffffffffffffffffffffffffffffffff1681526020019081526020016000206001015490506000600460008881526020019081526020016000206002016000878152602001908152602001600020548261128891906155d4565b90508273ffffffffffffffffffffffffffffffffffffffff166108fc82600460008b8152602001908152602001600020600101546112c6919061554b565b9081150290604051600060405180830381858888f193505050501580156112f1573d6000803e3d6000fd5b5081600160008573ffffffffffffffffffffffffffffffffffffffff1673ffffffffffffffffffffffffffffffffffffffff168152602001908152602001600020600001600082825461134491906156c7565b9250508190555060005b600160008573ffffffffffffffffffffffffffffffffffffffff1673ffffffffffffffffffffffffffffffffffffffff168152602001908152602001600020600101805490508110156115c2576000600160008673ffffffffffffffffffffffffffffffffffffffff1673ffffffffffffffffffffffffffffffffffffffff16815260200190815260200160002060010182815481106113f1576113f0615468565b5b90600052602060002090600702016040518060e00160405290816000820160009054906101000a900473ffffffffffffffffffffffffffffffffffffffff1673ffffffffffffffffffffffffffffffffffffffff1673ffffffffffffffffffffffffffffffffffffffff16815260200160018201548152602001600282015481526020016003820154815260200160048201805461148e9061572a565b80601f01602080910402602001604051908101604052809291908181526020018280546114ba9061572a565b80156115075780601f106114dc57610100808354040283529160200191611507565b820191906000526020600020905b8154815290600101906020018083116114ea57829003601f168201915b50505050508152602001600582015481526020016006820160009054906101000a900460ff16151515158152505090508881606001511480156115975750604051602001611554906157b2565b60405160208183030381529060405280519060200120816080015160405160200161157f91906157f8565b60405160208183030381529060405280519060200120145b156115ae5760008160c00190151590811515815250505b5080806115ba9061580f565b91505061134e565b5050505080806115d19061580f565b91505061114d565b5060005b600460008581526020019081526020016000206005016000838152602001908152602001600020805490508110156119c9576000600460008681526020019081526020016000206005016000848152602001908152602001600020828154811061164a57611649615468565b5b9060005260206000200160009054906101000a900473ffffffffffffffffffffffffffffffffffffffff169050600060046000878152602001908152602001600020600601600085815260200190815260200160002060008373ffffffffffffffffffffffffffffffffffffffff1673ffffffffffffffffffffffffffffffffffffffff16815260200190815260200160002060010154905080600160008473ffffffffffffffffffffffffffffffffffffffff1673ffffffffffffffffffffffffffffffffffffffff168152602001908152602001600020600001600082825461173591906156c7565b9250508190555060005b600160008473ffffffffffffffffffffffffffffffffffffffff1673ffffffffffffffffffffffffffffffffffffffff168152602001908152602001600020600101805490508110156119b3576000600160008573ffffffffffffffffffffffffffffffffffffffff1673ffffffffffffffffffffffffffffffffffffffff16815260200190815260200160002060010182815481106117e2576117e1615468565b5b90600052602060002090600702016040518060e00160405290816000820160009054906101000a900473ffffffffffffffffffffffffffffffffffffffff1673ffffffffffffffffffffffffffffffffffffffff1673ffffffffffffffffffffffffffffffffffffffff16815260200160018201548152602001600282015481526020016003820154815260200160048201805461187f9061572a565b80601f01602080910402602001604051908101604052809291908181526020018280546118ab9061572a565b80156118f85780601f106118cd576101008083540402835291602001916118f8565b820191906000526020600020905b8154815290600101906020018083116118db57829003601f168201915b50505050508152602001600582015481526020016006820160009054906101000a900460ff16151515158152505090508781606001511480156119885750604051602001611945906157b2565b60405160208183030381529060405280519060200120816080015160405160200161197091906157f8565b60405160208183030381529060405280519060200120145b1561199f5760008160c00190151590811515815250505b5080806119ab9061580f565b91505061173f565b50505080806119c19061580f565b9150506115dd565b50505050565b7f000000000000000000000000000000000000000000000000000000000000000081565b60026020528060005260406000206000915090505481565b60056020528060005260406000206000915090508060010154908060020154908060040154908060050154908060080154905085565b60076020528060005260406000206000915090505481565b7f000000000000000000000000000000000000000000000000000000000000000081565b6003602052816000526040600020602052806000526040600020600091509150505481565b6060600160003373ffffffffffffffffffffffffffffffffffffffff1673ffffffffffffffffffffffffffffffffffffffff168152602001908152602001600020600101805480602002602001604051908101604052809291908181526020016000905b82821015611c6357838290600052602060002090600702016040518060e00160405290816000820160009054906101000a900473ffffffffffffffffffffffffffffffffffffffff1673ffffffffffffffffffffffffffffffffffffffff1673ffffffffffffffffffffffffffffffffffffffff168152602001600182015481526020016002820154815260200160038201548152602001600482018054611bad9061572a565b80601f0160208091040260200160405190810160405280929190818152602001828054611bd99061572a565b8015611c265780601f10611bfb57610100808354040283529160200191611c26565b820191906000526020600020905b815481529060010190602001808311611c0957829003601f168201915b50505050508152602001600582015481526020016006820160009054906101000a900460ff16151515158152505081526020019060010190611b06565b50505050905090565b7f000000000000000000000000000000000000000000000000000000000000000073ffffffffffffffffffffffffffffffffffffffff163373ffffffffffffffffffffffffffffffffffffffff1614611cfa576040517f08c379a0000000000000000000000000000000000000000000000000000000008152600401611cf1906156a7565b60405180910390fd5b60005b600560008781526020019081526020016000206006016000868152602001908152602001600020805490508110156122265760006005600088815260200190815260200160002060060160008781526020019081526020016000208281548110611d6a57611d69615468565b5b9060005260206000200160009054906101000a900473ffffffffffffffffffffffffffffffffffffffff169050600060056000898152602001908152602001600020600701600088815260200190815260200160002060008373ffffffffffffffffffffffffffffffffffffffff1673ffffffffffffffffffffffffffffffffffffffff1681526020019081526020016000206001015490506000600560008a815260200190815260200160002060000160003373ffffffffffffffffffffffffffffffffffffffff1673ffffffffffffffffffffffffffffffffffffffff1681526020019081526020016000206000898152602001908152602001600020549050848187611e799190615857565b1315611ef3578273ffffffffffffffffffffffffffffffffffffffff166108fc83600560008d81526020019081526020016000206002015485611ebc91906155d4565b611ec6919061554b565b9081150290604051600060405180830381858888f19350505050158015611ef1573d6000803e3d6000fd5b505b81600160008573ffffffffffffffffffffffffffffffffffffffff1673ffffffffffffffffffffffffffffffffffffffff1681526020019081526020016000206000016000828254611f4591906156c7565b9250508190555060005b600160008573ffffffffffffffffffffffffffffffffffffffff1673ffffffffffffffffffffffffffffffffffffffff1681526020019081526020016000206001018054905081101561220f576000600160008673ffffffffffffffffffffffffffffffffffffffff1673ffffffffffffffffffffffffffffffffffffffff1681526020019081526020016000206001018281548110611ff257611ff1615468565b5b90600052602060002090600702016040518060e00160405290816000820160009054906101000a900473ffffffffffffffffffffffffffffffffffffffff1673ffffffffffffffffffffffffffffffffffffffff1673ffffffffffffffffffffffffffffffffffffffff16815260200160018201548152602001600282015481526020016003820154815260200160048201805461208f9061572a565b80601f01602080910402602001604051908101604052809291908181526020018280546120bb9061572a565b80156121085780601f106120dd57610100808354040283529160200191612108565b820191906000526020600020905b8154815290600101906020018083116120eb57829003601f168201915b50505050508152602001600582015481526020016006820160009054906101000a900460ff16151515158152505090508a604051602001612149919061590c565b604051602081830303815290604052805190602001208160600151604051602001612174919061590c565b604051602081830303815290604052805190602001201480156121e457506040516020016121a190615973565b6040516020818303038152906040528051906020012081608001516040516020016121cc91906157f8565b60405160208183030381529060405280519060200120145b156121fb5760008160c00190151590811515815250505b5080806122079061580f565b915050611f4f565b50505050808061221e9061580f565b915050611cfd565b5060005b60056000878152602001908152602001600020600601600085815260200190815260200160002080549050811015612753576000600560008881526020019081526020016000206006016000868152602001908152602001600020828154811061229757612296615468565b5b9060005260206000200160009054906101000a900473ffffffffffffffffffffffffffffffffffffffff169050600060056000898152602001908152602001600020600701600087815260200190815260200160002060008373ffffffffffffffffffffffffffffffffffffffff1673ffffffffffffffffffffffffffffffffffffffff16815260200190815260200160002060010154905080600160008473ffffffffffffffffffffffffffffffffffffffff1673ffffffffffffffffffffffffffffffffffffffff168152602001908152602001600020600001600082825461238291906156c7565b925050819055506000600560008a815260200190815260200160002060000160003373ffffffffffffffffffffffffffffffffffffffff1673ffffffffffffffffffffffffffffffffffffffff16815260200190815260200160002060008881526020019081526020016000205490508581866123ff9190615857565b1315612479578273ffffffffffffffffffffffffffffffffffffffff166108fc83600560008d8152602001908152602001600020600201548561244291906155d4565b61244c919061554b565b9081150290604051600060405180830381858888f19350505050158015612477573d6000803e3d6000fd5b505b60005b600160008573ffffffffffffffffffffffffffffffffffffffff1673ffffffffffffffffffffffffffffffffffffffff1681526020019081526020016000206001018054905081101561273c576000600160008673ffffffffffffffffffffffffffffffffffffffff1673ffffffffffffffffffffffffffffffffffffffff168152602001908152602001600020600101828154811061251f5761251e615468565b5b90600052602060002090600702016040518060e00160405290816000820160009054906101000a900473ffffffffffffffffffffffffffffffffffffffff1673ffffffffffffffffffffffffffffffffffffffff1673ffffffffffffffffffffffffffffffffffffffff1681526020016001820154815260200160028201548152602001600382015481526020016004820180546125bc9061572a565b80601f01602080910402602001604051908101604052809291908181526020018280546125e89061572a565b80156126355780601f1061260a57610100808354040283529160200191612635565b820191906000526020600020905b81548152906001019060200180831161261857829003601f168201915b50505050508152602001600582015481526020016006820160009054906101000a900460ff16151515158152505090508a604051602001612676919061590c565b6040516020818303038152906040528051906020012081606001516040516020016126a1919061590c565b6040516020818303038152906040528051906020012014801561271157506040516020016126ce90615973565b6040516020818303038152906040528051906020012081608001516040516020016126f991906157f8565b60405160208183030381529060405280519060200120145b156127285760008160c00190151590811515815250505b5080806127349061580f565b91505061247c565b50505050808061274b9061580f565b91505061222a565b505050505050565b7f000000000000000000000000000000000000000000000000000000000000000081565b600060046000848152602001908152602001600020600201600083815260200190815260200160002054905092915050565b737506c12a824d73d9b08564d5afc22c949434755e81565b6127d161480c565b60056000848152602001908152602001600020600701600083815260200190815260200160002060003373ffffffffffffffffffffffffffffffffffffffff1673ffffffffffffffffffffffffffffffffffffffff1681526020019081526020016000206040518060e00160405290816000820160009054906101000a900473ffffffffffffffffffffffffffffffffffffffff1673ffffffffffffffffffffffffffffffffffffffff1673ffffffffffffffffffffffffffffffffffffffff1681526020016001820154815260200160028201548152602001600382015481526020016004820180546128c49061572a565b80601f01602080910402602001604051908101604052809291908181526020018280546128f09061572a565b801561293d5780601f106129125761010080835404028352916020019161293d565b820191906000526020600020905b81548152906001019060200180831161292057829003601f168201915b50505050508152602001600582015481526020016006820160009054906101000a900460ff161515151581525050905092915050565b6000600160003373ffffffffffffffffffffffffffffffffffffffff1673ffffffffffffffffffffffffffffffffffffffff16815260200190815260200160002060000154905090565b60086020528060005260406000206000915090505481565b3373ffffffffffffffffffffffffffffffffffffffff166006600088815260200190815260200160002060060160003373ffffffffffffffffffffffffffffffffffffffff1673ffffffffffffffffffffffffffffffffffffffff16815260200190815260200160002060000160009054906101000a900473ffffffffffffffffffffffffffffffffffffffff1673ffffffffffffffffffffffffffffffffffffffff1603612ab9576040517f08c379a0000000000000000000000000000000000000000000000000000000008152600401612ab0906152b8565b60405180910390fd5b828403612ac557600080fd5b8673ffffffffffffffffffffffffffffffffffffffff163373ffffffffffffffffffffffffffffffffffffffff1614612b33576040517f08c379a0000000000000000000000000000000000000000000000000000000008152600401612b2a9061534a565b60405180910390fd5b60003411612b76576040517f08c379a0000000000000000000000000000000000000000000000000000000008152600401612b6d906153b6565b60405180910390fd5b6000801916600660008881526020019081526020016000206007015403612d905760006040518060400160405280600267ffffffffffffffff811115612bbf57612bbe614977565b5b604051908082528060200260200182016040528015612bed5781602001602082028036833780820191505090505b508152602001600267ffffffffffffffff811115612c0e57612c0d614977565b5b604051908082528060200260200182016040528015612c4157816020015b6060815260200190600190039081612c2c5790505b50815250905060028160000151600081518110612c6157612c60615468565b5b60200260200101906004811115612c7b57612c7a615497565b5b90816004811115612c8f57612c8e615497565b5b8152505060048160000151600181518110612cad57612cac615468565b5b60200260200101906004811115612cc757612cc6615497565b5b90816004811115612cdb57612cda615497565b5b81525050612ce7614666565b8160200151600081518110612cff57612cfe615468565b5b6020026020010181905250612d1e82612d19308a8761467d565b6146ac565b8160200151600181518110612d3657612d35615468565b5b6020026020010181905250612d7430638ee95f9f60e01b604051602001612d5d9190615501565b6040516020818303038152906040528360006146d8565b6006600089815260200190815260200160002060070181905550505b60006064600534612da1919061554b565b612dab91906155d4565b905060006064605f34612dbe919061554b565b612dc891906155d4565b90506000600660008a815260200190815260200160002090506000600160003373ffffffffffffffffffffffffffffffffffffffff1673ffffffffffffffffffffffffffffffffffffffff168152602001908152602001600020600101905060008260060160003373ffffffffffffffffffffffffffffffffffffffff1673ffffffffffffffffffffffffffffffffffffffff1681526020019081526020016000209050600083600501905060008054906101000a900473ffffffffffffffffffffffffffffffffffffffff1673ffffffffffffffffffffffffffffffffffffffff166108fc879081150290604051600060405180830381858888f19350505050158015612eda573d6000803e3d6000fd5b5084600160003373ffffffffffffffffffffffffffffffffffffffff1673ffffffffffffffffffffffffffffffffffffffff1681526020019081526020016000206000016000828254612f2d9190615605565b92505081905550826040518060e001604052803373ffffffffffffffffffffffffffffffffffffffff168152602001878152602001600081526020018e81526020016040518060400160405280600b81526020017f506f696e7420546f74616c000000000000000000000000000000000000000000815250815260200142815260200160011515815250908060018154018082558091505060019003906000526020600020906007020160009091909190915060008201518160000160006101000a81548173ffffffffffffffffffffffffffffffffffffffff021916908373ffffffffffffffffffffffffffffffffffffffff1602179055506020820151816001015560408201518160020155606082015181600301556080820151816004019080519060200190613061929190614786565b5060a0820151816005015560c08201518160060160006101000a81548160ff021916908315150217905550505034600260008e815260200190815260200160002060008282546130b19190615605565b9250508190555034600360008e815260200190815260200160002060008c815260200190815260200160002060008282546130ec9190615605565b9250508190555034600360008e815260200190815260200160002060008b815260200190815260200160002060008282546131279190615605565b92505081905550848460020160008282546131429190615605565b925050819055508984600301819055508884600401819055508784600101819055508a8460000160003373ffffffffffffffffffffffffffffffffffffffff1673ffffffffffffffffffffffffffffffffffffffff1681526020019081526020016000208190555080339080600181540180825580915050600190039060005260206000200160009091909190916101000a81548173ffffffffffffffffffffffffffffffffffffffff021916908373ffffffffffffffffffffffffffffffffffffffff160217905550338260000160006101000a81548173ffffffffffffffffffffffffffffffffffffffff021916908373ffffffffffffffffffffffffffffffffffffffff160217905550848260010160008282546132639190615605565b92505081905550600082600201819055508b82600301819055506040518060400160405280600b81526020017f506f696e7420546f74616c0000000000000000000000000000000000000000008152508260040190805190602001906132ca929190614786565b5042826005018190555060018260060160006101000a81548160ff02191690831515021790555050505050505050505050505050565b60046020528060005260406000206000915090508060000154908060010154908060030154908060040154908060070154905085565b7f000000000000000000000000000000000000000000000000000000000000000073ffffffffffffffffffffffffffffffffffffffff163373ffffffffffffffffffffffffffffffffffffffff16146133c4576040517f08c379a00000000000000000000000000000000000000000000000000000000081526004016133bb906156a7565b60405180910390fd5b60005b60066000848152602001908152602001600020600501805490508110156138f657600060066000858152602001908152602001600020600501828154811061341257613411615468565b5b9060005260206000200160009054906101000a900473ffffffffffffffffffffffffffffffffffffffff16905060006006600086815260200190815260200160002060060160008373ffffffffffffffffffffffffffffffffffffffff1673ffffffffffffffffffffffffffffffffffffffff1681526020019081526020016000206001015490506006600086815260200190815260200160002060000160008373ffffffffffffffffffffffffffffffffffffffff1673ffffffffffffffffffffffffffffffffffffffff1681526020019081526020016000205484111561356d578173ffffffffffffffffffffffffffffffffffffffff166108fc8260066000898152602001908152602001600020600201548461353291906155d4565b61353c919061554b565b9081150290604051600060405180830381858888f19350505050158015613567573d6000803e3d6000fd5b50613610565b6006600086815260200190815260200160002060000160008373ffffffffffffffffffffffffffffffffffffffff1673ffffffffffffffffffffffffffffffffffffffff16815260200190815260200160002054840361360f578173ffffffffffffffffffffffffffffffffffffffff166108fc829081150290604051600060405180830381858888f1935050505015801561360d573d6000803e3d6000fd5b505b5b80600160008473ffffffffffffffffffffffffffffffffffffffff1673ffffffffffffffffffffffffffffffffffffffff168152602001908152602001600020600001600082825461366291906156c7565b9250508190555060005b600160008473ffffffffffffffffffffffffffffffffffffffff1673ffffffffffffffffffffffffffffffffffffffff168152602001908152602001600020600101805490508110156138e0576000600160008573ffffffffffffffffffffffffffffffffffffffff1673ffffffffffffffffffffffffffffffffffffffff168152602001908152602001600020600101828154811061370f5761370e615468565b5b90600052602060002090600702016040518060e00160405290816000820160009054906101000a900473ffffffffffffffffffffffffffffffffffffffff1673ffffffffffffffffffffffffffffffffffffffff1673ffffffffffffffffffffffffffffffffffffffff1681526020016001820154815260200160028201548152602001600382015481526020016004820180546137ac9061572a565b80601f01602080910402602001604051908101604052809291908181526020018280546137d89061572a565b80156138255780601f106137fa57610100808354040283529160200191613825565b820191906000526020600020905b81548152906001019060200180831161380857829003601f168201915b50505050508152602001600582015481526020016006820160009054906101000a900460ff16151515158152505090508681606001511480156138b55750604051602001613872906159d4565b60405160208183030381529060405280519060200120816080015160405160200161389d91906157f8565b60405160208183030381529060405280519060200120145b156138cc5760008160c00190151590811515815250505b5080806138d89061580f565b91505061366c565b50505080806138ee9061580f565b9150506133c7565b505050565b61390361480c565b6006600083815260200190815260200160002060060160003373ffffffffffffffffffffffffffffffffffffffff1673ffffffffffffffffffffffffffffffffffffffff1681526020019081526020016000206040518060e00160405290816000820160009054906101000a900473ffffffffffffffffffffffffffffffffffffffff1673ffffffffffffffffffffffffffffffffffffffff1673ffffffffffffffffffffffffffffffffffffffff1681526020016001820154815260200160028201548152602001600382015481526020016004820180546139e59061572a565b80601f0160208091040260200160405190810160405280929190818152602001828054613a119061572a565b8015613a5e5780601f10613a3357610100808354040283529160200191613a5e565b820191906000526020600020905b815481529060010190602001808311613a4157829003601f168201915b50505050508152602001600582015481526020016006820160009054906101000a900460ff1615151515815250509050919050565b60016020528060005260406000206000915090508060000154905081565b613ab961480c565b60046000848152602001908152602001600020600601600083815260200190815260200160002060003373ffffffffffffffffffffffffffffffffffffffff1673ffffffffffffffffffffffffffffffffffffffff1681526020019081526020016000206040518060e00160405290816000820160009054906101000a900473ffffffffffffffffffffffffffffffffffffffff1673ffffffffffffffffffffffffffffffffffffffff1673ffffffffffffffffffffffffffffffffffffffff168152602001600182015481526020016002820154815260200160038201548152602001600482018054613bac9061572a565b80601f0160208091040260200160405190810160405280929190818152602001828054613bd89061572a565b8015613c255780601f10613bfa57610100808354040283529160200191613c25565b820191906000526020600020905b815481529060010190602001808311613c0857829003601f168201915b50505050508152602001600582015481526020016006820160009054906101000a900460ff161515151581525050905092915050565b60066020528060005260406000206000915090508060010154908060020154908060030154908060040154908060070154905085565b828403613c9d57600080fd5b8673ffffffffffffffffffffffffffffffffffffffff163373ffffffffffffffffffffffffffffffffffffffff1614613d0b576040517f08c379a0000000000000000000000000000000000000000000000000000000008152600401613d029061534a565b60405180910390fd5b60003411613d4e576040517f08c379a0000000000000000000000000000000000000000000000000000000008152600401613d45906153b6565b60405180910390fd5b83851480613d5b57508285145b613d9a576040517f08c379a0000000000000000000000000000000000000000000000000000000008152600401613d9190615448565b60405180910390fd5b6000801916600460008881526020019081526020016000206007015403613fb45760006040518060400160405280600267ffffffffffffffff811115613de357613de2614977565b5b604051908082528060200260200182016040528015613e115781602001602082028036833780820191505090505b508152602001600267ffffffffffffffff811115613e3257613e31614977565b5b604051908082528060200260200182016040528015613e6557816020015b6060815260200190600190039081613e505790505b50815250905060028160000151600081518110613e8557613e84615468565b5b60200260200101906004811115613e9f57613e9e615497565b5b90816004811115613eb357613eb2615497565b5b8152505060048160000151600181518110613ed157613ed0615468565b5b60200260200101906004811115613eeb57613eea615497565b5b90816004811115613eff57613efe615497565b5b81525050613f0b614666565b8160200151600081518110613f2357613f22615468565b5b6020026020010181905250613f4282613f3d308a8761467d565b6146ac565b8160200151600181518110613f5a57613f59615468565b5b6020026020010181905250613f98306303bfeb2060e01b604051602001613f819190615501565b6040516020818303038152906040528360006146d8565b6004600089815260200190815260200160002060070181905550505b60006064600534613fc5919061554b565b613fcf91906155d4565b905060006064605f34613fe2919061554b565b613fec91906155d4565b90506000600460008a815260200190815260200160002090506000600160003373ffffffffffffffffffffffffffffffffffffffff1673ffffffffffffffffffffffffffffffffffffffff168152602001908152602001600020600101905060008260060160008b815260200190815260200160002060003373ffffffffffffffffffffffffffffffffffffffff1673ffffffffffffffffffffffffffffffffffffffff168152602001908152602001600020905060008360050160008c8152602001908152602001600020905060008054906101000a900473ffffffffffffffffffffffffffffffffffffffff1673ffffffffffffffffffffffffffffffffffffffff166108fc879081150290604051600060405180830381858888f19350505050158015614120573d6000803e3d6000fd5b5084600160003373ffffffffffffffffffffffffffffffffffffffff1673ffffffffffffffffffffffffffffffffffffffff16815260200190815260200160002060000160008282546141739190615605565b92505081905550826040518060e001604052803373ffffffffffffffffffffffffffffffffffffffff1681526020018781526020018d81526020018e81526020016040518060400160405280600a81526020017f4d6f6e6579204c696e6500000000000000000000000000000000000000000000815250815260200142815260200160011515815250908060018154018082558091505060019003906000526020600020906007020160009091909190915060008201518160000160006101000a81548173ffffffffffffffffffffffffffffffffffffffff021916908373ffffffffffffffffffffffffffffffffffffffff16021790555060208201518160010155604082015181600201556060820151816003015560808201518160040190805190602001906142a6929190614786565b5060a0820151816005015560c08201518160060160006101000a81548160ff021916908315150217905550505034600260008e815260200190815260200160002060008282546142f69190615605565b9250508190555034600360008e815260200190815260200160002060008d815260200190815260200160002060008282546143319190615605565b925050819055508484600101600082825461434c9190615605565b92505081905550848460020160008d815260200190815260200160002060008282546143789190615605565b925050819055508984600301819055508884600401819055508784600001819055503373ffffffffffffffffffffffffffffffffffffffff16600460008e815260200190815260200160002060060160008d815260200190815260200160002060003373ffffffffffffffffffffffffffffffffffffffff1673ffffffffffffffffffffffffffffffffffffffff16815260200190815260200160002060000160009054906101000a900473ffffffffffffffffffffffffffffffffffffffff1673ffffffffffffffffffffffffffffffffffffffff16146144b75780339080600181540180825580915050600190039060005260206000200160009091909190916101000a81548173ffffffffffffffffffffffffffffffffffffffff021916908373ffffffffffffffffffffffffffffffffffffffff1602179055505b338260000160006101000a81548173ffffffffffffffffffffffffffffffffffffffff021916908373ffffffffffffffffffffffffffffffffffffffff1602179055508482600101600082825461450e9190615605565b925050819055508a82600201819055508b82600301819055506040518060400160405280600a81526020017f4d6f6e6579204c696e6500000000000000000000000000000000000000000000815250826004019080519060200190614574929190614786565b5042826005018190555060018260060160006101000a81548160ff02191690831515021790555050505050505050505050505050565b600060056000848152602001908152602001600020600301600083815260200190815260200160002054905092915050565b60008060036000858152602001908152602001600020600084815260200190815260200160002054905060006002600086815260200190815260200160002054905060008160648461462e919061554b565b61463891906155d4565b905080935050505092915050565b600060066000838152602001908152602001600020600201549050919050565b606060405180602001604052806000815250905090565b6060838383604051602001614694939291906159e9565b60405160208183030381529060405290509392505050565b606082826040516020016146c1929190615aae565b604051602081830303815290604052905092915050565b60007f000000000000000000000000000000000000000000000000000000000000000073ffffffffffffffffffffffffffffffffffffffff16633323b467868686866040518563ffffffff1660e01b81526004016147399493929190615d2c565b6020604051808303816000875af1158015614758573d6000803e3d6000fd5b505050506040513d601f19601f8201168201806040525081019061477c9190615dab565b9050949350505050565b8280546147929061572a565b90600052602060002090601f0160209004810192826147b457600085556147fb565b82601f106147cd57805160ff19168380011785556147fb565b828001600101855582156147fb579182015b828111156147fa5782518255916020019190600101906147df565b5b5090506148089190614861565b5090565b6040518060e00160405280600073ffffffffffffffffffffffffffffffffffffffff16815260200160008152602001600081526020016000815260200160608152602001600081526020016000151581525090565b5b8082111561487a576000816000905550600101614862565b5090565b6000604051905090565b600080fd5b600080fd5b600073ffffffffffffffffffffffffffffffffffffffff82169050919050565b60006148bd82614892565b9050919050565b6148cd816148b2565b81146148d857600080fd5b50565b6000813590506148ea816148c4565b92915050565b6000819050919050565b614903816148f0565b811461490e57600080fd5b50565b600081359050614920816148fa565b92915050565b6000819050919050565b61493981614926565b811461494457600080fd5b50565b60008135905061495681614930565b92915050565b600080fd5b600080fd5b6000601f19601f8301169050919050565b7f4e487b7100000000000000000000000000000000000000000000000000000000600052604160045260246000fd5b6149af82614966565b810181811067ffffffffffffffff821117156149ce576149cd614977565b5b80604052505050565b60006149e161487e565b90506149ed82826149a6565b919050565b600067ffffffffffffffff821115614a0d57614a0c614977565b5b614a1682614966565b9050602081019050919050565b82818337600083830152505050565b6000614a45614a40846149f2565b6149d7565b905082815260208101848484011115614a6157614a60614961565b5b614a6c848285614a23565b509392505050565b600082601f830112614a8957614a8861495c565b5b8135614a99848260208601614a32565b91505092915050565b600080600080600080600080610100898b031215614ac357614ac2614888565b5b6000614ad18b828c016148db565b9850506020614ae28b828c01614911565b9750506040614af38b828c01614911565b9650506060614b048b828c01614911565b9550506080614b158b828c01614911565b94505060a0614b268b828c01614911565b93505060c0614b378b828c01614947565b92505060e089013567ffffffffffffffff811115614b5857614b5761488d565b5b614b648b828c01614a74565b9150509295985092959890939650565b600080600060608486031215614b8d57614b8c614888565b5b6000614b9b86828701614911565b9350506020614bac86828701614911565b9250506040614bbd86828701614911565b9150509250925092565b6000819050919050565b6000614bec614be7614be284614892565b614bc7565b614892565b9050919050565b6000614bfe82614bd1565b9050919050565b6000614c1082614bf3565b9050919050565b614c2081614c05565b82525050565b6000602082019050614c3b6000830184614c17565b92915050565b600060208284031215614c5757614c56614888565b5b6000614c6584828501614911565b91505092915050565b614c77816148f0565b82525050565b6000602082019050614c926000830184614c6e565b92915050565b6000819050919050565b614cab81614c98565b82525050565b600060a082019050614cc66000830188614c6e565b614cd36020830187614c6e565b614ce06040830186614c6e565b614ced6060830185614c6e565b614cfa6080830184614ca2565b9695505050505050565b614d0d816148b2565b82525050565b6000602082019050614d286000830184614d04565b92915050565b60008060408385031215614d4557614d44614888565b5b6000614d5385828601614911565b9250506020614d6485828601614911565b9150509250929050565b600081519050919050565b600082825260208201905092915050565b6000819050602082019050919050565b614da3816148b2565b82525050565b614db2816148f0565b82525050565b600081519050919050565b600082825260208201905092915050565b60005b83811015614df2578082015181840152602081019050614dd7565b83811115614e01576000848401525b50505050565b6000614e1282614db8565b614e1c8185614dc3565b9350614e2c818560208601614dd4565b614e3581614966565b840191505092915050565b60008115159050919050565b614e5581614e40565b82525050565b600060e083016000830151614e736000860182614d9a565b506020830151614e866020860182614da9565b506040830151614e996040860182614da9565b506060830151614eac6060860182614da9565b5060808301518482036080860152614ec48282614e07565b91505060a0830151614ed960a0860182614da9565b5060c0830151614eec60c0860182614e4c565b508091505092915050565b6000614f038383614e5b565b905092915050565b6000602082019050919050565b6000614f2382614d6e565b614f2d8185614d79565b935083602082028501614f3f85614d8a565b8060005b85811015614f7b5784840389528151614f5c8582614ef7565b9450614f6783614f0b565b925060208a01995050600181019050614f43565b50829750879550505050505092915050565b60006020820190508181036000830152614fa78184614f18565b905092915050565b600080600080600060a08688031215614fcb57614fca614888565b5b6000614fd988828901614911565b9550506020614fea88828901614911565b9450506040614ffb88828901614911565b935050606061500c88828901614947565b925050608061501d88828901614947565b9150509295509295909350565b600061503582614bf3565b9050919050565b6150458161502a565b82525050565b6000602082019050615060600083018461503c565b92915050565b600060e08301600083015161507e6000860182614d9a565b5060208301516150916020860182614da9565b5060408301516150a46040860182614da9565b5060608301516150b76060860182614da9565b50608083015184820360808601526150cf8282614e07565b91505060a08301516150e460a0860182614da9565b5060c08301516150f760c0860182614e4c565b508091505092915050565b6000602082019050818103600083015261511c8184615066565b905092915050565b600080600080600080600060e0888a03121561514357615142614888565b5b60006151518a828b016148db565b97505060206151628a828b01614911565b96505060406151738a828b01614911565b95505060606151848a828b01614911565b94505060806151958a828b01614911565b93505060a06151a68a828b01614911565b92505060c088013567ffffffffffffffff8111156151c7576151c661488d565b5b6151d38a828b01614a74565b91505092959891949750929550565b6000602082840312156151f8576151f7614888565b5b6000615206848285016148db565b91505092915050565b600082825260208201905092915050565b7f596f7520617265206f6e6c7920616c6c6f77656420746f20706c616365206d7560008201527f6c7469706c65204d6f6e6579204c696e652062657473206f6e2074686520736160208201527f6d652067616d6500000000000000000000000000000000000000000000000000604082015250565b60006152a260478361520f565b91506152ad82615220565b606082019050919050565b600060208201905081810360008301526152d181615295565b9050919050565b7f596f75206d757374206265742066726f6d20796f7572206f776e20616464726560008201527f7373000000000000000000000000000000000000000000000000000000000000602082015250565b600061533460228361520f565b915061533f826152d8565b604082019050919050565b6000602082019050818103600083015261536381615327565b9050919050565b7f596f75206d7573742062657420736f6d657468696e6700000000000000000000600082015250565b60006153a060168361520f565b91506153ab8261536a565b602082019050919050565b600060208201905081810360008301526153cf81615393565b9050919050565b7f596f75206d75737420626574206f6e2061207465616d2074686174206973207060008201527f6c6179696e6720696e20746869732067616d6500000000000000000000000000602082015250565b600061543260338361520f565b915061543d826153d6565b604082019050919050565b6000602082019050818103600083015261546181615425565b9050919050565b7f4e487b7100000000000000000000000000000000000000000000000000000000600052603260045260246000fd5b7f4e487b7100000000000000000000000000000000000000000000000000000000600052602160045260246000fd5b60007fffffffff0000000000000000000000000000000000000000000000000000000082169050919050565b6154fb816154c6565b82525050565b600060208201905061551660008301846154f2565b92915050565b7f4e487b7100000000000000000000000000000000000000000000000000000000600052601160045260246000fd5b6000615556826148f0565b9150615561836148f0565b9250817fffffffffffffffffffffffffffffffffffffffffffffffffffffffffffffffff048311821515161561559a5761559961551c565b5b828202905092915050565b7f4e487b7100000000000000000000000000000000000000000000000000000000600052601260045260246000fd5b60006155df826148f0565b91506155ea836148f0565b9250826155fa576155f96155a5565b5b828204905092915050565b6000615610826148f0565b915061561b836148f0565b9250827fffffffffffffffffffffffffffffffffffffffffffffffffffffffffffffffff038211156156505761564f61551c565b5b828201905092915050565b7f4f6e6c7920646564696361746564206d73672e73656e64657200000000000000600082015250565b600061569160198361520f565b915061569c8261565b565b602082019050919050565b600060208201905081810360008301526156c081615684565b9050919050565b60006156d2826148f0565b91506156dd836148f0565b9250828210156156f0576156ef61551c565b5b828203905092915050565b7f4e487b7100000000000000000000000000000000000000000000000000000000600052602260045260246000fd5b6000600282049050600182168061574257607f821691505b602082108103615755576157546156fb565b5b50919050565b600081905092915050565b7f4d6f6e6579204c696e6500000000000000000000000000000000000000000000600082015250565b600061579c600a8361575b565b91506157a782615766565b600a82019050919050565b60006157bd8261578f565b9150819050919050565b60006157d282614db8565b6157dc818561575b565b93506157ec818560208601614dd4565b80840191505092915050565b600061580482846157c7565b915081905092915050565b600061581a826148f0565b91507fffffffffffffffffffffffffffffffffffffffffffffffffffffffffffffffff820361584c5761584b61551c565b5b600182019050919050565b600061586282614926565b915061586d83614926565b9250817f7fffffffffffffffffffffffffffffffffffffffffffffffffffffffffffffff038313600083121516156158a8576158a761551c565b5b817f80000000000000000000000000000000000000000000000000000000000000000383126000831216156158e0576158df61551c565b5b828201905092915050565b6000819050919050565b615906615901826148f0565b6158eb565b82525050565b600061591882846158f5565b60208201915081905092915050565b7f506f696e74205370726561640000000000000000000000000000000000000000600082015250565b600061595d600c8361575b565b915061596882615927565b600c82019050919050565b600061597e82615950565b9150819050919050565b7f506f696e7420546f74616c000000000000000000000000000000000000000000600082015250565b60006159be600b8361575b565b91506159c982615988565b600b82019050919050565b60006159df826159b1565b9150819050919050565b60006060820190506159fe6000830186614d04565b615a0b6020830185614c6e565b615a186040830184614c6e565b949350505050565b6000615a2b82614db8565b615a35818561520f565b9350615a45818560208601614dd4565b615a4e81614966565b840191505092915050565b600081519050919050565b600082825260208201905092915050565b6000615a8082615a59565b615a8a8185615a64565b9350615a9a818560208601614dd4565b615aa381614966565b840191505092915050565b60006040820190508181036000830152615ac88185615a20565b90508181036020830152615adc8184615a75565b90509392505050565b600081519050919050565b600082825260208201905092915050565b6000819050602082019050919050565b60058110615b2257615b21615497565b5b50565b6000819050615b3382615b11565b919050565b6000615b4382615b25565b9050919050565b615b5381615b38565b82525050565b6000615b658383615b4a565b60208301905092915050565b6000602082019050919050565b6000615b8982615ae5565b615b938185615af0565b9350615b9e83615b01565b8060005b83811015615bcf578151615bb68882615b59565b9750615bc183615b71565b925050600181019050615ba2565b5085935050505092915050565b600081519050919050565b600082825260208201905092915050565b6000819050602082019050919050565b600082825260208201905092915050565b6000615c2482615a59565b615c2e8185615c08565b9350615c3e818560208601614dd4565b615c4781614966565b840191505092915050565b6000615c5e8383615c19565b905092915050565b6000602082019050919050565b6000615c7e82615bdc565b615c888185615be7565b935083602082028501615c9a85615bf8565b8060005b85811015615cd65784840389528151615cb78582615c52565b9450615cc283615c66565b925060208a01995050600181019050615c9e565b50829750879550505050505092915050565b60006040830160008301518482036000860152615d058282615b7e565b91505060208301518482036020860152615d1f8282615c73565b9150508091505092915050565b6000608082019050615d416000830187614d04565b8181036020830152615d538186615a75565b90508181036040830152615d678185615ce8565b9050615d766060830184614d04565b95945050505050565b615d8881614c98565b8114615d9357600080fd5b50565b600081519050615da581615d7f565b92915050565b600060208284031215615dc157615dc0614888565b5b6000615dcf84828501615d96565b9150509291505056fea2646970667358221220411ad7490bd02c0fcb3dd05142b934c92bc6f95eebdd78c034a31c4ed5333fe364736f6c634300080e0033","opcodes":"PUSH2 0x100 PUSH1 0x40 MSTORE CALLVALUE DUP1 ISZERO PUSH3 0x12 JUMPI PUSH1 0x0 DUP1 REVERT JUMPDEST POP PUSH20 0x2A6C106AE13B558BB9E2EC64BD2F1F7BEFF3A5E0 ADDRESS DUP2 ADDRESS DUP2 PUSH20 0xFFFFFFFFFFFFFFFFFFFFFFFFFFFFFFFFFFFFFFFF AND PUSH1 0x80 DUP2 PUSH20 0xFFFFFFFFFFFFFFFFFFFFFFFFFFFFFFFFFFFFFFFF AND DUP2 MSTORE POP POP DUP2 PUSH20 0xFFFFFFFFFFFFFFFFFFFFFFFFFFFFFFFFFFFFFFFF AND PUSH4 0x573EA575 PUSH1 0x40 MLOAD DUP2 PUSH4 0xFFFFFFFF AND PUSH1 0xE0 SHL DUP2 MSTORE PUSH1 0x4 ADD PUSH1 0x20 PUSH1 0x40 MLOAD DUP1 DUP4 SUB DUP2 DUP7 GAS STATICCALL ISZERO DUP1 ISZERO PUSH3 0xAB JUMPI RETURNDATASIZE PUSH1 0x0 DUP1 RETURNDATACOPY RETURNDATASIZE PUSH1 0x0 REVERT JUMPDEST POP POP POP POP PUSH1 0x40 MLOAD RETURNDATASIZE PUSH1 0x1F NOT PUSH1 0x1F DUP3 ADD AND DUP3 ADD DUP1 PUSH1 0x40 MSTORE POP DUP2 ADD SWAP1 PUSH3 0xD1 SWAP2 SWAP1 PUSH3 0x39B JUMP JUMPDEST PUSH20 0xFFFFFFFFFFFFFFFFFFFFFFFFFFFFFFFFFFFFFFFF AND PUSH1 0xC0 DUP2 PUSH20 0xFFFFFFFFFFFFFFFFFFFFFFFFFFFFFFFFFFFFFFFF AND DUP2 MSTORE POP POP PUSH1 0x0 DUP3 PUSH20 0xFFFFFFFFFFFFFFFFFFFFFFFFFFFFFFFFFFFFFFFF AND PUSH4 0xCD3D4FB9 PUSH1 0x2 PUSH1 0x40 MLOAD DUP3 PUSH4 0xFFFFFFFF AND PUSH1 0xE0 SHL DUP2 MSTORE PUSH1 0x4 ADD PUSH3 0x142 SWAP2 SWAP1 PUSH3 0x44D JUMP JUMPDEST PUSH1 0x20 PUSH1 0x40 MLOAD DUP1 DUP4 SUB DUP2 DUP7 GAS STATICCALL ISZERO DUP1 ISZERO PUSH3 0x160 JUMPI RETURNDATASIZE PUSH1 0x0 DUP1 RETURNDATACOPY RETURNDATASIZE PUSH1 0x0 REVERT JUMPDEST POP POP POP POP PUSH1 0x40 MLOAD RETURNDATASIZE PUSH1 0x1F NOT PUSH1 0x1F DUP3 ADD AND DUP3 ADD DUP1 PUSH1 0x40 MSTORE POP DUP2 ADD SWAP1 PUSH3 0x186 SWAP2 SWAP1 PUSH3 0x4AF JUMP JUMPDEST SWAP1 POP PUSH1 0x0 DUP2 PUSH20 0xFFFFFFFFFFFFFFFFFFFFFFFFFFFFFFFFFFFFFFFF AND PUSH4 0xBA1D0FF4 PUSH1 0x40 MLOAD DUP2 PUSH4 0xFFFFFFFF AND PUSH1 0xE0 SHL DUP2 MSTORE PUSH1 0x4 ADD PUSH1 0x20 PUSH1 0x40 MLOAD DUP1 DUP4 SUB DUP2 DUP7 GAS STATICCALL ISZERO DUP1 ISZERO PUSH3 0x1D6 JUMPI RETURNDATASIZE PUSH1 0x0 DUP1 RETURNDATACOPY RETURNDATASIZE PUSH1 0x0 REVERT JUMPDEST POP POP POP POP PUSH1 0x40 MLOAD RETURNDATASIZE PUSH1 0x1F NOT PUSH1 0x1F DUP3 ADD AND DUP3 ADD DUP1 PUSH1 0x40 MSTORE POP DUP2 ADD SWAP1 PUSH3 0x1FC SWAP2 SWAP1 PUSH3 0x4AF JUMP JUMPDEST SWAP1 POP DUP1 PUSH20 0xFFFFFFFFFFFFFFFFFFFFFFFFFFFFFFFFFFFFFFFF AND PUSH4 0xDED89A7C DUP5 PUSH1 0x40 MLOAD DUP3 PUSH4 0xFFFFFFFF AND PUSH1 0xE0 SHL DUP2 MSTORE PUSH1 0x4 ADD PUSH3 0x239 SWAP2 SWAP1 PUSH3 0x4F2 JUMP JUMPDEST PUSH1 0x40 DUP1 MLOAD DUP1 DUP4 SUB DUP2 DUP7 GAS STATICCALL ISZERO DUP1 ISZERO PUSH3 0x256 JUMPI RETURNDATASIZE PUSH1 0x0 DUP1 RETURNDATACOPY RETURNDATASIZE PUSH1 0x0 REVERT JUMPDEST POP POP POP POP PUSH1 0x40 MLOAD RETURNDATASIZE PUSH1 0x1F NOT PUSH1 0x1F DUP3 ADD AND DUP3 ADD DUP1 PUSH1 0x40 MSTORE POP DUP2 ADD SWAP1 PUSH3 0x27C SWAP2 SWAP1 PUSH3 0x54C JUMP JUMPDEST POP DUP1 PUSH20 0xFFFFFFFFFFFFFFFFFFFFFFFFFFFFFFFFFFFFFFFF AND PUSH1 0xA0 SWAP1 PUSH20 0xFFFFFFFFFFFFFFFFFFFFFFFFFFFFFFFFFFFFFFFF AND DUP2 MSTORE POP POP POP POP POP POP DUP1 PUSH20 0xFFFFFFFFFFFFFFFFFFFFFFFFFFFFFFFFFFFFFFFF AND PUSH1 0xE0 DUP2 PUSH20 0xFFFFFFFFFFFFFFFFFFFFFFFFFFFFFFFFFFFFFFFF AND DUP2 MSTORE POP POP POP POP CALLER PUSH1 0x0 DUP1 PUSH2 0x100 EXP DUP2 SLOAD DUP2 PUSH20 0xFFFFFFFFFFFFFFFFFFFFFFFFFFFFFFFFFFFFFFFF MUL NOT AND SWAP1 DUP4 PUSH20 0xFFFFFFFFFFFFFFFFFFFFFFFFFFFFFFFFFFFFFFFF AND MUL OR SWAP1 SSTORE POP PUSH3 0x593 JUMP JUMPDEST PUSH1 0x0 DUP1 REVERT JUMPDEST PUSH1 0x0 PUSH20 0xFFFFFFFFFFFFFFFFFFFFFFFFFFFFFFFFFFFFFFFF DUP3 AND SWAP1 POP SWAP2 SWAP1 POP JUMP JUMPDEST PUSH1 0x0 PUSH3 0x363 DUP3 PUSH3 0x336 JUMP JUMPDEST SWAP1 POP SWAP2 SWAP1 POP JUMP JUMPDEST PUSH3 0x375 DUP2 PUSH3 0x356 JUMP JUMPDEST DUP2 EQ PUSH3 0x381 JUMPI PUSH1 0x0 DUP1 REVERT JUMPDEST POP JUMP JUMPDEST PUSH1 0x0 DUP2 MLOAD SWAP1 POP PUSH3 0x395 DUP2 PUSH3 0x36A JUMP JUMPDEST SWAP3 SWAP2 POP POP JUMP JUMPDEST PUSH1 0x0 PUSH1 0x20 DUP3 DUP5 SUB SLT ISZERO PUSH3 0x3B4 JUMPI PUSH3 0x3B3 PUSH3 0x331 JUMP JUMPDEST JUMPDEST PUSH1 0x0 PUSH3 0x3C4 DUP5 DUP3 DUP6 ADD PUSH3 0x384 JUMP JUMPDEST SWAP2 POP POP SWAP3 SWAP2 POP POP JUMP JUMPDEST PUSH32 0x4E487B7100000000000000000000000000000000000000000000000000000000 PUSH1 0x0 MSTORE PUSH1 0x21 PUSH1 0x4 MSTORE PUSH1 0x24 PUSH1 0x0 REVERT JUMPDEST PUSH1 0x5 DUP2 LT PUSH3 0x410 JUMPI PUSH3 0x40F PUSH3 0x3CD JUMP JUMPDEST JUMPDEST POP JUMP JUMPDEST PUSH1 0x0 DUP2 SWAP1 POP PUSH3 0x423 DUP3 PUSH3 0x3FC JUMP JUMPDEST SWAP2 SWAP1 POP JUMP JUMPDEST PUSH1 0x0 PUSH3 0x435 DUP3 PUSH3 0x413 JUMP JUMPDEST SWAP1 POP SWAP2 SWAP1 POP JUMP JUMPDEST PUSH3 0x447 DUP2 PUSH3 0x428 JUMP JUMPDEST DUP3 MSTORE POP POP JUMP JUMPDEST PUSH1 0x0 PUSH1 0x20 DUP3 ADD SWAP1 POP PUSH3 0x464 PUSH1 0x0 DUP4 ADD DUP5 PUSH3 0x43C JUMP JUMPDEST SWAP3 SWAP2 POP POP JUMP JUMPDEST PUSH1 0x0 PUSH3 0x477 DUP3 PUSH3 0x336 JUMP JUMPDEST SWAP1 POP SWAP2 SWAP1 POP JUMP JUMPDEST PUSH3 0x489 DUP2 PUSH3 0x46A JUMP JUMPDEST DUP2 EQ PUSH3 0x495 JUMPI PUSH1 0x0 DUP1 REVERT JUMPDEST POP JUMP JUMPDEST PUSH1 0x0 DUP2 MLOAD SWAP1 POP PUSH3 0x4A9 DUP2 PUSH3 0x47E JUMP JUMPDEST SWAP3 SWAP2 POP POP JUMP JUMPDEST PUSH1 0x0 PUSH1 0x20 DUP3 DUP5 SUB SLT ISZERO PUSH3 0x4C8 JUMPI PUSH3 0x4C7 PUSH3 0x331 JUMP JUMPDEST JUMPDEST PUSH1 0x0 PUSH3 0x4D8 DUP5 DUP3 DUP6 ADD PUSH3 0x498 JUMP JUMPDEST SWAP2 POP POP SWAP3 SWAP2 POP POP JUMP JUMPDEST PUSH3 0x4EC DUP2 PUSH3 0x46A JUMP JUMPDEST DUP3 MSTORE POP POP JUMP JUMPDEST PUSH1 0x0 PUSH1 0x20 DUP3 ADD SWAP1 POP PUSH3 0x509 PUSH1 0x0 DUP4 ADD DUP5 PUSH3 0x4E1 JUMP JUMPDEST SWAP3 SWAP2 POP POP JUMP JUMPDEST PUSH1 0x0 DUP2 ISZERO ISZERO SWAP1 POP SWAP2 SWAP1 POP JUMP JUMPDEST PUSH3 0x526 DUP2 PUSH3 0x50F JUMP JUMPDEST DUP2 EQ PUSH3 0x532 JUMPI PUSH1 0x0 DUP1 REVERT JUMPDEST POP JUMP JUMPDEST PUSH1 0x0 DUP2 MLOAD SWAP1 POP PUSH3 0x546 DUP2 PUSH3 0x51B JUMP JUMPDEST SWAP3 SWAP2 POP POP JUMP JUMPDEST PUSH1 0x0 DUP1 PUSH1 0x40 DUP4 DUP6 SUB SLT ISZERO PUSH3 0x566 JUMPI PUSH3 0x565 PUSH3 0x331 JUMP JUMPDEST JUMPDEST PUSH1 0x0 PUSH3 0x576 DUP6 DUP3 DUP7 ADD PUSH3 0x498 JUMP JUMPDEST SWAP3 POP POP PUSH1 0x20 PUSH3 0x589 DUP6 DUP3 DUP7 ADD PUSH3 0x535 JUMP JUMPDEST SWAP2 POP POP SWAP3 POP SWAP3 SWAP1 POP JUMP JUMPDEST PUSH1 0x80 MLOAD PUSH1 0xA0 MLOAD PUSH1 0xC0 MLOAD PUSH1 0xE0 MLOAD PUSH2 0x5E0E PUSH3 0x5E6 PUSH1 0x0 CODECOPY PUSH1 0x0 PUSH2 0x275D ADD MSTORE PUSH1 0x0 POP POP PUSH1 0x0 DUP2 DUP2 PUSH2 0x10BE ADD MSTORE DUP2 DUP2 PUSH2 0x1A5B ADD MSTORE DUP2 DUP2 PUSH2 0x1C6E ADD MSTORE PUSH2 0x3338 ADD MSTORE PUSH1 0x0 DUP2 DUP2 PUSH2 0x19D1 ADD MSTORE PUSH2 0x46DC ADD MSTORE PUSH2 0x5E0E PUSH1 0x0 RETURN INVALID PUSH1 0x80 PUSH1 0x40 MSTORE PUSH1 0x4 CALLDATASIZE LT PUSH2 0x19C JUMPI PUSH1 0x0 CALLDATALOAD PUSH1 0xE0 SHR DUP1 PUSH4 0x6BD4C7C0 GT PUSH2 0xEC JUMPI DUP1 PUSH4 0xA4786F3D GT PUSH2 0x8A JUMPI DUP1 PUSH4 0xB1E49B99 GT PUSH2 0x64 JUMPI DUP1 PUSH4 0xB1E49B99 EQ PUSH2 0x63E JUMPI DUP1 PUSH4 0xEC5A24D7 EQ PUSH2 0x65A JUMPI DUP1 PUSH4 0xF227CE4D EQ PUSH2 0x697 JUMPI DUP1 PUSH4 0xF782A754 EQ PUSH2 0x6D4 JUMPI PUSH2 0x19C JUMP JUMPDEST DUP1 PUSH4 0xA4786F3D EQ PUSH2 0x583 JUMPI DUP1 PUSH4 0xA910E4A5 EQ PUSH2 0x5C0 JUMPI DUP1 PUSH4 0xA91FABA2 EQ PUSH2 0x5FD JUMPI PUSH2 0x19C JUMP JUMPDEST DUP1 PUSH4 0x81142907 GT PUSH2 0xC6 JUMPI DUP1 PUSH4 0x81142907 EQ PUSH2 0x4C0 JUMPI DUP1 PUSH4 0x8EDD3971 EQ PUSH2 0x4DC JUMPI DUP1 PUSH4 0x8EE95F9F EQ PUSH2 0x51D JUMPI DUP1 PUSH4 0x914989FD EQ PUSH2 0x546 JUMPI PUSH2 0x19C JUMP JUMPDEST DUP1 PUSH4 0x6BD4C7C0 EQ PUSH2 0x41B JUMPI DUP1 PUSH4 0x7EA4178A EQ PUSH2 0x458 JUMPI DUP1 PUSH4 0x80EB6D04 EQ PUSH2 0x483 JUMPI PUSH2 0x19C JUMP JUMPDEST DUP1 PUSH4 0x28F150EB GT PUSH2 0x159 JUMPI DUP1 PUSH4 0x3B51E58A GT PUSH2 0x133 JUMPI DUP1 PUSH4 0x3B51E58A EQ PUSH2 0x35F JUMPI DUP1 PUSH4 0x46EE3C59 EQ PUSH2 0x388 JUMPI DUP1 PUSH4 0x47F53FC9 EQ PUSH2 0x3B3 JUMPI DUP1 PUSH4 0x57FB1D67 EQ PUSH2 0x3F0 JUMPI PUSH2 0x19C JUMP JUMPDEST DUP1 PUSH4 0x28F150EB EQ PUSH2 0x2CC JUMPI DUP1 PUSH4 0x2B3A4EF6 EQ PUSH2 0x2F7 JUMPI DUP1 PUSH4 0x3946F666 EQ PUSH2 0x334 JUMPI PUSH2 0x19C JUMP JUMPDEST DUP1 PUSH4 0x37081E9 EQ PUSH2 0x1A1 JUMPI DUP1 PUSH4 0x3BFEB20 EQ PUSH2 0x1BD JUMPI DUP1 PUSH4 0x49AACFE EQ PUSH2 0x1E6 JUMPI DUP1 PUSH4 0x23821C21 EQ PUSH2 0x211 JUMPI DUP1 PUSH4 0x2429827F EQ PUSH2 0x24E JUMPI DUP1 PUSH4 0x245A2FAD EQ PUSH2 0x28F JUMPI JUMPDEST PUSH1 0x0 DUP1 REVERT JUMPDEST PUSH2 0x1BB PUSH1 0x4 DUP1 CALLDATASIZE SUB DUP2 ADD SWAP1 PUSH2 0x1B6 SWAP2 SWAP1 PUSH2 0x4AA2 JUMP JUMPDEST PUSH2 0x711 JUMP JUMPDEST STOP JUMPDEST CALLVALUE DUP1 ISZERO PUSH2 0x1C9 JUMPI PUSH1 0x0 DUP1 REVERT JUMPDEST POP PUSH2 0x1E4 PUSH1 0x4 DUP1 CALLDATASIZE SUB DUP2 ADD SWAP1 PUSH2 0x1DF SWAP2 SWAP1 PUSH2 0x4B74 JUMP JUMPDEST PUSH2 0x10BC JUMP JUMPDEST STOP JUMPDEST CALLVALUE DUP1 ISZERO PUSH2 0x1F2 JUMPI PUSH1 0x0 DUP1 REVERT JUMPDEST POP PUSH2 0x1FB PUSH2 0x19CF JUMP JUMPDEST PUSH1 0x40 MLOAD PUSH2 0x208 SWAP2 SWAP1 PUSH2 0x4C26 JUMP JUMPDEST PUSH1 0x40 MLOAD DUP1 SWAP2 SUB SWAP1 RETURN JUMPDEST CALLVALUE DUP1 ISZERO PUSH2 0x21D JUMPI PUSH1 0x0 DUP1 REVERT JUMPDEST POP PUSH2 0x238 PUSH1 0x4 DUP1 CALLDATASIZE SUB DUP2 ADD SWAP1 PUSH2 0x233 SWAP2 SWAP1 PUSH2 0x4C41 JUMP JUMPDEST PUSH2 0x19F3 JUMP JUMPDEST PUSH1 0x40 MLOAD PUSH2 0x245 SWAP2 SWAP1 PUSH2 0x4C7D JUMP JUMPDEST PUSH1 0x40 MLOAD DUP1 SWAP2 SUB SWAP1 RETURN JUMPDEST CALLVALUE DUP1 ISZERO PUSH2 0x25A JUMPI PUSH1 0x0 DUP1 REVERT JUMPDEST POP PUSH2 0x275 PUSH1 0x4 DUP1 CALLDATASIZE SUB DUP2 ADD SWAP1 PUSH2 0x270 SWAP2 SWAP1 PUSH2 0x4C41 JUMP JUMPDEST PUSH2 0x1A0B JUMP JUMPDEST PUSH1 0x40 MLOAD PUSH2 0x286 SWAP6 SWAP5 SWAP4 SWAP3 SWAP2 SWAP1 PUSH2 0x4CB1 JUMP JUMPDEST PUSH1 0x40 MLOAD DUP1 SWAP2 SUB SWAP1 RETURN JUMPDEST CALLVALUE DUP1 ISZERO PUSH2 0x29B JUMPI PUSH1 0x0 DUP1 REVERT JUMPDEST POP PUSH2 0x2B6 PUSH1 0x4 DUP1 CALLDATASIZE SUB DUP2 ADD SWAP1 PUSH2 0x2B1 SWAP2 SWAP1 PUSH2 0x4C41 JUMP JUMPDEST PUSH2 0x1A41 JUMP JUMPDEST PUSH1 0x40 MLOAD PUSH2 0x2C3 SWAP2 SWAP1 PUSH2 0x4C7D JUMP JUMPDEST PUSH1 0x40 MLOAD DUP1 SWAP2 SUB SWAP1 RETURN JUMPDEST CALLVALUE DUP1 ISZERO PUSH2 0x2D8 JUMPI PUSH1 0x0 DUP1 REVERT JUMPDEST POP PUSH2 0x2E1 PUSH2 0x1A59 JUMP JUMPDEST PUSH1 0x40 MLOAD PUSH2 0x2EE SWAP2 SWAP1 PUSH2 0x4D13 JUMP JUMPDEST PUSH1 0x40 MLOAD DUP1 SWAP2 SUB SWAP1 RETURN JUMPDEST CALLVALUE DUP1 ISZERO PUSH2 0x303 JUMPI PUSH1 0x0 DUP1 REVERT JUMPDEST POP PUSH2 0x31E PUSH1 0x4 DUP1 CALLDATASIZE SUB DUP2 ADD SWAP1 PUSH2 0x319 SWAP2 SWAP1 PUSH2 0x4D2E JUMP JUMPDEST PUSH2 0x1A7D JUMP JUMPDEST PUSH1 0x40 MLOAD PUSH2 0x32B SWAP2 SWAP1 PUSH2 0x4C7D JUMP JUMPDEST PUSH1 0x40 MLOAD DUP1 SWAP2 SUB SWAP1 RETURN JUMPDEST CALLVALUE DUP1 ISZERO PUSH2 0x340 JUMPI PUSH1 0x0 DUP1 REVERT JUMPDEST POP PUSH2 0x349 PUSH2 0x1AA2 JUMP JUMPDEST PUSH1 0x40 MLOAD PUSH2 0x356 SWAP2 SWAP1 PUSH2 0x4F8D JUMP JUMPDEST PUSH1 0x40 MLOAD DUP1 SWAP2 SUB SWAP1 RETURN JUMPDEST CALLVALUE DUP1 ISZERO PUSH2 0x36B JUMPI PUSH1 0x0 DUP1 REVERT JUMPDEST POP PUSH2 0x386 PUSH1 0x4 DUP1 CALLDATASIZE SUB DUP2 ADD SWAP1 PUSH2 0x381 SWAP2 SWAP1 PUSH2 0x4FAF JUMP JUMPDEST PUSH2 0x1C6C JUMP JUMPDEST STOP JUMPDEST CALLVALUE DUP1 ISZERO PUSH2 0x394 JUMPI PUSH1 0x0 DUP1 REVERT JUMPDEST POP PUSH2 0x39D PUSH2 0x275B JUMP JUMPDEST PUSH1 0x40 MLOAD PUSH2 0x3AA SWAP2 SWAP1 PUSH2 0x4D13 JUMP JUMPDEST PUSH1 0x40 MLOAD DUP1 SWAP2 SUB SWAP1 RETURN JUMPDEST CALLVALUE DUP1 ISZERO PUSH2 0x3BF JUMPI PUSH1 0x0 DUP1 REVERT JUMPDEST POP PUSH2 0x3DA PUSH1 0x4 DUP1 CALLDATASIZE SUB DUP2 ADD SWAP1 PUSH2 0x3D5 SWAP2 SWAP1 PUSH2 0x4D2E JUMP JUMPDEST PUSH2 0x277F JUMP JUMPDEST PUSH1 0x40 MLOAD PUSH2 0x3E7 SWAP2 SWAP1 PUSH2 0x4C7D JUMP JUMPDEST PUSH1 0x40 MLOAD DUP1 SWAP2 SUB SWAP1 RETURN JUMPDEST CALLVALUE DUP1 ISZERO PUSH2 0x3FC JUMPI PUSH1 0x0 DUP1 REVERT JUMPDEST POP PUSH2 0x405 PUSH2 0x27B1 JUMP JUMPDEST PUSH1 0x40 MLOAD PUSH2 0x412 SWAP2 SWAP1 PUSH2 0x504B JUMP JUMPDEST PUSH1 0x40 MLOAD DUP1 SWAP2 SUB SWAP1 RETURN JUMPDEST CALLVALUE DUP1 ISZERO PUSH2 0x427 JUMPI PUSH1 0x0 DUP1 REVERT JUMPDEST POP PUSH2 0x442 PUSH1 0x4 DUP1 CALLDATASIZE SUB DUP2 ADD SWAP1 PUSH2 0x43D SWAP2 SWAP1 PUSH2 0x4D2E JUMP JUMPDEST PUSH2 0x27C9 JUMP JUMPDEST PUSH1 0x40 MLOAD PUSH2 0x44F SWAP2 SWAP1 PUSH2 0x5102 JUMP JUMPDEST PUSH1 0x40 MLOAD DUP1 SWAP2 SUB SWAP1 RETURN JUMPDEST CALLVALUE DUP1 ISZERO PUSH2 0x464 JUMPI PUSH1 0x0 DUP1 REVERT JUMPDEST POP PUSH2 0x46D PUSH2 0x2973 JUMP JUMPDEST PUSH1 0x40 MLOAD PUSH2 0x47A SWAP2 SWAP1 PUSH2 0x4C7D JUMP JUMPDEST PUSH1 0x40 MLOAD DUP1 SWAP2 SUB SWAP1 RETURN JUMPDEST CALLVALUE DUP1 ISZERO PUSH2 0x48F JUMPI PUSH1 0x0 DUP1 REVERT JUMPDEST POP PUSH2 0x4AA PUSH1 0x4 DUP1 CALLDATASIZE SUB DUP2 ADD SWAP1 PUSH2 0x4A5 SWAP2 SWAP1 PUSH2 0x4C41 JUMP JUMPDEST PUSH2 0x29BD JUMP JUMPDEST PUSH1 0x40 MLOAD PUSH2 0x4B7 SWAP2 SWAP1 PUSH2 0x4C7D JUMP JUMPDEST PUSH1 0x40 MLOAD DUP1 SWAP2 SUB SWAP1 RETURN JUMPDEST PUSH2 0x4DA PUSH1 0x4 DUP1 CALLDATASIZE SUB DUP2 ADD SWAP1 PUSH2 0x4D5 SWAP2 SWAP1 PUSH2 0x5124 JUMP JUMPDEST PUSH2 0x29D5 JUMP JUMPDEST STOP JUMPDEST CALLVALUE DUP1 ISZERO PUSH2 0x4E8 JUMPI PUSH1 0x0 DUP1 REVERT JUMPDEST POP PUSH2 0x503 PUSH1 0x4 DUP1 CALLDATASIZE SUB DUP2 ADD SWAP1 PUSH2 0x4FE SWAP2 SWAP1 PUSH2 0x4C41 JUMP JUMPDEST PUSH2 0x3300 JUMP JUMPDEST PUSH1 0x40 MLOAD PUSH2 0x514 SWAP6 SWAP5 SWAP4 SWAP3 SWAP2 SWAP1 PUSH2 0x4CB1 JUMP JUMPDEST PUSH1 0x40 MLOAD DUP1 SWAP2 SUB SWAP1 RETURN JUMPDEST CALLVALUE DUP1 ISZERO PUSH2 0x529 JUMPI PUSH1 0x0 DUP1 REVERT JUMPDEST POP PUSH2 0x544 PUSH1 0x4 DUP1 CALLDATASIZE SUB DUP2 ADD SWAP1 PUSH2 0x53F SWAP2 SWAP1 PUSH2 0x4D2E JUMP JUMPDEST PUSH2 0x3336 JUMP JUMPDEST STOP JUMPDEST CALLVALUE DUP1 ISZERO PUSH2 0x552 JUMPI PUSH1 0x0 DUP1 REVERT JUMPDEST POP PUSH2 0x56D PUSH1 0x4 DUP1 CALLDATASIZE SUB DUP2 ADD SWAP1 PUSH2 0x568 SWAP2 SWAP1 PUSH2 0x4C41 JUMP JUMPDEST PUSH2 0x38FB JUMP JUMPDEST PUSH1 0x40 MLOAD PUSH2 0x57A SWAP2 SWAP1 PUSH2 0x5102 JUMP JUMPDEST PUSH1 0x40 MLOAD DUP1 SWAP2 SUB SWAP1 RETURN JUMPDEST CALLVALUE DUP1 ISZERO PUSH2 0x58F JUMPI PUSH1 0x0 DUP1 REVERT JUMPDEST POP PUSH2 0x5AA PUSH1 0x4 DUP1 CALLDATASIZE SUB DUP2 ADD SWAP1 PUSH2 0x5A5 SWAP2 SWAP1 PUSH2 0x51E2 JUMP JUMPDEST PUSH2 0x3A93 JUMP JUMPDEST PUSH1 0x40 MLOAD PUSH2 0x5B7 SWAP2 SWAP1 PUSH2 0x4C7D JUMP JUMPDEST PUSH1 0x40 MLOAD DUP1 SWAP2 SUB SWAP1 RETURN JUMPDEST CALLVALUE DUP1 ISZERO PUSH2 0x5CC JUMPI PUSH1 0x0 DUP1 REVERT JUMPDEST POP PUSH2 0x5E7 PUSH1 0x4 DUP1 CALLDATASIZE SUB DUP2 ADD SWAP1 PUSH2 0x5E2 SWAP2 SWAP1 PUSH2 0x4D2E JUMP JUMPDEST PUSH2 0x3AB1 JUMP JUMPDEST PUSH1 0x40 MLOAD PUSH2 0x5F4 SWAP2 SWAP1 PUSH2 0x5102 JUMP JUMPDEST PUSH1 0x40 MLOAD DUP1 SWAP2 SUB SWAP1 RETURN JUMPDEST CALLVALUE DUP1 ISZERO PUSH2 0x609 JUMPI PUSH1 0x0 DUP1 REVERT JUMPDEST POP PUSH2 0x624 PUSH1 0x4 DUP1 CALLDATASIZE SUB DUP2 ADD SWAP1 PUSH2 0x61F SWAP2 SWAP1 PUSH2 0x4C41 JUMP JUMPDEST PUSH2 0x3C5B JUMP JUMPDEST PUSH1 0x40 MLOAD PUSH2 0x635 SWAP6 SWAP5 SWAP4 SWAP3 SWAP2 SWAP1 PUSH2 0x4CB1 JUMP JUMPDEST PUSH1 0x40 MLOAD DUP1 SWAP2 SUB SWAP1 RETURN JUMPDEST PUSH2 0x658 PUSH1 0x4 DUP1 CALLDATASIZE SUB DUP2 ADD SWAP1 PUSH2 0x653 SWAP2 SWAP1 PUSH2 0x5124 JUMP JUMPDEST PUSH2 0x3C91 JUMP JUMPDEST STOP JUMPDEST CALLVALUE DUP1 ISZERO PUSH2 0x666 JUMPI PUSH1 0x0 DUP1 REVERT JUMPDEST POP PUSH2 0x681 PUSH1 0x4 DUP1 CALLDATASIZE SUB DUP2 ADD SWAP1 PUSH2 0x67C SWAP2 SWAP1 PUSH2 0x4D2E JUMP JUMPDEST PUSH2 0x45AA JUMP JUMPDEST PUSH1 0x40 MLOAD PUSH2 0x68E SWAP2 SWAP1 PUSH2 0x4C7D JUMP JUMPDEST PUSH1 0x40 MLOAD DUP1 SWAP2 SUB SWAP1 RETURN JUMPDEST CALLVALUE DUP1 ISZERO PUSH2 0x6A3 JUMPI PUSH1 0x0 DUP1 REVERT JUMPDEST POP PUSH2 0x6BE PUSH1 0x4 DUP1 CALLDATASIZE SUB DUP2 ADD SWAP1 PUSH2 0x6B9 SWAP2 SWAP1 PUSH2 0x4D2E JUMP JUMPDEST PUSH2 0x45DC JUMP JUMPDEST PUSH1 0x40 MLOAD PUSH2 0x6CB SWAP2 SWAP1 PUSH2 0x4C7D JUMP JUMPDEST PUSH1 0x40 MLOAD DUP1 SWAP2 SUB SWAP1 RETURN JUMPDEST CALLVALUE DUP1 ISZERO PUSH2 0x6E0 JUMPI PUSH1 0x0 DUP1 REVERT JUMPDEST POP PUSH2 0x6FB PUSH1 0x4 DUP1 CALLDATASIZE SUB DUP2 ADD SWAP1 PUSH2 0x6F6 SWAP2 SWAP1 PUSH2 0x4C41 JUMP JUMPDEST PUSH2 0x4646 JUMP JUMPDEST PUSH1 0x40 MLOAD PUSH2 0x708 SWAP2 SWAP1 PUSH2 0x4C7D JUMP JUMPDEST PUSH1 0x40 MLOAD DUP1 SWAP2 SUB SWAP1 RETURN JUMPDEST CALLER PUSH20 0xFFFFFFFFFFFFFFFFFFFFFFFFFFFFFFFFFFFFFFFF AND PUSH1 0x5 PUSH1 0x0 DUP10 DUP2 MSTORE PUSH1 0x20 ADD SWAP1 DUP2 MSTORE PUSH1 0x20 ADD PUSH1 0x0 KECCAK256 PUSH1 0x7 ADD PUSH1 0x0 DUP9 DUP2 MSTORE PUSH1 0x20 ADD SWAP1 DUP2 MSTORE PUSH1 0x20 ADD PUSH1 0x0 KECCAK256 PUSH1 0x0 CALLER PUSH20 0xFFFFFFFFFFFFFFFFFFFFFFFFFFFFFFFFFFFFFFFF AND PUSH20 0xFFFFFFFFFFFFFFFFFFFFFFFFFFFFFFFFFFFFFFFF AND DUP2 MSTORE PUSH1 0x20 ADD SWAP1 DUP2 MSTORE PUSH1 0x20 ADD PUSH1 0x0 KECCAK256 PUSH1 0x0 ADD PUSH1 0x0 SWAP1 SLOAD SWAP1 PUSH2 0x100 EXP SWAP1 DIV PUSH20 0xFFFFFFFFFFFFFFFFFFFFFFFFFFFFFFFFFFFFFFFF AND PUSH20 0xFFFFFFFFFFFFFFFFFFFFFFFFFFFFFFFFFFFFFFFF AND SUB PUSH2 0x806 JUMPI PUSH1 0x40 MLOAD PUSH32 0x8C379A000000000000000000000000000000000000000000000000000000000 DUP2 MSTORE PUSH1 0x4 ADD PUSH2 0x7FD SWAP1 PUSH2 0x52B8 JUMP JUMPDEST PUSH1 0x40 MLOAD DUP1 SWAP2 SUB SWAP1 REVERT JUMPDEST DUP4 DUP6 SUB PUSH2 0x812 JUMPI PUSH1 0x0 DUP1 REVERT JUMPDEST DUP8 PUSH20 0xFFFFFFFFFFFFFFFFFFFFFFFFFFFFFFFFFFFFFFFF AND CALLER PUSH20 0xFFFFFFFFFFFFFFFFFFFFFFFFFFFFFFFFFFFFFFFF AND EQ PUSH2 0x880 JUMPI PUSH1 0x40 MLOAD PUSH32 0x8C379A000000000000000000000000000000000000000000000000000000000 DUP2 MSTORE PUSH1 0x4 ADD PUSH2 0x877 SWAP1 PUSH2 0x534A JUMP JUMPDEST PUSH1 0x40 MLOAD DUP1 SWAP2 SUB SWAP1 REVERT JUMPDEST PUSH1 0x0 CALLVALUE GT PUSH2 0x8C3 JUMPI PUSH1 0x40 MLOAD PUSH32 0x8C379A000000000000000000000000000000000000000000000000000000000 DUP2 MSTORE PUSH1 0x4 ADD PUSH2 0x8BA SWAP1 PUSH2 0x53B6 JUMP JUMPDEST PUSH1 0x40 MLOAD DUP1 SWAP2 SUB SWAP1 REVERT JUMPDEST DUP5 DUP7 EQ DUP1 PUSH2 0x8D0 JUMPI POP DUP4 DUP7 EQ JUMPDEST PUSH2 0x90F JUMPI PUSH1 0x40 MLOAD PUSH32 0x8C379A000000000000000000000000000000000000000000000000000000000 DUP2 MSTORE PUSH1 0x4 ADD PUSH2 0x906 SWAP1 PUSH2 0x5448 JUMP JUMPDEST PUSH1 0x40 MLOAD DUP1 SWAP2 SUB SWAP1 REVERT JUMPDEST PUSH1 0x0 DUP1 NOT AND PUSH1 0x5 PUSH1 0x0 DUP10 DUP2 MSTORE PUSH1 0x20 ADD SWAP1 DUP2 MSTORE PUSH1 0x20 ADD PUSH1 0x0 KECCAK256 PUSH1 0x8 ADD SLOAD SUB PUSH2 0xB29 JUMPI PUSH1 0x0 PUSH1 0x40 MLOAD DUP1 PUSH1 0x40 ADD PUSH1 0x40 MSTORE DUP1 PUSH1 0x2 PUSH8 0xFFFFFFFFFFFFFFFF DUP2 GT ISZERO PUSH2 0x958 JUMPI PUSH2 0x957 PUSH2 0x4977 JUMP JUMPDEST JUMPDEST PUSH1 0x40 MLOAD SWAP1 DUP1 DUP3 MSTORE DUP1 PUSH1 0x20 MUL PUSH1 0x20 ADD DUP3 ADD PUSH1 0x40 MSTORE DUP1 ISZERO PUSH2 0x986 JUMPI DUP2 PUSH1 0x20 ADD PUSH1 0x20 DUP3 MUL DUP1 CALLDATASIZE DUP4 CALLDATACOPY DUP1 DUP3 ADD SWAP2 POP POP SWAP1 POP JUMPDEST POP DUP2 MSTORE PUSH1 0x20 ADD PUSH1 0x2 PUSH8 0xFFFFFFFFFFFFFFFF DUP2 GT ISZERO PUSH2 0x9A7 JUMPI PUSH2 0x9A6 PUSH2 0x4977 JUMP JUMPDEST JUMPDEST PUSH1 0x40 MLOAD SWAP1 DUP1 DUP3 MSTORE DUP1 PUSH1 0x20 MUL PUSH1 0x20 ADD DUP3 ADD PUSH1 0x40 MSTORE DUP1 ISZERO PUSH2 0x9DA JUMPI DUP2 PUSH1 0x20 ADD JUMPDEST PUSH1 0x60 DUP2 MSTORE PUSH1 0x20 ADD SWAP1 PUSH1 0x1 SWAP1 SUB SWAP1 DUP2 PUSH2 0x9C5 JUMPI SWAP1 POP JUMPDEST POP DUP2 MSTORE POP SWAP1 POP PUSH1 0x2 DUP2 PUSH1 0x0 ADD MLOAD PUSH1 0x0 DUP2 MLOAD DUP2 LT PUSH2 0x9FA JUMPI PUSH2 0x9F9 PUSH2 0x5468 JUMP JUMPDEST JUMPDEST PUSH1 0x20 MUL PUSH1 0x20 ADD ADD SWAP1 PUSH1 0x4 DUP2 GT ISZERO PUSH2 0xA14 JUMPI PUSH2 0xA13 PUSH2 0x5497 JUMP JUMPDEST JUMPDEST SWAP1 DUP2 PUSH1 0x4 DUP2 GT ISZERO PUSH2 0xA28 JUMPI PUSH2 0xA27 PUSH2 0x5497 JUMP JUMPDEST JUMPDEST DUP2 MSTORE POP POP PUSH1 0x4 DUP2 PUSH1 0x0 ADD MLOAD PUSH1 0x1 DUP2 MLOAD DUP2 LT PUSH2 0xA46 JUMPI PUSH2 0xA45 PUSH2 0x5468 JUMP JUMPDEST JUMPDEST PUSH1 0x20 MUL PUSH1 0x20 ADD ADD SWAP1 PUSH1 0x4 DUP2 GT ISZERO PUSH2 0xA60 JUMPI PUSH2 0xA5F PUSH2 0x5497 JUMP JUMPDEST JUMPDEST SWAP1 DUP2 PUSH1 0x4 DUP2 GT ISZERO PUSH2 0xA74 JUMPI PUSH2 0xA73 PUSH2 0x5497 JUMP JUMPDEST JUMPDEST DUP2 MSTORE POP POP PUSH2 0xA80 PUSH2 0x4666 JUMP JUMPDEST DUP2 PUSH1 0x20 ADD MLOAD PUSH1 0x0 DUP2 MLOAD DUP2 LT PUSH2 0xA98 JUMPI PUSH2 0xA97 PUSH2 0x5468 JUMP JUMPDEST JUMPDEST PUSH1 0x20 MUL PUSH1 0x20 ADD ADD DUP2 SWAP1 MSTORE POP PUSH2 0xAB7 DUP3 PUSH2 0xAB2 ADDRESS DUP12 DUP9 PUSH2 0x467D JUMP JUMPDEST PUSH2 0x46AC JUMP JUMPDEST DUP2 PUSH1 0x20 ADD MLOAD PUSH1 0x1 DUP2 MLOAD DUP2 LT PUSH2 0xACF JUMPI PUSH2 0xACE PUSH2 0x5468 JUMP JUMPDEST JUMPDEST PUSH1 0x20 MUL PUSH1 0x20 ADD ADD DUP2 SWAP1 MSTORE POP PUSH2 0xB0D ADDRESS PUSH4 0x3B51E58A PUSH1 0xE0 SHL PUSH1 0x40 MLOAD PUSH1 0x20 ADD PUSH2 0xAF6 SWAP2 SWAP1 PUSH2 0x5501 JUMP JUMPDEST PUSH1 0x40 MLOAD PUSH1 0x20 DUP2 DUP4 SUB SUB DUP2 MSTORE SWAP1 PUSH1 0x40 MSTORE DUP4 PUSH1 0x0 PUSH2 0x46D8 JUMP JUMPDEST PUSH1 0x5 PUSH1 0x0 DUP11 DUP2 MSTORE PUSH1 0x20 ADD SWAP1 DUP2 MSTORE PUSH1 0x20 ADD PUSH1 0x0 KECCAK256 PUSH1 0x8 ADD DUP2 SWAP1 SSTORE POP POP JUMPDEST PUSH1 0x0 PUSH1 0x64 PUSH1 0x5 CALLVALUE PUSH2 0xB3A SWAP2 SWAP1 PUSH2 0x554B JUMP JUMPDEST PUSH2 0xB44 SWAP2 SWAP1 PUSH2 0x55D4 JUMP JUMPDEST SWAP1 POP PUSH1 0x0 PUSH1 0x64 PUSH1 0x5F CALLVALUE PUSH2 0xB57 SWAP2 SWAP1 PUSH2 0x554B JUMP JUMPDEST PUSH2 0xB61 SWAP2 SWAP1 PUSH2 0x55D4 JUMP JUMPDEST SWAP1 POP PUSH1 0x0 PUSH1 0x5 PUSH1 0x0 DUP12 DUP2 MSTORE PUSH1 0x20 ADD SWAP1 DUP2 MSTORE PUSH1 0x20 ADD PUSH1 0x0 KECCAK256 SWAP1 POP PUSH1 0x0 PUSH1 0x1 PUSH1 0x0 CALLER PUSH20 0xFFFFFFFFFFFFFFFFFFFFFFFFFFFFFFFFFFFFFFFF AND PUSH20 0xFFFFFFFFFFFFFFFFFFFFFFFFFFFFFFFFFFFFFFFF AND DUP2 MSTORE PUSH1 0x20 ADD SWAP1 DUP2 MSTORE PUSH1 0x20 ADD PUSH1 0x0 KECCAK256 PUSH1 0x1 ADD SWAP1 POP PUSH1 0x0 DUP3 PUSH1 0x7 ADD PUSH1 0x0 DUP13 DUP2 MSTORE PUSH1 0x20 ADD SWAP1 DUP2 MSTORE PUSH1 0x20 ADD PUSH1 0x0 KECCAK256 PUSH1 0x0 CALLER PUSH20 0xFFFFFFFFFFFFFFFFFFFFFFFFFFFFFFFFFFFFFFFF AND PUSH20 0xFFFFFFFFFFFFFFFFFFFFFFFFFFFFFFFFFFFFFFFF AND DUP2 MSTORE PUSH1 0x20 ADD SWAP1 DUP2 MSTORE PUSH1 0x20 ADD PUSH1 0x0 KECCAK256 SWAP1 POP PUSH1 0x0 DUP4 PUSH1 0x6 ADD PUSH1 0x0 DUP14 DUP2 MSTORE PUSH1 0x20 ADD SWAP1 DUP2 MSTORE PUSH1 0x20 ADD PUSH1 0x0 KECCAK256 SWAP1 POP PUSH1 0x0 DUP1 SLOAD SWAP1 PUSH2 0x100 EXP SWAP1 DIV PUSH20 0xFFFFFFFFFFFFFFFFFFFFFFFFFFFFFFFFFFFFFFFF AND PUSH20 0xFFFFFFFFFFFFFFFFFFFFFFFFFFFFFFFFFFFFFFFF AND PUSH2 0x8FC DUP8 SWAP1 DUP2 ISZERO MUL SWAP1 PUSH1 0x40 MLOAD PUSH1 0x0 PUSH1 0x40 MLOAD DUP1 DUP4 SUB DUP2 DUP6 DUP9 DUP9 CALL SWAP4 POP POP POP POP ISZERO DUP1 ISZERO PUSH2 0xC95 JUMPI RETURNDATASIZE PUSH1 0x0 DUP1 RETURNDATACOPY RETURNDATASIZE PUSH1 0x0 REVERT JUMPDEST POP DUP5 PUSH1 0x1 PUSH1 0x0 CALLER PUSH20 0xFFFFFFFFFFFFFFFFFFFFFFFFFFFFFFFFFFFFFFFF AND PUSH20 0xFFFFFFFFFFFFFFFFFFFFFFFFFFFFFFFFFFFFFFFF AND DUP2 MSTORE PUSH1 0x20 ADD SWAP1 DUP2 MSTORE PUSH1 0x20 ADD PUSH1 0x0 KECCAK256 PUSH1 0x0 ADD PUSH1 0x0 DUP3 DUP3 SLOAD PUSH2 0xCE8 SWAP2 SWAP1 PUSH2 0x5605 JUMP JUMPDEST SWAP3 POP POP DUP2 SWAP1 SSTORE POP DUP3 PUSH1 0x40 MLOAD DUP1 PUSH1 0xE0 ADD PUSH1 0x40 MSTORE DUP1 CALLER PUSH20 0xFFFFFFFFFFFFFFFFFFFFFFFFFFFFFFFFFFFFFFFF AND DUP2 MSTORE PUSH1 0x20 ADD DUP8 DUP2 MSTORE PUSH1 0x20 ADD DUP15 DUP2 MSTORE PUSH1 0x20 ADD DUP16 DUP2 MSTORE PUSH1 0x20 ADD PUSH1 0x40 MLOAD DUP1 PUSH1 0x40 ADD PUSH1 0x40 MSTORE DUP1 PUSH1 0xC DUP2 MSTORE PUSH1 0x20 ADD PUSH32 0x506F696E74205370726561640000000000000000000000000000000000000000 DUP2 MSTORE POP DUP2 MSTORE PUSH1 0x20 ADD TIMESTAMP DUP2 MSTORE PUSH1 0x20 ADD PUSH1 0x1 ISZERO ISZERO DUP2 MSTORE POP SWAP1 DUP1 PUSH1 0x1 DUP2 SLOAD ADD DUP1 DUP3 SSTORE DUP1 SWAP2 POP POP PUSH1 0x1 SWAP1 SUB SWAP1 PUSH1 0x0 MSTORE PUSH1 0x20 PUSH1 0x0 KECCAK256 SWAP1 PUSH1 0x7 MUL ADD PUSH1 0x0 SWAP1 SWAP2 SWAP1 SWAP2 SWAP1 SWAP2 POP PUSH1 0x0 DUP3 ADD MLOAD DUP2 PUSH1 0x0 ADD PUSH1 0x0 PUSH2 0x100 EXP DUP2 SLOAD DUP2 PUSH20 0xFFFFFFFFFFFFFFFFFFFFFFFFFFFFFFFFFFFFFFFF MUL NOT AND SWAP1 DUP4 PUSH20 0xFFFFFFFFFFFFFFFFFFFFFFFFFFFFFFFFFFFFFFFF AND MUL OR SWAP1 SSTORE POP PUSH1 0x20 DUP3 ADD MLOAD DUP2 PUSH1 0x1 ADD SSTORE PUSH1 0x40 DUP3 ADD MLOAD DUP2 PUSH1 0x2 ADD SSTORE PUSH1 0x60 DUP3 ADD MLOAD DUP2 PUSH1 0x3 ADD SSTORE PUSH1 0x80 DUP3 ADD MLOAD DUP2 PUSH1 0x4 ADD SWAP1 DUP1 MLOAD SWAP1 PUSH1 0x20 ADD SWAP1 PUSH2 0xE1B SWAP3 SWAP2 SWAP1 PUSH2 0x4786 JUMP JUMPDEST POP PUSH1 0xA0 DUP3 ADD MLOAD DUP2 PUSH1 0x5 ADD SSTORE PUSH1 0xC0 DUP3 ADD MLOAD DUP2 PUSH1 0x6 ADD PUSH1 0x0 PUSH2 0x100 EXP DUP2 SLOAD DUP2 PUSH1 0xFF MUL NOT AND SWAP1 DUP4 ISZERO ISZERO MUL OR SWAP1 SSTORE POP POP POP CALLVALUE PUSH1 0x2 PUSH1 0x0 DUP16 DUP2 MSTORE PUSH1 0x20 ADD SWAP1 DUP2 MSTORE PUSH1 0x20 ADD PUSH1 0x0 KECCAK256 PUSH1 0x0 DUP3 DUP3 SLOAD PUSH2 0xE6B SWAP2 SWAP1 PUSH2 0x5605 JUMP JUMPDEST SWAP3 POP POP DUP2 SWAP1 SSTORE POP CALLVALUE PUSH1 0x3 PUSH1 0x0 DUP16 DUP2 MSTORE PUSH1 0x20 ADD SWAP1 DUP2 MSTORE PUSH1 0x20 ADD PUSH1 0x0 KECCAK256 PUSH1 0x0 DUP15 DUP2 MSTORE PUSH1 0x20 ADD SWAP1 DUP2 MSTORE PUSH1 0x20 ADD PUSH1 0x0 KECCAK256 PUSH1 0x0 DUP3 DUP3 SLOAD PUSH2 0xEA6 SWAP2 SWAP1 PUSH2 0x5605 JUMP JUMPDEST SWAP3 POP POP DUP2 SWAP1 SSTORE POP DUP5 DUP5 PUSH1 0x2 ADD PUSH1 0x0 DUP3 DUP3 SLOAD PUSH2 0xEC1 SWAP2 SWAP1 PUSH2 0x5605 JUMP JUMPDEST SWAP3 POP POP DUP2 SWAP1 SSTORE POP DUP5 DUP5 PUSH1 0x3 ADD PUSH1 0x0 DUP15 DUP2 MSTORE PUSH1 0x20 ADD SWAP1 DUP2 MSTORE PUSH1 0x20 ADD PUSH1 0x0 KECCAK256 PUSH1 0x0 DUP3 DUP3 SLOAD PUSH2 0xEED SWAP2 SWAP1 PUSH2 0x5605 JUMP JUMPDEST SWAP3 POP POP DUP2 SWAP1 SSTORE POP DUP11 DUP5 PUSH1 0x4 ADD DUP2 SWAP1 SSTORE POP DUP10 DUP5 PUSH1 0x5 ADD DUP2 SWAP1 SSTORE POP DUP9 DUP5 PUSH1 0x1 ADD DUP2 SWAP1 SSTORE POP DUP8 DUP5 PUSH1 0x0 ADD PUSH1 0x0 CALLER PUSH20 0xFFFFFFFFFFFFFFFFFFFFFFFFFFFFFFFFFFFFFFFF AND PUSH20 0xFFFFFFFFFFFFFFFFFFFFFFFFFFFFFFFFFFFFFFFF AND DUP2 MSTORE PUSH1 0x20 ADD SWAP1 DUP2 MSTORE PUSH1 0x20 ADD PUSH1 0x0 KECCAK256 PUSH1 0x0 DUP15 DUP2 MSTORE PUSH1 0x20 ADD SWAP1 DUP2 MSTORE PUSH1 0x20 ADD PUSH1 0x0 KECCAK256 DUP2 SWAP1 SSTORE POP DUP1 CALLER SWAP1 DUP1 PUSH1 0x1 DUP2 SLOAD ADD DUP1 DUP3 SSTORE DUP1 SWAP2 POP POP PUSH1 0x1 SWAP1 SUB SWAP1 PUSH1 0x0 MSTORE PUSH1 0x20 PUSH1 0x0 KECCAK256 ADD PUSH1 0x0 SWAP1 SWAP2 SWAP1 SWAP2 SWAP1 SWAP2 PUSH2 0x100 EXP DUP2 SLOAD DUP2 PUSH20 0xFFFFFFFFFFFFFFFFFFFFFFFFFFFFFFFFFFFFFFFF MUL NOT AND SWAP1 DUP4 PUSH20 0xFFFFFFFFFFFFFFFFFFFFFFFFFFFFFFFFFFFFFFFF AND MUL OR SWAP1 SSTORE POP CALLER DUP3 PUSH1 0x0 ADD PUSH1 0x0 PUSH2 0x100 EXP DUP2 SLOAD DUP2 PUSH20 0xFFFFFFFFFFFFFFFFFFFFFFFFFFFFFFFFFFFFFFFF MUL NOT AND SWAP1 DUP4 PUSH20 0xFFFFFFFFFFFFFFFFFFFFFFFFFFFFFFFFFFFFFFFF AND MUL OR SWAP1 SSTORE POP DUP5 DUP3 PUSH1 0x1 ADD PUSH1 0x0 DUP3 DUP3 SLOAD PUSH2 0x101F SWAP2 SWAP1 PUSH2 0x5605 JUMP JUMPDEST SWAP3 POP POP DUP2 SWAP1 SSTORE POP DUP12 DUP3 PUSH1 0x2 ADD DUP2 SWAP1 SSTORE POP DUP13 DUP3 PUSH1 0x3 ADD DUP2 SWAP1 SSTORE POP PUSH1 0x40 MLOAD DUP1 PUSH1 0x40 ADD PUSH1 0x40 MSTORE DUP1 PUSH1 0xC DUP2 MSTORE PUSH1 0x20 ADD PUSH32 0x506F696E74205370726561640000000000000000000000000000000000000000 DUP2 MSTORE POP DUP3 PUSH1 0x4 ADD SWAP1 DUP1 MLOAD SWAP1 PUSH1 0x20 ADD SWAP1 PUSH2 0x1085 SWAP3 SWAP2 SWAP1 PUSH2 0x4786 JUMP JUMPDEST POP TIMESTAMP DUP3 PUSH1 0x5 ADD DUP2 SWAP1 SSTORE POP PUSH1 0x1 DUP3 PUSH1 0x6 ADD PUSH1 0x0 PUSH2 0x100 EXP DUP2 SLOAD DUP2 PUSH1 0xFF MUL NOT AND SWAP1 DUP4 ISZERO ISZERO MUL OR SWAP1 SSTORE POP POP POP POP POP POP POP POP POP POP POP POP POP POP POP JUMP JUMPDEST PUSH32 0x0 PUSH20 0xFFFFFFFFFFFFFFFFFFFFFFFFFFFFFFFFFFFFFFFF AND CALLER PUSH20 0xFFFFFFFFFFFFFFFFFFFFFFFFFFFFFFFFFFFFFFFF AND EQ PUSH2 0x114A JUMPI PUSH1 0x40 MLOAD PUSH32 0x8C379A000000000000000000000000000000000000000000000000000000000 DUP2 MSTORE PUSH1 0x4 ADD PUSH2 0x1141 SWAP1 PUSH2 0x56A7 JUMP JUMPDEST PUSH1 0x40 MLOAD DUP1 SWAP2 SUB SWAP1 REVERT JUMPDEST PUSH1 0x0 JUMPDEST PUSH1 0x4 PUSH1 0x0 DUP6 DUP2 MSTORE PUSH1 0x20 ADD SWAP1 DUP2 MSTORE PUSH1 0x20 ADD PUSH1 0x0 KECCAK256 PUSH1 0x5 ADD PUSH1 0x0 DUP5 DUP2 MSTORE PUSH1 0x20 ADD SWAP1 DUP2 MSTORE PUSH1 0x20 ADD PUSH1 0x0 KECCAK256 DUP1 SLOAD SWAP1 POP DUP2 LT ISZERO PUSH2 0x15D9 JUMPI PUSH1 0x0 PUSH1 0x4 PUSH1 0x0 DUP7 DUP2 MSTORE PUSH1 0x20 ADD SWAP1 DUP2 MSTORE PUSH1 0x20 ADD PUSH1 0x0 KECCAK256 PUSH1 0x5 ADD PUSH1 0x0 DUP6 DUP2 MSTORE PUSH1 0x20 ADD SWAP1 DUP2 MSTORE PUSH1 0x20 ADD PUSH1 0x0 KECCAK256 DUP3 DUP2 SLOAD DUP2 LT PUSH2 0x11BA JUMPI PUSH2 0x11B9 PUSH2 0x5468 JUMP JUMPDEST JUMPDEST SWAP1 PUSH1 0x0 MSTORE PUSH1 0x20 PUSH1 0x0 KECCAK256 ADD PUSH1 0x0 SWAP1 SLOAD SWAP1 PUSH2 0x100 EXP SWAP1 DIV PUSH20 0xFFFFFFFFFFFFFFFFFFFFFFFFFFFFFFFFFFFFFFFF AND SWAP1 POP PUSH1 0x0 PUSH1 0x4 PUSH1 0x0 DUP8 DUP2 MSTORE PUSH1 0x20 ADD SWAP1 DUP2 MSTORE PUSH1 0x20 ADD PUSH1 0x0 KECCAK256 PUSH1 0x6 ADD PUSH1 0x0 DUP7 DUP2 MSTORE PUSH1 0x20 ADD SWAP1 DUP2 MSTORE PUSH1 0x20 ADD PUSH1 0x0 KECCAK256 PUSH1 0x0 DUP4 PUSH20 0xFFFFFFFFFFFFFFFFFFFFFFFFFFFFFFFFFFFFFFFF AND PUSH20 0xFFFFFFFFFFFFFFFFFFFFFFFFFFFFFFFFFFFFFFFF AND DUP2 MSTORE PUSH1 0x20 ADD SWAP1 DUP2 MSTORE PUSH1 0x20 ADD PUSH1 0x0 KECCAK256 PUSH1 0x1 ADD SLOAD SWAP1 POP PUSH1 0x0 PUSH1 0x4 PUSH1 0x0 DUP9 DUP2 MSTORE PUSH1 0x20 ADD SWAP1 DUP2 MSTORE PUSH1 0x20 ADD PUSH1 0x0 KECCAK256 PUSH1 0x2 ADD PUSH1 0x0 DUP8 DUP2 MSTORE PUSH1 0x20 ADD SWAP1 DUP2 MSTORE PUSH1 0x20 ADD PUSH1 0x0 KECCAK256 SLOAD DUP3 PUSH2 0x1288 SWAP2 SWAP1 PUSH2 0x55D4 JUMP JUMPDEST SWAP1 POP DUP3 PUSH20 0xFFFFFFFFFFFFFFFFFFFFFFFFFFFFFFFFFFFFFFFF AND PUSH2 0x8FC DUP3 PUSH1 0x4 PUSH1 0x0 DUP12 DUP2 MSTORE PUSH1 0x20 ADD SWAP1 DUP2 MSTORE PUSH1 0x20 ADD PUSH1 0x0 KECCAK256 PUSH1 0x1 ADD SLOAD PUSH2 0x12C6 SWAP2 SWAP1 PUSH2 0x554B JUMP JUMPDEST SWAP1 DUP2 ISZERO MUL SWAP1 PUSH1 0x40 MLOAD PUSH1 0x0 PUSH1 0x40 MLOAD DUP1 DUP4 SUB DUP2 DUP6 DUP9 DUP9 CALL SWAP4 POP POP POP POP ISZERO DUP1 ISZERO PUSH2 0x12F1 JUMPI RETURNDATASIZE PUSH1 0x0 DUP1 RETURNDATACOPY RETURNDATASIZE PUSH1 0x0 REVERT JUMPDEST POP DUP2 PUSH1 0x1 PUSH1 0x0 DUP6 PUSH20 0xFFFFFFFFFFFFFFFFFFFFFFFFFFFFFFFFFFFFFFFF AND PUSH20 0xFFFFFFFFFFFFFFFFFFFFFFFFFFFFFFFFFFFFFFFF AND DUP2 MSTORE PUSH1 0x20 ADD SWAP1 DUP2 MSTORE PUSH1 0x20 ADD PUSH1 0x0 KECCAK256 PUSH1 0x0 ADD PUSH1 0x0 DUP3 DUP3 SLOAD PUSH2 0x1344 SWAP2 SWAP1 PUSH2 0x56C7 JUMP JUMPDEST SWAP3 POP POP DUP2 SWAP1 SSTORE POP PUSH1 0x0 JUMPDEST PUSH1 0x1 PUSH1 0x0 DUP6 PUSH20 0xFFFFFFFFFFFFFFFFFFFFFFFFFFFFFFFFFFFFFFFF AND PUSH20 0xFFFFFFFFFFFFFFFFFFFFFFFFFFFFFFFFFFFFFFFF AND DUP2 MSTORE PUSH1 0x20 ADD SWAP1 DUP2 MSTORE PUSH1 0x20 ADD PUSH1 0x0 KECCAK256 PUSH1 0x1 ADD DUP1 SLOAD SWAP1 POP DUP2 LT ISZERO PUSH2 0x15C2 JUMPI PUSH1 0x0 PUSH1 0x1 PUSH1 0x0 DUP7 PUSH20 0xFFFFFFFFFFFFFFFFFFFFFFFFFFFFFFFFFFFFFFFF AND PUSH20 0xFFFFFFFFFFFFFFFFFFFFFFFFFFFFFFFFFFFFFFFF AND DUP2 MSTORE PUSH1 0x20 ADD SWAP1 DUP2 MSTORE PUSH1 0x20 ADD PUSH1 0x0 KECCAK256 PUSH1 0x1 ADD DUP3 DUP2 SLOAD DUP2 LT PUSH2 0x13F1 JUMPI PUSH2 0x13F0 PUSH2 0x5468 JUMP JUMPDEST JUMPDEST SWAP1 PUSH1 0x0 MSTORE PUSH1 0x20 PUSH1 0x0 KECCAK256 SWAP1 PUSH1 0x7 MUL ADD PUSH1 0x40 MLOAD DUP1 PUSH1 0xE0 ADD PUSH1 0x40 MSTORE SWAP1 DUP2 PUSH1 0x0 DUP3 ADD PUSH1 0x0 SWAP1 SLOAD SWAP1 PUSH2 0x100 EXP SWAP1 DIV PUSH20 0xFFFFFFFFFFFFFFFFFFFFFFFFFFFFFFFFFFFFFFFF AND PUSH20 0xFFFFFFFFFFFFFFFFFFFFFFFFFFFFFFFFFFFFFFFF AND PUSH20 0xFFFFFFFFFFFFFFFFFFFFFFFFFFFFFFFFFFFFFFFF AND DUP2 MSTORE PUSH1 0x20 ADD PUSH1 0x1 DUP3 ADD SLOAD DUP2 MSTORE PUSH1 0x20 ADD PUSH1 0x2 DUP3 ADD SLOAD DUP2 MSTORE PUSH1 0x20 ADD PUSH1 0x3 DUP3 ADD SLOAD DUP2 MSTORE PUSH1 0x20 ADD PUSH1 0x4 DUP3 ADD DUP1 SLOAD PUSH2 0x148E SWAP1 PUSH2 0x572A JUMP JUMPDEST DUP1 PUSH1 0x1F ADD PUSH1 0x20 DUP1 SWAP2 DIV MUL PUSH1 0x20 ADD PUSH1 0x40 MLOAD SWAP1 DUP2 ADD PUSH1 0x40 MSTORE DUP1 SWAP3 SWAP2 SWAP1 DUP2 DUP2 MSTORE PUSH1 0x20 ADD DUP3 DUP1 SLOAD PUSH2 0x14BA SWAP1 PUSH2 0x572A JUMP JUMPDEST DUP1 ISZERO PUSH2 0x1507 JUMPI DUP1 PUSH1 0x1F LT PUSH2 0x14DC JUMPI PUSH2 0x100 DUP1 DUP4 SLOAD DIV MUL DUP4 MSTORE SWAP2 PUSH1 0x20 ADD SWAP2 PUSH2 0x1507 JUMP JUMPDEST DUP3 ADD SWAP2 SWAP1 PUSH1 0x0 MSTORE PUSH1 0x20 PUSH1 0x0 KECCAK256 SWAP1 JUMPDEST DUP2 SLOAD DUP2 MSTORE SWAP1 PUSH1 0x1 ADD SWAP1 PUSH1 0x20 ADD DUP1 DUP4 GT PUSH2 0x14EA JUMPI DUP3 SWAP1 SUB PUSH1 0x1F AND DUP3 ADD SWAP2 JUMPDEST POP POP POP POP POP DUP2 MSTORE PUSH1 0x20 ADD PUSH1 0x5 DUP3 ADD SLOAD DUP2 MSTORE PUSH1 0x20 ADD PUSH1 0x6 DUP3 ADD PUSH1 0x0 SWAP1 SLOAD SWAP1 PUSH2 0x100 EXP SWAP1 DIV PUSH1 0xFF AND ISZERO ISZERO ISZERO ISZERO DUP2 MSTORE POP POP SWAP1 POP DUP9 DUP2 PUSH1 0x60 ADD MLOAD EQ DUP1 ISZERO PUSH2 0x1597 JUMPI POP PUSH1 0x40 MLOAD PUSH1 0x20 ADD PUSH2 0x1554 SWAP1 PUSH2 0x57B2 JUMP JUMPDEST PUSH1 0x40 MLOAD PUSH1 0x20 DUP2 DUP4 SUB SUB DUP2 MSTORE SWAP1 PUSH1 0x40 MSTORE DUP1 MLOAD SWAP1 PUSH1 0x20 ADD KECCAK256 DUP2 PUSH1 0x80 ADD MLOAD PUSH1 0x40 MLOAD PUSH1 0x20 ADD PUSH2 0x157F SWAP2 SWAP1 PUSH2 0x57F8 JUMP JUMPDEST PUSH1 0x40 MLOAD PUSH1 0x20 DUP2 DUP4 SUB SUB DUP2 MSTORE SWAP1 PUSH1 0x40 MSTORE DUP1 MLOAD SWAP1 PUSH1 0x20 ADD KECCAK256 EQ JUMPDEST ISZERO PUSH2 0x15AE JUMPI PUSH1 0x0 DUP2 PUSH1 0xC0 ADD SWAP1 ISZERO ISZERO SWAP1 DUP2 ISZERO ISZERO DUP2 MSTORE POP POP JUMPDEST POP DUP1 DUP1 PUSH2 0x15BA SWAP1 PUSH2 0x580F JUMP JUMPDEST SWAP2 POP POP PUSH2 0x134E JUMP JUMPDEST POP POP POP POP DUP1 DUP1 PUSH2 0x15D1 SWAP1 PUSH2 0x580F JUMP JUMPDEST SWAP2 POP POP PUSH2 0x114D JUMP JUMPDEST POP PUSH1 0x0 JUMPDEST PUSH1 0x4 PUSH1 0x0 DUP6 DUP2 MSTORE PUSH1 0x20 ADD SWAP1 DUP2 MSTORE PUSH1 0x20 ADD PUSH1 0x0 KECCAK256 PUSH1 0x5 ADD PUSH1 0x0 DUP4 DUP2 MSTORE PUSH1 0x20 ADD SWAP1 DUP2 MSTORE PUSH1 0x20 ADD PUSH1 0x0 KECCAK256 DUP1 SLOAD SWAP1 POP DUP2 LT ISZERO PUSH2 0x19C9 JUMPI PUSH1 0x0 PUSH1 0x4 PUSH1 0x0 DUP7 DUP2 MSTORE PUSH1 0x20 ADD SWAP1 DUP2 MSTORE PUSH1 0x20 ADD PUSH1 0x0 KECCAK256 PUSH1 0x5 ADD PUSH1 0x0 DUP5 DUP2 MSTORE PUSH1 0x20 ADD SWAP1 DUP2 MSTORE PUSH1 0x20 ADD PUSH1 0x0 KECCAK256 DUP3 DUP2 SLOAD DUP2 LT PUSH2 0x164A JUMPI PUSH2 0x1649 PUSH2 0x5468 JUMP JUMPDEST JUMPDEST SWAP1 PUSH1 0x0 MSTORE PUSH1 0x20 PUSH1 0x0 KECCAK256 ADD PUSH1 0x0 SWAP1 SLOAD SWAP1 PUSH2 0x100 EXP SWAP1 DIV PUSH20 0xFFFFFFFFFFFFFFFFFFFFFFFFFFFFFFFFFFFFFFFF AND SWAP1 POP PUSH1 0x0 PUSH1 0x4 PUSH1 0x0 DUP8 DUP2 MSTORE PUSH1 0x20 ADD SWAP1 DUP2 MSTORE PUSH1 0x20 ADD PUSH1 0x0 KECCAK256 PUSH1 0x6 ADD PUSH1 0x0 DUP6 DUP2 MSTORE PUSH1 0x20 ADD SWAP1 DUP2 MSTORE PUSH1 0x20 ADD PUSH1 0x0 KECCAK256 PUSH1 0x0 DUP4 PUSH20 0xFFFFFFFFFFFFFFFFFFFFFFFFFFFFFFFFFFFFFFFF AND PUSH20 0xFFFFFFFFFFFFFFFFFFFFFFFFFFFFFFFFFFFFFFFF AND DUP2 MSTORE PUSH1 0x20 ADD SWAP1 DUP2 MSTORE PUSH1 0x20 ADD PUSH1 0x0 KECCAK256 PUSH1 0x1 ADD SLOAD SWAP1 POP DUP1 PUSH1 0x1 PUSH1 0x0 DUP5 PUSH20 0xFFFFFFFFFFFFFFFFFFFFFFFFFFFFFFFFFFFFFFFF AND PUSH20 0xFFFFFFFFFFFFFFFFFFFFFFFFFFFFFFFFFFFFFFFF AND DUP2 MSTORE PUSH1 0x20 ADD SWAP1 DUP2 MSTORE PUSH1 0x20 ADD PUSH1 0x0 KECCAK256 PUSH1 0x0 ADD PUSH1 0x0 DUP3 DUP3 SLOAD PUSH2 0x1735 SWAP2 SWAP1 PUSH2 0x56C7 JUMP JUMPDEST SWAP3 POP POP DUP2 SWAP1 SSTORE POP PUSH1 0x0 JUMPDEST PUSH1 0x1 PUSH1 0x0 DUP5 PUSH20 0xFFFFFFFFFFFFFFFFFFFFFFFFFFFFFFFFFFFFFFFF AND PUSH20 0xFFFFFFFFFFFFFFFFFFFFFFFFFFFFFFFFFFFFFFFF AND DUP2 MSTORE PUSH1 0x20 ADD SWAP1 DUP2 MSTORE PUSH1 0x20 ADD PUSH1 0x0 KECCAK256 PUSH1 0x1 ADD DUP1 SLOAD SWAP1 POP DUP2 LT ISZERO PUSH2 0x19B3 JUMPI PUSH1 0x0 PUSH1 0x1 PUSH1 0x0 DUP6 PUSH20 0xFFFFFFFFFFFFFFFFFFFFFFFFFFFFFFFFFFFFFFFF AND PUSH20 0xFFFFFFFFFFFFFFFFFFFFFFFFFFFFFFFFFFFFFFFF AND DUP2 MSTORE PUSH1 0x20 ADD SWAP1 DUP2 MSTORE PUSH1 0x20 ADD PUSH1 0x0 KECCAK256 PUSH1 0x1 ADD DUP3 DUP2 SLOAD DUP2 LT PUSH2 0x17E2 JUMPI PUSH2 0x17E1 PUSH2 0x5468 JUMP JUMPDEST JUMPDEST SWAP1 PUSH1 0x0 MSTORE PUSH1 0x20 PUSH1 0x0 KECCAK256 SWAP1 PUSH1 0x7 MUL ADD PUSH1 0x40 MLOAD DUP1 PUSH1 0xE0 ADD PUSH1 0x40 MSTORE SWAP1 DUP2 PUSH1 0x0 DUP3 ADD PUSH1 0x0 SWAP1 SLOAD SWAP1 PUSH2 0x100 EXP SWAP1 DIV PUSH20 0xFFFFFFFFFFFFFFFFFFFFFFFFFFFFFFFFFFFFFFFF AND PUSH20 0xFFFFFFFFFFFFFFFFFFFFFFFFFFFFFFFFFFFFFFFF AND PUSH20 0xFFFFFFFFFFFFFFFFFFFFFFFFFFFFFFFFFFFFFFFF AND DUP2 MSTORE PUSH1 0x20 ADD PUSH1 0x1 DUP3 ADD SLOAD DUP2 MSTORE PUSH1 0x20 ADD PUSH1 0x2 DUP3 ADD SLOAD DUP2 MSTORE PUSH1 0x20 ADD PUSH1 0x3 DUP3 ADD SLOAD DUP2 MSTORE PUSH1 0x20 ADD PUSH1 0x4 DUP3 ADD DUP1 SLOAD PUSH2 0x187F SWAP1 PUSH2 0x572A JUMP JUMPDEST DUP1 PUSH1 0x1F ADD PUSH1 0x20 DUP1 SWAP2 DIV MUL PUSH1 0x20 ADD PUSH1 0x40 MLOAD SWAP1 DUP2 ADD PUSH1 0x40 MSTORE DUP1 SWAP3 SWAP2 SWAP1 DUP2 DUP2 MSTORE PUSH1 0x20 ADD DUP3 DUP1 SLOAD PUSH2 0x18AB SWAP1 PUSH2 0x572A JUMP JUMPDEST DUP1 ISZERO PUSH2 0x18F8 JUMPI DUP1 PUSH1 0x1F LT PUSH2 0x18CD JUMPI PUSH2 0x100 DUP1 DUP4 SLOAD DIV MUL DUP4 MSTORE SWAP2 PUSH1 0x20 ADD SWAP2 PUSH2 0x18F8 JUMP JUMPDEST DUP3 ADD SWAP2 SWAP1 PUSH1 0x0 MSTORE PUSH1 0x20 PUSH1 0x0 KECCAK256 SWAP1 JUMPDEST DUP2 SLOAD DUP2 MSTORE SWAP1 PUSH1 0x1 ADD SWAP1 PUSH1 0x20 ADD DUP1 DUP4 GT PUSH2 0x18DB JUMPI DUP3 SWAP1 SUB PUSH1 0x1F AND DUP3 ADD SWAP2 JUMPDEST POP POP POP POP POP DUP2 MSTORE PUSH1 0x20 ADD PUSH1 0x5 DUP3 ADD SLOAD DUP2 MSTORE PUSH1 0x20 ADD PUSH1 0x6 DUP3 ADD PUSH1 0x0 SWAP1 SLOAD SWAP1 PUSH2 0x100 EXP SWAP1 DIV PUSH1 0xFF AND ISZERO ISZERO ISZERO ISZERO DUP2 MSTORE POP POP SWAP1 POP DUP8 DUP2 PUSH1 0x60 ADD MLOAD EQ DUP1 ISZERO PUSH2 0x1988 JUMPI POP PUSH1 0x40 MLOAD PUSH1 0x20 ADD PUSH2 0x1945 SWAP1 PUSH2 0x57B2 JUMP JUMPDEST PUSH1 0x40 MLOAD PUSH1 0x20 DUP2 DUP4 SUB SUB DUP2 MSTORE SWAP1 PUSH1 0x40 MSTORE DUP1 MLOAD SWAP1 PUSH1 0x20 ADD KECCAK256 DUP2 PUSH1 0x80 ADD MLOAD PUSH1 0x40 MLOAD PUSH1 0x20 ADD PUSH2 0x1970 SWAP2 SWAP1 PUSH2 0x57F8 JUMP JUMPDEST PUSH1 0x40 MLOAD PUSH1 0x20 DUP2 DUP4 SUB SUB DUP2 MSTORE SWAP1 PUSH1 0x40 MSTORE DUP1 MLOAD SWAP1 PUSH1 0x20 ADD KECCAK256 EQ JUMPDEST ISZERO PUSH2 0x199F JUMPI PUSH1 0x0 DUP2 PUSH1 0xC0 ADD SWAP1 ISZERO ISZERO SWAP1 DUP2 ISZERO ISZERO DUP2 MSTORE POP POP JUMPDEST POP DUP1 DUP1 PUSH2 0x19AB SWAP1 PUSH2 0x580F JUMP JUMPDEST SWAP2 POP POP PUSH2 0x173F JUMP JUMPDEST POP POP POP DUP1 DUP1 PUSH2 0x19C1 SWAP1 PUSH2 0x580F JUMP JUMPDEST SWAP2 POP POP PUSH2 0x15DD JUMP JUMPDEST POP POP POP POP JUMP JUMPDEST PUSH32 0x0 DUP2 JUMP JUMPDEST PUSH1 0x2 PUSH1 0x20 MSTORE DUP1 PUSH1 0x0 MSTORE PUSH1 0x40 PUSH1 0x0 KECCAK256 PUSH1 0x0 SWAP2 POP SWAP1 POP SLOAD DUP2 JUMP JUMPDEST PUSH1 0x5 PUSH1 0x20 MSTORE DUP1 PUSH1 0x0 MSTORE PUSH1 0x40 PUSH1 0x0 KECCAK256 PUSH1 0x0 SWAP2 POP SWAP1 POP DUP1 PUSH1 0x1 ADD SLOAD SWAP1 DUP1 PUSH1 0x2 ADD SLOAD SWAP1 DUP1 PUSH1 0x4 ADD SLOAD SWAP1 DUP1 PUSH1 0x5 ADD SLOAD SWAP1 DUP1 PUSH1 0x8 ADD SLOAD SWAP1 POP DUP6 JUMP JUMPDEST PUSH1 0x7 PUSH1 0x20 MSTORE DUP1 PUSH1 0x0 MSTORE PUSH1 0x40 PUSH1 0x0 KECCAK256 PUSH1 0x0 SWAP2 POP SWAP1 POP SLOAD DUP2 JUMP JUMPDEST PUSH32 0x0 DUP2 JUMP JUMPDEST PUSH1 0x3 PUSH1 0x20 MSTORE DUP2 PUSH1 0x0 MSTORE PUSH1 0x40 PUSH1 0x0 KECCAK256 PUSH1 0x20 MSTORE DUP1 PUSH1 0x0 MSTORE PUSH1 0x40 PUSH1 0x0 KECCAK256 PUSH1 0x0 SWAP2 POP SWAP2 POP POP SLOAD DUP2 JUMP JUMPDEST PUSH1 0x60 PUSH1 0x1 PUSH1 0x0 CALLER PUSH20 0xFFFFFFFFFFFFFFFFFFFFFFFFFFFFFFFFFFFFFFFF AND PUSH20 0xFFFFFFFFFFFFFFFFFFFFFFFFFFFFFFFFFFFFFFFF AND DUP2 MSTORE PUSH1 0x20 ADD SWAP1 DUP2 MSTORE PUSH1 0x20 ADD PUSH1 0x0 KECCAK256 PUSH1 0x1 ADD DUP1 SLOAD DUP1 PUSH1 0x20 MUL PUSH1 0x20 ADD PUSH1 0x40 MLOAD SWAP1 DUP2 ADD PUSH1 0x40 MSTORE DUP1 SWAP3 SWAP2 SWAP1 DUP2 DUP2 MSTORE PUSH1 0x20 ADD PUSH1 0x0 SWAP1 JUMPDEST DUP3 DUP3 LT ISZERO PUSH2 0x1C63 JUMPI DUP4 DUP3 SWAP1 PUSH1 0x0 MSTORE PUSH1 0x20 PUSH1 0x0 KECCAK256 SWAP1 PUSH1 0x7 MUL ADD PUSH1 0x40 MLOAD DUP1 PUSH1 0xE0 ADD PUSH1 0x40 MSTORE SWAP1 DUP2 PUSH1 0x0 DUP3 ADD PUSH1 0x0 SWAP1 SLOAD SWAP1 PUSH2 0x100 EXP SWAP1 DIV PUSH20 0xFFFFFFFFFFFFFFFFFFFFFFFFFFFFFFFFFFFFFFFF AND PUSH20 0xFFFFFFFFFFFFFFFFFFFFFFFFFFFFFFFFFFFFFFFF AND PUSH20 0xFFFFFFFFFFFFFFFFFFFFFFFFFFFFFFFFFFFFFFFF AND DUP2 MSTORE PUSH1 0x20 ADD PUSH1 0x1 DUP3 ADD SLOAD DUP2 MSTORE PUSH1 0x20 ADD PUSH1 0x2 DUP3 ADD SLOAD DUP2 MSTORE PUSH1 0x20 ADD PUSH1 0x3 DUP3 ADD SLOAD DUP2 MSTORE PUSH1 0x20 ADD PUSH1 0x4 DUP3 ADD DUP1 SLOAD PUSH2 0x1BAD SWAP1 PUSH2 0x572A JUMP JUMPDEST DUP1 PUSH1 0x1F ADD PUSH1 0x20 DUP1 SWAP2 DIV MUL PUSH1 0x20 ADD PUSH1 0x40 MLOAD SWAP1 DUP2 ADD PUSH1 0x40 MSTORE DUP1 SWAP3 SWAP2 SWAP1 DUP2 DUP2 MSTORE PUSH1 0x20 ADD DUP3 DUP1 SLOAD PUSH2 0x1BD9 SWAP1 PUSH2 0x572A JUMP JUMPDEST DUP1 ISZERO PUSH2 0x1C26 JUMPI DUP1 PUSH1 0x1F LT PUSH2 0x1BFB JUMPI PUSH2 0x100 DUP1 DUP4 SLOAD DIV MUL DUP4 MSTORE SWAP2 PUSH1 0x20 ADD SWAP2 PUSH2 0x1C26 JUMP JUMPDEST DUP3 ADD SWAP2 SWAP1 PUSH1 0x0 MSTORE PUSH1 0x20 PUSH1 0x0 KECCAK256 SWAP1 JUMPDEST DUP2 SLOAD DUP2 MSTORE SWAP1 PUSH1 0x1 ADD SWAP1 PUSH1 0x20 ADD DUP1 DUP4 GT PUSH2 0x1C09 JUMPI DUP3 SWAP1 SUB PUSH1 0x1F AND DUP3 ADD SWAP2 JUMPDEST POP POP POP POP POP DUP2 MSTORE PUSH1 0x20 ADD PUSH1 0x5 DUP3 ADD SLOAD DUP2 MSTORE PUSH1 0x20 ADD PUSH1 0x6 DUP3 ADD PUSH1 0x0 SWAP1 SLOAD SWAP1 PUSH2 0x100 EXP SWAP1 DIV PUSH1 0xFF AND ISZERO ISZERO ISZERO ISZERO DUP2 MSTORE POP POP DUP2 MSTORE PUSH1 0x20 ADD SWAP1 PUSH1 0x1 ADD SWAP1 PUSH2 0x1B06 JUMP JUMPDEST POP POP POP POP SWAP1 POP SWAP1 JUMP JUMPDEST PUSH32 0x0 PUSH20 0xFFFFFFFFFFFFFFFFFFFFFFFFFFFFFFFFFFFFFFFF AND CALLER PUSH20 0xFFFFFFFFFFFFFFFFFFFFFFFFFFFFFFFFFFFFFFFF AND EQ PUSH2 0x1CFA JUMPI PUSH1 0x40 MLOAD PUSH32 0x8C379A000000000000000000000000000000000000000000000000000000000 DUP2 MSTORE PUSH1 0x4 ADD PUSH2 0x1CF1 SWAP1 PUSH2 0x56A7 JUMP JUMPDEST PUSH1 0x40 MLOAD DUP1 SWAP2 SUB SWAP1 REVERT JUMPDEST PUSH1 0x0 JUMPDEST PUSH1 0x5 PUSH1 0x0 DUP8 DUP2 MSTORE PUSH1 0x20 ADD SWAP1 DUP2 MSTORE PUSH1 0x20 ADD PUSH1 0x0 KECCAK256 PUSH1 0x6 ADD PUSH1 0x0 DUP7 DUP2 MSTORE PUSH1 0x20 ADD SWAP1 DUP2 MSTORE PUSH1 0x20 ADD PUSH1 0x0 KECCAK256 DUP1 SLOAD SWAP1 POP DUP2 LT ISZERO PUSH2 0x2226 JUMPI PUSH1 0x0 PUSH1 0x5 PUSH1 0x0 DUP9 DUP2 MSTORE PUSH1 0x20 ADD SWAP1 DUP2 MSTORE PUSH1 0x20 ADD PUSH1 0x0 KECCAK256 PUSH1 0x6 ADD PUSH1 0x0 DUP8 DUP2 MSTORE PUSH1 0x20 ADD SWAP1 DUP2 MSTORE PUSH1 0x20 ADD PUSH1 0x0 KECCAK256 DUP3 DUP2 SLOAD DUP2 LT PUSH2 0x1D6A JUMPI PUSH2 0x1D69 PUSH2 0x5468 JUMP JUMPDEST JUMPDEST SWAP1 PUSH1 0x0 MSTORE PUSH1 0x20 PUSH1 0x0 KECCAK256 ADD PUSH1 0x0 SWAP1 SLOAD SWAP1 PUSH2 0x100 EXP SWAP1 DIV PUSH20 0xFFFFFFFFFFFFFFFFFFFFFFFFFFFFFFFFFFFFFFFF AND SWAP1 POP PUSH1 0x0 PUSH1 0x5 PUSH1 0x0 DUP10 DUP2 MSTORE PUSH1 0x20 ADD SWAP1 DUP2 MSTORE PUSH1 0x20 ADD PUSH1 0x0 KECCAK256 PUSH1 0x7 ADD PUSH1 0x0 DUP9 DUP2 MSTORE PUSH1 0x20 ADD SWAP1 DUP2 MSTORE PUSH1 0x20 ADD PUSH1 0x0 KECCAK256 PUSH1 0x0 DUP4 PUSH20 0xFFFFFFFFFFFFFFFFFFFFFFFFFFFFFFFFFFFFFFFF AND PUSH20 0xFFFFFFFFFFFFFFFFFFFFFFFFFFFFFFFFFFFFFFFF AND DUP2 MSTORE PUSH1 0x20 ADD SWAP1 DUP2 MSTORE PUSH1 0x20 ADD PUSH1 0x0 KECCAK256 PUSH1 0x1 ADD SLOAD SWAP1 POP PUSH1 0x0 PUSH1 0x5 PUSH1 0x0 DUP11 DUP2 MSTORE PUSH1 0x20 ADD SWAP1 DUP2 MSTORE PUSH1 0x20 ADD PUSH1 0x0 KECCAK256 PUSH1 0x0 ADD PUSH1 0x0 CALLER PUSH20 0xFFFFFFFFFFFFFFFFFFFFFFFFFFFFFFFFFFFFFFFF AND PUSH20 0xFFFFFFFFFFFFFFFFFFFFFFFFFFFFFFFFFFFFFFFF AND DUP2 MSTORE PUSH1 0x20 ADD SWAP1 DUP2 MSTORE PUSH1 0x20 ADD PUSH1 0x0 KECCAK256 PUSH1 0x0 DUP10 DUP2 MSTORE PUSH1 0x20 ADD SWAP1 DUP2 MSTORE PUSH1 0x20 ADD PUSH1 0x0 KECCAK256 SLOAD SWAP1 POP DUP5 DUP2 DUP8 PUSH2 0x1E79 SWAP2 SWAP1 PUSH2 0x5857 JUMP JUMPDEST SGT ISZERO PUSH2 0x1EF3 JUMPI DUP3 PUSH20 0xFFFFFFFFFFFFFFFFFFFFFFFFFFFFFFFFFFFFFFFF AND PUSH2 0x8FC DUP4 PUSH1 0x5 PUSH1 0x0 DUP14 DUP2 MSTORE PUSH1 0x20 ADD SWAP1 DUP2 MSTORE PUSH1 0x20 ADD PUSH1 0x0 KECCAK256 PUSH1 0x2 ADD SLOAD DUP6 PUSH2 0x1EBC SWAP2 SWAP1 PUSH2 0x55D4 JUMP JUMPDEST PUSH2 0x1EC6 SWAP2 SWAP1 PUSH2 0x554B JUMP JUMPDEST SWAP1 DUP2 ISZERO MUL SWAP1 PUSH1 0x40 MLOAD PUSH1 0x0 PUSH1 0x40 MLOAD DUP1 DUP4 SUB DUP2 DUP6 DUP9 DUP9 CALL SWAP4 POP POP POP POP ISZERO DUP1 ISZERO PUSH2 0x1EF1 JUMPI RETURNDATASIZE PUSH1 0x0 DUP1 RETURNDATACOPY RETURNDATASIZE PUSH1 0x0 REVERT JUMPDEST POP JUMPDEST DUP2 PUSH1 0x1 PUSH1 0x0 DUP6 PUSH20 0xFFFFFFFFFFFFFFFFFFFFFFFFFFFFFFFFFFFFFFFF AND PUSH20 0xFFFFFFFFFFFFFFFFFFFFFFFFFFFFFFFFFFFFFFFF AND DUP2 MSTORE PUSH1 0x20 ADD SWAP1 DUP2 MSTORE PUSH1 0x20 ADD PUSH1 0x0 KECCAK256 PUSH1 0x0 ADD PUSH1 0x0 DUP3 DUP3 SLOAD PUSH2 0x1F45 SWAP2 SWAP1 PUSH2 0x56C7 JUMP JUMPDEST SWAP3 POP POP DUP2 SWAP1 SSTORE POP PUSH1 0x0 JUMPDEST PUSH1 0x1 PUSH1 0x0 DUP6 PUSH20 0xFFFFFFFFFFFFFFFFFFFFFFFFFFFFFFFFFFFFFFFF AND PUSH20 0xFFFFFFFFFFFFFFFFFFFFFFFFFFFFFFFFFFFFFFFF AND DUP2 MSTORE PUSH1 0x20 ADD SWAP1 DUP2 MSTORE PUSH1 0x20 ADD PUSH1 0x0 KECCAK256 PUSH1 0x1 ADD DUP1 SLOAD SWAP1 POP DUP2 LT ISZERO PUSH2 0x220F JUMPI PUSH1 0x0 PUSH1 0x1 PUSH1 0x0 DUP7 PUSH20 0xFFFFFFFFFFFFFFFFFFFFFFFFFFFFFFFFFFFFFFFF AND PUSH20 0xFFFFFFFFFFFFFFFFFFFFFFFFFFFFFFFFFFFFFFFF AND DUP2 MSTORE PUSH1 0x20 ADD SWAP1 DUP2 MSTORE PUSH1 0x20 ADD PUSH1 0x0 KECCAK256 PUSH1 0x1 ADD DUP3 DUP2 SLOAD DUP2 LT PUSH2 0x1FF2 JUMPI PUSH2 0x1FF1 PUSH2 0x5468 JUMP JUMPDEST JUMPDEST SWAP1 PUSH1 0x0 MSTORE PUSH1 0x20 PUSH1 0x0 KECCAK256 SWAP1 PUSH1 0x7 MUL ADD PUSH1 0x40 MLOAD DUP1 PUSH1 0xE0 ADD PUSH1 0x40 MSTORE SWAP1 DUP2 PUSH1 0x0 DUP3 ADD PUSH1 0x0 SWAP1 SLOAD SWAP1 PUSH2 0x100 EXP SWAP1 DIV PUSH20 0xFFFFFFFFFFFFFFFFFFFFFFFFFFFFFFFFFFFFFFFF AND PUSH20 0xFFFFFFFFFFFFFFFFFFFFFFFFFFFFFFFFFFFFFFFF AND PUSH20 0xFFFFFFFFFFFFFFFFFFFFFFFFFFFFFFFFFFFFFFFF AND DUP2 MSTORE PUSH1 0x20 ADD PUSH1 0x1 DUP3 ADD SLOAD DUP2 MSTORE PUSH1 0x20 ADD PUSH1 0x2 DUP3 ADD SLOAD DUP2 MSTORE PUSH1 0x20 ADD PUSH1 0x3 DUP3 ADD SLOAD DUP2 MSTORE PUSH1 0x20 ADD PUSH1 0x4 DUP3 ADD DUP1 SLOAD PUSH2 0x208F SWAP1 PUSH2 0x572A JUMP JUMPDEST DUP1 PUSH1 0x1F ADD PUSH1 0x20 DUP1 SWAP2 DIV MUL PUSH1 0x20 ADD PUSH1 0x40 MLOAD SWAP1 DUP2 ADD PUSH1 0x40 MSTORE DUP1 SWAP3 SWAP2 SWAP1 DUP2 DUP2 MSTORE PUSH1 0x20 ADD DUP3 DUP1 SLOAD PUSH2 0x20BB SWAP1 PUSH2 0x572A JUMP JUMPDEST DUP1 ISZERO PUSH2 0x2108 JUMPI DUP1 PUSH1 0x1F LT PUSH2 0x20DD JUMPI PUSH2 0x100 DUP1 DUP4 SLOAD DIV MUL DUP4 MSTORE SWAP2 PUSH1 0x20 ADD SWAP2 PUSH2 0x2108 JUMP JUMPDEST DUP3 ADD SWAP2 SWAP1 PUSH1 0x0 MSTORE PUSH1 0x20 PUSH1 0x0 KECCAK256 SWAP1 JUMPDEST DUP2 SLOAD DUP2 MSTORE SWAP1 PUSH1 0x1 ADD SWAP1 PUSH1 0x20 ADD DUP1 DUP4 GT PUSH2 0x20EB JUMPI DUP3 SWAP1 SUB PUSH1 0x1F AND DUP3 ADD SWAP2 JUMPDEST POP POP POP POP POP DUP2 MSTORE PUSH1 0x20 ADD PUSH1 0x5 DUP3 ADD SLOAD DUP2 MSTORE PUSH1 0x20 ADD PUSH1 0x6 DUP3 ADD PUSH1 0x0 SWAP1 SLOAD SWAP1 PUSH2 0x100 EXP SWAP1 DIV PUSH1 0xFF AND ISZERO ISZERO ISZERO ISZERO DUP2 MSTORE POP POP SWAP1 POP DUP11 PUSH1 0x40 MLOAD PUSH1 0x20 ADD PUSH2 0x2149 SWAP2 SWAP1 PUSH2 0x590C JUMP JUMPDEST PUSH1 0x40 MLOAD PUSH1 0x20 DUP2 DUP4 SUB SUB DUP2 MSTORE SWAP1 PUSH1 0x40 MSTORE DUP1 MLOAD SWAP1 PUSH1 0x20 ADD KECCAK256 DUP2 PUSH1 0x60 ADD MLOAD PUSH1 0x40 MLOAD PUSH1 0x20 ADD PUSH2 0x2174 SWAP2 SWAP1 PUSH2 0x590C JUMP JUMPDEST PUSH1 0x40 MLOAD PUSH1 0x20 DUP2 DUP4 SUB SUB DUP2 MSTORE SWAP1 PUSH1 0x40 MSTORE DUP1 MLOAD SWAP1 PUSH1 0x20 ADD KECCAK256 EQ DUP1 ISZERO PUSH2 0x21E4 JUMPI POP PUSH1 0x40 MLOAD PUSH1 0x20 ADD PUSH2 0x21A1 SWAP1 PUSH2 0x5973 JUMP JUMPDEST PUSH1 0x40 MLOAD PUSH1 0x20 DUP2 DUP4 SUB SUB DUP2 MSTORE SWAP1 PUSH1 0x40 MSTORE DUP1 MLOAD SWAP1 PUSH1 0x20 ADD KECCAK256 DUP2 PUSH1 0x80 ADD MLOAD PUSH1 0x40 MLOAD PUSH1 0x20 ADD PUSH2 0x21CC SWAP2 SWAP1 PUSH2 0x57F8 JUMP JUMPDEST PUSH1 0x40 MLOAD PUSH1 0x20 DUP2 DUP4 SUB SUB DUP2 MSTORE SWAP1 PUSH1 0x40 MSTORE DUP1 MLOAD SWAP1 PUSH1 0x20 ADD KECCAK256 EQ JUMPDEST ISZERO PUSH2 0x21FB JUMPI PUSH1 0x0 DUP2 PUSH1 0xC0 ADD SWAP1 ISZERO ISZERO SWAP1 DUP2 ISZERO ISZERO DUP2 MSTORE POP POP JUMPDEST POP DUP1 DUP1 PUSH2 0x2207 SWAP1 PUSH2 0x580F JUMP JUMPDEST SWAP2 POP POP PUSH2 0x1F4F JUMP JUMPDEST POP POP POP POP DUP1 DUP1 PUSH2 0x221E SWAP1 PUSH2 0x580F JUMP JUMPDEST SWAP2 POP POP PUSH2 0x1CFD JUMP JUMPDEST POP PUSH1 0x0 JUMPDEST PUSH1 0x5 PUSH1 0x0 DUP8 DUP2 MSTORE PUSH1 0x20 ADD SWAP1 DUP2 MSTORE PUSH1 0x20 ADD PUSH1 0x0 KECCAK256 PUSH1 0x6 ADD PUSH1 0x0 DUP6 DUP2 MSTORE PUSH1 0x20 ADD SWAP1 DUP2 MSTORE PUSH1 0x20 ADD PUSH1 0x0 KECCAK256 DUP1 SLOAD SWAP1 POP DUP2 LT ISZERO PUSH2 0x2753 JUMPI PUSH1 0x0 PUSH1 0x5 PUSH1 0x0 DUP9 DUP2 MSTORE PUSH1 0x20 ADD SWAP1 DUP2 MSTORE PUSH1 0x20 ADD PUSH1 0x0 KECCAK256 PUSH1 0x6 ADD PUSH1 0x0 DUP7 DUP2 MSTORE PUSH1 0x20 ADD SWAP1 DUP2 MSTORE PUSH1 0x20 ADD PUSH1 0x0 KECCAK256 DUP3 DUP2 SLOAD DUP2 LT PUSH2 0x2297 JUMPI PUSH2 0x2296 PUSH2 0x5468 JUMP JUMPDEST JUMPDEST SWAP1 PUSH1 0x0 MSTORE PUSH1 0x20 PUSH1 0x0 KECCAK256 ADD PUSH1 0x0 SWAP1 SLOAD SWAP1 PUSH2 0x100 EXP SWAP1 DIV PUSH20 0xFFFFFFFFFFFFFFFFFFFFFFFFFFFFFFFFFFFFFFFF AND SWAP1 POP PUSH1 0x0 PUSH1 0x5 PUSH1 0x0 DUP10 DUP2 MSTORE PUSH1 0x20 ADD SWAP1 DUP2 MSTORE PUSH1 0x20 ADD PUSH1 0x0 KECCAK256 PUSH1 0x7 ADD PUSH1 0x0 DUP8 DUP2 MSTORE PUSH1 0x20 ADD SWAP1 DUP2 MSTORE PUSH1 0x20 ADD PUSH1 0x0 KECCAK256 PUSH1 0x0 DUP4 PUSH20 0xFFFFFFFFFFFFFFFFFFFFFFFFFFFFFFFFFFFFFFFF AND PUSH20 0xFFFFFFFFFFFFFFFFFFFFFFFFFFFFFFFFFFFFFFFF AND DUP2 MSTORE PUSH1 0x20 ADD SWAP1 DUP2 MSTORE PUSH1 0x20 ADD PUSH1 0x0 KECCAK256 PUSH1 0x1 ADD SLOAD SWAP1 POP DUP1 PUSH1 0x1 PUSH1 0x0 DUP5 PUSH20 0xFFFFFFFFFFFFFFFFFFFFFFFFFFFFFFFFFFFFFFFF AND PUSH20 0xFFFFFFFFFFFFFFFFFFFFFFFFFFFFFFFFFFFFFFFF AND DUP2 MSTORE PUSH1 0x20 ADD SWAP1 DUP2 MSTORE PUSH1 0x20 ADD PUSH1 0x0 KECCAK256 PUSH1 0x0 ADD PUSH1 0x0 DUP3 DUP3 SLOAD PUSH2 0x2382 SWAP2 SWAP1 PUSH2 0x56C7 JUMP JUMPDEST SWAP3 POP POP DUP2 SWAP1 SSTORE POP PUSH1 0x0 PUSH1 0x5 PUSH1 0x0 DUP11 DUP2 MSTORE PUSH1 0x20 ADD SWAP1 DUP2 MSTORE PUSH1 0x20 ADD PUSH1 0x0 KECCAK256 PUSH1 0x0 ADD PUSH1 0x0 CALLER PUSH20 0xFFFFFFFFFFFFFFFFFFFFFFFFFFFFFFFFFFFFFFFF AND PUSH20 0xFFFFFFFFFFFFFFFFFFFFFFFFFFFFFFFFFFFFFFFF AND DUP2 MSTORE PUSH1 0x20 ADD SWAP1 DUP2 MSTORE PUSH1 0x20 ADD PUSH1 0x0 KECCAK256 PUSH1 0x0 DUP9 DUP2 MSTORE PUSH1 0x20 ADD SWAP1 DUP2 MSTORE PUSH1 0x20 ADD PUSH1 0x0 KECCAK256 SLOAD SWAP1 POP DUP6 DUP2 DUP7 PUSH2 0x23FF SWAP2 SWAP1 PUSH2 0x5857 JUMP JUMPDEST SGT ISZERO PUSH2 0x2479 JUMPI DUP3 PUSH20 0xFFFFFFFFFFFFFFFFFFFFFFFFFFFFFFFFFFFFFFFF AND PUSH2 0x8FC DUP4 PUSH1 0x5 PUSH1 0x0 DUP14 DUP2 MSTORE PUSH1 0x20 ADD SWAP1 DUP2 MSTORE PUSH1 0x20 ADD PUSH1 0x0 KECCAK256 PUSH1 0x2 ADD SLOAD DUP6 PUSH2 0x2442 SWAP2 SWAP1 PUSH2 0x55D4 JUMP JUMPDEST PUSH2 0x244C SWAP2 SWAP1 PUSH2 0x554B JUMP JUMPDEST SWAP1 DUP2 ISZERO MUL SWAP1 PUSH1 0x40 MLOAD PUSH1 0x0 PUSH1 0x40 MLOAD DUP1 DUP4 SUB DUP2 DUP6 DUP9 DUP9 CALL SWAP4 POP POP POP POP ISZERO DUP1 ISZERO PUSH2 0x2477 JUMPI RETURNDATASIZE PUSH1 0x0 DUP1 RETURNDATACOPY RETURNDATASIZE PUSH1 0x0 REVERT JUMPDEST POP JUMPDEST PUSH1 0x0 JUMPDEST PUSH1 0x1 PUSH1 0x0 DUP6 PUSH20 0xFFFFFFFFFFFFFFFFFFFFFFFFFFFFFFFFFFFFFFFF AND PUSH20 0xFFFFFFFFFFFFFFFFFFFFFFFFFFFFFFFFFFFFFFFF AND DUP2 MSTORE PUSH1 0x20 ADD SWAP1 DUP2 MSTORE PUSH1 0x20 ADD PUSH1 0x0 KECCAK256 PUSH1 0x1 ADD DUP1 SLOAD SWAP1 POP DUP2 LT ISZERO PUSH2 0x273C JUMPI PUSH1 0x0 PUSH1 0x1 PUSH1 0x0 DUP7 PUSH20 0xFFFFFFFFFFFFFFFFFFFFFFFFFFFFFFFFFFFFFFFF AND PUSH20 0xFFFFFFFFFFFFFFFFFFFFFFFFFFFFFFFFFFFFFFFF AND DUP2 MSTORE PUSH1 0x20 ADD SWAP1 DUP2 MSTORE PUSH1 0x20 ADD PUSH1 0x0 KECCAK256 PUSH1 0x1 ADD DUP3 DUP2 SLOAD DUP2 LT PUSH2 0x251F JUMPI PUSH2 0x251E PUSH2 0x5468 JUMP JUMPDEST JUMPDEST SWAP1 PUSH1 0x0 MSTORE PUSH1 0x20 PUSH1 0x0 KECCAK256 SWAP1 PUSH1 0x7 MUL ADD PUSH1 0x40 MLOAD DUP1 PUSH1 0xE0 ADD PUSH1 0x40 MSTORE SWAP1 DUP2 PUSH1 0x0 DUP3 ADD PUSH1 0x0 SWAP1 SLOAD SWAP1 PUSH2 0x100 EXP SWAP1 DIV PUSH20 0xFFFFFFFFFFFFFFFFFFFFFFFFFFFFFFFFFFFFFFFF AND PUSH20 0xFFFFFFFFFFFFFFFFFFFFFFFFFFFFFFFFFFFFFFFF AND PUSH20 0xFFFFFFFFFFFFFFFFFFFFFFFFFFFFFFFFFFFFFFFF AND DUP2 MSTORE PUSH1 0x20 ADD PUSH1 0x1 DUP3 ADD SLOAD DUP2 MSTORE PUSH1 0x20 ADD PUSH1 0x2 DUP3 ADD SLOAD DUP2 MSTORE PUSH1 0x20 ADD PUSH1 0x3 DUP3 ADD SLOAD DUP2 MSTORE PUSH1 0x20 ADD PUSH1 0x4 DUP3 ADD DUP1 SLOAD PUSH2 0x25BC SWAP1 PUSH2 0x572A JUMP JUMPDEST DUP1 PUSH1 0x1F ADD PUSH1 0x20 DUP1 SWAP2 DIV MUL PUSH1 0x20 ADD PUSH1 0x40 MLOAD SWAP1 DUP2 ADD PUSH1 0x40 MSTORE DUP1 SWAP3 SWAP2 SWAP1 DUP2 DUP2 MSTORE PUSH1 0x20 ADD DUP3 DUP1 SLOAD PUSH2 0x25E8 SWAP1 PUSH2 0x572A JUMP JUMPDEST DUP1 ISZERO PUSH2 0x2635 JUMPI DUP1 PUSH1 0x1F LT PUSH2 0x260A JUMPI PUSH2 0x100 DUP1 DUP4 SLOAD DIV MUL DUP4 MSTORE SWAP2 PUSH1 0x20 ADD SWAP2 PUSH2 0x2635 JUMP JUMPDEST DUP3 ADD SWAP2 SWAP1 PUSH1 0x0 MSTORE PUSH1 0x20 PUSH1 0x0 KECCAK256 SWAP1 JUMPDEST DUP2 SLOAD DUP2 MSTORE SWAP1 PUSH1 0x1 ADD SWAP1 PUSH1 0x20 ADD DUP1 DUP4 GT PUSH2 0x2618 JUMPI DUP3 SWAP1 SUB PUSH1 0x1F AND DUP3 ADD SWAP2 JUMPDEST POP POP POP POP POP DUP2 MSTORE PUSH1 0x20 ADD PUSH1 0x5 DUP3 ADD SLOAD DUP2 MSTORE PUSH1 0x20 ADD PUSH1 0x6 DUP3 ADD PUSH1 0x0 SWAP1 SLOAD SWAP1 PUSH2 0x100 EXP SWAP1 DIV PUSH1 0xFF AND ISZERO ISZERO ISZERO ISZERO DUP2 MSTORE POP POP SWAP1 POP DUP11 PUSH1 0x40 MLOAD PUSH1 0x20 ADD PUSH2 0x2676 SWAP2 SWAP1 PUSH2 0x590C JUMP JUMPDEST PUSH1 0x40 MLOAD PUSH1 0x20 DUP2 DUP4 SUB SUB DUP2 MSTORE SWAP1 PUSH1 0x40 MSTORE DUP1 MLOAD SWAP1 PUSH1 0x20 ADD KECCAK256 DUP2 PUSH1 0x60 ADD MLOAD PUSH1 0x40 MLOAD PUSH1 0x20 ADD PUSH2 0x26A1 SWAP2 SWAP1 PUSH2 0x590C JUMP JUMPDEST PUSH1 0x40 MLOAD PUSH1 0x20 DUP2 DUP4 SUB SUB DUP2 MSTORE SWAP1 PUSH1 0x40 MSTORE DUP1 MLOAD SWAP1 PUSH1 0x20 ADD KECCAK256 EQ DUP1 ISZERO PUSH2 0x2711 JUMPI POP PUSH1 0x40 MLOAD PUSH1 0x20 ADD PUSH2 0x26CE SWAP1 PUSH2 0x5973 JUMP JUMPDEST PUSH1 0x40 MLOAD PUSH1 0x20 DUP2 DUP4 SUB SUB DUP2 MSTORE SWAP1 PUSH1 0x40 MSTORE DUP1 MLOAD SWAP1 PUSH1 0x20 ADD KECCAK256 DUP2 PUSH1 0x80 ADD MLOAD PUSH1 0x40 MLOAD PUSH1 0x20 ADD PUSH2 0x26F9 SWAP2 SWAP1 PUSH2 0x57F8 JUMP JUMPDEST PUSH1 0x40 MLOAD PUSH1 0x20 DUP2 DUP4 SUB SUB DUP2 MSTORE SWAP1 PUSH1 0x40 MSTORE DUP1 MLOAD SWAP1 PUSH1 0x20 ADD KECCAK256 EQ JUMPDEST ISZERO PUSH2 0x2728 JUMPI PUSH1 0x0 DUP2 PUSH1 0xC0 ADD SWAP1 ISZERO ISZERO SWAP1 DUP2 ISZERO ISZERO DUP2 MSTORE POP POP JUMPDEST POP DUP1 DUP1 PUSH2 0x2734 SWAP1 PUSH2 0x580F JUMP JUMPDEST SWAP2 POP POP PUSH2 0x247C JUMP JUMPDEST POP POP POP POP DUP1 DUP1 PUSH2 0x274B SWAP1 PUSH2 0x580F JUMP JUMPDEST SWAP2 POP POP PUSH2 0x222A JUMP JUMPDEST POP POP POP POP POP POP JUMP JUMPDEST PUSH32 0x0 DUP2 JUMP JUMPDEST PUSH1 0x0 PUSH1 0x4 PUSH1 0x0 DUP5 DUP2 MSTORE PUSH1 0x20 ADD SWAP1 DUP2 MSTORE PUSH1 0x20 ADD PUSH1 0x0 KECCAK256 PUSH1 0x2 ADD PUSH1 0x0 DUP4 DUP2 MSTORE PUSH1 0x20 ADD SWAP1 DUP2 MSTORE PUSH1 0x20 ADD PUSH1 0x0 KECCAK256 SLOAD SWAP1 POP SWAP3 SWAP2 POP POP JUMP JUMPDEST PUSH20 0x7506C12A824D73D9B08564D5AFC22C949434755E DUP2 JUMP JUMPDEST PUSH2 0x27D1 PUSH2 0x480C JUMP JUMPDEST PUSH1 0x5 PUSH1 0x0 DUP5 DUP2 MSTORE PUSH1 0x20 ADD SWAP1 DUP2 MSTORE PUSH1 0x20 ADD PUSH1 0x0 KECCAK256 PUSH1 0x7 ADD PUSH1 0x0 DUP4 DUP2 MSTORE PUSH1 0x20 ADD SWAP1 DUP2 MSTORE PUSH1 0x20 ADD PUSH1 0x0 KECCAK256 PUSH1 0x0 CALLER PUSH20 0xFFFFFFFFFFFFFFFFFFFFFFFFFFFFFFFFFFFFFFFF AND PUSH20 0xFFFFFFFFFFFFFFFFFFFFFFFFFFFFFFFFFFFFFFFF AND DUP2 MSTORE PUSH1 0x20 ADD SWAP1 DUP2 MSTORE PUSH1 0x20 ADD PUSH1 0x0 KECCAK256 PUSH1 0x40 MLOAD DUP1 PUSH1 0xE0 ADD PUSH1 0x40 MSTORE SWAP1 DUP2 PUSH1 0x0 DUP3 ADD PUSH1 0x0 SWAP1 SLOAD SWAP1 PUSH2 0x100 EXP SWAP1 DIV PUSH20 0xFFFFFFFFFFFFFFFFFFFFFFFFFFFFFFFFFFFFFFFF AND PUSH20 0xFFFFFFFFFFFFFFFFFFFFFFFFFFFFFFFFFFFFFFFF AND PUSH20 0xFFFFFFFFFFFFFFFFFFFFFFFFFFFFFFFFFFFFFFFF AND DUP2 MSTORE PUSH1 0x20 ADD PUSH1 0x1 DUP3 ADD SLOAD DUP2 MSTORE PUSH1 0x20 ADD PUSH1 0x2 DUP3 ADD SLOAD DUP2 MSTORE PUSH1 0x20 ADD PUSH1 0x3 DUP3 ADD SLOAD DUP2 MSTORE PUSH1 0x20 ADD PUSH1 0x4 DUP3 ADD DUP1 SLOAD PUSH2 0x28C4 SWAP1 PUSH2 0x572A JUMP JUMPDEST DUP1 PUSH1 0x1F ADD PUSH1 0x20 DUP1 SWAP2 DIV MUL PUSH1 0x20 ADD PUSH1 0x40 MLOAD SWAP1 DUP2 ADD PUSH1 0x40 MSTORE DUP1 SWAP3 SWAP2 SWAP1 DUP2 DUP2 MSTORE PUSH1 0x20 ADD DUP3 DUP1 SLOAD PUSH2 0x28F0 SWAP1 PUSH2 0x572A JUMP JUMPDEST DUP1 ISZERO PUSH2 0x293D JUMPI DUP1 PUSH1 0x1F LT PUSH2 0x2912 JUMPI PUSH2 0x100 DUP1 DUP4 SLOAD DIV MUL DUP4 MSTORE SWAP2 PUSH1 0x20 ADD SWAP2 PUSH2 0x293D JUMP JUMPDEST DUP3 ADD SWAP2 SWAP1 PUSH1 0x0 MSTORE PUSH1 0x20 PUSH1 0x0 KECCAK256 SWAP1 JUMPDEST DUP2 SLOAD DUP2 MSTORE SWAP1 PUSH1 0x1 ADD SWAP1 PUSH1 0x20 ADD DUP1 DUP4 GT PUSH2 0x2920 JUMPI DUP3 SWAP1 SUB PUSH1 0x1F AND DUP3 ADD SWAP2 JUMPDEST POP POP POP POP POP DUP2 MSTORE PUSH1 0x20 ADD PUSH1 0x5 DUP3 ADD SLOAD DUP2 MSTORE PUSH1 0x20 ADD PUSH1 0x6 DUP3 ADD PUSH1 0x0 SWAP1 SLOAD SWAP1 PUSH2 0x100 EXP SWAP1 DIV PUSH1 0xFF AND ISZERO ISZERO ISZERO ISZERO DUP2 MSTORE POP POP SWAP1 POP SWAP3 SWAP2 POP POP JUMP JUMPDEST PUSH1 0x0 PUSH1 0x1 PUSH1 0x0 CALLER PUSH20 0xFFFFFFFFFFFFFFFFFFFFFFFFFFFFFFFFFFFFFFFF AND PUSH20 0xFFFFFFFFFFFFFFFFFFFFFFFFFFFFFFFFFFFFFFFF AND DUP2 MSTORE PUSH1 0x20 ADD SWAP1 DUP2 MSTORE PUSH1 0x20 ADD PUSH1 0x0 KECCAK256 PUSH1 0x0 ADD SLOAD SWAP1 POP SWAP1 JUMP JUMPDEST PUSH1 0x8 PUSH1 0x20 MSTORE DUP1 PUSH1 0x0 MSTORE PUSH1 0x40 PUSH1 0x0 KECCAK256 PUSH1 0x0 SWAP2 POP SWAP1 POP SLOAD DUP2 JUMP JUMPDEST CALLER PUSH20 0xFFFFFFFFFFFFFFFFFFFFFFFFFFFFFFFFFFFFFFFF AND PUSH1 0x6 PUSH1 0x0 DUP9 DUP2 MSTORE PUSH1 0x20 ADD SWAP1 DUP2 MSTORE PUSH1 0x20 ADD PUSH1 0x0 KECCAK256 PUSH1 0x6 ADD PUSH1 0x0 CALLER PUSH20 0xFFFFFFFFFFFFFFFFFFFFFFFFFFFFFFFFFFFFFFFF AND PUSH20 0xFFFFFFFFFFFFFFFFFFFFFFFFFFFFFFFFFFFFFFFF AND DUP2 MSTORE PUSH1 0x20 ADD SWAP1 DUP2 MSTORE PUSH1 0x20 ADD PUSH1 0x0 KECCAK256 PUSH1 0x0 ADD PUSH1 0x0 SWAP1 SLOAD SWAP1 PUSH2 0x100 EXP SWAP1 DIV PUSH20 0xFFFFFFFFFFFFFFFFFFFFFFFFFFFFFFFFFFFFFFFF AND PUSH20 0xFFFFFFFFFFFFFFFFFFFFFFFFFFFFFFFFFFFFFFFF AND SUB PUSH2 0x2AB9 JUMPI PUSH1 0x40 MLOAD PUSH32 0x8C379A000000000000000000000000000000000000000000000000000000000 DUP2 MSTORE PUSH1 0x4 ADD PUSH2 0x2AB0 SWAP1 PUSH2 0x52B8 JUMP JUMPDEST PUSH1 0x40 MLOAD DUP1 SWAP2 SUB SWAP1 REVERT JUMPDEST DUP3 DUP5 SUB PUSH2 0x2AC5 JUMPI PUSH1 0x0 DUP1 REVERT JUMPDEST DUP7 PUSH20 0xFFFFFFFFFFFFFFFFFFFFFFFFFFFFFFFFFFFFFFFF AND CALLER PUSH20 0xFFFFFFFFFFFFFFFFFFFFFFFFFFFFFFFFFFFFFFFF AND EQ PUSH2 0x2B33 JUMPI PUSH1 0x40 MLOAD PUSH32 0x8C379A000000000000000000000000000000000000000000000000000000000 DUP2 MSTORE PUSH1 0x4 ADD PUSH2 0x2B2A SWAP1 PUSH2 0x534A JUMP JUMPDEST PUSH1 0x40 MLOAD DUP1 SWAP2 SUB SWAP1 REVERT JUMPDEST PUSH1 0x0 CALLVALUE GT PUSH2 0x2B76 JUMPI PUSH1 0x40 MLOAD PUSH32 0x8C379A000000000000000000000000000000000000000000000000000000000 DUP2 MSTORE PUSH1 0x4 ADD PUSH2 0x2B6D SWAP1 PUSH2 0x53B6 JUMP JUMPDEST PUSH1 0x40 MLOAD DUP1 SWAP2 SUB SWAP1 REVERT JUMPDEST PUSH1 0x0 DUP1 NOT AND PUSH1 0x6 PUSH1 0x0 DUP9 DUP2 MSTORE PUSH1 0x20 ADD SWAP1 DUP2 MSTORE PUSH1 0x20 ADD PUSH1 0x0 KECCAK256 PUSH1 0x7 ADD SLOAD SUB PUSH2 0x2D90 JUMPI PUSH1 0x0 PUSH1 0x40 MLOAD DUP1 PUSH1 0x40 ADD PUSH1 0x40 MSTORE DUP1 PUSH1 0x2 PUSH8 0xFFFFFFFFFFFFFFFF DUP2 GT ISZERO PUSH2 0x2BBF JUMPI PUSH2 0x2BBE PUSH2 0x4977 JUMP JUMPDEST JUMPDEST PUSH1 0x40 MLOAD SWAP1 DUP1 DUP3 MSTORE DUP1 PUSH1 0x20 MUL PUSH1 0x20 ADD DUP3 ADD PUSH1 0x40 MSTORE DUP1 ISZERO PUSH2 0x2BED JUMPI DUP2 PUSH1 0x20 ADD PUSH1 0x20 DUP3 MUL DUP1 CALLDATASIZE DUP4 CALLDATACOPY DUP1 DUP3 ADD SWAP2 POP POP SWAP1 POP JUMPDEST POP DUP2 MSTORE PUSH1 0x20 ADD PUSH1 0x2 PUSH8 0xFFFFFFFFFFFFFFFF DUP2 GT ISZERO PUSH2 0x2C0E JUMPI PUSH2 0x2C0D PUSH2 0x4977 JUMP JUMPDEST JUMPDEST PUSH1 0x40 MLOAD SWAP1 DUP1 DUP3 MSTORE DUP1 PUSH1 0x20 MUL PUSH1 0x20 ADD DUP3 ADD PUSH1 0x40 MSTORE DUP1 ISZERO PUSH2 0x2C41 JUMPI DUP2 PUSH1 0x20 ADD JUMPDEST PUSH1 0x60 DUP2 MSTORE PUSH1 0x20 ADD SWAP1 PUSH1 0x1 SWAP1 SUB SWAP1 DUP2 PUSH2 0x2C2C JUMPI SWAP1 POP JUMPDEST POP DUP2 MSTORE POP SWAP1 POP PUSH1 0x2 DUP2 PUSH1 0x0 ADD MLOAD PUSH1 0x0 DUP2 MLOAD DUP2 LT PUSH2 0x2C61 JUMPI PUSH2 0x2C60 PUSH2 0x5468 JUMP JUMPDEST JUMPDEST PUSH1 0x20 MUL PUSH1 0x20 ADD ADD SWAP1 PUSH1 0x4 DUP2 GT ISZERO PUSH2 0x2C7B JUMPI PUSH2 0x2C7A PUSH2 0x5497 JUMP JUMPDEST JUMPDEST SWAP1 DUP2 PUSH1 0x4 DUP2 GT ISZERO PUSH2 0x2C8F JUMPI PUSH2 0x2C8E PUSH2 0x5497 JUMP JUMPDEST JUMPDEST DUP2 MSTORE POP POP PUSH1 0x4 DUP2 PUSH1 0x0 ADD MLOAD PUSH1 0x1 DUP2 MLOAD DUP2 LT PUSH2 0x2CAD JUMPI PUSH2 0x2CAC PUSH2 0x5468 JUMP JUMPDEST JUMPDEST PUSH1 0x20 MUL PUSH1 0x20 ADD ADD SWAP1 PUSH1 0x4 DUP2 GT ISZERO PUSH2 0x2CC7 JUMPI PUSH2 0x2CC6 PUSH2 0x5497 JUMP JUMPDEST JUMPDEST SWAP1 DUP2 PUSH1 0x4 DUP2 GT ISZERO PUSH2 0x2CDB JUMPI PUSH2 0x2CDA PUSH2 0x5497 JUMP JUMPDEST JUMPDEST DUP2 MSTORE POP POP PUSH2 0x2CE7 PUSH2 0x4666 JUMP JUMPDEST DUP2 PUSH1 0x20 ADD MLOAD PUSH1 0x0 DUP2 MLOAD DUP2 LT PUSH2 0x2CFF JUMPI PUSH2 0x2CFE PUSH2 0x5468 JUMP JUMPDEST JUMPDEST PUSH1 0x20 MUL PUSH1 0x20 ADD ADD DUP2 SWAP1 MSTORE POP PUSH2 0x2D1E DUP3 PUSH2 0x2D19 ADDRESS DUP11 DUP8 PUSH2 0x467D JUMP JUMPDEST PUSH2 0x46AC JUMP JUMPDEST DUP2 PUSH1 0x20 ADD MLOAD PUSH1 0x1 DUP2 MLOAD DUP2 LT PUSH2 0x2D36 JUMPI PUSH2 0x2D35 PUSH2 0x5468 JUMP JUMPDEST JUMPDEST PUSH1 0x20 MUL PUSH1 0x20 ADD ADD DUP2 SWAP1 MSTORE POP PUSH2 0x2D74 ADDRESS PUSH4 0x8EE95F9F PUSH1 0xE0 SHL PUSH1 0x40 MLOAD PUSH1 0x20 ADD PUSH2 0x2D5D SWAP2 SWAP1 PUSH2 0x5501 JUMP JUMPDEST PUSH1 0x40 MLOAD PUSH1 0x20 DUP2 DUP4 SUB SUB DUP2 MSTORE SWAP1 PUSH1 0x40 MSTORE DUP4 PUSH1 0x0 PUSH2 0x46D8 JUMP JUMPDEST PUSH1 0x6 PUSH1 0x0 DUP10 DUP2 MSTORE PUSH1 0x20 ADD SWAP1 DUP2 MSTORE PUSH1 0x20 ADD PUSH1 0x0 KECCAK256 PUSH1 0x7 ADD DUP2 SWAP1 SSTORE POP POP JUMPDEST PUSH1 0x0 PUSH1 0x64 PUSH1 0x5 CALLVALUE PUSH2 0x2DA1 SWAP2 SWAP1 PUSH2 0x554B JUMP JUMPDEST PUSH2 0x2DAB SWAP2 SWAP1 PUSH2 0x55D4 JUMP JUMPDEST SWAP1 POP PUSH1 0x0 PUSH1 0x64 PUSH1 0x5F CALLVALUE PUSH2 0x2DBE SWAP2 SWAP1 PUSH2 0x554B JUMP JUMPDEST PUSH2 0x2DC8 SWAP2 SWAP1 PUSH2 0x55D4 JUMP JUMPDEST SWAP1 POP PUSH1 0x0 PUSH1 0x6 PUSH1 0x0 DUP11 DUP2 MSTORE PUSH1 0x20 ADD SWAP1 DUP2 MSTORE PUSH1 0x20 ADD PUSH1 0x0 KECCAK256 SWAP1 POP PUSH1 0x0 PUSH1 0x1 PUSH1 0x0 CALLER PUSH20 0xFFFFFFFFFFFFFFFFFFFFFFFFFFFFFFFFFFFFFFFF AND PUSH20 0xFFFFFFFFFFFFFFFFFFFFFFFFFFFFFFFFFFFFFFFF AND DUP2 MSTORE PUSH1 0x20 ADD SWAP1 DUP2 MSTORE PUSH1 0x20 ADD PUSH1 0x0 KECCAK256 PUSH1 0x1 ADD SWAP1 POP PUSH1 0x0 DUP3 PUSH1 0x6 ADD PUSH1 0x0 CALLER PUSH20 0xFFFFFFFFFFFFFFFFFFFFFFFFFFFFFFFFFFFFFFFF AND PUSH20 0xFFFFFFFFFFFFFFFFFFFFFFFFFFFFFFFFFFFFFFFF AND DUP2 MSTORE PUSH1 0x20 ADD SWAP1 DUP2 MSTORE PUSH1 0x20 ADD PUSH1 0x0 KECCAK256 SWAP1 POP PUSH1 0x0 DUP4 PUSH1 0x5 ADD SWAP1 POP PUSH1 0x0 DUP1 SLOAD SWAP1 PUSH2 0x100 EXP SWAP1 DIV PUSH20 0xFFFFFFFFFFFFFFFFFFFFFFFFFFFFFFFFFFFFFFFF AND PUSH20 0xFFFFFFFFFFFFFFFFFFFFFFFFFFFFFFFFFFFFFFFF AND PUSH2 0x8FC DUP8 SWAP1 DUP2 ISZERO MUL SWAP1 PUSH1 0x40 MLOAD PUSH1 0x0 PUSH1 0x40 MLOAD DUP1 DUP4 SUB DUP2 DUP6 DUP9 DUP9 CALL SWAP4 POP POP POP POP ISZERO DUP1 ISZERO PUSH2 0x2EDA JUMPI RETURNDATASIZE PUSH1 0x0 DUP1 RETURNDATACOPY RETURNDATASIZE PUSH1 0x0 REVERT JUMPDEST POP DUP5 PUSH1 0x1 PUSH1 0x0 CALLER PUSH20 0xFFFFFFFFFFFFFFFFFFFFFFFFFFFFFFFFFFFFFFFF AND PUSH20 0xFFFFFFFFFFFFFFFFFFFFFFFFFFFFFFFFFFFFFFFF AND DUP2 MSTORE PUSH1 0x20 ADD SWAP1 DUP2 MSTORE PUSH1 0x20 ADD PUSH1 0x0 KECCAK256 PUSH1 0x0 ADD PUSH1 0x0 DUP3 DUP3 SLOAD PUSH2 0x2F2D SWAP2 SWAP1 PUSH2 0x5605 JUMP JUMPDEST SWAP3 POP POP DUP2 SWAP1 SSTORE POP DUP3 PUSH1 0x40 MLOAD DUP1 PUSH1 0xE0 ADD PUSH1 0x40 MSTORE DUP1 CALLER PUSH20 0xFFFFFFFFFFFFFFFFFFFFFFFFFFFFFFFFFFFFFFFF AND DUP2 MSTORE PUSH1 0x20 ADD DUP8 DUP2 MSTORE PUSH1 0x20 ADD PUSH1 0x0 DUP2 MSTORE PUSH1 0x20 ADD DUP15 DUP2 MSTORE PUSH1 0x20 ADD PUSH1 0x40 MLOAD DUP1 PUSH1 0x40 ADD PUSH1 0x40 MSTORE DUP1 PUSH1 0xB DUP2 MSTORE PUSH1 0x20 ADD PUSH32 0x506F696E7420546F74616C000000000000000000000000000000000000000000 DUP2 MSTORE POP DUP2 MSTORE PUSH1 0x20 ADD TIMESTAMP DUP2 MSTORE PUSH1 0x20 ADD PUSH1 0x1 ISZERO ISZERO DUP2 MSTORE POP SWAP1 DUP1 PUSH1 0x1 DUP2 SLOAD ADD DUP1 DUP3 SSTORE DUP1 SWAP2 POP POP PUSH1 0x1 SWAP1 SUB SWAP1 PUSH1 0x0 MSTORE PUSH1 0x20 PUSH1 0x0 KECCAK256 SWAP1 PUSH1 0x7 MUL ADD PUSH1 0x0 SWAP1 SWAP2 SWAP1 SWAP2 SWAP1 SWAP2 POP PUSH1 0x0 DUP3 ADD MLOAD DUP2 PUSH1 0x0 ADD PUSH1 0x0 PUSH2 0x100 EXP DUP2 SLOAD DUP2 PUSH20 0xFFFFFFFFFFFFFFFFFFFFFFFFFFFFFFFFFFFFFFFF MUL NOT AND SWAP1 DUP4 PUSH20 0xFFFFFFFFFFFFFFFFFFFFFFFFFFFFFFFFFFFFFFFF AND MUL OR SWAP1 SSTORE POP PUSH1 0x20 DUP3 ADD MLOAD DUP2 PUSH1 0x1 ADD SSTORE PUSH1 0x40 DUP3 ADD MLOAD DUP2 PUSH1 0x2 ADD SSTORE PUSH1 0x60 DUP3 ADD MLOAD DUP2 PUSH1 0x3 ADD SSTORE PUSH1 0x80 DUP3 ADD MLOAD DUP2 PUSH1 0x4 ADD SWAP1 DUP1 MLOAD SWAP1 PUSH1 0x20 ADD SWAP1 PUSH2 0x3061 SWAP3 SWAP2 SWAP1 PUSH2 0x4786 JUMP JUMPDEST POP PUSH1 0xA0 DUP3 ADD MLOAD DUP2 PUSH1 0x5 ADD SSTORE PUSH1 0xC0 DUP3 ADD MLOAD DUP2 PUSH1 0x6 ADD PUSH1 0x0 PUSH2 0x100 EXP DUP2 SLOAD DUP2 PUSH1 0xFF MUL NOT AND SWAP1 DUP4 ISZERO ISZERO MUL OR SWAP1 SSTORE POP POP POP CALLVALUE PUSH1 0x2 PUSH1 0x0 DUP15 DUP2 MSTORE PUSH1 0x20 ADD SWAP1 DUP2 MSTORE PUSH1 0x20 ADD PUSH1 0x0 KECCAK256 PUSH1 0x0 DUP3 DUP3 SLOAD PUSH2 0x30B1 SWAP2 SWAP1 PUSH2 0x5605 JUMP JUMPDEST SWAP3 POP POP DUP2 SWAP1 SSTORE POP CALLVALUE PUSH1 0x3 PUSH1 0x0 DUP15 DUP2 MSTORE PUSH1 0x20 ADD SWAP1 DUP2 MSTORE PUSH1 0x20 ADD PUSH1 0x0 KECCAK256 PUSH1 0x0 DUP13 DUP2 MSTORE PUSH1 0x20 ADD SWAP1 DUP2 MSTORE PUSH1 0x20 ADD PUSH1 0x0 KECCAK256 PUSH1 0x0 DUP3 DUP3 SLOAD PUSH2 0x30EC SWAP2 SWAP1 PUSH2 0x5605 JUMP JUMPDEST SWAP3 POP POP DUP2 SWAP1 SSTORE POP CALLVALUE PUSH1 0x3 PUSH1 0x0 DUP15 DUP2 MSTORE PUSH1 0x20 ADD SWAP1 DUP2 MSTORE PUSH1 0x20 ADD PUSH1 0x0 KECCAK256 PUSH1 0x0 DUP12 DUP2 MSTORE PUSH1 0x20 ADD SWAP1 DUP2 MSTORE PUSH1 0x20 ADD PUSH1 0x0 KECCAK256 PUSH1 0x0 DUP3 DUP3 SLOAD PUSH2 0x3127 SWAP2 SWAP1 PUSH2 0x5605 JUMP JUMPDEST SWAP3 POP POP DUP2 SWAP1 SSTORE POP DUP5 DUP5 PUSH1 0x2 ADD PUSH1 0x0 DUP3 DUP3 SLOAD PUSH2 0x3142 SWAP2 SWAP1 PUSH2 0x5605 JUMP JUMPDEST SWAP3 POP POP DUP2 SWAP1 SSTORE POP DUP10 DUP5 PUSH1 0x3 ADD DUP2 SWAP1 SSTORE POP DUP9 DUP5 PUSH1 0x4 ADD DUP2 SWAP1 SSTORE POP DUP8 DUP5 PUSH1 0x1 ADD DUP2 SWAP1 SSTORE POP DUP11 DUP5 PUSH1 0x0 ADD PUSH1 0x0 CALLER PUSH20 0xFFFFFFFFFFFFFFFFFFFFFFFFFFFFFFFFFFFFFFFF AND PUSH20 0xFFFFFFFFFFFFFFFFFFFFFFFFFFFFFFFFFFFFFFFF AND DUP2 MSTORE PUSH1 0x20 ADD SWAP1 DUP2 MSTORE PUSH1 0x20 ADD PUSH1 0x0 KECCAK256 DUP2 SWAP1 SSTORE POP DUP1 CALLER SWAP1 DUP1 PUSH1 0x1 DUP2 SLOAD ADD DUP1 DUP3 SSTORE DUP1 SWAP2 POP POP PUSH1 0x1 SWAP1 SUB SWAP1 PUSH1 0x0 MSTORE PUSH1 0x20 PUSH1 0x0 KECCAK256 ADD PUSH1 0x0 SWAP1 SWAP2 SWAP1 SWAP2 SWAP1 SWAP2 PUSH2 0x100 EXP DUP2 SLOAD DUP2 PUSH20 0xFFFFFFFFFFFFFFFFFFFFFFFFFFFFFFFFFFFFFFFF MUL NOT AND SWAP1 DUP4 PUSH20 0xFFFFFFFFFFFFFFFFFFFFFFFFFFFFFFFFFFFFFFFF AND MUL OR SWAP1 SSTORE POP CALLER DUP3 PUSH1 0x0 ADD PUSH1 0x0 PUSH2 0x100 EXP DUP2 SLOAD DUP2 PUSH20 0xFFFFFFFFFFFFFFFFFFFFFFFFFFFFFFFFFFFFFFFF MUL NOT AND SWAP1 DUP4 PUSH20 0xFFFFFFFFFFFFFFFFFFFFFFFFFFFFFFFFFFFFFFFF AND MUL OR SWAP1 SSTORE POP DUP5 DUP3 PUSH1 0x1 ADD PUSH1 0x0 DUP3 DUP3 SLOAD PUSH2 0x3263 SWAP2 SWAP1 PUSH2 0x5605 JUMP JUMPDEST SWAP3 POP POP DUP2 SWAP1 SSTORE POP PUSH1 0x0 DUP3 PUSH1 0x2 ADD DUP2 SWAP1 SSTORE POP DUP12 DUP3 PUSH1 0x3 ADD DUP2 SWAP1 SSTORE POP PUSH1 0x40 MLOAD DUP1 PUSH1 0x40 ADD PUSH1 0x40 MSTORE DUP1 PUSH1 0xB DUP2 MSTORE PUSH1 0x20 ADD PUSH32 0x506F696E7420546F74616C000000000000000000000000000000000000000000 DUP2 MSTORE POP DUP3 PUSH1 0x4 ADD SWAP1 DUP1 MLOAD SWAP1 PUSH1 0x20 ADD SWAP1 PUSH2 0x32CA SWAP3 SWAP2 SWAP1 PUSH2 0x4786 JUMP JUMPDEST POP TIMESTAMP DUP3 PUSH1 0x5 ADD DUP2 SWAP1 SSTORE POP PUSH1 0x1 DUP3 PUSH1 0x6 ADD PUSH1 0x0 PUSH2 0x100 EXP DUP2 SLOAD DUP2 PUSH1 0xFF MUL NOT AND SWAP1 DUP4 ISZERO ISZERO MUL OR SWAP1 SSTORE POP POP POP POP POP POP POP POP POP POP POP POP POP POP JUMP JUMPDEST PUSH1 0x4 PUSH1 0x20 MSTORE DUP1 PUSH1 0x0 MSTORE PUSH1 0x40 PUSH1 0x0 KECCAK256 PUSH1 0x0 SWAP2 POP SWAP1 POP DUP1 PUSH1 0x0 ADD SLOAD SWAP1 DUP1 PUSH1 0x1 ADD SLOAD SWAP1 DUP1 PUSH1 0x3 ADD SLOAD SWAP1 DUP1 PUSH1 0x4 ADD SLOAD SWAP1 DUP1 PUSH1 0x7 ADD SLOAD SWAP1 POP DUP6 JUMP JUMPDEST PUSH32 0x0 PUSH20 0xFFFFFFFFFFFFFFFFFFFFFFFFFFFFFFFFFFFFFFFF AND CALLER PUSH20 0xFFFFFFFFFFFFFFFFFFFFFFFFFFFFFFFFFFFFFFFF AND EQ PUSH2 0x33C4 JUMPI PUSH1 0x40 MLOAD PUSH32 0x8C379A000000000000000000000000000000000000000000000000000000000 DUP2 MSTORE PUSH1 0x4 ADD PUSH2 0x33BB SWAP1 PUSH2 0x56A7 JUMP JUMPDEST PUSH1 0x40 MLOAD DUP1 SWAP2 SUB SWAP1 REVERT JUMPDEST PUSH1 0x0 JUMPDEST PUSH1 0x6 PUSH1 0x0 DUP5 DUP2 MSTORE PUSH1 0x20 ADD SWAP1 DUP2 MSTORE PUSH1 0x20 ADD PUSH1 0x0 KECCAK256 PUSH1 0x5 ADD DUP1 SLOAD SWAP1 POP DUP2 LT ISZERO PUSH2 0x38F6 JUMPI PUSH1 0x0 PUSH1 0x6 PUSH1 0x0 DUP6 DUP2 MSTORE PUSH1 0x20 ADD SWAP1 DUP2 MSTORE PUSH1 0x20 ADD PUSH1 0x0 KECCAK256 PUSH1 0x5 ADD DUP3 DUP2 SLOAD DUP2 LT PUSH2 0x3412 JUMPI PUSH2 0x3411 PUSH2 0x5468 JUMP JUMPDEST JUMPDEST SWAP1 PUSH1 0x0 MSTORE PUSH1 0x20 PUSH1 0x0 KECCAK256 ADD PUSH1 0x0 SWAP1 SLOAD SWAP1 PUSH2 0x100 EXP SWAP1 DIV PUSH20 0xFFFFFFFFFFFFFFFFFFFFFFFFFFFFFFFFFFFFFFFF AND SWAP1 POP PUSH1 0x0 PUSH1 0x6 PUSH1 0x0 DUP7 DUP2 MSTORE PUSH1 0x20 ADD SWAP1 DUP2 MSTORE PUSH1 0x20 ADD PUSH1 0x0 KECCAK256 PUSH1 0x6 ADD PUSH1 0x0 DUP4 PUSH20 0xFFFFFFFFFFFFFFFFFFFFFFFFFFFFFFFFFFFFFFFF AND PUSH20 0xFFFFFFFFFFFFFFFFFFFFFFFFFFFFFFFFFFFFFFFF AND DUP2 MSTORE PUSH1 0x20 ADD SWAP1 DUP2 MSTORE PUSH1 0x20 ADD PUSH1 0x0 KECCAK256 PUSH1 0x1 ADD SLOAD SWAP1 POP PUSH1 0x6 PUSH1 0x0 DUP7 DUP2 MSTORE PUSH1 0x20 ADD SWAP1 DUP2 MSTORE PUSH1 0x20 ADD PUSH1 0x0 KECCAK256 PUSH1 0x0 ADD PUSH1 0x0 DUP4 PUSH20 0xFFFFFFFFFFFFFFFFFFFFFFFFFFFFFFFFFFFFFFFF AND PUSH20 0xFFFFFFFFFFFFFFFFFFFFFFFFFFFFFFFFFFFFFFFF AND DUP2 MSTORE PUSH1 0x20 ADD SWAP1 DUP2 MSTORE PUSH1 0x20 ADD PUSH1 0x0 KECCAK256 SLOAD DUP5 GT ISZERO PUSH2 0x356D JUMPI DUP2 PUSH20 0xFFFFFFFFFFFFFFFFFFFFFFFFFFFFFFFFFFFFFFFF AND PUSH2 0x8FC DUP3 PUSH1 0x6 PUSH1 0x0 DUP10 DUP2 MSTORE PUSH1 0x20 ADD SWAP1 DUP2 MSTORE PUSH1 0x20 ADD PUSH1 0x0 KECCAK256 PUSH1 0x2 ADD SLOAD DUP5 PUSH2 0x3532 SWAP2 SWAP1 PUSH2 0x55D4 JUMP JUMPDEST PUSH2 0x353C SWAP2 SWAP1 PUSH2 0x554B JUMP JUMPDEST SWAP1 DUP2 ISZERO MUL SWAP1 PUSH1 0x40 MLOAD PUSH1 0x0 PUSH1 0x40 MLOAD DUP1 DUP4 SUB DUP2 DUP6 DUP9 DUP9 CALL SWAP4 POP POP POP POP ISZERO DUP1 ISZERO PUSH2 0x3567 JUMPI RETURNDATASIZE PUSH1 0x0 DUP1 RETURNDATACOPY RETURNDATASIZE PUSH1 0x0 REVERT JUMPDEST POP PUSH2 0x3610 JUMP JUMPDEST PUSH1 0x6 PUSH1 0x0 DUP7 DUP2 MSTORE PUSH1 0x20 ADD SWAP1 DUP2 MSTORE PUSH1 0x20 ADD PUSH1 0x0 KECCAK256 PUSH1 0x0 ADD PUSH1 0x0 DUP4 PUSH20 0xFFFFFFFFFFFFFFFFFFFFFFFFFFFFFFFFFFFFFFFF AND PUSH20 0xFFFFFFFFFFFFFFFFFFFFFFFFFFFFFFFFFFFFFFFF AND DUP2 MSTORE PUSH1 0x20 ADD SWAP1 DUP2 MSTORE PUSH1 0x20 ADD PUSH1 0x0 KECCAK256 SLOAD DUP5 SUB PUSH2 0x360F JUMPI DUP2 PUSH20 0xFFFFFFFFFFFFFFFFFFFFFFFFFFFFFFFFFFFFFFFF AND PUSH2 0x8FC DUP3 SWAP1 DUP2 ISZERO MUL SWAP1 PUSH1 0x40 MLOAD PUSH1 0x0 PUSH1 0x40 MLOAD DUP1 DUP4 SUB DUP2 DUP6 DUP9 DUP9 CALL SWAP4 POP POP POP POP ISZERO DUP1 ISZERO PUSH2 0x360D JUMPI RETURNDATASIZE PUSH1 0x0 DUP1 RETURNDATACOPY RETURNDATASIZE PUSH1 0x0 REVERT JUMPDEST POP JUMPDEST JUMPDEST DUP1 PUSH1 0x1 PUSH1 0x0 DUP5 PUSH20 0xFFFFFFFFFFFFFFFFFFFFFFFFFFFFFFFFFFFFFFFF AND PUSH20 0xFFFFFFFFFFFFFFFFFFFFFFFFFFFFFFFFFFFFFFFF AND DUP2 MSTORE PUSH1 0x20 ADD SWAP1 DUP2 MSTORE PUSH1 0x20 ADD PUSH1 0x0 KECCAK256 PUSH1 0x0 ADD PUSH1 0x0 DUP3 DUP3 SLOAD PUSH2 0x3662 SWAP2 SWAP1 PUSH2 0x56C7 JUMP JUMPDEST SWAP3 POP POP DUP2 SWAP1 SSTORE POP PUSH1 0x0 JUMPDEST PUSH1 0x1 PUSH1 0x0 DUP5 PUSH20 0xFFFFFFFFFFFFFFFFFFFFFFFFFFFFFFFFFFFFFFFF AND PUSH20 0xFFFFFFFFFFFFFFFFFFFFFFFFFFFFFFFFFFFFFFFF AND DUP2 MSTORE PUSH1 0x20 ADD SWAP1 DUP2 MSTORE PUSH1 0x20 ADD PUSH1 0x0 KECCAK256 PUSH1 0x1 ADD DUP1 SLOAD SWAP1 POP DUP2 LT ISZERO PUSH2 0x38E0 JUMPI PUSH1 0x0 PUSH1 0x1 PUSH1 0x0 DUP6 PUSH20 0xFFFFFFFFFFFFFFFFFFFFFFFFFFFFFFFFFFFFFFFF AND PUSH20 0xFFFFFFFFFFFFFFFFFFFFFFFFFFFFFFFFFFFFFFFF AND DUP2 MSTORE PUSH1 0x20 ADD SWAP1 DUP2 MSTORE PUSH1 0x20 ADD PUSH1 0x0 KECCAK256 PUSH1 0x1 ADD DUP3 DUP2 SLOAD DUP2 LT PUSH2 0x370F JUMPI PUSH2 0x370E PUSH2 0x5468 JUMP JUMPDEST JUMPDEST SWAP1 PUSH1 0x0 MSTORE PUSH1 0x20 PUSH1 0x0 KECCAK256 SWAP1 PUSH1 0x7 MUL ADD PUSH1 0x40 MLOAD DUP1 PUSH1 0xE0 ADD PUSH1 0x40 MSTORE SWAP1 DUP2 PUSH1 0x0 DUP3 ADD PUSH1 0x0 SWAP1 SLOAD SWAP1 PUSH2 0x100 EXP SWAP1 DIV PUSH20 0xFFFFFFFFFFFFFFFFFFFFFFFFFFFFFFFFFFFFFFFF AND PUSH20 0xFFFFFFFFFFFFFFFFFFFFFFFFFFFFFFFFFFFFFFFF AND PUSH20 0xFFFFFFFFFFFFFFFFFFFFFFFFFFFFFFFFFFFFFFFF AND DUP2 MSTORE PUSH1 0x20 ADD PUSH1 0x1 DUP3 ADD SLOAD DUP2 MSTORE PUSH1 0x20 ADD PUSH1 0x2 DUP3 ADD SLOAD DUP2 MSTORE PUSH1 0x20 ADD PUSH1 0x3 DUP3 ADD SLOAD DUP2 MSTORE PUSH1 0x20 ADD PUSH1 0x4 DUP3 ADD DUP1 SLOAD PUSH2 0x37AC SWAP1 PUSH2 0x572A JUMP JUMPDEST DUP1 PUSH1 0x1F ADD PUSH1 0x20 DUP1 SWAP2 DIV MUL PUSH1 0x20 ADD PUSH1 0x40 MLOAD SWAP1 DUP2 ADD PUSH1 0x40 MSTORE DUP1 SWAP3 SWAP2 SWAP1 DUP2 DUP2 MSTORE PUSH1 0x20 ADD DUP3 DUP1 SLOAD PUSH2 0x37D8 SWAP1 PUSH2 0x572A JUMP JUMPDEST DUP1 ISZERO PUSH2 0x3825 JUMPI DUP1 PUSH1 0x1F LT PUSH2 0x37FA JUMPI PUSH2 0x100 DUP1 DUP4 SLOAD DIV MUL DUP4 MSTORE SWAP2 PUSH1 0x20 ADD SWAP2 PUSH2 0x3825 JUMP JUMPDEST DUP3 ADD SWAP2 SWAP1 PUSH1 0x0 MSTORE PUSH1 0x20 PUSH1 0x0 KECCAK256 SWAP1 JUMPDEST DUP2 SLOAD DUP2 MSTORE SWAP1 PUSH1 0x1 ADD SWAP1 PUSH1 0x20 ADD DUP1 DUP4 GT PUSH2 0x3808 JUMPI DUP3 SWAP1 SUB PUSH1 0x1F AND DUP3 ADD SWAP2 JUMPDEST POP POP POP POP POP DUP2 MSTORE PUSH1 0x20 ADD PUSH1 0x5 DUP3 ADD SLOAD DUP2 MSTORE PUSH1 0x20 ADD PUSH1 0x6 DUP3 ADD PUSH1 0x0 SWAP1 SLOAD SWAP1 PUSH2 0x100 EXP SWAP1 DIV PUSH1 0xFF AND ISZERO ISZERO ISZERO ISZERO DUP2 MSTORE POP POP SWAP1 POP DUP7 DUP2 PUSH1 0x60 ADD MLOAD EQ DUP1 ISZERO PUSH2 0x38B5 JUMPI POP PUSH1 0x40 MLOAD PUSH1 0x20 ADD PUSH2 0x3872 SWAP1 PUSH2 0x59D4 JUMP JUMPDEST PUSH1 0x40 MLOAD PUSH1 0x20 DUP2 DUP4 SUB SUB DUP2 MSTORE SWAP1 PUSH1 0x40 MSTORE DUP1 MLOAD SWAP1 PUSH1 0x20 ADD KECCAK256 DUP2 PUSH1 0x80 ADD MLOAD PUSH1 0x40 MLOAD PUSH1 0x20 ADD PUSH2 0x389D SWAP2 SWAP1 PUSH2 0x57F8 JUMP JUMPDEST PUSH1 0x40 MLOAD PUSH1 0x20 DUP2 DUP4 SUB SUB DUP2 MSTORE SWAP1 PUSH1 0x40 MSTORE DUP1 MLOAD SWAP1 PUSH1 0x20 ADD KECCAK256 EQ JUMPDEST ISZERO PUSH2 0x38CC JUMPI PUSH1 0x0 DUP2 PUSH1 0xC0 ADD SWAP1 ISZERO ISZERO SWAP1 DUP2 ISZERO ISZERO DUP2 MSTORE POP POP JUMPDEST POP DUP1 DUP1 PUSH2 0x38D8 SWAP1 PUSH2 0x580F JUMP JUMPDEST SWAP2 POP POP PUSH2 0x366C JUMP JUMPDEST POP POP POP DUP1 DUP1 PUSH2 0x38EE SWAP1 PUSH2 0x580F JUMP JUMPDEST SWAP2 POP POP PUSH2 0x33C7 JUMP JUMPDEST POP POP POP JUMP JUMPDEST PUSH2 0x3903 PUSH2 0x480C JUMP JUMPDEST PUSH1 0x6 PUSH1 0x0 DUP4 DUP2 MSTORE PUSH1 0x20 ADD SWAP1 DUP2 MSTORE PUSH1 0x20 ADD PUSH1 0x0 KECCAK256 PUSH1 0x6 ADD PUSH1 0x0 CALLER PUSH20 0xFFFFFFFFFFFFFFFFFFFFFFFFFFFFFFFFFFFFFFFF AND PUSH20 0xFFFFFFFFFFFFFFFFFFFFFFFFFFFFFFFFFFFFFFFF AND DUP2 MSTORE PUSH1 0x20 ADD SWAP1 DUP2 MSTORE PUSH1 0x20 ADD PUSH1 0x0 KECCAK256 PUSH1 0x40 MLOAD DUP1 PUSH1 0xE0 ADD PUSH1 0x40 MSTORE SWAP1 DUP2 PUSH1 0x0 DUP3 ADD PUSH1 0x0 SWAP1 SLOAD SWAP1 PUSH2 0x100 EXP SWAP1 DIV PUSH20 0xFFFFFFFFFFFFFFFFFFFFFFFFFFFFFFFFFFFFFFFF AND PUSH20 0xFFFFFFFFFFFFFFFFFFFFFFFFFFFFFFFFFFFFFFFF AND PUSH20 0xFFFFFFFFFFFFFFFFFFFFFFFFFFFFFFFFFFFFFFFF AND DUP2 MSTORE PUSH1 0x20 ADD PUSH1 0x1 DUP3 ADD SLOAD DUP2 MSTORE PUSH1 0x20 ADD PUSH1 0x2 DUP3 ADD SLOAD DUP2 MSTORE PUSH1 0x20 ADD PUSH1 0x3 DUP3 ADD SLOAD DUP2 MSTORE PUSH1 0x20 ADD PUSH1 0x4 DUP3 ADD DUP1 SLOAD PUSH2 0x39E5 SWAP1 PUSH2 0x572A JUMP JUMPDEST DUP1 PUSH1 0x1F ADD PUSH1 0x20 DUP1 SWAP2 DIV MUL PUSH1 0x20 ADD PUSH1 0x40 MLOAD SWAP1 DUP2 ADD PUSH1 0x40 MSTORE DUP1 SWAP3 SWAP2 SWAP1 DUP2 DUP2 MSTORE PUSH1 0x20 ADD DUP3 DUP1 SLOAD PUSH2 0x3A11 SWAP1 PUSH2 0x572A JUMP JUMPDEST DUP1 ISZERO PUSH2 0x3A5E JUMPI DUP1 PUSH1 0x1F LT PUSH2 0x3A33 JUMPI PUSH2 0x100 DUP1 DUP4 SLOAD DIV MUL DUP4 MSTORE SWAP2 PUSH1 0x20 ADD SWAP2 PUSH2 0x3A5E JUMP JUMPDEST DUP3 ADD SWAP2 SWAP1 PUSH1 0x0 MSTORE PUSH1 0x20 PUSH1 0x0 KECCAK256 SWAP1 JUMPDEST DUP2 SLOAD DUP2 MSTORE SWAP1 PUSH1 0x1 ADD SWAP1 PUSH1 0x20 ADD DUP1 DUP4 GT PUSH2 0x3A41 JUMPI DUP3 SWAP1 SUB PUSH1 0x1F AND DUP3 ADD SWAP2 JUMPDEST POP POP POP POP POP DUP2 MSTORE PUSH1 0x20 ADD PUSH1 0x5 DUP3 ADD SLOAD DUP2 MSTORE PUSH1 0x20 ADD PUSH1 0x6 DUP3 ADD PUSH1 0x0 SWAP1 SLOAD SWAP1 PUSH2 0x100 EXP SWAP1 DIV PUSH1 0xFF AND ISZERO ISZERO ISZERO ISZERO DUP2 MSTORE POP POP SWAP1 POP SWAP2 SWAP1 POP JUMP JUMPDEST PUSH1 0x1 PUSH1 0x20 MSTORE DUP1 PUSH1 0x0 MSTORE PUSH1 0x40 PUSH1 0x0 KECCAK256 PUSH1 0x0 SWAP2 POP SWAP1 POP DUP1 PUSH1 0x0 ADD SLOAD SWAP1 POP DUP2 JUMP JUMPDEST PUSH2 0x3AB9 PUSH2 0x480C JUMP JUMPDEST PUSH1 0x4 PUSH1 0x0 DUP5 DUP2 MSTORE PUSH1 0x20 ADD SWAP1 DUP2 MSTORE PUSH1 0x20 ADD PUSH1 0x0 KECCAK256 PUSH1 0x6 ADD PUSH1 0x0 DUP4 DUP2 MSTORE PUSH1 0x20 ADD SWAP1 DUP2 MSTORE PUSH1 0x20 ADD PUSH1 0x0 KECCAK256 PUSH1 0x0 CALLER PUSH20 0xFFFFFFFFFFFFFFFFFFFFFFFFFFFFFFFFFFFFFFFF AND PUSH20 0xFFFFFFFFFFFFFFFFFFFFFFFFFFFFFFFFFFFFFFFF AND DUP2 MSTORE PUSH1 0x20 ADD SWAP1 DUP2 MSTORE PUSH1 0x20 ADD PUSH1 0x0 KECCAK256 PUSH1 0x40 MLOAD DUP1 PUSH1 0xE0 ADD PUSH1 0x40 MSTORE SWAP1 DUP2 PUSH1 0x0 DUP3 ADD PUSH1 0x0 SWAP1 SLOAD SWAP1 PUSH2 0x100 EXP SWAP1 DIV PUSH20 0xFFFFFFFFFFFFFFFFFFFFFFFFFFFFFFFFFFFFFFFF AND PUSH20 0xFFFFFFFFFFFFFFFFFFFFFFFFFFFFFFFFFFFFFFFF AND PUSH20 0xFFFFFFFFFFFFFFFFFFFFFFFFFFFFFFFFFFFFFFFF AND DUP2 MSTORE PUSH1 0x20 ADD PUSH1 0x1 DUP3 ADD SLOAD DUP2 MSTORE PUSH1 0x20 ADD PUSH1 0x2 DUP3 ADD SLOAD DUP2 MSTORE PUSH1 0x20 ADD PUSH1 0x3 DUP3 ADD SLOAD DUP2 MSTORE PUSH1 0x20 ADD PUSH1 0x4 DUP3 ADD DUP1 SLOAD PUSH2 0x3BAC SWAP1 PUSH2 0x572A JUMP JUMPDEST DUP1 PUSH1 0x1F ADD PUSH1 0x20 DUP1 SWAP2 DIV MUL PUSH1 0x20 ADD PUSH1 0x40 MLOAD SWAP1 DUP2 ADD PUSH1 0x40 MSTORE DUP1 SWAP3 SWAP2 SWAP1 DUP2 DUP2 MSTORE PUSH1 0x20 ADD DUP3 DUP1 SLOAD PUSH2 0x3BD8 SWAP1 PUSH2 0x572A JUMP JUMPDEST DUP1 ISZERO PUSH2 0x3C25 JUMPI DUP1 PUSH1 0x1F LT PUSH2 0x3BFA JUMPI PUSH2 0x100 DUP1 DUP4 SLOAD DIV MUL DUP4 MSTORE SWAP2 PUSH1 0x20 ADD SWAP2 PUSH2 0x3C25 JUMP JUMPDEST DUP3 ADD SWAP2 SWAP1 PUSH1 0x0 MSTORE PUSH1 0x20 PUSH1 0x0 KECCAK256 SWAP1 JUMPDEST DUP2 SLOAD DUP2 MSTORE SWAP1 PUSH1 0x1 ADD SWAP1 PUSH1 0x20 ADD DUP1 DUP4 GT PUSH2 0x3C08 JUMPI DUP3 SWAP1 SUB PUSH1 0x1F AND DUP3 ADD SWAP2 JUMPDEST POP POP POP POP POP DUP2 MSTORE PUSH1 0x20 ADD PUSH1 0x5 DUP3 ADD SLOAD DUP2 MSTORE PUSH1 0x20 ADD PUSH1 0x6 DUP3 ADD PUSH1 0x0 SWAP1 SLOAD SWAP1 PUSH2 0x100 EXP SWAP1 DIV PUSH1 0xFF AND ISZERO ISZERO ISZERO ISZERO DUP2 MSTORE POP POP SWAP1 POP SWAP3 SWAP2 POP POP JUMP JUMPDEST PUSH1 0x6 PUSH1 0x20 MSTORE DUP1 PUSH1 0x0 MSTORE PUSH1 0x40 PUSH1 0x0 KECCAK256 PUSH1 0x0 SWAP2 POP SWAP1 POP DUP1 PUSH1 0x1 ADD SLOAD SWAP1 DUP1 PUSH1 0x2 ADD SLOAD SWAP1 DUP1 PUSH1 0x3 ADD SLOAD SWAP1 DUP1 PUSH1 0x4 ADD SLOAD SWAP1 DUP1 PUSH1 0x7 ADD SLOAD SWAP1 POP DUP6 JUMP JUMPDEST DUP3 DUP5 SUB PUSH2 0x3C9D JUMPI PUSH1 0x0 DUP1 REVERT JUMPDEST DUP7 PUSH20 0xFFFFFFFFFFFFFFFFFFFFFFFFFFFFFFFFFFFFFFFF AND CALLER PUSH20 0xFFFFFFFFFFFFFFFFFFFFFFFFFFFFFFFFFFFFFFFF AND EQ PUSH2 0x3D0B JUMPI PUSH1 0x40 MLOAD PUSH32 0x8C379A000000000000000000000000000000000000000000000000000000000 DUP2 MSTORE PUSH1 0x4 ADD PUSH2 0x3D02 SWAP1 PUSH2 0x534A JUMP JUMPDEST PUSH1 0x40 MLOAD DUP1 SWAP2 SUB SWAP1 REVERT JUMPDEST PUSH1 0x0 CALLVALUE GT PUSH2 0x3D4E JUMPI PUSH1 0x40 MLOAD PUSH32 0x8C379A000000000000000000000000000000000000000000000000000000000 DUP2 MSTORE PUSH1 0x4 ADD PUSH2 0x3D45 SWAP1 PUSH2 0x53B6 JUMP JUMPDEST PUSH1 0x40 MLOAD DUP1 SWAP2 SUB SWAP1 REVERT JUMPDEST DUP4 DUP6 EQ DUP1 PUSH2 0x3D5B JUMPI POP DUP3 DUP6 EQ JUMPDEST PUSH2 0x3D9A JUMPI PUSH1 0x40 MLOAD PUSH32 0x8C379A000000000000000000000000000000000000000000000000000000000 DUP2 MSTORE PUSH1 0x4 ADD PUSH2 0x3D91 SWAP1 PUSH2 0x5448 JUMP JUMPDEST PUSH1 0x40 MLOAD DUP1 SWAP2 SUB SWAP1 REVERT JUMPDEST PUSH1 0x0 DUP1 NOT AND PUSH1 0x4 PUSH1 0x0 DUP9 DUP2 MSTORE PUSH1 0x20 ADD SWAP1 DUP2 MSTORE PUSH1 0x20 ADD PUSH1 0x0 KECCAK256 PUSH1 0x7 ADD SLOAD SUB PUSH2 0x3FB4 JUMPI PUSH1 0x0 PUSH1 0x40 MLOAD DUP1 PUSH1 0x40 ADD PUSH1 0x40 MSTORE DUP1 PUSH1 0x2 PUSH8 0xFFFFFFFFFFFFFFFF DUP2 GT ISZERO PUSH2 0x3DE3 JUMPI PUSH2 0x3DE2 PUSH2 0x4977 JUMP JUMPDEST JUMPDEST PUSH1 0x40 MLOAD SWAP1 DUP1 DUP3 MSTORE DUP1 PUSH1 0x20 MUL PUSH1 0x20 ADD DUP3 ADD PUSH1 0x40 MSTORE DUP1 ISZERO PUSH2 0x3E11 JUMPI DUP2 PUSH1 0x20 ADD PUSH1 0x20 DUP3 MUL DUP1 CALLDATASIZE DUP4 CALLDATACOPY DUP1 DUP3 ADD SWAP2 POP POP SWAP1 POP JUMPDEST POP DUP2 MSTORE PUSH1 0x20 ADD PUSH1 0x2 PUSH8 0xFFFFFFFFFFFFFFFF DUP2 GT ISZERO PUSH2 0x3E32 JUMPI PUSH2 0x3E31 PUSH2 0x4977 JUMP JUMPDEST JUMPDEST PUSH1 0x40 MLOAD SWAP1 DUP1 DUP3 MSTORE DUP1 PUSH1 0x20 MUL PUSH1 0x20 ADD DUP3 ADD PUSH1 0x40 MSTORE DUP1 ISZERO PUSH2 0x3E65 JUMPI DUP2 PUSH1 0x20 ADD JUMPDEST PUSH1 0x60 DUP2 MSTORE PUSH1 0x20 ADD SWAP1 PUSH1 0x1 SWAP1 SUB SWAP1 DUP2 PUSH2 0x3E50 JUMPI SWAP1 POP JUMPDEST POP DUP2 MSTORE POP SWAP1 POP PUSH1 0x2 DUP2 PUSH1 0x0 ADD MLOAD PUSH1 0x0 DUP2 MLOAD DUP2 LT PUSH2 0x3E85 JUMPI PUSH2 0x3E84 PUSH2 0x5468 JUMP JUMPDEST JUMPDEST PUSH1 0x20 MUL PUSH1 0x20 ADD ADD SWAP1 PUSH1 0x4 DUP2 GT ISZERO PUSH2 0x3E9F JUMPI PUSH2 0x3E9E PUSH2 0x5497 JUMP JUMPDEST JUMPDEST SWAP1 DUP2 PUSH1 0x4 DUP2 GT ISZERO PUSH2 0x3EB3 JUMPI PUSH2 0x3EB2 PUSH2 0x5497 JUMP JUMPDEST JUMPDEST DUP2 MSTORE POP POP PUSH1 0x4 DUP2 PUSH1 0x0 ADD MLOAD PUSH1 0x1 DUP2 MLOAD DUP2 LT PUSH2 0x3ED1 JUMPI PUSH2 0x3ED0 PUSH2 0x5468 JUMP JUMPDEST JUMPDEST PUSH1 0x20 MUL PUSH1 0x20 ADD ADD SWAP1 PUSH1 0x4 DUP2 GT ISZERO PUSH2 0x3EEB JUMPI PUSH2 0x3EEA PUSH2 0x5497 JUMP JUMPDEST JUMPDEST SWAP1 DUP2 PUSH1 0x4 DUP2 GT ISZERO PUSH2 0x3EFF JUMPI PUSH2 0x3EFE PUSH2 0x5497 JUMP JUMPDEST JUMPDEST DUP2 MSTORE POP POP PUSH2 0x3F0B PUSH2 0x4666 JUMP JUMPDEST DUP2 PUSH1 0x20 ADD MLOAD PUSH1 0x0 DUP2 MLOAD DUP2 LT PUSH2 0x3F23 JUMPI PUSH2 0x3F22 PUSH2 0x5468 JUMP JUMPDEST JUMPDEST PUSH1 0x20 MUL PUSH1 0x20 ADD ADD DUP2 SWAP1 MSTORE POP PUSH2 0x3F42 DUP3 PUSH2 0x3F3D ADDRESS DUP11 DUP8 PUSH2 0x467D JUMP JUMPDEST PUSH2 0x46AC JUMP JUMPDEST DUP2 PUSH1 0x20 ADD MLOAD PUSH1 0x1 DUP2 MLOAD DUP2 LT PUSH2 0x3F5A JUMPI PUSH2 0x3F59 PUSH2 0x5468 JUMP JUMPDEST JUMPDEST PUSH1 0x20 MUL PUSH1 0x20 ADD ADD DUP2 SWAP1 MSTORE POP PUSH2 0x3F98 ADDRESS PUSH4 0x3BFEB20 PUSH1 0xE0 SHL PUSH1 0x40 MLOAD PUSH1 0x20 ADD PUSH2 0x3F81 SWAP2 SWAP1 PUSH2 0x5501 JUMP JUMPDEST PUSH1 0x40 MLOAD PUSH1 0x20 DUP2 DUP4 SUB SUB DUP2 MSTORE SWAP1 PUSH1 0x40 MSTORE DUP4 PUSH1 0x0 PUSH2 0x46D8 JUMP JUMPDEST PUSH1 0x4 PUSH1 0x0 DUP10 DUP2 MSTORE PUSH1 0x20 ADD SWAP1 DUP2 MSTORE PUSH1 0x20 ADD PUSH1 0x0 KECCAK256 PUSH1 0x7 ADD DUP2 SWAP1 SSTORE POP POP JUMPDEST PUSH1 0x0 PUSH1 0x64 PUSH1 0x5 CALLVALUE PUSH2 0x3FC5 SWAP2 SWAP1 PUSH2 0x554B JUMP JUMPDEST PUSH2 0x3FCF SWAP2 SWAP1 PUSH2 0x55D4 JUMP JUMPDEST SWAP1 POP PUSH1 0x0 PUSH1 0x64 PUSH1 0x5F CALLVALUE PUSH2 0x3FE2 SWAP2 SWAP1 PUSH2 0x554B JUMP JUMPDEST PUSH2 0x3FEC SWAP2 SWAP1 PUSH2 0x55D4 JUMP JUMPDEST SWAP1 POP PUSH1 0x0 PUSH1 0x4 PUSH1 0x0 DUP11 DUP2 MSTORE PUSH1 0x20 ADD SWAP1 DUP2 MSTORE PUSH1 0x20 ADD PUSH1 0x0 KECCAK256 SWAP1 POP PUSH1 0x0 PUSH1 0x1 PUSH1 0x0 CALLER PUSH20 0xFFFFFFFFFFFFFFFFFFFFFFFFFFFFFFFFFFFFFFFF AND PUSH20 0xFFFFFFFFFFFFFFFFFFFFFFFFFFFFFFFFFFFFFFFF AND DUP2 MSTORE PUSH1 0x20 ADD SWAP1 DUP2 MSTORE PUSH1 0x20 ADD PUSH1 0x0 KECCAK256 PUSH1 0x1 ADD SWAP1 POP PUSH1 0x0 DUP3 PUSH1 0x6 ADD PUSH1 0x0 DUP12 DUP2 MSTORE PUSH1 0x20 ADD SWAP1 DUP2 MSTORE PUSH1 0x20 ADD PUSH1 0x0 KECCAK256 PUSH1 0x0 CALLER PUSH20 0xFFFFFFFFFFFFFFFFFFFFFFFFFFFFFFFFFFFFFFFF AND PUSH20 0xFFFFFFFFFFFFFFFFFFFFFFFFFFFFFFFFFFFFFFFF AND DUP2 MSTORE PUSH1 0x20 ADD SWAP1 DUP2 MSTORE PUSH1 0x20 ADD PUSH1 0x0 KECCAK256 SWAP1 POP PUSH1 0x0 DUP4 PUSH1 0x5 ADD PUSH1 0x0 DUP13 DUP2 MSTORE PUSH1 0x20 ADD SWAP1 DUP2 MSTORE PUSH1 0x20 ADD PUSH1 0x0 KECCAK256 SWAP1 POP PUSH1 0x0 DUP1 SLOAD SWAP1 PUSH2 0x100 EXP SWAP1 DIV PUSH20 0xFFFFFFFFFFFFFFFFFFFFFFFFFFFFFFFFFFFFFFFF AND PUSH20 0xFFFFFFFFFFFFFFFFFFFFFFFFFFFFFFFFFFFFFFFF AND PUSH2 0x8FC DUP8 SWAP1 DUP2 ISZERO MUL SWAP1 PUSH1 0x40 MLOAD PUSH1 0x0 PUSH1 0x40 MLOAD DUP1 DUP4 SUB DUP2 DUP6 DUP9 DUP9 CALL SWAP4 POP POP POP POP ISZERO DUP1 ISZERO PUSH2 0x4120 JUMPI RETURNDATASIZE PUSH1 0x0 DUP1 RETURNDATACOPY RETURNDATASIZE PUSH1 0x0 REVERT JUMPDEST POP DUP5 PUSH1 0x1 PUSH1 0x0 CALLER PUSH20 0xFFFFFFFFFFFFFFFFFFFFFFFFFFFFFFFFFFFFFFFF AND PUSH20 0xFFFFFFFFFFFFFFFFFFFFFFFFFFFFFFFFFFFFFFFF AND DUP2 MSTORE PUSH1 0x20 ADD SWAP1 DUP2 MSTORE PUSH1 0x20 ADD PUSH1 0x0 KECCAK256 PUSH1 0x0 ADD PUSH1 0x0 DUP3 DUP3 SLOAD PUSH2 0x4173 SWAP2 SWAP1 PUSH2 0x5605 JUMP JUMPDEST SWAP3 POP POP DUP2 SWAP1 SSTORE POP DUP3 PUSH1 0x40 MLOAD DUP1 PUSH1 0xE0 ADD PUSH1 0x40 MSTORE DUP1 CALLER PUSH20 0xFFFFFFFFFFFFFFFFFFFFFFFFFFFFFFFFFFFFFFFF AND DUP2 MSTORE PUSH1 0x20 ADD DUP8 DUP2 MSTORE PUSH1 0x20 ADD DUP14 DUP2 MSTORE PUSH1 0x20 ADD DUP15 DUP2 MSTORE PUSH1 0x20 ADD PUSH1 0x40 MLOAD DUP1 PUSH1 0x40 ADD PUSH1 0x40 MSTORE DUP1 PUSH1 0xA DUP2 MSTORE PUSH1 0x20 ADD PUSH32 0x4D6F6E6579204C696E6500000000000000000000000000000000000000000000 DUP2 MSTORE POP DUP2 MSTORE PUSH1 0x20 ADD TIMESTAMP DUP2 MSTORE PUSH1 0x20 ADD PUSH1 0x1 ISZERO ISZERO DUP2 MSTORE POP SWAP1 DUP1 PUSH1 0x1 DUP2 SLOAD ADD DUP1 DUP3 SSTORE DUP1 SWAP2 POP POP PUSH1 0x1 SWAP1 SUB SWAP1 PUSH1 0x0 MSTORE PUSH1 0x20 PUSH1 0x0 KECCAK256 SWAP1 PUSH1 0x7 MUL ADD PUSH1 0x0 SWAP1 SWAP2 SWAP1 SWAP2 SWAP1 SWAP2 POP PUSH1 0x0 DUP3 ADD MLOAD DUP2 PUSH1 0x0 ADD PUSH1 0x0 PUSH2 0x100 EXP DUP2 SLOAD DUP2 PUSH20 0xFFFFFFFFFFFFFFFFFFFFFFFFFFFFFFFFFFFFFFFF MUL NOT AND SWAP1 DUP4 PUSH20 0xFFFFFFFFFFFFFFFFFFFFFFFFFFFFFFFFFFFFFFFF AND MUL OR SWAP1 SSTORE POP PUSH1 0x20 DUP3 ADD MLOAD DUP2 PUSH1 0x1 ADD SSTORE PUSH1 0x40 DUP3 ADD MLOAD DUP2 PUSH1 0x2 ADD SSTORE PUSH1 0x60 DUP3 ADD MLOAD DUP2 PUSH1 0x3 ADD SSTORE PUSH1 0x80 DUP3 ADD MLOAD DUP2 PUSH1 0x4 ADD SWAP1 DUP1 MLOAD SWAP1 PUSH1 0x20 ADD SWAP1 PUSH2 0x42A6 SWAP3 SWAP2 SWAP1 PUSH2 0x4786 JUMP JUMPDEST POP PUSH1 0xA0 DUP3 ADD MLOAD DUP2 PUSH1 0x5 ADD SSTORE PUSH1 0xC0 DUP3 ADD MLOAD DUP2 PUSH1 0x6 ADD PUSH1 0x0 PUSH2 0x100 EXP DUP2 SLOAD DUP2 PUSH1 0xFF MUL NOT AND SWAP1 DUP4 ISZERO ISZERO MUL OR SWAP1 SSTORE POP POP POP CALLVALUE PUSH1 0x2 PUSH1 0x0 DUP15 DUP2 MSTORE PUSH1 0x20 ADD SWAP1 DUP2 MSTORE PUSH1 0x20 ADD PUSH1 0x0 KECCAK256 PUSH1 0x0 DUP3 DUP3 SLOAD PUSH2 0x42F6 SWAP2 SWAP1 PUSH2 0x5605 JUMP JUMPDEST SWAP3 POP POP DUP2 SWAP1 SSTORE POP CALLVALUE PUSH1 0x3 PUSH1 0x0 DUP15 DUP2 MSTORE PUSH1 0x20 ADD SWAP1 DUP2 MSTORE PUSH1 0x20 ADD PUSH1 0x0 KECCAK256 PUSH1 0x0 DUP14 DUP2 MSTORE PUSH1 0x20 ADD SWAP1 DUP2 MSTORE PUSH1 0x20 ADD PUSH1 0x0 KECCAK256 PUSH1 0x0 DUP3 DUP3 SLOAD PUSH2 0x4331 SWAP2 SWAP1 PUSH2 0x5605 JUMP JUMPDEST SWAP3 POP POP DUP2 SWAP1 SSTORE POP DUP5 DUP5 PUSH1 0x1 ADD PUSH1 0x0 DUP3 DUP3 SLOAD PUSH2 0x434C SWAP2 SWAP1 PUSH2 0x5605 JUMP JUMPDEST SWAP3 POP POP DUP2 SWAP1 SSTORE POP DUP5 DUP5 PUSH1 0x2 ADD PUSH1 0x0 DUP14 DUP2 MSTORE PUSH1 0x20 ADD SWAP1 DUP2 MSTORE PUSH1 0x20 ADD PUSH1 0x0 KECCAK256 PUSH1 0x0 DUP3 DUP3 SLOAD PUSH2 0x4378 SWAP2 SWAP1 PUSH2 0x5605 JUMP JUMPDEST SWAP3 POP POP DUP2 SWAP1 SSTORE POP DUP10 DUP5 PUSH1 0x3 ADD DUP2 SWAP1 SSTORE POP DUP9 DUP5 PUSH1 0x4 ADD DUP2 SWAP1 SSTORE POP DUP8 DUP5 PUSH1 0x0 ADD DUP2 SWAP1 SSTORE POP CALLER PUSH20 0xFFFFFFFFFFFFFFFFFFFFFFFFFFFFFFFFFFFFFFFF AND PUSH1 0x4 PUSH1 0x0 DUP15 DUP2 MSTORE PUSH1 0x20 ADD SWAP1 DUP2 MSTORE PUSH1 0x20 ADD PUSH1 0x0 KECCAK256 PUSH1 0x6 ADD PUSH1 0x0 DUP14 DUP2 MSTORE PUSH1 0x20 ADD SWAP1 DUP2 MSTORE PUSH1 0x20 ADD PUSH1 0x0 KECCAK256 PUSH1 0x0 CALLER PUSH20 0xFFFFFFFFFFFFFFFFFFFFFFFFFFFFFFFFFFFFFFFF AND PUSH20 0xFFFFFFFFFFFFFFFFFFFFFFFFFFFFFFFFFFFFFFFF AND DUP2 MSTORE PUSH1 0x20 ADD SWAP1 DUP2 MSTORE PUSH1 0x20 ADD PUSH1 0x0 KECCAK256 PUSH1 0x0 ADD PUSH1 0x0 SWAP1 SLOAD SWAP1 PUSH2 0x100 EXP SWAP1 DIV PUSH20 0xFFFFFFFFFFFFFFFFFFFFFFFFFFFFFFFFFFFFFFFF AND PUSH20 0xFFFFFFFFFFFFFFFFFFFFFFFFFFFFFFFFFFFFFFFF AND EQ PUSH2 0x44B7 JUMPI DUP1 CALLER SWAP1 DUP1 PUSH1 0x1 DUP2 SLOAD ADD DUP1 DUP3 SSTORE DUP1 SWAP2 POP POP PUSH1 0x1 SWAP1 SUB SWAP1 PUSH1 0x0 MSTORE PUSH1 0x20 PUSH1 0x0 KECCAK256 ADD PUSH1 0x0 SWAP1 SWAP2 SWAP1 SWAP2 SWAP1 SWAP2 PUSH2 0x100 EXP DUP2 SLOAD DUP2 PUSH20 0xFFFFFFFFFFFFFFFFFFFFFFFFFFFFFFFFFFFFFFFF MUL NOT AND SWAP1 DUP4 PUSH20 0xFFFFFFFFFFFFFFFFFFFFFFFFFFFFFFFFFFFFFFFF AND MUL OR SWAP1 SSTORE POP JUMPDEST CALLER DUP3 PUSH1 0x0 ADD PUSH1 0x0 PUSH2 0x100 EXP DUP2 SLOAD DUP2 PUSH20 0xFFFFFFFFFFFFFFFFFFFFFFFFFFFFFFFFFFFFFFFF MUL NOT AND SWAP1 DUP4 PUSH20 0xFFFFFFFFFFFFFFFFFFFFFFFFFFFFFFFFFFFFFFFF AND MUL OR SWAP1 SSTORE POP DUP5 DUP3 PUSH1 0x1 ADD PUSH1 0x0 DUP3 DUP3 SLOAD PUSH2 0x450E SWAP2 SWAP1 PUSH2 0x5605 JUMP JUMPDEST SWAP3 POP POP DUP2 SWAP1 SSTORE POP DUP11 DUP3 PUSH1 0x2 ADD DUP2 SWAP1 SSTORE POP DUP12 DUP3 PUSH1 0x3 ADD DUP2 SWAP1 SSTORE POP PUSH1 0x40 MLOAD DUP1 PUSH1 0x40 ADD PUSH1 0x40 MSTORE DUP1 PUSH1 0xA DUP2 MSTORE PUSH1 0x20 ADD PUSH32 0x4D6F6E6579204C696E6500000000000000000000000000000000000000000000 DUP2 MSTORE POP DUP3 PUSH1 0x4 ADD SWAP1 DUP1 MLOAD SWAP1 PUSH1 0x20 ADD SWAP1 PUSH2 0x4574 SWAP3 SWAP2 SWAP1 PUSH2 0x4786 JUMP JUMPDEST POP TIMESTAMP DUP3 PUSH1 0x5 ADD DUP2 SWAP1 SSTORE POP PUSH1 0x1 DUP3 PUSH1 0x6 ADD PUSH1 0x0 PUSH2 0x100 EXP DUP2 SLOAD DUP2 PUSH1 0xFF MUL NOT AND SWAP1 DUP4 ISZERO ISZERO MUL OR SWAP1 SSTORE POP POP POP POP POP POP POP POP POP POP POP POP POP POP JUMP JUMPDEST PUSH1 0x0 PUSH1 0x5 PUSH1 0x0 DUP5 DUP2 MSTORE PUSH1 0x20 ADD SWAP1 DUP2 MSTORE PUSH1 0x20 ADD PUSH1 0x0 KECCAK256 PUSH1 0x3 ADD PUSH1 0x0 DUP4 DUP2 MSTORE PUSH1 0x20 ADD SWAP1 DUP2 MSTORE PUSH1 0x20 ADD PUSH1 0x0 KECCAK256 SLOAD SWAP1 POP SWAP3 SWAP2 POP POP JUMP JUMPDEST PUSH1 0x0 DUP1 PUSH1 0x3 PUSH1 0x0 DUP6 DUP2 MSTORE PUSH1 0x20 ADD SWAP1 DUP2 MSTORE PUSH1 0x20 ADD PUSH1 0x0 KECCAK256 PUSH1 0x0 DUP5 DUP2 MSTORE PUSH1 0x20 ADD SWAP1 DUP2 MSTORE PUSH1 0x20 ADD PUSH1 0x0 KECCAK256 SLOAD SWAP1 POP PUSH1 0x0 PUSH1 0x2 PUSH1 0x0 DUP7 DUP2 MSTORE PUSH1 0x20 ADD SWAP1 DUP2 MSTORE PUSH1 0x20 ADD PUSH1 0x0 KECCAK256 SLOAD SWAP1 POP PUSH1 0x0 DUP2 PUSH1 0x64 DUP5 PUSH2 0x462E SWAP2 SWAP1 PUSH2 0x554B JUMP JUMPDEST PUSH2 0x4638 SWAP2 SWAP1 PUSH2 0x55D4 JUMP JUMPDEST SWAP1 POP DUP1 SWAP4 POP POP POP POP SWAP3 SWAP2 POP POP JUMP JUMPDEST PUSH1 0x0 PUSH1 0x6 PUSH1 0x0 DUP4 DUP2 MSTORE PUSH1 0x20 ADD SWAP1 DUP2 MSTORE PUSH1 0x20 ADD PUSH1 0x0 KECCAK256 PUSH1 0x2 ADD SLOAD SWAP1 POP SWAP2 SWAP1 POP JUMP JUMPDEST PUSH1 0x60 PUSH1 0x40 MLOAD DUP1 PUSH1 0x20 ADD PUSH1 0x40 MSTORE DUP1 PUSH1 0x0 DUP2 MSTORE POP SWAP1 POP SWAP1 JUMP JUMPDEST PUSH1 0x60 DUP4 DUP4 DUP4 PUSH1 0x40 MLOAD PUSH1 0x20 ADD PUSH2 0x4694 SWAP4 SWAP3 SWAP2 SWAP1 PUSH2 0x59E9 JUMP JUMPDEST PUSH1 0x40 MLOAD PUSH1 0x20 DUP2 DUP4 SUB SUB DUP2 MSTORE SWAP1 PUSH1 0x40 MSTORE SWAP1 POP SWAP4 SWAP3 POP POP POP JUMP JUMPDEST PUSH1 0x60 DUP3 DUP3 PUSH1 0x40 MLOAD PUSH1 0x20 ADD PUSH2 0x46C1 SWAP3 SWAP2 SWAP1 PUSH2 0x5AAE JUMP JUMPDEST PUSH1 0x40 MLOAD PUSH1 0x20 DUP2 DUP4 SUB SUB DUP2 MSTORE SWAP1 PUSH1 0x40 MSTORE SWAP1 POP SWAP3 SWAP2 POP POP JUMP JUMPDEST PUSH1 0x0 PUSH32 0x0 PUSH20 0xFFFFFFFFFFFFFFFFFFFFFFFFFFFFFFFFFFFFFFFF AND PUSH4 0x3323B467 DUP7 DUP7 DUP7 DUP7 PUSH1 0x40 MLOAD DUP6 PUSH4 0xFFFFFFFF AND PUSH1 0xE0 SHL DUP2 MSTORE PUSH1 0x4 ADD PUSH2 0x4739 SWAP5 SWAP4 SWAP3 SWAP2 SWAP1 PUSH2 0x5D2C JUMP JUMPDEST PUSH1 0x20 PUSH1 0x40 MLOAD DUP1 DUP4 SUB DUP2 PUSH1 0x0 DUP8 GAS CALL ISZERO DUP1 ISZERO PUSH2 0x4758 JUMPI RETURNDATASIZE PUSH1 0x0 DUP1 RETURNDATACOPY RETURNDATASIZE PUSH1 0x0 REVERT JUMPDEST POP POP POP POP PUSH1 0x40 MLOAD RETURNDATASIZE PUSH1 0x1F NOT PUSH1 0x1F DUP3 ADD AND DUP3 ADD DUP1 PUSH1 0x40 MSTORE POP DUP2 ADD SWAP1 PUSH2 0x477C SWAP2 SWAP1 PUSH2 0x5DAB JUMP JUMPDEST SWAP1 POP SWAP5 SWAP4 POP POP POP POP JUMP JUMPDEST DUP3 DUP1 SLOAD PUSH2 0x4792 SWAP1 PUSH2 0x572A JUMP JUMPDEST SWAP1 PUSH1 0x0 MSTORE PUSH1 0x20 PUSH1 0x0 KECCAK256 SWAP1 PUSH1 0x1F ADD PUSH1 0x20 SWAP1 DIV DUP2 ADD SWAP3 DUP3 PUSH2 0x47B4 JUMPI PUSH1 0x0 DUP6 SSTORE PUSH2 0x47FB JUMP JUMPDEST DUP3 PUSH1 0x1F LT PUSH2 0x47CD JUMPI DUP1 MLOAD PUSH1 0xFF NOT AND DUP4 DUP1 ADD OR DUP6 SSTORE PUSH2 0x47FB JUMP JUMPDEST DUP3 DUP1 ADD PUSH1 0x1 ADD DUP6 SSTORE DUP3 ISZERO PUSH2 0x47FB JUMPI SWAP2 DUP3 ADD JUMPDEST DUP3 DUP2 GT ISZERO PUSH2 0x47FA JUMPI DUP3 MLOAD DUP3 SSTORE SWAP2 PUSH1 0x20 ADD SWAP2 SWAP1 PUSH1 0x1 ADD SWAP1 PUSH2 0x47DF JUMP JUMPDEST JUMPDEST POP SWAP1 POP PUSH2 0x4808 SWAP2 SWAP1 PUSH2 0x4861 JUMP JUMPDEST POP SWAP1 JUMP JUMPDEST PUSH1 0x40 MLOAD DUP1 PUSH1 0xE0 ADD PUSH1 0x40 MSTORE DUP1 PUSH1 0x0 PUSH20 0xFFFFFFFFFFFFFFFFFFFFFFFFFFFFFFFFFFFFFFFF AND DUP2 MSTORE PUSH1 0x20 ADD PUSH1 0x0 DUP2 MSTORE PUSH1 0x20 ADD PUSH1 0x0 DUP2 MSTORE PUSH1 0x20 ADD PUSH1 0x0 DUP2 MSTORE PUSH1 0x20 ADD PUSH1 0x60 DUP2 MSTORE PUSH1 0x20 ADD PUSH1 0x0 DUP2 MSTORE PUSH1 0x20 ADD PUSH1 0x0 ISZERO ISZERO DUP2 MSTORE POP SWAP1 JUMP JUMPDEST JUMPDEST DUP1 DUP3 GT ISZERO PUSH2 0x487A JUMPI PUSH1 0x0 DUP2 PUSH1 0x0 SWAP1 SSTORE POP PUSH1 0x1 ADD PUSH2 0x4862 JUMP JUMPDEST POP SWAP1 JUMP JUMPDEST PUSH1 0x0 PUSH1 0x40 MLOAD SWAP1 POP SWAP1 JUMP JUMPDEST PUSH1 0x0 DUP1 REVERT JUMPDEST PUSH1 0x0 DUP1 REVERT JUMPDEST PUSH1 0x0 PUSH20 0xFFFFFFFFFFFFFFFFFFFFFFFFFFFFFFFFFFFFFFFF DUP3 AND SWAP1 POP SWAP2 SWAP1 POP JUMP JUMPDEST PUSH1 0x0 PUSH2 0x48BD DUP3 PUSH2 0x4892 JUMP JUMPDEST SWAP1 POP SWAP2 SWAP1 POP JUMP JUMPDEST PUSH2 0x48CD DUP2 PUSH2 0x48B2 JUMP JUMPDEST DUP2 EQ PUSH2 0x48D8 JUMPI PUSH1 0x0 DUP1 REVERT JUMPDEST POP JUMP JUMPDEST PUSH1 0x0 DUP2 CALLDATALOAD SWAP1 POP PUSH2 0x48EA DUP2 PUSH2 0x48C4 JUMP JUMPDEST SWAP3 SWAP2 POP POP JUMP JUMPDEST PUSH1 0x0 DUP2 SWAP1 POP SWAP2 SWAP1 POP JUMP JUMPDEST PUSH2 0x4903 DUP2 PUSH2 0x48F0 JUMP JUMPDEST DUP2 EQ PUSH2 0x490E JUMPI PUSH1 0x0 DUP1 REVERT JUMPDEST POP JUMP JUMPDEST PUSH1 0x0 DUP2 CALLDATALOAD SWAP1 POP PUSH2 0x4920 DUP2 PUSH2 0x48FA JUMP JUMPDEST SWAP3 SWAP2 POP POP JUMP JUMPDEST PUSH1 0x0 DUP2 SWAP1 POP SWAP2 SWAP1 POP JUMP JUMPDEST PUSH2 0x4939 DUP2 PUSH2 0x4926 JUMP JUMPDEST DUP2 EQ PUSH2 0x4944 JUMPI PUSH1 0x0 DUP1 REVERT JUMPDEST POP JUMP JUMPDEST PUSH1 0x0 DUP2 CALLDATALOAD SWAP1 POP PUSH2 0x4956 DUP2 PUSH2 0x4930 JUMP JUMPDEST SWAP3 SWAP2 POP POP JUMP JUMPDEST PUSH1 0x0 DUP1 REVERT JUMPDEST PUSH1 0x0 DUP1 REVERT JUMPDEST PUSH1 0x0 PUSH1 0x1F NOT PUSH1 0x1F DUP4 ADD AND SWAP1 POP SWAP2 SWAP1 POP JUMP JUMPDEST PUSH32 0x4E487B7100000000000000000000000000000000000000000000000000000000 PUSH1 0x0 MSTORE PUSH1 0x41 PUSH1 0x4 MSTORE PUSH1 0x24 PUSH1 0x0 REVERT JUMPDEST PUSH2 0x49AF DUP3 PUSH2 0x4966 JUMP JUMPDEST DUP2 ADD DUP2 DUP2 LT PUSH8 0xFFFFFFFFFFFFFFFF DUP3 GT OR ISZERO PUSH2 0x49CE JUMPI PUSH2 0x49CD PUSH2 0x4977 JUMP JUMPDEST JUMPDEST DUP1 PUSH1 0x40 MSTORE POP POP POP JUMP JUMPDEST PUSH1 0x0 PUSH2 0x49E1 PUSH2 0x487E JUMP JUMPDEST SWAP1 POP PUSH2 0x49ED DUP3 DUP3 PUSH2 0x49A6 JUMP JUMPDEST SWAP2 SWAP1 POP JUMP JUMPDEST PUSH1 0x0 PUSH8 0xFFFFFFFFFFFFFFFF DUP3 GT ISZERO PUSH2 0x4A0D JUMPI PUSH2 0x4A0C PUSH2 0x4977 JUMP JUMPDEST JUMPDEST PUSH2 0x4A16 DUP3 PUSH2 0x4966 JUMP JUMPDEST SWAP1 POP PUSH1 0x20 DUP2 ADD SWAP1 POP SWAP2 SWAP1 POP JUMP JUMPDEST DUP3 DUP2 DUP4 CALLDATACOPY PUSH1 0x0 DUP4 DUP4 ADD MSTORE POP POP POP JUMP JUMPDEST PUSH1 0x0 PUSH2 0x4A45 PUSH2 0x4A40 DUP5 PUSH2 0x49F2 JUMP JUMPDEST PUSH2 0x49D7 JUMP JUMPDEST SWAP1 POP DUP3 DUP2 MSTORE PUSH1 0x20 DUP2 ADD DUP5 DUP5 DUP5 ADD GT ISZERO PUSH2 0x4A61 JUMPI PUSH2 0x4A60 PUSH2 0x4961 JUMP JUMPDEST JUMPDEST PUSH2 0x4A6C DUP5 DUP3 DUP6 PUSH2 0x4A23 JUMP JUMPDEST POP SWAP4 SWAP3 POP POP POP JUMP JUMPDEST PUSH1 0x0 DUP3 PUSH1 0x1F DUP4 ADD SLT PUSH2 0x4A89 JUMPI PUSH2 0x4A88 PUSH2 0x495C JUMP JUMPDEST JUMPDEST DUP2 CALLDATALOAD PUSH2 0x4A99 DUP5 DUP3 PUSH1 0x20 DUP7 ADD PUSH2 0x4A32 JUMP JUMPDEST SWAP2 POP POP SWAP3 SWAP2 POP POP JUMP JUMPDEST PUSH1 0x0 DUP1 PUSH1 0x0 DUP1 PUSH1 0x0 DUP1 PUSH1 0x0 DUP1 PUSH2 0x100 DUP10 DUP12 SUB SLT ISZERO PUSH2 0x4AC3 JUMPI PUSH2 0x4AC2 PUSH2 0x4888 JUMP JUMPDEST JUMPDEST PUSH1 0x0 PUSH2 0x4AD1 DUP12 DUP3 DUP13 ADD PUSH2 0x48DB JUMP JUMPDEST SWAP9 POP POP PUSH1 0x20 PUSH2 0x4AE2 DUP12 DUP3 DUP13 ADD PUSH2 0x4911 JUMP JUMPDEST SWAP8 POP POP PUSH1 0x40 PUSH2 0x4AF3 DUP12 DUP3 DUP13 ADD PUSH2 0x4911 JUMP JUMPDEST SWAP7 POP POP PUSH1 0x60 PUSH2 0x4B04 DUP12 DUP3 DUP13 ADD PUSH2 0x4911 JUMP JUMPDEST SWAP6 POP POP PUSH1 0x80 PUSH2 0x4B15 DUP12 DUP3 DUP13 ADD PUSH2 0x4911 JUMP JUMPDEST SWAP5 POP POP PUSH1 0xA0 PUSH2 0x4B26 DUP12 DUP3 DUP13 ADD PUSH2 0x4911 JUMP JUMPDEST SWAP4 POP POP PUSH1 0xC0 PUSH2 0x4B37 DUP12 DUP3 DUP13 ADD PUSH2 0x4947 JUMP JUMPDEST SWAP3 POP POP PUSH1 0xE0 DUP10 ADD CALLDATALOAD PUSH8 0xFFFFFFFFFFFFFFFF DUP2 GT ISZERO PUSH2 0x4B58 JUMPI PUSH2 0x4B57 PUSH2 0x488D JUMP JUMPDEST JUMPDEST PUSH2 0x4B64 DUP12 DUP3 DUP13 ADD PUSH2 0x4A74 JUMP JUMPDEST SWAP2 POP POP SWAP3 SWAP6 SWAP9 POP SWAP3 SWAP6 SWAP9 SWAP1 SWAP4 SWAP7 POP JUMP JUMPDEST PUSH1 0x0 DUP1 PUSH1 0x0 PUSH1 0x60 DUP5 DUP7 SUB SLT ISZERO PUSH2 0x4B8D JUMPI PUSH2 0x4B8C PUSH2 0x4888 JUMP JUMPDEST JUMPDEST PUSH1 0x0 PUSH2 0x4B9B DUP7 DUP3 DUP8 ADD PUSH2 0x4911 JUMP JUMPDEST SWAP4 POP POP PUSH1 0x20 PUSH2 0x4BAC DUP7 DUP3 DUP8 ADD PUSH2 0x4911 JUMP JUMPDEST SWAP3 POP POP PUSH1 0x40 PUSH2 0x4BBD DUP7 DUP3 DUP8 ADD PUSH2 0x4911 JUMP JUMPDEST SWAP2 POP POP SWAP3 POP SWAP3 POP SWAP3 JUMP JUMPDEST PUSH1 0x0 DUP2 SWAP1 POP SWAP2 SWAP1 POP JUMP JUMPDEST PUSH1 0x0 PUSH2 0x4BEC PUSH2 0x4BE7 PUSH2 0x4BE2 DUP5 PUSH2 0x4892 JUMP JUMPDEST PUSH2 0x4BC7 JUMP JUMPDEST PUSH2 0x4892 JUMP JUMPDEST SWAP1 POP SWAP2 SWAP1 POP JUMP JUMPDEST PUSH1 0x0 PUSH2 0x4BFE DUP3 PUSH2 0x4BD1 JUMP JUMPDEST SWAP1 POP SWAP2 SWAP1 POP JUMP JUMPDEST PUSH1 0x0 PUSH2 0x4C10 DUP3 PUSH2 0x4BF3 JUMP JUMPDEST SWAP1 POP SWAP2 SWAP1 POP JUMP JUMPDEST PUSH2 0x4C20 DUP2 PUSH2 0x4C05 JUMP JUMPDEST DUP3 MSTORE POP POP JUMP JUMPDEST PUSH1 0x0 PUSH1 0x20 DUP3 ADD SWAP1 POP PUSH2 0x4C3B PUSH1 0x0 DUP4 ADD DUP5 PUSH2 0x4C17 JUMP JUMPDEST SWAP3 SWAP2 POP POP JUMP JUMPDEST PUSH1 0x0 PUSH1 0x20 DUP3 DUP5 SUB SLT ISZERO PUSH2 0x4C57 JUMPI PUSH2 0x4C56 PUSH2 0x4888 JUMP JUMPDEST JUMPDEST PUSH1 0x0 PUSH2 0x4C65 DUP5 DUP3 DUP6 ADD PUSH2 0x4911 JUMP JUMPDEST SWAP2 POP POP SWAP3 SWAP2 POP POP JUMP JUMPDEST PUSH2 0x4C77 DUP2 PUSH2 0x48F0 JUMP JUMPDEST DUP3 MSTORE POP POP JUMP JUMPDEST PUSH1 0x0 PUSH1 0x20 DUP3 ADD SWAP1 POP PUSH2 0x4C92 PUSH1 0x0 DUP4 ADD DUP5 PUSH2 0x4C6E JUMP JUMPDEST SWAP3 SWAP2 POP POP JUMP JUMPDEST PUSH1 0x0 DUP2 SWAP1 POP SWAP2 SWAP1 POP JUMP JUMPDEST PUSH2 0x4CAB DUP2 PUSH2 0x4C98 JUMP JUMPDEST DUP3 MSTORE POP POP JUMP JUMPDEST PUSH1 0x0 PUSH1 0xA0 DUP3 ADD SWAP1 POP PUSH2 0x4CC6 PUSH1 0x0 DUP4 ADD DUP9 PUSH2 0x4C6E JUMP JUMPDEST PUSH2 0x4CD3 PUSH1 0x20 DUP4 ADD DUP8 PUSH2 0x4C6E JUMP JUMPDEST PUSH2 0x4CE0 PUSH1 0x40 DUP4 ADD DUP7 PUSH2 0x4C6E JUMP JUMPDEST PUSH2 0x4CED PUSH1 0x60 DUP4 ADD DUP6 PUSH2 0x4C6E JUMP JUMPDEST PUSH2 0x4CFA PUSH1 0x80 DUP4 ADD DUP5 PUSH2 0x4CA2 JUMP JUMPDEST SWAP7 SWAP6 POP POP POP POP POP POP JUMP JUMPDEST PUSH2 0x4D0D DUP2 PUSH2 0x48B2 JUMP JUMPDEST DUP3 MSTORE POP POP JUMP JUMPDEST PUSH1 0x0 PUSH1 0x20 DUP3 ADD SWAP1 POP PUSH2 0x4D28 PUSH1 0x0 DUP4 ADD DUP5 PUSH2 0x4D04 JUMP JUMPDEST SWAP3 SWAP2 POP POP JUMP JUMPDEST PUSH1 0x0 DUP1 PUSH1 0x40 DUP4 DUP6 SUB SLT ISZERO PUSH2 0x4D45 JUMPI PUSH2 0x4D44 PUSH2 0x4888 JUMP JUMPDEST JUMPDEST PUSH1 0x0 PUSH2 0x4D53 DUP6 DUP3 DUP7 ADD PUSH2 0x4911 JUMP JUMPDEST SWAP3 POP POP PUSH1 0x20 PUSH2 0x4D64 DUP6 DUP3 DUP7 ADD PUSH2 0x4911 JUMP JUMPDEST SWAP2 POP POP SWAP3 POP SWAP3 SWAP1 POP JUMP JUMPDEST PUSH1 0x0 DUP2 MLOAD SWAP1 POP SWAP2 SWAP1 POP JUMP JUMPDEST PUSH1 0x0 DUP3 DUP3 MSTORE PUSH1 0x20 DUP3 ADD SWAP1 POP SWAP3 SWAP2 POP POP JUMP JUMPDEST PUSH1 0x0 DUP2 SWAP1 POP PUSH1 0x20 DUP3 ADD SWAP1 POP SWAP2 SWAP1 POP JUMP JUMPDEST PUSH2 0x4DA3 DUP2 PUSH2 0x48B2 JUMP JUMPDEST DUP3 MSTORE POP POP JUMP JUMPDEST PUSH2 0x4DB2 DUP2 PUSH2 0x48F0 JUMP JUMPDEST DUP3 MSTORE POP POP JUMP JUMPDEST PUSH1 0x0 DUP2 MLOAD SWAP1 POP SWAP2 SWAP1 POP JUMP JUMPDEST PUSH1 0x0 DUP3 DUP3 MSTORE PUSH1 0x20 DUP3 ADD SWAP1 POP SWAP3 SWAP2 POP POP JUMP JUMPDEST PUSH1 0x0 JUMPDEST DUP4 DUP2 LT ISZERO PUSH2 0x4DF2 JUMPI DUP1 DUP3 ADD MLOAD DUP2 DUP5 ADD MSTORE PUSH1 0x20 DUP2 ADD SWAP1 POP PUSH2 0x4DD7 JUMP JUMPDEST DUP4 DUP2 GT ISZERO PUSH2 0x4E01 JUMPI PUSH1 0x0 DUP5 DUP5 ADD MSTORE JUMPDEST POP POP POP POP JUMP JUMPDEST PUSH1 0x0 PUSH2 0x4E12 DUP3 PUSH2 0x4DB8 JUMP JUMPDEST PUSH2 0x4E1C DUP2 DUP6 PUSH2 0x4DC3 JUMP JUMPDEST SWAP4 POP PUSH2 0x4E2C DUP2 DUP6 PUSH1 0x20 DUP7 ADD PUSH2 0x4DD4 JUMP JUMPDEST PUSH2 0x4E35 DUP2 PUSH2 0x4966 JUMP JUMPDEST DUP5 ADD SWAP2 POP POP SWAP3 SWAP2 POP POP JUMP JUMPDEST PUSH1 0x0 DUP2 ISZERO ISZERO SWAP1 POP SWAP2 SWAP1 POP JUMP JUMPDEST PUSH2 0x4E55 DUP2 PUSH2 0x4E40 JUMP JUMPDEST DUP3 MSTORE POP POP JUMP JUMPDEST PUSH1 0x0 PUSH1 0xE0 DUP4 ADD PUSH1 0x0 DUP4 ADD MLOAD PUSH2 0x4E73 PUSH1 0x0 DUP7 ADD DUP3 PUSH2 0x4D9A JUMP JUMPDEST POP PUSH1 0x20 DUP4 ADD MLOAD PUSH2 0x4E86 PUSH1 0x20 DUP7 ADD DUP3 PUSH2 0x4DA9 JUMP JUMPDEST POP PUSH1 0x40 DUP4 ADD MLOAD PUSH2 0x4E99 PUSH1 0x40 DUP7 ADD DUP3 PUSH2 0x4DA9 JUMP JUMPDEST POP PUSH1 0x60 DUP4 ADD MLOAD PUSH2 0x4EAC PUSH1 0x60 DUP7 ADD DUP3 PUSH2 0x4DA9 JUMP JUMPDEST POP PUSH1 0x80 DUP4 ADD MLOAD DUP5 DUP3 SUB PUSH1 0x80 DUP7 ADD MSTORE PUSH2 0x4EC4 DUP3 DUP3 PUSH2 0x4E07 JUMP JUMPDEST SWAP2 POP POP PUSH1 0xA0 DUP4 ADD MLOAD PUSH2 0x4ED9 PUSH1 0xA0 DUP7 ADD DUP3 PUSH2 0x4DA9 JUMP JUMPDEST POP PUSH1 0xC0 DUP4 ADD MLOAD PUSH2 0x4EEC PUSH1 0xC0 DUP7 ADD DUP3 PUSH2 0x4E4C JUMP JUMPDEST POP DUP1 SWAP2 POP POP SWAP3 SWAP2 POP POP JUMP JUMPDEST PUSH1 0x0 PUSH2 0x4F03 DUP4 DUP4 PUSH2 0x4E5B JUMP JUMPDEST SWAP1 POP SWAP3 SWAP2 POP POP JUMP JUMPDEST PUSH1 0x0 PUSH1 0x20 DUP3 ADD SWAP1 POP SWAP2 SWAP1 POP JUMP JUMPDEST PUSH1 0x0 PUSH2 0x4F23 DUP3 PUSH2 0x4D6E JUMP JUMPDEST PUSH2 0x4F2D DUP2 DUP6 PUSH2 0x4D79 JUMP JUMPDEST SWAP4 POP DUP4 PUSH1 0x20 DUP3 MUL DUP6 ADD PUSH2 0x4F3F DUP6 PUSH2 0x4D8A JUMP JUMPDEST DUP1 PUSH1 0x0 JUMPDEST DUP6 DUP2 LT ISZERO PUSH2 0x4F7B JUMPI DUP5 DUP5 SUB DUP10 MSTORE DUP2 MLOAD PUSH2 0x4F5C DUP6 DUP3 PUSH2 0x4EF7 JUMP JUMPDEST SWAP5 POP PUSH2 0x4F67 DUP4 PUSH2 0x4F0B JUMP JUMPDEST SWAP3 POP PUSH1 0x20 DUP11 ADD SWAP10 POP POP PUSH1 0x1 DUP2 ADD SWAP1 POP PUSH2 0x4F43 JUMP JUMPDEST POP DUP3 SWAP8 POP DUP8 SWAP6 POP POP POP POP POP POP SWAP3 SWAP2 POP POP JUMP JUMPDEST PUSH1 0x0 PUSH1 0x20 DUP3 ADD SWAP1 POP DUP2 DUP2 SUB PUSH1 0x0 DUP4 ADD MSTORE PUSH2 0x4FA7 DUP2 DUP5 PUSH2 0x4F18 JUMP JUMPDEST SWAP1 POP SWAP3 SWAP2 POP POP JUMP JUMPDEST PUSH1 0x0 DUP1 PUSH1 0x0 DUP1 PUSH1 0x0 PUSH1 0xA0 DUP7 DUP9 SUB SLT ISZERO PUSH2 0x4FCB JUMPI PUSH2 0x4FCA PUSH2 0x4888 JUMP JUMPDEST JUMPDEST PUSH1 0x0 PUSH2 0x4FD9 DUP9 DUP3 DUP10 ADD PUSH2 0x4911 JUMP JUMPDEST SWAP6 POP POP PUSH1 0x20 PUSH2 0x4FEA DUP9 DUP3 DUP10 ADD PUSH2 0x4911 JUMP JUMPDEST SWAP5 POP POP PUSH1 0x40 PUSH2 0x4FFB DUP9 DUP3 DUP10 ADD PUSH2 0x4911 JUMP JUMPDEST SWAP4 POP POP PUSH1 0x60 PUSH2 0x500C DUP9 DUP3 DUP10 ADD PUSH2 0x4947 JUMP JUMPDEST SWAP3 POP POP PUSH1 0x80 PUSH2 0x501D DUP9 DUP3 DUP10 ADD PUSH2 0x4947 JUMP JUMPDEST SWAP2 POP POP SWAP3 SWAP6 POP SWAP3 SWAP6 SWAP1 SWAP4 POP JUMP JUMPDEST PUSH1 0x0 PUSH2 0x5035 DUP3 PUSH2 0x4BF3 JUMP JUMPDEST SWAP1 POP SWAP2 SWAP1 POP JUMP JUMPDEST PUSH2 0x5045 DUP2 PUSH2 0x502A JUMP JUMPDEST DUP3 MSTORE POP POP JUMP JUMPDEST PUSH1 0x0 PUSH1 0x20 DUP3 ADD SWAP1 POP PUSH2 0x5060 PUSH1 0x0 DUP4 ADD DUP5 PUSH2 0x503C JUMP JUMPDEST SWAP3 SWAP2 POP POP JUMP JUMPDEST PUSH1 0x0 PUSH1 0xE0 DUP4 ADD PUSH1 0x0 DUP4 ADD MLOAD PUSH2 0x507E PUSH1 0x0 DUP7 ADD DUP3 PUSH2 0x4D9A JUMP JUMPDEST POP PUSH1 0x20 DUP4 ADD MLOAD PUSH2 0x5091 PUSH1 0x20 DUP7 ADD DUP3 PUSH2 0x4DA9 JUMP JUMPDEST POP PUSH1 0x40 DUP4 ADD MLOAD PUSH2 0x50A4 PUSH1 0x40 DUP7 ADD DUP3 PUSH2 0x4DA9 JUMP JUMPDEST POP PUSH1 0x60 DUP4 ADD MLOAD PUSH2 0x50B7 PUSH1 0x60 DUP7 ADD DUP3 PUSH2 0x4DA9 JUMP JUMPDEST POP PUSH1 0x80 DUP4 ADD MLOAD DUP5 DUP3 SUB PUSH1 0x80 DUP7 ADD MSTORE PUSH2 0x50CF DUP3 DUP3 PUSH2 0x4E07 JUMP JUMPDEST SWAP2 POP POP PUSH1 0xA0 DUP4 ADD MLOAD PUSH2 0x50E4 PUSH1 0xA0 DUP7 ADD DUP3 PUSH2 0x4DA9 JUMP JUMPDEST POP PUSH1 0xC0 DUP4 ADD MLOAD PUSH2 0x50F7 PUSH1 0xC0 DUP7 ADD DUP3 PUSH2 0x4E4C JUMP JUMPDEST POP DUP1 SWAP2 POP POP SWAP3 SWAP2 POP POP JUMP JUMPDEST PUSH1 0x0 PUSH1 0x20 DUP3 ADD SWAP1 POP DUP2 DUP2 SUB PUSH1 0x0 DUP4 ADD MSTORE PUSH2 0x511C DUP2 DUP5 PUSH2 0x5066 JUMP JUMPDEST SWAP1 POP SWAP3 SWAP2 POP POP JUMP JUMPDEST PUSH1 0x0 DUP1 PUSH1 0x0 DUP1 PUSH1 0x0 DUP1 PUSH1 0x0 PUSH1 0xE0 DUP9 DUP11 SUB SLT ISZERO PUSH2 0x5143 JUMPI PUSH2 0x5142 PUSH2 0x4888 JUMP JUMPDEST JUMPDEST PUSH1 0x0 PUSH2 0x5151 DUP11 DUP3 DUP12 ADD PUSH2 0x48DB JUMP JUMPDEST SWAP8 POP POP PUSH1 0x20 PUSH2 0x5162 DUP11 DUP3 DUP12 ADD PUSH2 0x4911 JUMP JUMPDEST SWAP7 POP POP PUSH1 0x40 PUSH2 0x5173 DUP11 DUP3 DUP12 ADD PUSH2 0x4911 JUMP JUMPDEST SWAP6 POP POP PUSH1 0x60 PUSH2 0x5184 DUP11 DUP3 DUP12 ADD PUSH2 0x4911 JUMP JUMPDEST SWAP5 POP POP PUSH1 0x80 PUSH2 0x5195 DUP11 DUP3 DUP12 ADD PUSH2 0x4911 JUMP JUMPDEST SWAP4 POP POP PUSH1 0xA0 PUSH2 0x51A6 DUP11 DUP3 DUP12 ADD PUSH2 0x4911 JUMP JUMPDEST SWAP3 POP POP PUSH1 0xC0 DUP9 ADD CALLDATALOAD PUSH8 0xFFFFFFFFFFFFFFFF DUP2 GT ISZERO PUSH2 0x51C7 JUMPI PUSH2 0x51C6 PUSH2 0x488D JUMP JUMPDEST JUMPDEST PUSH2 0x51D3 DUP11 DUP3 DUP12 ADD PUSH2 0x4A74 JUMP JUMPDEST SWAP2 POP POP SWAP3 SWAP6 SWAP9 SWAP2 SWAP5 SWAP8 POP SWAP3 SWAP6 POP JUMP JUMPDEST PUSH1 0x0 PUSH1 0x20 DUP3 DUP5 SUB SLT ISZERO PUSH2 0x51F8 JUMPI PUSH2 0x51F7 PUSH2 0x4888 JUMP JUMPDEST JUMPDEST PUSH1 0x0 PUSH2 0x5206 DUP5 DUP3 DUP6 ADD PUSH2 0x48DB JUMP JUMPDEST SWAP2 POP POP SWAP3 SWAP2 POP POP JUMP JUMPDEST PUSH1 0x0 DUP3 DUP3 MSTORE PUSH1 0x20 DUP3 ADD SWAP1 POP SWAP3 SWAP2 POP POP JUMP JUMPDEST PUSH32 0x596F7520617265206F6E6C7920616C6C6F77656420746F20706C616365206D75 PUSH1 0x0 DUP3 ADD MSTORE PUSH32 0x6C7469706C65204D6F6E6579204C696E652062657473206F6E20746865207361 PUSH1 0x20 DUP3 ADD MSTORE PUSH32 0x6D652067616D6500000000000000000000000000000000000000000000000000 PUSH1 0x40 DUP3 ADD MSTORE POP JUMP JUMPDEST PUSH1 0x0 PUSH2 0x52A2 PUSH1 0x47 DUP4 PUSH2 0x520F JUMP JUMPDEST SWAP2 POP PUSH2 0x52AD DUP3 PUSH2 0x5220 JUMP JUMPDEST PUSH1 0x60 DUP3 ADD SWAP1 POP SWAP2 SWAP1 POP JUMP JUMPDEST PUSH1 0x0 PUSH1 0x20 DUP3 ADD SWAP1 POP DUP2 DUP2 SUB PUSH1 0x0 DUP4 ADD MSTORE PUSH2 0x52D1 DUP2 PUSH2 0x5295 JUMP JUMPDEST SWAP1 POP SWAP2 SWAP1 POP JUMP JUMPDEST PUSH32 0x596F75206D757374206265742066726F6D20796F7572206F776E206164647265 PUSH1 0x0 DUP3 ADD MSTORE PUSH32 0x7373000000000000000000000000000000000000000000000000000000000000 PUSH1 0x20 DUP3 ADD MSTORE POP JUMP JUMPDEST PUSH1 0x0 PUSH2 0x5334 PUSH1 0x22 DUP4 PUSH2 0x520F JUMP JUMPDEST SWAP2 POP PUSH2 0x533F DUP3 PUSH2 0x52D8 JUMP JUMPDEST PUSH1 0x40 DUP3 ADD SWAP1 POP SWAP2 SWAP1 POP JUMP JUMPDEST PUSH1 0x0 PUSH1 0x20 DUP3 ADD SWAP1 POP DUP2 DUP2 SUB PUSH1 0x0 DUP4 ADD MSTORE PUSH2 0x5363 DUP2 PUSH2 0x5327 JUMP JUMPDEST SWAP1 POP SWAP2 SWAP1 POP JUMP JUMPDEST PUSH32 0x596F75206D7573742062657420736F6D657468696E6700000000000000000000 PUSH1 0x0 DUP3 ADD MSTORE POP JUMP JUMPDEST PUSH1 0x0 PUSH2 0x53A0 PUSH1 0x16 DUP4 PUSH2 0x520F JUMP JUMPDEST SWAP2 POP PUSH2 0x53AB DUP3 PUSH2 0x536A JUMP JUMPDEST PUSH1 0x20 DUP3 ADD SWAP1 POP SWAP2 SWAP1 POP JUMP JUMPDEST PUSH1 0x0 PUSH1 0x20 DUP3 ADD SWAP1 POP DUP2 DUP2 SUB PUSH1 0x0 DUP4 ADD MSTORE PUSH2 0x53CF DUP2 PUSH2 0x5393 JUMP JUMPDEST SWAP1 POP SWAP2 SWAP1 POP JUMP JUMPDEST PUSH32 0x596F75206D75737420626574206F6E2061207465616D20746861742069732070 PUSH1 0x0 DUP3 ADD MSTORE PUSH32 0x6C6179696E6720696E20746869732067616D6500000000000000000000000000 PUSH1 0x20 DUP3 ADD MSTORE POP JUMP JUMPDEST PUSH1 0x0 PUSH2 0x5432 PUSH1 0x33 DUP4 PUSH2 0x520F JUMP JUMPDEST SWAP2 POP PUSH2 0x543D DUP3 PUSH2 0x53D6 JUMP JUMPDEST PUSH1 0x40 DUP3 ADD SWAP1 POP SWAP2 SWAP1 POP JUMP JUMPDEST PUSH1 0x0 PUSH1 0x20 DUP3 ADD SWAP1 POP DUP2 DUP2 SUB PUSH1 0x0 DUP4 ADD MSTORE PUSH2 0x5461 DUP2 PUSH2 0x5425 JUMP JUMPDEST SWAP1 POP SWAP2 SWAP1 POP JUMP JUMPDEST PUSH32 0x4E487B7100000000000000000000000000000000000000000000000000000000 PUSH1 0x0 MSTORE PUSH1 0x32 PUSH1 0x4 MSTORE PUSH1 0x24 PUSH1 0x0 REVERT JUMPDEST PUSH32 0x4E487B7100000000000000000000000000000000000000000000000000000000 PUSH1 0x0 MSTORE PUSH1 0x21 PUSH1 0x4 MSTORE PUSH1 0x24 PUSH1 0x0 REVERT JUMPDEST PUSH1 0x0 PUSH32 0xFFFFFFFF00000000000000000000000000000000000000000000000000000000 DUP3 AND SWAP1 POP SWAP2 SWAP1 POP JUMP JUMPDEST PUSH2 0x54FB DUP2 PUSH2 0x54C6 JUMP JUMPDEST DUP3 MSTORE POP POP JUMP JUMPDEST PUSH1 0x0 PUSH1 0x20 DUP3 ADD SWAP1 POP PUSH2 0x5516 PUSH1 0x0 DUP4 ADD DUP5 PUSH2 0x54F2 JUMP JUMPDEST SWAP3 SWAP2 POP POP JUMP JUMPDEST PUSH32 0x4E487B7100000000000000000000000000000000000000000000000000000000 PUSH1 0x0 MSTORE PUSH1 0x11 PUSH1 0x4 MSTORE PUSH1 0x24 PUSH1 0x0 REVERT JUMPDEST PUSH1 0x0 PUSH2 0x5556 DUP3 PUSH2 0x48F0 JUMP JUMPDEST SWAP2 POP PUSH2 0x5561 DUP4 PUSH2 0x48F0 JUMP JUMPDEST SWAP3 POP DUP2 PUSH32 0xFFFFFFFFFFFFFFFFFFFFFFFFFFFFFFFFFFFFFFFFFFFFFFFFFFFFFFFFFFFFFFFF DIV DUP4 GT DUP3 ISZERO ISZERO AND ISZERO PUSH2 0x559A JUMPI PUSH2 0x5599 PUSH2 0x551C JUMP JUMPDEST JUMPDEST DUP3 DUP3 MUL SWAP1 POP SWAP3 SWAP2 POP POP JUMP JUMPDEST PUSH32 0x4E487B7100000000000000000000000000000000000000000000000000000000 PUSH1 0x0 MSTORE PUSH1 0x12 PUSH1 0x4 MSTORE PUSH1 0x24 PUSH1 0x0 REVERT JUMPDEST PUSH1 0x0 PUSH2 0x55DF DUP3 PUSH2 0x48F0 JUMP JUMPDEST SWAP2 POP PUSH2 0x55EA DUP4 PUSH2 0x48F0 JUMP JUMPDEST SWAP3 POP DUP3 PUSH2 0x55FA JUMPI PUSH2 0x55F9 PUSH2 0x55A5 JUMP JUMPDEST JUMPDEST DUP3 DUP3 DIV SWAP1 POP SWAP3 SWAP2 POP POP JUMP JUMPDEST PUSH1 0x0 PUSH2 0x5610 DUP3 PUSH2 0x48F0 JUMP JUMPDEST SWAP2 POP PUSH2 0x561B DUP4 PUSH2 0x48F0 JUMP JUMPDEST SWAP3 POP DUP3 PUSH32 0xFFFFFFFFFFFFFFFFFFFFFFFFFFFFFFFFFFFFFFFFFFFFFFFFFFFFFFFFFFFFFFFF SUB DUP3 GT ISZERO PUSH2 0x5650 JUMPI PUSH2 0x564F PUSH2 0x551C JUMP JUMPDEST JUMPDEST DUP3 DUP3 ADD SWAP1 POP SWAP3 SWAP2 POP POP JUMP JUMPDEST PUSH32 0x4F6E6C7920646564696361746564206D73672E73656E64657200000000000000 PUSH1 0x0 DUP3 ADD MSTORE POP JUMP JUMPDEST PUSH1 0x0 PUSH2 0x5691 PUSH1 0x19 DUP4 PUSH2 0x520F JUMP JUMPDEST SWAP2 POP PUSH2 0x569C DUP3 PUSH2 0x565B JUMP JUMPDEST PUSH1 0x20 DUP3 ADD SWAP1 POP SWAP2 SWAP1 POP JUMP JUMPDEST PUSH1 0x0 PUSH1 0x20 DUP3 ADD SWAP1 POP DUP2 DUP2 SUB PUSH1 0x0 DUP4 ADD MSTORE PUSH2 0x56C0 DUP2 PUSH2 0x5684 JUMP JUMPDEST SWAP1 POP SWAP2 SWAP1 POP JUMP JUMPDEST PUSH1 0x0 PUSH2 0x56D2 DUP3 PUSH2 0x48F0 JUMP JUMPDEST SWAP2 POP PUSH2 0x56DD DUP4 PUSH2 0x48F0 JUMP JUMPDEST SWAP3 POP DUP3 DUP3 LT ISZERO PUSH2 0x56F0 JUMPI PUSH2 0x56EF PUSH2 0x551C JUMP JUMPDEST JUMPDEST DUP3 DUP3 SUB SWAP1 POP SWAP3 SWAP2 POP POP JUMP JUMPDEST PUSH32 0x4E487B7100000000000000000000000000000000000000000000000000000000 PUSH1 0x0 MSTORE PUSH1 0x22 PUSH1 0x4 MSTORE PUSH1 0x24 PUSH1 0x0 REVERT JUMPDEST PUSH1 0x0 PUSH1 0x2 DUP3 DIV SWAP1 POP PUSH1 0x1 DUP3 AND DUP1 PUSH2 0x5742 JUMPI PUSH1 0x7F DUP3 AND SWAP2 POP JUMPDEST PUSH1 0x20 DUP3 LT DUP2 SUB PUSH2 0x5755 JUMPI PUSH2 0x5754 PUSH2 0x56FB JUMP JUMPDEST JUMPDEST POP SWAP2 SWAP1 POP JUMP JUMPDEST PUSH1 0x0 DUP2 SWAP1 POP SWAP3 SWAP2 POP POP JUMP JUMPDEST PUSH32 0x4D6F6E6579204C696E6500000000000000000000000000000000000000000000 PUSH1 0x0 DUP3 ADD MSTORE POP JUMP JUMPDEST PUSH1 0x0 PUSH2 0x579C PUSH1 0xA DUP4 PUSH2 0x575B JUMP JUMPDEST SWAP2 POP PUSH2 0x57A7 DUP3 PUSH2 0x5766 JUMP JUMPDEST PUSH1 0xA DUP3 ADD SWAP1 POP SWAP2 SWAP1 POP JUMP JUMPDEST PUSH1 0x0 PUSH2 0x57BD DUP3 PUSH2 0x578F JUMP JUMPDEST SWAP2 POP DUP2 SWAP1 POP SWAP2 SWAP1 POP JUMP JUMPDEST PUSH1 0x0 PUSH2 0x57D2 DUP3 PUSH2 0x4DB8 JUMP JUMPDEST PUSH2 0x57DC DUP2 DUP6 PUSH2 0x575B JUMP JUMPDEST SWAP4 POP PUSH2 0x57EC DUP2 DUP6 PUSH1 0x20 DUP7 ADD PUSH2 0x4DD4 JUMP JUMPDEST DUP1 DUP5 ADD SWAP2 POP POP SWAP3 SWAP2 POP POP JUMP JUMPDEST PUSH1 0x0 PUSH2 0x5804 DUP3 DUP5 PUSH2 0x57C7 JUMP JUMPDEST SWAP2 POP DUP2 SWAP1 POP SWAP3 SWAP2 POP POP JUMP JUMPDEST PUSH1 0x0 PUSH2 0x581A DUP3 PUSH2 0x48F0 JUMP JUMPDEST SWAP2 POP PUSH32 0xFFFFFFFFFFFFFFFFFFFFFFFFFFFFFFFFFFFFFFFFFFFFFFFFFFFFFFFFFFFFFFFF DUP3 SUB PUSH2 0x584C JUMPI PUSH2 0x584B PUSH2 0x551C JUMP JUMPDEST JUMPDEST PUSH1 0x1 DUP3 ADD SWAP1 POP SWAP2 SWAP1 POP JUMP JUMPDEST PUSH1 0x0 PUSH2 0x5862 DUP3 PUSH2 0x4926 JUMP JUMPDEST SWAP2 POP PUSH2 0x586D DUP4 PUSH2 0x4926 JUMP JUMPDEST SWAP3 POP DUP2 PUSH32 0x7FFFFFFFFFFFFFFFFFFFFFFFFFFFFFFFFFFFFFFFFFFFFFFFFFFFFFFFFFFFFFFF SUB DUP4 SGT PUSH1 0x0 DUP4 SLT ISZERO AND ISZERO PUSH2 0x58A8 JUMPI PUSH2 0x58A7 PUSH2 0x551C JUMP JUMPDEST JUMPDEST DUP2 PUSH32 0x8000000000000000000000000000000000000000000000000000000000000000 SUB DUP4 SLT PUSH1 0x0 DUP4 SLT AND ISZERO PUSH2 0x58E0 JUMPI PUSH2 0x58DF PUSH2 0x551C JUMP JUMPDEST JUMPDEST DUP3 DUP3 ADD SWAP1 POP SWAP3 SWAP2 POP POP JUMP JUMPDEST PUSH1 0x0 DUP2 SWAP1 POP SWAP2 SWAP1 POP JUMP JUMPDEST PUSH2 0x5906 PUSH2 0x5901 DUP3 PUSH2 0x48F0 JUMP JUMPDEST PUSH2 0x58EB JUMP JUMPDEST DUP3 MSTORE POP POP JUMP JUMPDEST PUSH1 0x0 PUSH2 0x5918 DUP3 DUP5 PUSH2 0x58F5 JUMP JUMPDEST PUSH1 0x20 DUP3 ADD SWAP2 POP DUP2 SWAP1 POP SWAP3 SWAP2 POP POP JUMP JUMPDEST PUSH32 0x506F696E74205370726561640000000000000000000000000000000000000000 PUSH1 0x0 DUP3 ADD MSTORE POP JUMP JUMPDEST PUSH1 0x0 PUSH2 0x595D PUSH1 0xC DUP4 PUSH2 0x575B JUMP JUMPDEST SWAP2 POP PUSH2 0x5968 DUP3 PUSH2 0x5927 JUMP JUMPDEST PUSH1 0xC DUP3 ADD SWAP1 POP SWAP2 SWAP1 POP JUMP JUMPDEST PUSH1 0x0 PUSH2 0x597E DUP3 PUSH2 0x5950 JUMP JUMPDEST SWAP2 POP DUP2 SWAP1 POP SWAP2 SWAP1 POP JUMP JUMPDEST PUSH32 0x506F696E7420546F74616C000000000000000000000000000000000000000000 PUSH1 0x0 DUP3 ADD MSTORE POP JUMP JUMPDEST PUSH1 0x0 PUSH2 0x59BE PUSH1 0xB DUP4 PUSH2 0x575B JUMP JUMPDEST SWAP2 POP PUSH2 0x59C9 DUP3 PUSH2 0x5988 JUMP JUMPDEST PUSH1 0xB DUP3 ADD SWAP1 POP SWAP2 SWAP1 POP JUMP JUMPDEST PUSH1 0x0 PUSH2 0x59DF DUP3 PUSH2 0x59B1 JUMP JUMPDEST SWAP2 POP DUP2 SWAP1 POP SWAP2 SWAP1 POP JUMP JUMPDEST PUSH1 0x0 PUSH1 0x60 DUP3 ADD SWAP1 POP PUSH2 0x59FE PUSH1 0x0 DUP4 ADD DUP7 PUSH2 0x4D04 JUMP JUMPDEST PUSH2 0x5A0B PUSH1 0x20 DUP4 ADD DUP6 PUSH2 0x4C6E JUMP JUMPDEST PUSH2 0x5A18 PUSH1 0x40 DUP4 ADD DUP5 PUSH2 0x4C6E JUMP JUMPDEST SWAP5 SWAP4 POP POP POP POP JUMP JUMPDEST PUSH1 0x0 PUSH2 0x5A2B DUP3 PUSH2 0x4DB8 JUMP JUMPDEST PUSH2 0x5A35 DUP2 DUP6 PUSH2 0x520F JUMP JUMPDEST SWAP4 POP PUSH2 0x5A45 DUP2 DUP6 PUSH1 0x20 DUP7 ADD PUSH2 0x4DD4 JUMP JUMPDEST PUSH2 0x5A4E DUP2 PUSH2 0x4966 JUMP JUMPDEST DUP5 ADD SWAP2 POP POP SWAP3 SWAP2 POP POP JUMP JUMPDEST PUSH1 0x0 DUP2 MLOAD SWAP1 POP SWAP2 SWAP1 POP JUMP JUMPDEST PUSH1 0x0 DUP3 DUP3 MSTORE PUSH1 0x20 DUP3 ADD SWAP1 POP SWAP3 SWAP2 POP POP JUMP JUMPDEST PUSH1 0x0 PUSH2 0x5A80 DUP3 PUSH2 0x5A59 JUMP JUMPDEST PUSH2 0x5A8A DUP2 DUP6 PUSH2 0x5A64 JUMP JUMPDEST SWAP4 POP PUSH2 0x5A9A DUP2 DUP6 PUSH1 0x20 DUP7 ADD PUSH2 0x4DD4 JUMP JUMPDEST PUSH2 0x5AA3 DUP2 PUSH2 0x4966 JUMP JUMPDEST DUP5 ADD SWAP2 POP POP SWAP3 SWAP2 POP POP JUMP JUMPDEST PUSH1 0x0 PUSH1 0x40 DUP3 ADD SWAP1 POP DUP2 DUP2 SUB PUSH1 0x0 DUP4 ADD MSTORE PUSH2 0x5AC8 DUP2 DUP6 PUSH2 0x5A20 JUMP JUMPDEST SWAP1 POP DUP2 DUP2 SUB PUSH1 0x20 DUP4 ADD MSTORE PUSH2 0x5ADC DUP2 DUP5 PUSH2 0x5A75 JUMP JUMPDEST SWAP1 POP SWAP4 SWAP3 POP POP POP JUMP JUMPDEST PUSH1 0x0 DUP2 MLOAD SWAP1 POP SWAP2 SWAP1 POP JUMP JUMPDEST PUSH1 0x0 DUP3 DUP3 MSTORE PUSH1 0x20 DUP3 ADD SWAP1 POP SWAP3 SWAP2 POP POP JUMP JUMPDEST PUSH1 0x0 DUP2 SWAP1 POP PUSH1 0x20 DUP3 ADD SWAP1 POP SWAP2 SWAP1 POP JUMP JUMPDEST PUSH1 0x5 DUP2 LT PUSH2 0x5B22 JUMPI PUSH2 0x5B21 PUSH2 0x5497 JUMP JUMPDEST JUMPDEST POP JUMP JUMPDEST PUSH1 0x0 DUP2 SWAP1 POP PUSH2 0x5B33 DUP3 PUSH2 0x5B11 JUMP JUMPDEST SWAP2 SWAP1 POP JUMP JUMPDEST PUSH1 0x0 PUSH2 0x5B43 DUP3 PUSH2 0x5B25 JUMP JUMPDEST SWAP1 POP SWAP2 SWAP1 POP JUMP JUMPDEST PUSH2 0x5B53 DUP2 PUSH2 0x5B38 JUMP JUMPDEST DUP3 MSTORE POP POP JUMP JUMPDEST PUSH1 0x0 PUSH2 0x5B65 DUP4 DUP4 PUSH2 0x5B4A JUMP JUMPDEST PUSH1 0x20 DUP4 ADD SWAP1 POP SWAP3 SWAP2 POP POP JUMP JUMPDEST PUSH1 0x0 PUSH1 0x20 DUP3 ADD SWAP1 POP SWAP2 SWAP1 POP JUMP JUMPDEST PUSH1 0x0 PUSH2 0x5B89 DUP3 PUSH2 0x5AE5 JUMP JUMPDEST PUSH2 0x5B93 DUP2 DUP6 PUSH2 0x5AF0 JUMP JUMPDEST SWAP4 POP PUSH2 0x5B9E DUP4 PUSH2 0x5B01 JUMP JUMPDEST DUP1 PUSH1 0x0 JUMPDEST DUP4 DUP2 LT ISZERO PUSH2 0x5BCF JUMPI DUP2 MLOAD PUSH2 0x5BB6 DUP9 DUP3 PUSH2 0x5B59 JUMP JUMPDEST SWAP8 POP PUSH2 0x5BC1 DUP4 PUSH2 0x5B71 JUMP JUMPDEST SWAP3 POP POP PUSH1 0x1 DUP2 ADD SWAP1 POP PUSH2 0x5BA2 JUMP JUMPDEST POP DUP6 SWAP4 POP POP POP POP SWAP3 SWAP2 POP POP JUMP JUMPDEST PUSH1 0x0 DUP2 MLOAD SWAP1 POP SWAP2 SWAP1 POP JUMP JUMPDEST PUSH1 0x0 DUP3 DUP3 MSTORE PUSH1 0x20 DUP3 ADD SWAP1 POP SWAP3 SWAP2 POP POP JUMP JUMPDEST PUSH1 0x0 DUP2 SWAP1 POP PUSH1 0x20 DUP3 ADD SWAP1 POP SWAP2 SWAP1 POP JUMP JUMPDEST PUSH1 0x0 DUP3 DUP3 MSTORE PUSH1 0x20 DUP3 ADD SWAP1 POP SWAP3 SWAP2 POP POP JUMP JUMPDEST PUSH1 0x0 PUSH2 0x5C24 DUP3 PUSH2 0x5A59 JUMP JUMPDEST PUSH2 0x5C2E DUP2 DUP6 PUSH2 0x5C08 JUMP JUMPDEST SWAP4 POP PUSH2 0x5C3E DUP2 DUP6 PUSH1 0x20 DUP7 ADD PUSH2 0x4DD4 JUMP JUMPDEST PUSH2 0x5C47 DUP2 PUSH2 0x4966 JUMP JUMPDEST DUP5 ADD SWAP2 POP POP SWAP3 SWAP2 POP POP JUMP JUMPDEST PUSH1 0x0 PUSH2 0x5C5E DUP4 DUP4 PUSH2 0x5C19 JUMP JUMPDEST SWAP1 POP SWAP3 SWAP2 POP POP JUMP JUMPDEST PUSH1 0x0 PUSH1 0x20 DUP3 ADD SWAP1 POP SWAP2 SWAP1 POP JUMP JUMPDEST PUSH1 0x0 PUSH2 0x5C7E DUP3 PUSH2 0x5BDC JUMP JUMPDEST PUSH2 0x5C88 DUP2 DUP6 PUSH2 0x5BE7 JUMP JUMPDEST SWAP4 POP DUP4 PUSH1 0x20 DUP3 MUL DUP6 ADD PUSH2 0x5C9A DUP6 PUSH2 0x5BF8 JUMP JUMPDEST DUP1 PUSH1 0x0 JUMPDEST DUP6 DUP2 LT ISZERO PUSH2 0x5CD6 JUMPI DUP5 DUP5 SUB DUP10 MSTORE DUP2 MLOAD PUSH2 0x5CB7 DUP6 DUP3 PUSH2 0x5C52 JUMP JUMPDEST SWAP5 POP PUSH2 0x5CC2 DUP4 PUSH2 0x5C66 JUMP JUMPDEST SWAP3 POP PUSH1 0x20 DUP11 ADD SWAP10 POP POP PUSH1 0x1 DUP2 ADD SWAP1 POP PUSH2 0x5C9E JUMP JUMPDEST POP DUP3 SWAP8 POP DUP8 SWAP6 POP POP POP POP POP POP SWAP3 SWAP2 POP POP JUMP JUMPDEST PUSH1 0x0 PUSH1 0x40 DUP4 ADD PUSH1 0x0 DUP4 ADD MLOAD DUP5 DUP3 SUB PUSH1 0x0 DUP7 ADD MSTORE PUSH2 0x5D05 DUP3 DUP3 PUSH2 0x5B7E JUMP JUMPDEST SWAP2 POP POP PUSH1 0x20 DUP4 ADD MLOAD DUP5 DUP3 SUB PUSH1 0x20 DUP7 ADD MSTORE PUSH2 0x5D1F DUP3 DUP3 PUSH2 0x5C73 JUMP JUMPDEST SWAP2 POP POP DUP1 SWAP2 POP POP SWAP3 SWAP2 POP POP JUMP JUMPDEST PUSH1 0x0 PUSH1 0x80 DUP3 ADD SWAP1 POP PUSH2 0x5D41 PUSH1 0x0 DUP4 ADD DUP8 PUSH2 0x4D04 JUMP JUMPDEST DUP2 DUP2 SUB PUSH1 0x20 DUP4 ADD MSTORE PUSH2 0x5D53 DUP2 DUP7 PUSH2 0x5A75 JUMP JUMPDEST SWAP1 POP DUP2 DUP2 SUB PUSH1 0x40 DUP4 ADD MSTORE PUSH2 0x5D67 DUP2 DUP6 PUSH2 0x5CE8 JUMP JUMPDEST SWAP1 POP PUSH2 0x5D76 PUSH1 0x60 DUP4 ADD DUP5 PUSH2 0x4D04 JUMP JUMPDEST SWAP6 SWAP5 POP POP POP POP POP JUMP JUMPDEST PUSH2 0x5D88 DUP2 PUSH2 0x4C98 JUMP JUMPDEST DUP2 EQ PUSH2 0x5D93 JUMPI PUSH1 0x0 DUP1 REVERT JUMPDEST POP JUMP JUMPDEST PUSH1 0x0 DUP2 MLOAD SWAP1 POP PUSH2 0x5DA5 DUP2 PUSH2 0x5D7F JUMP JUMPDEST SWAP3 SWAP2 POP POP JUMP JUMPDEST PUSH1 0x0 PUSH1 0x20 DUP3 DUP5 SUB SLT ISZERO PUSH2 0x5DC1 JUMPI PUSH2 0x5DC0 PUSH2 0x4888 JUMP JUMPDEST JUMPDEST PUSH1 0x0 PUSH2 0x5DCF DUP5 DUP3 DUP6 ADD PUSH2 0x5D96 JUMP JUMPDEST SWAP2 POP POP SWAP3 SWAP2 POP POP JUMP INVALID LOG2 PUSH5 0x6970667358 0x22 SLT KECCAK256 COINBASE BYTE 0xD7 0x49 SIGNEXTEND 0xD0 0x2C 0xF 0xCB RETURNDATASIZE 0xD0 MLOAD TIMESTAMP 0xB9 CALLVALUE 0xC9 0x2B 0xC6 0xF9 0x5E 0xEB 0xDD PUSH25 0xC034A31C4ED5333FE364736F6C634300080E00330000000000 "},"methodIdentifiers":{"automate()":"049aacfe","dedicatedMsgSender()":"28f150eb","fundsOwner()":"46ee3c59","gelato1Balance()":"57fb1d67","home_team_score(uint256)":"80eb6d04","moneyLineBet(address,uint256,uint256,uint256,uint256,uint256,string)":"b1e49b99","newMoneyLineBet(uint256)":"8edd3971","newPointSpreadBet(uint256)":"2429827f","newPointTotalBet(uint256)":"a91faba2","pointSpreadBet(address,uint256,uint256,uint256,uint256,uint256,int256,string)":"037081e9","pointTotalBet(address,uint256,uint256,uint256,uint256,uint256,string)":"81142907","returnEscrow()":"7ea4178a","returnMoneyLineBetReceipt(uint256,uint256)":"a910e4a5","returnMoneyLineBetTotal(uint256,uint256)":"47f53fc9","returnOdds(uint256,uint256)":"f227ce4d","returnPointSpreadBetReceipt(uint256,uint256)":"6bd4c7c0","returnPointSpreadBetTotal(uint256,uint256)":"ec5a24d7","returnPointTotalBetReceipt(uint256)":"914989fd","returnPointTotalBetTotal(uint256)":"f782a754","returnReceipts()":"3946f666","rewardMoneyLineWinners(uint256,uint256,uint256)":"03bfeb20","rewardPointSpreadWinners(uint256,uint256,uint256,int256,int256)":"3b51e58a","rewardPointTotalWinners(uint256,uint256)":"8ee95f9f","totalBetOnGame(uint256)":"23821c21","totalBetOnTeam(uint256,uint256)":"2b3a4ef6","userReceipts(address)":"a4786f3d","visitor_team_score(uint256)":"245a2fad"}}}}}