{"contracts/Bet.sol":{"Bet":{"abi":[{"inputs":[],"stateMutability":"nonpayable","type":"constructor"},{"anonymous":false,"inputs":[{"indexed":true,"internalType":"bytes32","name":"id","type":"bytes32"}],"name":"ChainlinkCancelled","type":"event"},{"anonymous":false,"inputs":[{"indexed":true,"internalType":"bytes32","name":"id","type":"bytes32"}],"name":"ChainlinkFulfilled","type":"event"},{"anonymous":false,"inputs":[{"indexed":true,"internalType":"bytes32","name":"id","type":"bytes32"}],"name":"ChainlinkRequested","type":"event"},{"anonymous":false,"inputs":[{"indexed":true,"internalType":"address","name":"from","type":"address"},{"indexed":true,"internalType":"address","name":"to","type":"address"}],"name":"OwnershipTransferRequested","type":"event"},{"anonymous":false,"inputs":[{"indexed":true,"internalType":"address","name":"from","type":"address"},{"indexed":true,"internalType":"address","name":"to","type":"address"}],"name":"OwnershipTransferred","type":"event"},{"anonymous":false,"inputs":[{"indexed":true,"internalType":"bytes32","name":"requestId","type":"bytes32"},{"indexed":false,"internalType":"uint256","name":"game","type":"uint256"},{"indexed":false,"internalType":"uint256","name":"home","type":"uint256"},{"indexed":false,"internalType":"uint256","name":"visitor","type":"uint256"}],"name":"RequestMultipleFulfilled","type":"event"},{"inputs":[],"name":"acceptOwnership","outputs":[],"stateMutability":"nonpayable","type":"function"},{"inputs":[],"name":"automate","outputs":[{"internalType":"contract IAutomate","name":"","type":"address"}],"stateMutability":"view","type":"function"},{"inputs":[],"name":"dedicatedMsgSender","outputs":[{"internalType":"address","name":"","type":"address"}],"stateMutability":"view","type":"function"},{"inputs":[],"name":"depositForCounter","outputs":[],"stateMutability":"payable","type":"function"},{"inputs":[{"internalType":"bytes32","name":"requestId","type":"bytes32"},{"internalType":"uint256","name":"gameResponse","type":"uint256"},{"internalType":"uint256","name":"homeResponse","type":"uint256"},{"internalType":"uint256","name":"visitorResponse","type":"uint256"}],"name":"fulfillMultipleParameters","outputs":[],"stateMutability":"nonpayable","type":"function"},{"inputs":[],"name":"fundsOwner","outputs":[{"internalType":"address","name":"","type":"address"}],"stateMutability":"view","type":"function"},{"inputs":[{"internalType":"uint256","name":"","type":"uint256"}],"name":"home_team_score","outputs":[{"internalType":"uint256","name":"","type":"uint256"}],"stateMutability":"view","type":"function"},{"inputs":[{"internalType":"address","name":"user","type":"address"},{"internalType":"uint256","name":"gameID","type":"uint256"},{"internalType":"uint256","name":"teamID","type":"uint256"},{"internalType":"uint256","name":"homeTeamID","type":"uint256"},{"internalType":"uint256","name":"awayTeamID","type":"uint256"},{"internalType":"uint256","name":"startTime","type":"uint256"}],"name":"moneyLineBet","outputs":[],"stateMutability":"payable","type":"function"},{"inputs":[{"internalType":"uint256","name":"currentGameID","type":"uint256"}],"name":"moneyLineChecker","outputs":[{"internalType":"bool","name":"canExec","type":"bool"},{"internalType":"bytes","name":"execPayload","type":"bytes"}],"stateMutability":"view","type":"function"},{"inputs":[{"internalType":"uint256","name":"","type":"uint256"}],"name":"newMoneyLineBet","outputs":[{"internalType":"uint256","name":"startTime","type":"uint256"},{"internalType":"uint256","name":"total","type":"uint256"},{"internalType":"uint256","name":"homeTeamID","type":"uint256"},{"internalType":"uint256","name":"awayTeamID","type":"uint256"},{"internalType":"uint256","name":"result","type":"uint256"}],"stateMutability":"view","type":"function"},{"inputs":[{"internalType":"uint256","name":"","type":"uint256"}],"name":"newPointSpreadBet","outputs":[{"internalType":"uint256","name":"startTime","type":"uint256"},{"internalType":"uint256","name":"total","type":"uint256"},{"internalType":"uint256","name":"homeTeamID","type":"uint256"},{"internalType":"uint256","name":"awayTeamID","type":"uint256"},{"internalType":"uint256","name":"result","type":"uint256"}],"stateMutability":"view","type":"function"},{"inputs":[{"internalType":"uint256","name":"","type":"uint256"}],"name":"newPointTotalBet","outputs":[{"internalType":"uint256","name":"pointAmount","type":"uint256"},{"internalType":"uint256","name":"startTime","type":"uint256"},{"internalType":"uint256","name":"total","type":"uint256"},{"internalType":"uint256","name":"homeTeamID","type":"uint256"},{"internalType":"uint256","name":"awayTeamID","type":"uint256"},{"internalType":"int256","name":"result","type":"int256"}],"stateMutability":"view","type":"function"},{"inputs":[],"name":"owner","outputs":[{"internalType":"address","name":"","type":"address"}],"stateMutability":"view","type":"function"},{"inputs":[{"internalType":"address","name":"user","type":"address"},{"internalType":"uint256","name":"gameID","type":"uint256"},{"internalType":"uint256","name":"teamID","type":"uint256"},{"internalType":"uint256","name":"homeTeamID","type":"uint256"},{"internalType":"uint256","name":"awayTeamID","type":"uint256"},{"internalType":"uint256","name":"startTime","type":"uint256"},{"internalType":"int256","name":"spread","type":"int256"}],"name":"pointSpreadBet","outputs":[],"stateMutability":"payable","type":"function"},{"inputs":[{"internalType":"address","name":"user","type":"address"},{"internalType":"uint256","name":"gameID","type":"uint256"},{"internalType":"uint256","name":"pointAmount","type":"uint256"},{"internalType":"uint256","name":"homeTeamID","type":"uint256"},{"internalType":"uint256","name":"awayTeamID","type":"uint256"},{"internalType":"uint256","name":"startTime","type":"uint256"},{"internalType":"int256","name":"value","type":"int256"}],"name":"pointTotalBet","outputs":[],"stateMutability":"payable","type":"function"},{"inputs":[{"internalType":"uint256","name":"currentGameID","type":"uint256"}],"name":"requestMultipleParameters","outputs":[],"stateMutability":"nonpayable","type":"function"},{"inputs":[],"name":"returnEscrow","outputs":[{"internalType":"uint256","name":"","type":"uint256"}],"stateMutability":"view","type":"function"},{"inputs":[{"internalType":"uint256","name":"gameID","type":"uint256"},{"internalType":"uint256","name":"teamID","type":"uint256"}],"name":"returnMoneyLineBetReceipt","outputs":[{"components":[{"internalType":"address","name":"addr","type":"address"},{"internalType":"uint256","name":"amount","type":"uint256"},{"internalType":"uint256","name":"teamID","type":"uint256"},{"internalType":"uint256","name":"gameID","type":"uint256"},{"internalType":"string","name":"betType","type":"string"},{"internalType":"uint256","name":"time","type":"uint256"}],"internalType":"struct Bet.Transaction","name":"","type":"tuple"}],"stateMutability":"view","type":"function"},{"inputs":[{"internalType":"uint256","name":"gameID","type":"uint256"}],"name":"returnMoneyLineStartTime","outputs":[{"internalType":"uint256","name":"","type":"uint256"}],"stateMutability":"view","type":"function"},{"inputs":[{"internalType":"uint256","name":"gameID","type":"uint256"},{"internalType":"uint256","name":"teamID","type":"uint256"}],"name":"returnMoneyLineUsersArray","outputs":[{"internalType":"address payable[]","name":"","type":"address[]"}],"stateMutability":"view","type":"function"},{"inputs":[{"internalType":"uint256","name":"gameID","type":"uint256"},{"internalType":"uint256","name":"bettingTeamID","type":"uint256"}],"name":"returnOdds","outputs":[{"internalType":"uint256","name":"","type":"uint256"}],"stateMutability":"view","type":"function"},{"inputs":[{"internalType":"uint256","name":"gameID","type":"uint256"},{"internalType":"uint256","name":"teamID","type":"uint256"}],"name":"returnPointSpreadBetReceipt","outputs":[{"components":[{"internalType":"address","name":"addr","type":"address"},{"internalType":"uint256","name":"amount","type":"uint256"},{"internalType":"uint256","name":"teamID","type":"uint256"},{"internalType":"uint256","name":"gameID","type":"uint256"},{"internalType":"string","name":"betType","type":"string"},{"internalType":"uint256","name":"time","type":"uint256"}],"internalType":"struct Bet.Transaction","name":"","type":"tuple"}],"stateMutability":"view","type":"function"},{"inputs":[{"internalType":"uint256","name":"gameID","type":"uint256"},{"internalType":"uint256","name":"teamID","type":"uint256"}],"name":"returnPointSpreadGameAmount","outputs":[{"internalType":"int256","name":"","type":"int256"}],"stateMutability":"view","type":"function"},{"inputs":[{"internalType":"uint256","name":"gameID","type":"uint256"},{"internalType":"uint256","name":"teamID","type":"uint256"}],"name":"returnPointSpreadUsersArray","outputs":[{"internalType":"address payable[]","name":"","type":"address[]"}],"stateMutability":"view","type":"function"},{"inputs":[{"internalType":"uint256","name":"gameID","type":"uint256"},{"internalType":"int256","name":"value","type":"int256"}],"name":"returnPointTotalBetReceipt","outputs":[{"components":[{"internalType":"address","name":"addr","type":"address"},{"internalType":"uint256","name":"amount","type":"uint256"},{"internalType":"uint256","name":"teamID","type":"uint256"},{"internalType":"uint256","name":"gameID","type":"uint256"},{"internalType":"string","name":"betType","type":"string"},{"internalType":"uint256","name":"time","type":"uint256"}],"internalType":"struct Bet.Transaction","name":"","type":"tuple"}],"stateMutability":"view","type":"function"},{"inputs":[{"internalType":"uint256","name":"gameID","type":"uint256"}],"name":"returnPointTotalGameAmount","outputs":[{"internalType":"uint256","name":"","type":"uint256"}],"stateMutability":"view","type":"function"},{"inputs":[{"internalType":"uint256","name":"gameID","type":"uint256"},{"internalType":"int256","name":"value","type":"int256"}],"name":"returnPointTotalUsersArray","outputs":[{"internalType":"address payable[]","name":"","type":"address[]"}],"stateMutability":"view","type":"function"},{"inputs":[],"name":"returnReceipts","outputs":[{"components":[{"internalType":"address","name":"addr","type":"address"},{"internalType":"uint256","name":"amount","type":"uint256"},{"internalType":"uint256","name":"teamID","type":"uint256"},{"internalType":"uint256","name":"gameID","type":"uint256"},{"internalType":"string","name":"betType","type":"string"},{"internalType":"uint256","name":"time","type":"uint256"}],"internalType":"struct Bet.Transaction[]","name":"","type":"tuple[]"}],"stateMutability":"view","type":"function"},{"inputs":[{"internalType":"uint256","name":"gameID","type":"uint256"}],"name":"returnResponse","outputs":[{"internalType":"uint256","name":"","type":"uint256"}],"stateMutability":"nonpayable","type":"function"},{"inputs":[{"internalType":"uint256","name":"gameID","type":"uint256"}],"name":"rewardMoneyLineWinners","outputs":[],"stateMutability":"nonpayable","type":"function"},{"inputs":[],"name":"taskTreasury","outputs":[{"internalType":"contract ITaskTreasuryUpgradable","name":"","type":"address"}],"stateMutability":"view","type":"function"},{"inputs":[{"internalType":"uint256","name":"","type":"uint256"}],"name":"totalBetOnGame","outputs":[{"internalType":"uint256","name":"","type":"uint256"}],"stateMutability":"view","type":"function"},{"inputs":[{"internalType":"uint256","name":"","type":"uint256"},{"internalType":"uint256","name":"","type":"uint256"}],"name":"totalBetOnTeam","outputs":[{"internalType":"uint256","name":"","type":"uint256"}],"stateMutability":"view","type":"function"},{"inputs":[],"name":"transferEther","outputs":[],"stateMutability":"nonpayable","type":"function"},{"inputs":[{"internalType":"address","name":"to","type":"address"}],"name":"transferOwnership","outputs":[],"stateMutability":"nonpayable","type":"function"},{"inputs":[{"internalType":"address","name":"","type":"address"}],"name":"userReceipts","outputs":[{"internalType":"uint256","name":"escrow","type":"uint256"}],"stateMutability":"view","type":"function"},{"inputs":[{"internalType":"uint256","name":"","type":"uint256"}],"name":"visitor_team_score","outputs":[{"internalType":"uint256","name":"","type":"uint256"}],"stateMutability":"view","type":"function"},{"inputs":[{"internalType":"uint256","name":"_amount","type":"uint256"},{"internalType":"address","name":"_token","type":"address"}],"name":"withdrawFunds","outputs":[],"stateMutability":"nonpayable","type":"function"}],"evm":{"bytecode":{"linkReferences":{},"object":"61012060405260016004553480156200001757600080fd5b5033806000303381308173ffffffffffffffffffffffffffffffffffffffff1660808173ffffffffffffffffffffffffffffffffffffffff16815250508173ffffffffffffffffffffffffffffffffffffffff1663573ea5756040518163ffffffff1660e01b8152600401602060405180830381865afa158015620000a0573d6000803e3d6000fd5b505050506040513d601f19601f82011682018060405250810190620000c69190620006a3565b73ffffffffffffffffffffffffffffffffffffffff1660c08173ffffffffffffffffffffffffffffffffffffffff168152505073c815db16d4be6ddf2685c201937905abf338f5d773ffffffffffffffffffffffffffffffffffffffff1663ded89a7c826040518263ffffffff1660e01b8152600401620001489190620006fa565b6040805180830381865afa15801562000165573d6000803e3d6000fd5b505050506040513d601f19601f820116820180604052508101906200018b919062000785565b508073ffffffffffffffffffffffffffffffffffffffff1660a09073ffffffffffffffffffffffffffffffffffffffff168152505050508073ffffffffffffffffffffffffffffffffffffffff1660e08173ffffffffffffffffffffffffffffffffffffffff168152505060805173ffffffffffffffffffffffffffffffffffffffff1663e60a32136040518163ffffffff1660e01b8152600401602060405180830381865afa15801562000244573d6000803e3d6000fd5b505050506040513d601f19601f820116820180604052508101906200026a919062000811565b73ffffffffffffffffffffffffffffffffffffffff166101008173ffffffffffffffffffffffffffffffffffffffff16815250505050600073ffffffffffffffffffffffffffffffffffffffff168273ffffffffffffffffffffffffffffffffffffffff160362000312576040517f08c379a00000000000000000000000000000000000000000000000000000000081526004016200030990620008a4565b60405180910390fd5b81600660006101000a81548173ffffffffffffffffffffffffffffffffffffffff021916908373ffffffffffffffffffffffffffffffffffffffff160217905550600073ffffffffffffffffffffffffffffffffffffffff168173ffffffffffffffffffffffffffffffffffffffff16146200039a5762000399816200048060201b60201c565b5b50505033600860006101000a81548173ffffffffffffffffffffffffffffffffffffffff021916908373ffffffffffffffffffffffffffffffffffffffff1602179055506200040373326c977e6efc84e512bb9c30f76e30c160ed06fb620005b160201b60201c565b6200042873cc79157eb46f5624204f47ab42b3906caa40eab7620005f560201b60201c565b7f6361393833363663633733313439353762386330313263373266303561656562600981905550600a670de0b6b3a76400006001620004689190620008ff565b6200047491906200098f565b600a8190555062000a39565b3373ffffffffffffffffffffffffffffffffffffffff168173ffffffffffffffffffffffffffffffffffffffff1603620004f1576040517f08c379a0000000000000000000000000000000000000000000000000000000008152600401620004e89062000a17565b60405180910390fd5b80600760006101000a81548173ffffffffffffffffffffffffffffffffffffffff021916908373ffffffffffffffffffffffffffffffffffffffff1602179055508073ffffffffffffffffffffffffffffffffffffffff16600660009054906101000a900473ffffffffffffffffffffffffffffffffffffffff1673ffffffffffffffffffffffffffffffffffffffff167fed8889f560326eb138920d842192f0eb3dd22b4f139c87a2c57538e05bae127860405160405180910390a350565b80600260006101000a81548173ffffffffffffffffffffffffffffffffffffffff021916908373ffffffffffffffffffffffffffffffffffffffff16021790555050565b80600360006101000a81548173ffffffffffffffffffffffffffffffffffffffff021916908373ffffffffffffffffffffffffffffffffffffffff16021790555050565b600080fd5b600073ffffffffffffffffffffffffffffffffffffffff82169050919050565b60006200066b826200063e565b9050919050565b6200067d816200065e565b81146200068957600080fd5b50565b6000815190506200069d8162000672565b92915050565b600060208284031215620006bc57620006bb62000639565b5b6000620006cc848285016200068c565b91505092915050565b6000620006e2826200063e565b9050919050565b620006f481620006d5565b82525050565b6000602082019050620007116000830184620006e9565b92915050565b6200072281620006d5565b81146200072e57600080fd5b50565b600081519050620007428162000717565b92915050565b60008115159050919050565b6200075f8162000748565b81146200076b57600080fd5b50565b6000815190506200077f8162000754565b92915050565b600080604083850312156200079f576200079e62000639565b5b6000620007af8582860162000731565b9250506020620007c2858286016200076e565b9150509250929050565b6000620007d982620006d5565b9050919050565b620007eb81620007cc565b8114620007f757600080fd5b50565b6000815190506200080b81620007e0565b92915050565b6000602082840312156200082a576200082962000639565b5b60006200083a84828501620007fa565b91505092915050565b600082825260208201905092915050565b7f43616e6e6f7420736574206f776e657220746f207a65726f0000000000000000600082015250565b60006200088c60188362000843565b9150620008998262000854565b602082019050919050565b60006020820190508181036000830152620008bf816200087d565b9050919050565b6000819050919050565b7f4e487b7100000000000000000000000000000000000000000000000000000000600052601160045260246000fd5b60006200090c82620008c6565b91506200091983620008c6565b9250817fffffffffffffffffffffffffffffffffffffffffffffffffffffffffffffffff0483118215151615620009555762000954620008d0565b5b828202905092915050565b7f4e487b7100000000000000000000000000000000000000000000000000000000600052601260045260246000fd5b60006200099c82620008c6565b9150620009a983620008c6565b925082620009bc57620009bb62000960565b5b828204905092915050565b7f43616e6e6f74207472616e7366657220746f2073656c66000000000000000000600082015250565b6000620009ff60178362000843565b915062000a0c82620009c7565b602082019050919050565b6000602082019050818103600083015262000a3281620009f0565b9050919050565b60805160a05160c05160e051610100516164d362000a9e600039600081816115d3015281816138c40152613cf0015260008181610de701528181611545015261160f0152600050506000610bc90152600081816109840152613bf001526164d36000f3fe6080604052600436106102255760003560e01c806380ee79c111610123578063a91faba2116100ab578063e60a32131161006f578063e60a32131461088b578063f227ce4d146108b6578063f2fde38b146108f3578063f6d7c7591461091c578063fda4417b1461095957610225565b8063a91faba2146107c2578063b9cafa9614610804578063c9b25f0f1461080e578063ccb7ed4514610825578063d02f0f551461086257610225565b80638edd3971116100f25780638edd3971146106cf57806392a25a6414610710578063a4786f3d1461072c578063a59cba0214610769578063a910e4a51461078557610225565b806380ee79c11461060e578063835f3fec1461064b5780638697ac4e146106675780638da5cb5b146106a457610225565b80633946f666116101b1578063744bfe6111610175578063744bfe611461052957806379ba5097146105525780637e960916146105695780637ea4178a146105a657806380eb6d04146105d157610225565b80633946f6661461043057806346ee3c591461045b5780635658fa101461048657806368989a92146104af5780636bd4c7c0146104ec57610225565b80632429827f116101f85780632429827f1461030d578063245a2fad1461034e57806328f150eb1461038b5780632b3a4ef6146103b65780632e964aae146103f357610225565b8063049aacfe1461022a57806308c27e5a146102555780630e065bd91461029257806323821c21146102d0575b600080fd5b34801561023657600080fd5b5061023f610982565b60405161024c9190614ae1565b60405180910390f35b34801561026157600080fd5b5061027c60048036038101906102779190614b37565b6109a6565b6040516102899190614c47565b60405180910390f35b34801561029e57600080fd5b506102b960048036038101906102b49190614c69565b610a5c565b6040516102c7929190614d4a565b60405180910390f35b3480156102dc57600080fd5b506102f760048036038101906102f29190614c69565b610b61565b6040516103049190614d89565b60405180910390f35b34801561031957600080fd5b50610334600480360381019061032f9190614c69565b610b79565b604051610345959493929190614da4565b60405180910390f35b34801561035a57600080fd5b5061037560048036038101906103709190614c69565b610baf565b6040516103829190614d89565b60405180910390f35b34801561039757600080fd5b506103a0610bc7565b6040516103ad9190614e18565b60405180910390f35b3480156103c257600080fd5b506103dd60048036038101906103d89190614b37565b610beb565b6040516103ea9190614d89565b60405180910390f35b3480156103ff57600080fd5b5061041a60048036038101906104159190614c69565b610c10565b6040516104279190614d89565b60405180910390f35b34801561043c57600080fd5b50610445610c36565b6040516104529190614ff1565b60405180910390f35b34801561046757600080fd5b50610470610de5565b60405161047d9190614e18565b60405180910390f35b34801561049257600080fd5b506104ad60048036038101906104a89190614c69565b610e09565b005b3480156104bb57600080fd5b506104d660048036038101906104d19190614c69565b611394565b6040516104e39190614d89565b60405180910390f35b3480156104f857600080fd5b50610513600480360381019061050e9190614b37565b6113b4565b604051610520919061509c565b60405180910390f35b34801561053557600080fd5b50610550600480360381019061054b91906150ea565b611543565b005b34801561055e57600080fd5b50610567611684565b005b34801561057557600080fd5b50610590600480360381019061058b9190614c69565b61181b565b60405161059d9190614d89565b60405180910390f35b3480156105b257600080fd5b506105bb61183b565b6040516105c89190614d89565b60405180910390f35b3480156105dd57600080fd5b506105f860048036038101906105f39190614c69565b611885565b6040516106059190614d89565b60405180910390f35b34801561061a57600080fd5b5061063560048036038101906106309190615160565b61189d565b604051610642919061509c565b60405180910390f35b610665600480360381019061066091906151a0565b611a2c565b005b34801561067357600080fd5b5061068e60048036038101906106899190614b37565b61206b565b60405161069b9190614c47565b60405180910390f35b3480156106b057600080fd5b506106b9612121565b6040516106c69190614e18565b60405180910390f35b3480156106db57600080fd5b506106f660048036038101906106f19190614c69565b61214b565b604051610707959493929190614da4565b60405180910390f35b61072a60048036038101906107259190615242565b612181565b005b34801561073857600080fd5b50610753600480360381019061074e91906152cf565b612b76565b6040516107609190614d89565b60405180910390f35b610783600480360381019061077e91906151a0565b612b94565b005b34801561079157600080fd5b506107ac60048036038101906107a79190614b37565b613269565b6040516107b9919061509c565b60405180910390f35b3480156107ce57600080fd5b506107e960048036038101906107e49190614c69565b6133f8565b6040516107fb9695949392919061530b565b60405180910390f35b61080c613434565b005b34801561081a57600080fd5b506108236134e4565b005b34801561083157600080fd5b5061084c60048036038101906108479190614b37565b6135df565b604051610859919061536c565b60405180910390f35b34801561086e57600080fd5b5061088960048036038101906108849190614c69565b613611565b005b34801561089757600080fd5b506108a06138c2565b6040516108ad91906153a8565b60405180910390f35b3480156108c257600080fd5b506108dd60048036038101906108d89190614b37565b6138e6565b6040516108ea9190614d89565b60405180910390f35b3480156108ff57600080fd5b5061091a600480360381019061091591906152cf565b613950565b005b34801561092857600080fd5b50610943600480360381019061093e9190615160565b613964565b6040516109509190614c47565b60405180910390f35b34801561096557600080fd5b50610980600480360381019061097b91906153f9565b613a1a565b005b7f000000000000000000000000000000000000000000000000000000000000000081565b6060600f60008481526020019081526020016000206006016000838152602001908152602001600020805480602002602001604051908101604052809291908181526020018280548015610a4f57602002820191906000526020600020905b8160009054906101000a900473ffffffffffffffffffffffffffffffffffffffff1673ffffffffffffffffffffffffffffffffffffffff1681526020019060010190808311610a05575b5050505050905092915050565b600060603073ffffffffffffffffffffffffffffffffffffffff16637e960916846040518263ffffffff1660e01b8152600401610a999190614d89565b602060405180830381865afa158015610ab6573d6000803e3d6000fd5b505050506040513d601f19601f82011682018060405250810190610ada9190615475565b421115610b5b573073ffffffffffffffffffffffffffffffffffffffff16635658fa1084604051602401610b0e9190614d89565b604051602081830303815290604052915060e01b6020820180517bffffffffffffffffffffffffffffffffffffffffffffffffffffffff8381831617835250505050905060019150610b5c565b5b915091565b600c6020528060005260406000206000915090505481565b600f6020528060005260406000206000915090508060010154908060020154908060040154908060050154908060080154905085565b60116020528060005260406000206000915090505481565b7f000000000000000000000000000000000000000000000000000000000000000081565b600d602052816000526040600020602052806000526040600020600091509150505481565b6000610c1b82613611565b60126000838152602001908152602001600020549050919050565b6060600b60003373ffffffffffffffffffffffffffffffffffffffff1673ffffffffffffffffffffffffffffffffffffffff168152602001908152602001600020600101805480602002602001604051908101604052809291908181526020016000905b82821015610ddc57838290600052602060002090600602016040518060c00160405290816000820160009054906101000a900473ffffffffffffffffffffffffffffffffffffffff1673ffffffffffffffffffffffffffffffffffffffff1673ffffffffffffffffffffffffffffffffffffffff168152602001600182015481526020016002820154815260200160038201548152602001600482018054610d41906154d1565b80601f0160208091040260200160405190810160405280929190818152602001828054610d6d906154d1565b8015610dba5780601f10610d8f57610100808354040283529160200191610dba565b820191906000526020600020905b815481529060010190602001808311610d9d57829003601f168201915b5050505050815260200160058201548152505081526020019060010190610c9a565b50505050905090565b7f000000000000000000000000000000000000000000000000000000000000000081565b600080610e1583613611565b60006011600085815260200190815260200160002054118015610e5d575060126000848152602001908152602001600020546011600085815260200190815260200160002054115b15610e9957600e6000848152602001908152602001600020600401549150600e6000848152602001908152602001600020600301549050610f1a565b60006012600085815260200190815260200160002054118015610ee1575060116000848152602001908152602001600020546012600085815260200190815260200160002054115b15610f1957600e6000848152602001908152602001600020600301549150600e60008481526020019081526020016000206004015490505b5b60005b600e60008581526020019081526020016000206005016000848152602001908152602001600020805490508110156111b9576000600e600086815260200190815260200160002060060160008581526020019081526020016000206000600e600088815260200190815260200160002060050160008781526020019081526020016000208481548110610fb357610fb2615502565b5b9060005260206000200160009054906101000a900473ffffffffffffffffffffffffffffffffffffffff1673ffffffffffffffffffffffffffffffffffffffff1673ffffffffffffffffffffffffffffffffffffffff168152602001908152602001600020600101549050600e60008681526020019081526020016000206005016000858152602001908152602001600020828154811061105757611056615502565b5b9060005260206000200160009054906101000a900473ffffffffffffffffffffffffffffffffffffffff1673ffffffffffffffffffffffffffffffffffffffff166108fc600e600088815260200190815260200160002060010154836110bd919061558f565b9081150290604051600060405180830381858888f193505050501580156110e8573d6000803e3d6000fd5b5080600b6000600e60008981526020019081526020016000206005016000888152602001908152602001600020858154811061112757611126615502565b5b9060005260206000200160009054906101000a900473ffffffffffffffffffffffffffffffffffffffff1673ffffffffffffffffffffffffffffffffffffffff1673ffffffffffffffffffffffffffffffffffffffff168152602001908152602001600020600001600082825461119e91906155c0565b925050819055505080806111b1906155f4565b915050610f1d565b5060005b600e600085815260200190815260200160002060050160008381526020019081526020016000208054905081101561138e576000600e600086815260200190815260200160002060060160008481526020019081526020016000206000600e60008881526020019081526020016000206005016000868152602001908152602001600020848154811061125357611252615502565b5b9060005260206000200160009054906101000a900473ffffffffffffffffffffffffffffffffffffffff1673ffffffffffffffffffffffffffffffffffffffff1673ffffffffffffffffffffffffffffffffffffffff16815260200190815260200160002060010154905080600b6000600e6000898152602001908152602001600020600501600087815260200190815260200160002085815481106112fc576112fb615502565b5b9060005260206000200160009054906101000a900473ffffffffffffffffffffffffffffffffffffffff1673ffffffffffffffffffffffffffffffffffffffff1673ffffffffffffffffffffffffffffffffffffffff168152602001908152602001600020600001600082825461137391906155c0565b92505081905550508080611386906155f4565b9150506111bd565b50505050565b600060106000838152602001908152602001600020600001549050919050565b6113bc6148ec565b600f6000848152602001908152602001600020600701600083815260200190815260200160002060003373ffffffffffffffffffffffffffffffffffffffff1673ffffffffffffffffffffffffffffffffffffffff1681526020019081526020016000206040518060c00160405290816000820160009054906101000a900473ffffffffffffffffffffffffffffffffffffffff1673ffffffffffffffffffffffffffffffffffffffff1673ffffffffffffffffffffffffffffffffffffffff1681526020016001820154815260200160028201548152602001600382015481526020016004820180546114af906154d1565b80601f01602080910402602001604051908101604052809291908181526020018280546114db906154d1565b80156115285780601f106114fd57610100808354040283529160200191611528565b820191906000526020600020905b81548152906001019060200180831161150b57829003601f168201915b50505050508152602001600582015481525050905092915050565b7f000000000000000000000000000000000000000000000000000000000000000073ffffffffffffffffffffffffffffffffffffffff163373ffffffffffffffffffffffffffffffffffffffff16146115d1576040517f08c379a00000000000000000000000000000000000000000000000000000000081526004016115c8906156bf565b60405180910390fd5b7f000000000000000000000000000000000000000000000000000000000000000073ffffffffffffffffffffffffffffffffffffffff16631c20fadd7f000000000000000000000000000000000000000000000000000000000000000083856040518463ffffffff1660e01b815260040161164e939291906156ee565b600060405180830381600087803b15801561166857600080fd5b505af115801561167c573d6000803e3d6000fd5b505050505050565b600760009054906101000a900473ffffffffffffffffffffffffffffffffffffffff1673ffffffffffffffffffffffffffffffffffffffff163373ffffffffffffffffffffffffffffffffffffffff1614611714576040517f08c379a000000000000000000000000000000000000000000000000000000000815260040161170b90615771565b60405180910390fd5b6000600660009054906101000a900473ffffffffffffffffffffffffffffffffffffffff16905033600660006101000a81548173ffffffffffffffffffffffffffffffffffffffff021916908373ffffffffffffffffffffffffffffffffffffffff1602179055506000600760006101000a81548173ffffffffffffffffffffffffffffffffffffffff021916908373ffffffffffffffffffffffffffffffffffffffff1602179055503373ffffffffffffffffffffffffffffffffffffffff168173ffffffffffffffffffffffffffffffffffffffff167f8be0079c531659141344cd1fd0a4f28419497f9722a3daafe3b4186f6b6457e060405160405180910390a350565b6000600e6000838152602001908152602001600020600001549050919050565b6000600b60003373ffffffffffffffffffffffffffffffffffffffff1673ffffffffffffffffffffffffffffffffffffffff16815260200190815260200160002060000154905090565b60126020528060005260406000206000915090505481565b6118a56148ec565b60106000848152602001908152602001600020600701600083815260200190815260200160002060003373ffffffffffffffffffffffffffffffffffffffff1673ffffffffffffffffffffffffffffffffffffffff1681526020019081526020016000206040518060c00160405290816000820160009054906101000a900473ffffffffffffffffffffffffffffffffffffffff1673ffffffffffffffffffffffffffffffffffffffff1673ffffffffffffffffffffffffffffffffffffffff168152602001600182015481526020016002820154815260200160038201548152602001600482018054611998906154d1565b80601f01602080910402602001604051908101604052809291908181526020018280546119c4906154d1565b8015611a115780601f106119e657610100808354040283529160200191611a11565b820191906000526020600020905b8154815290600101906020018083116119f457829003601f168201915b50505050508152602001600582015481525050905092915050565b828403611a3857600080fd5b8673ffffffffffffffffffffffffffffffffffffffff163373ffffffffffffffffffffffffffffffffffffffff1614611aa6576040517f08c379a0000000000000000000000000000000000000000000000000000000008152600401611a9d90615803565b60405180910390fd5b60003411611ae9576040517f08c379a0000000000000000000000000000000000000000000000000000000008152600401611ae09061586f565b60405180910390fd5b60006064600534611afa919061588f565b611b04919061558f565b905060006064605f34611b17919061588f565b611b21919061558f565b90506000601060008a815260200190815260200160002090506000600b60003373ffffffffffffffffffffffffffffffffffffffff1673ffffffffffffffffffffffffffffffffffffffff1681526020019081526020016000206001019050600082600701600087815260200190815260200160002060003373ffffffffffffffffffffffffffffffffffffffff1673ffffffffffffffffffffffffffffffffffffffff168152602001908152602001600020905060008360060160008881526020019081526020016000209050600860009054906101000a900473ffffffffffffffffffffffffffffffffffffffff1673ffffffffffffffffffffffffffffffffffffffff166108fc879081150290604051600060405180830381858888f19350505050158015611c57573d6000803e3d6000fd5b5084600b60003373ffffffffffffffffffffffffffffffffffffffff1673ffffffffffffffffffffffffffffffffffffffff1681526020019081526020016000206000016000828254611caa91906158e9565b92505081905550826040518060c001604052803373ffffffffffffffffffffffffffffffffffffffff168152602001878152602001600081526020018e81526020016040518060400160405280600b81526020017f506f696e7420546f74616c000000000000000000000000000000000000000000815250815260200142815250908060018154018082558091505060019003906000526020600020906006020160009091909190915060008201518160000160006101000a81548173ffffffffffffffffffffffffffffffffffffffff021916908373ffffffffffffffffffffffffffffffffffffffff1602179055506020820151816001015560408201518160020155606082015181600301556080820151816004019080519060200190611dd5929190614938565b5060a08201518160050155505034600c60008e81526020019081526020016000206000828254611e0591906158e9565b9250508190555084846002016000828254611e2091906158e9565b92505081905550848460030160008981526020019081526020016000206000828254611e4c91906158e9565b925050819055508984600401819055508884600501819055508784600101819055508a84600001819055503373ffffffffffffffffffffffffffffffffffffffff16601060008e8152602001908152602001600020600701600089815260200190815260200160002060003373ffffffffffffffffffffffffffffffffffffffff1673ffffffffffffffffffffffffffffffffffffffff16815260200190815260200160002060000160009054906101000a900473ffffffffffffffffffffffffffffffffffffffff1673ffffffffffffffffffffffffffffffffffffffff1614611f945780339080600181540180825580915050600190039060005260206000200160009091909190916101000a81548173ffffffffffffffffffffffffffffffffffffffff021916908373ffffffffffffffffffffffffffffffffffffffff1602179055505b338260000160006101000a81548173ffffffffffffffffffffffffffffffffffffffff021916908373ffffffffffffffffffffffffffffffffffffffff16021790555084826001016000828254611feb91906158e9565b92505081905550600082600201819055508b82600301819055506040518060400160405280600b81526020017f506f696e7420546f74616c000000000000000000000000000000000000000000815250826004019080519060200190612052929190614938565b5042826005018190555050505050505050505050505050565b6060600e6000848152602001908152602001600020600501600083815260200190815260200160002080548060200260200160405190810160405280929190818152602001828054801561211457602002820191906000526020600020905b8160009054906101000a900473ffffffffffffffffffffffffffffffffffffffff1673ffffffffffffffffffffffffffffffffffffffff16815260200190600101908083116120ca575b5050505050905092915050565b6000600660009054906101000a900473ffffffffffffffffffffffffffffffffffffffff16905090565b600e6020528060005260406000206000915090508060000154908060010154908060030154908060040154908060070154905085565b81830361218d57600080fd5b8573ffffffffffffffffffffffffffffffffffffffff163373ffffffffffffffffffffffffffffffffffffffff16146121fb576040517f08c379a00000000000000000000000000000000000000000000000000000000081526004016121f290615803565b60405180910390fd5b6000341161223e576040517f08c379a00000000000000000000000000000000000000000000000000000000081526004016122359061586f565b60405180910390fd5b8284148061224b57508184145b61228a576040517f08c379a0000000000000000000000000000000000000000000000000000000008152600401612281906159b1565b60405180910390fd5b6000600e600087815260200190815260200160002060010154036125c55760006040518060400160405280600367ffffffffffffffff8111156122d0576122cf6159d1565b5b6040519080825280602002602001820160405280156122fe5781602001602082028036833780820191505090505b508152602001600367ffffffffffffffff81111561231f5761231e6159d1565b5b60405190808252806020026020018201604052801561235257816020015b606081526020019060019003908161233d5790505b5081525090506000816000015160008151811061237257612371615502565b5b6020026020010190600381111561238c5761238b615a00565b5b908160038111156123a05761239f615a00565b5b81525050600281600001516001815181106123be576123bd615502565b5b602002602001019060038111156123d8576123d7615a00565b5b908160038111156123ec576123eb615a00565b5b815250506003816000015160028151811061240a57612409615502565b5b6020026020010190600381111561242457612423615a00565b5b9081600381111561243857612437615a00565b5b815250506124b4303073ffffffffffffffffffffffffffffffffffffffff16630e065bd98960405160240161246d9190614d89565b604051602081830303815290604052915060e01b6020820180517bffffffffffffffffffffffffffffffffffffffffffffffffffffffff8381831617835250505050613b92565b81602001516000815181106124cc576124cb615502565b5b60200260200101819052506124df613bbe565b81602001516001815181106124f7576124f6615502565b5b602002602001018190525061250a613bd5565b816020015160028151811061252257612521615502565b5b60200260200101819052506125c230635658fa1060e01b8860405160240161254a9190614d89565b604051602081830303815290604052907bffffffffffffffffffffffffffffffffffffffffffffffffffffffff19166020820180517bffffffffffffffffffffffffffffffffffffffffffffffffffffffff83818316178352505050508373eeeeeeeeeeeeeeeeeeeeeeeeeeeeeeeeeeeeeeee613bec565b50505b600060646005346125d6919061588f565b6125e0919061558f565b905060006064605f346125f3919061588f565b6125fd919061558f565b90506000600e600089815260200190815260200160002090506000600b60003373ffffffffffffffffffffffffffffffffffffffff1673ffffffffffffffffffffffffffffffffffffffff168152602001908152602001600020600101905060008260060160008a815260200190815260200160002060003373ffffffffffffffffffffffffffffffffffffffff1673ffffffffffffffffffffffffffffffffffffffff168152602001908152602001600020905060008360050160008b81526020019081526020016000209050600860009054906101000a900473ffffffffffffffffffffffffffffffffffffffff1673ffffffffffffffffffffffffffffffffffffffff166108fc879081150290604051600060405180830381858888f19350505050158015612733573d6000803e3d6000fd5b5084600b60003373ffffffffffffffffffffffffffffffffffffffff1673ffffffffffffffffffffffffffffffffffffffff168152602001908152602001600020600001600082825461278691906158e9565b92505081905550826040518060c001604052803373ffffffffffffffffffffffffffffffffffffffff1681526020018781526020018c81526020018d81526020016040518060400160405280600a81526020017f4d6f6e6579204c696e6500000000000000000000000000000000000000000000815250815260200142815250908060018154018082558091505060019003906000526020600020906006020160009091909190915060008201518160000160006101000a81548173ffffffffffffffffffffffffffffffffffffffff021916908373ffffffffffffffffffffffffffffffffffffffff16021790555060208201518160010155604082015181600201556060820151816003015560808201518160040190805190602001906128b0929190614938565b5060a08201518160050155505034600c60008d815260200190815260200160002060008282546128e091906158e9565b9250508190555034600d60008d815260200190815260200160002060008c8152602001908152602001600020600082825461291b91906158e9565b925050819055508484600101600082825461293691906158e9565b92505081905550848460020160008c8152602001908152602001600020600082825461296291906158e9565b925050819055508884600301819055508784600401819055508684600001819055503373ffffffffffffffffffffffffffffffffffffffff16600e60008d815260200190815260200160002060060160008c815260200190815260200160002060003373ffffffffffffffffffffffffffffffffffffffff1673ffffffffffffffffffffffffffffffffffffffff16815260200190815260200160002060000160009054906101000a900473ffffffffffffffffffffffffffffffffffffffff1673ffffffffffffffffffffffffffffffffffffffff1614612aa15780339080600181540180825580915050600190039060005260206000200160009091909190916101000a81548173ffffffffffffffffffffffffffffffffffffffff021916908373ffffffffffffffffffffffffffffffffffffffff1602179055505b338260000160006101000a81548173ffffffffffffffffffffffffffffffffffffffff021916908373ffffffffffffffffffffffffffffffffffffffff16021790555084826001016000828254612af891906158e9565b925050819055508982600201819055508a82600301819055506040518060400160405280600a81526020017f4d6f6e6579204c696e6500000000000000000000000000000000000000000000815250826004019080519060200190612b5e929190614938565b50428260050181905550505050505050505050505050565b600b6020528060005260406000206000915090508060000154905081565b828403612ba057600080fd5b8673ffffffffffffffffffffffffffffffffffffffff163373ffffffffffffffffffffffffffffffffffffffff1614612c0e576040517f08c379a0000000000000000000000000000000000000000000000000000000008152600401612c0590615803565b60405180910390fd5b60003411612c51576040517f08c379a0000000000000000000000000000000000000000000000000000000008152600401612c489061586f565b60405180910390fd5b83851480612c5e57508285145b612c9d576040517f08c379a0000000000000000000000000000000000000000000000000000000008152600401612c94906159b1565b60405180910390fd5b60006064600534612cae919061588f565b612cb8919061558f565b905060006064605f34612ccb919061588f565b612cd5919061558f565b90506000600f60008a815260200190815260200160002090506000600b60003373ffffffffffffffffffffffffffffffffffffffff1673ffffffffffffffffffffffffffffffffffffffff168152602001908152602001600020600101905060008260070160008b815260200190815260200160002060003373ffffffffffffffffffffffffffffffffffffffff1673ffffffffffffffffffffffffffffffffffffffff168152602001908152602001600020905060008360060160008c81526020019081526020016000209050600860009054906101000a900473ffffffffffffffffffffffffffffffffffffffff1673ffffffffffffffffffffffffffffffffffffffff166108fc879081150290604051600060405180830381858888f19350505050158015612e0b573d6000803e3d6000fd5b5084600b60003373ffffffffffffffffffffffffffffffffffffffff1673ffffffffffffffffffffffffffffffffffffffff1681526020019081526020016000206000016000828254612e5e91906158e9565b92505081905550826040518060c001604052803373ffffffffffffffffffffffffffffffffffffffff1681526020018781526020018d81526020018e81526020016040518060400160405280600c81526020017f506f696e74205370726561640000000000000000000000000000000000000000815250815260200142815250908060018154018082558091505060019003906000526020600020906006020160009091909190915060008201518160000160006101000a81548173ffffffffffffffffffffffffffffffffffffffff021916908373ffffffffffffffffffffffffffffffffffffffff1602179055506020820151816001015560408201518160020155606082015181600301556080820151816004019080519060200190612f88929190614938565b5060a08201518160050155505034600c60008e81526020019081526020016000206000828254612fb891906158e9565b9250508190555034600d60008e815260200190815260200160002060008d81526020019081526020016000206000828254612ff391906158e9565b925050819055508484600201600082825461300e91906158e9565b92505081905550848460030160008d8152602001908152602001600020600082825461303a91906158e9565b92505081905550898460040181905550888460050181905550878460010181905550868460000160008d8152602001908152602001600020819055503373ffffffffffffffffffffffffffffffffffffffff16600f60008e815260200190815260200160002060070160008d815260200190815260200160002060003373ffffffffffffffffffffffffffffffffffffffff1673ffffffffffffffffffffffffffffffffffffffff16815260200190815260200160002060000160009054906101000a900473ffffffffffffffffffffffffffffffffffffffff1673ffffffffffffffffffffffffffffffffffffffff16146131935780339080600181540180825580915050600190039060005260206000200160009091909190916101000a81548173ffffffffffffffffffffffffffffffffffffffff021916908373ffffffffffffffffffffffffffffffffffffffff1602179055505b338260000160006101000a81548173ffffffffffffffffffffffffffffffffffffffff021916908373ffffffffffffffffffffffffffffffffffffffff160217905550848260010160008282546131ea91906158e9565b925050819055508a82600201819055508b82600301819055506040518060400160405280600c81526020017f506f696e74205370726561640000000000000000000000000000000000000000815250826004019080519060200190613250929190614938565b5042826005018190555050505050505050505050505050565b6132716148ec565b600e6000848152602001908152602001600020600601600083815260200190815260200160002060003373ffffffffffffffffffffffffffffffffffffffff1673ffffffffffffffffffffffffffffffffffffffff1681526020019081526020016000206040518060c00160405290816000820160009054906101000a900473ffffffffffffffffffffffffffffffffffffffff1673ffffffffffffffffffffffffffffffffffffffff1673ffffffffffffffffffffffffffffffffffffffff168152602001600182015481526020016002820154815260200160038201548152602001600482018054613364906154d1565b80601f0160208091040260200160405190810160405280929190818152602001828054613390906154d1565b80156133dd5780601f106133b2576101008083540402835291602001916133dd565b820191906000526020600020905b8154815290600101906020018083116133c057829003601f168201915b50505050508152602001600582015481525050905092915050565b60106020528060005260406000206000915090508060000154908060010154908060020154908060040154908060050154908060080154905086565b600860009054906101000a900473ffffffffffffffffffffffffffffffffffffffff1673ffffffffffffffffffffffffffffffffffffffff163373ffffffffffffffffffffffffffffffffffffffff16146134c4576040517f08c379a00000000000000000000000000000000000000000000000000000000081526004016134bb90615a7b565b60405180910390fd5b6134e23473eeeeeeeeeeeeeeeeeeeeeeeeeeeeeeeeeeeeeeee613c9a565b565b600860009054906101000a900473ffffffffffffffffffffffffffffffffffffffff1673ffffffffffffffffffffffffffffffffffffffff163373ffffffffffffffffffffffffffffffffffffffff1614613574576040517f08c379a000000000000000000000000000000000000000000000000000000000815260040161356b90615a7b565b60405180910390fd5b600860009054906101000a900473ffffffffffffffffffffffffffffffffffffffff1673ffffffffffffffffffffffffffffffffffffffff166108fc479081150290604051600060405180830381858888f193505050501580156135dc573d6000803e3d6000fd5b50565b6000600f6000848152602001908152602001600020600001600083815260200190815260200160002054905092915050565b60006136276009543063fda4417b60e01b613d83565b9050600061363483613db4565b6040516020016136449190615b49565b604051602081830303815290604052905061369f6040518060400160405280600781526020017f75726c47616d65000000000000000000000000000000000000000000000000008152508284613f269092919063ffffffff16565b61371e6040518060400160405280600881526020017f7061746847616d650000000000000000000000000000000000000000000000008152506040518060400160405280600281526020017f696400000000000000000000000000000000000000000000000000000000000081525084613f269092919063ffffffff16565b6137686040518060400160405280600781526020017f75726c486f6d65000000000000000000000000000000000000000000000000008152508284613f269092919063ffffffff16565b6137e76040518060400160405280600881526020017f70617468486f6d650000000000000000000000000000000000000000000000008152506040518060400160405280600f81526020017f686f6d655f7465616d5f73636f7265000000000000000000000000000000000081525084613f269092919063ffffffff16565b6138316040518060400160405280600a81526020017f75726c56697369746f72000000000000000000000000000000000000000000008152508284613f269092919063ffffffff16565b6138b06040518060400160405280600b81526020017f7061746856697369746f720000000000000000000000000000000000000000008152506040518060400160405280601281526020017f76697369746f725f7465616d5f73636f7265000000000000000000000000000081525084613f269092919063ffffffff16565b6138bc82600a54613f59565b50505050565b7f000000000000000000000000000000000000000000000000000000000000000081565b600080600d600085815260200190815260200160002060008481526020019081526020016000205490506000600c6000868152602001908152602001600020549050600081606484613938919061588f565b613942919061558f565b905080935050505092915050565b613958613f90565b61396181614022565b50565b6060601060008481526020019081526020016000206006016000838152602001908152602001600020805480602002602001604051908101604052809291908181526020018280548015613a0d57602002820191906000526020600020905b8160009054906101000a900473ffffffffffffffffffffffffffffffffffffffff1673ffffffffffffffffffffffffffffffffffffffff16815260200190600101908083116139c3575b5050505050905092915050565b836005600082815260200190815260200160002060009054906101000a900473ffffffffffffffffffffffffffffffffffffffff1673ffffffffffffffffffffffffffffffffffffffff163373ffffffffffffffffffffffffffffffffffffffff1614613abc576040517f08c379a0000000000000000000000000000000000000000000000000000000008152600401613ab390615bdd565b60405180910390fd5b6005600082815260200190815260200160002060006101000a81549073ffffffffffffffffffffffffffffffffffffffff0219169055807f7cc135e0cebb02c3480ae5d74d377283180a2601f8f644edf7987b009316c63a60405160405180910390a2847fd8422588c680817fe4971ef8a5fe6a6b5df0d7cd4537eabef7fb17750e4187a7858585604051613b5393929190615bfd565b60405180910390a28260126000868152602001908152602001600020819055508160116000868152602001908152602001600020819055505050505050565b60608282604051602001613ba7929190615c34565b604051602081830303815290604052905092915050565b606060405180602001604052806000815250905090565b606060405180602001604052806000815250905090565b60007f000000000000000000000000000000000000000000000000000000000000000073ffffffffffffffffffffffffffffffffffffffff16633323b467868686866040518563ffffffff1660e01b8152600401613c4d9493929190615eab565b6020604051808303816000875af1158015613c6c573d6000803e3d6000fd5b505050506040513d601f19601f82011682018060405250810190613c909190615f13565b9050949350505050565b600073eeeeeeeeeeeeeeeeeeeeeeeeeeeeeeeeeeeeeeee73ffffffffffffffffffffffffffffffffffffffff168273ffffffffffffffffffffffffffffffffffffffff1614613cea576000613cec565b825b90507f000000000000000000000000000000000000000000000000000000000000000073ffffffffffffffffffffffffffffffffffffffff1663c1461d57823085876040518563ffffffff1660e01b8152600401613d4c93929190615f40565b6000604051808303818588803b158015613d6557600080fd5b505af1158015613d79573d6000803e3d6000fd5b5050505050505050565b613d8b6149be565b613d936149be565b613daa85858584614150909392919063ffffffff16565b9150509392505050565b606060008203613dfb576040518060400160405280600181526020017f30000000000000000000000000000000000000000000000000000000000000008152509050613f21565b600082905060005b60008214613e2d578080613e16906155f4565b915050600a82613e26919061558f565b9150613e03565b60008167ffffffffffffffff811115613e4957613e486159d1565b5b6040519080825280601f01601f191660200182016040528015613e7b5781602001600182028036833780820191505090505b50905060008290505b60008614613f1957600181613e9991906155c0565b90506000600a87613eaa9190615f77565b6030613eb691906158e9565b905060008160f81b905080848481518110613ed457613ed3615502565b5b60200101907effffffffffffffffffffffffffffffffffffffffffffffffffffffffffffff1916908160001a905350600a88613f10919061558f565b97505050613e84565b819450505050505b919050565b613f3d82846080015161420090919063ffffffff16565b613f5481846080015161420090919063ffffffff16565b505050565b6000613f88600360009054906101000a900473ffffffffffffffffffffffffffffffffffffffff168484614225565b905092915050565b600660009054906101000a900473ffffffffffffffffffffffffffffffffffffffff1673ffffffffffffffffffffffffffffffffffffffff163373ffffffffffffffffffffffffffffffffffffffff1614614020576040517f08c379a000000000000000000000000000000000000000000000000000000000815260040161401790615ff4565b60405180910390fd5b565b3373ffffffffffffffffffffffffffffffffffffffff168173ffffffffffffffffffffffffffffffffffffffff1603614090576040517f08c379a000000000000000000000000000000000000000000000000000000000815260040161408790616060565b60405180910390fd5b80600760006101000a81548173ffffffffffffffffffffffffffffffffffffffff021916908373ffffffffffffffffffffffffffffffffffffffff1602179055508073ffffffffffffffffffffffffffffffffffffffff16600660009054906101000a900473ffffffffffffffffffffffffffffffffffffffff1673ffffffffffffffffffffffffffffffffffffffff167fed8889f560326eb138920d842192f0eb3dd22b4f139c87a2c57538e05bae127860405160405180910390a350565b6141586149be565b61416885608001516101006142f1565b508385600001818152505082856020019073ffffffffffffffffffffffffffffffffffffffff16908173ffffffffffffffffffffffffffffffffffffffff16815250508185604001907bffffffffffffffffffffffffffffffffffffffffffffffffffffffff191690817bffffffffffffffffffffffffffffffffffffffffffffffffffffffff191681525050849050949350505050565b61420d826003835161435b565b61422081836144e090919063ffffffff16565b505050565b600080600454905060018161423a91906158e9565b6004819055506000634042994660e01b60008087600001513089604001518760018c608001516000015160405160240161427b9897969594939291906160ca565b604051602081830303815290604052907bffffffffffffffffffffffffffffffffffffffffffffffffffffffff19166020820180517bffffffffffffffffffffffffffffffffffffffffffffffffffffffff838183161783525050505090506142e686838684614502565b925050509392505050565b6142f9614a2b565b60006020836143089190615f77565b146143345760208261431a9190615f77565b602061432691906155c0565b8261433191906158e9565b91505b81836020018181525050604051808452600081528281016020016040525082905092915050565b60178167ffffffffffffffff16116143925761438c8160058460ff16901b60ff16178461469790919063ffffffff16565b506144db565b60ff8167ffffffffffffffff16116143e8576143c1601860058460ff16901b178461469790919063ffffffff16565b506143e28167ffffffffffffffff166001856146b79092919063ffffffff16565b506144da565b61ffff8167ffffffffffffffff161161443f57614418601960058460ff16901b178461469790919063ffffffff16565b506144398167ffffffffffffffff166002856146b79092919063ffffffff16565b506144d9565b63ffffffff8167ffffffffffffffff161161449857614471601a60058460ff16901b178461469790919063ffffffff16565b506144928167ffffffffffffffff166004856146b79092919063ffffffff16565b506144d8565b6144b5601b60058460ff16901b178461469790919063ffffffff16565b506144d68167ffffffffffffffff166008856146b79092919063ffffffff16565b505b5b5b5b505050565b6144e8614a2b565b6144fa838460000151518485516146d9565b905092915050565b600030846040516020016145179291906161ca565b604051602081830303815290604052805190602001209050846005600083815260200190815260200160002060006101000a81548173ffffffffffffffffffffffffffffffffffffffff021916908373ffffffffffffffffffffffffffffffffffffffff160217905550807fb5e6e01e79f91267dc17b4e6314d5d4d03593d2ceee0fbb452b750bd70ea5af960405160405180910390a2600260009054906101000a900473ffffffffffffffffffffffffffffffffffffffff1673ffffffffffffffffffffffffffffffffffffffff16634000aea08685856040518463ffffffff1660e01b815260040161460d939291906161f6565b6020604051808303816000875af115801561462c573d6000803e3d6000fd5b505050506040513d601f19601f820116820180604052508101906146509190616260565b61468f576040517f08c379a0000000000000000000000000000000000000000000000000000000008152600401614686906162ff565b60405180910390fd5b949350505050565b61469f614a2b565b6146af83846000015151846147c8565b905092915050565b6146bf614a2b565b6146d084856000015151858561481e565b90509392505050565b6146e1614a2b565b82518211156146ef57600080fd5b8460200151828561470091906158e9565b1115614735576147348560026147258860200151888761472091906158e9565b6148ac565b61472f919061588f565b6148c8565b5b6000808651805187602083010193508088870111156147545787860182525b60208701925050505b6020841061479b578051825260208261477691906158e9565b915060208161478591906158e9565b905060208461479491906155c0565b935061475d565b60006001856020036101000a03905080198251168184511681811785525050508692505050949350505050565b6147d0614a2b565b836020015183106147f6576147f584600286602001516147f0919061588f565b6148c8565b5b83518051602085830101848153818603614811576001820183525b5050508390509392505050565b614826614a2b565b8460200151848361483791906158e9565b111561485f5761485e856002868561484f91906158e9565b614859919061588f565b6148c8565b5b60006001836101006148719190616452565b61487b91906155c0565b9050855183868201018583198251161781528151858801111561489e5784870182525b505085915050949350505050565b6000818311156148be578290506148c2565b8190505b92915050565b6000826000015190506148db83836142f1565b506148e683826144e0565b50505050565b6040518060c00160405280600073ffffffffffffffffffffffffffffffffffffffff16815260200160008152602001600081526020016000815260200160608152602001600081525090565b828054614944906154d1565b90600052602060002090601f01602090048101928261496657600085556149ad565b82601f1061497f57805160ff19168380011785556149ad565b828001600101855582156149ad579182015b828111156149ac578251825591602001919060010190614991565b5b5090506149ba9190614a45565b5090565b6040518060a0016040528060008019168152602001600073ffffffffffffffffffffffffffffffffffffffff16815260200160007bffffffffffffffffffffffffffffffffffffffffffffffffffffffff1916815260200160008152602001614a25614a2b565b81525090565b604051806040016040528060608152602001600081525090565b5b80821115614a5e576000816000905550600101614a46565b5090565b600073ffffffffffffffffffffffffffffffffffffffff82169050919050565b6000819050919050565b6000614aa7614aa2614a9d84614a62565b614a82565b614a62565b9050919050565b6000614ab982614a8c565b9050919050565b6000614acb82614aae565b9050919050565b614adb81614ac0565b82525050565b6000602082019050614af66000830184614ad2565b92915050565b600080fd5b6000819050919050565b614b1481614b01565b8114614b1f57600080fd5b50565b600081359050614b3181614b0b565b92915050565b60008060408385031215614b4e57614b4d614afc565b5b6000614b5c85828601614b22565b9250506020614b6d85828601614b22565b9150509250929050565b600081519050919050565b600082825260208201905092915050565b6000819050602082019050919050565b6000614bae82614a62565b9050919050565b614bbe81614ba3565b82525050565b6000614bd08383614bb5565b60208301905092915050565b6000602082019050919050565b6000614bf482614b77565b614bfe8185614b82565b9350614c0983614b93565b8060005b83811015614c3a578151614c218882614bc4565b9750614c2c83614bdc565b925050600181019050614c0d565b5085935050505092915050565b60006020820190508181036000830152614c618184614be9565b905092915050565b600060208284031215614c7f57614c7e614afc565b5b6000614c8d84828501614b22565b91505092915050565b60008115159050919050565b614cab81614c96565b82525050565b600081519050919050565b600082825260208201905092915050565b60005b83811015614ceb578082015181840152602081019050614cd0565b83811115614cfa576000848401525b50505050565b6000601f19601f8301169050919050565b6000614d1c82614cb1565b614d268185614cbc565b9350614d36818560208601614ccd565b614d3f81614d00565b840191505092915050565b6000604082019050614d5f6000830185614ca2565b8181036020830152614d718184614d11565b90509392505050565b614d8381614b01565b82525050565b6000602082019050614d9e6000830184614d7a565b92915050565b600060a082019050614db96000830188614d7a565b614dc66020830187614d7a565b614dd36040830186614d7a565b614de06060830185614d7a565b614ded6080830184614d7a565b9695505050505050565b6000614e0282614a62565b9050919050565b614e1281614df7565b82525050565b6000602082019050614e2d6000830184614e09565b92915050565b600081519050919050565b600082825260208201905092915050565b6000819050602082019050919050565b614e6881614df7565b82525050565b614e7781614b01565b82525050565b600081519050919050565b600082825260208201905092915050565b6000614ea482614e7d565b614eae8185614e88565b9350614ebe818560208601614ccd565b614ec781614d00565b840191505092915050565b600060c083016000830151614eea6000860182614e5f565b506020830151614efd6020860182614e6e565b506040830151614f106040860182614e6e565b506060830151614f236060860182614e6e565b5060808301518482036080860152614f3b8282614e99565b91505060a0830151614f5060a0860182614e6e565b508091505092915050565b6000614f678383614ed2565b905092915050565b6000602082019050919050565b6000614f8782614e33565b614f918185614e3e565b935083602082028501614fa385614e4f565b8060005b85811015614fdf5784840389528151614fc08582614f5b565b9450614fcb83614f6f565b925060208a01995050600181019050614fa7565b50829750879550505050505092915050565b6000602082019050818103600083015261500b8184614f7c565b905092915050565b600060c08301600083015161502b6000860182614e5f565b50602083015161503e6020860182614e6e565b5060408301516150516040860182614e6e565b5060608301516150646060860182614e6e565b506080830151848203608086015261507c8282614e99565b91505060a083015161509160a0860182614e6e565b508091505092915050565b600060208201905081810360008301526150b68184615013565b905092915050565b6150c781614df7565b81146150d257600080fd5b50565b6000813590506150e4816150be565b92915050565b6000806040838503121561510157615100614afc565b5b600061510f85828601614b22565b9250506020615120858286016150d5565b9150509250929050565b6000819050919050565b61513d8161512a565b811461514857600080fd5b50565b60008135905061515a81615134565b92915050565b6000806040838503121561517757615176614afc565b5b600061518585828601614b22565b92505060206151968582860161514b565b9150509250929050565b600080600080600080600060e0888a0312156151bf576151be614afc565b5b60006151cd8a828b016150d5565b97505060206151de8a828b01614b22565b96505060406151ef8a828b01614b22565b95505060606152008a828b01614b22565b94505060806152118a828b01614b22565b93505060a06152228a828b01614b22565b92505060c06152338a828b0161514b565b91505092959891949750929550565b60008060008060008060c0878903121561525f5761525e614afc565b5b600061526d89828a016150d5565b965050602061527e89828a01614b22565b955050604061528f89828a01614b22565b94505060606152a089828a01614b22565b93505060806152b189828a01614b22565b92505060a06152c289828a01614b22565b9150509295509295509295565b6000602082840312156152e5576152e4614afc565b5b60006152f3848285016150d5565b91505092915050565b6153058161512a565b82525050565b600060c0820190506153206000830189614d7a565b61532d6020830188614d7a565b61533a6040830187614d7a565b6153476060830186614d7a565b6153546080830185614d7a565b61536160a08301846152fc565b979650505050505050565b600060208201905061538160008301846152fc565b92915050565b600061539282614aae565b9050919050565b6153a281615387565b82525050565b60006020820190506153bd6000830184615399565b92915050565b6000819050919050565b6153d6816153c3565b81146153e157600080fd5b50565b6000813590506153f3816153cd565b92915050565b6000806000806080858703121561541357615412614afc565b5b6000615421878288016153e4565b945050602061543287828801614b22565b935050604061544387828801614b22565b925050606061545487828801614b22565b91505092959194509250565b60008151905061546f81614b0b565b92915050565b60006020828403121561548b5761548a614afc565b5b600061549984828501615460565b91505092915050565b7f4e487b7100000000000000000000000000000000000000000000000000000000600052602260045260246000fd5b600060028204905060018216806154e957607f821691505b6020821081036154fc576154fb6154a2565b5b50919050565b7f4e487b7100000000000000000000000000000000000000000000000000000000600052603260045260246000fd5b7f4e487b7100000000000000000000000000000000000000000000000000000000600052601260045260246000fd5b7f4e487b7100000000000000000000000000000000000000000000000000000000600052601160045260246000fd5b600061559a82614b01565b91506155a583614b01565b9250826155b5576155b4615531565b5b828204905092915050565b60006155cb82614b01565b91506155d683614b01565b9250828210156155e9576155e8615560565b5b828203905092915050565b60006155ff82614b01565b91507fffffffffffffffffffffffffffffffffffffffffffffffffffffffffffffffff820361563157615630615560565b5b600182019050919050565b600082825260208201905092915050565b7f4f6e6c792066756e6473206f776e65722063616e20776974686472617720667560008201527f6e64730000000000000000000000000000000000000000000000000000000000602082015250565b60006156a960238361563c565b91506156b48261564d565b604082019050919050565b600060208201905081810360008301526156d88161569c565b9050919050565b6156e881614ba3565b82525050565b600060608201905061570360008301866156df565b6157106020830185614e09565b61571d6040830184614d7a565b949350505050565b7f4d7573742062652070726f706f736564206f776e657200000000000000000000600082015250565b600061575b60168361563c565b915061576682615725565b602082019050919050565b6000602082019050818103600083015261578a8161574e565b9050919050565b7f596f75206d757374206265742066726f6d20796f7572206f776e20616464726560008201527f7373000000000000000000000000000000000000000000000000000000000000602082015250565b60006157ed60228361563c565b91506157f882615791565b604082019050919050565b6000602082019050818103600083015261581c816157e0565b9050919050565b7f596f75206d7573742062657420736f6d657468696e6700000000000000000000600082015250565b600061585960168361563c565b915061586482615823565b602082019050919050565b600060208201905081810360008301526158888161584c565b9050919050565b600061589a82614b01565b91506158a583614b01565b9250817fffffffffffffffffffffffffffffffffffffffffffffffffffffffffffffffff04831182151516156158de576158dd615560565b5b828202905092915050565b60006158f482614b01565b91506158ff83614b01565b9250827fffffffffffffffffffffffffffffffffffffffffffffffffffffffffffffffff0382111561593457615933615560565b5b828201905092915050565b7f596f75206d75737420626574206f6e2061207465616d2074686174206973207060008201527f6c6179696e6720696e20746869732067616d6500000000000000000000000000602082015250565b600061599b60338361563c565b91506159a68261593f565b604082019050919050565b600060208201905081810360008301526159ca8161598e565b9050919050565b7f4e487b7100000000000000000000000000000000000000000000000000000000600052604160045260246000fd5b7f4e487b7100000000000000000000000000000000000000000000000000000000600052602160045260246000fd5b7f596f7520617265206e6f74207468652061646d696e0000000000000000000000600082015250565b6000615a6560158361563c565b9150615a7082615a2f565b602082019050919050565b60006020820190508181036000830152615a9481615a58565b9050919050565b600081905092915050565b7f68747470733a2f2f7777772e62616c6c646f6e746c69652e696f2f6170692f7660008201527f312f67616d65732f000000000000000000000000000000000000000000000000602082015250565b6000615b02602883615a9b565b9150615b0d82615aa6565b602882019050919050565b6000615b2382614e7d565b615b2d8185615a9b565b9350615b3d818560208601614ccd565b80840191505092915050565b6000615b5482615af5565b9150615b608284615b18565b915081905092915050565b7f536f75726365206d75737420626520746865206f7261636c65206f662074686560008201527f2072657175657374000000000000000000000000000000000000000000000000602082015250565b6000615bc760288361563c565b9150615bd282615b6b565b604082019050919050565b60006020820190508181036000830152615bf681615bba565b9050919050565b6000606082019050615c126000830186614d7a565b615c1f6020830185614d7a565b615c2c6040830184614d7a565b949350505050565b6000604082019050615c496000830185614e09565b8181036020830152615c5b8184614d11565b90509392505050565b600081519050919050565b600082825260208201905092915050565b6000819050602082019050919050565b60048110615ca157615ca0615a00565b5b50565b6000819050615cb282615c90565b919050565b6000615cc282615ca4565b9050919050565b615cd281615cb7565b82525050565b6000615ce48383615cc9565b60208301905092915050565b6000602082019050919050565b6000615d0882615c64565b615d128185615c6f565b9350615d1d83615c80565b8060005b83811015615d4e578151615d358882615cd8565b9750615d4083615cf0565b925050600181019050615d21565b5085935050505092915050565b600081519050919050565b600082825260208201905092915050565b6000819050602082019050919050565b600082825260208201905092915050565b6000615da382614cb1565b615dad8185615d87565b9350615dbd818560208601614ccd565b615dc681614d00565b840191505092915050565b6000615ddd8383615d98565b905092915050565b6000602082019050919050565b6000615dfd82615d5b565b615e078185615d66565b935083602082028501615e1985615d77565b8060005b85811015615e555784840389528151615e368582615dd1565b9450615e4183615de5565b925060208a01995050600181019050615e1d565b50829750879550505050505092915050565b60006040830160008301518482036000860152615e848282615cfd565b91505060208301518482036020860152615e9e8282615df2565b9150508091505092915050565b6000608082019050615ec06000830187614e09565b8181036020830152615ed28186614d11565b90508181036040830152615ee68185615e67565b9050615ef56060830184614e09565b95945050505050565b600081519050615f0d816153cd565b92915050565b600060208284031215615f2957615f28614afc565b5b6000615f3784828501615efe565b91505092915050565b6000606082019050615f556000830186614e09565b615f626020830185614e09565b615f6f6040830184614d7a565b949350505050565b6000615f8282614b01565b9150615f8d83614b01565b925082615f9d57615f9c615531565b5b828206905092915050565b7f4f6e6c792063616c6c61626c65206279206f776e657200000000000000000000600082015250565b6000615fde60168361563c565b9150615fe982615fa8565b602082019050919050565b6000602082019050818103600083015261600d81615fd1565b9050919050565b7f43616e6e6f74207472616e7366657220746f2073656c66000000000000000000600082015250565b600061604a60178361563c565b915061605582616014565b602082019050919050565b600060208201905081810360008301526160798161603d565b9050919050565b616089816153c3565b82525050565b60007fffffffff0000000000000000000000000000000000000000000000000000000082169050919050565b6160c48161608f565b82525050565b6000610100820190506160e0600083018b614e09565b6160ed602083018a614d7a565b6160fa6040830189616080565b6161076060830188614e09565b61611460808301876160bb565b61612160a0830186614d7a565b61612e60c0830185614d7a565b81810360e08301526161408184614d11565b90509998505050505050505050565b600061615a82614aae565b9050919050565b60008160601b9050919050565b600061617982616161565b9050919050565b600061618b8261616e565b9050919050565b6161a361619e8261614f565b616180565b82525050565b6000819050919050565b6161c46161bf82614b01565b6161a9565b82525050565b60006161d68285616192565b6014820191506161e682846161b3565b6020820191508190509392505050565b600060608201905061620b6000830186614e09565b6162186020830185614d7a565b818103604083015261622a8184614d11565b9050949350505050565b61623d81614c96565b811461624857600080fd5b50565b60008151905061625a81616234565b92915050565b60006020828403121561627657616275614afc565b5b60006162848482850161624b565b91505092915050565b7f756e61626c6520746f207472616e73666572416e6443616c6c20746f206f726160008201527f636c650000000000000000000000000000000000000000000000000000000000602082015250565b60006162e960238361563c565b91506162f48261628d565b604082019050919050565b60006020820190508181036000830152616318816162dc565b9050919050565b60008160011c9050919050565b6000808291508390505b60018511156163765780860481111561635257616351615560565b5b60018516156163615780820291505b808102905061636f8561631f565b9450616336565b94509492505050565b60008261638f576001905061644b565b8161639d576000905061644b565b81600181146163b357600281146163bd576163ec565b600191505061644b565b60ff8411156163cf576163ce615560565b5b8360020a9150848211156163e6576163e5615560565b5b5061644b565b5060208310610133831016604e8410600b84101617156164215782820a90508381111561641c5761641b615560565b5b61644b565b61642e848484600161632c565b9250905081840481111561644557616444615560565b5b81810290505b9392505050565b600061645d82614b01565b915061646883614b01565b92506164957fffffffffffffffffffffffffffffffffffffffffffffffffffffffffffffffff848461637f565b90509291505056fea2646970667358221220520b7235d1280f03a994e707aca2bd4b536fbae44293184bb74c2cb300160aef64736f6c634300080e0033","opcodes":"PUSH2 0x120 PUSH1 0x40 MSTORE PUSH1 0x1 PUSH1 0x4 SSTORE CALLVALUE DUP1 ISZERO PUSH3 0x17 JUMPI PUSH1 0x0 DUP1 REVERT JUMPDEST POP CALLER DUP1 PUSH1 0x0 ADDRESS CALLER DUP2 ADDRESS DUP2 PUSH20 0xFFFFFFFFFFFFFFFFFFFFFFFFFFFFFFFFFFFFFFFF AND PUSH1 0x80 DUP2 PUSH20 0xFFFFFFFFFFFFFFFFFFFFFFFFFFFFFFFFFFFFFFFF AND DUP2 MSTORE POP POP DUP2 PUSH20 0xFFFFFFFFFFFFFFFFFFFFFFFFFFFFFFFFFFFFFFFF AND PUSH4 0x573EA575 PUSH1 0x40 MLOAD DUP2 PUSH4 0xFFFFFFFF AND PUSH1 0xE0 SHL DUP2 MSTORE PUSH1 0x4 ADD PUSH1 0x20 PUSH1 0x40 MLOAD DUP1 DUP4 SUB DUP2 DUP7 GAS STATICCALL ISZERO DUP1 ISZERO PUSH3 0xA0 JUMPI RETURNDATASIZE PUSH1 0x0 DUP1 RETURNDATACOPY RETURNDATASIZE PUSH1 0x0 REVERT JUMPDEST POP POP POP POP PUSH1 0x40 MLOAD RETURNDATASIZE PUSH1 0x1F NOT PUSH1 0x1F DUP3 ADD AND DUP3 ADD DUP1 PUSH1 0x40 MSTORE POP DUP2 ADD SWAP1 PUSH3 0xC6 SWAP2 SWAP1 PUSH3 0x6A3 JUMP JUMPDEST PUSH20 0xFFFFFFFFFFFFFFFFFFFFFFFFFFFFFFFFFFFFFFFF AND PUSH1 0xC0 DUP2 PUSH20 0xFFFFFFFFFFFFFFFFFFFFFFFFFFFFFFFFFFFFFFFF AND DUP2 MSTORE POP POP PUSH20 0xC815DB16D4BE6DDF2685C201937905ABF338F5D7 PUSH20 0xFFFFFFFFFFFFFFFFFFFFFFFFFFFFFFFFFFFFFFFF AND PUSH4 0xDED89A7C DUP3 PUSH1 0x40 MLOAD DUP3 PUSH4 0xFFFFFFFF AND PUSH1 0xE0 SHL DUP2 MSTORE PUSH1 0x4 ADD PUSH3 0x148 SWAP2 SWAP1 PUSH3 0x6FA JUMP JUMPDEST PUSH1 0x40 DUP1 MLOAD DUP1 DUP4 SUB DUP2 DUP7 GAS STATICCALL ISZERO DUP1 ISZERO PUSH3 0x165 JUMPI RETURNDATASIZE PUSH1 0x0 DUP1 RETURNDATACOPY RETURNDATASIZE PUSH1 0x0 REVERT JUMPDEST POP POP POP POP PUSH1 0x40 MLOAD RETURNDATASIZE PUSH1 0x1F NOT PUSH1 0x1F DUP3 ADD AND DUP3 ADD DUP1 PUSH1 0x40 MSTORE POP DUP2 ADD SWAP1 PUSH3 0x18B SWAP2 SWAP1 PUSH3 0x785 JUMP JUMPDEST POP DUP1 PUSH20 0xFFFFFFFFFFFFFFFFFFFFFFFFFFFFFFFFFFFFFFFF AND PUSH1 0xA0 SWAP1 PUSH20 0xFFFFFFFFFFFFFFFFFFFFFFFFFFFFFFFFFFFFFFFF AND DUP2 MSTORE POP POP POP POP DUP1 PUSH20 0xFFFFFFFFFFFFFFFFFFFFFFFFFFFFFFFFFFFFFFFF AND PUSH1 0xE0 DUP2 PUSH20 0xFFFFFFFFFFFFFFFFFFFFFFFFFFFFFFFFFFFFFFFF AND DUP2 MSTORE POP POP PUSH1 0x80 MLOAD PUSH20 0xFFFFFFFFFFFFFFFFFFFFFFFFFFFFFFFFFFFFFFFF AND PUSH4 0xE60A3213 PUSH1 0x40 MLOAD DUP2 PUSH4 0xFFFFFFFF AND PUSH1 0xE0 SHL DUP2 MSTORE PUSH1 0x4 ADD PUSH1 0x20 PUSH1 0x40 MLOAD DUP1 DUP4 SUB DUP2 DUP7 GAS STATICCALL ISZERO DUP1 ISZERO PUSH3 0x244 JUMPI RETURNDATASIZE PUSH1 0x0 DUP1 RETURNDATACOPY RETURNDATASIZE PUSH1 0x0 REVERT JUMPDEST POP POP POP POP PUSH1 0x40 MLOAD RETURNDATASIZE PUSH1 0x1F NOT PUSH1 0x1F DUP3 ADD AND DUP3 ADD DUP1 PUSH1 0x40 MSTORE POP DUP2 ADD SWAP1 PUSH3 0x26A SWAP2 SWAP1 PUSH3 0x811 JUMP JUMPDEST PUSH20 0xFFFFFFFFFFFFFFFFFFFFFFFFFFFFFFFFFFFFFFFF AND PUSH2 0x100 DUP2 PUSH20 0xFFFFFFFFFFFFFFFFFFFFFFFFFFFFFFFFFFFFFFFF AND DUP2 MSTORE POP POP POP POP PUSH1 0x0 PUSH20 0xFFFFFFFFFFFFFFFFFFFFFFFFFFFFFFFFFFFFFFFF AND DUP3 PUSH20 0xFFFFFFFFFFFFFFFFFFFFFFFFFFFFFFFFFFFFFFFF AND SUB PUSH3 0x312 JUMPI PUSH1 0x40 MLOAD PUSH32 0x8C379A000000000000000000000000000000000000000000000000000000000 DUP2 MSTORE PUSH1 0x4 ADD PUSH3 0x309 SWAP1 PUSH3 0x8A4 JUMP JUMPDEST PUSH1 0x40 MLOAD DUP1 SWAP2 SUB SWAP1 REVERT JUMPDEST DUP2 PUSH1 0x6 PUSH1 0x0 PUSH2 0x100 EXP DUP2 SLOAD DUP2 PUSH20 0xFFFFFFFFFFFFFFFFFFFFFFFFFFFFFFFFFFFFFFFF MUL NOT AND SWAP1 DUP4 PUSH20 0xFFFFFFFFFFFFFFFFFFFFFFFFFFFFFFFFFFFFFFFF AND MUL OR SWAP1 SSTORE POP PUSH1 0x0 PUSH20 0xFFFFFFFFFFFFFFFFFFFFFFFFFFFFFFFFFFFFFFFF AND DUP2 PUSH20 0xFFFFFFFFFFFFFFFFFFFFFFFFFFFFFFFFFFFFFFFF AND EQ PUSH3 0x39A JUMPI PUSH3 0x399 DUP2 PUSH3 0x480 PUSH1 0x20 SHL PUSH1 0x20 SHR JUMP JUMPDEST JUMPDEST POP POP POP CALLER PUSH1 0x8 PUSH1 0x0 PUSH2 0x100 EXP DUP2 SLOAD DUP2 PUSH20 0xFFFFFFFFFFFFFFFFFFFFFFFFFFFFFFFFFFFFFFFF MUL NOT AND SWAP1 DUP4 PUSH20 0xFFFFFFFFFFFFFFFFFFFFFFFFFFFFFFFFFFFFFFFF AND MUL OR SWAP1 SSTORE POP PUSH3 0x403 PUSH20 0x326C977E6EFC84E512BB9C30F76E30C160ED06FB PUSH3 0x5B1 PUSH1 0x20 SHL PUSH1 0x20 SHR JUMP JUMPDEST PUSH3 0x428 PUSH20 0xCC79157EB46F5624204F47AB42B3906CAA40EAB7 PUSH3 0x5F5 PUSH1 0x20 SHL PUSH1 0x20 SHR JUMP JUMPDEST PUSH32 0x6361393833363663633733313439353762386330313263373266303561656562 PUSH1 0x9 DUP2 SWAP1 SSTORE POP PUSH1 0xA PUSH8 0xDE0B6B3A7640000 PUSH1 0x1 PUSH3 0x468 SWAP2 SWAP1 PUSH3 0x8FF JUMP JUMPDEST PUSH3 0x474 SWAP2 SWAP1 PUSH3 0x98F JUMP JUMPDEST PUSH1 0xA DUP2 SWAP1 SSTORE POP PUSH3 0xA39 JUMP JUMPDEST CALLER PUSH20 0xFFFFFFFFFFFFFFFFFFFFFFFFFFFFFFFFFFFFFFFF AND DUP2 PUSH20 0xFFFFFFFFFFFFFFFFFFFFFFFFFFFFFFFFFFFFFFFF AND SUB PUSH3 0x4F1 JUMPI PUSH1 0x40 MLOAD PUSH32 0x8C379A000000000000000000000000000000000000000000000000000000000 DUP2 MSTORE PUSH1 0x4 ADD PUSH3 0x4E8 SWAP1 PUSH3 0xA17 JUMP JUMPDEST PUSH1 0x40 MLOAD DUP1 SWAP2 SUB SWAP1 REVERT JUMPDEST DUP1 PUSH1 0x7 PUSH1 0x0 PUSH2 0x100 EXP DUP2 SLOAD DUP2 PUSH20 0xFFFFFFFFFFFFFFFFFFFFFFFFFFFFFFFFFFFFFFFF MUL NOT AND SWAP1 DUP4 PUSH20 0xFFFFFFFFFFFFFFFFFFFFFFFFFFFFFFFFFFFFFFFF AND MUL OR SWAP1 SSTORE POP DUP1 PUSH20 0xFFFFFFFFFFFFFFFFFFFFFFFFFFFFFFFFFFFFFFFF AND PUSH1 0x6 PUSH1 0x0 SWAP1 SLOAD SWAP1 PUSH2 0x100 EXP SWAP1 DIV PUSH20 0xFFFFFFFFFFFFFFFFFFFFFFFFFFFFFFFFFFFFFFFF AND PUSH20 0xFFFFFFFFFFFFFFFFFFFFFFFFFFFFFFFFFFFFFFFF AND PUSH32 0xED8889F560326EB138920D842192F0EB3DD22B4F139C87A2C57538E05BAE1278 PUSH1 0x40 MLOAD PUSH1 0x40 MLOAD DUP1 SWAP2 SUB SWAP1 LOG3 POP JUMP JUMPDEST DUP1 PUSH1 0x2 PUSH1 0x0 PUSH2 0x100 EXP DUP2 SLOAD DUP2 PUSH20 0xFFFFFFFFFFFFFFFFFFFFFFFFFFFFFFFFFFFFFFFF MUL NOT AND SWAP1 DUP4 PUSH20 0xFFFFFFFFFFFFFFFFFFFFFFFFFFFFFFFFFFFFFFFF AND MUL OR SWAP1 SSTORE POP POP JUMP JUMPDEST DUP1 PUSH1 0x3 PUSH1 0x0 PUSH2 0x100 EXP DUP2 SLOAD DUP2 PUSH20 0xFFFFFFFFFFFFFFFFFFFFFFFFFFFFFFFFFFFFFFFF MUL NOT AND SWAP1 DUP4 PUSH20 0xFFFFFFFFFFFFFFFFFFFFFFFFFFFFFFFFFFFFFFFF AND MUL OR SWAP1 SSTORE POP POP JUMP JUMPDEST PUSH1 0x0 DUP1 REVERT JUMPDEST PUSH1 0x0 PUSH20 0xFFFFFFFFFFFFFFFFFFFFFFFFFFFFFFFFFFFFFFFF DUP3 AND SWAP1 POP SWAP2 SWAP1 POP JUMP JUMPDEST PUSH1 0x0 PUSH3 0x66B DUP3 PUSH3 0x63E JUMP JUMPDEST SWAP1 POP SWAP2 SWAP1 POP JUMP JUMPDEST PUSH3 0x67D DUP2 PUSH3 0x65E JUMP JUMPDEST DUP2 EQ PUSH3 0x689 JUMPI PUSH1 0x0 DUP1 REVERT JUMPDEST POP JUMP JUMPDEST PUSH1 0x0 DUP2 MLOAD SWAP1 POP PUSH3 0x69D DUP2 PUSH3 0x672 JUMP JUMPDEST SWAP3 SWAP2 POP POP JUMP JUMPDEST PUSH1 0x0 PUSH1 0x20 DUP3 DUP5 SUB SLT ISZERO PUSH3 0x6BC JUMPI PUSH3 0x6BB PUSH3 0x639 JUMP JUMPDEST JUMPDEST PUSH1 0x0 PUSH3 0x6CC DUP5 DUP3 DUP6 ADD PUSH3 0x68C JUMP JUMPDEST SWAP2 POP POP SWAP3 SWAP2 POP POP JUMP JUMPDEST PUSH1 0x0 PUSH3 0x6E2 DUP3 PUSH3 0x63E JUMP JUMPDEST SWAP1 POP SWAP2 SWAP1 POP JUMP JUMPDEST PUSH3 0x6F4 DUP2 PUSH3 0x6D5 JUMP JUMPDEST DUP3 MSTORE POP POP JUMP JUMPDEST PUSH1 0x0 PUSH1 0x20 DUP3 ADD SWAP1 POP PUSH3 0x711 PUSH1 0x0 DUP4 ADD DUP5 PUSH3 0x6E9 JUMP JUMPDEST SWAP3 SWAP2 POP POP JUMP JUMPDEST PUSH3 0x722 DUP2 PUSH3 0x6D5 JUMP JUMPDEST DUP2 EQ PUSH3 0x72E JUMPI PUSH1 0x0 DUP1 REVERT JUMPDEST POP JUMP JUMPDEST PUSH1 0x0 DUP2 MLOAD SWAP1 POP PUSH3 0x742 DUP2 PUSH3 0x717 JUMP JUMPDEST SWAP3 SWAP2 POP POP JUMP JUMPDEST PUSH1 0x0 DUP2 ISZERO ISZERO SWAP1 POP SWAP2 SWAP1 POP JUMP JUMPDEST PUSH3 0x75F DUP2 PUSH3 0x748 JUMP JUMPDEST DUP2 EQ PUSH3 0x76B JUMPI PUSH1 0x0 DUP1 REVERT JUMPDEST POP JUMP JUMPDEST PUSH1 0x0 DUP2 MLOAD SWAP1 POP PUSH3 0x77F DUP2 PUSH3 0x754 JUMP JUMPDEST SWAP3 SWAP2 POP POP JUMP JUMPDEST PUSH1 0x0 DUP1 PUSH1 0x40 DUP4 DUP6 SUB SLT ISZERO PUSH3 0x79F JUMPI PUSH3 0x79E PUSH3 0x639 JUMP JUMPDEST JUMPDEST PUSH1 0x0 PUSH3 0x7AF DUP6 DUP3 DUP7 ADD PUSH3 0x731 JUMP JUMPDEST SWAP3 POP POP PUSH1 0x20 PUSH3 0x7C2 DUP6 DUP3 DUP7 ADD PUSH3 0x76E JUMP JUMPDEST SWAP2 POP POP SWAP3 POP SWAP3 SWAP1 POP JUMP JUMPDEST PUSH1 0x0 PUSH3 0x7D9 DUP3 PUSH3 0x6D5 JUMP JUMPDEST SWAP1 POP SWAP2 SWAP1 POP JUMP JUMPDEST PUSH3 0x7EB DUP2 PUSH3 0x7CC JUMP JUMPDEST DUP2 EQ PUSH3 0x7F7 JUMPI PUSH1 0x0 DUP1 REVERT JUMPDEST POP JUMP JUMPDEST PUSH1 0x0 DUP2 MLOAD SWAP1 POP PUSH3 0x80B DUP2 PUSH3 0x7E0 JUMP JUMPDEST SWAP3 SWAP2 POP POP JUMP JUMPDEST PUSH1 0x0 PUSH1 0x20 DUP3 DUP5 SUB SLT ISZERO PUSH3 0x82A JUMPI PUSH3 0x829 PUSH3 0x639 JUMP JUMPDEST JUMPDEST PUSH1 0x0 PUSH3 0x83A DUP5 DUP3 DUP6 ADD PUSH3 0x7FA JUMP JUMPDEST SWAP2 POP POP SWAP3 SWAP2 POP POP JUMP JUMPDEST PUSH1 0x0 DUP3 DUP3 MSTORE PUSH1 0x20 DUP3 ADD SWAP1 POP SWAP3 SWAP2 POP POP JUMP JUMPDEST PUSH32 0x43616E6E6F7420736574206F776E657220746F207A65726F0000000000000000 PUSH1 0x0 DUP3 ADD MSTORE POP JUMP JUMPDEST PUSH1 0x0 PUSH3 0x88C PUSH1 0x18 DUP4 PUSH3 0x843 JUMP JUMPDEST SWAP2 POP PUSH3 0x899 DUP3 PUSH3 0x854 JUMP JUMPDEST PUSH1 0x20 DUP3 ADD SWAP1 POP SWAP2 SWAP1 POP JUMP JUMPDEST PUSH1 0x0 PUSH1 0x20 DUP3 ADD SWAP1 POP DUP2 DUP2 SUB PUSH1 0x0 DUP4 ADD MSTORE PUSH3 0x8BF DUP2 PUSH3 0x87D JUMP JUMPDEST SWAP1 POP SWAP2 SWAP1 POP JUMP JUMPDEST PUSH1 0x0 DUP2 SWAP1 POP SWAP2 SWAP1 POP JUMP JUMPDEST PUSH32 0x4E487B7100000000000000000000000000000000000000000000000000000000 PUSH1 0x0 MSTORE PUSH1 0x11 PUSH1 0x4 MSTORE PUSH1 0x24 PUSH1 0x0 REVERT JUMPDEST PUSH1 0x0 PUSH3 0x90C DUP3 PUSH3 0x8C6 JUMP JUMPDEST SWAP2 POP PUSH3 0x919 DUP4 PUSH3 0x8C6 JUMP JUMPDEST SWAP3 POP DUP2 PUSH32 0xFFFFFFFFFFFFFFFFFFFFFFFFFFFFFFFFFFFFFFFFFFFFFFFFFFFFFFFFFFFFFFFF DIV DUP4 GT DUP3 ISZERO ISZERO AND ISZERO PUSH3 0x955 JUMPI PUSH3 0x954 PUSH3 0x8D0 JUMP JUMPDEST JUMPDEST DUP3 DUP3 MUL SWAP1 POP SWAP3 SWAP2 POP POP JUMP JUMPDEST PUSH32 0x4E487B7100000000000000000000000000000000000000000000000000000000 PUSH1 0x0 MSTORE PUSH1 0x12 PUSH1 0x4 MSTORE PUSH1 0x24 PUSH1 0x0 REVERT JUMPDEST PUSH1 0x0 PUSH3 0x99C DUP3 PUSH3 0x8C6 JUMP JUMPDEST SWAP2 POP PUSH3 0x9A9 DUP4 PUSH3 0x8C6 JUMP JUMPDEST SWAP3 POP DUP3 PUSH3 0x9BC JUMPI PUSH3 0x9BB PUSH3 0x960 JUMP JUMPDEST JUMPDEST DUP3 DUP3 DIV SWAP1 POP SWAP3 SWAP2 POP POP JUMP JUMPDEST PUSH32 0x43616E6E6F74207472616E7366657220746F2073656C66000000000000000000 PUSH1 0x0 DUP3 ADD MSTORE POP JUMP JUMPDEST PUSH1 0x0 PUSH3 0x9FF PUSH1 0x17 DUP4 PUSH3 0x843 JUMP JUMPDEST SWAP2 POP PUSH3 0xA0C DUP3 PUSH3 0x9C7 JUMP JUMPDEST PUSH1 0x20 DUP3 ADD SWAP1 POP SWAP2 SWAP1 POP JUMP JUMPDEST PUSH1 0x0 PUSH1 0x20 DUP3 ADD SWAP1 POP DUP2 DUP2 SUB PUSH1 0x0 DUP4 ADD MSTORE PUSH3 0xA32 DUP2 PUSH3 0x9F0 JUMP JUMPDEST SWAP1 POP SWAP2 SWAP1 POP JUMP JUMPDEST PUSH1 0x80 MLOAD PUSH1 0xA0 MLOAD PUSH1 0xC0 MLOAD PUSH1 0xE0 MLOAD PUSH2 0x100 MLOAD PUSH2 0x64D3 PUSH3 0xA9E PUSH1 0x0 CODECOPY PUSH1 0x0 DUP2 DUP2 PUSH2 0x15D3 ADD MSTORE DUP2 DUP2 PUSH2 0x38C4 ADD MSTORE PUSH2 0x3CF0 ADD MSTORE PUSH1 0x0 DUP2 DUP2 PUSH2 0xDE7 ADD MSTORE DUP2 DUP2 PUSH2 0x1545 ADD MSTORE PUSH2 0x160F ADD MSTORE PUSH1 0x0 POP POP PUSH1 0x0 PUSH2 0xBC9 ADD MSTORE PUSH1 0x0 DUP2 DUP2 PUSH2 0x984 ADD MSTORE PUSH2 0x3BF0 ADD MSTORE PUSH2 0x64D3 PUSH1 0x0 RETURN INVALID PUSH1 0x80 PUSH1 0x40 MSTORE PUSH1 0x4 CALLDATASIZE LT PUSH2 0x225 JUMPI PUSH1 0x0 CALLDATALOAD PUSH1 0xE0 SHR DUP1 PUSH4 0x80EE79C1 GT PUSH2 0x123 JUMPI DUP1 PUSH4 0xA91FABA2 GT PUSH2 0xAB JUMPI DUP1 PUSH4 0xE60A3213 GT PUSH2 0x6F JUMPI DUP1 PUSH4 0xE60A3213 EQ PUSH2 0x88B JUMPI DUP1 PUSH4 0xF227CE4D EQ PUSH2 0x8B6 JUMPI DUP1 PUSH4 0xF2FDE38B EQ PUSH2 0x8F3 JUMPI DUP1 PUSH4 0xF6D7C759 EQ PUSH2 0x91C JUMPI DUP1 PUSH4 0xFDA4417B EQ PUSH2 0x959 JUMPI PUSH2 0x225 JUMP JUMPDEST DUP1 PUSH4 0xA91FABA2 EQ PUSH2 0x7C2 JUMPI DUP1 PUSH4 0xB9CAFA96 EQ PUSH2 0x804 JUMPI DUP1 PUSH4 0xC9B25F0F EQ PUSH2 0x80E JUMPI DUP1 PUSH4 0xCCB7ED45 EQ PUSH2 0x825 JUMPI DUP1 PUSH4 0xD02F0F55 EQ PUSH2 0x862 JUMPI PUSH2 0x225 JUMP JUMPDEST DUP1 PUSH4 0x8EDD3971 GT PUSH2 0xF2 JUMPI DUP1 PUSH4 0x8EDD3971 EQ PUSH2 0x6CF JUMPI DUP1 PUSH4 0x92A25A64 EQ PUSH2 0x710 JUMPI DUP1 PUSH4 0xA4786F3D EQ PUSH2 0x72C JUMPI DUP1 PUSH4 0xA59CBA02 EQ PUSH2 0x769 JUMPI DUP1 PUSH4 0xA910E4A5 EQ PUSH2 0x785 JUMPI PUSH2 0x225 JUMP JUMPDEST DUP1 PUSH4 0x80EE79C1 EQ PUSH2 0x60E JUMPI DUP1 PUSH4 0x835F3FEC EQ PUSH2 0x64B JUMPI DUP1 PUSH4 0x8697AC4E EQ PUSH2 0x667 JUMPI DUP1 PUSH4 0x8DA5CB5B EQ PUSH2 0x6A4 JUMPI PUSH2 0x225 JUMP JUMPDEST DUP1 PUSH4 0x3946F666 GT PUSH2 0x1B1 JUMPI DUP1 PUSH4 0x744BFE61 GT PUSH2 0x175 JUMPI DUP1 PUSH4 0x744BFE61 EQ PUSH2 0x529 JUMPI DUP1 PUSH4 0x79BA5097 EQ PUSH2 0x552 JUMPI DUP1 PUSH4 0x7E960916 EQ PUSH2 0x569 JUMPI DUP1 PUSH4 0x7EA4178A EQ PUSH2 0x5A6 JUMPI DUP1 PUSH4 0x80EB6D04 EQ PUSH2 0x5D1 JUMPI PUSH2 0x225 JUMP JUMPDEST DUP1 PUSH4 0x3946F666 EQ PUSH2 0x430 JUMPI DUP1 PUSH4 0x46EE3C59 EQ PUSH2 0x45B JUMPI DUP1 PUSH4 0x5658FA10 EQ PUSH2 0x486 JUMPI DUP1 PUSH4 0x68989A92 EQ PUSH2 0x4AF JUMPI DUP1 PUSH4 0x6BD4C7C0 EQ PUSH2 0x4EC JUMPI PUSH2 0x225 JUMP JUMPDEST DUP1 PUSH4 0x2429827F GT PUSH2 0x1F8 JUMPI DUP1 PUSH4 0x2429827F EQ PUSH2 0x30D JUMPI DUP1 PUSH4 0x245A2FAD EQ PUSH2 0x34E JUMPI DUP1 PUSH4 0x28F150EB EQ PUSH2 0x38B JUMPI DUP1 PUSH4 0x2B3A4EF6 EQ PUSH2 0x3B6 JUMPI DUP1 PUSH4 0x2E964AAE EQ PUSH2 0x3F3 JUMPI PUSH2 0x225 JUMP JUMPDEST DUP1 PUSH4 0x49AACFE EQ PUSH2 0x22A JUMPI DUP1 PUSH4 0x8C27E5A EQ PUSH2 0x255 JUMPI DUP1 PUSH4 0xE065BD9 EQ PUSH2 0x292 JUMPI DUP1 PUSH4 0x23821C21 EQ PUSH2 0x2D0 JUMPI JUMPDEST PUSH1 0x0 DUP1 REVERT JUMPDEST CALLVALUE DUP1 ISZERO PUSH2 0x236 JUMPI PUSH1 0x0 DUP1 REVERT JUMPDEST POP PUSH2 0x23F PUSH2 0x982 JUMP JUMPDEST PUSH1 0x40 MLOAD PUSH2 0x24C SWAP2 SWAP1 PUSH2 0x4AE1 JUMP JUMPDEST PUSH1 0x40 MLOAD DUP1 SWAP2 SUB SWAP1 RETURN JUMPDEST CALLVALUE DUP1 ISZERO PUSH2 0x261 JUMPI PUSH1 0x0 DUP1 REVERT JUMPDEST POP PUSH2 0x27C PUSH1 0x4 DUP1 CALLDATASIZE SUB DUP2 ADD SWAP1 PUSH2 0x277 SWAP2 SWAP1 PUSH2 0x4B37 JUMP JUMPDEST PUSH2 0x9A6 JUMP JUMPDEST PUSH1 0x40 MLOAD PUSH2 0x289 SWAP2 SWAP1 PUSH2 0x4C47 JUMP JUMPDEST PUSH1 0x40 MLOAD DUP1 SWAP2 SUB SWAP1 RETURN JUMPDEST CALLVALUE DUP1 ISZERO PUSH2 0x29E JUMPI PUSH1 0x0 DUP1 REVERT JUMPDEST POP PUSH2 0x2B9 PUSH1 0x4 DUP1 CALLDATASIZE SUB DUP2 ADD SWAP1 PUSH2 0x2B4 SWAP2 SWAP1 PUSH2 0x4C69 JUMP JUMPDEST PUSH2 0xA5C JUMP JUMPDEST PUSH1 0x40 MLOAD PUSH2 0x2C7 SWAP3 SWAP2 SWAP1 PUSH2 0x4D4A JUMP JUMPDEST PUSH1 0x40 MLOAD DUP1 SWAP2 SUB SWAP1 RETURN JUMPDEST CALLVALUE DUP1 ISZERO PUSH2 0x2DC JUMPI PUSH1 0x0 DUP1 REVERT JUMPDEST POP PUSH2 0x2F7 PUSH1 0x4 DUP1 CALLDATASIZE SUB DUP2 ADD SWAP1 PUSH2 0x2F2 SWAP2 SWAP1 PUSH2 0x4C69 JUMP JUMPDEST PUSH2 0xB61 JUMP JUMPDEST PUSH1 0x40 MLOAD PUSH2 0x304 SWAP2 SWAP1 PUSH2 0x4D89 JUMP JUMPDEST PUSH1 0x40 MLOAD DUP1 SWAP2 SUB SWAP1 RETURN JUMPDEST CALLVALUE DUP1 ISZERO PUSH2 0x319 JUMPI PUSH1 0x0 DUP1 REVERT JUMPDEST POP PUSH2 0x334 PUSH1 0x4 DUP1 CALLDATASIZE SUB DUP2 ADD SWAP1 PUSH2 0x32F SWAP2 SWAP1 PUSH2 0x4C69 JUMP JUMPDEST PUSH2 0xB79 JUMP JUMPDEST PUSH1 0x40 MLOAD PUSH2 0x345 SWAP6 SWAP5 SWAP4 SWAP3 SWAP2 SWAP1 PUSH2 0x4DA4 JUMP JUMPDEST PUSH1 0x40 MLOAD DUP1 SWAP2 SUB SWAP1 RETURN JUMPDEST CALLVALUE DUP1 ISZERO PUSH2 0x35A JUMPI PUSH1 0x0 DUP1 REVERT JUMPDEST POP PUSH2 0x375 PUSH1 0x4 DUP1 CALLDATASIZE SUB DUP2 ADD SWAP1 PUSH2 0x370 SWAP2 SWAP1 PUSH2 0x4C69 JUMP JUMPDEST PUSH2 0xBAF JUMP JUMPDEST PUSH1 0x40 MLOAD PUSH2 0x382 SWAP2 SWAP1 PUSH2 0x4D89 JUMP JUMPDEST PUSH1 0x40 MLOAD DUP1 SWAP2 SUB SWAP1 RETURN JUMPDEST CALLVALUE DUP1 ISZERO PUSH2 0x397 JUMPI PUSH1 0x0 DUP1 REVERT JUMPDEST POP PUSH2 0x3A0 PUSH2 0xBC7 JUMP JUMPDEST PUSH1 0x40 MLOAD PUSH2 0x3AD SWAP2 SWAP1 PUSH2 0x4E18 JUMP JUMPDEST PUSH1 0x40 MLOAD DUP1 SWAP2 SUB SWAP1 RETURN JUMPDEST CALLVALUE DUP1 ISZERO PUSH2 0x3C2 JUMPI PUSH1 0x0 DUP1 REVERT JUMPDEST POP PUSH2 0x3DD PUSH1 0x4 DUP1 CALLDATASIZE SUB DUP2 ADD SWAP1 PUSH2 0x3D8 SWAP2 SWAP1 PUSH2 0x4B37 JUMP JUMPDEST PUSH2 0xBEB JUMP JUMPDEST PUSH1 0x40 MLOAD PUSH2 0x3EA SWAP2 SWAP1 PUSH2 0x4D89 JUMP JUMPDEST PUSH1 0x40 MLOAD DUP1 SWAP2 SUB SWAP1 RETURN JUMPDEST CALLVALUE DUP1 ISZERO PUSH2 0x3FF JUMPI PUSH1 0x0 DUP1 REVERT JUMPDEST POP PUSH2 0x41A PUSH1 0x4 DUP1 CALLDATASIZE SUB DUP2 ADD SWAP1 PUSH2 0x415 SWAP2 SWAP1 PUSH2 0x4C69 JUMP JUMPDEST PUSH2 0xC10 JUMP JUMPDEST PUSH1 0x40 MLOAD PUSH2 0x427 SWAP2 SWAP1 PUSH2 0x4D89 JUMP JUMPDEST PUSH1 0x40 MLOAD DUP1 SWAP2 SUB SWAP1 RETURN JUMPDEST CALLVALUE DUP1 ISZERO PUSH2 0x43C JUMPI PUSH1 0x0 DUP1 REVERT JUMPDEST POP PUSH2 0x445 PUSH2 0xC36 JUMP JUMPDEST PUSH1 0x40 MLOAD PUSH2 0x452 SWAP2 SWAP1 PUSH2 0x4FF1 JUMP JUMPDEST PUSH1 0x40 MLOAD DUP1 SWAP2 SUB SWAP1 RETURN JUMPDEST CALLVALUE DUP1 ISZERO PUSH2 0x467 JUMPI PUSH1 0x0 DUP1 REVERT JUMPDEST POP PUSH2 0x470 PUSH2 0xDE5 JUMP JUMPDEST PUSH1 0x40 MLOAD PUSH2 0x47D SWAP2 SWAP1 PUSH2 0x4E18 JUMP JUMPDEST PUSH1 0x40 MLOAD DUP1 SWAP2 SUB SWAP1 RETURN JUMPDEST CALLVALUE DUP1 ISZERO PUSH2 0x492 JUMPI PUSH1 0x0 DUP1 REVERT JUMPDEST POP PUSH2 0x4AD PUSH1 0x4 DUP1 CALLDATASIZE SUB DUP2 ADD SWAP1 PUSH2 0x4A8 SWAP2 SWAP1 PUSH2 0x4C69 JUMP JUMPDEST PUSH2 0xE09 JUMP JUMPDEST STOP JUMPDEST CALLVALUE DUP1 ISZERO PUSH2 0x4BB JUMPI PUSH1 0x0 DUP1 REVERT JUMPDEST POP PUSH2 0x4D6 PUSH1 0x4 DUP1 CALLDATASIZE SUB DUP2 ADD SWAP1 PUSH2 0x4D1 SWAP2 SWAP1 PUSH2 0x4C69 JUMP JUMPDEST PUSH2 0x1394 JUMP JUMPDEST PUSH1 0x40 MLOAD PUSH2 0x4E3 SWAP2 SWAP1 PUSH2 0x4D89 JUMP JUMPDEST PUSH1 0x40 MLOAD DUP1 SWAP2 SUB SWAP1 RETURN JUMPDEST CALLVALUE DUP1 ISZERO PUSH2 0x4F8 JUMPI PUSH1 0x0 DUP1 REVERT JUMPDEST POP PUSH2 0x513 PUSH1 0x4 DUP1 CALLDATASIZE SUB DUP2 ADD SWAP1 PUSH2 0x50E SWAP2 SWAP1 PUSH2 0x4B37 JUMP JUMPDEST PUSH2 0x13B4 JUMP JUMPDEST PUSH1 0x40 MLOAD PUSH2 0x520 SWAP2 SWAP1 PUSH2 0x509C JUMP JUMPDEST PUSH1 0x40 MLOAD DUP1 SWAP2 SUB SWAP1 RETURN JUMPDEST CALLVALUE DUP1 ISZERO PUSH2 0x535 JUMPI PUSH1 0x0 DUP1 REVERT JUMPDEST POP PUSH2 0x550 PUSH1 0x4 DUP1 CALLDATASIZE SUB DUP2 ADD SWAP1 PUSH2 0x54B SWAP2 SWAP1 PUSH2 0x50EA JUMP JUMPDEST PUSH2 0x1543 JUMP JUMPDEST STOP JUMPDEST CALLVALUE DUP1 ISZERO PUSH2 0x55E JUMPI PUSH1 0x0 DUP1 REVERT JUMPDEST POP PUSH2 0x567 PUSH2 0x1684 JUMP JUMPDEST STOP JUMPDEST CALLVALUE DUP1 ISZERO PUSH2 0x575 JUMPI PUSH1 0x0 DUP1 REVERT JUMPDEST POP PUSH2 0x590 PUSH1 0x4 DUP1 CALLDATASIZE SUB DUP2 ADD SWAP1 PUSH2 0x58B SWAP2 SWAP1 PUSH2 0x4C69 JUMP JUMPDEST PUSH2 0x181B JUMP JUMPDEST PUSH1 0x40 MLOAD PUSH2 0x59D SWAP2 SWAP1 PUSH2 0x4D89 JUMP JUMPDEST PUSH1 0x40 MLOAD DUP1 SWAP2 SUB SWAP1 RETURN JUMPDEST CALLVALUE DUP1 ISZERO PUSH2 0x5B2 JUMPI PUSH1 0x0 DUP1 REVERT JUMPDEST POP PUSH2 0x5BB PUSH2 0x183B JUMP JUMPDEST PUSH1 0x40 MLOAD PUSH2 0x5C8 SWAP2 SWAP1 PUSH2 0x4D89 JUMP JUMPDEST PUSH1 0x40 MLOAD DUP1 SWAP2 SUB SWAP1 RETURN JUMPDEST CALLVALUE DUP1 ISZERO PUSH2 0x5DD JUMPI PUSH1 0x0 DUP1 REVERT JUMPDEST POP PUSH2 0x5F8 PUSH1 0x4 DUP1 CALLDATASIZE SUB DUP2 ADD SWAP1 PUSH2 0x5F3 SWAP2 SWAP1 PUSH2 0x4C69 JUMP JUMPDEST PUSH2 0x1885 JUMP JUMPDEST PUSH1 0x40 MLOAD PUSH2 0x605 SWAP2 SWAP1 PUSH2 0x4D89 JUMP JUMPDEST PUSH1 0x40 MLOAD DUP1 SWAP2 SUB SWAP1 RETURN JUMPDEST CALLVALUE DUP1 ISZERO PUSH2 0x61A JUMPI PUSH1 0x0 DUP1 REVERT JUMPDEST POP PUSH2 0x635 PUSH1 0x4 DUP1 CALLDATASIZE SUB DUP2 ADD SWAP1 PUSH2 0x630 SWAP2 SWAP1 PUSH2 0x5160 JUMP JUMPDEST PUSH2 0x189D JUMP JUMPDEST PUSH1 0x40 MLOAD PUSH2 0x642 SWAP2 SWAP1 PUSH2 0x509C JUMP JUMPDEST PUSH1 0x40 MLOAD DUP1 SWAP2 SUB SWAP1 RETURN JUMPDEST PUSH2 0x665 PUSH1 0x4 DUP1 CALLDATASIZE SUB DUP2 ADD SWAP1 PUSH2 0x660 SWAP2 SWAP1 PUSH2 0x51A0 JUMP JUMPDEST PUSH2 0x1A2C JUMP JUMPDEST STOP JUMPDEST CALLVALUE DUP1 ISZERO PUSH2 0x673 JUMPI PUSH1 0x0 DUP1 REVERT JUMPDEST POP PUSH2 0x68E PUSH1 0x4 DUP1 CALLDATASIZE SUB DUP2 ADD SWAP1 PUSH2 0x689 SWAP2 SWAP1 PUSH2 0x4B37 JUMP JUMPDEST PUSH2 0x206B JUMP JUMPDEST PUSH1 0x40 MLOAD PUSH2 0x69B SWAP2 SWAP1 PUSH2 0x4C47 JUMP JUMPDEST PUSH1 0x40 MLOAD DUP1 SWAP2 SUB SWAP1 RETURN JUMPDEST CALLVALUE DUP1 ISZERO PUSH2 0x6B0 JUMPI PUSH1 0x0 DUP1 REVERT JUMPDEST POP PUSH2 0x6B9 PUSH2 0x2121 JUMP JUMPDEST PUSH1 0x40 MLOAD PUSH2 0x6C6 SWAP2 SWAP1 PUSH2 0x4E18 JUMP JUMPDEST PUSH1 0x40 MLOAD DUP1 SWAP2 SUB SWAP1 RETURN JUMPDEST CALLVALUE DUP1 ISZERO PUSH2 0x6DB JUMPI PUSH1 0x0 DUP1 REVERT JUMPDEST POP PUSH2 0x6F6 PUSH1 0x4 DUP1 CALLDATASIZE SUB DUP2 ADD SWAP1 PUSH2 0x6F1 SWAP2 SWAP1 PUSH2 0x4C69 JUMP JUMPDEST PUSH2 0x214B JUMP JUMPDEST PUSH1 0x40 MLOAD PUSH2 0x707 SWAP6 SWAP5 SWAP4 SWAP3 SWAP2 SWAP1 PUSH2 0x4DA4 JUMP JUMPDEST PUSH1 0x40 MLOAD DUP1 SWAP2 SUB SWAP1 RETURN JUMPDEST PUSH2 0x72A PUSH1 0x4 DUP1 CALLDATASIZE SUB DUP2 ADD SWAP1 PUSH2 0x725 SWAP2 SWAP1 PUSH2 0x5242 JUMP JUMPDEST PUSH2 0x2181 JUMP JUMPDEST STOP JUMPDEST CALLVALUE DUP1 ISZERO PUSH2 0x738 JUMPI PUSH1 0x0 DUP1 REVERT JUMPDEST POP PUSH2 0x753 PUSH1 0x4 DUP1 CALLDATASIZE SUB DUP2 ADD SWAP1 PUSH2 0x74E SWAP2 SWAP1 PUSH2 0x52CF JUMP JUMPDEST PUSH2 0x2B76 JUMP JUMPDEST PUSH1 0x40 MLOAD PUSH2 0x760 SWAP2 SWAP1 PUSH2 0x4D89 JUMP JUMPDEST PUSH1 0x40 MLOAD DUP1 SWAP2 SUB SWAP1 RETURN JUMPDEST PUSH2 0x783 PUSH1 0x4 DUP1 CALLDATASIZE SUB DUP2 ADD SWAP1 PUSH2 0x77E SWAP2 SWAP1 PUSH2 0x51A0 JUMP JUMPDEST PUSH2 0x2B94 JUMP JUMPDEST STOP JUMPDEST CALLVALUE DUP1 ISZERO PUSH2 0x791 JUMPI PUSH1 0x0 DUP1 REVERT JUMPDEST POP PUSH2 0x7AC PUSH1 0x4 DUP1 CALLDATASIZE SUB DUP2 ADD SWAP1 PUSH2 0x7A7 SWAP2 SWAP1 PUSH2 0x4B37 JUMP JUMPDEST PUSH2 0x3269 JUMP JUMPDEST PUSH1 0x40 MLOAD PUSH2 0x7B9 SWAP2 SWAP1 PUSH2 0x509C JUMP JUMPDEST PUSH1 0x40 MLOAD DUP1 SWAP2 SUB SWAP1 RETURN JUMPDEST CALLVALUE DUP1 ISZERO PUSH2 0x7CE JUMPI PUSH1 0x0 DUP1 REVERT JUMPDEST POP PUSH2 0x7E9 PUSH1 0x4 DUP1 CALLDATASIZE SUB DUP2 ADD SWAP1 PUSH2 0x7E4 SWAP2 SWAP1 PUSH2 0x4C69 JUMP JUMPDEST PUSH2 0x33F8 JUMP JUMPDEST PUSH1 0x40 MLOAD PUSH2 0x7FB SWAP7 SWAP6 SWAP5 SWAP4 SWAP3 SWAP2 SWAP1 PUSH2 0x530B JUMP JUMPDEST PUSH1 0x40 MLOAD DUP1 SWAP2 SUB SWAP1 RETURN JUMPDEST PUSH2 0x80C PUSH2 0x3434 JUMP JUMPDEST STOP JUMPDEST CALLVALUE DUP1 ISZERO PUSH2 0x81A JUMPI PUSH1 0x0 DUP1 REVERT JUMPDEST POP PUSH2 0x823 PUSH2 0x34E4 JUMP JUMPDEST STOP JUMPDEST CALLVALUE DUP1 ISZERO PUSH2 0x831 JUMPI PUSH1 0x0 DUP1 REVERT JUMPDEST POP PUSH2 0x84C PUSH1 0x4 DUP1 CALLDATASIZE SUB DUP2 ADD SWAP1 PUSH2 0x847 SWAP2 SWAP1 PUSH2 0x4B37 JUMP JUMPDEST PUSH2 0x35DF JUMP JUMPDEST PUSH1 0x40 MLOAD PUSH2 0x859 SWAP2 SWAP1 PUSH2 0x536C JUMP JUMPDEST PUSH1 0x40 MLOAD DUP1 SWAP2 SUB SWAP1 RETURN JUMPDEST CALLVALUE DUP1 ISZERO PUSH2 0x86E JUMPI PUSH1 0x0 DUP1 REVERT JUMPDEST POP PUSH2 0x889 PUSH1 0x4 DUP1 CALLDATASIZE SUB DUP2 ADD SWAP1 PUSH2 0x884 SWAP2 SWAP1 PUSH2 0x4C69 JUMP JUMPDEST PUSH2 0x3611 JUMP JUMPDEST STOP JUMPDEST CALLVALUE DUP1 ISZERO PUSH2 0x897 JUMPI PUSH1 0x0 DUP1 REVERT JUMPDEST POP PUSH2 0x8A0 PUSH2 0x38C2 JUMP JUMPDEST PUSH1 0x40 MLOAD PUSH2 0x8AD SWAP2 SWAP1 PUSH2 0x53A8 JUMP JUMPDEST PUSH1 0x40 MLOAD DUP1 SWAP2 SUB SWAP1 RETURN JUMPDEST CALLVALUE DUP1 ISZERO PUSH2 0x8C2 JUMPI PUSH1 0x0 DUP1 REVERT JUMPDEST POP PUSH2 0x8DD PUSH1 0x4 DUP1 CALLDATASIZE SUB DUP2 ADD SWAP1 PUSH2 0x8D8 SWAP2 SWAP1 PUSH2 0x4B37 JUMP JUMPDEST PUSH2 0x38E6 JUMP JUMPDEST PUSH1 0x40 MLOAD PUSH2 0x8EA SWAP2 SWAP1 PUSH2 0x4D89 JUMP JUMPDEST PUSH1 0x40 MLOAD DUP1 SWAP2 SUB SWAP1 RETURN JUMPDEST CALLVALUE DUP1 ISZERO PUSH2 0x8FF JUMPI PUSH1 0x0 DUP1 REVERT JUMPDEST POP PUSH2 0x91A PUSH1 0x4 DUP1 CALLDATASIZE SUB DUP2 ADD SWAP1 PUSH2 0x915 SWAP2 SWAP1 PUSH2 0x52CF JUMP JUMPDEST PUSH2 0x3950 JUMP JUMPDEST STOP JUMPDEST CALLVALUE DUP1 ISZERO PUSH2 0x928 JUMPI PUSH1 0x0 DUP1 REVERT JUMPDEST POP PUSH2 0x943 PUSH1 0x4 DUP1 CALLDATASIZE SUB DUP2 ADD SWAP1 PUSH2 0x93E SWAP2 SWAP1 PUSH2 0x5160 JUMP JUMPDEST PUSH2 0x3964 JUMP JUMPDEST PUSH1 0x40 MLOAD PUSH2 0x950 SWAP2 SWAP1 PUSH2 0x4C47 JUMP JUMPDEST PUSH1 0x40 MLOAD DUP1 SWAP2 SUB SWAP1 RETURN JUMPDEST CALLVALUE DUP1 ISZERO PUSH2 0x965 JUMPI PUSH1 0x0 DUP1 REVERT JUMPDEST POP PUSH2 0x980 PUSH1 0x4 DUP1 CALLDATASIZE SUB DUP2 ADD SWAP1 PUSH2 0x97B SWAP2 SWAP1 PUSH2 0x53F9 JUMP JUMPDEST PUSH2 0x3A1A JUMP JUMPDEST STOP JUMPDEST PUSH32 0x0 DUP2 JUMP JUMPDEST PUSH1 0x60 PUSH1 0xF PUSH1 0x0 DUP5 DUP2 MSTORE PUSH1 0x20 ADD SWAP1 DUP2 MSTORE PUSH1 0x20 ADD PUSH1 0x0 KECCAK256 PUSH1 0x6 ADD PUSH1 0x0 DUP4 DUP2 MSTORE PUSH1 0x20 ADD SWAP1 DUP2 MSTORE PUSH1 0x20 ADD PUSH1 0x0 KECCAK256 DUP1 SLOAD DUP1 PUSH1 0x20 MUL PUSH1 0x20 ADD PUSH1 0x40 MLOAD SWAP1 DUP2 ADD PUSH1 0x40 MSTORE DUP1 SWAP3 SWAP2 SWAP1 DUP2 DUP2 MSTORE PUSH1 0x20 ADD DUP3 DUP1 SLOAD DUP1 ISZERO PUSH2 0xA4F JUMPI PUSH1 0x20 MUL DUP3 ADD SWAP2 SWAP1 PUSH1 0x0 MSTORE PUSH1 0x20 PUSH1 0x0 KECCAK256 SWAP1 JUMPDEST DUP2 PUSH1 0x0 SWAP1 SLOAD SWAP1 PUSH2 0x100 EXP SWAP1 DIV PUSH20 0xFFFFFFFFFFFFFFFFFFFFFFFFFFFFFFFFFFFFFFFF AND PUSH20 0xFFFFFFFFFFFFFFFFFFFFFFFFFFFFFFFFFFFFFFFF AND DUP2 MSTORE PUSH1 0x20 ADD SWAP1 PUSH1 0x1 ADD SWAP1 DUP1 DUP4 GT PUSH2 0xA05 JUMPI JUMPDEST POP POP POP POP POP SWAP1 POP SWAP3 SWAP2 POP POP JUMP JUMPDEST PUSH1 0x0 PUSH1 0x60 ADDRESS PUSH20 0xFFFFFFFFFFFFFFFFFFFFFFFFFFFFFFFFFFFFFFFF AND PUSH4 0x7E960916 DUP5 PUSH1 0x40 MLOAD DUP3 PUSH4 0xFFFFFFFF AND PUSH1 0xE0 SHL DUP2 MSTORE PUSH1 0x4 ADD PUSH2 0xA99 SWAP2 SWAP1 PUSH2 0x4D89 JUMP JUMPDEST PUSH1 0x20 PUSH1 0x40 MLOAD DUP1 DUP4 SUB DUP2 DUP7 GAS STATICCALL ISZERO DUP1 ISZERO PUSH2 0xAB6 JUMPI RETURNDATASIZE PUSH1 0x0 DUP1 RETURNDATACOPY RETURNDATASIZE PUSH1 0x0 REVERT JUMPDEST POP POP POP POP PUSH1 0x40 MLOAD RETURNDATASIZE PUSH1 0x1F NOT PUSH1 0x1F DUP3 ADD AND DUP3 ADD DUP1 PUSH1 0x40 MSTORE POP DUP2 ADD SWAP1 PUSH2 0xADA SWAP2 SWAP1 PUSH2 0x5475 JUMP JUMPDEST TIMESTAMP GT ISZERO PUSH2 0xB5B JUMPI ADDRESS PUSH20 0xFFFFFFFFFFFFFFFFFFFFFFFFFFFFFFFFFFFFFFFF AND PUSH4 0x5658FA10 DUP5 PUSH1 0x40 MLOAD PUSH1 0x24 ADD PUSH2 0xB0E SWAP2 SWAP1 PUSH2 0x4D89 JUMP JUMPDEST PUSH1 0x40 MLOAD PUSH1 0x20 DUP2 DUP4 SUB SUB DUP2 MSTORE SWAP1 PUSH1 0x40 MSTORE SWAP2 POP PUSH1 0xE0 SHL PUSH1 0x20 DUP3 ADD DUP1 MLOAD PUSH28 0xFFFFFFFFFFFFFFFFFFFFFFFFFFFFFFFFFFFFFFFFFFFFFFFFFFFFFFFF DUP4 DUP2 DUP4 AND OR DUP4 MSTORE POP POP POP POP SWAP1 POP PUSH1 0x1 SWAP2 POP PUSH2 0xB5C JUMP JUMPDEST JUMPDEST SWAP2 POP SWAP2 JUMP JUMPDEST PUSH1 0xC PUSH1 0x20 MSTORE DUP1 PUSH1 0x0 MSTORE PUSH1 0x40 PUSH1 0x0 KECCAK256 PUSH1 0x0 SWAP2 POP SWAP1 POP SLOAD DUP2 JUMP JUMPDEST PUSH1 0xF PUSH1 0x20 MSTORE DUP1 PUSH1 0x0 MSTORE PUSH1 0x40 PUSH1 0x0 KECCAK256 PUSH1 0x0 SWAP2 POP SWAP1 POP DUP1 PUSH1 0x1 ADD SLOAD SWAP1 DUP1 PUSH1 0x2 ADD SLOAD SWAP1 DUP1 PUSH1 0x4 ADD SLOAD SWAP1 DUP1 PUSH1 0x5 ADD SLOAD SWAP1 DUP1 PUSH1 0x8 ADD SLOAD SWAP1 POP DUP6 JUMP JUMPDEST PUSH1 0x11 PUSH1 0x20 MSTORE DUP1 PUSH1 0x0 MSTORE PUSH1 0x40 PUSH1 0x0 KECCAK256 PUSH1 0x0 SWAP2 POP SWAP1 POP SLOAD DUP2 JUMP JUMPDEST PUSH32 0x0 DUP2 JUMP JUMPDEST PUSH1 0xD PUSH1 0x20 MSTORE DUP2 PUSH1 0x0 MSTORE PUSH1 0x40 PUSH1 0x0 KECCAK256 PUSH1 0x20 MSTORE DUP1 PUSH1 0x0 MSTORE PUSH1 0x40 PUSH1 0x0 KECCAK256 PUSH1 0x0 SWAP2 POP SWAP2 POP POP SLOAD DUP2 JUMP JUMPDEST PUSH1 0x0 PUSH2 0xC1B DUP3 PUSH2 0x3611 JUMP JUMPDEST PUSH1 0x12 PUSH1 0x0 DUP4 DUP2 MSTORE PUSH1 0x20 ADD SWAP1 DUP2 MSTORE PUSH1 0x20 ADD PUSH1 0x0 KECCAK256 SLOAD SWAP1 POP SWAP2 SWAP1 POP JUMP JUMPDEST PUSH1 0x60 PUSH1 0xB PUSH1 0x0 CALLER PUSH20 0xFFFFFFFFFFFFFFFFFFFFFFFFFFFFFFFFFFFFFFFF AND PUSH20 0xFFFFFFFFFFFFFFFFFFFFFFFFFFFFFFFFFFFFFFFF AND DUP2 MSTORE PUSH1 0x20 ADD SWAP1 DUP2 MSTORE PUSH1 0x20 ADD PUSH1 0x0 KECCAK256 PUSH1 0x1 ADD DUP1 SLOAD DUP1 PUSH1 0x20 MUL PUSH1 0x20 ADD PUSH1 0x40 MLOAD SWAP1 DUP2 ADD PUSH1 0x40 MSTORE DUP1 SWAP3 SWAP2 SWAP1 DUP2 DUP2 MSTORE PUSH1 0x20 ADD PUSH1 0x0 SWAP1 JUMPDEST DUP3 DUP3 LT ISZERO PUSH2 0xDDC JUMPI DUP4 DUP3 SWAP1 PUSH1 0x0 MSTORE PUSH1 0x20 PUSH1 0x0 KECCAK256 SWAP1 PUSH1 0x6 MUL ADD PUSH1 0x40 MLOAD DUP1 PUSH1 0xC0 ADD PUSH1 0x40 MSTORE SWAP1 DUP2 PUSH1 0x0 DUP3 ADD PUSH1 0x0 SWAP1 SLOAD SWAP1 PUSH2 0x100 EXP SWAP1 DIV PUSH20 0xFFFFFFFFFFFFFFFFFFFFFFFFFFFFFFFFFFFFFFFF AND PUSH20 0xFFFFFFFFFFFFFFFFFFFFFFFFFFFFFFFFFFFFFFFF AND PUSH20 0xFFFFFFFFFFFFFFFFFFFFFFFFFFFFFFFFFFFFFFFF AND DUP2 MSTORE PUSH1 0x20 ADD PUSH1 0x1 DUP3 ADD SLOAD DUP2 MSTORE PUSH1 0x20 ADD PUSH1 0x2 DUP3 ADD SLOAD DUP2 MSTORE PUSH1 0x20 ADD PUSH1 0x3 DUP3 ADD SLOAD DUP2 MSTORE PUSH1 0x20 ADD PUSH1 0x4 DUP3 ADD DUP1 SLOAD PUSH2 0xD41 SWAP1 PUSH2 0x54D1 JUMP JUMPDEST DUP1 PUSH1 0x1F ADD PUSH1 0x20 DUP1 SWAP2 DIV MUL PUSH1 0x20 ADD PUSH1 0x40 MLOAD SWAP1 DUP2 ADD PUSH1 0x40 MSTORE DUP1 SWAP3 SWAP2 SWAP1 DUP2 DUP2 MSTORE PUSH1 0x20 ADD DUP3 DUP1 SLOAD PUSH2 0xD6D SWAP1 PUSH2 0x54D1 JUMP JUMPDEST DUP1 ISZERO PUSH2 0xDBA JUMPI DUP1 PUSH1 0x1F LT PUSH2 0xD8F JUMPI PUSH2 0x100 DUP1 DUP4 SLOAD DIV MUL DUP4 MSTORE SWAP2 PUSH1 0x20 ADD SWAP2 PUSH2 0xDBA JUMP JUMPDEST DUP3 ADD SWAP2 SWAP1 PUSH1 0x0 MSTORE PUSH1 0x20 PUSH1 0x0 KECCAK256 SWAP1 JUMPDEST DUP2 SLOAD DUP2 MSTORE SWAP1 PUSH1 0x1 ADD SWAP1 PUSH1 0x20 ADD DUP1 DUP4 GT PUSH2 0xD9D JUMPI DUP3 SWAP1 SUB PUSH1 0x1F AND DUP3 ADD SWAP2 JUMPDEST POP POP POP POP POP DUP2 MSTORE PUSH1 0x20 ADD PUSH1 0x5 DUP3 ADD SLOAD DUP2 MSTORE POP POP DUP2 MSTORE PUSH1 0x20 ADD SWAP1 PUSH1 0x1 ADD SWAP1 PUSH2 0xC9A JUMP JUMPDEST POP POP POP POP SWAP1 POP SWAP1 JUMP JUMPDEST PUSH32 0x0 DUP2 JUMP JUMPDEST PUSH1 0x0 DUP1 PUSH2 0xE15 DUP4 PUSH2 0x3611 JUMP JUMPDEST PUSH1 0x0 PUSH1 0x11 PUSH1 0x0 DUP6 DUP2 MSTORE PUSH1 0x20 ADD SWAP1 DUP2 MSTORE PUSH1 0x20 ADD PUSH1 0x0 KECCAK256 SLOAD GT DUP1 ISZERO PUSH2 0xE5D JUMPI POP PUSH1 0x12 PUSH1 0x0 DUP5 DUP2 MSTORE PUSH1 0x20 ADD SWAP1 DUP2 MSTORE PUSH1 0x20 ADD PUSH1 0x0 KECCAK256 SLOAD PUSH1 0x11 PUSH1 0x0 DUP6 DUP2 MSTORE PUSH1 0x20 ADD SWAP1 DUP2 MSTORE PUSH1 0x20 ADD PUSH1 0x0 KECCAK256 SLOAD GT JUMPDEST ISZERO PUSH2 0xE99 JUMPI PUSH1 0xE PUSH1 0x0 DUP5 DUP2 MSTORE PUSH1 0x20 ADD SWAP1 DUP2 MSTORE PUSH1 0x20 ADD PUSH1 0x0 KECCAK256 PUSH1 0x4 ADD SLOAD SWAP2 POP PUSH1 0xE PUSH1 0x0 DUP5 DUP2 MSTORE PUSH1 0x20 ADD SWAP1 DUP2 MSTORE PUSH1 0x20 ADD PUSH1 0x0 KECCAK256 PUSH1 0x3 ADD SLOAD SWAP1 POP PUSH2 0xF1A JUMP JUMPDEST PUSH1 0x0 PUSH1 0x12 PUSH1 0x0 DUP6 DUP2 MSTORE PUSH1 0x20 ADD SWAP1 DUP2 MSTORE PUSH1 0x20 ADD PUSH1 0x0 KECCAK256 SLOAD GT DUP1 ISZERO PUSH2 0xEE1 JUMPI POP PUSH1 0x11 PUSH1 0x0 DUP5 DUP2 MSTORE PUSH1 0x20 ADD SWAP1 DUP2 MSTORE PUSH1 0x20 ADD PUSH1 0x0 KECCAK256 SLOAD PUSH1 0x12 PUSH1 0x0 DUP6 DUP2 MSTORE PUSH1 0x20 ADD SWAP1 DUP2 MSTORE PUSH1 0x20 ADD PUSH1 0x0 KECCAK256 SLOAD GT JUMPDEST ISZERO PUSH2 0xF19 JUMPI PUSH1 0xE PUSH1 0x0 DUP5 DUP2 MSTORE PUSH1 0x20 ADD SWAP1 DUP2 MSTORE PUSH1 0x20 ADD PUSH1 0x0 KECCAK256 PUSH1 0x3 ADD SLOAD SWAP2 POP PUSH1 0xE PUSH1 0x0 DUP5 DUP2 MSTORE PUSH1 0x20 ADD SWAP1 DUP2 MSTORE PUSH1 0x20 ADD PUSH1 0x0 KECCAK256 PUSH1 0x4 ADD SLOAD SWAP1 POP JUMPDEST JUMPDEST PUSH1 0x0 JUMPDEST PUSH1 0xE PUSH1 0x0 DUP6 DUP2 MSTORE PUSH1 0x20 ADD SWAP1 DUP2 MSTORE PUSH1 0x20 ADD PUSH1 0x0 KECCAK256 PUSH1 0x5 ADD PUSH1 0x0 DUP5 DUP2 MSTORE PUSH1 0x20 ADD SWAP1 DUP2 MSTORE PUSH1 0x20 ADD PUSH1 0x0 KECCAK256 DUP1 SLOAD SWAP1 POP DUP2 LT ISZERO PUSH2 0x11B9 JUMPI PUSH1 0x0 PUSH1 0xE PUSH1 0x0 DUP7 DUP2 MSTORE PUSH1 0x20 ADD SWAP1 DUP2 MSTORE PUSH1 0x20 ADD PUSH1 0x0 KECCAK256 PUSH1 0x6 ADD PUSH1 0x0 DUP6 DUP2 MSTORE PUSH1 0x20 ADD SWAP1 DUP2 MSTORE PUSH1 0x20 ADD PUSH1 0x0 KECCAK256 PUSH1 0x0 PUSH1 0xE PUSH1 0x0 DUP9 DUP2 MSTORE PUSH1 0x20 ADD SWAP1 DUP2 MSTORE PUSH1 0x20 ADD PUSH1 0x0 KECCAK256 PUSH1 0x5 ADD PUSH1 0x0 DUP8 DUP2 MSTORE PUSH1 0x20 ADD SWAP1 DUP2 MSTORE PUSH1 0x20 ADD PUSH1 0x0 KECCAK256 DUP5 DUP2 SLOAD DUP2 LT PUSH2 0xFB3 JUMPI PUSH2 0xFB2 PUSH2 0x5502 JUMP JUMPDEST JUMPDEST SWAP1 PUSH1 0x0 MSTORE PUSH1 0x20 PUSH1 0x0 KECCAK256 ADD PUSH1 0x0 SWAP1 SLOAD SWAP1 PUSH2 0x100 EXP SWAP1 DIV PUSH20 0xFFFFFFFFFFFFFFFFFFFFFFFFFFFFFFFFFFFFFFFF AND PUSH20 0xFFFFFFFFFFFFFFFFFFFFFFFFFFFFFFFFFFFFFFFF AND PUSH20 0xFFFFFFFFFFFFFFFFFFFFFFFFFFFFFFFFFFFFFFFF AND DUP2 MSTORE PUSH1 0x20 ADD SWAP1 DUP2 MSTORE PUSH1 0x20 ADD PUSH1 0x0 KECCAK256 PUSH1 0x1 ADD SLOAD SWAP1 POP PUSH1 0xE PUSH1 0x0 DUP7 DUP2 MSTORE PUSH1 0x20 ADD SWAP1 DUP2 MSTORE PUSH1 0x20 ADD PUSH1 0x0 KECCAK256 PUSH1 0x5 ADD PUSH1 0x0 DUP6 DUP2 MSTORE PUSH1 0x20 ADD SWAP1 DUP2 MSTORE PUSH1 0x20 ADD PUSH1 0x0 KECCAK256 DUP3 DUP2 SLOAD DUP2 LT PUSH2 0x1057 JUMPI PUSH2 0x1056 PUSH2 0x5502 JUMP JUMPDEST JUMPDEST SWAP1 PUSH1 0x0 MSTORE PUSH1 0x20 PUSH1 0x0 KECCAK256 ADD PUSH1 0x0 SWAP1 SLOAD SWAP1 PUSH2 0x100 EXP SWAP1 DIV PUSH20 0xFFFFFFFFFFFFFFFFFFFFFFFFFFFFFFFFFFFFFFFF AND PUSH20 0xFFFFFFFFFFFFFFFFFFFFFFFFFFFFFFFFFFFFFFFF AND PUSH2 0x8FC PUSH1 0xE PUSH1 0x0 DUP9 DUP2 MSTORE PUSH1 0x20 ADD SWAP1 DUP2 MSTORE PUSH1 0x20 ADD PUSH1 0x0 KECCAK256 PUSH1 0x1 ADD SLOAD DUP4 PUSH2 0x10BD SWAP2 SWAP1 PUSH2 0x558F JUMP JUMPDEST SWAP1 DUP2 ISZERO MUL SWAP1 PUSH1 0x40 MLOAD PUSH1 0x0 PUSH1 0x40 MLOAD DUP1 DUP4 SUB DUP2 DUP6 DUP9 DUP9 CALL SWAP4 POP POP POP POP ISZERO DUP1 ISZERO PUSH2 0x10E8 JUMPI RETURNDATASIZE PUSH1 0x0 DUP1 RETURNDATACOPY RETURNDATASIZE PUSH1 0x0 REVERT JUMPDEST POP DUP1 PUSH1 0xB PUSH1 0x0 PUSH1 0xE PUSH1 0x0 DUP10 DUP2 MSTORE PUSH1 0x20 ADD SWAP1 DUP2 MSTORE PUSH1 0x20 ADD PUSH1 0x0 KECCAK256 PUSH1 0x5 ADD PUSH1 0x0 DUP9 DUP2 MSTORE PUSH1 0x20 ADD SWAP1 DUP2 MSTORE PUSH1 0x20 ADD PUSH1 0x0 KECCAK256 DUP6 DUP2 SLOAD DUP2 LT PUSH2 0x1127 JUMPI PUSH2 0x1126 PUSH2 0x5502 JUMP JUMPDEST JUMPDEST SWAP1 PUSH1 0x0 MSTORE PUSH1 0x20 PUSH1 0x0 KECCAK256 ADD PUSH1 0x0 SWAP1 SLOAD SWAP1 PUSH2 0x100 EXP SWAP1 DIV PUSH20 0xFFFFFFFFFFFFFFFFFFFFFFFFFFFFFFFFFFFFFFFF AND PUSH20 0xFFFFFFFFFFFFFFFFFFFFFFFFFFFFFFFFFFFFFFFF AND PUSH20 0xFFFFFFFFFFFFFFFFFFFFFFFFFFFFFFFFFFFFFFFF AND DUP2 MSTORE PUSH1 0x20 ADD SWAP1 DUP2 MSTORE PUSH1 0x20 ADD PUSH1 0x0 KECCAK256 PUSH1 0x0 ADD PUSH1 0x0 DUP3 DUP3 SLOAD PUSH2 0x119E SWAP2 SWAP1 PUSH2 0x55C0 JUMP JUMPDEST SWAP3 POP POP DUP2 SWAP1 SSTORE POP POP DUP1 DUP1 PUSH2 0x11B1 SWAP1 PUSH2 0x55F4 JUMP JUMPDEST SWAP2 POP POP PUSH2 0xF1D JUMP JUMPDEST POP PUSH1 0x0 JUMPDEST PUSH1 0xE PUSH1 0x0 DUP6 DUP2 MSTORE PUSH1 0x20 ADD SWAP1 DUP2 MSTORE PUSH1 0x20 ADD PUSH1 0x0 KECCAK256 PUSH1 0x5 ADD PUSH1 0x0 DUP4 DUP2 MSTORE PUSH1 0x20 ADD SWAP1 DUP2 MSTORE PUSH1 0x20 ADD PUSH1 0x0 KECCAK256 DUP1 SLOAD SWAP1 POP DUP2 LT ISZERO PUSH2 0x138E JUMPI PUSH1 0x0 PUSH1 0xE PUSH1 0x0 DUP7 DUP2 MSTORE PUSH1 0x20 ADD SWAP1 DUP2 MSTORE PUSH1 0x20 ADD PUSH1 0x0 KECCAK256 PUSH1 0x6 ADD PUSH1 0x0 DUP5 DUP2 MSTORE PUSH1 0x20 ADD SWAP1 DUP2 MSTORE PUSH1 0x20 ADD PUSH1 0x0 KECCAK256 PUSH1 0x0 PUSH1 0xE PUSH1 0x0 DUP9 DUP2 MSTORE PUSH1 0x20 ADD SWAP1 DUP2 MSTORE PUSH1 0x20 ADD PUSH1 0x0 KECCAK256 PUSH1 0x5 ADD PUSH1 0x0 DUP7 DUP2 MSTORE PUSH1 0x20 ADD SWAP1 DUP2 MSTORE PUSH1 0x20 ADD PUSH1 0x0 KECCAK256 DUP5 DUP2 SLOAD DUP2 LT PUSH2 0x1253 JUMPI PUSH2 0x1252 PUSH2 0x5502 JUMP JUMPDEST JUMPDEST SWAP1 PUSH1 0x0 MSTORE PUSH1 0x20 PUSH1 0x0 KECCAK256 ADD PUSH1 0x0 SWAP1 SLOAD SWAP1 PUSH2 0x100 EXP SWAP1 DIV PUSH20 0xFFFFFFFFFFFFFFFFFFFFFFFFFFFFFFFFFFFFFFFF AND PUSH20 0xFFFFFFFFFFFFFFFFFFFFFFFFFFFFFFFFFFFFFFFF AND PUSH20 0xFFFFFFFFFFFFFFFFFFFFFFFFFFFFFFFFFFFFFFFF AND DUP2 MSTORE PUSH1 0x20 ADD SWAP1 DUP2 MSTORE PUSH1 0x20 ADD PUSH1 0x0 KECCAK256 PUSH1 0x1 ADD SLOAD SWAP1 POP DUP1 PUSH1 0xB PUSH1 0x0 PUSH1 0xE PUSH1 0x0 DUP10 DUP2 MSTORE PUSH1 0x20 ADD SWAP1 DUP2 MSTORE PUSH1 0x20 ADD PUSH1 0x0 KECCAK256 PUSH1 0x5 ADD PUSH1 0x0 DUP8 DUP2 MSTORE PUSH1 0x20 ADD SWAP1 DUP2 MSTORE PUSH1 0x20 ADD PUSH1 0x0 KECCAK256 DUP6 DUP2 SLOAD DUP2 LT PUSH2 0x12FC JUMPI PUSH2 0x12FB PUSH2 0x5502 JUMP JUMPDEST JUMPDEST SWAP1 PUSH1 0x0 MSTORE PUSH1 0x20 PUSH1 0x0 KECCAK256 ADD PUSH1 0x0 SWAP1 SLOAD SWAP1 PUSH2 0x100 EXP SWAP1 DIV PUSH20 0xFFFFFFFFFFFFFFFFFFFFFFFFFFFFFFFFFFFFFFFF AND PUSH20 0xFFFFFFFFFFFFFFFFFFFFFFFFFFFFFFFFFFFFFFFF AND PUSH20 0xFFFFFFFFFFFFFFFFFFFFFFFFFFFFFFFFFFFFFFFF AND DUP2 MSTORE PUSH1 0x20 ADD SWAP1 DUP2 MSTORE PUSH1 0x20 ADD PUSH1 0x0 KECCAK256 PUSH1 0x0 ADD PUSH1 0x0 DUP3 DUP3 SLOAD PUSH2 0x1373 SWAP2 SWAP1 PUSH2 0x55C0 JUMP JUMPDEST SWAP3 POP POP DUP2 SWAP1 SSTORE POP POP DUP1 DUP1 PUSH2 0x1386 SWAP1 PUSH2 0x55F4 JUMP JUMPDEST SWAP2 POP POP PUSH2 0x11BD JUMP JUMPDEST POP POP POP POP JUMP JUMPDEST PUSH1 0x0 PUSH1 0x10 PUSH1 0x0 DUP4 DUP2 MSTORE PUSH1 0x20 ADD SWAP1 DUP2 MSTORE PUSH1 0x20 ADD PUSH1 0x0 KECCAK256 PUSH1 0x0 ADD SLOAD SWAP1 POP SWAP2 SWAP1 POP JUMP JUMPDEST PUSH2 0x13BC PUSH2 0x48EC JUMP JUMPDEST PUSH1 0xF PUSH1 0x0 DUP5 DUP2 MSTORE PUSH1 0x20 ADD SWAP1 DUP2 MSTORE PUSH1 0x20 ADD PUSH1 0x0 KECCAK256 PUSH1 0x7 ADD PUSH1 0x0 DUP4 DUP2 MSTORE PUSH1 0x20 ADD SWAP1 DUP2 MSTORE PUSH1 0x20 ADD PUSH1 0x0 KECCAK256 PUSH1 0x0 CALLER PUSH20 0xFFFFFFFFFFFFFFFFFFFFFFFFFFFFFFFFFFFFFFFF AND PUSH20 0xFFFFFFFFFFFFFFFFFFFFFFFFFFFFFFFFFFFFFFFF AND DUP2 MSTORE PUSH1 0x20 ADD SWAP1 DUP2 MSTORE PUSH1 0x20 ADD PUSH1 0x0 KECCAK256 PUSH1 0x40 MLOAD DUP1 PUSH1 0xC0 ADD PUSH1 0x40 MSTORE SWAP1 DUP2 PUSH1 0x0 DUP3 ADD PUSH1 0x0 SWAP1 SLOAD SWAP1 PUSH2 0x100 EXP SWAP1 DIV PUSH20 0xFFFFFFFFFFFFFFFFFFFFFFFFFFFFFFFFFFFFFFFF AND PUSH20 0xFFFFFFFFFFFFFFFFFFFFFFFFFFFFFFFFFFFFFFFF AND PUSH20 0xFFFFFFFFFFFFFFFFFFFFFFFFFFFFFFFFFFFFFFFF AND DUP2 MSTORE PUSH1 0x20 ADD PUSH1 0x1 DUP3 ADD SLOAD DUP2 MSTORE PUSH1 0x20 ADD PUSH1 0x2 DUP3 ADD SLOAD DUP2 MSTORE PUSH1 0x20 ADD PUSH1 0x3 DUP3 ADD SLOAD DUP2 MSTORE PUSH1 0x20 ADD PUSH1 0x4 DUP3 ADD DUP1 SLOAD PUSH2 0x14AF SWAP1 PUSH2 0x54D1 JUMP JUMPDEST DUP1 PUSH1 0x1F ADD PUSH1 0x20 DUP1 SWAP2 DIV MUL PUSH1 0x20 ADD PUSH1 0x40 MLOAD SWAP1 DUP2 ADD PUSH1 0x40 MSTORE DUP1 SWAP3 SWAP2 SWAP1 DUP2 DUP2 MSTORE PUSH1 0x20 ADD DUP3 DUP1 SLOAD PUSH2 0x14DB SWAP1 PUSH2 0x54D1 JUMP JUMPDEST DUP1 ISZERO PUSH2 0x1528 JUMPI DUP1 PUSH1 0x1F LT PUSH2 0x14FD JUMPI PUSH2 0x100 DUP1 DUP4 SLOAD DIV MUL DUP4 MSTORE SWAP2 PUSH1 0x20 ADD SWAP2 PUSH2 0x1528 JUMP JUMPDEST DUP3 ADD SWAP2 SWAP1 PUSH1 0x0 MSTORE PUSH1 0x20 PUSH1 0x0 KECCAK256 SWAP1 JUMPDEST DUP2 SLOAD DUP2 MSTORE SWAP1 PUSH1 0x1 ADD SWAP1 PUSH1 0x20 ADD DUP1 DUP4 GT PUSH2 0x150B JUMPI DUP3 SWAP1 SUB PUSH1 0x1F AND DUP3 ADD SWAP2 JUMPDEST POP POP POP POP POP DUP2 MSTORE PUSH1 0x20 ADD PUSH1 0x5 DUP3 ADD SLOAD DUP2 MSTORE POP POP SWAP1 POP SWAP3 SWAP2 POP POP JUMP JUMPDEST PUSH32 0x0 PUSH20 0xFFFFFFFFFFFFFFFFFFFFFFFFFFFFFFFFFFFFFFFF AND CALLER PUSH20 0xFFFFFFFFFFFFFFFFFFFFFFFFFFFFFFFFFFFFFFFF AND EQ PUSH2 0x15D1 JUMPI PUSH1 0x40 MLOAD PUSH32 0x8C379A000000000000000000000000000000000000000000000000000000000 DUP2 MSTORE PUSH1 0x4 ADD PUSH2 0x15C8 SWAP1 PUSH2 0x56BF JUMP JUMPDEST PUSH1 0x40 MLOAD DUP1 SWAP2 SUB SWAP1 REVERT JUMPDEST PUSH32 0x0 PUSH20 0xFFFFFFFFFFFFFFFFFFFFFFFFFFFFFFFFFFFFFFFF AND PUSH4 0x1C20FADD PUSH32 0x0 DUP4 DUP6 PUSH1 0x40 MLOAD DUP5 PUSH4 0xFFFFFFFF AND PUSH1 0xE0 SHL DUP2 MSTORE PUSH1 0x4 ADD PUSH2 0x164E SWAP4 SWAP3 SWAP2 SWAP1 PUSH2 0x56EE JUMP JUMPDEST PUSH1 0x0 PUSH1 0x40 MLOAD DUP1 DUP4 SUB DUP2 PUSH1 0x0 DUP8 DUP1 EXTCODESIZE ISZERO DUP1 ISZERO PUSH2 0x1668 JUMPI PUSH1 0x0 DUP1 REVERT JUMPDEST POP GAS CALL ISZERO DUP1 ISZERO PUSH2 0x167C JUMPI RETURNDATASIZE PUSH1 0x0 DUP1 RETURNDATACOPY RETURNDATASIZE PUSH1 0x0 REVERT JUMPDEST POP POP POP POP POP POP JUMP JUMPDEST PUSH1 0x7 PUSH1 0x0 SWAP1 SLOAD SWAP1 PUSH2 0x100 EXP SWAP1 DIV PUSH20 0xFFFFFFFFFFFFFFFFFFFFFFFFFFFFFFFFFFFFFFFF AND PUSH20 0xFFFFFFFFFFFFFFFFFFFFFFFFFFFFFFFFFFFFFFFF AND CALLER PUSH20 0xFFFFFFFFFFFFFFFFFFFFFFFFFFFFFFFFFFFFFFFF AND EQ PUSH2 0x1714 JUMPI PUSH1 0x40 MLOAD PUSH32 0x8C379A000000000000000000000000000000000000000000000000000000000 DUP2 MSTORE PUSH1 0x4 ADD PUSH2 0x170B SWAP1 PUSH2 0x5771 JUMP JUMPDEST PUSH1 0x40 MLOAD DUP1 SWAP2 SUB SWAP1 REVERT JUMPDEST PUSH1 0x0 PUSH1 0x6 PUSH1 0x0 SWAP1 SLOAD SWAP1 PUSH2 0x100 EXP SWAP1 DIV PUSH20 0xFFFFFFFFFFFFFFFFFFFFFFFFFFFFFFFFFFFFFFFF AND SWAP1 POP CALLER PUSH1 0x6 PUSH1 0x0 PUSH2 0x100 EXP DUP2 SLOAD DUP2 PUSH20 0xFFFFFFFFFFFFFFFFFFFFFFFFFFFFFFFFFFFFFFFF MUL NOT AND SWAP1 DUP4 PUSH20 0xFFFFFFFFFFFFFFFFFFFFFFFFFFFFFFFFFFFFFFFF AND MUL OR SWAP1 SSTORE POP PUSH1 0x0 PUSH1 0x7 PUSH1 0x0 PUSH2 0x100 EXP DUP2 SLOAD DUP2 PUSH20 0xFFFFFFFFFFFFFFFFFFFFFFFFFFFFFFFFFFFFFFFF MUL NOT AND SWAP1 DUP4 PUSH20 0xFFFFFFFFFFFFFFFFFFFFFFFFFFFFFFFFFFFFFFFF AND MUL OR SWAP1 SSTORE POP CALLER PUSH20 0xFFFFFFFFFFFFFFFFFFFFFFFFFFFFFFFFFFFFFFFF AND DUP2 PUSH20 0xFFFFFFFFFFFFFFFFFFFFFFFFFFFFFFFFFFFFFFFF AND PUSH32 0x8BE0079C531659141344CD1FD0A4F28419497F9722A3DAAFE3B4186F6B6457E0 PUSH1 0x40 MLOAD PUSH1 0x40 MLOAD DUP1 SWAP2 SUB SWAP1 LOG3 POP JUMP JUMPDEST PUSH1 0x0 PUSH1 0xE PUSH1 0x0 DUP4 DUP2 MSTORE PUSH1 0x20 ADD SWAP1 DUP2 MSTORE PUSH1 0x20 ADD PUSH1 0x0 KECCAK256 PUSH1 0x0 ADD SLOAD SWAP1 POP SWAP2 SWAP1 POP JUMP JUMPDEST PUSH1 0x0 PUSH1 0xB PUSH1 0x0 CALLER PUSH20 0xFFFFFFFFFFFFFFFFFFFFFFFFFFFFFFFFFFFFFFFF AND PUSH20 0xFFFFFFFFFFFFFFFFFFFFFFFFFFFFFFFFFFFFFFFF AND DUP2 MSTORE PUSH1 0x20 ADD SWAP1 DUP2 MSTORE PUSH1 0x20 ADD PUSH1 0x0 KECCAK256 PUSH1 0x0 ADD SLOAD SWAP1 POP SWAP1 JUMP JUMPDEST PUSH1 0x12 PUSH1 0x20 MSTORE DUP1 PUSH1 0x0 MSTORE PUSH1 0x40 PUSH1 0x0 KECCAK256 PUSH1 0x0 SWAP2 POP SWAP1 POP SLOAD DUP2 JUMP JUMPDEST PUSH2 0x18A5 PUSH2 0x48EC JUMP JUMPDEST PUSH1 0x10 PUSH1 0x0 DUP5 DUP2 MSTORE PUSH1 0x20 ADD SWAP1 DUP2 MSTORE PUSH1 0x20 ADD PUSH1 0x0 KECCAK256 PUSH1 0x7 ADD PUSH1 0x0 DUP4 DUP2 MSTORE PUSH1 0x20 ADD SWAP1 DUP2 MSTORE PUSH1 0x20 ADD PUSH1 0x0 KECCAK256 PUSH1 0x0 CALLER PUSH20 0xFFFFFFFFFFFFFFFFFFFFFFFFFFFFFFFFFFFFFFFF AND PUSH20 0xFFFFFFFFFFFFFFFFFFFFFFFFFFFFFFFFFFFFFFFF AND DUP2 MSTORE PUSH1 0x20 ADD SWAP1 DUP2 MSTORE PUSH1 0x20 ADD PUSH1 0x0 KECCAK256 PUSH1 0x40 MLOAD DUP1 PUSH1 0xC0 ADD PUSH1 0x40 MSTORE SWAP1 DUP2 PUSH1 0x0 DUP3 ADD PUSH1 0x0 SWAP1 SLOAD SWAP1 PUSH2 0x100 EXP SWAP1 DIV PUSH20 0xFFFFFFFFFFFFFFFFFFFFFFFFFFFFFFFFFFFFFFFF AND PUSH20 0xFFFFFFFFFFFFFFFFFFFFFFFFFFFFFFFFFFFFFFFF AND PUSH20 0xFFFFFFFFFFFFFFFFFFFFFFFFFFFFFFFFFFFFFFFF AND DUP2 MSTORE PUSH1 0x20 ADD PUSH1 0x1 DUP3 ADD SLOAD DUP2 MSTORE PUSH1 0x20 ADD PUSH1 0x2 DUP3 ADD SLOAD DUP2 MSTORE PUSH1 0x20 ADD PUSH1 0x3 DUP3 ADD SLOAD DUP2 MSTORE PUSH1 0x20 ADD PUSH1 0x4 DUP3 ADD DUP1 SLOAD PUSH2 0x1998 SWAP1 PUSH2 0x54D1 JUMP JUMPDEST DUP1 PUSH1 0x1F ADD PUSH1 0x20 DUP1 SWAP2 DIV MUL PUSH1 0x20 ADD PUSH1 0x40 MLOAD SWAP1 DUP2 ADD PUSH1 0x40 MSTORE DUP1 SWAP3 SWAP2 SWAP1 DUP2 DUP2 MSTORE PUSH1 0x20 ADD DUP3 DUP1 SLOAD PUSH2 0x19C4 SWAP1 PUSH2 0x54D1 JUMP JUMPDEST DUP1 ISZERO PUSH2 0x1A11 JUMPI DUP1 PUSH1 0x1F LT PUSH2 0x19E6 JUMPI PUSH2 0x100 DUP1 DUP4 SLOAD DIV MUL DUP4 MSTORE SWAP2 PUSH1 0x20 ADD SWAP2 PUSH2 0x1A11 JUMP JUMPDEST DUP3 ADD SWAP2 SWAP1 PUSH1 0x0 MSTORE PUSH1 0x20 PUSH1 0x0 KECCAK256 SWAP1 JUMPDEST DUP2 SLOAD DUP2 MSTORE SWAP1 PUSH1 0x1 ADD SWAP1 PUSH1 0x20 ADD DUP1 DUP4 GT PUSH2 0x19F4 JUMPI DUP3 SWAP1 SUB PUSH1 0x1F AND DUP3 ADD SWAP2 JUMPDEST POP POP POP POP POP DUP2 MSTORE PUSH1 0x20 ADD PUSH1 0x5 DUP3 ADD SLOAD DUP2 MSTORE POP POP SWAP1 POP SWAP3 SWAP2 POP POP JUMP JUMPDEST DUP3 DUP5 SUB PUSH2 0x1A38 JUMPI PUSH1 0x0 DUP1 REVERT JUMPDEST DUP7 PUSH20 0xFFFFFFFFFFFFFFFFFFFFFFFFFFFFFFFFFFFFFFFF AND CALLER PUSH20 0xFFFFFFFFFFFFFFFFFFFFFFFFFFFFFFFFFFFFFFFF AND EQ PUSH2 0x1AA6 JUMPI PUSH1 0x40 MLOAD PUSH32 0x8C379A000000000000000000000000000000000000000000000000000000000 DUP2 MSTORE PUSH1 0x4 ADD PUSH2 0x1A9D SWAP1 PUSH2 0x5803 JUMP JUMPDEST PUSH1 0x40 MLOAD DUP1 SWAP2 SUB SWAP1 REVERT JUMPDEST PUSH1 0x0 CALLVALUE GT PUSH2 0x1AE9 JUMPI PUSH1 0x40 MLOAD PUSH32 0x8C379A000000000000000000000000000000000000000000000000000000000 DUP2 MSTORE PUSH1 0x4 ADD PUSH2 0x1AE0 SWAP1 PUSH2 0x586F JUMP JUMPDEST PUSH1 0x40 MLOAD DUP1 SWAP2 SUB SWAP1 REVERT JUMPDEST PUSH1 0x0 PUSH1 0x64 PUSH1 0x5 CALLVALUE PUSH2 0x1AFA SWAP2 SWAP1 PUSH2 0x588F JUMP JUMPDEST PUSH2 0x1B04 SWAP2 SWAP1 PUSH2 0x558F JUMP JUMPDEST SWAP1 POP PUSH1 0x0 PUSH1 0x64 PUSH1 0x5F CALLVALUE PUSH2 0x1B17 SWAP2 SWAP1 PUSH2 0x588F JUMP JUMPDEST PUSH2 0x1B21 SWAP2 SWAP1 PUSH2 0x558F JUMP JUMPDEST SWAP1 POP PUSH1 0x0 PUSH1 0x10 PUSH1 0x0 DUP11 DUP2 MSTORE PUSH1 0x20 ADD SWAP1 DUP2 MSTORE PUSH1 0x20 ADD PUSH1 0x0 KECCAK256 SWAP1 POP PUSH1 0x0 PUSH1 0xB PUSH1 0x0 CALLER PUSH20 0xFFFFFFFFFFFFFFFFFFFFFFFFFFFFFFFFFFFFFFFF AND PUSH20 0xFFFFFFFFFFFFFFFFFFFFFFFFFFFFFFFFFFFFFFFF AND DUP2 MSTORE PUSH1 0x20 ADD SWAP1 DUP2 MSTORE PUSH1 0x20 ADD PUSH1 0x0 KECCAK256 PUSH1 0x1 ADD SWAP1 POP PUSH1 0x0 DUP3 PUSH1 0x7 ADD PUSH1 0x0 DUP8 DUP2 MSTORE PUSH1 0x20 ADD SWAP1 DUP2 MSTORE PUSH1 0x20 ADD PUSH1 0x0 KECCAK256 PUSH1 0x0 CALLER PUSH20 0xFFFFFFFFFFFFFFFFFFFFFFFFFFFFFFFFFFFFFFFF AND PUSH20 0xFFFFFFFFFFFFFFFFFFFFFFFFFFFFFFFFFFFFFFFF AND DUP2 MSTORE PUSH1 0x20 ADD SWAP1 DUP2 MSTORE PUSH1 0x20 ADD PUSH1 0x0 KECCAK256 SWAP1 POP PUSH1 0x0 DUP4 PUSH1 0x6 ADD PUSH1 0x0 DUP9 DUP2 MSTORE PUSH1 0x20 ADD SWAP1 DUP2 MSTORE PUSH1 0x20 ADD PUSH1 0x0 KECCAK256 SWAP1 POP PUSH1 0x8 PUSH1 0x0 SWAP1 SLOAD SWAP1 PUSH2 0x100 EXP SWAP1 DIV PUSH20 0xFFFFFFFFFFFFFFFFFFFFFFFFFFFFFFFFFFFFFFFF AND PUSH20 0xFFFFFFFFFFFFFFFFFFFFFFFFFFFFFFFFFFFFFFFF AND PUSH2 0x8FC DUP8 SWAP1 DUP2 ISZERO MUL SWAP1 PUSH1 0x40 MLOAD PUSH1 0x0 PUSH1 0x40 MLOAD DUP1 DUP4 SUB DUP2 DUP6 DUP9 DUP9 CALL SWAP4 POP POP POP POP ISZERO DUP1 ISZERO PUSH2 0x1C57 JUMPI RETURNDATASIZE PUSH1 0x0 DUP1 RETURNDATACOPY RETURNDATASIZE PUSH1 0x0 REVERT JUMPDEST POP DUP5 PUSH1 0xB PUSH1 0x0 CALLER PUSH20 0xFFFFFFFFFFFFFFFFFFFFFFFFFFFFFFFFFFFFFFFF AND PUSH20 0xFFFFFFFFFFFFFFFFFFFFFFFFFFFFFFFFFFFFFFFF AND DUP2 MSTORE PUSH1 0x20 ADD SWAP1 DUP2 MSTORE PUSH1 0x20 ADD PUSH1 0x0 KECCAK256 PUSH1 0x0 ADD PUSH1 0x0 DUP3 DUP3 SLOAD PUSH2 0x1CAA SWAP2 SWAP1 PUSH2 0x58E9 JUMP JUMPDEST SWAP3 POP POP DUP2 SWAP1 SSTORE POP DUP3 PUSH1 0x40 MLOAD DUP1 PUSH1 0xC0 ADD PUSH1 0x40 MSTORE DUP1 CALLER PUSH20 0xFFFFFFFFFFFFFFFFFFFFFFFFFFFFFFFFFFFFFFFF AND DUP2 MSTORE PUSH1 0x20 ADD DUP8 DUP2 MSTORE PUSH1 0x20 ADD PUSH1 0x0 DUP2 MSTORE PUSH1 0x20 ADD DUP15 DUP2 MSTORE PUSH1 0x20 ADD PUSH1 0x40 MLOAD DUP1 PUSH1 0x40 ADD PUSH1 0x40 MSTORE DUP1 PUSH1 0xB DUP2 MSTORE PUSH1 0x20 ADD PUSH32 0x506F696E7420546F74616C000000000000000000000000000000000000000000 DUP2 MSTORE POP DUP2 MSTORE PUSH1 0x20 ADD TIMESTAMP DUP2 MSTORE POP SWAP1 DUP1 PUSH1 0x1 DUP2 SLOAD ADD DUP1 DUP3 SSTORE DUP1 SWAP2 POP POP PUSH1 0x1 SWAP1 SUB SWAP1 PUSH1 0x0 MSTORE PUSH1 0x20 PUSH1 0x0 KECCAK256 SWAP1 PUSH1 0x6 MUL ADD PUSH1 0x0 SWAP1 SWAP2 SWAP1 SWAP2 SWAP1 SWAP2 POP PUSH1 0x0 DUP3 ADD MLOAD DUP2 PUSH1 0x0 ADD PUSH1 0x0 PUSH2 0x100 EXP DUP2 SLOAD DUP2 PUSH20 0xFFFFFFFFFFFFFFFFFFFFFFFFFFFFFFFFFFFFFFFF MUL NOT AND SWAP1 DUP4 PUSH20 0xFFFFFFFFFFFFFFFFFFFFFFFFFFFFFFFFFFFFFFFF AND MUL OR SWAP1 SSTORE POP PUSH1 0x20 DUP3 ADD MLOAD DUP2 PUSH1 0x1 ADD SSTORE PUSH1 0x40 DUP3 ADD MLOAD DUP2 PUSH1 0x2 ADD SSTORE PUSH1 0x60 DUP3 ADD MLOAD DUP2 PUSH1 0x3 ADD SSTORE PUSH1 0x80 DUP3 ADD MLOAD DUP2 PUSH1 0x4 ADD SWAP1 DUP1 MLOAD SWAP1 PUSH1 0x20 ADD SWAP1 PUSH2 0x1DD5 SWAP3 SWAP2 SWAP1 PUSH2 0x4938 JUMP JUMPDEST POP PUSH1 0xA0 DUP3 ADD MLOAD DUP2 PUSH1 0x5 ADD SSTORE POP POP CALLVALUE PUSH1 0xC PUSH1 0x0 DUP15 DUP2 MSTORE PUSH1 0x20 ADD SWAP1 DUP2 MSTORE PUSH1 0x20 ADD PUSH1 0x0 KECCAK256 PUSH1 0x0 DUP3 DUP3 SLOAD PUSH2 0x1E05 SWAP2 SWAP1 PUSH2 0x58E9 JUMP JUMPDEST SWAP3 POP POP DUP2 SWAP1 SSTORE POP DUP5 DUP5 PUSH1 0x2 ADD PUSH1 0x0 DUP3 DUP3 SLOAD PUSH2 0x1E20 SWAP2 SWAP1 PUSH2 0x58E9 JUMP JUMPDEST SWAP3 POP POP DUP2 SWAP1 SSTORE POP DUP5 DUP5 PUSH1 0x3 ADD PUSH1 0x0 DUP10 DUP2 MSTORE PUSH1 0x20 ADD SWAP1 DUP2 MSTORE PUSH1 0x20 ADD PUSH1 0x0 KECCAK256 PUSH1 0x0 DUP3 DUP3 SLOAD PUSH2 0x1E4C SWAP2 SWAP1 PUSH2 0x58E9 JUMP JUMPDEST SWAP3 POP POP DUP2 SWAP1 SSTORE POP DUP10 DUP5 PUSH1 0x4 ADD DUP2 SWAP1 SSTORE POP DUP9 DUP5 PUSH1 0x5 ADD DUP2 SWAP1 SSTORE POP DUP8 DUP5 PUSH1 0x1 ADD DUP2 SWAP1 SSTORE POP DUP11 DUP5 PUSH1 0x0 ADD DUP2 SWAP1 SSTORE POP CALLER PUSH20 0xFFFFFFFFFFFFFFFFFFFFFFFFFFFFFFFFFFFFFFFF AND PUSH1 0x10 PUSH1 0x0 DUP15 DUP2 MSTORE PUSH1 0x20 ADD SWAP1 DUP2 MSTORE PUSH1 0x20 ADD PUSH1 0x0 KECCAK256 PUSH1 0x7 ADD PUSH1 0x0 DUP10 DUP2 MSTORE PUSH1 0x20 ADD SWAP1 DUP2 MSTORE PUSH1 0x20 ADD PUSH1 0x0 KECCAK256 PUSH1 0x0 CALLER PUSH20 0xFFFFFFFFFFFFFFFFFFFFFFFFFFFFFFFFFFFFFFFF AND PUSH20 0xFFFFFFFFFFFFFFFFFFFFFFFFFFFFFFFFFFFFFFFF AND DUP2 MSTORE PUSH1 0x20 ADD SWAP1 DUP2 MSTORE PUSH1 0x20 ADD PUSH1 0x0 KECCAK256 PUSH1 0x0 ADD PUSH1 0x0 SWAP1 SLOAD SWAP1 PUSH2 0x100 EXP SWAP1 DIV PUSH20 0xFFFFFFFFFFFFFFFFFFFFFFFFFFFFFFFFFFFFFFFF AND PUSH20 0xFFFFFFFFFFFFFFFFFFFFFFFFFFFFFFFFFFFFFFFF AND EQ PUSH2 0x1F94 JUMPI DUP1 CALLER SWAP1 DUP1 PUSH1 0x1 DUP2 SLOAD ADD DUP1 DUP3 SSTORE DUP1 SWAP2 POP POP PUSH1 0x1 SWAP1 SUB SWAP1 PUSH1 0x0 MSTORE PUSH1 0x20 PUSH1 0x0 KECCAK256 ADD PUSH1 0x0 SWAP1 SWAP2 SWAP1 SWAP2 SWAP1 SWAP2 PUSH2 0x100 EXP DUP2 SLOAD DUP2 PUSH20 0xFFFFFFFFFFFFFFFFFFFFFFFFFFFFFFFFFFFFFFFF MUL NOT AND SWAP1 DUP4 PUSH20 0xFFFFFFFFFFFFFFFFFFFFFFFFFFFFFFFFFFFFFFFF AND MUL OR SWAP1 SSTORE POP JUMPDEST CALLER DUP3 PUSH1 0x0 ADD PUSH1 0x0 PUSH2 0x100 EXP DUP2 SLOAD DUP2 PUSH20 0xFFFFFFFFFFFFFFFFFFFFFFFFFFFFFFFFFFFFFFFF MUL NOT AND SWAP1 DUP4 PUSH20 0xFFFFFFFFFFFFFFFFFFFFFFFFFFFFFFFFFFFFFFFF AND MUL OR SWAP1 SSTORE POP DUP5 DUP3 PUSH1 0x1 ADD PUSH1 0x0 DUP3 DUP3 SLOAD PUSH2 0x1FEB SWAP2 SWAP1 PUSH2 0x58E9 JUMP JUMPDEST SWAP3 POP POP DUP2 SWAP1 SSTORE POP PUSH1 0x0 DUP3 PUSH1 0x2 ADD DUP2 SWAP1 SSTORE POP DUP12 DUP3 PUSH1 0x3 ADD DUP2 SWAP1 SSTORE POP PUSH1 0x40 MLOAD DUP1 PUSH1 0x40 ADD PUSH1 0x40 MSTORE DUP1 PUSH1 0xB DUP2 MSTORE PUSH1 0x20 ADD PUSH32 0x506F696E7420546F74616C000000000000000000000000000000000000000000 DUP2 MSTORE POP DUP3 PUSH1 0x4 ADD SWAP1 DUP1 MLOAD SWAP1 PUSH1 0x20 ADD SWAP1 PUSH2 0x2052 SWAP3 SWAP2 SWAP1 PUSH2 0x4938 JUMP JUMPDEST POP TIMESTAMP DUP3 PUSH1 0x5 ADD DUP2 SWAP1 SSTORE POP POP POP POP POP POP POP POP POP POP POP POP POP POP JUMP JUMPDEST PUSH1 0x60 PUSH1 0xE PUSH1 0x0 DUP5 DUP2 MSTORE PUSH1 0x20 ADD SWAP1 DUP2 MSTORE PUSH1 0x20 ADD PUSH1 0x0 KECCAK256 PUSH1 0x5 ADD PUSH1 0x0 DUP4 DUP2 MSTORE PUSH1 0x20 ADD SWAP1 DUP2 MSTORE PUSH1 0x20 ADD PUSH1 0x0 KECCAK256 DUP1 SLOAD DUP1 PUSH1 0x20 MUL PUSH1 0x20 ADD PUSH1 0x40 MLOAD SWAP1 DUP2 ADD PUSH1 0x40 MSTORE DUP1 SWAP3 SWAP2 SWAP1 DUP2 DUP2 MSTORE PUSH1 0x20 ADD DUP3 DUP1 SLOAD DUP1 ISZERO PUSH2 0x2114 JUMPI PUSH1 0x20 MUL DUP3 ADD SWAP2 SWAP1 PUSH1 0x0 MSTORE PUSH1 0x20 PUSH1 0x0 KECCAK256 SWAP1 JUMPDEST DUP2 PUSH1 0x0 SWAP1 SLOAD SWAP1 PUSH2 0x100 EXP SWAP1 DIV PUSH20 0xFFFFFFFFFFFFFFFFFFFFFFFFFFFFFFFFFFFFFFFF AND PUSH20 0xFFFFFFFFFFFFFFFFFFFFFFFFFFFFFFFFFFFFFFFF AND DUP2 MSTORE PUSH1 0x20 ADD SWAP1 PUSH1 0x1 ADD SWAP1 DUP1 DUP4 GT PUSH2 0x20CA JUMPI JUMPDEST POP POP POP POP POP SWAP1 POP SWAP3 SWAP2 POP POP JUMP JUMPDEST PUSH1 0x0 PUSH1 0x6 PUSH1 0x0 SWAP1 SLOAD SWAP1 PUSH2 0x100 EXP SWAP1 DIV PUSH20 0xFFFFFFFFFFFFFFFFFFFFFFFFFFFFFFFFFFFFFFFF AND SWAP1 POP SWAP1 JUMP JUMPDEST PUSH1 0xE PUSH1 0x20 MSTORE DUP1 PUSH1 0x0 MSTORE PUSH1 0x40 PUSH1 0x0 KECCAK256 PUSH1 0x0 SWAP2 POP SWAP1 POP DUP1 PUSH1 0x0 ADD SLOAD SWAP1 DUP1 PUSH1 0x1 ADD SLOAD SWAP1 DUP1 PUSH1 0x3 ADD SLOAD SWAP1 DUP1 PUSH1 0x4 ADD SLOAD SWAP1 DUP1 PUSH1 0x7 ADD SLOAD SWAP1 POP DUP6 JUMP JUMPDEST DUP2 DUP4 SUB PUSH2 0x218D JUMPI PUSH1 0x0 DUP1 REVERT JUMPDEST DUP6 PUSH20 0xFFFFFFFFFFFFFFFFFFFFFFFFFFFFFFFFFFFFFFFF AND CALLER PUSH20 0xFFFFFFFFFFFFFFFFFFFFFFFFFFFFFFFFFFFFFFFF AND EQ PUSH2 0x21FB JUMPI PUSH1 0x40 MLOAD PUSH32 0x8C379A000000000000000000000000000000000000000000000000000000000 DUP2 MSTORE PUSH1 0x4 ADD PUSH2 0x21F2 SWAP1 PUSH2 0x5803 JUMP JUMPDEST PUSH1 0x40 MLOAD DUP1 SWAP2 SUB SWAP1 REVERT JUMPDEST PUSH1 0x0 CALLVALUE GT PUSH2 0x223E JUMPI PUSH1 0x40 MLOAD PUSH32 0x8C379A000000000000000000000000000000000000000000000000000000000 DUP2 MSTORE PUSH1 0x4 ADD PUSH2 0x2235 SWAP1 PUSH2 0x586F JUMP JUMPDEST PUSH1 0x40 MLOAD DUP1 SWAP2 SUB SWAP1 REVERT JUMPDEST DUP3 DUP5 EQ DUP1 PUSH2 0x224B JUMPI POP DUP2 DUP5 EQ JUMPDEST PUSH2 0x228A JUMPI PUSH1 0x40 MLOAD PUSH32 0x8C379A000000000000000000000000000000000000000000000000000000000 DUP2 MSTORE PUSH1 0x4 ADD PUSH2 0x2281 SWAP1 PUSH2 0x59B1 JUMP JUMPDEST PUSH1 0x40 MLOAD DUP1 SWAP2 SUB SWAP1 REVERT JUMPDEST PUSH1 0x0 PUSH1 0xE PUSH1 0x0 DUP8 DUP2 MSTORE PUSH1 0x20 ADD SWAP1 DUP2 MSTORE PUSH1 0x20 ADD PUSH1 0x0 KECCAK256 PUSH1 0x1 ADD SLOAD SUB PUSH2 0x25C5 JUMPI PUSH1 0x0 PUSH1 0x40 MLOAD DUP1 PUSH1 0x40 ADD PUSH1 0x40 MSTORE DUP1 PUSH1 0x3 PUSH8 0xFFFFFFFFFFFFFFFF DUP2 GT ISZERO PUSH2 0x22D0 JUMPI PUSH2 0x22CF PUSH2 0x59D1 JUMP JUMPDEST JUMPDEST PUSH1 0x40 MLOAD SWAP1 DUP1 DUP3 MSTORE DUP1 PUSH1 0x20 MUL PUSH1 0x20 ADD DUP3 ADD PUSH1 0x40 MSTORE DUP1 ISZERO PUSH2 0x22FE JUMPI DUP2 PUSH1 0x20 ADD PUSH1 0x20 DUP3 MUL DUP1 CALLDATASIZE DUP4 CALLDATACOPY DUP1 DUP3 ADD SWAP2 POP POP SWAP1 POP JUMPDEST POP DUP2 MSTORE PUSH1 0x20 ADD PUSH1 0x3 PUSH8 0xFFFFFFFFFFFFFFFF DUP2 GT ISZERO PUSH2 0x231F JUMPI PUSH2 0x231E PUSH2 0x59D1 JUMP JUMPDEST JUMPDEST PUSH1 0x40 MLOAD SWAP1 DUP1 DUP3 MSTORE DUP1 PUSH1 0x20 MUL PUSH1 0x20 ADD DUP3 ADD PUSH1 0x40 MSTORE DUP1 ISZERO PUSH2 0x2352 JUMPI DUP2 PUSH1 0x20 ADD JUMPDEST PUSH1 0x60 DUP2 MSTORE PUSH1 0x20 ADD SWAP1 PUSH1 0x1 SWAP1 SUB SWAP1 DUP2 PUSH2 0x233D JUMPI SWAP1 POP JUMPDEST POP DUP2 MSTORE POP SWAP1 POP PUSH1 0x0 DUP2 PUSH1 0x0 ADD MLOAD PUSH1 0x0 DUP2 MLOAD DUP2 LT PUSH2 0x2372 JUMPI PUSH2 0x2371 PUSH2 0x5502 JUMP JUMPDEST JUMPDEST PUSH1 0x20 MUL PUSH1 0x20 ADD ADD SWAP1 PUSH1 0x3 DUP2 GT ISZERO PUSH2 0x238C JUMPI PUSH2 0x238B PUSH2 0x5A00 JUMP JUMPDEST JUMPDEST SWAP1 DUP2 PUSH1 0x3 DUP2 GT ISZERO PUSH2 0x23A0 JUMPI PUSH2 0x239F PUSH2 0x5A00 JUMP JUMPDEST JUMPDEST DUP2 MSTORE POP POP PUSH1 0x2 DUP2 PUSH1 0x0 ADD MLOAD PUSH1 0x1 DUP2 MLOAD DUP2 LT PUSH2 0x23BE JUMPI PUSH2 0x23BD PUSH2 0x5502 JUMP JUMPDEST JUMPDEST PUSH1 0x20 MUL PUSH1 0x20 ADD ADD SWAP1 PUSH1 0x3 DUP2 GT ISZERO PUSH2 0x23D8 JUMPI PUSH2 0x23D7 PUSH2 0x5A00 JUMP JUMPDEST JUMPDEST SWAP1 DUP2 PUSH1 0x3 DUP2 GT ISZERO PUSH2 0x23EC JUMPI PUSH2 0x23EB PUSH2 0x5A00 JUMP JUMPDEST JUMPDEST DUP2 MSTORE POP POP PUSH1 0x3 DUP2 PUSH1 0x0 ADD MLOAD PUSH1 0x2 DUP2 MLOAD DUP2 LT PUSH2 0x240A JUMPI PUSH2 0x2409 PUSH2 0x5502 JUMP JUMPDEST JUMPDEST PUSH1 0x20 MUL PUSH1 0x20 ADD ADD SWAP1 PUSH1 0x3 DUP2 GT ISZERO PUSH2 0x2424 JUMPI PUSH2 0x2423 PUSH2 0x5A00 JUMP JUMPDEST JUMPDEST SWAP1 DUP2 PUSH1 0x3 DUP2 GT ISZERO PUSH2 0x2438 JUMPI PUSH2 0x2437 PUSH2 0x5A00 JUMP JUMPDEST JUMPDEST DUP2 MSTORE POP POP PUSH2 0x24B4 ADDRESS ADDRESS PUSH20 0xFFFFFFFFFFFFFFFFFFFFFFFFFFFFFFFFFFFFFFFF AND PUSH4 0xE065BD9 DUP10 PUSH1 0x40 MLOAD PUSH1 0x24 ADD PUSH2 0x246D SWAP2 SWAP1 PUSH2 0x4D89 JUMP JUMPDEST PUSH1 0x40 MLOAD PUSH1 0x20 DUP2 DUP4 SUB SUB DUP2 MSTORE SWAP1 PUSH1 0x40 MSTORE SWAP2 POP PUSH1 0xE0 SHL PUSH1 0x20 DUP3 ADD DUP1 MLOAD PUSH28 0xFFFFFFFFFFFFFFFFFFFFFFFFFFFFFFFFFFFFFFFFFFFFFFFFFFFFFFFF DUP4 DUP2 DUP4 AND OR DUP4 MSTORE POP POP POP POP PUSH2 0x3B92 JUMP JUMPDEST DUP2 PUSH1 0x20 ADD MLOAD PUSH1 0x0 DUP2 MLOAD DUP2 LT PUSH2 0x24CC JUMPI PUSH2 0x24CB PUSH2 0x5502 JUMP JUMPDEST JUMPDEST PUSH1 0x20 MUL PUSH1 0x20 ADD ADD DUP2 SWAP1 MSTORE POP PUSH2 0x24DF PUSH2 0x3BBE JUMP JUMPDEST DUP2 PUSH1 0x20 ADD MLOAD PUSH1 0x1 DUP2 MLOAD DUP2 LT PUSH2 0x24F7 JUMPI PUSH2 0x24F6 PUSH2 0x5502 JUMP JUMPDEST JUMPDEST PUSH1 0x20 MUL PUSH1 0x20 ADD ADD DUP2 SWAP1 MSTORE POP PUSH2 0x250A PUSH2 0x3BD5 JUMP JUMPDEST DUP2 PUSH1 0x20 ADD MLOAD PUSH1 0x2 DUP2 MLOAD DUP2 LT PUSH2 0x2522 JUMPI PUSH2 0x2521 PUSH2 0x5502 JUMP JUMPDEST JUMPDEST PUSH1 0x20 MUL PUSH1 0x20 ADD ADD DUP2 SWAP1 MSTORE POP PUSH2 0x25C2 ADDRESS PUSH4 0x5658FA10 PUSH1 0xE0 SHL DUP9 PUSH1 0x40 MLOAD PUSH1 0x24 ADD PUSH2 0x254A SWAP2 SWAP1 PUSH2 0x4D89 JUMP JUMPDEST PUSH1 0x40 MLOAD PUSH1 0x20 DUP2 DUP4 SUB SUB DUP2 MSTORE SWAP1 PUSH1 0x40 MSTORE SWAP1 PUSH28 0xFFFFFFFFFFFFFFFFFFFFFFFFFFFFFFFFFFFFFFFFFFFFFFFFFFFFFFFF NOT AND PUSH1 0x20 DUP3 ADD DUP1 MLOAD PUSH28 0xFFFFFFFFFFFFFFFFFFFFFFFFFFFFFFFFFFFFFFFFFFFFFFFFFFFFFFFF DUP4 DUP2 DUP4 AND OR DUP4 MSTORE POP POP POP POP DUP4 PUSH20 0xEEEEEEEEEEEEEEEEEEEEEEEEEEEEEEEEEEEEEEEE PUSH2 0x3BEC JUMP JUMPDEST POP POP JUMPDEST PUSH1 0x0 PUSH1 0x64 PUSH1 0x5 CALLVALUE PUSH2 0x25D6 SWAP2 SWAP1 PUSH2 0x588F JUMP JUMPDEST PUSH2 0x25E0 SWAP2 SWAP1 PUSH2 0x558F JUMP JUMPDEST SWAP1 POP PUSH1 0x0 PUSH1 0x64 PUSH1 0x5F CALLVALUE PUSH2 0x25F3 SWAP2 SWAP1 PUSH2 0x588F JUMP JUMPDEST PUSH2 0x25FD SWAP2 SWAP1 PUSH2 0x558F JUMP JUMPDEST SWAP1 POP PUSH1 0x0 PUSH1 0xE PUSH1 0x0 DUP10 DUP2 MSTORE PUSH1 0x20 ADD SWAP1 DUP2 MSTORE PUSH1 0x20 ADD PUSH1 0x0 KECCAK256 SWAP1 POP PUSH1 0x0 PUSH1 0xB PUSH1 0x0 CALLER PUSH20 0xFFFFFFFFFFFFFFFFFFFFFFFFFFFFFFFFFFFFFFFF AND PUSH20 0xFFFFFFFFFFFFFFFFFFFFFFFFFFFFFFFFFFFFFFFF AND DUP2 MSTORE PUSH1 0x20 ADD SWAP1 DUP2 MSTORE PUSH1 0x20 ADD PUSH1 0x0 KECCAK256 PUSH1 0x1 ADD SWAP1 POP PUSH1 0x0 DUP3 PUSH1 0x6 ADD PUSH1 0x0 DUP11 DUP2 MSTORE PUSH1 0x20 ADD SWAP1 DUP2 MSTORE PUSH1 0x20 ADD PUSH1 0x0 KECCAK256 PUSH1 0x0 CALLER PUSH20 0xFFFFFFFFFFFFFFFFFFFFFFFFFFFFFFFFFFFFFFFF AND PUSH20 0xFFFFFFFFFFFFFFFFFFFFFFFFFFFFFFFFFFFFFFFF AND DUP2 MSTORE PUSH1 0x20 ADD SWAP1 DUP2 MSTORE PUSH1 0x20 ADD PUSH1 0x0 KECCAK256 SWAP1 POP PUSH1 0x0 DUP4 PUSH1 0x5 ADD PUSH1 0x0 DUP12 DUP2 MSTORE PUSH1 0x20 ADD SWAP1 DUP2 MSTORE PUSH1 0x20 ADD PUSH1 0x0 KECCAK256 SWAP1 POP PUSH1 0x8 PUSH1 0x0 SWAP1 SLOAD SWAP1 PUSH2 0x100 EXP SWAP1 DIV PUSH20 0xFFFFFFFFFFFFFFFFFFFFFFFFFFFFFFFFFFFFFFFF AND PUSH20 0xFFFFFFFFFFFFFFFFFFFFFFFFFFFFFFFFFFFFFFFF AND PUSH2 0x8FC DUP8 SWAP1 DUP2 ISZERO MUL SWAP1 PUSH1 0x40 MLOAD PUSH1 0x0 PUSH1 0x40 MLOAD DUP1 DUP4 SUB DUP2 DUP6 DUP9 DUP9 CALL SWAP4 POP POP POP POP ISZERO DUP1 ISZERO PUSH2 0x2733 JUMPI RETURNDATASIZE PUSH1 0x0 DUP1 RETURNDATACOPY RETURNDATASIZE PUSH1 0x0 REVERT JUMPDEST POP DUP5 PUSH1 0xB PUSH1 0x0 CALLER PUSH20 0xFFFFFFFFFFFFFFFFFFFFFFFFFFFFFFFFFFFFFFFF AND PUSH20 0xFFFFFFFFFFFFFFFFFFFFFFFFFFFFFFFFFFFFFFFF AND DUP2 MSTORE PUSH1 0x20 ADD SWAP1 DUP2 MSTORE PUSH1 0x20 ADD PUSH1 0x0 KECCAK256 PUSH1 0x0 ADD PUSH1 0x0 DUP3 DUP3 SLOAD PUSH2 0x2786 SWAP2 SWAP1 PUSH2 0x58E9 JUMP JUMPDEST SWAP3 POP POP DUP2 SWAP1 SSTORE POP DUP3 PUSH1 0x40 MLOAD DUP1 PUSH1 0xC0 ADD PUSH1 0x40 MSTORE DUP1 CALLER PUSH20 0xFFFFFFFFFFFFFFFFFFFFFFFFFFFFFFFFFFFFFFFF AND DUP2 MSTORE PUSH1 0x20 ADD DUP8 DUP2 MSTORE PUSH1 0x20 ADD DUP13 DUP2 MSTORE PUSH1 0x20 ADD DUP14 DUP2 MSTORE PUSH1 0x20 ADD PUSH1 0x40 MLOAD DUP1 PUSH1 0x40 ADD PUSH1 0x40 MSTORE DUP1 PUSH1 0xA DUP2 MSTORE PUSH1 0x20 ADD PUSH32 0x4D6F6E6579204C696E6500000000000000000000000000000000000000000000 DUP2 MSTORE POP DUP2 MSTORE PUSH1 0x20 ADD TIMESTAMP DUP2 MSTORE POP SWAP1 DUP1 PUSH1 0x1 DUP2 SLOAD ADD DUP1 DUP3 SSTORE DUP1 SWAP2 POP POP PUSH1 0x1 SWAP1 SUB SWAP1 PUSH1 0x0 MSTORE PUSH1 0x20 PUSH1 0x0 KECCAK256 SWAP1 PUSH1 0x6 MUL ADD PUSH1 0x0 SWAP1 SWAP2 SWAP1 SWAP2 SWAP1 SWAP2 POP PUSH1 0x0 DUP3 ADD MLOAD DUP2 PUSH1 0x0 ADD PUSH1 0x0 PUSH2 0x100 EXP DUP2 SLOAD DUP2 PUSH20 0xFFFFFFFFFFFFFFFFFFFFFFFFFFFFFFFFFFFFFFFF MUL NOT AND SWAP1 DUP4 PUSH20 0xFFFFFFFFFFFFFFFFFFFFFFFFFFFFFFFFFFFFFFFF AND MUL OR SWAP1 SSTORE POP PUSH1 0x20 DUP3 ADD MLOAD DUP2 PUSH1 0x1 ADD SSTORE PUSH1 0x40 DUP3 ADD MLOAD DUP2 PUSH1 0x2 ADD SSTORE PUSH1 0x60 DUP3 ADD MLOAD DUP2 PUSH1 0x3 ADD SSTORE PUSH1 0x80 DUP3 ADD MLOAD DUP2 PUSH1 0x4 ADD SWAP1 DUP1 MLOAD SWAP1 PUSH1 0x20 ADD SWAP1 PUSH2 0x28B0 SWAP3 SWAP2 SWAP1 PUSH2 0x4938 JUMP JUMPDEST POP PUSH1 0xA0 DUP3 ADD MLOAD DUP2 PUSH1 0x5 ADD SSTORE POP POP CALLVALUE PUSH1 0xC PUSH1 0x0 DUP14 DUP2 MSTORE PUSH1 0x20 ADD SWAP1 DUP2 MSTORE PUSH1 0x20 ADD PUSH1 0x0 KECCAK256 PUSH1 0x0 DUP3 DUP3 SLOAD PUSH2 0x28E0 SWAP2 SWAP1 PUSH2 0x58E9 JUMP JUMPDEST SWAP3 POP POP DUP2 SWAP1 SSTORE POP CALLVALUE PUSH1 0xD PUSH1 0x0 DUP14 DUP2 MSTORE PUSH1 0x20 ADD SWAP1 DUP2 MSTORE PUSH1 0x20 ADD PUSH1 0x0 KECCAK256 PUSH1 0x0 DUP13 DUP2 MSTORE PUSH1 0x20 ADD SWAP1 DUP2 MSTORE PUSH1 0x20 ADD PUSH1 0x0 KECCAK256 PUSH1 0x0 DUP3 DUP3 SLOAD PUSH2 0x291B SWAP2 SWAP1 PUSH2 0x58E9 JUMP JUMPDEST SWAP3 POP POP DUP2 SWAP1 SSTORE POP DUP5 DUP5 PUSH1 0x1 ADD PUSH1 0x0 DUP3 DUP3 SLOAD PUSH2 0x2936 SWAP2 SWAP1 PUSH2 0x58E9 JUMP JUMPDEST SWAP3 POP POP DUP2 SWAP1 SSTORE POP DUP5 DUP5 PUSH1 0x2 ADD PUSH1 0x0 DUP13 DUP2 MSTORE PUSH1 0x20 ADD SWAP1 DUP2 MSTORE PUSH1 0x20 ADD PUSH1 0x0 KECCAK256 PUSH1 0x0 DUP3 DUP3 SLOAD PUSH2 0x2962 SWAP2 SWAP1 PUSH2 0x58E9 JUMP JUMPDEST SWAP3 POP POP DUP2 SWAP1 SSTORE POP DUP9 DUP5 PUSH1 0x3 ADD DUP2 SWAP1 SSTORE POP DUP8 DUP5 PUSH1 0x4 ADD DUP2 SWAP1 SSTORE POP DUP7 DUP5 PUSH1 0x0 ADD DUP2 SWAP1 SSTORE POP CALLER PUSH20 0xFFFFFFFFFFFFFFFFFFFFFFFFFFFFFFFFFFFFFFFF AND PUSH1 0xE PUSH1 0x0 DUP14 DUP2 MSTORE PUSH1 0x20 ADD SWAP1 DUP2 MSTORE PUSH1 0x20 ADD PUSH1 0x0 KECCAK256 PUSH1 0x6 ADD PUSH1 0x0 DUP13 DUP2 MSTORE PUSH1 0x20 ADD SWAP1 DUP2 MSTORE PUSH1 0x20 ADD PUSH1 0x0 KECCAK256 PUSH1 0x0 CALLER PUSH20 0xFFFFFFFFFFFFFFFFFFFFFFFFFFFFFFFFFFFFFFFF AND PUSH20 0xFFFFFFFFFFFFFFFFFFFFFFFFFFFFFFFFFFFFFFFF AND DUP2 MSTORE PUSH1 0x20 ADD SWAP1 DUP2 MSTORE PUSH1 0x20 ADD PUSH1 0x0 KECCAK256 PUSH1 0x0 ADD PUSH1 0x0 SWAP1 SLOAD SWAP1 PUSH2 0x100 EXP SWAP1 DIV PUSH20 0xFFFFFFFFFFFFFFFFFFFFFFFFFFFFFFFFFFFFFFFF AND PUSH20 0xFFFFFFFFFFFFFFFFFFFFFFFFFFFFFFFFFFFFFFFF AND EQ PUSH2 0x2AA1 JUMPI DUP1 CALLER SWAP1 DUP1 PUSH1 0x1 DUP2 SLOAD ADD DUP1 DUP3 SSTORE DUP1 SWAP2 POP POP PUSH1 0x1 SWAP1 SUB SWAP1 PUSH1 0x0 MSTORE PUSH1 0x20 PUSH1 0x0 KECCAK256 ADD PUSH1 0x0 SWAP1 SWAP2 SWAP1 SWAP2 SWAP1 SWAP2 PUSH2 0x100 EXP DUP2 SLOAD DUP2 PUSH20 0xFFFFFFFFFFFFFFFFFFFFFFFFFFFFFFFFFFFFFFFF MUL NOT AND SWAP1 DUP4 PUSH20 0xFFFFFFFFFFFFFFFFFFFFFFFFFFFFFFFFFFFFFFFF AND MUL OR SWAP1 SSTORE POP JUMPDEST CALLER DUP3 PUSH1 0x0 ADD PUSH1 0x0 PUSH2 0x100 EXP DUP2 SLOAD DUP2 PUSH20 0xFFFFFFFFFFFFFFFFFFFFFFFFFFFFFFFFFFFFFFFF MUL NOT AND SWAP1 DUP4 PUSH20 0xFFFFFFFFFFFFFFFFFFFFFFFFFFFFFFFFFFFFFFFF AND MUL OR SWAP1 SSTORE POP DUP5 DUP3 PUSH1 0x1 ADD PUSH1 0x0 DUP3 DUP3 SLOAD PUSH2 0x2AF8 SWAP2 SWAP1 PUSH2 0x58E9 JUMP JUMPDEST SWAP3 POP POP DUP2 SWAP1 SSTORE POP DUP10 DUP3 PUSH1 0x2 ADD DUP2 SWAP1 SSTORE POP DUP11 DUP3 PUSH1 0x3 ADD DUP2 SWAP1 SSTORE POP PUSH1 0x40 MLOAD DUP1 PUSH1 0x40 ADD PUSH1 0x40 MSTORE DUP1 PUSH1 0xA DUP2 MSTORE PUSH1 0x20 ADD PUSH32 0x4D6F6E6579204C696E6500000000000000000000000000000000000000000000 DUP2 MSTORE POP DUP3 PUSH1 0x4 ADD SWAP1 DUP1 MLOAD SWAP1 PUSH1 0x20 ADD SWAP1 PUSH2 0x2B5E SWAP3 SWAP2 SWAP1 PUSH2 0x4938 JUMP JUMPDEST POP TIMESTAMP DUP3 PUSH1 0x5 ADD DUP2 SWAP1 SSTORE POP POP POP POP POP POP POP POP POP POP POP POP POP JUMP JUMPDEST PUSH1 0xB PUSH1 0x20 MSTORE DUP1 PUSH1 0x0 MSTORE PUSH1 0x40 PUSH1 0x0 KECCAK256 PUSH1 0x0 SWAP2 POP SWAP1 POP DUP1 PUSH1 0x0 ADD SLOAD SWAP1 POP DUP2 JUMP JUMPDEST DUP3 DUP5 SUB PUSH2 0x2BA0 JUMPI PUSH1 0x0 DUP1 REVERT JUMPDEST DUP7 PUSH20 0xFFFFFFFFFFFFFFFFFFFFFFFFFFFFFFFFFFFFFFFF AND CALLER PUSH20 0xFFFFFFFFFFFFFFFFFFFFFFFFFFFFFFFFFFFFFFFF AND EQ PUSH2 0x2C0E JUMPI PUSH1 0x40 MLOAD PUSH32 0x8C379A000000000000000000000000000000000000000000000000000000000 DUP2 MSTORE PUSH1 0x4 ADD PUSH2 0x2C05 SWAP1 PUSH2 0x5803 JUMP JUMPDEST PUSH1 0x40 MLOAD DUP1 SWAP2 SUB SWAP1 REVERT JUMPDEST PUSH1 0x0 CALLVALUE GT PUSH2 0x2C51 JUMPI PUSH1 0x40 MLOAD PUSH32 0x8C379A000000000000000000000000000000000000000000000000000000000 DUP2 MSTORE PUSH1 0x4 ADD PUSH2 0x2C48 SWAP1 PUSH2 0x586F JUMP JUMPDEST PUSH1 0x40 MLOAD DUP1 SWAP2 SUB SWAP1 REVERT JUMPDEST DUP4 DUP6 EQ DUP1 PUSH2 0x2C5E JUMPI POP DUP3 DUP6 EQ JUMPDEST PUSH2 0x2C9D JUMPI PUSH1 0x40 MLOAD PUSH32 0x8C379A000000000000000000000000000000000000000000000000000000000 DUP2 MSTORE PUSH1 0x4 ADD PUSH2 0x2C94 SWAP1 PUSH2 0x59B1 JUMP JUMPDEST PUSH1 0x40 MLOAD DUP1 SWAP2 SUB SWAP1 REVERT JUMPDEST PUSH1 0x0 PUSH1 0x64 PUSH1 0x5 CALLVALUE PUSH2 0x2CAE SWAP2 SWAP1 PUSH2 0x588F JUMP JUMPDEST PUSH2 0x2CB8 SWAP2 SWAP1 PUSH2 0x558F JUMP JUMPDEST SWAP1 POP PUSH1 0x0 PUSH1 0x64 PUSH1 0x5F CALLVALUE PUSH2 0x2CCB SWAP2 SWAP1 PUSH2 0x588F JUMP JUMPDEST PUSH2 0x2CD5 SWAP2 SWAP1 PUSH2 0x558F JUMP JUMPDEST SWAP1 POP PUSH1 0x0 PUSH1 0xF PUSH1 0x0 DUP11 DUP2 MSTORE PUSH1 0x20 ADD SWAP1 DUP2 MSTORE PUSH1 0x20 ADD PUSH1 0x0 KECCAK256 SWAP1 POP PUSH1 0x0 PUSH1 0xB PUSH1 0x0 CALLER PUSH20 0xFFFFFFFFFFFFFFFFFFFFFFFFFFFFFFFFFFFFFFFF AND PUSH20 0xFFFFFFFFFFFFFFFFFFFFFFFFFFFFFFFFFFFFFFFF AND DUP2 MSTORE PUSH1 0x20 ADD SWAP1 DUP2 MSTORE PUSH1 0x20 ADD PUSH1 0x0 KECCAK256 PUSH1 0x1 ADD SWAP1 POP PUSH1 0x0 DUP3 PUSH1 0x7 ADD PUSH1 0x0 DUP12 DUP2 MSTORE PUSH1 0x20 ADD SWAP1 DUP2 MSTORE PUSH1 0x20 ADD PUSH1 0x0 KECCAK256 PUSH1 0x0 CALLER PUSH20 0xFFFFFFFFFFFFFFFFFFFFFFFFFFFFFFFFFFFFFFFF AND PUSH20 0xFFFFFFFFFFFFFFFFFFFFFFFFFFFFFFFFFFFFFFFF AND DUP2 MSTORE PUSH1 0x20 ADD SWAP1 DUP2 MSTORE PUSH1 0x20 ADD PUSH1 0x0 KECCAK256 SWAP1 POP PUSH1 0x0 DUP4 PUSH1 0x6 ADD PUSH1 0x0 DUP13 DUP2 MSTORE PUSH1 0x20 ADD SWAP1 DUP2 MSTORE PUSH1 0x20 ADD PUSH1 0x0 KECCAK256 SWAP1 POP PUSH1 0x8 PUSH1 0x0 SWAP1 SLOAD SWAP1 PUSH2 0x100 EXP SWAP1 DIV PUSH20 0xFFFFFFFFFFFFFFFFFFFFFFFFFFFFFFFFFFFFFFFF AND PUSH20 0xFFFFFFFFFFFFFFFFFFFFFFFFFFFFFFFFFFFFFFFF AND PUSH2 0x8FC DUP8 SWAP1 DUP2 ISZERO MUL SWAP1 PUSH1 0x40 MLOAD PUSH1 0x0 PUSH1 0x40 MLOAD DUP1 DUP4 SUB DUP2 DUP6 DUP9 DUP9 CALL SWAP4 POP POP POP POP ISZERO DUP1 ISZERO PUSH2 0x2E0B JUMPI RETURNDATASIZE PUSH1 0x0 DUP1 RETURNDATACOPY RETURNDATASIZE PUSH1 0x0 REVERT JUMPDEST POP DUP5 PUSH1 0xB PUSH1 0x0 CALLER PUSH20 0xFFFFFFFFFFFFFFFFFFFFFFFFFFFFFFFFFFFFFFFF AND PUSH20 0xFFFFFFFFFFFFFFFFFFFFFFFFFFFFFFFFFFFFFFFF AND DUP2 MSTORE PUSH1 0x20 ADD SWAP1 DUP2 MSTORE PUSH1 0x20 ADD PUSH1 0x0 KECCAK256 PUSH1 0x0 ADD PUSH1 0x0 DUP3 DUP3 SLOAD PUSH2 0x2E5E SWAP2 SWAP1 PUSH2 0x58E9 JUMP JUMPDEST SWAP3 POP POP DUP2 SWAP1 SSTORE POP DUP3 PUSH1 0x40 MLOAD DUP1 PUSH1 0xC0 ADD PUSH1 0x40 MSTORE DUP1 CALLER PUSH20 0xFFFFFFFFFFFFFFFFFFFFFFFFFFFFFFFFFFFFFFFF AND DUP2 MSTORE PUSH1 0x20 ADD DUP8 DUP2 MSTORE PUSH1 0x20 ADD DUP14 DUP2 MSTORE PUSH1 0x20 ADD DUP15 DUP2 MSTORE PUSH1 0x20 ADD PUSH1 0x40 MLOAD DUP1 PUSH1 0x40 ADD PUSH1 0x40 MSTORE DUP1 PUSH1 0xC DUP2 MSTORE PUSH1 0x20 ADD PUSH32 0x506F696E74205370726561640000000000000000000000000000000000000000 DUP2 MSTORE POP DUP2 MSTORE PUSH1 0x20 ADD TIMESTAMP DUP2 MSTORE POP SWAP1 DUP1 PUSH1 0x1 DUP2 SLOAD ADD DUP1 DUP3 SSTORE DUP1 SWAP2 POP POP PUSH1 0x1 SWAP1 SUB SWAP1 PUSH1 0x0 MSTORE PUSH1 0x20 PUSH1 0x0 KECCAK256 SWAP1 PUSH1 0x6 MUL ADD PUSH1 0x0 SWAP1 SWAP2 SWAP1 SWAP2 SWAP1 SWAP2 POP PUSH1 0x0 DUP3 ADD MLOAD DUP2 PUSH1 0x0 ADD PUSH1 0x0 PUSH2 0x100 EXP DUP2 SLOAD DUP2 PUSH20 0xFFFFFFFFFFFFFFFFFFFFFFFFFFFFFFFFFFFFFFFF MUL NOT AND SWAP1 DUP4 PUSH20 0xFFFFFFFFFFFFFFFFFFFFFFFFFFFFFFFFFFFFFFFF AND MUL OR SWAP1 SSTORE POP PUSH1 0x20 DUP3 ADD MLOAD DUP2 PUSH1 0x1 ADD SSTORE PUSH1 0x40 DUP3 ADD MLOAD DUP2 PUSH1 0x2 ADD SSTORE PUSH1 0x60 DUP3 ADD MLOAD DUP2 PUSH1 0x3 ADD SSTORE PUSH1 0x80 DUP3 ADD MLOAD DUP2 PUSH1 0x4 ADD SWAP1 DUP1 MLOAD SWAP1 PUSH1 0x20 ADD SWAP1 PUSH2 0x2F88 SWAP3 SWAP2 SWAP1 PUSH2 0x4938 JUMP JUMPDEST POP PUSH1 0xA0 DUP3 ADD MLOAD DUP2 PUSH1 0x5 ADD SSTORE POP POP CALLVALUE PUSH1 0xC PUSH1 0x0 DUP15 DUP2 MSTORE PUSH1 0x20 ADD SWAP1 DUP2 MSTORE PUSH1 0x20 ADD PUSH1 0x0 KECCAK256 PUSH1 0x0 DUP3 DUP3 SLOAD PUSH2 0x2FB8 SWAP2 SWAP1 PUSH2 0x58E9 JUMP JUMPDEST SWAP3 POP POP DUP2 SWAP1 SSTORE POP CALLVALUE PUSH1 0xD PUSH1 0x0 DUP15 DUP2 MSTORE PUSH1 0x20 ADD SWAP1 DUP2 MSTORE PUSH1 0x20 ADD PUSH1 0x0 KECCAK256 PUSH1 0x0 DUP14 DUP2 MSTORE PUSH1 0x20 ADD SWAP1 DUP2 MSTORE PUSH1 0x20 ADD PUSH1 0x0 KECCAK256 PUSH1 0x0 DUP3 DUP3 SLOAD PUSH2 0x2FF3 SWAP2 SWAP1 PUSH2 0x58E9 JUMP JUMPDEST SWAP3 POP POP DUP2 SWAP1 SSTORE POP DUP5 DUP5 PUSH1 0x2 ADD PUSH1 0x0 DUP3 DUP3 SLOAD PUSH2 0x300E SWAP2 SWAP1 PUSH2 0x58E9 JUMP JUMPDEST SWAP3 POP POP DUP2 SWAP1 SSTORE POP DUP5 DUP5 PUSH1 0x3 ADD PUSH1 0x0 DUP14 DUP2 MSTORE PUSH1 0x20 ADD SWAP1 DUP2 MSTORE PUSH1 0x20 ADD PUSH1 0x0 KECCAK256 PUSH1 0x0 DUP3 DUP3 SLOAD PUSH2 0x303A SWAP2 SWAP1 PUSH2 0x58E9 JUMP JUMPDEST SWAP3 POP POP DUP2 SWAP1 SSTORE POP DUP10 DUP5 PUSH1 0x4 ADD DUP2 SWAP1 SSTORE POP DUP9 DUP5 PUSH1 0x5 ADD DUP2 SWAP1 SSTORE POP DUP8 DUP5 PUSH1 0x1 ADD DUP2 SWAP1 SSTORE POP DUP7 DUP5 PUSH1 0x0 ADD PUSH1 0x0 DUP14 DUP2 MSTORE PUSH1 0x20 ADD SWAP1 DUP2 MSTORE PUSH1 0x20 ADD PUSH1 0x0 KECCAK256 DUP2 SWAP1 SSTORE POP CALLER PUSH20 0xFFFFFFFFFFFFFFFFFFFFFFFFFFFFFFFFFFFFFFFF AND PUSH1 0xF PUSH1 0x0 DUP15 DUP2 MSTORE PUSH1 0x20 ADD SWAP1 DUP2 MSTORE PUSH1 0x20 ADD PUSH1 0x0 KECCAK256 PUSH1 0x7 ADD PUSH1 0x0 DUP14 DUP2 MSTORE PUSH1 0x20 ADD SWAP1 DUP2 MSTORE PUSH1 0x20 ADD PUSH1 0x0 KECCAK256 PUSH1 0x0 CALLER PUSH20 0xFFFFFFFFFFFFFFFFFFFFFFFFFFFFFFFFFFFFFFFF AND PUSH20 0xFFFFFFFFFFFFFFFFFFFFFFFFFFFFFFFFFFFFFFFF AND DUP2 MSTORE PUSH1 0x20 ADD SWAP1 DUP2 MSTORE PUSH1 0x20 ADD PUSH1 0x0 KECCAK256 PUSH1 0x0 ADD PUSH1 0x0 SWAP1 SLOAD SWAP1 PUSH2 0x100 EXP SWAP1 DIV PUSH20 0xFFFFFFFFFFFFFFFFFFFFFFFFFFFFFFFFFFFFFFFF AND PUSH20 0xFFFFFFFFFFFFFFFFFFFFFFFFFFFFFFFFFFFFFFFF AND EQ PUSH2 0x3193 JUMPI DUP1 CALLER SWAP1 DUP1 PUSH1 0x1 DUP2 SLOAD ADD DUP1 DUP3 SSTORE DUP1 SWAP2 POP POP PUSH1 0x1 SWAP1 SUB SWAP1 PUSH1 0x0 MSTORE PUSH1 0x20 PUSH1 0x0 KECCAK256 ADD PUSH1 0x0 SWAP1 SWAP2 SWAP1 SWAP2 SWAP1 SWAP2 PUSH2 0x100 EXP DUP2 SLOAD DUP2 PUSH20 0xFFFFFFFFFFFFFFFFFFFFFFFFFFFFFFFFFFFFFFFF MUL NOT AND SWAP1 DUP4 PUSH20 0xFFFFFFFFFFFFFFFFFFFFFFFFFFFFFFFFFFFFFFFF AND MUL OR SWAP1 SSTORE POP JUMPDEST CALLER DUP3 PUSH1 0x0 ADD PUSH1 0x0 PUSH2 0x100 EXP DUP2 SLOAD DUP2 PUSH20 0xFFFFFFFFFFFFFFFFFFFFFFFFFFFFFFFFFFFFFFFF MUL NOT AND SWAP1 DUP4 PUSH20 0xFFFFFFFFFFFFFFFFFFFFFFFFFFFFFFFFFFFFFFFF AND MUL OR SWAP1 SSTORE POP DUP5 DUP3 PUSH1 0x1 ADD PUSH1 0x0 DUP3 DUP3 SLOAD PUSH2 0x31EA SWAP2 SWAP1 PUSH2 0x58E9 JUMP JUMPDEST SWAP3 POP POP DUP2 SWAP1 SSTORE POP DUP11 DUP3 PUSH1 0x2 ADD DUP2 SWAP1 SSTORE POP DUP12 DUP3 PUSH1 0x3 ADD DUP2 SWAP1 SSTORE POP PUSH1 0x40 MLOAD DUP1 PUSH1 0x40 ADD PUSH1 0x40 MSTORE DUP1 PUSH1 0xC DUP2 MSTORE PUSH1 0x20 ADD PUSH32 0x506F696E74205370726561640000000000000000000000000000000000000000 DUP2 MSTORE POP DUP3 PUSH1 0x4 ADD SWAP1 DUP1 MLOAD SWAP1 PUSH1 0x20 ADD SWAP1 PUSH2 0x3250 SWAP3 SWAP2 SWAP1 PUSH2 0x4938 JUMP JUMPDEST POP TIMESTAMP DUP3 PUSH1 0x5 ADD DUP2 SWAP1 SSTORE POP POP POP POP POP POP POP POP POP POP POP POP POP POP JUMP JUMPDEST PUSH2 0x3271 PUSH2 0x48EC JUMP JUMPDEST PUSH1 0xE PUSH1 0x0 DUP5 DUP2 MSTORE PUSH1 0x20 ADD SWAP1 DUP2 MSTORE PUSH1 0x20 ADD PUSH1 0x0 KECCAK256 PUSH1 0x6 ADD PUSH1 0x0 DUP4 DUP2 MSTORE PUSH1 0x20 ADD SWAP1 DUP2 MSTORE PUSH1 0x20 ADD PUSH1 0x0 KECCAK256 PUSH1 0x0 CALLER PUSH20 0xFFFFFFFFFFFFFFFFFFFFFFFFFFFFFFFFFFFFFFFF AND PUSH20 0xFFFFFFFFFFFFFFFFFFFFFFFFFFFFFFFFFFFFFFFF AND DUP2 MSTORE PUSH1 0x20 ADD SWAP1 DUP2 MSTORE PUSH1 0x20 ADD PUSH1 0x0 KECCAK256 PUSH1 0x40 MLOAD DUP1 PUSH1 0xC0 ADD PUSH1 0x40 MSTORE SWAP1 DUP2 PUSH1 0x0 DUP3 ADD PUSH1 0x0 SWAP1 SLOAD SWAP1 PUSH2 0x100 EXP SWAP1 DIV PUSH20 0xFFFFFFFFFFFFFFFFFFFFFFFFFFFFFFFFFFFFFFFF AND PUSH20 0xFFFFFFFFFFFFFFFFFFFFFFFFFFFFFFFFFFFFFFFF AND PUSH20 0xFFFFFFFFFFFFFFFFFFFFFFFFFFFFFFFFFFFFFFFF AND DUP2 MSTORE PUSH1 0x20 ADD PUSH1 0x1 DUP3 ADD SLOAD DUP2 MSTORE PUSH1 0x20 ADD PUSH1 0x2 DUP3 ADD SLOAD DUP2 MSTORE PUSH1 0x20 ADD PUSH1 0x3 DUP3 ADD SLOAD DUP2 MSTORE PUSH1 0x20 ADD PUSH1 0x4 DUP3 ADD DUP1 SLOAD PUSH2 0x3364 SWAP1 PUSH2 0x54D1 JUMP JUMPDEST DUP1 PUSH1 0x1F ADD PUSH1 0x20 DUP1 SWAP2 DIV MUL PUSH1 0x20 ADD PUSH1 0x40 MLOAD SWAP1 DUP2 ADD PUSH1 0x40 MSTORE DUP1 SWAP3 SWAP2 SWAP1 DUP2 DUP2 MSTORE PUSH1 0x20 ADD DUP3 DUP1 SLOAD PUSH2 0x3390 SWAP1 PUSH2 0x54D1 JUMP JUMPDEST DUP1 ISZERO PUSH2 0x33DD JUMPI DUP1 PUSH1 0x1F LT PUSH2 0x33B2 JUMPI PUSH2 0x100 DUP1 DUP4 SLOAD DIV MUL DUP4 MSTORE SWAP2 PUSH1 0x20 ADD SWAP2 PUSH2 0x33DD JUMP JUMPDEST DUP3 ADD SWAP2 SWAP1 PUSH1 0x0 MSTORE PUSH1 0x20 PUSH1 0x0 KECCAK256 SWAP1 JUMPDEST DUP2 SLOAD DUP2 MSTORE SWAP1 PUSH1 0x1 ADD SWAP1 PUSH1 0x20 ADD DUP1 DUP4 GT PUSH2 0x33C0 JUMPI DUP3 SWAP1 SUB PUSH1 0x1F AND DUP3 ADD SWAP2 JUMPDEST POP POP POP POP POP DUP2 MSTORE PUSH1 0x20 ADD PUSH1 0x5 DUP3 ADD SLOAD DUP2 MSTORE POP POP SWAP1 POP SWAP3 SWAP2 POP POP JUMP JUMPDEST PUSH1 0x10 PUSH1 0x20 MSTORE DUP1 PUSH1 0x0 MSTORE PUSH1 0x40 PUSH1 0x0 KECCAK256 PUSH1 0x0 SWAP2 POP SWAP1 POP DUP1 PUSH1 0x0 ADD SLOAD SWAP1 DUP1 PUSH1 0x1 ADD SLOAD SWAP1 DUP1 PUSH1 0x2 ADD SLOAD SWAP1 DUP1 PUSH1 0x4 ADD SLOAD SWAP1 DUP1 PUSH1 0x5 ADD SLOAD SWAP1 DUP1 PUSH1 0x8 ADD SLOAD SWAP1 POP DUP7 JUMP JUMPDEST PUSH1 0x8 PUSH1 0x0 SWAP1 SLOAD SWAP1 PUSH2 0x100 EXP SWAP1 DIV PUSH20 0xFFFFFFFFFFFFFFFFFFFFFFFFFFFFFFFFFFFFFFFF AND PUSH20 0xFFFFFFFFFFFFFFFFFFFFFFFFFFFFFFFFFFFFFFFF AND CALLER PUSH20 0xFFFFFFFFFFFFFFFFFFFFFFFFFFFFFFFFFFFFFFFF AND EQ PUSH2 0x34C4 JUMPI PUSH1 0x40 MLOAD PUSH32 0x8C379A000000000000000000000000000000000000000000000000000000000 DUP2 MSTORE PUSH1 0x4 ADD PUSH2 0x34BB SWAP1 PUSH2 0x5A7B JUMP JUMPDEST PUSH1 0x40 MLOAD DUP1 SWAP2 SUB SWAP1 REVERT JUMPDEST PUSH2 0x34E2 CALLVALUE PUSH20 0xEEEEEEEEEEEEEEEEEEEEEEEEEEEEEEEEEEEEEEEE PUSH2 0x3C9A JUMP JUMPDEST JUMP JUMPDEST PUSH1 0x8 PUSH1 0x0 SWAP1 SLOAD SWAP1 PUSH2 0x100 EXP SWAP1 DIV PUSH20 0xFFFFFFFFFFFFFFFFFFFFFFFFFFFFFFFFFFFFFFFF AND PUSH20 0xFFFFFFFFFFFFFFFFFFFFFFFFFFFFFFFFFFFFFFFF AND CALLER PUSH20 0xFFFFFFFFFFFFFFFFFFFFFFFFFFFFFFFFFFFFFFFF AND EQ PUSH2 0x3574 JUMPI PUSH1 0x40 MLOAD PUSH32 0x8C379A000000000000000000000000000000000000000000000000000000000 DUP2 MSTORE PUSH1 0x4 ADD PUSH2 0x356B SWAP1 PUSH2 0x5A7B JUMP JUMPDEST PUSH1 0x40 MLOAD DUP1 SWAP2 SUB SWAP1 REVERT JUMPDEST PUSH1 0x8 PUSH1 0x0 SWAP1 SLOAD SWAP1 PUSH2 0x100 EXP SWAP1 DIV PUSH20 0xFFFFFFFFFFFFFFFFFFFFFFFFFFFFFFFFFFFFFFFF AND PUSH20 0xFFFFFFFFFFFFFFFFFFFFFFFFFFFFFFFFFFFFFFFF AND PUSH2 0x8FC SELFBALANCE SWAP1 DUP2 ISZERO MUL SWAP1 PUSH1 0x40 MLOAD PUSH1 0x0 PUSH1 0x40 MLOAD DUP1 DUP4 SUB DUP2 DUP6 DUP9 DUP9 CALL SWAP4 POP POP POP POP ISZERO DUP1 ISZERO PUSH2 0x35DC JUMPI RETURNDATASIZE PUSH1 0x0 DUP1 RETURNDATACOPY RETURNDATASIZE PUSH1 0x0 REVERT JUMPDEST POP JUMP JUMPDEST PUSH1 0x0 PUSH1 0xF PUSH1 0x0 DUP5 DUP2 MSTORE PUSH1 0x20 ADD SWAP1 DUP2 MSTORE PUSH1 0x20 ADD PUSH1 0x0 KECCAK256 PUSH1 0x0 ADD PUSH1 0x0 DUP4 DUP2 MSTORE PUSH1 0x20 ADD SWAP1 DUP2 MSTORE PUSH1 0x20 ADD PUSH1 0x0 KECCAK256 SLOAD SWAP1 POP SWAP3 SWAP2 POP POP JUMP JUMPDEST PUSH1 0x0 PUSH2 0x3627 PUSH1 0x9 SLOAD ADDRESS PUSH4 0xFDA4417B PUSH1 0xE0 SHL PUSH2 0x3D83 JUMP JUMPDEST SWAP1 POP PUSH1 0x0 PUSH2 0x3634 DUP4 PUSH2 0x3DB4 JUMP JUMPDEST PUSH1 0x40 MLOAD PUSH1 0x20 ADD PUSH2 0x3644 SWAP2 SWAP1 PUSH2 0x5B49 JUMP JUMPDEST PUSH1 0x40 MLOAD PUSH1 0x20 DUP2 DUP4 SUB SUB DUP2 MSTORE SWAP1 PUSH1 0x40 MSTORE SWAP1 POP PUSH2 0x369F PUSH1 0x40 MLOAD DUP1 PUSH1 0x40 ADD PUSH1 0x40 MSTORE DUP1 PUSH1 0x7 DUP2 MSTORE PUSH1 0x20 ADD PUSH32 0x75726C47616D6500000000000000000000000000000000000000000000000000 DUP2 MSTORE POP DUP3 DUP5 PUSH2 0x3F26 SWAP1 SWAP3 SWAP2 SWAP1 PUSH4 0xFFFFFFFF AND JUMP JUMPDEST PUSH2 0x371E PUSH1 0x40 MLOAD DUP1 PUSH1 0x40 ADD PUSH1 0x40 MSTORE DUP1 PUSH1 0x8 DUP2 MSTORE PUSH1 0x20 ADD PUSH32 0x7061746847616D65000000000000000000000000000000000000000000000000 DUP2 MSTORE POP PUSH1 0x40 MLOAD DUP1 PUSH1 0x40 ADD PUSH1 0x40 MSTORE DUP1 PUSH1 0x2 DUP2 MSTORE PUSH1 0x20 ADD PUSH32 0x6964000000000000000000000000000000000000000000000000000000000000 DUP2 MSTORE POP DUP5 PUSH2 0x3F26 SWAP1 SWAP3 SWAP2 SWAP1 PUSH4 0xFFFFFFFF AND JUMP JUMPDEST PUSH2 0x3768 PUSH1 0x40 MLOAD DUP1 PUSH1 0x40 ADD PUSH1 0x40 MSTORE DUP1 PUSH1 0x7 DUP2 MSTORE PUSH1 0x20 ADD PUSH32 0x75726C486F6D6500000000000000000000000000000000000000000000000000 DUP2 MSTORE POP DUP3 DUP5 PUSH2 0x3F26 SWAP1 SWAP3 SWAP2 SWAP1 PUSH4 0xFFFFFFFF AND JUMP JUMPDEST PUSH2 0x37E7 PUSH1 0x40 MLOAD DUP1 PUSH1 0x40 ADD PUSH1 0x40 MSTORE DUP1 PUSH1 0x8 DUP2 MSTORE PUSH1 0x20 ADD PUSH32 0x70617468486F6D65000000000000000000000000000000000000000000000000 DUP2 MSTORE POP PUSH1 0x40 MLOAD DUP1 PUSH1 0x40 ADD PUSH1 0x40 MSTORE DUP1 PUSH1 0xF DUP2 MSTORE PUSH1 0x20 ADD PUSH32 0x686F6D655F7465616D5F73636F72650000000000000000000000000000000000 DUP2 MSTORE POP DUP5 PUSH2 0x3F26 SWAP1 SWAP3 SWAP2 SWAP1 PUSH4 0xFFFFFFFF AND JUMP JUMPDEST PUSH2 0x3831 PUSH1 0x40 MLOAD DUP1 PUSH1 0x40 ADD PUSH1 0x40 MSTORE DUP1 PUSH1 0xA DUP2 MSTORE PUSH1 0x20 ADD PUSH32 0x75726C56697369746F7200000000000000000000000000000000000000000000 DUP2 MSTORE POP DUP3 DUP5 PUSH2 0x3F26 SWAP1 SWAP3 SWAP2 SWAP1 PUSH4 0xFFFFFFFF AND JUMP JUMPDEST PUSH2 0x38B0 PUSH1 0x40 MLOAD DUP1 PUSH1 0x40 ADD PUSH1 0x40 MSTORE DUP1 PUSH1 0xB DUP2 MSTORE PUSH1 0x20 ADD PUSH32 0x7061746856697369746F72000000000000000000000000000000000000000000 DUP2 MSTORE POP PUSH1 0x40 MLOAD DUP1 PUSH1 0x40 ADD PUSH1 0x40 MSTORE DUP1 PUSH1 0x12 DUP2 MSTORE PUSH1 0x20 ADD PUSH32 0x76697369746F725F7465616D5F73636F72650000000000000000000000000000 DUP2 MSTORE POP DUP5 PUSH2 0x3F26 SWAP1 SWAP3 SWAP2 SWAP1 PUSH4 0xFFFFFFFF AND JUMP JUMPDEST PUSH2 0x38BC DUP3 PUSH1 0xA SLOAD PUSH2 0x3F59 JUMP JUMPDEST POP POP POP POP JUMP JUMPDEST PUSH32 0x0 DUP2 JUMP JUMPDEST PUSH1 0x0 DUP1 PUSH1 0xD PUSH1 0x0 DUP6 DUP2 MSTORE PUSH1 0x20 ADD SWAP1 DUP2 MSTORE PUSH1 0x20 ADD PUSH1 0x0 KECCAK256 PUSH1 0x0 DUP5 DUP2 MSTORE PUSH1 0x20 ADD SWAP1 DUP2 MSTORE PUSH1 0x20 ADD PUSH1 0x0 KECCAK256 SLOAD SWAP1 POP PUSH1 0x0 PUSH1 0xC PUSH1 0x0 DUP7 DUP2 MSTORE PUSH1 0x20 ADD SWAP1 DUP2 MSTORE PUSH1 0x20 ADD PUSH1 0x0 KECCAK256 SLOAD SWAP1 POP PUSH1 0x0 DUP2 PUSH1 0x64 DUP5 PUSH2 0x3938 SWAP2 SWAP1 PUSH2 0x588F JUMP JUMPDEST PUSH2 0x3942 SWAP2 SWAP1 PUSH2 0x558F JUMP JUMPDEST SWAP1 POP DUP1 SWAP4 POP POP POP POP SWAP3 SWAP2 POP POP JUMP JUMPDEST PUSH2 0x3958 PUSH2 0x3F90 JUMP JUMPDEST PUSH2 0x3961 DUP2 PUSH2 0x4022 JUMP JUMPDEST POP JUMP JUMPDEST PUSH1 0x60 PUSH1 0x10 PUSH1 0x0 DUP5 DUP2 MSTORE PUSH1 0x20 ADD SWAP1 DUP2 MSTORE PUSH1 0x20 ADD PUSH1 0x0 KECCAK256 PUSH1 0x6 ADD PUSH1 0x0 DUP4 DUP2 MSTORE PUSH1 0x20 ADD SWAP1 DUP2 MSTORE PUSH1 0x20 ADD PUSH1 0x0 KECCAK256 DUP1 SLOAD DUP1 PUSH1 0x20 MUL PUSH1 0x20 ADD PUSH1 0x40 MLOAD SWAP1 DUP2 ADD PUSH1 0x40 MSTORE DUP1 SWAP3 SWAP2 SWAP1 DUP2 DUP2 MSTORE PUSH1 0x20 ADD DUP3 DUP1 SLOAD DUP1 ISZERO PUSH2 0x3A0D JUMPI PUSH1 0x20 MUL DUP3 ADD SWAP2 SWAP1 PUSH1 0x0 MSTORE PUSH1 0x20 PUSH1 0x0 KECCAK256 SWAP1 JUMPDEST DUP2 PUSH1 0x0 SWAP1 SLOAD SWAP1 PUSH2 0x100 EXP SWAP1 DIV PUSH20 0xFFFFFFFFFFFFFFFFFFFFFFFFFFFFFFFFFFFFFFFF AND PUSH20 0xFFFFFFFFFFFFFFFFFFFFFFFFFFFFFFFFFFFFFFFF AND DUP2 MSTORE PUSH1 0x20 ADD SWAP1 PUSH1 0x1 ADD SWAP1 DUP1 DUP4 GT PUSH2 0x39C3 JUMPI JUMPDEST POP POP POP POP POP SWAP1 POP SWAP3 SWAP2 POP POP JUMP JUMPDEST DUP4 PUSH1 0x5 PUSH1 0x0 DUP3 DUP2 MSTORE PUSH1 0x20 ADD SWAP1 DUP2 MSTORE PUSH1 0x20 ADD PUSH1 0x0 KECCAK256 PUSH1 0x0 SWAP1 SLOAD SWAP1 PUSH2 0x100 EXP SWAP1 DIV PUSH20 0xFFFFFFFFFFFFFFFFFFFFFFFFFFFFFFFFFFFFFFFF AND PUSH20 0xFFFFFFFFFFFFFFFFFFFFFFFFFFFFFFFFFFFFFFFF AND CALLER PUSH20 0xFFFFFFFFFFFFFFFFFFFFFFFFFFFFFFFFFFFFFFFF AND EQ PUSH2 0x3ABC JUMPI PUSH1 0x40 MLOAD PUSH32 0x8C379A000000000000000000000000000000000000000000000000000000000 DUP2 MSTORE PUSH1 0x4 ADD PUSH2 0x3AB3 SWAP1 PUSH2 0x5BDD JUMP JUMPDEST PUSH1 0x40 MLOAD DUP1 SWAP2 SUB SWAP1 REVERT JUMPDEST PUSH1 0x5 PUSH1 0x0 DUP3 DUP2 MSTORE PUSH1 0x20 ADD SWAP1 DUP2 MSTORE PUSH1 0x20 ADD PUSH1 0x0 KECCAK256 PUSH1 0x0 PUSH2 0x100 EXP DUP2 SLOAD SWAP1 PUSH20 0xFFFFFFFFFFFFFFFFFFFFFFFFFFFFFFFFFFFFFFFF MUL NOT AND SWAP1 SSTORE DUP1 PUSH32 0x7CC135E0CEBB02C3480AE5D74D377283180A2601F8F644EDF7987B009316C63A PUSH1 0x40 MLOAD PUSH1 0x40 MLOAD DUP1 SWAP2 SUB SWAP1 LOG2 DUP5 PUSH32 0xD8422588C680817FE4971EF8A5FE6A6B5DF0D7CD4537EABEF7FB17750E4187A7 DUP6 DUP6 DUP6 PUSH1 0x40 MLOAD PUSH2 0x3B53 SWAP4 SWAP3 SWAP2 SWAP1 PUSH2 0x5BFD JUMP JUMPDEST PUSH1 0x40 MLOAD DUP1 SWAP2 SUB SWAP1 LOG2 DUP3 PUSH1 0x12 PUSH1 0x0 DUP7 DUP2 MSTORE PUSH1 0x20 ADD SWAP1 DUP2 MSTORE PUSH1 0x20 ADD PUSH1 0x0 KECCAK256 DUP2 SWAP1 SSTORE POP DUP2 PUSH1 0x11 PUSH1 0x0 DUP7 DUP2 MSTORE PUSH1 0x20 ADD SWAP1 DUP2 MSTORE PUSH1 0x20 ADD PUSH1 0x0 KECCAK256 DUP2 SWAP1 SSTORE POP POP POP POP POP POP JUMP JUMPDEST PUSH1 0x60 DUP3 DUP3 PUSH1 0x40 MLOAD PUSH1 0x20 ADD PUSH2 0x3BA7 SWAP3 SWAP2 SWAP1 PUSH2 0x5C34 JUMP JUMPDEST PUSH1 0x40 MLOAD PUSH1 0x20 DUP2 DUP4 SUB SUB DUP2 MSTORE SWAP1 PUSH1 0x40 MSTORE SWAP1 POP SWAP3 SWAP2 POP POP JUMP JUMPDEST PUSH1 0x60 PUSH1 0x40 MLOAD DUP1 PUSH1 0x20 ADD PUSH1 0x40 MSTORE DUP1 PUSH1 0x0 DUP2 MSTORE POP SWAP1 POP SWAP1 JUMP JUMPDEST PUSH1 0x60 PUSH1 0x40 MLOAD DUP1 PUSH1 0x20 ADD PUSH1 0x40 MSTORE DUP1 PUSH1 0x0 DUP2 MSTORE POP SWAP1 POP SWAP1 JUMP JUMPDEST PUSH1 0x0 PUSH32 0x0 PUSH20 0xFFFFFFFFFFFFFFFFFFFFFFFFFFFFFFFFFFFFFFFF AND PUSH4 0x3323B467 DUP7 DUP7 DUP7 DUP7 PUSH1 0x40 MLOAD DUP6 PUSH4 0xFFFFFFFF AND PUSH1 0xE0 SHL DUP2 MSTORE PUSH1 0x4 ADD PUSH2 0x3C4D SWAP5 SWAP4 SWAP3 SWAP2 SWAP1 PUSH2 0x5EAB JUMP JUMPDEST PUSH1 0x20 PUSH1 0x40 MLOAD DUP1 DUP4 SUB DUP2 PUSH1 0x0 DUP8 GAS CALL ISZERO DUP1 ISZERO PUSH2 0x3C6C JUMPI RETURNDATASIZE PUSH1 0x0 DUP1 RETURNDATACOPY RETURNDATASIZE PUSH1 0x0 REVERT JUMPDEST POP POP POP POP PUSH1 0x40 MLOAD RETURNDATASIZE PUSH1 0x1F NOT PUSH1 0x1F DUP3 ADD AND DUP3 ADD DUP1 PUSH1 0x40 MSTORE POP DUP2 ADD SWAP1 PUSH2 0x3C90 SWAP2 SWAP1 PUSH2 0x5F13 JUMP JUMPDEST SWAP1 POP SWAP5 SWAP4 POP POP POP POP JUMP JUMPDEST PUSH1 0x0 PUSH20 0xEEEEEEEEEEEEEEEEEEEEEEEEEEEEEEEEEEEEEEEE PUSH20 0xFFFFFFFFFFFFFFFFFFFFFFFFFFFFFFFFFFFFFFFF AND DUP3 PUSH20 0xFFFFFFFFFFFFFFFFFFFFFFFFFFFFFFFFFFFFFFFF AND EQ PUSH2 0x3CEA JUMPI PUSH1 0x0 PUSH2 0x3CEC JUMP JUMPDEST DUP3 JUMPDEST SWAP1 POP PUSH32 0x0 PUSH20 0xFFFFFFFFFFFFFFFFFFFFFFFFFFFFFFFFFFFFFFFF AND PUSH4 0xC1461D57 DUP3 ADDRESS DUP6 DUP8 PUSH1 0x40 MLOAD DUP6 PUSH4 0xFFFFFFFF AND PUSH1 0xE0 SHL DUP2 MSTORE PUSH1 0x4 ADD PUSH2 0x3D4C SWAP4 SWAP3 SWAP2 SWAP1 PUSH2 0x5F40 JUMP JUMPDEST PUSH1 0x0 PUSH1 0x40 MLOAD DUP1 DUP4 SUB DUP2 DUP6 DUP9 DUP1 EXTCODESIZE ISZERO DUP1 ISZERO PUSH2 0x3D65 JUMPI PUSH1 0x0 DUP1 REVERT JUMPDEST POP GAS CALL ISZERO DUP1 ISZERO PUSH2 0x3D79 JUMPI RETURNDATASIZE PUSH1 0x0 DUP1 RETURNDATACOPY RETURNDATASIZE PUSH1 0x0 REVERT JUMPDEST POP POP POP POP POP POP POP POP JUMP JUMPDEST PUSH2 0x3D8B PUSH2 0x49BE JUMP JUMPDEST PUSH2 0x3D93 PUSH2 0x49BE JUMP JUMPDEST PUSH2 0x3DAA DUP6 DUP6 DUP6 DUP5 PUSH2 0x4150 SWAP1 SWAP4 SWAP3 SWAP2 SWAP1 PUSH4 0xFFFFFFFF AND JUMP JUMPDEST SWAP2 POP POP SWAP4 SWAP3 POP POP POP JUMP JUMPDEST PUSH1 0x60 PUSH1 0x0 DUP3 SUB PUSH2 0x3DFB JUMPI PUSH1 0x40 MLOAD DUP1 PUSH1 0x40 ADD PUSH1 0x40 MSTORE DUP1 PUSH1 0x1 DUP2 MSTORE PUSH1 0x20 ADD PUSH32 0x3000000000000000000000000000000000000000000000000000000000000000 DUP2 MSTORE POP SWAP1 POP PUSH2 0x3F21 JUMP JUMPDEST PUSH1 0x0 DUP3 SWAP1 POP PUSH1 0x0 JUMPDEST PUSH1 0x0 DUP3 EQ PUSH2 0x3E2D JUMPI DUP1 DUP1 PUSH2 0x3E16 SWAP1 PUSH2 0x55F4 JUMP JUMPDEST SWAP2 POP POP PUSH1 0xA DUP3 PUSH2 0x3E26 SWAP2 SWAP1 PUSH2 0x558F JUMP JUMPDEST SWAP2 POP PUSH2 0x3E03 JUMP JUMPDEST PUSH1 0x0 DUP2 PUSH8 0xFFFFFFFFFFFFFFFF DUP2 GT ISZERO PUSH2 0x3E49 JUMPI PUSH2 0x3E48 PUSH2 0x59D1 JUMP JUMPDEST JUMPDEST PUSH1 0x40 MLOAD SWAP1 DUP1 DUP3 MSTORE DUP1 PUSH1 0x1F ADD PUSH1 0x1F NOT AND PUSH1 0x20 ADD DUP3 ADD PUSH1 0x40 MSTORE DUP1 ISZERO PUSH2 0x3E7B JUMPI DUP2 PUSH1 0x20 ADD PUSH1 0x1 DUP3 MUL DUP1 CALLDATASIZE DUP4 CALLDATACOPY DUP1 DUP3 ADD SWAP2 POP POP SWAP1 POP JUMPDEST POP SWAP1 POP PUSH1 0x0 DUP3 SWAP1 POP JUMPDEST PUSH1 0x0 DUP7 EQ PUSH2 0x3F19 JUMPI PUSH1 0x1 DUP2 PUSH2 0x3E99 SWAP2 SWAP1 PUSH2 0x55C0 JUMP JUMPDEST SWAP1 POP PUSH1 0x0 PUSH1 0xA DUP8 PUSH2 0x3EAA SWAP2 SWAP1 PUSH2 0x5F77 JUMP JUMPDEST PUSH1 0x30 PUSH2 0x3EB6 SWAP2 SWAP1 PUSH2 0x58E9 JUMP JUMPDEST SWAP1 POP PUSH1 0x0 DUP2 PUSH1 0xF8 SHL SWAP1 POP DUP1 DUP5 DUP5 DUP2 MLOAD DUP2 LT PUSH2 0x3ED4 JUMPI PUSH2 0x3ED3 PUSH2 0x5502 JUMP JUMPDEST JUMPDEST PUSH1 0x20 ADD ADD SWAP1 PUSH31 0xFFFFFFFFFFFFFFFFFFFFFFFFFFFFFFFFFFFFFFFFFFFFFFFFFFFFFFFFFFFFFF NOT AND SWAP1 DUP2 PUSH1 0x0 BYTE SWAP1 MSTORE8 POP PUSH1 0xA DUP9 PUSH2 0x3F10 SWAP2 SWAP1 PUSH2 0x558F JUMP JUMPDEST SWAP8 POP POP POP PUSH2 0x3E84 JUMP JUMPDEST DUP2 SWAP5 POP POP POP POP POP JUMPDEST SWAP2 SWAP1 POP JUMP JUMPDEST PUSH2 0x3F3D DUP3 DUP5 PUSH1 0x80 ADD MLOAD PUSH2 0x4200 SWAP1 SWAP2 SWAP1 PUSH4 0xFFFFFFFF AND JUMP JUMPDEST PUSH2 0x3F54 DUP2 DUP5 PUSH1 0x80 ADD MLOAD PUSH2 0x4200 SWAP1 SWAP2 SWAP1 PUSH4 0xFFFFFFFF AND JUMP JUMPDEST POP POP POP JUMP JUMPDEST PUSH1 0x0 PUSH2 0x3F88 PUSH1 0x3 PUSH1 0x0 SWAP1 SLOAD SWAP1 PUSH2 0x100 EXP SWAP1 DIV PUSH20 0xFFFFFFFFFFFFFFFFFFFFFFFFFFFFFFFFFFFFFFFF AND DUP5 DUP5 PUSH2 0x4225 JUMP JUMPDEST SWAP1 POP SWAP3 SWAP2 POP POP JUMP JUMPDEST PUSH1 0x6 PUSH1 0x0 SWAP1 SLOAD SWAP1 PUSH2 0x100 EXP SWAP1 DIV PUSH20 0xFFFFFFFFFFFFFFFFFFFFFFFFFFFFFFFFFFFFFFFF AND PUSH20 0xFFFFFFFFFFFFFFFFFFFFFFFFFFFFFFFFFFFFFFFF AND CALLER PUSH20 0xFFFFFFFFFFFFFFFFFFFFFFFFFFFFFFFFFFFFFFFF AND EQ PUSH2 0x4020 JUMPI PUSH1 0x40 MLOAD PUSH32 0x8C379A000000000000000000000000000000000000000000000000000000000 DUP2 MSTORE PUSH1 0x4 ADD PUSH2 0x4017 SWAP1 PUSH2 0x5FF4 JUMP JUMPDEST PUSH1 0x40 MLOAD DUP1 SWAP2 SUB SWAP1 REVERT JUMPDEST JUMP JUMPDEST CALLER PUSH20 0xFFFFFFFFFFFFFFFFFFFFFFFFFFFFFFFFFFFFFFFF AND DUP2 PUSH20 0xFFFFFFFFFFFFFFFFFFFFFFFFFFFFFFFFFFFFFFFF AND SUB PUSH2 0x4090 JUMPI PUSH1 0x40 MLOAD PUSH32 0x8C379A000000000000000000000000000000000000000000000000000000000 DUP2 MSTORE PUSH1 0x4 ADD PUSH2 0x4087 SWAP1 PUSH2 0x6060 JUMP JUMPDEST PUSH1 0x40 MLOAD DUP1 SWAP2 SUB SWAP1 REVERT JUMPDEST DUP1 PUSH1 0x7 PUSH1 0x0 PUSH2 0x100 EXP DUP2 SLOAD DUP2 PUSH20 0xFFFFFFFFFFFFFFFFFFFFFFFFFFFFFFFFFFFFFFFF MUL NOT AND SWAP1 DUP4 PUSH20 0xFFFFFFFFFFFFFFFFFFFFFFFFFFFFFFFFFFFFFFFF AND MUL OR SWAP1 SSTORE POP DUP1 PUSH20 0xFFFFFFFFFFFFFFFFFFFFFFFFFFFFFFFFFFFFFFFF AND PUSH1 0x6 PUSH1 0x0 SWAP1 SLOAD SWAP1 PUSH2 0x100 EXP SWAP1 DIV PUSH20 0xFFFFFFFFFFFFFFFFFFFFFFFFFFFFFFFFFFFFFFFF AND PUSH20 0xFFFFFFFFFFFFFFFFFFFFFFFFFFFFFFFFFFFFFFFF AND PUSH32 0xED8889F560326EB138920D842192F0EB3DD22B4F139C87A2C57538E05BAE1278 PUSH1 0x40 MLOAD PUSH1 0x40 MLOAD DUP1 SWAP2 SUB SWAP1 LOG3 POP JUMP JUMPDEST PUSH2 0x4158 PUSH2 0x49BE JUMP JUMPDEST PUSH2 0x4168 DUP6 PUSH1 0x80 ADD MLOAD PUSH2 0x100 PUSH2 0x42F1 JUMP JUMPDEST POP DUP4 DUP6 PUSH1 0x0 ADD DUP2 DUP2 MSTORE POP POP DUP3 DUP6 PUSH1 0x20 ADD SWAP1 PUSH20 0xFFFFFFFFFFFFFFFFFFFFFFFFFFFFFFFFFFFFFFFF AND SWAP1 DUP2 PUSH20 0xFFFFFFFFFFFFFFFFFFFFFFFFFFFFFFFFFFFFFFFF AND DUP2 MSTORE POP POP DUP2 DUP6 PUSH1 0x40 ADD SWAP1 PUSH28 0xFFFFFFFFFFFFFFFFFFFFFFFFFFFFFFFFFFFFFFFFFFFFFFFFFFFFFFFF NOT AND SWAP1 DUP2 PUSH28 0xFFFFFFFFFFFFFFFFFFFFFFFFFFFFFFFFFFFFFFFFFFFFFFFFFFFFFFFF NOT AND DUP2 MSTORE POP POP DUP5 SWAP1 POP SWAP5 SWAP4 POP POP POP POP JUMP JUMPDEST PUSH2 0x420D DUP3 PUSH1 0x3 DUP4 MLOAD PUSH2 0x435B JUMP JUMPDEST PUSH2 0x4220 DUP2 DUP4 PUSH2 0x44E0 SWAP1 SWAP2 SWAP1 PUSH4 0xFFFFFFFF AND JUMP JUMPDEST POP POP POP JUMP JUMPDEST PUSH1 0x0 DUP1 PUSH1 0x4 SLOAD SWAP1 POP PUSH1 0x1 DUP2 PUSH2 0x423A SWAP2 SWAP1 PUSH2 0x58E9 JUMP JUMPDEST PUSH1 0x4 DUP2 SWAP1 SSTORE POP PUSH1 0x0 PUSH4 0x40429946 PUSH1 0xE0 SHL PUSH1 0x0 DUP1 DUP8 PUSH1 0x0 ADD MLOAD ADDRESS DUP10 PUSH1 0x40 ADD MLOAD DUP8 PUSH1 0x1 DUP13 PUSH1 0x80 ADD MLOAD PUSH1 0x0 ADD MLOAD PUSH1 0x40 MLOAD PUSH1 0x24 ADD PUSH2 0x427B SWAP9 SWAP8 SWAP7 SWAP6 SWAP5 SWAP4 SWAP3 SWAP2 SWAP1 PUSH2 0x60CA JUMP JUMPDEST PUSH1 0x40 MLOAD PUSH1 0x20 DUP2 DUP4 SUB SUB DUP2 MSTORE SWAP1 PUSH1 0x40 MSTORE SWAP1 PUSH28 0xFFFFFFFFFFFFFFFFFFFFFFFFFFFFFFFFFFFFFFFFFFFFFFFFFFFFFFFF NOT AND PUSH1 0x20 DUP3 ADD DUP1 MLOAD PUSH28 0xFFFFFFFFFFFFFFFFFFFFFFFFFFFFFFFFFFFFFFFFFFFFFFFFFFFFFFFF DUP4 DUP2 DUP4 AND OR DUP4 MSTORE POP POP POP POP SWAP1 POP PUSH2 0x42E6 DUP7 DUP4 DUP7 DUP5 PUSH2 0x4502 JUMP JUMPDEST SWAP3 POP POP POP SWAP4 SWAP3 POP POP POP JUMP JUMPDEST PUSH2 0x42F9 PUSH2 0x4A2B JUMP JUMPDEST PUSH1 0x0 PUSH1 0x20 DUP4 PUSH2 0x4308 SWAP2 SWAP1 PUSH2 0x5F77 JUMP JUMPDEST EQ PUSH2 0x4334 JUMPI PUSH1 0x20 DUP3 PUSH2 0x431A SWAP2 SWAP1 PUSH2 0x5F77 JUMP JUMPDEST PUSH1 0x20 PUSH2 0x4326 SWAP2 SWAP1 PUSH2 0x55C0 JUMP JUMPDEST DUP3 PUSH2 0x4331 SWAP2 SWAP1 PUSH2 0x58E9 JUMP JUMPDEST SWAP2 POP JUMPDEST DUP2 DUP4 PUSH1 0x20 ADD DUP2 DUP2 MSTORE POP POP PUSH1 0x40 MLOAD DUP1 DUP5 MSTORE PUSH1 0x0 DUP2 MSTORE DUP3 DUP2 ADD PUSH1 0x20 ADD PUSH1 0x40 MSTORE POP DUP3 SWAP1 POP SWAP3 SWAP2 POP POP JUMP JUMPDEST PUSH1 0x17 DUP2 PUSH8 0xFFFFFFFFFFFFFFFF AND GT PUSH2 0x4392 JUMPI PUSH2 0x438C DUP2 PUSH1 0x5 DUP5 PUSH1 0xFF AND SWAP1 SHL PUSH1 0xFF AND OR DUP5 PUSH2 0x4697 SWAP1 SWAP2 SWAP1 PUSH4 0xFFFFFFFF AND JUMP JUMPDEST POP PUSH2 0x44DB JUMP JUMPDEST PUSH1 0xFF DUP2 PUSH8 0xFFFFFFFFFFFFFFFF AND GT PUSH2 0x43E8 JUMPI PUSH2 0x43C1 PUSH1 0x18 PUSH1 0x5 DUP5 PUSH1 0xFF AND SWAP1 SHL OR DUP5 PUSH2 0x4697 SWAP1 SWAP2 SWAP1 PUSH4 0xFFFFFFFF AND JUMP JUMPDEST POP PUSH2 0x43E2 DUP2 PUSH8 0xFFFFFFFFFFFFFFFF AND PUSH1 0x1 DUP6 PUSH2 0x46B7 SWAP1 SWAP3 SWAP2 SWAP1 PUSH4 0xFFFFFFFF AND JUMP JUMPDEST POP PUSH2 0x44DA JUMP JUMPDEST PUSH2 0xFFFF DUP2 PUSH8 0xFFFFFFFFFFFFFFFF AND GT PUSH2 0x443F JUMPI PUSH2 0x4418 PUSH1 0x19 PUSH1 0x5 DUP5 PUSH1 0xFF AND SWAP1 SHL OR DUP5 PUSH2 0x4697 SWAP1 SWAP2 SWAP1 PUSH4 0xFFFFFFFF AND JUMP JUMPDEST POP PUSH2 0x4439 DUP2 PUSH8 0xFFFFFFFFFFFFFFFF AND PUSH1 0x2 DUP6 PUSH2 0x46B7 SWAP1 SWAP3 SWAP2 SWAP1 PUSH4 0xFFFFFFFF AND JUMP JUMPDEST POP PUSH2 0x44D9 JUMP JUMPDEST PUSH4 0xFFFFFFFF DUP2 PUSH8 0xFFFFFFFFFFFFFFFF AND GT PUSH2 0x4498 JUMPI PUSH2 0x4471 PUSH1 0x1A PUSH1 0x5 DUP5 PUSH1 0xFF AND SWAP1 SHL OR DUP5 PUSH2 0x4697 SWAP1 SWAP2 SWAP1 PUSH4 0xFFFFFFFF AND JUMP JUMPDEST POP PUSH2 0x4492 DUP2 PUSH8 0xFFFFFFFFFFFFFFFF AND PUSH1 0x4 DUP6 PUSH2 0x46B7 SWAP1 SWAP3 SWAP2 SWAP1 PUSH4 0xFFFFFFFF AND JUMP JUMPDEST POP PUSH2 0x44D8 JUMP JUMPDEST PUSH2 0x44B5 PUSH1 0x1B PUSH1 0x5 DUP5 PUSH1 0xFF AND SWAP1 SHL OR DUP5 PUSH2 0x4697 SWAP1 SWAP2 SWAP1 PUSH4 0xFFFFFFFF AND JUMP JUMPDEST POP PUSH2 0x44D6 DUP2 PUSH8 0xFFFFFFFFFFFFFFFF AND PUSH1 0x8 DUP6 PUSH2 0x46B7 SWAP1 SWAP3 SWAP2 SWAP1 PUSH4 0xFFFFFFFF AND JUMP JUMPDEST POP JUMPDEST JUMPDEST JUMPDEST JUMPDEST POP POP POP JUMP JUMPDEST PUSH2 0x44E8 PUSH2 0x4A2B JUMP JUMPDEST PUSH2 0x44FA DUP4 DUP5 PUSH1 0x0 ADD MLOAD MLOAD DUP5 DUP6 MLOAD PUSH2 0x46D9 JUMP JUMPDEST SWAP1 POP SWAP3 SWAP2 POP POP JUMP JUMPDEST PUSH1 0x0 ADDRESS DUP5 PUSH1 0x40 MLOAD PUSH1 0x20 ADD PUSH2 0x4517 SWAP3 SWAP2 SWAP1 PUSH2 0x61CA JUMP JUMPDEST PUSH1 0x40 MLOAD PUSH1 0x20 DUP2 DUP4 SUB SUB DUP2 MSTORE SWAP1 PUSH1 0x40 MSTORE DUP1 MLOAD SWAP1 PUSH1 0x20 ADD KECCAK256 SWAP1 POP DUP5 PUSH1 0x5 PUSH1 0x0 DUP4 DUP2 MSTORE PUSH1 0x20 ADD SWAP1 DUP2 MSTORE PUSH1 0x20 ADD PUSH1 0x0 KECCAK256 PUSH1 0x0 PUSH2 0x100 EXP DUP2 SLOAD DUP2 PUSH20 0xFFFFFFFFFFFFFFFFFFFFFFFFFFFFFFFFFFFFFFFF MUL NOT AND SWAP1 DUP4 PUSH20 0xFFFFFFFFFFFFFFFFFFFFFFFFFFFFFFFFFFFFFFFF AND MUL OR SWAP1 SSTORE POP DUP1 PUSH32 0xB5E6E01E79F91267DC17B4E6314D5D4D03593D2CEEE0FBB452B750BD70EA5AF9 PUSH1 0x40 MLOAD PUSH1 0x40 MLOAD DUP1 SWAP2 SUB SWAP1 LOG2 PUSH1 0x2 PUSH1 0x0 SWAP1 SLOAD SWAP1 PUSH2 0x100 EXP SWAP1 DIV PUSH20 0xFFFFFFFFFFFFFFFFFFFFFFFFFFFFFFFFFFFFFFFF AND PUSH20 0xFFFFFFFFFFFFFFFFFFFFFFFFFFFFFFFFFFFFFFFF AND PUSH4 0x4000AEA0 DUP7 DUP6 DUP6 PUSH1 0x40 MLOAD DUP5 PUSH4 0xFFFFFFFF AND PUSH1 0xE0 SHL DUP2 MSTORE PUSH1 0x4 ADD PUSH2 0x460D SWAP4 SWAP3 SWAP2 SWAP1 PUSH2 0x61F6 JUMP JUMPDEST PUSH1 0x20 PUSH1 0x40 MLOAD DUP1 DUP4 SUB DUP2 PUSH1 0x0 DUP8 GAS CALL ISZERO DUP1 ISZERO PUSH2 0x462C JUMPI RETURNDATASIZE PUSH1 0x0 DUP1 RETURNDATACOPY RETURNDATASIZE PUSH1 0x0 REVERT JUMPDEST POP POP POP POP PUSH1 0x40 MLOAD RETURNDATASIZE PUSH1 0x1F NOT PUSH1 0x1F DUP3 ADD AND DUP3 ADD DUP1 PUSH1 0x40 MSTORE POP DUP2 ADD SWAP1 PUSH2 0x4650 SWAP2 SWAP1 PUSH2 0x6260 JUMP JUMPDEST PUSH2 0x468F JUMPI PUSH1 0x40 MLOAD PUSH32 0x8C379A000000000000000000000000000000000000000000000000000000000 DUP2 MSTORE PUSH1 0x4 ADD PUSH2 0x4686 SWAP1 PUSH2 0x62FF JUMP JUMPDEST PUSH1 0x40 MLOAD DUP1 SWAP2 SUB SWAP1 REVERT JUMPDEST SWAP5 SWAP4 POP POP POP POP JUMP JUMPDEST PUSH2 0x469F PUSH2 0x4A2B JUMP JUMPDEST PUSH2 0x46AF DUP4 DUP5 PUSH1 0x0 ADD MLOAD MLOAD DUP5 PUSH2 0x47C8 JUMP JUMPDEST SWAP1 POP SWAP3 SWAP2 POP POP JUMP JUMPDEST PUSH2 0x46BF PUSH2 0x4A2B JUMP JUMPDEST PUSH2 0x46D0 DUP5 DUP6 PUSH1 0x0 ADD MLOAD MLOAD DUP6 DUP6 PUSH2 0x481E JUMP JUMPDEST SWAP1 POP SWAP4 SWAP3 POP POP POP JUMP JUMPDEST PUSH2 0x46E1 PUSH2 0x4A2B JUMP JUMPDEST DUP3 MLOAD DUP3 GT ISZERO PUSH2 0x46EF JUMPI PUSH1 0x0 DUP1 REVERT JUMPDEST DUP5 PUSH1 0x20 ADD MLOAD DUP3 DUP6 PUSH2 0x4700 SWAP2 SWAP1 PUSH2 0x58E9 JUMP JUMPDEST GT ISZERO PUSH2 0x4735 JUMPI PUSH2 0x4734 DUP6 PUSH1 0x2 PUSH2 0x4725 DUP9 PUSH1 0x20 ADD MLOAD DUP9 DUP8 PUSH2 0x4720 SWAP2 SWAP1 PUSH2 0x58E9 JUMP JUMPDEST PUSH2 0x48AC JUMP JUMPDEST PUSH2 0x472F SWAP2 SWAP1 PUSH2 0x588F JUMP JUMPDEST PUSH2 0x48C8 JUMP JUMPDEST JUMPDEST PUSH1 0x0 DUP1 DUP7 MLOAD DUP1 MLOAD DUP8 PUSH1 0x20 DUP4 ADD ADD SWAP4 POP DUP1 DUP9 DUP8 ADD GT ISZERO PUSH2 0x4754 JUMPI DUP8 DUP7 ADD DUP3 MSTORE JUMPDEST PUSH1 0x20 DUP8 ADD SWAP3 POP POP POP JUMPDEST PUSH1 0x20 DUP5 LT PUSH2 0x479B JUMPI DUP1 MLOAD DUP3 MSTORE PUSH1 0x20 DUP3 PUSH2 0x4776 SWAP2 SWAP1 PUSH2 0x58E9 JUMP JUMPDEST SWAP2 POP PUSH1 0x20 DUP2 PUSH2 0x4785 SWAP2 SWAP1 PUSH2 0x58E9 JUMP JUMPDEST SWAP1 POP PUSH1 0x20 DUP5 PUSH2 0x4794 SWAP2 SWAP1 PUSH2 0x55C0 JUMP JUMPDEST SWAP4 POP PUSH2 0x475D JUMP JUMPDEST PUSH1 0x0 PUSH1 0x1 DUP6 PUSH1 0x20 SUB PUSH2 0x100 EXP SUB SWAP1 POP DUP1 NOT DUP3 MLOAD AND DUP2 DUP5 MLOAD AND DUP2 DUP2 OR DUP6 MSTORE POP POP POP DUP7 SWAP3 POP POP POP SWAP5 SWAP4 POP POP POP POP JUMP JUMPDEST PUSH2 0x47D0 PUSH2 0x4A2B JUMP JUMPDEST DUP4 PUSH1 0x20 ADD MLOAD DUP4 LT PUSH2 0x47F6 JUMPI PUSH2 0x47F5 DUP5 PUSH1 0x2 DUP7 PUSH1 0x20 ADD MLOAD PUSH2 0x47F0 SWAP2 SWAP1 PUSH2 0x588F JUMP JUMPDEST PUSH2 0x48C8 JUMP JUMPDEST JUMPDEST DUP4 MLOAD DUP1 MLOAD PUSH1 0x20 DUP6 DUP4 ADD ADD DUP5 DUP2 MSTORE8 DUP2 DUP7 SUB PUSH2 0x4811 JUMPI PUSH1 0x1 DUP3 ADD DUP4 MSTORE JUMPDEST POP POP POP DUP4 SWAP1 POP SWAP4 SWAP3 POP POP POP JUMP JUMPDEST PUSH2 0x4826 PUSH2 0x4A2B JUMP JUMPDEST DUP5 PUSH1 0x20 ADD MLOAD DUP5 DUP4 PUSH2 0x4837 SWAP2 SWAP1 PUSH2 0x58E9 JUMP JUMPDEST GT ISZERO PUSH2 0x485F JUMPI PUSH2 0x485E DUP6 PUSH1 0x2 DUP7 DUP6 PUSH2 0x484F SWAP2 SWAP1 PUSH2 0x58E9 JUMP JUMPDEST PUSH2 0x4859 SWAP2 SWAP1 PUSH2 0x588F JUMP JUMPDEST PUSH2 0x48C8 JUMP JUMPDEST JUMPDEST PUSH1 0x0 PUSH1 0x1 DUP4 PUSH2 0x100 PUSH2 0x4871 SWAP2 SWAP1 PUSH2 0x6452 JUMP JUMPDEST PUSH2 0x487B SWAP2 SWAP1 PUSH2 0x55C0 JUMP JUMPDEST SWAP1 POP DUP6 MLOAD DUP4 DUP7 DUP3 ADD ADD DUP6 DUP4 NOT DUP3 MLOAD AND OR DUP2 MSTORE DUP2 MLOAD DUP6 DUP9 ADD GT ISZERO PUSH2 0x489E JUMPI DUP5 DUP8 ADD DUP3 MSTORE JUMPDEST POP POP DUP6 SWAP2 POP POP SWAP5 SWAP4 POP POP POP POP JUMP JUMPDEST PUSH1 0x0 DUP2 DUP4 GT ISZERO PUSH2 0x48BE JUMPI DUP3 SWAP1 POP PUSH2 0x48C2 JUMP JUMPDEST DUP2 SWAP1 POP JUMPDEST SWAP3 SWAP2 POP POP JUMP JUMPDEST PUSH1 0x0 DUP3 PUSH1 0x0 ADD MLOAD SWAP1 POP PUSH2 0x48DB DUP4 DUP4 PUSH2 0x42F1 JUMP JUMPDEST POP PUSH2 0x48E6 DUP4 DUP3 PUSH2 0x44E0 JUMP JUMPDEST POP POP POP POP JUMP JUMPDEST PUSH1 0x40 MLOAD DUP1 PUSH1 0xC0 ADD PUSH1 0x40 MSTORE DUP1 PUSH1 0x0 PUSH20 0xFFFFFFFFFFFFFFFFFFFFFFFFFFFFFFFFFFFFFFFF AND DUP2 MSTORE PUSH1 0x20 ADD PUSH1 0x0 DUP2 MSTORE PUSH1 0x20 ADD PUSH1 0x0 DUP2 MSTORE PUSH1 0x20 ADD PUSH1 0x0 DUP2 MSTORE PUSH1 0x20 ADD PUSH1 0x60 DUP2 MSTORE PUSH1 0x20 ADD PUSH1 0x0 DUP2 MSTORE POP SWAP1 JUMP JUMPDEST DUP3 DUP1 SLOAD PUSH2 0x4944 SWAP1 PUSH2 0x54D1 JUMP JUMPDEST SWAP1 PUSH1 0x0 MSTORE PUSH1 0x20 PUSH1 0x0 KECCAK256 SWAP1 PUSH1 0x1F ADD PUSH1 0x20 SWAP1 DIV DUP2 ADD SWAP3 DUP3 PUSH2 0x4966 JUMPI PUSH1 0x0 DUP6 SSTORE PUSH2 0x49AD JUMP JUMPDEST DUP3 PUSH1 0x1F LT PUSH2 0x497F JUMPI DUP1 MLOAD PUSH1 0xFF NOT AND DUP4 DUP1 ADD OR DUP6 SSTORE PUSH2 0x49AD JUMP JUMPDEST DUP3 DUP1 ADD PUSH1 0x1 ADD DUP6 SSTORE DUP3 ISZERO PUSH2 0x49AD JUMPI SWAP2 DUP3 ADD JUMPDEST DUP3 DUP2 GT ISZERO PUSH2 0x49AC JUMPI DUP3 MLOAD DUP3 SSTORE SWAP2 PUSH1 0x20 ADD SWAP2 SWAP1 PUSH1 0x1 ADD SWAP1 PUSH2 0x4991 JUMP JUMPDEST JUMPDEST POP SWAP1 POP PUSH2 0x49BA SWAP2 SWAP1 PUSH2 0x4A45 JUMP JUMPDEST POP SWAP1 JUMP JUMPDEST PUSH1 0x40 MLOAD DUP1 PUSH1 0xA0 ADD PUSH1 0x40 MSTORE DUP1 PUSH1 0x0 DUP1 NOT AND DUP2 MSTORE PUSH1 0x20 ADD PUSH1 0x0 PUSH20 0xFFFFFFFFFFFFFFFFFFFFFFFFFFFFFFFFFFFFFFFF AND DUP2 MSTORE PUSH1 0x20 ADD PUSH1 0x0 PUSH28 0xFFFFFFFFFFFFFFFFFFFFFFFFFFFFFFFFFFFFFFFFFFFFFFFFFFFFFFFF NOT AND DUP2 MSTORE PUSH1 0x20 ADD PUSH1 0x0 DUP2 MSTORE PUSH1 0x20 ADD PUSH2 0x4A25 PUSH2 0x4A2B JUMP JUMPDEST DUP2 MSTORE POP SWAP1 JUMP JUMPDEST PUSH1 0x40 MLOAD DUP1 PUSH1 0x40 ADD PUSH1 0x40 MSTORE DUP1 PUSH1 0x60 DUP2 MSTORE PUSH1 0x20 ADD PUSH1 0x0 DUP2 MSTORE POP SWAP1 JUMP JUMPDEST JUMPDEST DUP1 DUP3 GT ISZERO PUSH2 0x4A5E JUMPI PUSH1 0x0 DUP2 PUSH1 0x0 SWAP1 SSTORE POP PUSH1 0x1 ADD PUSH2 0x4A46 JUMP JUMPDEST POP SWAP1 JUMP JUMPDEST PUSH1 0x0 PUSH20 0xFFFFFFFFFFFFFFFFFFFFFFFFFFFFFFFFFFFFFFFF DUP3 AND SWAP1 POP SWAP2 SWAP1 POP JUMP JUMPDEST PUSH1 0x0 DUP2 SWAP1 POP SWAP2 SWAP1 POP JUMP JUMPDEST PUSH1 0x0 PUSH2 0x4AA7 PUSH2 0x4AA2 PUSH2 0x4A9D DUP5 PUSH2 0x4A62 JUMP JUMPDEST PUSH2 0x4A82 JUMP JUMPDEST PUSH2 0x4A62 JUMP JUMPDEST SWAP1 POP SWAP2 SWAP1 POP JUMP JUMPDEST PUSH1 0x0 PUSH2 0x4AB9 DUP3 PUSH2 0x4A8C JUMP JUMPDEST SWAP1 POP SWAP2 SWAP1 POP JUMP JUMPDEST PUSH1 0x0 PUSH2 0x4ACB DUP3 PUSH2 0x4AAE JUMP JUMPDEST SWAP1 POP SWAP2 SWAP1 POP JUMP JUMPDEST PUSH2 0x4ADB DUP2 PUSH2 0x4AC0 JUMP JUMPDEST DUP3 MSTORE POP POP JUMP JUMPDEST PUSH1 0x0 PUSH1 0x20 DUP3 ADD SWAP1 POP PUSH2 0x4AF6 PUSH1 0x0 DUP4 ADD DUP5 PUSH2 0x4AD2 JUMP JUMPDEST SWAP3 SWAP2 POP POP JUMP JUMPDEST PUSH1 0x0 DUP1 REVERT JUMPDEST PUSH1 0x0 DUP2 SWAP1 POP SWAP2 SWAP1 POP JUMP JUMPDEST PUSH2 0x4B14 DUP2 PUSH2 0x4B01 JUMP JUMPDEST DUP2 EQ PUSH2 0x4B1F JUMPI PUSH1 0x0 DUP1 REVERT JUMPDEST POP JUMP JUMPDEST PUSH1 0x0 DUP2 CALLDATALOAD SWAP1 POP PUSH2 0x4B31 DUP2 PUSH2 0x4B0B JUMP JUMPDEST SWAP3 SWAP2 POP POP JUMP JUMPDEST PUSH1 0x0 DUP1 PUSH1 0x40 DUP4 DUP6 SUB SLT ISZERO PUSH2 0x4B4E JUMPI PUSH2 0x4B4D PUSH2 0x4AFC JUMP JUMPDEST JUMPDEST PUSH1 0x0 PUSH2 0x4B5C DUP6 DUP3 DUP7 ADD PUSH2 0x4B22 JUMP JUMPDEST SWAP3 POP POP PUSH1 0x20 PUSH2 0x4B6D DUP6 DUP3 DUP7 ADD PUSH2 0x4B22 JUMP JUMPDEST SWAP2 POP POP SWAP3 POP SWAP3 SWAP1 POP JUMP JUMPDEST PUSH1 0x0 DUP2 MLOAD SWAP1 POP SWAP2 SWAP1 POP JUMP JUMPDEST PUSH1 0x0 DUP3 DUP3 MSTORE PUSH1 0x20 DUP3 ADD SWAP1 POP SWAP3 SWAP2 POP POP JUMP JUMPDEST PUSH1 0x0 DUP2 SWAP1 POP PUSH1 0x20 DUP3 ADD SWAP1 POP SWAP2 SWAP1 POP JUMP JUMPDEST PUSH1 0x0 PUSH2 0x4BAE DUP3 PUSH2 0x4A62 JUMP JUMPDEST SWAP1 POP SWAP2 SWAP1 POP JUMP JUMPDEST PUSH2 0x4BBE DUP2 PUSH2 0x4BA3 JUMP JUMPDEST DUP3 MSTORE POP POP JUMP JUMPDEST PUSH1 0x0 PUSH2 0x4BD0 DUP4 DUP4 PUSH2 0x4BB5 JUMP JUMPDEST PUSH1 0x20 DUP4 ADD SWAP1 POP SWAP3 SWAP2 POP POP JUMP JUMPDEST PUSH1 0x0 PUSH1 0x20 DUP3 ADD SWAP1 POP SWAP2 SWAP1 POP JUMP JUMPDEST PUSH1 0x0 PUSH2 0x4BF4 DUP3 PUSH2 0x4B77 JUMP JUMPDEST PUSH2 0x4BFE DUP2 DUP6 PUSH2 0x4B82 JUMP JUMPDEST SWAP4 POP PUSH2 0x4C09 DUP4 PUSH2 0x4B93 JUMP JUMPDEST DUP1 PUSH1 0x0 JUMPDEST DUP4 DUP2 LT ISZERO PUSH2 0x4C3A JUMPI DUP2 MLOAD PUSH2 0x4C21 DUP9 DUP3 PUSH2 0x4BC4 JUMP JUMPDEST SWAP8 POP PUSH2 0x4C2C DUP4 PUSH2 0x4BDC JUMP JUMPDEST SWAP3 POP POP PUSH1 0x1 DUP2 ADD SWAP1 POP PUSH2 0x4C0D JUMP JUMPDEST POP DUP6 SWAP4 POP POP POP POP SWAP3 SWAP2 POP POP JUMP JUMPDEST PUSH1 0x0 PUSH1 0x20 DUP3 ADD SWAP1 POP DUP2 DUP2 SUB PUSH1 0x0 DUP4 ADD MSTORE PUSH2 0x4C61 DUP2 DUP5 PUSH2 0x4BE9 JUMP JUMPDEST SWAP1 POP SWAP3 SWAP2 POP POP JUMP JUMPDEST PUSH1 0x0 PUSH1 0x20 DUP3 DUP5 SUB SLT ISZERO PUSH2 0x4C7F JUMPI PUSH2 0x4C7E PUSH2 0x4AFC JUMP JUMPDEST JUMPDEST PUSH1 0x0 PUSH2 0x4C8D DUP5 DUP3 DUP6 ADD PUSH2 0x4B22 JUMP JUMPDEST SWAP2 POP POP SWAP3 SWAP2 POP POP JUMP JUMPDEST PUSH1 0x0 DUP2 ISZERO ISZERO SWAP1 POP SWAP2 SWAP1 POP JUMP JUMPDEST PUSH2 0x4CAB DUP2 PUSH2 0x4C96 JUMP JUMPDEST DUP3 MSTORE POP POP JUMP JUMPDEST PUSH1 0x0 DUP2 MLOAD SWAP1 POP SWAP2 SWAP1 POP JUMP JUMPDEST PUSH1 0x0 DUP3 DUP3 MSTORE PUSH1 0x20 DUP3 ADD SWAP1 POP SWAP3 SWAP2 POP POP JUMP JUMPDEST PUSH1 0x0 JUMPDEST DUP4 DUP2 LT ISZERO PUSH2 0x4CEB JUMPI DUP1 DUP3 ADD MLOAD DUP2 DUP5 ADD MSTORE PUSH1 0x20 DUP2 ADD SWAP1 POP PUSH2 0x4CD0 JUMP JUMPDEST DUP4 DUP2 GT ISZERO PUSH2 0x4CFA JUMPI PUSH1 0x0 DUP5 DUP5 ADD MSTORE JUMPDEST POP POP POP POP JUMP JUMPDEST PUSH1 0x0 PUSH1 0x1F NOT PUSH1 0x1F DUP4 ADD AND SWAP1 POP SWAP2 SWAP1 POP JUMP JUMPDEST PUSH1 0x0 PUSH2 0x4D1C DUP3 PUSH2 0x4CB1 JUMP JUMPDEST PUSH2 0x4D26 DUP2 DUP6 PUSH2 0x4CBC JUMP JUMPDEST SWAP4 POP PUSH2 0x4D36 DUP2 DUP6 PUSH1 0x20 DUP7 ADD PUSH2 0x4CCD JUMP JUMPDEST PUSH2 0x4D3F DUP2 PUSH2 0x4D00 JUMP JUMPDEST DUP5 ADD SWAP2 POP POP SWAP3 SWAP2 POP POP JUMP JUMPDEST PUSH1 0x0 PUSH1 0x40 DUP3 ADD SWAP1 POP PUSH2 0x4D5F PUSH1 0x0 DUP4 ADD DUP6 PUSH2 0x4CA2 JUMP JUMPDEST DUP2 DUP2 SUB PUSH1 0x20 DUP4 ADD MSTORE PUSH2 0x4D71 DUP2 DUP5 PUSH2 0x4D11 JUMP JUMPDEST SWAP1 POP SWAP4 SWAP3 POP POP POP JUMP JUMPDEST PUSH2 0x4D83 DUP2 PUSH2 0x4B01 JUMP JUMPDEST DUP3 MSTORE POP POP JUMP JUMPDEST PUSH1 0x0 PUSH1 0x20 DUP3 ADD SWAP1 POP PUSH2 0x4D9E PUSH1 0x0 DUP4 ADD DUP5 PUSH2 0x4D7A JUMP JUMPDEST SWAP3 SWAP2 POP POP JUMP JUMPDEST PUSH1 0x0 PUSH1 0xA0 DUP3 ADD SWAP1 POP PUSH2 0x4DB9 PUSH1 0x0 DUP4 ADD DUP9 PUSH2 0x4D7A JUMP JUMPDEST PUSH2 0x4DC6 PUSH1 0x20 DUP4 ADD DUP8 PUSH2 0x4D7A JUMP JUMPDEST PUSH2 0x4DD3 PUSH1 0x40 DUP4 ADD DUP7 PUSH2 0x4D7A JUMP JUMPDEST PUSH2 0x4DE0 PUSH1 0x60 DUP4 ADD DUP6 PUSH2 0x4D7A JUMP JUMPDEST PUSH2 0x4DED PUSH1 0x80 DUP4 ADD DUP5 PUSH2 0x4D7A JUMP JUMPDEST SWAP7 SWAP6 POP POP POP POP POP POP JUMP JUMPDEST PUSH1 0x0 PUSH2 0x4E02 DUP3 PUSH2 0x4A62 JUMP JUMPDEST SWAP1 POP SWAP2 SWAP1 POP JUMP JUMPDEST PUSH2 0x4E12 DUP2 PUSH2 0x4DF7 JUMP JUMPDEST DUP3 MSTORE POP POP JUMP JUMPDEST PUSH1 0x0 PUSH1 0x20 DUP3 ADD SWAP1 POP PUSH2 0x4E2D PUSH1 0x0 DUP4 ADD DUP5 PUSH2 0x4E09 JUMP JUMPDEST SWAP3 SWAP2 POP POP JUMP JUMPDEST PUSH1 0x0 DUP2 MLOAD SWAP1 POP SWAP2 SWAP1 POP JUMP JUMPDEST PUSH1 0x0 DUP3 DUP3 MSTORE PUSH1 0x20 DUP3 ADD SWAP1 POP SWAP3 SWAP2 POP POP JUMP JUMPDEST PUSH1 0x0 DUP2 SWAP1 POP PUSH1 0x20 DUP3 ADD SWAP1 POP SWAP2 SWAP1 POP JUMP JUMPDEST PUSH2 0x4E68 DUP2 PUSH2 0x4DF7 JUMP JUMPDEST DUP3 MSTORE POP POP JUMP JUMPDEST PUSH2 0x4E77 DUP2 PUSH2 0x4B01 JUMP JUMPDEST DUP3 MSTORE POP POP JUMP JUMPDEST PUSH1 0x0 DUP2 MLOAD SWAP1 POP SWAP2 SWAP1 POP JUMP JUMPDEST PUSH1 0x0 DUP3 DUP3 MSTORE PUSH1 0x20 DUP3 ADD SWAP1 POP SWAP3 SWAP2 POP POP JUMP JUMPDEST PUSH1 0x0 PUSH2 0x4EA4 DUP3 PUSH2 0x4E7D JUMP JUMPDEST PUSH2 0x4EAE DUP2 DUP6 PUSH2 0x4E88 JUMP JUMPDEST SWAP4 POP PUSH2 0x4EBE DUP2 DUP6 PUSH1 0x20 DUP7 ADD PUSH2 0x4CCD JUMP JUMPDEST PUSH2 0x4EC7 DUP2 PUSH2 0x4D00 JUMP JUMPDEST DUP5 ADD SWAP2 POP POP SWAP3 SWAP2 POP POP JUMP JUMPDEST PUSH1 0x0 PUSH1 0xC0 DUP4 ADD PUSH1 0x0 DUP4 ADD MLOAD PUSH2 0x4EEA PUSH1 0x0 DUP7 ADD DUP3 PUSH2 0x4E5F JUMP JUMPDEST POP PUSH1 0x20 DUP4 ADD MLOAD PUSH2 0x4EFD PUSH1 0x20 DUP7 ADD DUP3 PUSH2 0x4E6E JUMP JUMPDEST POP PUSH1 0x40 DUP4 ADD MLOAD PUSH2 0x4F10 PUSH1 0x40 DUP7 ADD DUP3 PUSH2 0x4E6E JUMP JUMPDEST POP PUSH1 0x60 DUP4 ADD MLOAD PUSH2 0x4F23 PUSH1 0x60 DUP7 ADD DUP3 PUSH2 0x4E6E JUMP JUMPDEST POP PUSH1 0x80 DUP4 ADD MLOAD DUP5 DUP3 SUB PUSH1 0x80 DUP7 ADD MSTORE PUSH2 0x4F3B DUP3 DUP3 PUSH2 0x4E99 JUMP JUMPDEST SWAP2 POP POP PUSH1 0xA0 DUP4 ADD MLOAD PUSH2 0x4F50 PUSH1 0xA0 DUP7 ADD DUP3 PUSH2 0x4E6E JUMP JUMPDEST POP DUP1 SWAP2 POP POP SWAP3 SWAP2 POP POP JUMP JUMPDEST PUSH1 0x0 PUSH2 0x4F67 DUP4 DUP4 PUSH2 0x4ED2 JUMP JUMPDEST SWAP1 POP SWAP3 SWAP2 POP POP JUMP JUMPDEST PUSH1 0x0 PUSH1 0x20 DUP3 ADD SWAP1 POP SWAP2 SWAP1 POP JUMP JUMPDEST PUSH1 0x0 PUSH2 0x4F87 DUP3 PUSH2 0x4E33 JUMP JUMPDEST PUSH2 0x4F91 DUP2 DUP6 PUSH2 0x4E3E JUMP JUMPDEST SWAP4 POP DUP4 PUSH1 0x20 DUP3 MUL DUP6 ADD PUSH2 0x4FA3 DUP6 PUSH2 0x4E4F JUMP JUMPDEST DUP1 PUSH1 0x0 JUMPDEST DUP6 DUP2 LT ISZERO PUSH2 0x4FDF JUMPI DUP5 DUP5 SUB DUP10 MSTORE DUP2 MLOAD PUSH2 0x4FC0 DUP6 DUP3 PUSH2 0x4F5B JUMP JUMPDEST SWAP5 POP PUSH2 0x4FCB DUP4 PUSH2 0x4F6F JUMP JUMPDEST SWAP3 POP PUSH1 0x20 DUP11 ADD SWAP10 POP POP PUSH1 0x1 DUP2 ADD SWAP1 POP PUSH2 0x4FA7 JUMP JUMPDEST POP DUP3 SWAP8 POP DUP8 SWAP6 POP POP POP POP POP POP SWAP3 SWAP2 POP POP JUMP JUMPDEST PUSH1 0x0 PUSH1 0x20 DUP3 ADD SWAP1 POP DUP2 DUP2 SUB PUSH1 0x0 DUP4 ADD MSTORE PUSH2 0x500B DUP2 DUP5 PUSH2 0x4F7C JUMP JUMPDEST SWAP1 POP SWAP3 SWAP2 POP POP JUMP JUMPDEST PUSH1 0x0 PUSH1 0xC0 DUP4 ADD PUSH1 0x0 DUP4 ADD MLOAD PUSH2 0x502B PUSH1 0x0 DUP7 ADD DUP3 PUSH2 0x4E5F JUMP JUMPDEST POP PUSH1 0x20 DUP4 ADD MLOAD PUSH2 0x503E PUSH1 0x20 DUP7 ADD DUP3 PUSH2 0x4E6E JUMP JUMPDEST POP PUSH1 0x40 DUP4 ADD MLOAD PUSH2 0x5051 PUSH1 0x40 DUP7 ADD DUP3 PUSH2 0x4E6E JUMP JUMPDEST POP PUSH1 0x60 DUP4 ADD MLOAD PUSH2 0x5064 PUSH1 0x60 DUP7 ADD DUP3 PUSH2 0x4E6E JUMP JUMPDEST POP PUSH1 0x80 DUP4 ADD MLOAD DUP5 DUP3 SUB PUSH1 0x80 DUP7 ADD MSTORE PUSH2 0x507C DUP3 DUP3 PUSH2 0x4E99 JUMP JUMPDEST SWAP2 POP POP PUSH1 0xA0 DUP4 ADD MLOAD PUSH2 0x5091 PUSH1 0xA0 DUP7 ADD DUP3 PUSH2 0x4E6E JUMP JUMPDEST POP DUP1 SWAP2 POP POP SWAP3 SWAP2 POP POP JUMP JUMPDEST PUSH1 0x0 PUSH1 0x20 DUP3 ADD SWAP1 POP DUP2 DUP2 SUB PUSH1 0x0 DUP4 ADD MSTORE PUSH2 0x50B6 DUP2 DUP5 PUSH2 0x5013 JUMP JUMPDEST SWAP1 POP SWAP3 SWAP2 POP POP JUMP JUMPDEST PUSH2 0x50C7 DUP2 PUSH2 0x4DF7 JUMP JUMPDEST DUP2 EQ PUSH2 0x50D2 JUMPI PUSH1 0x0 DUP1 REVERT JUMPDEST POP JUMP JUMPDEST PUSH1 0x0 DUP2 CALLDATALOAD SWAP1 POP PUSH2 0x50E4 DUP2 PUSH2 0x50BE JUMP JUMPDEST SWAP3 SWAP2 POP POP JUMP JUMPDEST PUSH1 0x0 DUP1 PUSH1 0x40 DUP4 DUP6 SUB SLT ISZERO PUSH2 0x5101 JUMPI PUSH2 0x5100 PUSH2 0x4AFC JUMP JUMPDEST JUMPDEST PUSH1 0x0 PUSH2 0x510F DUP6 DUP3 DUP7 ADD PUSH2 0x4B22 JUMP JUMPDEST SWAP3 POP POP PUSH1 0x20 PUSH2 0x5120 DUP6 DUP3 DUP7 ADD PUSH2 0x50D5 JUMP JUMPDEST SWAP2 POP POP SWAP3 POP SWAP3 SWAP1 POP JUMP JUMPDEST PUSH1 0x0 DUP2 SWAP1 POP SWAP2 SWAP1 POP JUMP JUMPDEST PUSH2 0x513D DUP2 PUSH2 0x512A JUMP JUMPDEST DUP2 EQ PUSH2 0x5148 JUMPI PUSH1 0x0 DUP1 REVERT JUMPDEST POP JUMP JUMPDEST PUSH1 0x0 DUP2 CALLDATALOAD SWAP1 POP PUSH2 0x515A DUP2 PUSH2 0x5134 JUMP JUMPDEST SWAP3 SWAP2 POP POP JUMP JUMPDEST PUSH1 0x0 DUP1 PUSH1 0x40 DUP4 DUP6 SUB SLT ISZERO PUSH2 0x5177 JUMPI PUSH2 0x5176 PUSH2 0x4AFC JUMP JUMPDEST JUMPDEST PUSH1 0x0 PUSH2 0x5185 DUP6 DUP3 DUP7 ADD PUSH2 0x4B22 JUMP JUMPDEST SWAP3 POP POP PUSH1 0x20 PUSH2 0x5196 DUP6 DUP3 DUP7 ADD PUSH2 0x514B JUMP JUMPDEST SWAP2 POP POP SWAP3 POP SWAP3 SWAP1 POP JUMP JUMPDEST PUSH1 0x0 DUP1 PUSH1 0x0 DUP1 PUSH1 0x0 DUP1 PUSH1 0x0 PUSH1 0xE0 DUP9 DUP11 SUB SLT ISZERO PUSH2 0x51BF JUMPI PUSH2 0x51BE PUSH2 0x4AFC JUMP JUMPDEST JUMPDEST PUSH1 0x0 PUSH2 0x51CD DUP11 DUP3 DUP12 ADD PUSH2 0x50D5 JUMP JUMPDEST SWAP8 POP POP PUSH1 0x20 PUSH2 0x51DE DUP11 DUP3 DUP12 ADD PUSH2 0x4B22 JUMP JUMPDEST SWAP7 POP POP PUSH1 0x40 PUSH2 0x51EF DUP11 DUP3 DUP12 ADD PUSH2 0x4B22 JUMP JUMPDEST SWAP6 POP POP PUSH1 0x60 PUSH2 0x5200 DUP11 DUP3 DUP12 ADD PUSH2 0x4B22 JUMP JUMPDEST SWAP5 POP POP PUSH1 0x80 PUSH2 0x5211 DUP11 DUP3 DUP12 ADD PUSH2 0x4B22 JUMP JUMPDEST SWAP4 POP POP PUSH1 0xA0 PUSH2 0x5222 DUP11 DUP3 DUP12 ADD PUSH2 0x4B22 JUMP JUMPDEST SWAP3 POP POP PUSH1 0xC0 PUSH2 0x5233 DUP11 DUP3 DUP12 ADD PUSH2 0x514B JUMP JUMPDEST SWAP2 POP POP SWAP3 SWAP6 SWAP9 SWAP2 SWAP5 SWAP8 POP SWAP3 SWAP6 POP JUMP JUMPDEST PUSH1 0x0 DUP1 PUSH1 0x0 DUP1 PUSH1 0x0 DUP1 PUSH1 0xC0 DUP8 DUP10 SUB SLT ISZERO PUSH2 0x525F JUMPI PUSH2 0x525E PUSH2 0x4AFC JUMP JUMPDEST JUMPDEST PUSH1 0x0 PUSH2 0x526D DUP10 DUP3 DUP11 ADD PUSH2 0x50D5 JUMP JUMPDEST SWAP7 POP POP PUSH1 0x20 PUSH2 0x527E DUP10 DUP3 DUP11 ADD PUSH2 0x4B22 JUMP JUMPDEST SWAP6 POP POP PUSH1 0x40 PUSH2 0x528F DUP10 DUP3 DUP11 ADD PUSH2 0x4B22 JUMP JUMPDEST SWAP5 POP POP PUSH1 0x60 PUSH2 0x52A0 DUP10 DUP3 DUP11 ADD PUSH2 0x4B22 JUMP JUMPDEST SWAP4 POP POP PUSH1 0x80 PUSH2 0x52B1 DUP10 DUP3 DUP11 ADD PUSH2 0x4B22 JUMP JUMPDEST SWAP3 POP POP PUSH1 0xA0 PUSH2 0x52C2 DUP10 DUP3 DUP11 ADD PUSH2 0x4B22 JUMP JUMPDEST SWAP2 POP POP SWAP3 SWAP6 POP SWAP3 SWAP6 POP SWAP3 SWAP6 JUMP JUMPDEST PUSH1 0x0 PUSH1 0x20 DUP3 DUP5 SUB SLT ISZERO PUSH2 0x52E5 JUMPI PUSH2 0x52E4 PUSH2 0x4AFC JUMP JUMPDEST JUMPDEST PUSH1 0x0 PUSH2 0x52F3 DUP5 DUP3 DUP6 ADD PUSH2 0x50D5 JUMP JUMPDEST SWAP2 POP POP SWAP3 SWAP2 POP POP JUMP JUMPDEST PUSH2 0x5305 DUP2 PUSH2 0x512A JUMP JUMPDEST DUP3 MSTORE POP POP JUMP JUMPDEST PUSH1 0x0 PUSH1 0xC0 DUP3 ADD SWAP1 POP PUSH2 0x5320 PUSH1 0x0 DUP4 ADD DUP10 PUSH2 0x4D7A JUMP JUMPDEST PUSH2 0x532D PUSH1 0x20 DUP4 ADD DUP9 PUSH2 0x4D7A JUMP JUMPDEST PUSH2 0x533A PUSH1 0x40 DUP4 ADD DUP8 PUSH2 0x4D7A JUMP JUMPDEST PUSH2 0x5347 PUSH1 0x60 DUP4 ADD DUP7 PUSH2 0x4D7A JUMP JUMPDEST PUSH2 0x5354 PUSH1 0x80 DUP4 ADD DUP6 PUSH2 0x4D7A JUMP JUMPDEST PUSH2 0x5361 PUSH1 0xA0 DUP4 ADD DUP5 PUSH2 0x52FC JUMP JUMPDEST SWAP8 SWAP7 POP POP POP POP POP POP POP JUMP JUMPDEST PUSH1 0x0 PUSH1 0x20 DUP3 ADD SWAP1 POP PUSH2 0x5381 PUSH1 0x0 DUP4 ADD DUP5 PUSH2 0x52FC JUMP JUMPDEST SWAP3 SWAP2 POP POP JUMP JUMPDEST PUSH1 0x0 PUSH2 0x5392 DUP3 PUSH2 0x4AAE JUMP JUMPDEST SWAP1 POP SWAP2 SWAP1 POP JUMP JUMPDEST PUSH2 0x53A2 DUP2 PUSH2 0x5387 JUMP JUMPDEST DUP3 MSTORE POP POP JUMP JUMPDEST PUSH1 0x0 PUSH1 0x20 DUP3 ADD SWAP1 POP PUSH2 0x53BD PUSH1 0x0 DUP4 ADD DUP5 PUSH2 0x5399 JUMP JUMPDEST SWAP3 SWAP2 POP POP JUMP JUMPDEST PUSH1 0x0 DUP2 SWAP1 POP SWAP2 SWAP1 POP JUMP JUMPDEST PUSH2 0x53D6 DUP2 PUSH2 0x53C3 JUMP JUMPDEST DUP2 EQ PUSH2 0x53E1 JUMPI PUSH1 0x0 DUP1 REVERT JUMPDEST POP JUMP JUMPDEST PUSH1 0x0 DUP2 CALLDATALOAD SWAP1 POP PUSH2 0x53F3 DUP2 PUSH2 0x53CD JUMP JUMPDEST SWAP3 SWAP2 POP POP JUMP JUMPDEST PUSH1 0x0 DUP1 PUSH1 0x0 DUP1 PUSH1 0x80 DUP6 DUP8 SUB SLT ISZERO PUSH2 0x5413 JUMPI PUSH2 0x5412 PUSH2 0x4AFC JUMP JUMPDEST JUMPDEST PUSH1 0x0 PUSH2 0x5421 DUP8 DUP3 DUP9 ADD PUSH2 0x53E4 JUMP JUMPDEST SWAP5 POP POP PUSH1 0x20 PUSH2 0x5432 DUP8 DUP3 DUP9 ADD PUSH2 0x4B22 JUMP JUMPDEST SWAP4 POP POP PUSH1 0x40 PUSH2 0x5443 DUP8 DUP3 DUP9 ADD PUSH2 0x4B22 JUMP JUMPDEST SWAP3 POP POP PUSH1 0x60 PUSH2 0x5454 DUP8 DUP3 DUP9 ADD PUSH2 0x4B22 JUMP JUMPDEST SWAP2 POP POP SWAP3 SWAP6 SWAP2 SWAP5 POP SWAP3 POP JUMP JUMPDEST PUSH1 0x0 DUP2 MLOAD SWAP1 POP PUSH2 0x546F DUP2 PUSH2 0x4B0B JUMP JUMPDEST SWAP3 SWAP2 POP POP JUMP JUMPDEST PUSH1 0x0 PUSH1 0x20 DUP3 DUP5 SUB SLT ISZERO PUSH2 0x548B JUMPI PUSH2 0x548A PUSH2 0x4AFC JUMP JUMPDEST JUMPDEST PUSH1 0x0 PUSH2 0x5499 DUP5 DUP3 DUP6 ADD PUSH2 0x5460 JUMP JUMPDEST SWAP2 POP POP SWAP3 SWAP2 POP POP JUMP JUMPDEST PUSH32 0x4E487B7100000000000000000000000000000000000000000000000000000000 PUSH1 0x0 MSTORE PUSH1 0x22 PUSH1 0x4 MSTORE PUSH1 0x24 PUSH1 0x0 REVERT JUMPDEST PUSH1 0x0 PUSH1 0x2 DUP3 DIV SWAP1 POP PUSH1 0x1 DUP3 AND DUP1 PUSH2 0x54E9 JUMPI PUSH1 0x7F DUP3 AND SWAP2 POP JUMPDEST PUSH1 0x20 DUP3 LT DUP2 SUB PUSH2 0x54FC JUMPI PUSH2 0x54FB PUSH2 0x54A2 JUMP JUMPDEST JUMPDEST POP SWAP2 SWAP1 POP JUMP JUMPDEST PUSH32 0x4E487B7100000000000000000000000000000000000000000000000000000000 PUSH1 0x0 MSTORE PUSH1 0x32 PUSH1 0x4 MSTORE PUSH1 0x24 PUSH1 0x0 REVERT JUMPDEST PUSH32 0x4E487B7100000000000000000000000000000000000000000000000000000000 PUSH1 0x0 MSTORE PUSH1 0x12 PUSH1 0x4 MSTORE PUSH1 0x24 PUSH1 0x0 REVERT JUMPDEST PUSH32 0x4E487B7100000000000000000000000000000000000000000000000000000000 PUSH1 0x0 MSTORE PUSH1 0x11 PUSH1 0x4 MSTORE PUSH1 0x24 PUSH1 0x0 REVERT JUMPDEST PUSH1 0x0 PUSH2 0x559A DUP3 PUSH2 0x4B01 JUMP JUMPDEST SWAP2 POP PUSH2 0x55A5 DUP4 PUSH2 0x4B01 JUMP JUMPDEST SWAP3 POP DUP3 PUSH2 0x55B5 JUMPI PUSH2 0x55B4 PUSH2 0x5531 JUMP JUMPDEST JUMPDEST DUP3 DUP3 DIV SWAP1 POP SWAP3 SWAP2 POP POP JUMP JUMPDEST PUSH1 0x0 PUSH2 0x55CB DUP3 PUSH2 0x4B01 JUMP JUMPDEST SWAP2 POP PUSH2 0x55D6 DUP4 PUSH2 0x4B01 JUMP JUMPDEST SWAP3 POP DUP3 DUP3 LT ISZERO PUSH2 0x55E9 JUMPI PUSH2 0x55E8 PUSH2 0x5560 JUMP JUMPDEST JUMPDEST DUP3 DUP3 SUB SWAP1 POP SWAP3 SWAP2 POP POP JUMP JUMPDEST PUSH1 0x0 PUSH2 0x55FF DUP3 PUSH2 0x4B01 JUMP JUMPDEST SWAP2 POP PUSH32 0xFFFFFFFFFFFFFFFFFFFFFFFFFFFFFFFFFFFFFFFFFFFFFFFFFFFFFFFFFFFFFFFF DUP3 SUB PUSH2 0x5631 JUMPI PUSH2 0x5630 PUSH2 0x5560 JUMP JUMPDEST JUMPDEST PUSH1 0x1 DUP3 ADD SWAP1 POP SWAP2 SWAP1 POP JUMP JUMPDEST PUSH1 0x0 DUP3 DUP3 MSTORE PUSH1 0x20 DUP3 ADD SWAP1 POP SWAP3 SWAP2 POP POP JUMP JUMPDEST PUSH32 0x4F6E6C792066756E6473206F776E65722063616E207769746864726177206675 PUSH1 0x0 DUP3 ADD MSTORE PUSH32 0x6E64730000000000000000000000000000000000000000000000000000000000 PUSH1 0x20 DUP3 ADD MSTORE POP JUMP JUMPDEST PUSH1 0x0 PUSH2 0x56A9 PUSH1 0x23 DUP4 PUSH2 0x563C JUMP JUMPDEST SWAP2 POP PUSH2 0x56B4 DUP3 PUSH2 0x564D JUMP JUMPDEST PUSH1 0x40 DUP3 ADD SWAP1 POP SWAP2 SWAP1 POP JUMP JUMPDEST PUSH1 0x0 PUSH1 0x20 DUP3 ADD SWAP1 POP DUP2 DUP2 SUB PUSH1 0x0 DUP4 ADD MSTORE PUSH2 0x56D8 DUP2 PUSH2 0x569C JUMP JUMPDEST SWAP1 POP SWAP2 SWAP1 POP JUMP JUMPDEST PUSH2 0x56E8 DUP2 PUSH2 0x4BA3 JUMP JUMPDEST DUP3 MSTORE POP POP JUMP JUMPDEST PUSH1 0x0 PUSH1 0x60 DUP3 ADD SWAP1 POP PUSH2 0x5703 PUSH1 0x0 DUP4 ADD DUP7 PUSH2 0x56DF JUMP JUMPDEST PUSH2 0x5710 PUSH1 0x20 DUP4 ADD DUP6 PUSH2 0x4E09 JUMP JUMPDEST PUSH2 0x571D PUSH1 0x40 DUP4 ADD DUP5 PUSH2 0x4D7A JUMP JUMPDEST SWAP5 SWAP4 POP POP POP POP JUMP JUMPDEST PUSH32 0x4D7573742062652070726F706F736564206F776E657200000000000000000000 PUSH1 0x0 DUP3 ADD MSTORE POP JUMP JUMPDEST PUSH1 0x0 PUSH2 0x575B PUSH1 0x16 DUP4 PUSH2 0x563C JUMP JUMPDEST SWAP2 POP PUSH2 0x5766 DUP3 PUSH2 0x5725 JUMP JUMPDEST PUSH1 0x20 DUP3 ADD SWAP1 POP SWAP2 SWAP1 POP JUMP JUMPDEST PUSH1 0x0 PUSH1 0x20 DUP3 ADD SWAP1 POP DUP2 DUP2 SUB PUSH1 0x0 DUP4 ADD MSTORE PUSH2 0x578A DUP2 PUSH2 0x574E JUMP JUMPDEST SWAP1 POP SWAP2 SWAP1 POP JUMP JUMPDEST PUSH32 0x596F75206D757374206265742066726F6D20796F7572206F776E206164647265 PUSH1 0x0 DUP3 ADD MSTORE PUSH32 0x7373000000000000000000000000000000000000000000000000000000000000 PUSH1 0x20 DUP3 ADD MSTORE POP JUMP JUMPDEST PUSH1 0x0 PUSH2 0x57ED PUSH1 0x22 DUP4 PUSH2 0x563C JUMP JUMPDEST SWAP2 POP PUSH2 0x57F8 DUP3 PUSH2 0x5791 JUMP JUMPDEST PUSH1 0x40 DUP3 ADD SWAP1 POP SWAP2 SWAP1 POP JUMP JUMPDEST PUSH1 0x0 PUSH1 0x20 DUP3 ADD SWAP1 POP DUP2 DUP2 SUB PUSH1 0x0 DUP4 ADD MSTORE PUSH2 0x581C DUP2 PUSH2 0x57E0 JUMP JUMPDEST SWAP1 POP SWAP2 SWAP1 POP JUMP JUMPDEST PUSH32 0x596F75206D7573742062657420736F6D657468696E6700000000000000000000 PUSH1 0x0 DUP3 ADD MSTORE POP JUMP JUMPDEST PUSH1 0x0 PUSH2 0x5859 PUSH1 0x16 DUP4 PUSH2 0x563C JUMP JUMPDEST SWAP2 POP PUSH2 0x5864 DUP3 PUSH2 0x5823 JUMP JUMPDEST PUSH1 0x20 DUP3 ADD SWAP1 POP SWAP2 SWAP1 POP JUMP JUMPDEST PUSH1 0x0 PUSH1 0x20 DUP3 ADD SWAP1 POP DUP2 DUP2 SUB PUSH1 0x0 DUP4 ADD MSTORE PUSH2 0x5888 DUP2 PUSH2 0x584C JUMP JUMPDEST SWAP1 POP SWAP2 SWAP1 POP JUMP JUMPDEST PUSH1 0x0 PUSH2 0x589A DUP3 PUSH2 0x4B01 JUMP JUMPDEST SWAP2 POP PUSH2 0x58A5 DUP4 PUSH2 0x4B01 JUMP JUMPDEST SWAP3 POP DUP2 PUSH32 0xFFFFFFFFFFFFFFFFFFFFFFFFFFFFFFFFFFFFFFFFFFFFFFFFFFFFFFFFFFFFFFFF DIV DUP4 GT DUP3 ISZERO ISZERO AND ISZERO PUSH2 0x58DE JUMPI PUSH2 0x58DD PUSH2 0x5560 JUMP JUMPDEST JUMPDEST DUP3 DUP3 MUL SWAP1 POP SWAP3 SWAP2 POP POP JUMP JUMPDEST PUSH1 0x0 PUSH2 0x58F4 DUP3 PUSH2 0x4B01 JUMP JUMPDEST SWAP2 POP PUSH2 0x58FF DUP4 PUSH2 0x4B01 JUMP JUMPDEST SWAP3 POP DUP3 PUSH32 0xFFFFFFFFFFFFFFFFFFFFFFFFFFFFFFFFFFFFFFFFFFFFFFFFFFFFFFFFFFFFFFFF SUB DUP3 GT ISZERO PUSH2 0x5934 JUMPI PUSH2 0x5933 PUSH2 0x5560 JUMP JUMPDEST JUMPDEST DUP3 DUP3 ADD SWAP1 POP SWAP3 SWAP2 POP POP JUMP JUMPDEST PUSH32 0x596F75206D75737420626574206F6E2061207465616D20746861742069732070 PUSH1 0x0 DUP3 ADD MSTORE PUSH32 0x6C6179696E6720696E20746869732067616D6500000000000000000000000000 PUSH1 0x20 DUP3 ADD MSTORE POP JUMP JUMPDEST PUSH1 0x0 PUSH2 0x599B PUSH1 0x33 DUP4 PUSH2 0x563C JUMP JUMPDEST SWAP2 POP PUSH2 0x59A6 DUP3 PUSH2 0x593F JUMP JUMPDEST PUSH1 0x40 DUP3 ADD SWAP1 POP SWAP2 SWAP1 POP JUMP JUMPDEST PUSH1 0x0 PUSH1 0x20 DUP3 ADD SWAP1 POP DUP2 DUP2 SUB PUSH1 0x0 DUP4 ADD MSTORE PUSH2 0x59CA DUP2 PUSH2 0x598E JUMP JUMPDEST SWAP1 POP SWAP2 SWAP1 POP JUMP JUMPDEST PUSH32 0x4E487B7100000000000000000000000000000000000000000000000000000000 PUSH1 0x0 MSTORE PUSH1 0x41 PUSH1 0x4 MSTORE PUSH1 0x24 PUSH1 0x0 REVERT JUMPDEST PUSH32 0x4E487B7100000000000000000000000000000000000000000000000000000000 PUSH1 0x0 MSTORE PUSH1 0x21 PUSH1 0x4 MSTORE PUSH1 0x24 PUSH1 0x0 REVERT JUMPDEST PUSH32 0x596F7520617265206E6F74207468652061646D696E0000000000000000000000 PUSH1 0x0 DUP3 ADD MSTORE POP JUMP JUMPDEST PUSH1 0x0 PUSH2 0x5A65 PUSH1 0x15 DUP4 PUSH2 0x563C JUMP JUMPDEST SWAP2 POP PUSH2 0x5A70 DUP3 PUSH2 0x5A2F JUMP JUMPDEST PUSH1 0x20 DUP3 ADD SWAP1 POP SWAP2 SWAP1 POP JUMP JUMPDEST PUSH1 0x0 PUSH1 0x20 DUP3 ADD SWAP1 POP DUP2 DUP2 SUB PUSH1 0x0 DUP4 ADD MSTORE PUSH2 0x5A94 DUP2 PUSH2 0x5A58 JUMP JUMPDEST SWAP1 POP SWAP2 SWAP1 POP JUMP JUMPDEST PUSH1 0x0 DUP2 SWAP1 POP SWAP3 SWAP2 POP POP JUMP JUMPDEST PUSH32 0x68747470733A2F2F7777772E62616C6C646F6E746C69652E696F2F6170692F76 PUSH1 0x0 DUP3 ADD MSTORE PUSH32 0x312F67616D65732F000000000000000000000000000000000000000000000000 PUSH1 0x20 DUP3 ADD MSTORE POP JUMP JUMPDEST PUSH1 0x0 PUSH2 0x5B02 PUSH1 0x28 DUP4 PUSH2 0x5A9B JUMP JUMPDEST SWAP2 POP PUSH2 0x5B0D DUP3 PUSH2 0x5AA6 JUMP JUMPDEST PUSH1 0x28 DUP3 ADD SWAP1 POP SWAP2 SWAP1 POP JUMP JUMPDEST PUSH1 0x0 PUSH2 0x5B23 DUP3 PUSH2 0x4E7D JUMP JUMPDEST PUSH2 0x5B2D DUP2 DUP6 PUSH2 0x5A9B JUMP JUMPDEST SWAP4 POP PUSH2 0x5B3D DUP2 DUP6 PUSH1 0x20 DUP7 ADD PUSH2 0x4CCD JUMP JUMPDEST DUP1 DUP5 ADD SWAP2 POP POP SWAP3 SWAP2 POP POP JUMP JUMPDEST PUSH1 0x0 PUSH2 0x5B54 DUP3 PUSH2 0x5AF5 JUMP JUMPDEST SWAP2 POP PUSH2 0x5B60 DUP3 DUP5 PUSH2 0x5B18 JUMP JUMPDEST SWAP2 POP DUP2 SWAP1 POP SWAP3 SWAP2 POP POP JUMP JUMPDEST PUSH32 0x536F75726365206D75737420626520746865206F7261636C65206F6620746865 PUSH1 0x0 DUP3 ADD MSTORE PUSH32 0x2072657175657374000000000000000000000000000000000000000000000000 PUSH1 0x20 DUP3 ADD MSTORE POP JUMP JUMPDEST PUSH1 0x0 PUSH2 0x5BC7 PUSH1 0x28 DUP4 PUSH2 0x563C JUMP JUMPDEST SWAP2 POP PUSH2 0x5BD2 DUP3 PUSH2 0x5B6B JUMP JUMPDEST PUSH1 0x40 DUP3 ADD SWAP1 POP SWAP2 SWAP1 POP JUMP JUMPDEST PUSH1 0x0 PUSH1 0x20 DUP3 ADD SWAP1 POP DUP2 DUP2 SUB PUSH1 0x0 DUP4 ADD MSTORE PUSH2 0x5BF6 DUP2 PUSH2 0x5BBA JUMP JUMPDEST SWAP1 POP SWAP2 SWAP1 POP JUMP JUMPDEST PUSH1 0x0 PUSH1 0x60 DUP3 ADD SWAP1 POP PUSH2 0x5C12 PUSH1 0x0 DUP4 ADD DUP7 PUSH2 0x4D7A JUMP JUMPDEST PUSH2 0x5C1F PUSH1 0x20 DUP4 ADD DUP6 PUSH2 0x4D7A JUMP JUMPDEST PUSH2 0x5C2C PUSH1 0x40 DUP4 ADD DUP5 PUSH2 0x4D7A JUMP JUMPDEST SWAP5 SWAP4 POP POP POP POP JUMP JUMPDEST PUSH1 0x0 PUSH1 0x40 DUP3 ADD SWAP1 POP PUSH2 0x5C49 PUSH1 0x0 DUP4 ADD DUP6 PUSH2 0x4E09 JUMP JUMPDEST DUP2 DUP2 SUB PUSH1 0x20 DUP4 ADD MSTORE PUSH2 0x5C5B DUP2 DUP5 PUSH2 0x4D11 JUMP JUMPDEST SWAP1 POP SWAP4 SWAP3 POP POP POP JUMP JUMPDEST PUSH1 0x0 DUP2 MLOAD SWAP1 POP SWAP2 SWAP1 POP JUMP JUMPDEST PUSH1 0x0 DUP3 DUP3 MSTORE PUSH1 0x20 DUP3 ADD SWAP1 POP SWAP3 SWAP2 POP POP JUMP JUMPDEST PUSH1 0x0 DUP2 SWAP1 POP PUSH1 0x20 DUP3 ADD SWAP1 POP SWAP2 SWAP1 POP JUMP JUMPDEST PUSH1 0x4 DUP2 LT PUSH2 0x5CA1 JUMPI PUSH2 0x5CA0 PUSH2 0x5A00 JUMP JUMPDEST JUMPDEST POP JUMP JUMPDEST PUSH1 0x0 DUP2 SWAP1 POP PUSH2 0x5CB2 DUP3 PUSH2 0x5C90 JUMP JUMPDEST SWAP2 SWAP1 POP JUMP JUMPDEST PUSH1 0x0 PUSH2 0x5CC2 DUP3 PUSH2 0x5CA4 JUMP JUMPDEST SWAP1 POP SWAP2 SWAP1 POP JUMP JUMPDEST PUSH2 0x5CD2 DUP2 PUSH2 0x5CB7 JUMP JUMPDEST DUP3 MSTORE POP POP JUMP JUMPDEST PUSH1 0x0 PUSH2 0x5CE4 DUP4 DUP4 PUSH2 0x5CC9 JUMP JUMPDEST PUSH1 0x20 DUP4 ADD SWAP1 POP SWAP3 SWAP2 POP POP JUMP JUMPDEST PUSH1 0x0 PUSH1 0x20 DUP3 ADD SWAP1 POP SWAP2 SWAP1 POP JUMP JUMPDEST PUSH1 0x0 PUSH2 0x5D08 DUP3 PUSH2 0x5C64 JUMP JUMPDEST PUSH2 0x5D12 DUP2 DUP6 PUSH2 0x5C6F JUMP JUMPDEST SWAP4 POP PUSH2 0x5D1D DUP4 PUSH2 0x5C80 JUMP JUMPDEST DUP1 PUSH1 0x0 JUMPDEST DUP4 DUP2 LT ISZERO PUSH2 0x5D4E JUMPI DUP2 MLOAD PUSH2 0x5D35 DUP9 DUP3 PUSH2 0x5CD8 JUMP JUMPDEST SWAP8 POP PUSH2 0x5D40 DUP4 PUSH2 0x5CF0 JUMP JUMPDEST SWAP3 POP POP PUSH1 0x1 DUP2 ADD SWAP1 POP PUSH2 0x5D21 JUMP JUMPDEST POP DUP6 SWAP4 POP POP POP POP SWAP3 SWAP2 POP POP JUMP JUMPDEST PUSH1 0x0 DUP2 MLOAD SWAP1 POP SWAP2 SWAP1 POP JUMP JUMPDEST PUSH1 0x0 DUP3 DUP3 MSTORE PUSH1 0x20 DUP3 ADD SWAP1 POP SWAP3 SWAP2 POP POP JUMP JUMPDEST PUSH1 0x0 DUP2 SWAP1 POP PUSH1 0x20 DUP3 ADD SWAP1 POP SWAP2 SWAP1 POP JUMP JUMPDEST PUSH1 0x0 DUP3 DUP3 MSTORE PUSH1 0x20 DUP3 ADD SWAP1 POP SWAP3 SWAP2 POP POP JUMP JUMPDEST PUSH1 0x0 PUSH2 0x5DA3 DUP3 PUSH2 0x4CB1 JUMP JUMPDEST PUSH2 0x5DAD DUP2 DUP6 PUSH2 0x5D87 JUMP JUMPDEST SWAP4 POP PUSH2 0x5DBD DUP2 DUP6 PUSH1 0x20 DUP7 ADD PUSH2 0x4CCD JUMP JUMPDEST PUSH2 0x5DC6 DUP2 PUSH2 0x4D00 JUMP JUMPDEST DUP5 ADD SWAP2 POP POP SWAP3 SWAP2 POP POP JUMP JUMPDEST PUSH1 0x0 PUSH2 0x5DDD DUP4 DUP4 PUSH2 0x5D98 JUMP JUMPDEST SWAP1 POP SWAP3 SWAP2 POP POP JUMP JUMPDEST PUSH1 0x0 PUSH1 0x20 DUP3 ADD SWAP1 POP SWAP2 SWAP1 POP JUMP JUMPDEST PUSH1 0x0 PUSH2 0x5DFD DUP3 PUSH2 0x5D5B JUMP JUMPDEST PUSH2 0x5E07 DUP2 DUP6 PUSH2 0x5D66 JUMP JUMPDEST SWAP4 POP DUP4 PUSH1 0x20 DUP3 MUL DUP6 ADD PUSH2 0x5E19 DUP6 PUSH2 0x5D77 JUMP JUMPDEST DUP1 PUSH1 0x0 JUMPDEST DUP6 DUP2 LT ISZERO PUSH2 0x5E55 JUMPI DUP5 DUP5 SUB DUP10 MSTORE DUP2 MLOAD PUSH2 0x5E36 DUP6 DUP3 PUSH2 0x5DD1 JUMP JUMPDEST SWAP5 POP PUSH2 0x5E41 DUP4 PUSH2 0x5DE5 JUMP JUMPDEST SWAP3 POP PUSH1 0x20 DUP11 ADD SWAP10 POP POP PUSH1 0x1 DUP2 ADD SWAP1 POP PUSH2 0x5E1D JUMP JUMPDEST POP DUP3 SWAP8 POP DUP8 SWAP6 POP POP POP POP POP POP SWAP3 SWAP2 POP POP JUMP JUMPDEST PUSH1 0x0 PUSH1 0x40 DUP4 ADD PUSH1 0x0 DUP4 ADD MLOAD DUP5 DUP3 SUB PUSH1 0x0 DUP7 ADD MSTORE PUSH2 0x5E84 DUP3 DUP3 PUSH2 0x5CFD JUMP JUMPDEST SWAP2 POP POP PUSH1 0x20 DUP4 ADD MLOAD DUP5 DUP3 SUB PUSH1 0x20 DUP7 ADD MSTORE PUSH2 0x5E9E DUP3 DUP3 PUSH2 0x5DF2 JUMP JUMPDEST SWAP2 POP POP DUP1 SWAP2 POP POP SWAP3 SWAP2 POP POP JUMP JUMPDEST PUSH1 0x0 PUSH1 0x80 DUP3 ADD SWAP1 POP PUSH2 0x5EC0 PUSH1 0x0 DUP4 ADD DUP8 PUSH2 0x4E09 JUMP JUMPDEST DUP2 DUP2 SUB PUSH1 0x20 DUP4 ADD MSTORE PUSH2 0x5ED2 DUP2 DUP7 PUSH2 0x4D11 JUMP JUMPDEST SWAP1 POP DUP2 DUP2 SUB PUSH1 0x40 DUP4 ADD MSTORE PUSH2 0x5EE6 DUP2 DUP6 PUSH2 0x5E67 JUMP JUMPDEST SWAP1 POP PUSH2 0x5EF5 PUSH1 0x60 DUP4 ADD DUP5 PUSH2 0x4E09 JUMP JUMPDEST SWAP6 SWAP5 POP POP POP POP POP JUMP JUMPDEST PUSH1 0x0 DUP2 MLOAD SWAP1 POP PUSH2 0x5F0D DUP2 PUSH2 0x53CD JUMP JUMPDEST SWAP3 SWAP2 POP POP JUMP JUMPDEST PUSH1 0x0 PUSH1 0x20 DUP3 DUP5 SUB SLT ISZERO PUSH2 0x5F29 JUMPI PUSH2 0x5F28 PUSH2 0x4AFC JUMP JUMPDEST JUMPDEST PUSH1 0x0 PUSH2 0x5F37 DUP5 DUP3 DUP6 ADD PUSH2 0x5EFE JUMP JUMPDEST SWAP2 POP POP SWAP3 SWAP2 POP POP JUMP JUMPDEST PUSH1 0x0 PUSH1 0x60 DUP3 ADD SWAP1 POP PUSH2 0x5F55 PUSH1 0x0 DUP4 ADD DUP7 PUSH2 0x4E09 JUMP JUMPDEST PUSH2 0x5F62 PUSH1 0x20 DUP4 ADD DUP6 PUSH2 0x4E09 JUMP JUMPDEST PUSH2 0x5F6F PUSH1 0x40 DUP4 ADD DUP5 PUSH2 0x4D7A JUMP JUMPDEST SWAP5 SWAP4 POP POP POP POP JUMP JUMPDEST PUSH1 0x0 PUSH2 0x5F82 DUP3 PUSH2 0x4B01 JUMP JUMPDEST SWAP2 POP PUSH2 0x5F8D DUP4 PUSH2 0x4B01 JUMP JUMPDEST SWAP3 POP DUP3 PUSH2 0x5F9D JUMPI PUSH2 0x5F9C PUSH2 0x5531 JUMP JUMPDEST JUMPDEST DUP3 DUP3 MOD SWAP1 POP SWAP3 SWAP2 POP POP JUMP JUMPDEST PUSH32 0x4F6E6C792063616C6C61626C65206279206F776E657200000000000000000000 PUSH1 0x0 DUP3 ADD MSTORE POP JUMP JUMPDEST PUSH1 0x0 PUSH2 0x5FDE PUSH1 0x16 DUP4 PUSH2 0x563C JUMP JUMPDEST SWAP2 POP PUSH2 0x5FE9 DUP3 PUSH2 0x5FA8 JUMP JUMPDEST PUSH1 0x20 DUP3 ADD SWAP1 POP SWAP2 SWAP1 POP JUMP JUMPDEST PUSH1 0x0 PUSH1 0x20 DUP3 ADD SWAP1 POP DUP2 DUP2 SUB PUSH1 0x0 DUP4 ADD MSTORE PUSH2 0x600D DUP2 PUSH2 0x5FD1 JUMP JUMPDEST SWAP1 POP SWAP2 SWAP1 POP JUMP JUMPDEST PUSH32 0x43616E6E6F74207472616E7366657220746F2073656C66000000000000000000 PUSH1 0x0 DUP3 ADD MSTORE POP JUMP JUMPDEST PUSH1 0x0 PUSH2 0x604A PUSH1 0x17 DUP4 PUSH2 0x563C JUMP JUMPDEST SWAP2 POP PUSH2 0x6055 DUP3 PUSH2 0x6014 JUMP JUMPDEST PUSH1 0x20 DUP3 ADD SWAP1 POP SWAP2 SWAP1 POP JUMP JUMPDEST PUSH1 0x0 PUSH1 0x20 DUP3 ADD SWAP1 POP DUP2 DUP2 SUB PUSH1 0x0 DUP4 ADD MSTORE PUSH2 0x6079 DUP2 PUSH2 0x603D JUMP JUMPDEST SWAP1 POP SWAP2 SWAP1 POP JUMP JUMPDEST PUSH2 0x6089 DUP2 PUSH2 0x53C3 JUMP JUMPDEST DUP3 MSTORE POP POP JUMP JUMPDEST PUSH1 0x0 PUSH32 0xFFFFFFFF00000000000000000000000000000000000000000000000000000000 DUP3 AND SWAP1 POP SWAP2 SWAP1 POP JUMP JUMPDEST PUSH2 0x60C4 DUP2 PUSH2 0x608F JUMP JUMPDEST DUP3 MSTORE POP POP JUMP JUMPDEST PUSH1 0x0 PUSH2 0x100 DUP3 ADD SWAP1 POP PUSH2 0x60E0 PUSH1 0x0 DUP4 ADD DUP12 PUSH2 0x4E09 JUMP JUMPDEST PUSH2 0x60ED PUSH1 0x20 DUP4 ADD DUP11 PUSH2 0x4D7A JUMP JUMPDEST PUSH2 0x60FA PUSH1 0x40 DUP4 ADD DUP10 PUSH2 0x6080 JUMP JUMPDEST PUSH2 0x6107 PUSH1 0x60 DUP4 ADD DUP9 PUSH2 0x4E09 JUMP JUMPDEST PUSH2 0x6114 PUSH1 0x80 DUP4 ADD DUP8 PUSH2 0x60BB JUMP JUMPDEST PUSH2 0x6121 PUSH1 0xA0 DUP4 ADD DUP7 PUSH2 0x4D7A JUMP JUMPDEST PUSH2 0x612E PUSH1 0xC0 DUP4 ADD DUP6 PUSH2 0x4D7A JUMP JUMPDEST DUP2 DUP2 SUB PUSH1 0xE0 DUP4 ADD MSTORE PUSH2 0x6140 DUP2 DUP5 PUSH2 0x4D11 JUMP JUMPDEST SWAP1 POP SWAP10 SWAP9 POP POP POP POP POP POP POP POP POP JUMP JUMPDEST PUSH1 0x0 PUSH2 0x615A DUP3 PUSH2 0x4AAE JUMP JUMPDEST SWAP1 POP SWAP2 SWAP1 POP JUMP JUMPDEST PUSH1 0x0 DUP2 PUSH1 0x60 SHL SWAP1 POP SWAP2 SWAP1 POP JUMP JUMPDEST PUSH1 0x0 PUSH2 0x6179 DUP3 PUSH2 0x6161 JUMP JUMPDEST SWAP1 POP SWAP2 SWAP1 POP JUMP JUMPDEST PUSH1 0x0 PUSH2 0x618B DUP3 PUSH2 0x616E JUMP JUMPDEST SWAP1 POP SWAP2 SWAP1 POP JUMP JUMPDEST PUSH2 0x61A3 PUSH2 0x619E DUP3 PUSH2 0x614F JUMP JUMPDEST PUSH2 0x6180 JUMP JUMPDEST DUP3 MSTORE POP POP JUMP JUMPDEST PUSH1 0x0 DUP2 SWAP1 POP SWAP2 SWAP1 POP JUMP JUMPDEST PUSH2 0x61C4 PUSH2 0x61BF DUP3 PUSH2 0x4B01 JUMP JUMPDEST PUSH2 0x61A9 JUMP JUMPDEST DUP3 MSTORE POP POP JUMP JUMPDEST PUSH1 0x0 PUSH2 0x61D6 DUP3 DUP6 PUSH2 0x6192 JUMP JUMPDEST PUSH1 0x14 DUP3 ADD SWAP2 POP PUSH2 0x61E6 DUP3 DUP5 PUSH2 0x61B3 JUMP JUMPDEST PUSH1 0x20 DUP3 ADD SWAP2 POP DUP2 SWAP1 POP SWAP4 SWAP3 POP POP POP JUMP JUMPDEST PUSH1 0x0 PUSH1 0x60 DUP3 ADD SWAP1 POP PUSH2 0x620B PUSH1 0x0 DUP4 ADD DUP7 PUSH2 0x4E09 JUMP JUMPDEST PUSH2 0x6218 PUSH1 0x20 DUP4 ADD DUP6 PUSH2 0x4D7A JUMP JUMPDEST DUP2 DUP2 SUB PUSH1 0x40 DUP4 ADD MSTORE PUSH2 0x622A DUP2 DUP5 PUSH2 0x4D11 JUMP JUMPDEST SWAP1 POP SWAP5 SWAP4 POP POP POP POP JUMP JUMPDEST PUSH2 0x623D DUP2 PUSH2 0x4C96 JUMP JUMPDEST DUP2 EQ PUSH2 0x6248 JUMPI PUSH1 0x0 DUP1 REVERT JUMPDEST POP JUMP JUMPDEST PUSH1 0x0 DUP2 MLOAD SWAP1 POP PUSH2 0x625A DUP2 PUSH2 0x6234 JUMP JUMPDEST SWAP3 SWAP2 POP POP JUMP JUMPDEST PUSH1 0x0 PUSH1 0x20 DUP3 DUP5 SUB SLT ISZERO PUSH2 0x6276 JUMPI PUSH2 0x6275 PUSH2 0x4AFC JUMP JUMPDEST JUMPDEST PUSH1 0x0 PUSH2 0x6284 DUP5 DUP3 DUP6 ADD PUSH2 0x624B JUMP JUMPDEST SWAP2 POP POP SWAP3 SWAP2 POP POP JUMP JUMPDEST PUSH32 0x756E61626C6520746F207472616E73666572416E6443616C6C20746F206F7261 PUSH1 0x0 DUP3 ADD MSTORE PUSH32 0x636C650000000000000000000000000000000000000000000000000000000000 PUSH1 0x20 DUP3 ADD MSTORE POP JUMP JUMPDEST PUSH1 0x0 PUSH2 0x62E9 PUSH1 0x23 DUP4 PUSH2 0x563C JUMP JUMPDEST SWAP2 POP PUSH2 0x62F4 DUP3 PUSH2 0x628D JUMP JUMPDEST PUSH1 0x40 DUP3 ADD SWAP1 POP SWAP2 SWAP1 POP JUMP JUMPDEST PUSH1 0x0 PUSH1 0x20 DUP3 ADD SWAP1 POP DUP2 DUP2 SUB PUSH1 0x0 DUP4 ADD MSTORE PUSH2 0x6318 DUP2 PUSH2 0x62DC JUMP JUMPDEST SWAP1 POP SWAP2 SWAP1 POP JUMP JUMPDEST PUSH1 0x0 DUP2 PUSH1 0x1 SHR SWAP1 POP SWAP2 SWAP1 POP JUMP JUMPDEST PUSH1 0x0 DUP1 DUP3 SWAP2 POP DUP4 SWAP1 POP JUMPDEST PUSH1 0x1 DUP6 GT ISZERO PUSH2 0x6376 JUMPI DUP1 DUP7 DIV DUP2 GT ISZERO PUSH2 0x6352 JUMPI PUSH2 0x6351 PUSH2 0x5560 JUMP JUMPDEST JUMPDEST PUSH1 0x1 DUP6 AND ISZERO PUSH2 0x6361 JUMPI DUP1 DUP3 MUL SWAP2 POP JUMPDEST DUP1 DUP2 MUL SWAP1 POP PUSH2 0x636F DUP6 PUSH2 0x631F JUMP JUMPDEST SWAP5 POP PUSH2 0x6336 JUMP JUMPDEST SWAP5 POP SWAP5 SWAP3 POP POP POP JUMP JUMPDEST PUSH1 0x0 DUP3 PUSH2 0x638F JUMPI PUSH1 0x1 SWAP1 POP PUSH2 0x644B JUMP JUMPDEST DUP2 PUSH2 0x639D JUMPI PUSH1 0x0 SWAP1 POP PUSH2 0x644B JUMP JUMPDEST DUP2 PUSH1 0x1 DUP2 EQ PUSH2 0x63B3 JUMPI PUSH1 0x2 DUP2 EQ PUSH2 0x63BD JUMPI PUSH2 0x63EC JUMP JUMPDEST PUSH1 0x1 SWAP2 POP POP PUSH2 0x644B JUMP JUMPDEST PUSH1 0xFF DUP5 GT ISZERO PUSH2 0x63CF JUMPI PUSH2 0x63CE PUSH2 0x5560 JUMP JUMPDEST JUMPDEST DUP4 PUSH1 0x2 EXP SWAP2 POP DUP5 DUP3 GT ISZERO PUSH2 0x63E6 JUMPI PUSH2 0x63E5 PUSH2 0x5560 JUMP JUMPDEST JUMPDEST POP PUSH2 0x644B JUMP JUMPDEST POP PUSH1 0x20 DUP4 LT PUSH2 0x133 DUP4 LT AND PUSH1 0x4E DUP5 LT PUSH1 0xB DUP5 LT AND OR ISZERO PUSH2 0x6421 JUMPI DUP3 DUP3 EXP SWAP1 POP DUP4 DUP2 GT ISZERO PUSH2 0x641C JUMPI PUSH2 0x641B PUSH2 0x5560 JUMP JUMPDEST JUMPDEST PUSH2 0x644B JUMP JUMPDEST PUSH2 0x642E DUP5 DUP5 DUP5 PUSH1 0x1 PUSH2 0x632C JUMP JUMPDEST SWAP3 POP SWAP1 POP DUP2 DUP5 DIV DUP2 GT ISZERO PUSH2 0x6445 JUMPI PUSH2 0x6444 PUSH2 0x5560 JUMP JUMPDEST JUMPDEST DUP2 DUP2 MUL SWAP1 POP JUMPDEST SWAP4 SWAP3 POP POP POP JUMP JUMPDEST PUSH1 0x0 PUSH2 0x645D DUP3 PUSH2 0x4B01 JUMP JUMPDEST SWAP2 POP PUSH2 0x6468 DUP4 PUSH2 0x4B01 JUMP JUMPDEST SWAP3 POP PUSH2 0x6495 PUSH32 0xFFFFFFFFFFFFFFFFFFFFFFFFFFFFFFFFFFFFFFFFFFFFFFFFFFFFFFFFFFFFFFFF DUP5 DUP5 PUSH2 0x637F JUMP JUMPDEST SWAP1 POP SWAP3 SWAP2 POP POP JUMP INVALID LOG2 PUSH5 0x6970667358 0x22 SLT KECCAK256 MSTORE SIGNEXTEND PUSH19 0x35D1280F03A994E707ACA2BD4B536FBAE44293 XOR 0x4B 0xB7 0x4C 0x2C 0xB3 STOP AND EXP 0xEF PUSH5 0x736F6C6343 STOP ADDMOD 0xE STOP CALLER "},"methodIdentifiers":{"acceptOwnership()":"79ba5097","automate()":"049aacfe","dedicatedMsgSender()":"28f150eb","depositForCounter()":"b9cafa96","fulfillMultipleParameters(bytes32,uint256,uint256,uint256)":"fda4417b","fundsOwner()":"46ee3c59","home_team_score(uint256)":"80eb6d04","moneyLineBet(address,uint256,uint256,uint256,uint256,uint256)":"92a25a64","moneyLineChecker(uint256)":"0e065bd9","newMoneyLineBet(uint256)":"8edd3971","newPointSpreadBet(uint256)":"2429827f","newPointTotalBet(uint256)":"a91faba2","owner()":"8da5cb5b","pointSpreadBet(address,uint256,uint256,uint256,uint256,uint256,int256)":"a59cba02","pointTotalBet(address,uint256,uint256,uint256,uint256,uint256,int256)":"835f3fec","requestMultipleParameters(uint256)":"d02f0f55","returnEscrow()":"7ea4178a","returnMoneyLineBetReceipt(uint256,uint256)":"a910e4a5","returnMoneyLineStartTime(uint256)":"7e960916","returnMoneyLineUsersArray(uint256,uint256)":"8697ac4e","returnOdds(uint256,uint256)":"f227ce4d","returnPointSpreadBetReceipt(uint256,uint256)":"6bd4c7c0","returnPointSpreadGameAmount(uint256,uint256)":"ccb7ed45","returnPointSpreadUsersArray(uint256,uint256)":"08c27e5a","returnPointTotalBetReceipt(uint256,int256)":"80ee79c1","returnPointTotalGameAmount(uint256)":"68989a92","returnPointTotalUsersArray(uint256,int256)":"f6d7c759","returnReceipts()":"3946f666","returnResponse(uint256)":"2e964aae","rewardMoneyLineWinners(uint256)":"5658fa10","taskTreasury()":"e60a3213","totalBetOnGame(uint256)":"23821c21","totalBetOnTeam(uint256,uint256)":"2b3a4ef6","transferEther()":"c9b25f0f","transferOwnership(address)":"f2fde38b","userReceipts(address)":"a4786f3d","visitor_team_score(uint256)":"245a2fad","withdrawFunds(uint256,address)":"744bfe61"}}}}}