{
  "_format": "hh-sol-artifact-1",
  "contractName": "Bet",
  "sourceName": "contracts/Bet.sol",
  "abi": [
    {
      "inputs": [
        {
          "internalType": "string",
          "name": "_moneyLineFunctionHash",
          "type": "string"
        },
        {
          "internalType": "string",
          "name": "_pointTotalFunctionHash",
          "type": "string"
        },
        {
          "internalType": "string",
          "name": "_pointSpreadFunctionHash",
          "type": "string"
        }
      ],
      "stateMutability": "nonpayable",
      "type": "constructor"
    },
    {
      "inputs": [],
      "name": "automate",
      "outputs": [
        {
          "internalType": "contract IAutomate",
          "name": "",
          "type": "address"
        }
      ],
      "stateMutability": "view",
      "type": "function"
    },
    {
      "inputs": [
        {
          "internalType": "address",
          "name": "user",
          "type": "address"
        }
      ],
      "name": "blockUser",
      "outputs": [],
      "stateMutability": "nonpayable",
      "type": "function"
    },
    {
      "inputs": [
        {
          "internalType": "uint256",
          "name": "",
          "type": "uint256"
        }
      ],
      "name": "blockedUsers",
      "outputs": [
        {
          "internalType": "address",
          "name": "",
          "type": "address"
        }
      ],
      "stateMutability": "view",
      "type": "function"
    },
    {
      "inputs": [
        {
          "internalType": "address",
          "name": "user",
          "type": "address"
        }
      ],
      "name": "checkSender",
      "outputs": [
        {
          "internalType": "bool",
          "name": "",
          "type": "bool"
        }
      ],
      "stateMutability": "view",
      "type": "function"
    },
    {
      "inputs": [],
      "name": "dedicatedMsgSender",
      "outputs": [
        {
          "internalType": "address",
          "name": "",
          "type": "address"
        }
      ],
      "stateMutability": "view",
      "type": "function"
    },
    {
      "inputs": [],
      "name": "deposit",
      "outputs": [],
      "stateMutability": "payable",
      "type": "function"
    },
    {
      "inputs": [],
      "name": "fundsOwner",
      "outputs": [
        {
          "internalType": "address",
          "name": "",
          "type": "address"
        }
      ],
      "stateMutability": "view",
      "type": "function"
    },
    {
      "inputs": [],
      "name": "gelato1Balance",
      "outputs": [
        {
          "internalType": "contract IGelato1Balance",
          "name": "",
          "type": "address"
        }
      ],
      "stateMutability": "view",
      "type": "function"
    },
    {
      "inputs": [
        {
          "internalType": "address",
          "name": "web3fAddress",
          "type": "address"
        },
        {
          "internalType": "uint256",
          "name": "gameID",
          "type": "uint256"
        }
      ],
      "name": "getWeb3FunctionArgsHex",
      "outputs": [],
      "stateMutability": "pure",
      "type": "function"
    },
    {
      "inputs": [
        {
          "internalType": "uint256",
          "name": "gameID",
          "type": "uint256"
        },
        {
          "internalType": "uint256",
          "name": "teamID",
          "type": "uint256"
        },
        {
          "internalType": "uint256",
          "name": "homeTeamID",
          "type": "uint256"
        },
        {
          "internalType": "uint256",
          "name": "awayTeamID",
          "type": "uint256"
        },
        {
          "internalType": "uint256",
          "name": "startTime",
          "type": "uint256"
        },
        {
          "internalType": "bytes",
          "name": "web3FunctionArgsHex",
          "type": "bytes"
        }
      ],
      "name": "moneyLineBet",
      "outputs": [],
      "stateMutability": "payable",
      "type": "function"
    },
    {
      "inputs": [
        {
          "internalType": "uint256",
          "name": "",
          "type": "uint256"
        }
      ],
      "name": "newMoneyLineBet",
      "outputs": [
        {
          "internalType": "uint256",
          "name": "total",
          "type": "uint256"
        },
        {
          "internalType": "uint256",
          "name": "homeTeamID",
          "type": "uint256"
        },
        {
          "internalType": "uint256",
          "name": "awayTeamID",
          "type": "uint256"
        },
        {
          "internalType": "bytes32",
          "name": "taskID",
          "type": "bytes32"
        }
      ],
      "stateMutability": "view",
      "type": "function"
    },
    {
      "inputs": [
        {
          "internalType": "uint256",
          "name": "",
          "type": "uint256"
        }
      ],
      "name": "newPointSpreadBet",
      "outputs": [
        {
          "internalType": "uint256",
          "name": "total",
          "type": "uint256"
        },
        {
          "internalType": "uint256",
          "name": "homeTeamID",
          "type": "uint256"
        },
        {
          "internalType": "uint256",
          "name": "awayTeamID",
          "type": "uint256"
        },
        {
          "internalType": "bytes32",
          "name": "taskID",
          "type": "bytes32"
        }
      ],
      "stateMutability": "view",
      "type": "function"
    },
    {
      "inputs": [
        {
          "internalType": "uint256",
          "name": "",
          "type": "uint256"
        }
      ],
      "name": "newPointTotalBet",
      "outputs": [
        {
          "internalType": "uint256",
          "name": "total",
          "type": "uint256"
        },
        {
          "internalType": "uint256",
          "name": "homeTeamID",
          "type": "uint256"
        },
        {
          "internalType": "uint256",
          "name": "awayTeamID",
          "type": "uint256"
        },
        {
          "internalType": "bytes32",
          "name": "taskID",
          "type": "bytes32"
        }
      ],
      "stateMutability": "view",
      "type": "function"
    },
    {
      "inputs": [
        {
          "internalType": "uint256",
          "name": "gameID",
          "type": "uint256"
        },
        {
          "internalType": "uint256",
          "name": "teamID",
          "type": "uint256"
        },
        {
          "internalType": "uint256",
          "name": "homeTeamID",
          "type": "uint256"
        },
        {
          "internalType": "uint256",
          "name": "awayTeamID",
          "type": "uint256"
        },
        {
          "internalType": "int256",
          "name": "spread",
          "type": "int256"
        },
        {
          "internalType": "uint256",
          "name": "startTime",
          "type": "uint256"
        },
        {
          "internalType": "bytes",
          "name": "web3FunctionArgsHex",
          "type": "bytes"
        }
      ],
      "name": "pointSpreadBet",
      "outputs": [],
      "stateMutability": "payable",
      "type": "function"
    },
    {
      "inputs": [
        {
          "internalType": "uint256",
          "name": "gameID",
          "type": "uint256"
        },
        {
          "internalType": "uint256",
          "name": "overUnder",
          "type": "uint256"
        },
        {
          "internalType": "uint256",
          "name": "homeTeamID",
          "type": "uint256"
        },
        {
          "internalType": "uint256",
          "name": "awayTeamID",
          "type": "uint256"
        },
        {
          "internalType": "uint256",
          "name": "pointAmount",
          "type": "uint256"
        },
        {
          "internalType": "uint256",
          "name": "startTime",
          "type": "uint256"
        },
        {
          "internalType": "bytes",
          "name": "web3FunctionArgsHex",
          "type": "bytes"
        }
      ],
      "name": "pointTotalBet",
      "outputs": [],
      "stateMutability": "payable",
      "type": "function"
    },
    {
      "inputs": [],
      "name": "returnEscrow",
      "outputs": [
        {
          "internalType": "uint256",
          "name": "data",
          "type": "uint256"
        }
      ],
      "stateMutability": "view",
      "type": "function"
    },
    {
      "inputs": [
        {
          "internalType": "uint256",
          "name": "gameID",
          "type": "uint256"
        },
        {
          "internalType": "uint256",
          "name": "teamID",
          "type": "uint256"
        }
      ],
      "name": "returnMoneyLineBetReceipt",
      "outputs": [
        {
          "components": [
            {
              "internalType": "address",
              "name": "addr",
              "type": "address"
            },
            {
              "internalType": "uint256",
              "name": "amount",
              "type": "uint256"
            },
            {
              "internalType": "uint256",
              "name": "teamID",
              "type": "uint256"
            },
            {
              "internalType": "uint256",
              "name": "gameID",
              "type": "uint256"
            },
            {
              "internalType": "string",
              "name": "betType",
              "type": "string"
            },
            {
              "internalType": "uint256",
              "name": "time",
              "type": "uint256"
            },
            {
              "internalType": "bool",
              "name": "active",
              "type": "bool"
            }
          ],
          "internalType": "struct Bet.Transaction",
          "name": "data",
          "type": "tuple"
        }
      ],
      "stateMutability": "view",
      "type": "function"
    },
    {
      "inputs": [
        {
          "internalType": "uint256",
          "name": "gameID",
          "type": "uint256"
        },
        {
          "internalType": "uint256",
          "name": "teamID",
          "type": "uint256"
        }
      ],
      "name": "returnMoneyLineBetTotal",
      "outputs": [
        {
          "internalType": "uint256",
          "name": "data",
          "type": "uint256"
        }
      ],
      "stateMutability": "view",
      "type": "function"
    },
    {
      "inputs": [
        {
          "internalType": "uint256",
          "name": "gameID",
          "type": "uint256"
        },
        {
          "internalType": "uint256",
          "name": "bettingTeamID",
          "type": "uint256"
        }
      ],
      "name": "returnOdds",
      "outputs": [
        {
          "internalType": "uint256",
          "name": "odds",
          "type": "uint256"
        }
      ],
      "stateMutability": "view",
      "type": "function"
    },
    {
      "inputs": [
        {
          "internalType": "uint256",
          "name": "gameID",
          "type": "uint256"
        }
      ],
      "name": "returnPointSpreadBetReceipt",
      "outputs": [
        {
          "components": [
            {
              "internalType": "address",
              "name": "addr",
              "type": "address"
            },
            {
              "internalType": "uint256",
              "name": "amount",
              "type": "uint256"
            },
            {
              "internalType": "uint256",
              "name": "teamID",
              "type": "uint256"
            },
            {
              "internalType": "uint256",
              "name": "gameID",
              "type": "uint256"
            },
            {
              "internalType": "string",
              "name": "betType",
              "type": "string"
            },
            {
              "internalType": "uint256",
              "name": "time",
              "type": "uint256"
            },
            {
              "internalType": "bool",
              "name": "active",
              "type": "bool"
            }
          ],
          "internalType": "struct Bet.Transaction",
          "name": "data",
          "type": "tuple"
        }
      ],
      "stateMutability": "view",
      "type": "function"
    },
    {
      "inputs": [
        {
          "internalType": "uint256",
          "name": "gameID",
          "type": "uint256"
        },
        {
          "internalType": "uint256",
          "name": "teamID",
          "type": "uint256"
        }
      ],
      "name": "returnPointSpreadBetTotal",
      "outputs": [
        {
          "internalType": "uint256",
          "name": "data",
          "type": "uint256"
        }
      ],
      "stateMutability": "view",
      "type": "function"
    },
    {
      "inputs": [
        {
          "internalType": "uint256",
          "name": "gameID",
          "type": "uint256"
        }
      ],
      "name": "returnPointTotalBetReceipt",
      "outputs": [
        {
          "components": [
            {
              "internalType": "address",
              "name": "addr",
              "type": "address"
            },
            {
              "internalType": "uint256",
              "name": "amount",
              "type": "uint256"
            },
            {
              "internalType": "uint256",
              "name": "teamID",
              "type": "uint256"
            },
            {
              "internalType": "uint256",
              "name": "gameID",
              "type": "uint256"
            },
            {
              "internalType": "string",
              "name": "betType",
              "type": "string"
            },
            {
              "internalType": "uint256",
              "name": "time",
              "type": "uint256"
            },
            {
              "internalType": "bool",
              "name": "active",
              "type": "bool"
            }
          ],
          "internalType": "struct Bet.Transaction",
          "name": "data",
          "type": "tuple"
        }
      ],
      "stateMutability": "view",
      "type": "function"
    },
    {
      "inputs": [
        {
          "internalType": "uint256",
          "name": "gameID",
          "type": "uint256"
        }
      ],
      "name": "returnPointTotalBetTotal",
      "outputs": [
        {
          "internalType": "uint256",
          "name": "data",
          "type": "uint256"
        }
      ],
      "stateMutability": "view",
      "type": "function"
    },
    {
      "inputs": [],
      "name": "returnReceipts",
      "outputs": [
        {
          "components": [
            {
              "internalType": "address",
              "name": "addr",
              "type": "address"
            },
            {
              "internalType": "uint256",
              "name": "amount",
              "type": "uint256"
            },
            {
              "internalType": "uint256",
              "name": "teamID",
              "type": "uint256"
            },
            {
              "internalType": "uint256",
              "name": "gameID",
              "type": "uint256"
            },
            {
              "internalType": "string",
              "name": "betType",
              "type": "string"
            },
            {
              "internalType": "uint256",
              "name": "time",
              "type": "uint256"
            },
            {
              "internalType": "bool",
              "name": "active",
              "type": "bool"
            }
          ],
          "internalType": "struct Bet.Transaction[]",
          "name": "data",
          "type": "tuple[]"
        }
      ],
      "stateMutability": "view",
      "type": "function"
    },
    {
      "inputs": [
        {
          "internalType": "uint256",
          "name": "gameID",
          "type": "uint256"
        },
        {
          "internalType": "uint256",
          "name": "winnerID",
          "type": "uint256"
        },
        {
          "internalType": "uint256",
          "name": "loserID",
          "type": "uint256"
        }
      ],
      "name": "rewardMoneyLineWinners",
      "outputs": [],
      "stateMutability": "nonpayable",
      "type": "function"
    },
    {
      "inputs": [
        {
          "internalType": "uint256",
          "name": "gameID",
          "type": "uint256"
        },
        {
          "internalType": "int256",
          "name": "homeScore",
          "type": "int256"
        },
        {
          "internalType": "int256",
          "name": "awayScore",
          "type": "int256"
        },
        {
          "internalType": "uint256",
          "name": "homeTeamID",
          "type": "uint256"
        },
        {
          "internalType": "uint256",
          "name": "awayTeamID",
          "type": "uint256"
        }
      ],
      "name": "rewardPointSpreadWinners",
      "outputs": [],
      "stateMutability": "nonpayable",
      "type": "function"
    },
    {
      "inputs": [
        {
          "internalType": "uint256",
          "name": "gameID",
          "type": "uint256"
        },
        {
          "internalType": "uint256",
          "name": "total",
          "type": "uint256"
        }
      ],
      "name": "rewardPointTotalWinners",
      "outputs": [],
      "stateMutability": "nonpayable",
      "type": "function"
    },
    {
      "inputs": [
        {
          "internalType": "uint256",
          "name": "",
          "type": "uint256"
        }
      ],
      "name": "totalBetOnGame",
      "outputs": [
        {
          "internalType": "uint256",
          "name": "",
          "type": "uint256"
        }
      ],
      "stateMutability": "view",
      "type": "function"
    },
    {
      "inputs": [
        {
          "internalType": "uint256",
          "name": "",
          "type": "uint256"
        },
        {
          "internalType": "uint256",
          "name": "",
          "type": "uint256"
        }
      ],
      "name": "totalBetOnTeam",
      "outputs": [
        {
          "internalType": "uint256",
          "name": "",
          "type": "uint256"
        }
      ],
      "stateMutability": "view",
      "type": "function"
    },
    {
      "inputs": [
        {
          "internalType": "address",
          "name": "",
          "type": "address"
        }
      ],
      "name": "userReceipts",
      "outputs": [
        {
          "internalType": "uint256",
          "name": "escrow",
          "type": "uint256"
        }
      ],
      "stateMutability": "view",
      "type": "function"
    }
  ],
  "bytecode": "0x61010060405234801562000011575f80fd5b5060405162006b6038038062006b60833981810160405281019062000037919062000508565b732a6c106ae13b558bb9e2ec64bd2f1f7beff3a5e03081308173ffffffffffffffffffffffffffffffffffffffff1660808173ffffffffffffffffffffffffffffffffffffffff16815250508173ffffffffffffffffffffffffffffffffffffffff1663573ea5756040518163ffffffff1660e01b8152600401602060405180830381865afa158015620000cd573d5f803e3d5ffd5b505050506040513d601f19601f82011682018060405250810190620000f391906200061f565b73ffffffffffffffffffffffffffffffffffffffff1660c08173ffffffffffffffffffffffffffffffffffffffff16815250505f8273ffffffffffffffffffffffffffffffffffffffff1663cd3d4fb960026040518263ffffffff1660e01b8152600401620001639190620006cb565b602060405180830381865afa1580156200017f573d5f803e3d5ffd5b505050506040513d601f19601f82011682018060405250810190620001a5919062000728565b90505f8173ffffffffffffffffffffffffffffffffffffffff1663ba1d0ff46040518163ffffffff1660e01b8152600401602060405180830381865afa158015620001f2573d5f803e3d5ffd5b505050506040513d601f19601f8201168201806040525081019062000218919062000728565b90508073ffffffffffffffffffffffffffffffffffffffff1663ded89a7c846040518263ffffffff1660e01b815260040162000255919062000769565b6040805180830381865afa15801562000270573d5f803e3d5ffd5b505050506040513d601f19601f82011682018060405250810190620002969190620007be565b508073ffffffffffffffffffffffffffffffffffffffff1660a09073ffffffffffffffffffffffffffffffffffffffff1681525050505050508073ffffffffffffffffffffffffffffffffffffffff1660e08173ffffffffffffffffffffffffffffffffffffffff16815250505050335f806101000a81548173ffffffffffffffffffffffffffffffffffffffff021916908373ffffffffffffffffffffffffffffffffffffffff160217905550826001908162000355919062000a3a565b50816003908162000367919062000a3a565b50806002908162000379919062000a3a565b5050505062000b1e565b5f604051905090565b5f80fd5b5f80fd5b5f80fd5b5f80fd5b5f601f19601f8301169050919050565b7f4e487b71000000000000000000000000000000000000000000000000000000005f52604160045260245ffd5b620003e4826200039c565b810181811067ffffffffffffffff82111715620004065762000405620003ac565b5b80604052505050565b5f6200041a62000383565b9050620004288282620003d9565b919050565b5f67ffffffffffffffff8211156200044a5762000449620003ac565b5b62000455826200039c565b9050602081019050919050565b5f5b838110156200048157808201518184015260208101905062000464565b5f8484015250505050565b5f620004a26200049c846200042d565b6200040f565b905082815260208101848484011115620004c157620004c062000398565b5b620004ce84828562000462565b509392505050565b5f82601f830112620004ed57620004ec62000394565b5b8151620004ff8482602086016200048c565b91505092915050565b5f805f606084860312156200052257620005216200038c565b5b5f84015167ffffffffffffffff81111562000542576200054162000390565b5b6200055086828701620004d6565b935050602084015167ffffffffffffffff81111562000574576200057362000390565b5b6200058286828701620004d6565b925050604084015167ffffffffffffffff811115620005a657620005a562000390565b5b620005b486828701620004d6565b9150509250925092565b5f73ffffffffffffffffffffffffffffffffffffffff82169050919050565b5f620005e982620005be565b9050919050565b620005fb81620005dd565b811462000606575f80fd5b50565b5f815190506200061981620005f0565b92915050565b5f602082840312156200063757620006366200038c565b5b5f620006468482850162000609565b91505092915050565b7f4e487b71000000000000000000000000000000000000000000000000000000005f52602160045260245ffd5b6005811062000690576200068f6200064f565b5b50565b5f819050620006a2826200067c565b919050565b5f620006b38262000693565b9050919050565b620006c581620006a7565b82525050565b5f602082019050620006e05f830184620006ba565b92915050565b5f620006f282620005be565b9050919050565b6200070481620006e6565b81146200070f575f80fd5b50565b5f815190506200072281620006f9565b92915050565b5f6020828403121562000740576200073f6200038c565b5b5f6200074f8482850162000712565b91505092915050565b6200076381620006e6565b82525050565b5f6020820190506200077e5f83018462000758565b92915050565b5f8115159050919050565b6200079a8162000784565b8114620007a5575f80fd5b50565b5f81519050620007b8816200078f565b92915050565b5f8060408385031215620007d757620007d66200038c565b5b5f620007e68582860162000712565b9250506020620007f985828601620007a8565b9150509250929050565b5f81519050919050565b7f4e487b71000000000000000000000000000000000000000000000000000000005f52602260045260245ffd5b5f60028204905060018216806200085257607f821691505b6020821081036200086857620008676200080d565b5b50919050565b5f819050815f5260205f209050919050565b5f6020601f8301049050919050565b5f82821b905092915050565b5f60088302620008cc7fffffffffffffffffffffffffffffffffffffffffffffffffffffffffffffffff826200088f565b620008d886836200088f565b95508019841693508086168417925050509392505050565b5f819050919050565b5f819050919050565b5f620009226200091c6200091684620008f0565b620008f9565b620008f0565b9050919050565b5f819050919050565b6200093d8362000902565b620009556200094c8262000929565b8484546200089b565b825550505050565b5f90565b6200096b6200095d565b6200097881848462000932565b505050565b5b818110156200099f57620009935f8262000961565b6001810190506200097e565b5050565b601f821115620009ee57620009b8816200086e565b620009c38462000880565b81016020851015620009d3578190505b620009eb620009e28562000880565b8301826200097d565b50505b505050565b5f82821c905092915050565b5f62000a105f1984600802620009f3565b1980831691505092915050565b5f62000a2a8383620009ff565b9150826002028217905092915050565b62000a458262000803565b67ffffffffffffffff81111562000a615762000a60620003ac565b5b62000a6d82546200083a565b62000a7a828285620009a3565b5f60209050601f83116001811462000ab0575f841562000a9b578287015190505b62000aa7858262000a1d565b86555062000b16565b601f19841662000ac0866200086e565b5f5b8281101562000ae95784890151825560018201915060208501945060208101905062000ac2565b8683101562000b09578489015162000b05601f891682620009ff565b8355505b6001600288020188555050505b505050505050565b60805160a05160c05160e051615ff562000b6b5f395f611cec01525f50505f81816107bc01528181611194015281816130dc0152613c2301525f818161108601526145620152615ff55ff3fe6080604052600436106101cc575f3560e01c80636505a05d116100f6578063a910e4a511610094578063d0e30db011610063578063d0e30db0146106c1578063ec5a24d7146106cb578063f227ce4d14610707578063f782a75414610743576101cc565b8063a910e4a5146105f6578063a91faba214610632578063ce914f7314610671578063cf3690a814610699576101cc565b80638edd3971116100d05780638edd3971146105175780638ee95f9f14610556578063914989fd1461057e578063a4786f3d146105ba576101cc565b80636505a05d146104b5578063686ff780146104d15780637ea4178a146104ed576101cc565b80632b3a4ef61161016e57806346ee3c591161013d57806346ee3c59146103e957806347f53fc914610413578063481042e21461044f57806357fb1d671461048b576101cc565b80632b3a4ef61461033f5780633946f6661461037b5780633da01325146103a55780633e43a6f6146103cd576101cc565b806308bc451e116101aa57806308bc451e1461025e57806323821c211461029a5780632429827f146102d657806328f150eb14610315576101cc565b806302cba3c3146101d057806303bfeb201461020c578063049aacfe14610234575b5f80fd5b3480156101db575f80fd5b506101f660048036038101906101f1919061496c565b61077f565b60405161020391906149d6565b60405180910390f35b348015610217575f80fd5b50610232600480360381019061022d91906149ef565b6107ba565b005b34801561023f575f80fd5b50610248611084565b6040516102559190614a9a565b60405180910390f35b348015610269575f80fd5b50610284600480360381019061027f9190614add565b6110a8565b6040516102919190614b22565b60405180910390f35b3480156102a5575f80fd5b506102c060048036038101906102bb919061496c565b611150565b6040516102cd9190614b4a565b60405180910390f35b3480156102e1575f80fd5b506102fc60048036038101906102f7919061496c565b611165565b60405161030c9493929190614b7b565b60405180910390f35b348015610320575f80fd5b50610329611192565b60405161033691906149d6565b60405180910390f35b34801561034a575f80fd5b5061036560048036038101906103609190614bbe565b6111b6565b6040516103729190614b4a565b60405180910390f35b348015610386575f80fd5b5061038f6111d6565b60405161039c9190614e07565b60405180910390f35b3480156103b0575f80fd5b506103cb60048036038101906103c69190614add565b611396565b005b6103e760048036038101906103e29190614e88565b61144f565b005b3480156103f4575f80fd5b506103fd611cea565b60405161040a91906149d6565b60405180910390f35b34801561041e575f80fd5b5061043960048036038101906104349190614bbe565b611d0e565b6040516104469190614b4a565b60405180910390f35b34801561045a575f80fd5b506104756004803603810190610470919061496c565b611d3b565b6040516104829190614fcb565b60405180910390f35b348015610496575f80fd5b5061049f611eca565b6040516104ac919061500b565b60405180910390f35b6104cf60048036038101906104ca9190615024565b611ee2565b005b6104eb60048036038101906104e69190615114565b6127b2565b005b3480156104f8575f80fd5b50610501613068565b60405161050e9190614b4a565b60405180910390f35b348015610522575f80fd5b5061053d6004803603810190610538919061496c565b6130ae565b60405161054d9493929190614b7b565b60405180910390f35b348015610561575f80fd5b5061057c60048036038101906105779190614bbe565b6130da565b005b348015610589575f80fd5b506105a4600480360381019061059f919061496c565b6138ac565b6040516105b19190614fcb565b60405180910390f35b3480156105c5575f80fd5b506105e060048036038101906105db9190614add565b613a3b565b6040516105ed9190614b4a565b60405180910390f35b348015610601575f80fd5b5061061c60048036038101906106179190614bbe565b613a55565b6040516106299190614fcb565b60405180910390f35b34801561063d575f80fd5b506106586004803603810190610653919061496c565b613bf4565b6040516106689493929190614b7b565b60405180910390f35b34801561067c575f80fd5b50610697600480360381019061069291906151d1565b613c21565b005b3480156106a4575f80fd5b506106bf60048036038101906106ba9190615248565b614425565b005b6106c9614434565b005b3480156106d6575f80fd5b506106f160048036038101906106ec9190614bbe565b614474565b6040516106fe9190614b4a565b60405180910390f35b348015610712575f80fd5b5061072d60048036038101906107289190614bbe565b6144a1565b60405161073a9190614b4a565b60405180910390f35b34801561074e575f80fd5b506107696004803603810190610764919061496c565b6144fd565b6040516107769190614b4a565b60405180910390f35b6004818154811061078e575f80fd5b905f5260205f20015f915054906101000a900473ffffffffffffffffffffffffffffffffffffffff1681565b7f000000000000000000000000000000000000000000000000000000000000000073ffffffffffffffffffffffffffffffffffffffff163373ffffffffffffffffffffffffffffffffffffffff1614610848576040517f08c379a000000000000000000000000000000000000000000000000000000000815260040161083f906152e0565b60405180910390fd5b5f5b60085f8581526020019081526020015f206004015f8481526020019081526020015f2080549050811015610cb4575f60085f8681526020019081526020015f206004015f8581526020019081526020015f2082815481106108ae576108ad6152fe565b5b905f5260205f20015f9054906101000a900473ffffffffffffffffffffffffffffffffffffffff1690505f60085f8781526020019081526020015f206005015f8681526020019081526020015f205f8373ffffffffffffffffffffffffffffffffffffffff1673ffffffffffffffffffffffffffffffffffffffff1681526020019081526020015f206001015490505f60085f8881526020019081526020015f206001015f8781526020019081526020015f20548261096d9190615385565b9050610978836110a8565b6109df578273ffffffffffffffffffffffffffffffffffffffff166108fc8260085f8b81526020019081526020015f205f01546109b591906153b5565b90811502906040515f60405180830381858888f193505050501580156109dd573d5f803e3d5ffd5b505b8160055f8573ffffffffffffffffffffffffffffffffffffffff1673ffffffffffffffffffffffffffffffffffffffff1681526020019081526020015f205f015f828254610a2d91906153f6565b925050819055505f5b60055f8573ffffffffffffffffffffffffffffffffffffffff1673ffffffffffffffffffffffffffffffffffffffff1681526020019081526020015f2060010180549050811015610c9d575f60055f8673ffffffffffffffffffffffffffffffffffffffff1673ffffffffffffffffffffffffffffffffffffffff1681526020019081526020015f206001018281548110610ad457610ad36152fe565b5b905f5260205f2090600702016040518060e00160405290815f82015f9054906101000a900473ffffffffffffffffffffffffffffffffffffffff1673ffffffffffffffffffffffffffffffffffffffff1673ffffffffffffffffffffffffffffffffffffffff168152602001600182015481526020016002820154815260200160038201548152602001600482018054610b6d90615456565b80601f0160208091040260200160405190810160405280929190818152602001828054610b9990615456565b8015610be45780601f10610bbb57610100808354040283529160200191610be4565b820191905f5260205f20905b815481529060010190602001808311610bc757829003601f168201915b5050505050815260200160058201548152602001600682015f9054906101000a900460ff1615151515815250509050888160600151148015610c735750604051602001610c30906154da565b604051602081830303815290604052805190602001208160800151604051602001610c5b919061551e565b60405160208183030381529060405280519060200120145b15610c89575f8160c00190151590811515815250505b508080610c9590615534565b915050610a36565b505050508080610cac90615534565b91505061084a565b505f5b60085f8581526020019081526020015f206004015f8381526020019081526020015f208054905081101561107e575f60085f8681526020019081526020015f206004015f8481526020019081526020015f208281548110610d1b57610d1a6152fe565b5b905f5260205f20015f9054906101000a900473ffffffffffffffffffffffffffffffffffffffff1690505f60085f8781526020019081526020015f206005015f8581526020019081526020015f205f8373ffffffffffffffffffffffffffffffffffffffff1673ffffffffffffffffffffffffffffffffffffffff1681526020019081526020015f206001015490508060055f8473ffffffffffffffffffffffffffffffffffffffff1673ffffffffffffffffffffffffffffffffffffffff1681526020019081526020015f205f015f828254610df891906153f6565b925050819055505f5b60055f8473ffffffffffffffffffffffffffffffffffffffff1673ffffffffffffffffffffffffffffffffffffffff1681526020019081526020015f2060010180549050811015611068575f60055f8573ffffffffffffffffffffffffffffffffffffffff1673ffffffffffffffffffffffffffffffffffffffff1681526020019081526020015f206001018281548110610e9f57610e9e6152fe565b5b905f5260205f2090600702016040518060e00160405290815f82015f9054906101000a900473ffffffffffffffffffffffffffffffffffffffff1673ffffffffffffffffffffffffffffffffffffffff1673ffffffffffffffffffffffffffffffffffffffff168152602001600182015481526020016002820154815260200160038201548152602001600482018054610f3890615456565b80601f0160208091040260200160405190810160405280929190818152602001828054610f6490615456565b8015610faf5780601f10610f8657610100808354040283529160200191610faf565b820191905f5260205f20905b815481529060010190602001808311610f9257829003601f168201915b5050505050815260200160058201548152602001600682015f9054906101000a900460ff161515151581525050905087816060015114801561103e5750604051602001610ffb906154da565b604051602081830303815290604052805190602001208160800151604051602001611026919061551e565b60405160208183030381529060405280519060200120145b15611054575f8160c00190151590811515815250505b50808061106090615534565b915050610e01565b505050808061107690615534565b915050610cb7565b50505050565b7f000000000000000000000000000000000000000000000000000000000000000081565b5f805f90505b600480549050811015611146578273ffffffffffffffffffffffffffffffffffffffff16600482815481106110e6576110e56152fe565b5b905f5260205f20015f9054906101000a900473ffffffffffffffffffffffffffffffffffffffff1673ffffffffffffffffffffffffffffffffffffffff160361113357600191505061114b565b808061113e90615534565b9150506110ae565b505f90505b919050565b6006602052805f5260405f205f915090505481565b6009602052805f5260405f205f915090508060010154908060030154908060040154908060070154905084565b7f000000000000000000000000000000000000000000000000000000000000000081565b6007602052815f5260405f20602052805f5260405f205f91509150505481565b606060055f3373ffffffffffffffffffffffffffffffffffffffff1673ffffffffffffffffffffffffffffffffffffffff1681526020019081526020015f20600101805480602002602001604051908101604052809291908181526020015f905b8282101561138d578382905f5260205f2090600702016040518060e00160405290815f82015f9054906101000a900473ffffffffffffffffffffffffffffffffffffffff1673ffffffffffffffffffffffffffffffffffffffff1673ffffffffffffffffffffffffffffffffffffffff1681526020016001820154815260200160028201548152602001600382015481526020016004820180546112da90615456565b80601f016020809104026020016040519081016040528092919081815260200182805461130690615456565b80156113515780601f1061132857610100808354040283529160200191611351565b820191905f5260205f20905b81548152906001019060200180831161133457829003601f168201915b5050505050815260200160058201548152602001600682015f9054906101000a900460ff16151515158152505081526020019060010190611237565b50505050905090565b5f8054906101000a900473ffffffffffffffffffffffffffffffffffffffff1673ffffffffffffffffffffffffffffffffffffffff163373ffffffffffffffffffffffffffffffffffffffff16146113ec575f80fd5b600481908060018154018082558091505060019003905f5260205f20015f9091909190916101000a81548173ffffffffffffffffffffffffffffffffffffffff021916908373ffffffffffffffffffffffffffffffffffffffff16021790555050565b3273ffffffffffffffffffffffffffffffffffffffff163373ffffffffffffffffffffffffffffffffffffffff1614611486575f80fd5b825f10611491575f80fd5b61149a336110a8565b156114a3575f80fd5b5f34116114ae575f80fd5b5f60085f8981526020019081526020015f2090505f80191660085f8a81526020019081526020015f206006015403611740575f6040518060400160405280600267ffffffffffffffff8111156115075761150661557b565b5b6040519080825280602002602001820160405280156115355781602001602082028036833780820191505090505b508152602001600267ffffffffffffffff8111156115565761155561557b565b5b60405190808252806020026020018201604052801561158957816020015b60608152602001906001900390816115745790505b5081525090506002815f01515f815181106115a7576115a66152fe565b5b602002602001019060048111156115c1576115c06155a8565b5b908160048111156115d5576115d46155a8565b5b815250506004815f01516001815181106115f2576115f16152fe565b5b6020026020010190600481111561160c5761160b6155a8565b5b908160048111156116205761161f6155a8565b5b8152505061162c61451a565b81602001515f81518110611643576116426152fe565b5b60200260200101819052506116e16001805461165e90615456565b80601f016020809104026020016040519081016040528092919081815260200182805461168a90615456565b80156116d55780601f106116ac576101008083540402835291602001916116d5565b820191905f5260205f20905b8154815290600101906020018083116116b857829003601f168201915b50505050508585614530565b81602001516001815181106116f9576116f86152fe565b5b6020026020010181905250611736306303bfeb2060e01b604051602001611720919061560f565b604051602081830303815290604052835f61455f565b8260060181905550505b5f606460053461175091906153b5565b61175a9190615385565b90505f60055f3373ffffffffffffffffffffffffffffffffffffffff1673ffffffffffffffffffffffffffffffffffffffff1681526020019081526020015f2060010190505f836005015f8b81526020019081526020015f205f3373ffffffffffffffffffffffffffffffffffffffff1673ffffffffffffffffffffffffffffffffffffffff1681526020019081526020015f2090505f846004015f8c81526020019081526020015f2090505f8054906101000a900473ffffffffffffffffffffffffffffffffffffffff1673ffffffffffffffffffffffffffffffffffffffff166108fc8590811502906040515f60405180830381858888f19350505050158015611868573d5f803e3d5ffd5b50833461187591906153f6565b60055f3373ffffffffffffffffffffffffffffffffffffffff1673ffffffffffffffffffffffffffffffffffffffff1681526020019081526020015f205f015f8282546118c29190615628565b92505081905550826040518060e001604052803373ffffffffffffffffffffffffffffffffffffffff16815260200186346118fd91906153f6565b81526020018d81526020018e81526020016040518060400160405280600a81526020017f4d6f6e6579204c696e6500000000000000000000000000000000000000000000815250815260200142815260200160011515815250908060018154018082558091505060019003905f5260205f2090600702015f909190919091505f820151815f015f6101000a81548173ffffffffffffffffffffffffffffffffffffffff021916908373ffffffffffffffffffffffffffffffffffffffff16021790555060208201518160010155604082015181600201556060820151816003015560808201518160040190816119f391906157ef565b5060a0820151816005015560c0820151816006015f6101000a81548160ff02191690831515021790555050503460065f8e81526020019081526020015f205f828254611a3f9190615628565b925050819055503460075f8e81526020019081526020015f205f8d81526020019081526020015f205f828254611a759190615628565b925050819055508334611a8891906153f6565b855f015f828254611a999190615628565b925050819055508334611aac91906153f6565b856001015f8d81526020019081526020015f205f828254611acd9190615628565b925050819055508985600201819055508885600301819055503373ffffffffffffffffffffffffffffffffffffffff1660085f8e81526020019081526020015f206005015f8d81526020019081526020015f205f3373ffffffffffffffffffffffffffffffffffffffff1673ffffffffffffffffffffffffffffffffffffffff1681526020019081526020015f205f015f9054906101000a900473ffffffffffffffffffffffffffffffffffffffff1673ffffffffffffffffffffffffffffffffffffffff1614611bf8578033908060018154018082558091505060019003905f5260205f20015f9091909190916101000a81548173ffffffffffffffffffffffffffffffffffffffff021916908373ffffffffffffffffffffffffffffffffffffffff1602179055505b33825f015f6101000a81548173ffffffffffffffffffffffffffffffffffffffff021916908373ffffffffffffffffffffffffffffffffffffffff1602179055508334611c4591906153f6565b826001015f828254611c579190615628565b925050819055508a82600201819055508b82600301819055506040518060400160405280600a81526020017f4d6f6e6579204c696e6500000000000000000000000000000000000000000000815250826004019081611cb691906157ef565b504282600501819055506001826006015f6101000a81548160ff021916908315150217905550505050505050505050505050565b7f000000000000000000000000000000000000000000000000000000000000000081565b5f60085f8481526020019081526020015f206001015f8381526020019081526020015f2054905092915050565b611d436148e2565b60095f8381526020019081526020015f206006015f3373ffffffffffffffffffffffffffffffffffffffff1673ffffffffffffffffffffffffffffffffffffffff1681526020019081526020015f206040518060e00160405290815f82015f9054906101000a900473ffffffffffffffffffffffffffffffffffffffff1673ffffffffffffffffffffffffffffffffffffffff1673ffffffffffffffffffffffffffffffffffffffff168152602001600182015481526020016002820154815260200160038201548152602001600482018054611e1f90615456565b80601f0160208091040260200160405190810160405280929190818152602001828054611e4b90615456565b8015611e965780601f10611e6d57610100808354040283529160200191611e96565b820191905f5260205f20905b815481529060010190602001808311611e7957829003601f168201915b5050505050815260200160058201548152602001600682015f9054906101000a900460ff1615151515815250509050919050565b737506c12a824d73d9b08564d5afc22c949434755e81565b3273ffffffffffffffffffffffffffffffffffffffff163373ffffffffffffffffffffffffffffffffffffffff1614611f19575f80fd5b825f10611f24575f80fd5b611f2d336110a8565b15611f36575f80fd5b3373ffffffffffffffffffffffffffffffffffffffff16600a5f8a81526020019081526020015f206005015f3373ffffffffffffffffffffffffffffffffffffffff1673ffffffffffffffffffffffffffffffffffffffff1681526020019081526020015f205f015f9054906101000a900473ffffffffffffffffffffffffffffffffffffffff1673ffffffffffffffffffffffffffffffffffffffff1603611fdd575f80fd5b5f3411611fe8575f80fd5b5f600a5f8a81526020019081526020015f2090505f801916600a5f8b81526020019081526020015f20600601540361227a575f6040518060400160405280600267ffffffffffffffff8111156120415761204061557b565b5b60405190808252806020026020018201604052801561206f5781602001602082028036833780820191505090505b508152602001600267ffffffffffffffff8111156120905761208f61557b565b5b6040519080825280602002602001820160405280156120c357816020015b60608152602001906001900390816120ae5790505b5081525090506002815f01515f815181106120e1576120e06152fe565b5b602002602001019060048111156120fb576120fa6155a8565b5b9081600481111561210f5761210e6155a8565b5b815250506004815f015160018151811061212c5761212b6152fe565b5b60200260200101906004811115612146576121456155a8565b5b9081600481111561215a576121596155a8565b5b8152505061216661451a565b81602001515f8151811061217d5761217c6152fe565b5b602002602001018190525061221b6003805461219890615456565b80601f01602080910402602001604051908101604052809291908181526020018280546121c490615456565b801561220f5780601f106121e65761010080835404028352916020019161220f565b820191905f5260205f20905b8154815290600101906020018083116121f257829003601f168201915b50505050508585614530565b8160200151600181518110612233576122326152fe565b5b602002602001018190525061227030638ee95f9f60e01b60405160200161225a919061560f565b604051602081830303815290604052835f61455f565b8260060181905550505b5f606460053461228a91906153b5565b6122949190615385565b90505f60055f3373ffffffffffffffffffffffffffffffffffffffff1673ffffffffffffffffffffffffffffffffffffffff1681526020019081526020015f2060010190505f836005015f3373ffffffffffffffffffffffffffffffffffffffff1673ffffffffffffffffffffffffffffffffffffffff1681526020019081526020015f2090505f8460040190505f8054906101000a900473ffffffffffffffffffffffffffffffffffffffff1673ffffffffffffffffffffffffffffffffffffffff166108fc8590811502906040515f60405180830381858888f19350505050158015612384573d5f803e3d5ffd5b50833461239191906153f6565b60055f3373ffffffffffffffffffffffffffffffffffffffff1673ffffffffffffffffffffffffffffffffffffffff1681526020019081526020015f205f015f8282546123de9190615628565b92505081905550826040518060e001604052803373ffffffffffffffffffffffffffffffffffffffff168152602001863461241991906153f6565b81526020018e81526020018f81526020016040518060400160405280600b81526020017f506f696e7420546f74616c000000000000000000000000000000000000000000815250815260200142815260200160011515815250908060018154018082558091505060019003905f5260205f2090600702015f909190919091505f820151815f015f6101000a81548173ffffffffffffffffffffffffffffffffffffffff021916908373ffffffffffffffffffffffffffffffffffffffff160217905550602082015181600101556040820151816002015560608201518160030155608082015181600401908161250f91906157ef565b5060a0820151816005015560c0820151816006015f6101000a81548160ff02191690831515021790555050503460065f8f81526020019081526020015f205f82825461255b9190615628565b9250508190555060023461256f9190615385565b60075f8f81526020019081526020015f205f8d81526020019081526020015f205f82825461259d9190615628565b925050819055506002346125b19190615385565b60075f8f81526020019081526020015f205f8c81526020019081526020015f205f8282546125df9190615628565b9250508190555083346125f291906153f6565b856001015f8282546126049190615628565b925050819055508a856002018190555089856003018190555088855f015f3373ffffffffffffffffffffffffffffffffffffffff1673ffffffffffffffffffffffffffffffffffffffff1681526020019081526020015f20819055508033908060018154018082558091505060019003905f5260205f20015f9091909190916101000a81548173ffffffffffffffffffffffffffffffffffffffff021916908373ffffffffffffffffffffffffffffffffffffffff16021790555033825f015f6101000a81548173ffffffffffffffffffffffffffffffffffffffff021916908373ffffffffffffffffffffffffffffffffffffffff160217905550833461270c91906153f6565b826001015f82825461271e9190615628565b925050819055508b82600201819055508c82600301819055506040518060400160405280600b81526020017f506f696e7420546f74616c00000000000000000000000000000000000000000081525082600401908161277d91906157ef565b504282600501819055506001826006015f6101000a81548160ff02191690831515021790555050505050505050505050505050565b3273ffffffffffffffffffffffffffffffffffffffff163373ffffffffffffffffffffffffffffffffffffffff16146127e9575f80fd5b825f106127f4575f80fd5b6127fd336110a8565b15612806575f80fd5b3373ffffffffffffffffffffffffffffffffffffffff1660095f8a81526020019081526020015f206006015f3373ffffffffffffffffffffffffffffffffffffffff1673ffffffffffffffffffffffffffffffffffffffff1681526020019081526020015f205f015f9054906101000a900473ffffffffffffffffffffffffffffffffffffffff1673ffffffffffffffffffffffffffffffffffffffff16036128ad575f80fd5b5f34116128b8575f80fd5b5f60095f8a81526020019081526020015f2090505f80191660095f8b81526020019081526020015f206007015403612b4a575f6040518060400160405280600267ffffffffffffffff8111156129115761291061557b565b5b60405190808252806020026020018201604052801561293f5781602001602082028036833780820191505090505b508152602001600267ffffffffffffffff8111156129605761295f61557b565b5b60405190808252806020026020018201604052801561299357816020015b606081526020019060019003908161297e5790505b5081525090506002815f01515f815181106129b1576129b06152fe565b5b602002602001019060048111156129cb576129ca6155a8565b5b908160048111156129df576129de6155a8565b5b815250506004815f01516001815181106129fc576129fb6152fe565b5b60200260200101906004811115612a1657612a156155a8565b5b90816004811115612a2a57612a296155a8565b5b81525050612a3661451a565b81602001515f81518110612a4d57612a4c6152fe565b5b6020026020010181905250612aeb60028054612a6890615456565b80601f0160208091040260200160405190810160405280929190818152602001828054612a9490615456565b8015612adf5780601f10612ab657610100808354040283529160200191612adf565b820191905f5260205f20905b815481529060010190602001808311612ac257829003601f168201915b50505050508585614530565b8160200151600181518110612b0357612b026152fe565b5b6020026020010181905250612b403063ce914f7360e01b604051602001612b2a919061560f565b604051602081830303815290604052835f61455f565b8260070181905550505b5f6064600534612b5a91906153b5565b612b649190615385565b90505f60055f3373ffffffffffffffffffffffffffffffffffffffff1673ffffffffffffffffffffffffffffffffffffffff1681526020019081526020015f2060010190505f836006015f3373ffffffffffffffffffffffffffffffffffffffff1673ffffffffffffffffffffffffffffffffffffffff1681526020019081526020015f2090505f8460050190505f8054906101000a900473ffffffffffffffffffffffffffffffffffffffff1673ffffffffffffffffffffffffffffffffffffffff166108fc8590811502906040515f60405180830381858888f19350505050158015612c54573d5f803e3d5ffd5b508334612c6191906153f6565b60055f3373ffffffffffffffffffffffffffffffffffffffff1673ffffffffffffffffffffffffffffffffffffffff1681526020019081526020015f205f015f828254612cae9190615628565b92505081905550826040518060e001604052803373ffffffffffffffffffffffffffffffffffffffff1681526020018634612ce991906153f6565b81526020018e81526020018f81526020016040518060400160405280600c81526020017f506f696e74205370726561640000000000000000000000000000000000000000815250815260200142815260200160011515815250908060018154018082558091505060019003905f5260205f2090600702015f909190919091505f820151815f015f6101000a81548173ffffffffffffffffffffffffffffffffffffffff021916908373ffffffffffffffffffffffffffffffffffffffff1602179055506020820151816001015560408201518160020155606082015181600301556080820151816004019081612ddf91906157ef565b5060a0820151816005015560c0820151816006015f6101000a81548160ff02191690831515021790555050503460065f8f81526020019081526020015f205f828254612e2b9190615628565b925050819055503460075f8f81526020019081526020015f205f8e81526020019081526020015f205f828254612e619190615628565b925050819055508334612e7491906153f6565b856001015f828254612e869190615628565b925050819055508334612e9991906153f6565b856002015f8e81526020019081526020015f205f828254612eba9190615628565b925050819055508a856003018190555089856004018190555088855f015f3373ffffffffffffffffffffffffffffffffffffffff1673ffffffffffffffffffffffffffffffffffffffff1681526020019081526020015f20819055508033908060018154018082558091505060019003905f5260205f20015f9091909190916101000a81548173ffffffffffffffffffffffffffffffffffffffff021916908373ffffffffffffffffffffffffffffffffffffffff16021790555033825f015f6101000a81548173ffffffffffffffffffffffffffffffffffffffff021916908373ffffffffffffffffffffffffffffffffffffffff1602179055508334612fc291906153f6565b826001015f828254612fd49190615628565b925050819055508b82600201819055508c82600301819055506040518060400160405280600c81526020017f506f696e7420537072656164000000000000000000000000000000000000000081525082600401908161303391906157ef565b504282600501819055506001826006015f6101000a81548160ff02191690831515021790555050505050505050505050505050565b5f60055f3373ffffffffffffffffffffffffffffffffffffffff1673ffffffffffffffffffffffffffffffffffffffff1681526020019081526020015f205f0154905090565b6008602052805f5260405f205f91509050805f0154908060020154908060030154908060060154905084565b7f000000000000000000000000000000000000000000000000000000000000000073ffffffffffffffffffffffffffffffffffffffff163373ffffffffffffffffffffffffffffffffffffffff1614613168576040517f08c379a000000000000000000000000000000000000000000000000000000000815260040161315f906152e0565b60405180910390fd5b60605f805f5b600a5f8781526020019081526020015f2060040180549050811015613787575f600a5f8881526020019081526020015f2060040182815481106131b4576131b36152fe565b5b905f5260205f20015f9054906101000a900473ffffffffffffffffffffffffffffffffffffffff1690505f600a5f8981526020019081526020015f206005015f8373ffffffffffffffffffffffffffffffffffffffff1673ffffffffffffffffffffffffffffffffffffffff1681526020019081526020015f206001015490506063600a5f8a81526020019081526020015f206005015f8473ffffffffffffffffffffffffffffffffffffffff1673ffffffffffffffffffffffffffffffffffffffff1681526020019081526020015f20600201541480156132ef5750600a5f8981526020019081526020015f205f015f8373ffffffffffffffffffffffffffffffffffffffff1673ffffffffffffffffffffffffffffffffffffffff1681526020019081526020015f2054600a886132ed91906153b5565b105b801561330157506132ff826110a8565b155b15613375578186858151811061331a576133196152fe565b5b602002602001019073ffffffffffffffffffffffffffffffffffffffff16908173ffffffffffffffffffffffffffffffffffffffff1681525050838061335f90615534565b945050808561336e9190615628565b94506134b3565b6064600a5f8a81526020019081526020015f206005015f8473ffffffffffffffffffffffffffffffffffffffff1673ffffffffffffffffffffffffffffffffffffffff1681526020019081526020015f20600201541480156134305750600a5f8981526020019081526020015f205f015f8373ffffffffffffffffffffffffffffffffffffffff1673ffffffffffffffffffffffffffffffffffffffff1681526020019081526020015f2054600a8861342e91906153b5565b115b80156134425750613440826110a8565b155b156134b2578186858151811061345b5761345a6152fe565b5b602002602001019073ffffffffffffffffffffffffffffffffffffffff16908173ffffffffffffffffffffffffffffffffffffffff168152505083806134a090615534565b94505080856134af9190615628565b94505b5b8060055f8473ffffffffffffffffffffffffffffffffffffffff1673ffffffffffffffffffffffffffffffffffffffff1681526020019081526020015f205f015f82825461350191906153f6565b925050819055505f5b60055f8473ffffffffffffffffffffffffffffffffffffffff1673ffffffffffffffffffffffffffffffffffffffff1681526020019081526020015f2060010180549050811015613771575f60055f8573ffffffffffffffffffffffffffffffffffffffff1673ffffffffffffffffffffffffffffffffffffffff1681526020019081526020015f2060010182815481106135a8576135a76152fe565b5b905f5260205f2090600702016040518060e00160405290815f82015f9054906101000a900473ffffffffffffffffffffffffffffffffffffffff1673ffffffffffffffffffffffffffffffffffffffff1673ffffffffffffffffffffffffffffffffffffffff16815260200160018201548152602001600282015481526020016003820154815260200160048201805461364190615456565b80601f016020809104026020016040519081016040528092919081815260200182805461366d90615456565b80156136b85780601f1061368f576101008083540402835291602001916136b8565b820191905f5260205f20905b81548152906001019060200180831161369b57829003601f168201915b5050505050815260200160058201548152602001600682015f9054906101000a900460ff1615151515815250509050898160600151148015613747575060405160200161370490615908565b60405160208183030381529060405280519060200120816080015160405160200161372f919061551e565b60405160208183030381529060405280519060200120145b1561375d575f8160c00190151590811515815250505b50808061376990615534565b91505061350a565b505050808061377f90615534565b91505061316e565b505f5b83518110156138a4575f600a5f8881526020019081526020015f206005015f8684815181106137bc576137bb6152fe565b5b602002602001015173ffffffffffffffffffffffffffffffffffffffff1673ffffffffffffffffffffffffffffffffffffffff1681526020019081526020015f206001015490505f84826138109190615385565b9050858381518110613825576138246152fe565b5b602002602001015173ffffffffffffffffffffffffffffffffffffffff166108fc82600a5f8c81526020019081526020015f206001015461386691906153b5565b90811502906040515f60405180830381858888f1935050505015801561388e573d5f803e3d5ffd5b505050808061389c90615534565b91505061378a565b505050505050565b6138b46148e2565b600a5f8381526020019081526020015f206005015f3373ffffffffffffffffffffffffffffffffffffffff1673ffffffffffffffffffffffffffffffffffffffff1681526020019081526020015f206040518060e00160405290815f82015f9054906101000a900473ffffffffffffffffffffffffffffffffffffffff1673ffffffffffffffffffffffffffffffffffffffff1673ffffffffffffffffffffffffffffffffffffffff16815260200160018201548152602001600282015481526020016003820154815260200160048201805461399090615456565b80601f01602080910402602001604051908101604052809291908181526020018280546139bc90615456565b8015613a075780601f106139de57610100808354040283529160200191613a07565b820191905f5260205f20905b8154815290600101906020018083116139ea57829003601f168201915b5050505050815260200160058201548152602001600682015f9054906101000a900460ff1615151515815250509050919050565b6005602052805f5260405f205f91509050805f0154905081565b613a5d6148e2565b60085f8481526020019081526020015f206005015f8381526020019081526020015f205f3373ffffffffffffffffffffffffffffffffffffffff1673ffffffffffffffffffffffffffffffffffffffff1681526020019081526020015f206040518060e00160405290815f82015f9054906101000a900473ffffffffffffffffffffffffffffffffffffffff1673ffffffffffffffffffffffffffffffffffffffff1673ffffffffffffffffffffffffffffffffffffffff168152602001600182015481526020016002820154815260200160038201548152602001600482018054613b4890615456565b80601f0160208091040260200160405190810160405280929190818152602001828054613b7490615456565b8015613bbf5780601f10613b9657610100808354040283529160200191613bbf565b820191905f5260205f20905b815481529060010190602001808311613ba257829003601f168201915b5050505050815260200160058201548152602001600682015f9054906101000a900460ff161515151581525050905092915050565b600a602052805f5260405f205f915090508060010154908060020154908060030154908060060154905084565b7f000000000000000000000000000000000000000000000000000000000000000073ffffffffffffffffffffffffffffffffffffffff163373ffffffffffffffffffffffffffffffffffffffff1614613caf576040517f08c379a0000000000000000000000000000000000000000000000000000000008152600401613ca6906152e0565b60405180910390fd5b60605f805f5b60095f8a81526020019081526020015f20600501805490508110156142fd575f60095f8b81526020019081526020015f206005018281548110613cfb57613cfa6152fe565b5b905f5260205f20015f9054906101000a900473ffffffffffffffffffffffffffffffffffffffff1690505f60095f8c81526020019081526020015f206006015f8373ffffffffffffffffffffffffffffffffffffffff1673ffffffffffffffffffffffffffffffffffffffff1681526020019081526020015f206001015490505f60095f8d81526020019081526020015f205f015f8473ffffffffffffffffffffffffffffffffffffffff1673ffffffffffffffffffffffffffffffffffffffff1681526020019081526020015f205490508860095f8e81526020019081526020015f206006015f8573ffffffffffffffffffffffffffffffffffffffff1673ffffffffffffffffffffffffffffffffffffffff1681526020019081526020015f2060020154148015613e505750600a8a613e36919061591c565b81600a8d613e44919061591c565b613e4e9190615992565b135b8015613e625750613e60836110a8565b155b15613ed65782878681518110613e7b57613e7a6152fe565b5b602002602001019073ffffffffffffffffffffffffffffffffffffffff16908173ffffffffffffffffffffffffffffffffffffffff16815250508480613ec090615534565b9550508186613ecf9190615628565b9550613fdc565b8760095f8e81526020019081526020015f206006015f8573ffffffffffffffffffffffffffffffffffffffff1673ffffffffffffffffffffffffffffffffffffffff1681526020019081526020015f2060020154148015613f595750600a8b613f3f919061591c565b81600a8c613f4d919061591c565b613f579190615992565b135b8015613f6b5750613f69836110a8565b155b15613fdb5782878681518110613f8457613f836152fe565b5b602002602001019073ffffffffffffffffffffffffffffffffffffffff16908173ffffffffffffffffffffffffffffffffffffffff16815250508480613fc990615534565b9550508186613fd89190615628565b95505b5b8160055f8573ffffffffffffffffffffffffffffffffffffffff1673ffffffffffffffffffffffffffffffffffffffff1681526020019081526020015f205f015f82825461402a91906153f6565b925050819055505f5b60055f8573ffffffffffffffffffffffffffffffffffffffff1673ffffffffffffffffffffffffffffffffffffffff1681526020019081526020015f20600101805490508110156142e6575f60055f8673ffffffffffffffffffffffffffffffffffffffff1673ffffffffffffffffffffffffffffffffffffffff1681526020019081526020015f2060010182815481106140d1576140d06152fe565b5b905f5260205f2090600702016040518060e00160405290815f82015f9054906101000a900473ffffffffffffffffffffffffffffffffffffffff1673ffffffffffffffffffffffffffffffffffffffff1673ffffffffffffffffffffffffffffffffffffffff16815260200160018201548152602001600282015481526020016003820154815260200160048201805461416a90615456565b80601f016020809104026020016040519081016040528092919081815260200182805461419690615456565b80156141e15780601f106141b8576101008083540402835291602001916141e1565b820191905f5260205f20905b8154815290600101906020018083116141c457829003601f168201915b5050505050815260200160058201548152602001600682015f9054906101000a900460ff16151515158152505090508d60405160200161422191906159f3565b60405160208183030381529060405280519060200120816060015160405160200161424c91906159f3565b604051602081830303815290604052805190602001201480156142bc575060405160200161427990615a57565b6040516020818303038152906040528051906020012081608001516040516020016142a4919061551e565b60405160208183030381529060405280519060200120145b156142d2575f8160c00190151590811515815250505b5080806142de90615534565b915050614033565b5050505080806142f590615534565b915050613cb5565b505f5b835181101561441a575f60095f8b81526020019081526020015f206006015f868481518110614332576143316152fe565b5b602002602001015173ffffffffffffffffffffffffffffffffffffffff1673ffffffffffffffffffffffffffffffffffffffff1681526020019081526020015f206001015490505f84826143869190615385565b905085838151811061439b5761439a6152fe565b5b602002602001015173ffffffffffffffffffffffffffffffffffffffff166108fc8260095f8f81526020019081526020015f20600101546143dc91906153b5565b90811502906040515f60405180830381858888f19350505050158015614404573d5f803e3d5ffd5b505050808061441290615534565b915050614300565b505050505050505050565b61442f8282614609565b505050565b6144723473eeeeeeeeeeeeeeeeeeeeeeeeeeeeeeeeeeeeeeee5f8054906101000a900473ffffffffffffffffffffffffffffffffffffffff16614635565b565b5f60095f8481526020019081526020015f206002015f8381526020019081526020015f2054905092915050565b5f8060075f8581526020019081526020015f205f8481526020019081526020015f205490505f60065f8681526020019081526020015f20549050806064836144e991906153b5565b6144f39190615385565b9250505092915050565b5f600a5f8381526020019081526020015f20600101549050919050565b606060405180602001604052805f815250905090565b606083838360405160200161454793929190615aed565b60405160208183030381529060405290509392505050565b5f7f000000000000000000000000000000000000000000000000000000000000000073ffffffffffffffffffffffffffffffffffffffff16633323b467868686866040518563ffffffff1660e01b81526004016145bf9493929190615d98565b6020604051808303815f875af11580156145db573d5f803e3d5ffd5b505050506040513d601f19601f820116820180604052508101906145ff9190615e13565b9050949350505050565b6060828260405160200161461e929190615e3e565b604051602081830303815290604052905092915050565b73eeeeeeeeeeeeeeeeeeeeeeeeeeeeeeeeeeeeeeee73ffffffffffffffffffffffffffffffffffffffff168273ffffffffffffffffffffffffffffffffffffffff160361474057600546146146bf576040517f08c379a00000000000000000000000000000000000000000000000000000000081526004016146b690615eaf565b60405180910390fd5b737506c12a824d73d9b08564d5afc22c949434755e73ffffffffffffffffffffffffffffffffffffffff166333bb7f9184836040518363ffffffff1660e01b815260040161470d91906149d6565b5f604051808303818588803b158015614724575f80fd5b505af1158015614736573d5f803e3d5ffd5b50505050506148dd565b60894614801561478f5750732791bca1f2de4661ed88a30c99a7a9449aa8417473ffffffffffffffffffffffffffffffffffffffff168273ffffffffffffffffffffffffffffffffffffffff16145b6147ce576040517f08c379a00000000000000000000000000000000000000000000000000000000081526004016147c590615f17565b60405180910390fd5b8173ffffffffffffffffffffffffffffffffffffffff1663095ea7b3737506c12a824d73d9b08564d5afc22c949434755e856040518363ffffffff1660e01b815260040161481d929190615e3e565b6020604051808303815f875af1158015614839573d5f803e3d5ffd5b505050506040513d601f19601f8201168201806040525081019061485d9190615f5f565b50737506c12a824d73d9b08564d5afc22c949434755e73ffffffffffffffffffffffffffffffffffffffff1663fb0f97a88284866040518463ffffffff1660e01b81526004016148af93929190615f8a565b5f604051808303815f87803b1580156148c6575f80fd5b505af11580156148d8573d5f803e3d5ffd5b505050505b505050565b6040518060e001604052805f73ffffffffffffffffffffffffffffffffffffffff1681526020015f81526020015f81526020015f8152602001606081526020015f81526020015f151581525090565b5f80fd5b5f80fd5b5f819050919050565b61494b81614939565b8114614955575f80fd5b50565b5f8135905061496681614942565b92915050565b5f6020828403121561498157614980614931565b5b5f61498e84828501614958565b91505092915050565b5f73ffffffffffffffffffffffffffffffffffffffff82169050919050565b5f6149c082614997565b9050919050565b6149d0816149b6565b82525050565b5f6020820190506149e95f8301846149c7565b92915050565b5f805f60608486031215614a0657614a05614931565b5b5f614a1386828701614958565b9350506020614a2486828701614958565b9250506040614a3586828701614958565b9150509250925092565b5f819050919050565b5f614a62614a5d614a5884614997565b614a3f565b614997565b9050919050565b5f614a7382614a48565b9050919050565b5f614a8482614a69565b9050919050565b614a9481614a7a565b82525050565b5f602082019050614aad5f830184614a8b565b92915050565b614abc816149b6565b8114614ac6575f80fd5b50565b5f81359050614ad781614ab3565b92915050565b5f60208284031215614af257614af1614931565b5b5f614aff84828501614ac9565b91505092915050565b5f8115159050919050565b614b1c81614b08565b82525050565b5f602082019050614b355f830184614b13565b92915050565b614b4481614939565b82525050565b5f602082019050614b5d5f830184614b3b565b92915050565b5f819050919050565b614b7581614b63565b82525050565b5f608082019050614b8e5f830187614b3b565b614b9b6020830186614b3b565b614ba86040830185614b3b565b614bb56060830184614b6c565b95945050505050565b5f8060408385031215614bd457614bd3614931565b5b5f614be185828601614958565b9250506020614bf285828601614958565b9150509250929050565b5f81519050919050565b5f82825260208201905092915050565b5f819050602082019050919050565b614c2e816149b6565b82525050565b614c3d81614939565b82525050565b5f81519050919050565b5f82825260208201905092915050565b5f5b83811015614c7a578082015181840152602081019050614c5f565b5f8484015250505050565b5f601f19601f8301169050919050565b5f614c9f82614c43565b614ca98185614c4d565b9350614cb9818560208601614c5d565b614cc281614c85565b840191505092915050565b614cd681614b08565b82525050565b5f60e083015f830151614cf15f860182614c25565b506020830151614d046020860182614c34565b506040830151614d176040860182614c34565b506060830151614d2a6060860182614c34565b5060808301518482036080860152614d428282614c95565b91505060a0830151614d5760a0860182614c34565b5060c0830151614d6a60c0860182614ccd565b508091505092915050565b5f614d808383614cdc565b905092915050565b5f602082019050919050565b5f614d9e82614bfc565b614da88185614c06565b935083602082028501614dba85614c16565b805f5b85811015614df55784840389528151614dd68582614d75565b9450614de183614d88565b925060208a01995050600181019050614dbd565b50829750879550505050505092915050565b5f6020820190508181035f830152614e1f8184614d94565b905092915050565b5f80fd5b5f80fd5b5f80fd5b5f8083601f840112614e4857614e47614e27565b5b8235905067ffffffffffffffff811115614e6557614e64614e2b565b5b602083019150836001820283011115614e8157614e80614e2f565b5b9250929050565b5f805f805f805f60c0888a031215614ea357614ea2614931565b5b5f614eb08a828b01614958565b9750506020614ec18a828b01614958565b9650506040614ed28a828b01614958565b9550506060614ee38a828b01614958565b9450506080614ef48a828b01614958565b93505060a088013567ffffffffffffffff811115614f1557614f14614935565b5b614f218a828b01614e33565b925092505092959891949750929550565b5f60e083015f830151614f475f860182614c25565b506020830151614f5a6020860182614c34565b506040830151614f6d6040860182614c34565b506060830151614f806060860182614c34565b5060808301518482036080860152614f988282614c95565b91505060a0830151614fad60a0860182614c34565b5060c0830151614fc060c0860182614ccd565b508091505092915050565b5f6020820190508181035f830152614fe38184614f32565b905092915050565b5f614ff582614a69565b9050919050565b61500581614feb565b82525050565b5f60208201905061501e5f830184614ffc565b92915050565b5f805f805f805f8060e0898b0312156150405761503f614931565b5b5f61504d8b828c01614958565b985050602061505e8b828c01614958565b975050604061506f8b828c01614958565b96505060606150808b828c01614958565b95505060806150918b828c01614958565b94505060a06150a28b828c01614958565b93505060c089013567ffffffffffffffff8111156150c3576150c2614935565b5b6150cf8b828c01614e33565b92509250509295985092959890939650565b5f819050919050565b6150f3816150e1565b81146150fd575f80fd5b50565b5f8135905061510e816150ea565b92915050565b5f805f805f805f8060e0898b0312156151305761512f614931565b5b5f61513d8b828c01614958565b985050602061514e8b828c01614958565b975050604061515f8b828c01614958565b96505060606151708b828c01614958565b95505060806151818b828c01615100565b94505060a06151928b828c01614958565b93505060c089013567ffffffffffffffff8111156151b3576151b2614935565b5b6151bf8b828c01614e33565b92509250509295985092959890939650565b5f805f805f60a086880312156151ea576151e9614931565b5b5f6151f788828901614958565b955050602061520888828901615100565b945050604061521988828901615100565b935050606061522a88828901614958565b925050608061523b88828901614958565b9150509295509295909350565b5f806040838503121561525e5761525d614931565b5b5f61526b85828601614ac9565b925050602061527c85828601614958565b9150509250929050565b5f82825260208201905092915050565b7f4f6e6c7920646564696361746564206d73672e73656e646572000000000000005f82015250565b5f6152ca601983615286565b91506152d582615296565b602082019050919050565b5f6020820190508181035f8301526152f7816152be565b9050919050565b7f4e487b71000000000000000000000000000000000000000000000000000000005f52603260045260245ffd5b7f4e487b71000000000000000000000000000000000000000000000000000000005f52601260045260245ffd5b7f4e487b71000000000000000000000000000000000000000000000000000000005f52601160045260245ffd5b5f61538f82614939565b915061539a83614939565b9250826153aa576153a961532b565b5b828204905092915050565b5f6153bf82614939565b91506153ca83614939565b92508282026153d881614939565b915082820484148315176153ef576153ee615358565b5b5092915050565b5f61540082614939565b915061540b83614939565b925082820390508181111561542357615422615358565b5b92915050565b7f4e487b71000000000000000000000000000000000000000000000000000000005f52602260045260245ffd5b5f600282049050600182168061546d57607f821691505b6020821081036154805761547f615429565b5b50919050565b5f81905092915050565b7f4d6f6e6579204c696e65000000000000000000000000000000000000000000005f82015250565b5f6154c4600a83615486565b91506154cf82615490565b600a82019050919050565b5f6154e4826154b8565b9150819050919050565b5f6154f882614c43565b6155028185615486565b9350615512818560208601614c5d565b80840191505092915050565b5f61552982846154ee565b915081905092915050565b5f61553e82614939565b91507fffffffffffffffffffffffffffffffffffffffffffffffffffffffffffffffff82036155705761556f615358565b5b600182019050919050565b7f4e487b71000000000000000000000000000000000000000000000000000000005f52604160045260245ffd5b7f4e487b71000000000000000000000000000000000000000000000000000000005f52602160045260245ffd5b5f7fffffffff0000000000000000000000000000000000000000000000000000000082169050919050565b615609816155d5565b82525050565b5f6020820190506156225f830184615600565b92915050565b5f61563282614939565b915061563d83614939565b925082820190508082111561565557615654615358565b5b92915050565b5f819050815f5260205f209050919050565b5f6020601f8301049050919050565b5f82821b905092915050565b5f600883026156b77fffffffffffffffffffffffffffffffffffffffffffffffffffffffffffffffff8261567c565b6156c1868361567c565b95508019841693508086168417925050509392505050565b5f6156f36156ee6156e984614939565b614a3f565b614939565b9050919050565b5f819050919050565b61570c836156d9565b615720615718826156fa565b848454615688565b825550505050565b5f90565b615734615728565b61573f818484615703565b505050565b5b81811015615762576157575f8261572c565b600181019050615745565b5050565b601f8211156157a7576157788161565b565b6157818461566d565b81016020851015615790578190505b6157a461579c8561566d565b830182615744565b50505b505050565b5f82821c905092915050565b5f6157c75f19846008026157ac565b1980831691505092915050565b5f6157df83836157b8565b9150826002028217905092915050565b6157f882614c43565b67ffffffffffffffff8111156158115761581061557b565b5b61581b8254615456565b615826828285615766565b5f60209050601f831160018114615857575f8415615845578287015190505b61584f85826157d4565b8655506158b6565b601f1984166158658661565b565b5f5b8281101561588c57848901518255600182019150602085019450602081019050615867565b868310156158a957848901516158a5601f8916826157b8565b8355505b6001600288020188555050505b505050505050565b7f506f696e7420546f74616c0000000000000000000000000000000000000000005f82015250565b5f6158f2600b83615486565b91506158fd826158be565b600b82019050919050565b5f615912826158e6565b9150819050919050565b5f615926826150e1565b9150615931836150e1565b925082820261593f816150e1565b91507f800000000000000000000000000000000000000000000000000000000000000084145f8412161561597657615975615358565b5b828205841483151761598b5761598a615358565b5b5092915050565b5f61599c826150e1565b91506159a7836150e1565b92508282019050828112155f8312168382125f8412151617156159cd576159cc615358565b5b92915050565b5f819050919050565b6159ed6159e882614939565b6159d3565b82525050565b5f6159fe82846159dc565b60208201915081905092915050565b7f506f696e742053707265616400000000000000000000000000000000000000005f82015250565b5f615a41600c83615486565b9150615a4c82615a0d565b600c82019050919050565b5f615a6182615a35565b9150819050919050565b5f615a7582614c43565b615a7f8185615286565b9350615a8f818560208601614c5d565b615a9881614c85565b840191505092915050565b5f82825260208201905092915050565b828183375f83830152505050565b5f615acc8385615aa3565b9350615ad9838584615ab3565b615ae283614c85565b840190509392505050565b5f6040820190508181035f830152615b058186615a6b565b90508181036020830152615b1a818486615ac1565b9050949350505050565b5f81519050919050565b5f615b3882615b24565b615b428185615aa3565b9350615b52818560208601614c5d565b615b5b81614c85565b840191505092915050565b5f81519050919050565b5f82825260208201905092915050565b5f819050602082019050919050565b60058110615ba057615b9f6155a8565b5b50565b5f819050615bb082615b8f565b919050565b5f615bbf82615ba3565b9050919050565b615bcf81615bb5565b82525050565b5f615be08383615bc6565b60208301905092915050565b5f602082019050919050565b5f615c0282615b66565b615c0c8185615b70565b9350615c1783615b80565b805f5b83811015615c47578151615c2e8882615bd5565b9750615c3983615bec565b925050600181019050615c1a565b5085935050505092915050565b5f81519050919050565b5f82825260208201905092915050565b5f819050602082019050919050565b5f82825260208201905092915050565b5f615c9782615b24565b615ca18185615c7d565b9350615cb1818560208601614c5d565b615cba81614c85565b840191505092915050565b5f615cd08383615c8d565b905092915050565b5f602082019050919050565b5f615cee82615c54565b615cf88185615c5e565b935083602082028501615d0a85615c6e565b805f5b85811015615d455784840389528151615d268582615cc5565b9450615d3183615cd8565b925060208a01995050600181019050615d0d565b50829750879550505050505092915050565b5f604083015f8301518482035f860152615d718282615bf8565b91505060208301518482036020860152615d8b8282615ce4565b9150508091505092915050565b5f608082019050615dab5f8301876149c7565b8181036020830152615dbd8186615b2e565b90508181036040830152615dd18185615d57565b9050615de060608301846149c7565b95945050505050565b615df281614b63565b8114615dfc575f80fd5b50565b5f81519050615e0d81615de9565b92915050565b5f60208284031215615e2857615e27614931565b5b5f615e3584828501615dff565b91505092915050565b5f604082019050615e515f8301856149c7565b615e5e6020830184614b3b565b9392505050565b7f4f6e6c79206465706f73697420455448206f6e20676f65726c690000000000005f82015250565b5f615e99601a83615286565b9150615ea482615e65565b602082019050919050565b5f6020820190508181035f830152615ec681615e8d565b9050919050565b7f4f6e6c79206465706f7369742055534443206f6e20706f6c79676f6e000000005f82015250565b5f615f01601c83615286565b9150615f0c82615ecd565b602082019050919050565b5f6020820190508181035f830152615f2e81615ef5565b9050919050565b615f3e81614b08565b8114615f48575f80fd5b50565b5f81519050615f5981615f35565b92915050565b5f60208284031215615f7457615f73614931565b5b5f615f8184828501615f4b565b91505092915050565b5f606082019050615f9d5f8301866149c7565b615faa60208301856149c7565b615fb76040830184614b3b565b94935050505056fea2646970667358221220cf56ebc55eebd8621a1a7dd3379b678382545cdc6b920f42761cb37310b02dd564736f6c63430008150033",
  "linkReferences": {},
  "deployedLinkReferences": {}
}