{
  "_format": "hh-sol-artifact-1",
  "contractName": "Bet",
  "sourceName": "contracts/Bet.sol",
  "abi": [
    {
      "inputs": [
        {
          "internalType": "string",
          "name": "_moneyLineFunctionHash",
          "type": "string"
        },
        {
          "internalType": "string",
          "name": "_pointTotalFunctionHash",
          "type": "string"
        },
        {
          "internalType": "string",
          "name": "_pointSpreadFunctionHash",
          "type": "string"
        }
      ],
      "stateMutability": "nonpayable",
      "type": "constructor"
    },
    {
      "inputs": [],
      "name": "automate",
      "outputs": [
        {
          "internalType": "contract IAutomate",
          "name": "",
          "type": "address"
        }
      ],
      "stateMutability": "view",
      "type": "function"
    },
    {
      "inputs": [
        {
          "internalType": "address",
          "name": "user",
          "type": "address"
        }
      ],
      "name": "blockUser",
      "outputs": [],
      "stateMutability": "nonpayable",
      "type": "function"
    },
    {
      "inputs": [
        {
          "internalType": "uint256",
          "name": "",
          "type": "uint256"
        }
      ],
      "name": "blockedUsers",
      "outputs": [
        {
          "internalType": "address",
          "name": "",
          "type": "address"
        }
      ],
      "stateMutability": "view",
      "type": "function"
    },
    {
      "inputs": [
        {
          "internalType": "address",
          "name": "user",
          "type": "address"
        }
      ],
      "name": "checkSender",
      "outputs": [
        {
          "internalType": "bool",
          "name": "",
          "type": "bool"
        }
      ],
      "stateMutability": "view",
      "type": "function"
    },
    {
      "inputs": [],
      "name": "dedicatedMsgSender",
      "outputs": [
        {
          "internalType": "address",
          "name": "",
          "type": "address"
        }
      ],
      "stateMutability": "view",
      "type": "function"
    },
    {
      "inputs": [],
      "name": "deposit",
      "outputs": [],
      "stateMutability": "payable",
      "type": "function"
    },
    {
      "inputs": [],
      "name": "fundsOwner",
      "outputs": [
        {
          "internalType": "address",
          "name": "",
          "type": "address"
        }
      ],
      "stateMutability": "view",
      "type": "function"
    },
    {
      "inputs": [],
      "name": "gelato1Balance",
      "outputs": [
        {
          "internalType": "contract IGelato1Balance",
          "name": "",
          "type": "address"
        }
      ],
      "stateMutability": "view",
      "type": "function"
    },
    {
      "inputs": [
        {
          "internalType": "uint256",
          "name": "",
          "type": "uint256"
        }
      ],
      "name": "home_team_score",
      "outputs": [
        {
          "internalType": "uint256",
          "name": "",
          "type": "uint256"
        }
      ],
      "stateMutability": "view",
      "type": "function"
    },
    {
      "inputs": [
        {
          "internalType": "uint256",
          "name": "gameID",
          "type": "uint256"
        },
        {
          "internalType": "uint256",
          "name": "teamID",
          "type": "uint256"
        },
        {
          "internalType": "uint256",
          "name": "homeTeamID",
          "type": "uint256"
        },
        {
          "internalType": "uint256",
          "name": "awayTeamID",
          "type": "uint256"
        },
        {
          "internalType": "uint256",
          "name": "startTime",
          "type": "uint256"
        }
      ],
      "name": "moneyLineBet",
      "outputs": [],
      "stateMutability": "payable",
      "type": "function"
    },
    {
      "inputs": [
        {
          "internalType": "uint256",
          "name": "",
          "type": "uint256"
        }
      ],
      "name": "newMoneyLineBet",
      "outputs": [
        {
          "internalType": "uint256",
          "name": "total",
          "type": "uint256"
        },
        {
          "internalType": "uint256",
          "name": "homeTeamID",
          "type": "uint256"
        },
        {
          "internalType": "uint256",
          "name": "awayTeamID",
          "type": "uint256"
        },
        {
          "internalType": "bytes32",
          "name": "taskID",
          "type": "bytes32"
        }
      ],
      "stateMutability": "view",
      "type": "function"
    },
    {
      "inputs": [
        {
          "internalType": "uint256",
          "name": "",
          "type": "uint256"
        }
      ],
      "name": "newPointSpreadBet",
      "outputs": [
        {
          "internalType": "uint256",
          "name": "total",
          "type": "uint256"
        },
        {
          "internalType": "uint256",
          "name": "homeTeamID",
          "type": "uint256"
        },
        {
          "internalType": "uint256",
          "name": "awayTeamID",
          "type": "uint256"
        },
        {
          "internalType": "bytes32",
          "name": "taskID",
          "type": "bytes32"
        }
      ],
      "stateMutability": "view",
      "type": "function"
    },
    {
      "inputs": [
        {
          "internalType": "uint256",
          "name": "",
          "type": "uint256"
        }
      ],
      "name": "newPointTotalBet",
      "outputs": [
        {
          "internalType": "uint256",
          "name": "total",
          "type": "uint256"
        },
        {
          "internalType": "uint256",
          "name": "homeTeamID",
          "type": "uint256"
        },
        {
          "internalType": "uint256",
          "name": "awayTeamID",
          "type": "uint256"
        },
        {
          "internalType": "bytes32",
          "name": "taskID",
          "type": "bytes32"
        }
      ],
      "stateMutability": "view",
      "type": "function"
    },
    {
      "inputs": [
        {
          "internalType": "uint256",
          "name": "gameID",
          "type": "uint256"
        },
        {
          "internalType": "uint256",
          "name": "teamID",
          "type": "uint256"
        },
        {
          "internalType": "uint256",
          "name": "homeTeamID",
          "type": "uint256"
        },
        {
          "internalType": "uint256",
          "name": "awayTeamID",
          "type": "uint256"
        },
        {
          "internalType": "int256",
          "name": "spread",
          "type": "int256"
        },
        {
          "internalType": "uint256",
          "name": "startTime",
          "type": "uint256"
        }
      ],
      "name": "pointSpreadBet",
      "outputs": [],
      "stateMutability": "payable",
      "type": "function"
    },
    {
      "inputs": [
        {
          "internalType": "uint256",
          "name": "gameID",
          "type": "uint256"
        },
        {
          "internalType": "uint256",
          "name": "homeTeamID",
          "type": "uint256"
        },
        {
          "internalType": "uint256",
          "name": "awayTeamID",
          "type": "uint256"
        },
        {
          "internalType": "uint256",
          "name": "pointAmount",
          "type": "uint256"
        },
        {
          "internalType": "uint256",
          "name": "startTime",
          "type": "uint256"
        }
      ],
      "name": "pointTotalBet",
      "outputs": [],
      "stateMutability": "payable",
      "type": "function"
    },
    {
      "inputs": [],
      "name": "returnEscrow",
      "outputs": [
        {
          "internalType": "uint256",
          "name": "data",
          "type": "uint256"
        }
      ],
      "stateMutability": "view",
      "type": "function"
    },
    {
      "inputs": [
        {
          "internalType": "uint256",
          "name": "gameID",
          "type": "uint256"
        },
        {
          "internalType": "uint256",
          "name": "teamID",
          "type": "uint256"
        }
      ],
      "name": "returnMoneyLineBetReceipt",
      "outputs": [
        {
          "components": [
            {
              "internalType": "address",
              "name": "addr",
              "type": "address"
            },
            {
              "internalType": "uint256",
              "name": "amount",
              "type": "uint256"
            },
            {
              "internalType": "uint256",
              "name": "teamID",
              "type": "uint256"
            },
            {
              "internalType": "uint256",
              "name": "gameID",
              "type": "uint256"
            },
            {
              "internalType": "string",
              "name": "betType",
              "type": "string"
            },
            {
              "internalType": "uint256",
              "name": "time",
              "type": "uint256"
            },
            {
              "internalType": "bool",
              "name": "active",
              "type": "bool"
            }
          ],
          "internalType": "struct Bet.Transaction",
          "name": "data",
          "type": "tuple"
        }
      ],
      "stateMutability": "view",
      "type": "function"
    },
    {
      "inputs": [
        {
          "internalType": "uint256",
          "name": "gameID",
          "type": "uint256"
        },
        {
          "internalType": "uint256",
          "name": "teamID",
          "type": "uint256"
        }
      ],
      "name": "returnMoneyLineBetTotal",
      "outputs": [
        {
          "internalType": "uint256",
          "name": "data",
          "type": "uint256"
        }
      ],
      "stateMutability": "view",
      "type": "function"
    },
    {
      "inputs": [
        {
          "internalType": "uint256",
          "name": "gameID",
          "type": "uint256"
        },
        {
          "internalType": "uint256",
          "name": "bettingTeamID",
          "type": "uint256"
        }
      ],
      "name": "returnOdds",
      "outputs": [
        {
          "internalType": "uint256",
          "name": "odds",
          "type": "uint256"
        }
      ],
      "stateMutability": "view",
      "type": "function"
    },
    {
      "inputs": [
        {
          "internalType": "uint256",
          "name": "gameID",
          "type": "uint256"
        }
      ],
      "name": "returnPointSpreadBetReceipt",
      "outputs": [
        {
          "components": [
            {
              "internalType": "address",
              "name": "addr",
              "type": "address"
            },
            {
              "internalType": "uint256",
              "name": "amount",
              "type": "uint256"
            },
            {
              "internalType": "uint256",
              "name": "teamID",
              "type": "uint256"
            },
            {
              "internalType": "uint256",
              "name": "gameID",
              "type": "uint256"
            },
            {
              "internalType": "string",
              "name": "betType",
              "type": "string"
            },
            {
              "internalType": "uint256",
              "name": "time",
              "type": "uint256"
            },
            {
              "internalType": "bool",
              "name": "active",
              "type": "bool"
            }
          ],
          "internalType": "struct Bet.Transaction",
          "name": "data",
          "type": "tuple"
        }
      ],
      "stateMutability": "view",
      "type": "function"
    },
    {
      "inputs": [
        {
          "internalType": "uint256",
          "name": "gameID",
          "type": "uint256"
        },
        {
          "internalType": "uint256",
          "name": "teamID",
          "type": "uint256"
        }
      ],
      "name": "returnPointSpreadBetTotal",
      "outputs": [
        {
          "internalType": "uint256",
          "name": "data",
          "type": "uint256"
        }
      ],
      "stateMutability": "view",
      "type": "function"
    },
    {
      "inputs": [
        {
          "internalType": "uint256",
          "name": "gameID",
          "type": "uint256"
        }
      ],
      "name": "returnPointTotalBetReceipt",
      "outputs": [
        {
          "components": [
            {
              "internalType": "address",
              "name": "addr",
              "type": "address"
            },
            {
              "internalType": "uint256",
              "name": "amount",
              "type": "uint256"
            },
            {
              "internalType": "uint256",
              "name": "teamID",
              "type": "uint256"
            },
            {
              "internalType": "uint256",
              "name": "gameID",
              "type": "uint256"
            },
            {
              "internalType": "string",
              "name": "betType",
              "type": "string"
            },
            {
              "internalType": "uint256",
              "name": "time",
              "type": "uint256"
            },
            {
              "internalType": "bool",
              "name": "active",
              "type": "bool"
            }
          ],
          "internalType": "struct Bet.Transaction",
          "name": "data",
          "type": "tuple"
        }
      ],
      "stateMutability": "view",
      "type": "function"
    },
    {
      "inputs": [
        {
          "internalType": "uint256",
          "name": "gameID",
          "type": "uint256"
        }
      ],
      "name": "returnPointTotalBetTotal",
      "outputs": [
        {
          "internalType": "uint256",
          "name": "data",
          "type": "uint256"
        }
      ],
      "stateMutability": "view",
      "type": "function"
    },
    {
      "inputs": [],
      "name": "returnReceipts",
      "outputs": [
        {
          "components": [
            {
              "internalType": "address",
              "name": "addr",
              "type": "address"
            },
            {
              "internalType": "uint256",
              "name": "amount",
              "type": "uint256"
            },
            {
              "internalType": "uint256",
              "name": "teamID",
              "type": "uint256"
            },
            {
              "internalType": "uint256",
              "name": "gameID",
              "type": "uint256"
            },
            {
              "internalType": "string",
              "name": "betType",
              "type": "string"
            },
            {
              "internalType": "uint256",
              "name": "time",
              "type": "uint256"
            },
            {
              "internalType": "bool",
              "name": "active",
              "type": "bool"
            }
          ],
          "internalType": "struct Bet.Transaction[]",
          "name": "data",
          "type": "tuple[]"
        }
      ],
      "stateMutability": "view",
      "type": "function"
    },
    {
      "inputs": [
        {
          "internalType": "uint256",
          "name": "gameID",
          "type": "uint256"
        },
        {
          "internalType": "uint256",
          "name": "winnerID",
          "type": "uint256"
        },
        {
          "internalType": "uint256",
          "name": "loserID",
          "type": "uint256"
        }
      ],
      "name": "rewardMoneyLineWinners",
      "outputs": [],
      "stateMutability": "nonpayable",
      "type": "function"
    },
    {
      "inputs": [
        {
          "internalType": "uint256",
          "name": "gameID",
          "type": "uint256"
        },
        {
          "internalType": "int256",
          "name": "winnerScore",
          "type": "int256"
        },
        {
          "internalType": "int256",
          "name": "loserScore",
          "type": "int256"
        }
      ],
      "name": "rewardPointSpreadWinners",
      "outputs": [],
      "stateMutability": "nonpayable",
      "type": "function"
    },
    {
      "inputs": [
        {
          "internalType": "uint256",
          "name": "gameID",
          "type": "uint256"
        },
        {
          "internalType": "uint256",
          "name": "total",
          "type": "uint256"
        }
      ],
      "name": "rewardPointTotalWinners",
      "outputs": [],
      "stateMutability": "nonpayable",
      "type": "function"
    },
    {
      "inputs": [
        {
          "internalType": "uint256",
          "name": "",
          "type": "uint256"
        }
      ],
      "name": "totalBetOnGame",
      "outputs": [
        {
          "internalType": "uint256",
          "name": "",
          "type": "uint256"
        }
      ],
      "stateMutability": "view",
      "type": "function"
    },
    {
      "inputs": [
        {
          "internalType": "uint256",
          "name": "",
          "type": "uint256"
        },
        {
          "internalType": "uint256",
          "name": "",
          "type": "uint256"
        }
      ],
      "name": "totalBetOnTeam",
      "outputs": [
        {
          "internalType": "uint256",
          "name": "",
          "type": "uint256"
        }
      ],
      "stateMutability": "view",
      "type": "function"
    },
    {
      "inputs": [
        {
          "internalType": "address",
          "name": "",
          "type": "address"
        }
      ],
      "name": "userReceipts",
      "outputs": [
        {
          "internalType": "uint256",
          "name": "escrow",
          "type": "uint256"
        }
      ],
      "stateMutability": "view",
      "type": "function"
    },
    {
      "inputs": [
        {
          "internalType": "uint256",
          "name": "",
          "type": "uint256"
        }
      ],
      "name": "visitor_team_score",
      "outputs": [
        {
          "internalType": "uint256",
          "name": "",
          "type": "uint256"
        }
      ],
      "stateMutability": "view",
      "type": "function"
    }
  ],
  "bytecode": "0x61010060405234801562000011575f80fd5b506040516200672a3803806200672a833981810160405281019062000037919062000508565b732a6c106ae13b558bb9e2ec64bd2f1f7beff3a5e03081308173ffffffffffffffffffffffffffffffffffffffff1660808173ffffffffffffffffffffffffffffffffffffffff16815250508173ffffffffffffffffffffffffffffffffffffffff1663573ea5756040518163ffffffff1660e01b8152600401602060405180830381865afa158015620000cd573d5f803e3d5ffd5b505050506040513d601f19601f82011682018060405250810190620000f391906200061f565b73ffffffffffffffffffffffffffffffffffffffff1660c08173ffffffffffffffffffffffffffffffffffffffff16815250505f8273ffffffffffffffffffffffffffffffffffffffff1663cd3d4fb960026040518263ffffffff1660e01b8152600401620001639190620006cb565b602060405180830381865afa1580156200017f573d5f803e3d5ffd5b505050506040513d601f19601f82011682018060405250810190620001a5919062000728565b90505f8173ffffffffffffffffffffffffffffffffffffffff1663ba1d0ff46040518163ffffffff1660e01b8152600401602060405180830381865afa158015620001f2573d5f803e3d5ffd5b505050506040513d601f19601f8201168201806040525081019062000218919062000728565b90508073ffffffffffffffffffffffffffffffffffffffff1663ded89a7c846040518263ffffffff1660e01b815260040162000255919062000769565b6040805180830381865afa15801562000270573d5f803e3d5ffd5b505050506040513d601f19601f82011682018060405250810190620002969190620007be565b508073ffffffffffffffffffffffffffffffffffffffff1660a09073ffffffffffffffffffffffffffffffffffffffff1681525050505050508073ffffffffffffffffffffffffffffffffffffffff1660e08173ffffffffffffffffffffffffffffffffffffffff16815250505050335f806101000a81548173ffffffffffffffffffffffffffffffffffffffff021916908373ffffffffffffffffffffffffffffffffffffffff160217905550826001908162000355919062000a3a565b50816003908162000367919062000a3a565b50806002908162000379919062000a3a565b5050505062000b1e565b5f604051905090565b5f80fd5b5f80fd5b5f80fd5b5f80fd5b5f601f19601f8301169050919050565b7f4e487b71000000000000000000000000000000000000000000000000000000005f52604160045260245ffd5b620003e4826200039c565b810181811067ffffffffffffffff82111715620004065762000405620003ac565b5b80604052505050565b5f6200041a62000383565b9050620004288282620003d9565b919050565b5f67ffffffffffffffff8211156200044a5762000449620003ac565b5b62000455826200039c565b9050602081019050919050565b5f5b838110156200048157808201518184015260208101905062000464565b5f8484015250505050565b5f620004a26200049c846200042d565b6200040f565b905082815260208101848484011115620004c157620004c062000398565b5b620004ce84828562000462565b509392505050565b5f82601f830112620004ed57620004ec62000394565b5b8151620004ff8482602086016200048c565b91505092915050565b5f805f606084860312156200052257620005216200038c565b5b5f84015167ffffffffffffffff81111562000542576200054162000390565b5b6200055086828701620004d6565b935050602084015167ffffffffffffffff81111562000574576200057362000390565b5b6200058286828701620004d6565b925050604084015167ffffffffffffffff811115620005a657620005a562000390565b5b620005b486828701620004d6565b9150509250925092565b5f73ffffffffffffffffffffffffffffffffffffffff82169050919050565b5f620005e982620005be565b9050919050565b620005fb81620005dd565b811462000606575f80fd5b50565b5f815190506200061981620005f0565b92915050565b5f602082840312156200063757620006366200038c565b5b5f620006468482850162000609565b91505092915050565b7f4e487b71000000000000000000000000000000000000000000000000000000005f52602160045260245ffd5b6005811062000690576200068f6200064f565b5b50565b5f819050620006a2826200067c565b919050565b5f620006b38262000693565b9050919050565b620006c581620006a7565b82525050565b5f602082019050620006e05f830184620006ba565b92915050565b5f620006f282620005be565b9050919050565b6200070481620006e6565b81146200070f575f80fd5b50565b5f815190506200072281620006f9565b92915050565b5f6020828403121562000740576200073f6200038c565b5b5f6200074f8482850162000712565b91505092915050565b6200076381620006e6565b82525050565b5f6020820190506200077e5f83018462000758565b92915050565b5f8115159050919050565b6200079a8162000784565b8114620007a5575f80fd5b50565b5f81519050620007b8816200078f565b92915050565b5f8060408385031215620007d757620007d66200038c565b5b5f620007e68582860162000712565b9250506020620007f985828601620007a8565b9150509250929050565b5f81519050919050565b7f4e487b71000000000000000000000000000000000000000000000000000000005f52602260045260245ffd5b5f60028204905060018216806200085257607f821691505b6020821081036200086857620008676200080d565b5b50919050565b5f819050815f5260205f209050919050565b5f6020601f8301049050919050565b5f82821b905092915050565b5f60088302620008cc7fffffffffffffffffffffffffffffffffffffffffffffffffffffffffffffffff826200088f565b620008d886836200088f565b95508019841693508086168417925050509392505050565b5f819050919050565b5f819050919050565b5f620009226200091c6200091684620008f0565b620008f9565b620008f0565b9050919050565b5f819050919050565b6200093d8362000902565b620009556200094c8262000929565b8484546200089b565b825550505050565b5f90565b6200096b6200095d565b6200097881848462000932565b505050565b5b818110156200099f57620009935f8262000961565b6001810190506200097e565b5050565b601f821115620009ee57620009b8816200086e565b620009c38462000880565b81016020851015620009d3578190505b620009eb620009e28562000880565b8301826200097d565b50505b505050565b5f82821c905092915050565b5f62000a105f1984600802620009f3565b1980831691505092915050565b5f62000a2a8383620009ff565b9150826002028217905092915050565b62000a458262000803565b67ffffffffffffffff81111562000a615762000a60620003ac565b5b62000a6d82546200083a565b62000a7a828285620009a3565b5f60209050601f83116001811462000ab0575f841562000a9b578287015190505b62000aa7858262000a1d565b86555062000b16565b601f19841662000ac0866200086e565b5f5b8281101562000ae95784890151825560018201915060208501945060208101905062000ac2565b8683101562000b09578489015162000b05601f891682620009ff565b8355505b6001600288020188555050505b505050505050565b60805160a05160c05160e051615bbf62000b6b5f395f6114c101525f50505f818161081701528181611204015281816117400152612ab001525f81816110e101526143c30152615bbf5ff3fe6080604052600436106101d7575f3560e01c80637ea4178a11610101578063b1a374dd11610094578063f12b2a8b11610063578063f12b2a8b1461072a578063f227ce4d14610746578063f782a75414610782578063ffa9f82c146107be576101d7565b8063b1a374dd146106a0578063d0e30db0146106bc578063e6d3861b146106c6578063ec5a24d7146106ee576101d7565b8063914989fd116100d0578063914989fd146105ad578063a4786f3d146105e9578063a910e4a514610625578063a91faba214610661576101d7565b80637ea4178a146104e057806380eb6d041461050a5780638edd3971146105465780638ee95f9f14610585576101d7565b806328f150eb1161017957806346ee3c591161014857806346ee3c591461041457806347f53fc91461043e578063481042e21461047a57806357fb1d67146104b6576101d7565b806328f150eb1461035c5780632b3a4ef6146103865780633946f666146103c25780633da01325146103ec576101d7565b806308bc451e116101b557806308bc451e1461026957806323821c21146102a55780632429827f146102e1578063245a2fad14610320576101d7565b806302cba3c3146101db57806303bfeb2014610217578063049aacfe1461023f575b5f80fd5b3480156101e6575f80fd5b5061020160048036038101906101fc919061479d565b6107da565b60405161020e9190614807565b60405180910390f35b348015610222575f80fd5b5061023d60048036038101906102389190614820565b610815565b005b34801561024a575f80fd5b506102536110df565b60405161026091906148cb565b60405180910390f35b348015610274575f80fd5b5061028f600480360381019061028a919061490e565b611103565b60405161029c9190614953565b60405180910390f35b3480156102b0575f80fd5b506102cb60048036038101906102c6919061479d565b6111ab565b6040516102d8919061497b565b60405180910390f35b3480156102ec575f80fd5b506103076004803603810190610302919061479d565b6111c0565b60405161031794939291906149ac565b60405180910390f35b34801561032b575f80fd5b506103466004803603810190610341919061479d565b6111ed565b604051610353919061497b565b60405180910390f35b348015610367575f80fd5b50610370611202565b60405161037d9190614807565b60405180910390f35b348015610391575f80fd5b506103ac60048036038101906103a791906149ef565b611226565b6040516103b9919061497b565b60405180910390f35b3480156103cd575f80fd5b506103d6611246565b6040516103e39190614c38565b60405180910390f35b3480156103f7575f80fd5b50610412600480360381019061040d919061490e565b611406565b005b34801561041f575f80fd5b506104286114bf565b6040516104359190614807565b60405180910390f35b348015610449575f80fd5b50610464600480360381019061045f91906149ef565b6114e3565b604051610471919061497b565b60405180910390f35b348015610485575f80fd5b506104a0600480360381019061049b919061479d565b611510565b6040516104ad9190614cf1565b60405180910390f35b3480156104c1575f80fd5b506104ca61169f565b6040516104d79190614d31565b60405180910390f35b3480156104eb575f80fd5b506104f46116b7565b604051610501919061497b565b60405180910390f35b348015610515575f80fd5b50610530600480360381019061052b919061479d565b6116fd565b60405161053d919061497b565b60405180910390f35b348015610551575f80fd5b5061056c6004803603810190610567919061479d565b611712565b60405161057c94939291906149ac565b60405180910390f35b348015610590575f80fd5b506105ab60048036038101906105a691906149ef565b61173e565b005b3480156105b8575f80fd5b506105d360048036038101906105ce919061479d565b611e3c565b6040516105e09190614cf1565b60405180910390f35b3480156105f4575f80fd5b5061060f600480360381019061060a919061490e565b611fcb565b60405161061c919061497b565b60405180910390f35b348015610630575f80fd5b5061064b600480360381019061064691906149ef565b611fe5565b6040516106589190614cf1565b60405180910390f35b34801561066c575f80fd5b506106876004803603810190610682919061479d565b612184565b60405161069794939291906149ac565b60405180910390f35b6106ba60048036038101906106b59190614d7d565b6121b1565b005b6106c4612a6e565b005b3480156106d1575f80fd5b506106ec60048036038101906106e79190614e06565b612aae565b005b3480156106f9575f80fd5b50610714600480360381019061070f91906149ef565b613131565b604051610721919061497b565b60405180910390f35b610744600480360381019061073f9190614e56565b61315e565b005b348015610751575f80fd5b5061076c600480360381019061076791906149ef565b613a00565b604051610779919061497b565b60405180910390f35b34801561078d575f80fd5b506107a860048036038101906107a3919061479d565b613a5c565b6040516107b5919061497b565b60405180910390f35b6107d860048036038101906107d39190614e56565b613a79565b005b600481815481106107e9575f80fd5b905f5260205f20015f915054906101000a900473ffffffffffffffffffffffffffffffffffffffff1681565b7f000000000000000000000000000000000000000000000000000000000000000073ffffffffffffffffffffffffffffffffffffffff163373ffffffffffffffffffffffffffffffffffffffff16146108a3576040517f08c379a000000000000000000000000000000000000000000000000000000000815260040161089a90614f27565b60405180910390fd5b5f5b60085f8581526020019081526020015f206004015f8481526020019081526020015f2080549050811015610d0f575f60085f8681526020019081526020015f206004015f8581526020019081526020015f20828154811061090957610908614f45565b5b905f5260205f20015f9054906101000a900473ffffffffffffffffffffffffffffffffffffffff1690505f60085f8781526020019081526020015f206005015f8681526020019081526020015f205f8373ffffffffffffffffffffffffffffffffffffffff1673ffffffffffffffffffffffffffffffffffffffff1681526020019081526020015f206001015490505f60085f8881526020019081526020015f206001015f8781526020019081526020015f2054826109c89190614fcc565b90506109d383611103565b610a3a578273ffffffffffffffffffffffffffffffffffffffff166108fc8260085f8b81526020019081526020015f205f0154610a109190614ffc565b90811502906040515f60405180830381858888f19350505050158015610a38573d5f803e3d5ffd5b505b8160055f8573ffffffffffffffffffffffffffffffffffffffff1673ffffffffffffffffffffffffffffffffffffffff1681526020019081526020015f205f015f828254610a88919061503d565b925050819055505f5b60055f8573ffffffffffffffffffffffffffffffffffffffff1673ffffffffffffffffffffffffffffffffffffffff1681526020019081526020015f2060010180549050811015610cf8575f60055f8673ffffffffffffffffffffffffffffffffffffffff1673ffffffffffffffffffffffffffffffffffffffff1681526020019081526020015f206001018281548110610b2f57610b2e614f45565b5b905f5260205f2090600702016040518060e00160405290815f82015f9054906101000a900473ffffffffffffffffffffffffffffffffffffffff1673ffffffffffffffffffffffffffffffffffffffff1673ffffffffffffffffffffffffffffffffffffffff168152602001600182015481526020016002820154815260200160038201548152602001600482018054610bc89061509d565b80601f0160208091040260200160405190810160405280929190818152602001828054610bf49061509d565b8015610c3f5780601f10610c1657610100808354040283529160200191610c3f565b820191905f5260205f20905b815481529060010190602001808311610c2257829003601f168201915b5050505050815260200160058201548152602001600682015f9054906101000a900460ff1615151515815250509050888160600151148015610cce5750604051602001610c8b90615121565b604051602081830303815290604052805190602001208160800151604051602001610cb69190615165565b60405160208183030381529060405280519060200120145b15610ce4575f8160c00190151590811515815250505b508080610cf09061517b565b915050610a91565b505050508080610d079061517b565b9150506108a5565b505f5b60085f8581526020019081526020015f206004015f8381526020019081526020015f20805490508110156110d9575f60085f8681526020019081526020015f206004015f8481526020019081526020015f208281548110610d7657610d75614f45565b5b905f5260205f20015f9054906101000a900473ffffffffffffffffffffffffffffffffffffffff1690505f60085f8781526020019081526020015f206005015f8581526020019081526020015f205f8373ffffffffffffffffffffffffffffffffffffffff1673ffffffffffffffffffffffffffffffffffffffff1681526020019081526020015f206001015490508060055f8473ffffffffffffffffffffffffffffffffffffffff1673ffffffffffffffffffffffffffffffffffffffff1681526020019081526020015f205f015f828254610e53919061503d565b925050819055505f5b60055f8473ffffffffffffffffffffffffffffffffffffffff1673ffffffffffffffffffffffffffffffffffffffff1681526020019081526020015f20600101805490508110156110c3575f60055f8573ffffffffffffffffffffffffffffffffffffffff1673ffffffffffffffffffffffffffffffffffffffff1681526020019081526020015f206001018281548110610efa57610ef9614f45565b5b905f5260205f2090600702016040518060e00160405290815f82015f9054906101000a900473ffffffffffffffffffffffffffffffffffffffff1673ffffffffffffffffffffffffffffffffffffffff1673ffffffffffffffffffffffffffffffffffffffff168152602001600182015481526020016002820154815260200160038201548152602001600482018054610f939061509d565b80601f0160208091040260200160405190810160405280929190818152602001828054610fbf9061509d565b801561100a5780601f10610fe15761010080835404028352916020019161100a565b820191905f5260205f20905b815481529060010190602001808311610fed57829003601f168201915b5050505050815260200160058201548152602001600682015f9054906101000a900460ff1615151515815250509050878160600151148015611099575060405160200161105690615121565b6040516020818303038152906040528051906020012081608001516040516020016110819190615165565b60405160208183030381529060405280519060200120145b156110af575f8160c00190151590811515815250505b5080806110bb9061517b565b915050610e5c565b50505080806110d19061517b565b915050610d12565b50505050565b7f000000000000000000000000000000000000000000000000000000000000000081565b5f805f90505b6004805490508110156111a1578273ffffffffffffffffffffffffffffffffffffffff166004828154811061114157611140614f45565b5b905f5260205f20015f9054906101000a900473ffffffffffffffffffffffffffffffffffffffff1673ffffffffffffffffffffffffffffffffffffffff160361118e5760019150506111a6565b80806111999061517b565b915050611109565b505f90505b919050565b6006602052805f5260405f205f915090505481565b6009602052805f5260405f205f915090508060010154908060030154908060040154908060070154905084565b600b602052805f5260405f205f915090505481565b7f000000000000000000000000000000000000000000000000000000000000000081565b6007602052815f5260405f20602052805f5260405f205f91509150505481565b606060055f3373ffffffffffffffffffffffffffffffffffffffff1673ffffffffffffffffffffffffffffffffffffffff1681526020019081526020015f20600101805480602002602001604051908101604052809291908181526020015f905b828210156113fd578382905f5260205f2090600702016040518060e00160405290815f82015f9054906101000a900473ffffffffffffffffffffffffffffffffffffffff1673ffffffffffffffffffffffffffffffffffffffff1673ffffffffffffffffffffffffffffffffffffffff16815260200160018201548152602001600282015481526020016003820154815260200160048201805461134a9061509d565b80601f01602080910402602001604051908101604052809291908181526020018280546113769061509d565b80156113c15780601f10611398576101008083540402835291602001916113c1565b820191905f5260205f20905b8154815290600101906020018083116113a457829003601f168201915b5050505050815260200160058201548152602001600682015f9054906101000a900460ff161515151581525050815260200190600101906112a7565b50505050905090565b5f8054906101000a900473ffffffffffffffffffffffffffffffffffffffff1673ffffffffffffffffffffffffffffffffffffffff163373ffffffffffffffffffffffffffffffffffffffff161461145c575f80fd5b600481908060018154018082558091505060019003905f5260205f20015f9091909190916101000a81548173ffffffffffffffffffffffffffffffffffffffff021916908373ffffffffffffffffffffffffffffffffffffffff16021790555050565b7f000000000000000000000000000000000000000000000000000000000000000081565b5f60085f8481526020019081526020015f206001015f8381526020019081526020015f2054905092915050565b611518614717565b60095f8381526020019081526020015f206006015f3373ffffffffffffffffffffffffffffffffffffffff1673ffffffffffffffffffffffffffffffffffffffff1681526020019081526020015f206040518060e00160405290815f82015f9054906101000a900473ffffffffffffffffffffffffffffffffffffffff1673ffffffffffffffffffffffffffffffffffffffff1673ffffffffffffffffffffffffffffffffffffffff1681526020016001820154815260200160028201548152602001600382015481526020016004820180546115f49061509d565b80601f01602080910402602001604051908101604052809291908181526020018280546116209061509d565b801561166b5780601f106116425761010080835404028352916020019161166b565b820191905f5260205f20905b81548152906001019060200180831161164e57829003601f168201915b5050505050815260200160058201548152602001600682015f9054906101000a900460ff1615151515815250509050919050565b737506c12a824d73d9b08564d5afc22c949434755e81565b5f60055f3373ffffffffffffffffffffffffffffffffffffffff1673ffffffffffffffffffffffffffffffffffffffff1681526020019081526020015f205f0154905090565b600c602052805f5260405f205f915090505481565b6008602052805f5260405f205f91509050805f0154908060020154908060030154908060060154905084565b7f000000000000000000000000000000000000000000000000000000000000000073ffffffffffffffffffffffffffffffffffffffff163373ffffffffffffffffffffffffffffffffffffffff16146117cc576040517f08c379a00000000000000000000000000000000000000000000000000000000081526004016117c390614f27565b60405180910390fd5b60605f805f805b600a5f8881526020019081526020015f2060040180549050811015611d00575f600a5f8981526020019081526020015f20600401828154811061181957611818614f45565b5b905f5260205f20015f9054906101000a900473ffffffffffffffffffffffffffffffffffffffff1690505f600a5f8a81526020019081526020015f206005015f8373ffffffffffffffffffffffffffffffffffffffff1673ffffffffffffffffffffffffffffffffffffffff1681526020019081526020015f20600101549050600a5f8a81526020019081526020015f205f015f8373ffffffffffffffffffffffffffffffffffffffff1673ffffffffffffffffffffffffffffffffffffffff1681526020019081526020015f2054881180156118fc57506118fa82611103565b155b15611970578187868151811061191557611914614f45565b5b602002602001019073ffffffffffffffffffffffffffffffffffffffff16908173ffffffffffffffffffffffffffffffffffffffff1681525050848061195a9061517b565b955050808661196991906151c2565b9550611a2c565b600a5f8a81526020019081526020015f205f015f8373ffffffffffffffffffffffffffffffffffffffff1673ffffffffffffffffffffffffffffffffffffffff1681526020019081526020015f2054881480156119d357506119d182611103565b155b15611a2b5780846119e491906151c2565b93508173ffffffffffffffffffffffffffffffffffffffff166108fc8290811502906040515f60405180830381858888f19350505050158015611a29573d5f803e3d5ffd5b505b5b8060055f8473ffffffffffffffffffffffffffffffffffffffff1673ffffffffffffffffffffffffffffffffffffffff1681526020019081526020015f205f015f828254611a7a919061503d565b925050819055505f5b60055f8473ffffffffffffffffffffffffffffffffffffffff1673ffffffffffffffffffffffffffffffffffffffff1681526020019081526020015f2060010180549050811015611cea575f60055f8573ffffffffffffffffffffffffffffffffffffffff1673ffffffffffffffffffffffffffffffffffffffff1681526020019081526020015f206001018281548110611b2157611b20614f45565b5b905f5260205f2090600702016040518060e00160405290815f82015f9054906101000a900473ffffffffffffffffffffffffffffffffffffffff1673ffffffffffffffffffffffffffffffffffffffff1673ffffffffffffffffffffffffffffffffffffffff168152602001600182015481526020016002820154815260200160038201548152602001600482018054611bba9061509d565b80601f0160208091040260200160405190810160405280929190818152602001828054611be69061509d565b8015611c315780601f10611c0857610100808354040283529160200191611c31565b820191905f5260205f20905b815481529060010190602001808311611c1457829003601f168201915b5050505050815260200160058201548152602001600682015f9054906101000a900460ff16151515158152505090508a8160600151148015611cc05750604051602001611c7d9061523f565b604051602081830303815290604052805190602001208160800151604051602001611ca89190615165565b60405160208183030381529060405280519060200120145b15611cd6575f8160c00190151590811515815250505b508080611ce29061517b565b915050611a83565b5050508080611cf89061517b565b9150506117d3565b505f5b8451811015611e33575f600a5f8981526020019081526020015f206005015f878481518110611d3557611d34614f45565b5b602002602001015173ffffffffffffffffffffffffffffffffffffffff1673ffffffffffffffffffffffffffffffffffffffff1681526020019081526020015f206001015490505f8386611d89919061503d565b82611d949190614fcc565b9050868381518110611da957611da8614f45565b5b602002602001015173ffffffffffffffffffffffffffffffffffffffff166108fc8286600a5f8e81526020019081526020015f2060010154611deb919061503d565b611df59190614ffc565b90811502906040515f60405180830381858888f19350505050158015611e1d573d5f803e3d5ffd5b5050508080611e2b9061517b565b915050611d03565b50505050505050565b611e44614717565b600a5f8381526020019081526020015f206005015f3373ffffffffffffffffffffffffffffffffffffffff1673ffffffffffffffffffffffffffffffffffffffff1681526020019081526020015f206040518060e00160405290815f82015f9054906101000a900473ffffffffffffffffffffffffffffffffffffffff1673ffffffffffffffffffffffffffffffffffffffff1673ffffffffffffffffffffffffffffffffffffffff168152602001600182015481526020016002820154815260200160038201548152602001600482018054611f209061509d565b80601f0160208091040260200160405190810160405280929190818152602001828054611f4c9061509d565b8015611f975780601f10611f6e57610100808354040283529160200191611f97565b820191905f5260205f20905b815481529060010190602001808311611f7a57829003601f168201915b5050505050815260200160058201548152602001600682015f9054906101000a900460ff1615151515815250509050919050565b6005602052805f5260405f205f91509050805f0154905081565b611fed614717565b60085f8481526020019081526020015f206005015f8381526020019081526020015f205f3373ffffffffffffffffffffffffffffffffffffffff1673ffffffffffffffffffffffffffffffffffffffff1681526020019081526020015f206040518060e00160405290815f82015f9054906101000a900473ffffffffffffffffffffffffffffffffffffffff1673ffffffffffffffffffffffffffffffffffffffff1673ffffffffffffffffffffffffffffffffffffffff1681526020016001820154815260200160028201548152602001600382015481526020016004820180546120d89061509d565b80601f01602080910402602001604051908101604052809291908181526020018280546121049061509d565b801561214f5780601f106121265761010080835404028352916020019161214f565b820191905f5260205f20905b81548152906001019060200180831161213257829003601f168201915b5050505050815260200160058201548152602001600682015f9054906101000a900460ff161515151581525050905092915050565b600a602052805f5260405f205f915090508060010154908060020154908060030154908060060154905084565b3273ffffffffffffffffffffffffffffffffffffffff163373ffffffffffffffffffffffffffffffffffffffff16146121e8575f80fd5b805f106121f3575f80fd5b6121fc33611103565b15612205575f80fd5b3373ffffffffffffffffffffffffffffffffffffffff1660095f8881526020019081526020015f206006015f3373ffffffffffffffffffffffffffffffffffffffff1673ffffffffffffffffffffffffffffffffffffffff1681526020019081526020015f205f015f9054906101000a900473ffffffffffffffffffffffffffffffffffffffff1673ffffffffffffffffffffffffffffffffffffffff16036122ac575f80fd5b5f34116122b7575f80fd5b5f60095f8881526020019081526020015f2090505f80191660095f8981526020019081526020015f206007015403612552575f6040518060400160405280600267ffffffffffffffff8111156123105761230f615253565b5b60405190808252806020026020018201604052801561233e5781602001602082028036833780820191505090505b508152602001600267ffffffffffffffff81111561235f5761235e615253565b5b60405190808252806020026020018201604052801561239257816020015b606081526020019060019003908161237d5790505b5081525090506002815f01515f815181106123b0576123af614f45565b5b602002602001019060048111156123ca576123c9615280565b5b908160048111156123de576123dd615280565b5b815250506004815f01516001815181106123fb576123fa614f45565b5b6020026020010190600481111561241557612414615280565b5b9081600481111561242957612428615280565b5b8152505061243561434f565b81602001515f8151811061244c5761244b614f45565b5b60200260200101819052506124f3600280546124679061509d565b80601f01602080910402602001604051908101604052809291908181526020018280546124939061509d565b80156124de5780601f106124b5576101008083540402835291602001916124de565b820191905f5260205f20905b8154815290600101906020018083116124c157829003601f168201915b50505050506124ee308b87614365565b614394565b816020015160018151811061250b5761250a614f45565b5b60200260200101819052506125483063e6d3861b60e01b60405160200161253291906152e7565b604051602081830303815290604052835f6143c0565b8260070181905550505b5f60646005346125629190614ffc565b61256c9190614fcc565b90505f60055f3373ffffffffffffffffffffffffffffffffffffffff1673ffffffffffffffffffffffffffffffffffffffff1681526020019081526020015f2060010190505f836006015f3373ffffffffffffffffffffffffffffffffffffffff1673ffffffffffffffffffffffffffffffffffffffff1681526020019081526020015f2090505f8460050190505f8054906101000a900473ffffffffffffffffffffffffffffffffffffffff1673ffffffffffffffffffffffffffffffffffffffff166108fc8590811502906040515f60405180830381858888f1935050505015801561265c573d5f803e3d5ffd5b508334612669919061503d565b60055f3373ffffffffffffffffffffffffffffffffffffffff1673ffffffffffffffffffffffffffffffffffffffff1681526020019081526020015f205f015f8282546126b691906151c2565b92505081905550826040518060e001604052803373ffffffffffffffffffffffffffffffffffffffff16815260200186346126f1919061503d565b81526020018c81526020018d81526020016040518060400160405280600c81526020017f506f696e74205370726561640000000000000000000000000000000000000000815250815260200142815260200160011515815250908060018154018082558091505060019003905f5260205f2090600702015f909190919091505f820151815f015f6101000a81548173ffffffffffffffffffffffffffffffffffffffff021916908373ffffffffffffffffffffffffffffffffffffffff16021790555060208201518160010155604082015181600201556060820151816003015560808201518160040190816127e79190615494565b5060a0820151816005015560c0820151816006015f6101000a81548160ff02191690831515021790555050503460065f8d81526020019081526020015f205f82825461283391906151c2565b925050819055503460075f8d81526020019081526020015f205f8c81526020019081526020015f205f82825461286991906151c2565b92505081905550833461287c919061503d565b856001015f82825461288e91906151c2565b9250508190555083346128a1919061503d565b856002015f8c81526020019081526020015f205f8282546128c291906151c2565b9250508190555088856003018190555087856004018190555086855f015f3373ffffffffffffffffffffffffffffffffffffffff1673ffffffffffffffffffffffffffffffffffffffff1681526020019081526020015f20819055508033908060018154018082558091505060019003905f5260205f20015f9091909190916101000a81548173ffffffffffffffffffffffffffffffffffffffff021916908373ffffffffffffffffffffffffffffffffffffffff16021790555033825f015f6101000a81548173ffffffffffffffffffffffffffffffffffffffff021916908373ffffffffffffffffffffffffffffffffffffffff16021790555083346129ca919061503d565b826001015f8282546129dc91906151c2565b925050819055508982600201819055508a82600301819055506040518060400160405280600c81526020017f506f696e74205370726561640000000000000000000000000000000000000000815250826004019081612a3b9190615494565b504282600501819055506001826006015f6101000a81548160ff0219169083151502179055505050505050505050505050565b612aac3473eeeeeeeeeeeeeeeeeeeeeeeeeeeeeeeeeeeeeeee5f8054906101000a900473ffffffffffffffffffffffffffffffffffffffff1661446a565b565b7f000000000000000000000000000000000000000000000000000000000000000073ffffffffffffffffffffffffffffffffffffffff163373ffffffffffffffffffffffffffffffffffffffff1614612b3c576040517f08c379a0000000000000000000000000000000000000000000000000000000008152600401612b3390614f27565b60405180910390fd5b60605f805f5b60095f8881526020019081526020015f206005018054905081101561300b575f60095f8981526020019081526020015f206005018281548110612b8857612b87614f45565b5b905f5260205f20015f9054906101000a900473ffffffffffffffffffffffffffffffffffffffff1690505f60095f8a81526020019081526020015f206006015f8373ffffffffffffffffffffffffffffffffffffffff1673ffffffffffffffffffffffffffffffffffffffff1681526020019081526020015f206001015490505f60095f8b81526020019081526020015f205f015f8473ffffffffffffffffffffffffffffffffffffffff1673ffffffffffffffffffffffffffffffffffffffff1681526020019081526020015f2054905087818a612c679190615563565b138015612c7a5750612c7883611103565b155b15612cea5782878681518110612c9357612c92614f45565b5b602002602001019073ffffffffffffffffffffffffffffffffffffffff16908173ffffffffffffffffffffffffffffffffffffffff16815250508480612cd89061517b565b9550508186612ce791906151c2565b95505b8160055f8573ffffffffffffffffffffffffffffffffffffffff1673ffffffffffffffffffffffffffffffffffffffff1681526020019081526020015f205f015f828254612d38919061503d565b925050819055505f5b60055f8573ffffffffffffffffffffffffffffffffffffffff1673ffffffffffffffffffffffffffffffffffffffff1681526020019081526020015f2060010180549050811015612ff4575f60055f8673ffffffffffffffffffffffffffffffffffffffff1673ffffffffffffffffffffffffffffffffffffffff1681526020019081526020015f206001018281548110612ddf57612dde614f45565b5b905f5260205f2090600702016040518060e00160405290815f82015f9054906101000a900473ffffffffffffffffffffffffffffffffffffffff1673ffffffffffffffffffffffffffffffffffffffff1673ffffffffffffffffffffffffffffffffffffffff168152602001600182015481526020016002820154815260200160038201548152602001600482018054612e789061509d565b80601f0160208091040260200160405190810160405280929190818152602001828054612ea49061509d565b8015612eef5780601f10612ec657610100808354040283529160200191612eef565b820191905f5260205f20905b815481529060010190602001808311612ed257829003601f168201915b5050505050815260200160058201548152602001600682015f9054906101000a900460ff16151515158152505090508b604051602001612f2f91906155c4565b604051602081830303815290604052805190602001208160600151604051602001612f5a91906155c4565b60405160208183030381529060405280519060200120148015612fca5750604051602001612f8790615628565b604051602081830303815290604052805190602001208160800151604051602001612fb29190615165565b60405160208183030381529060405280519060200120145b15612fe0575f8160c00190151590811515815250505b508080612fec9061517b565b915050612d41565b5050505080806130039061517b565b915050612b42565b505f5b8351811015613128575f60095f8981526020019081526020015f206006015f8684815181106130405761303f614f45565b5b602002602001015173ffffffffffffffffffffffffffffffffffffffff1673ffffffffffffffffffffffffffffffffffffffff1681526020019081526020015f206001015490505f84826130949190614fcc565b90508583815181106130a9576130a8614f45565b5b602002602001015173ffffffffffffffffffffffffffffffffffffffff166108fc8260095f8d81526020019081526020015f20600101546130ea9190614ffc565b90811502906040515f60405180830381858888f19350505050158015613112573d5f803e3d5ffd5b50505080806131209061517b565b91505061300e565b50505050505050565b5f60095f8481526020019081526020015f206002015f8381526020019081526020015f2054905092915050565b3273ffffffffffffffffffffffffffffffffffffffff163373ffffffffffffffffffffffffffffffffffffffff1614613195575f80fd5b805f106131a0575f80fd5b6131a933611103565b156131b2575f80fd5b5f34116131bd575f80fd5b5f60085f8781526020019081526020015f2090505f80191660085f8881526020019081526020015f206006015403613458575f6040518060400160405280600267ffffffffffffffff81111561321657613215615253565b5b6040519080825280602002602001820160405280156132445781602001602082028036833780820191505090505b508152602001600267ffffffffffffffff81111561326557613264615253565b5b60405190808252806020026020018201604052801561329857816020015b60608152602001906001900390816132835790505b5081525090506002815f01515f815181106132b6576132b5614f45565b5b602002602001019060048111156132d0576132cf615280565b5b908160048111156132e4576132e3615280565b5b815250506004815f015160018151811061330157613300614f45565b5b6020026020010190600481111561331b5761331a615280565b5b9081600481111561332f5761332e615280565b5b8152505061333b61434f565b81602001515f8151811061335257613351614f45565b5b60200260200101819052506133f96001805461336d9061509d565b80601f01602080910402602001604051908101604052809291908181526020018280546133999061509d565b80156133e45780601f106133bb576101008083540402835291602001916133e4565b820191905f5260205f20905b8154815290600101906020018083116133c757829003601f168201915b50505050506133f4308a87614365565b614394565b816020015160018151811061341157613410614f45565b5b602002602001018190525061344e306303bfeb2060e01b60405160200161343891906152e7565b604051602081830303815290604052835f6143c0565b8260060181905550505b5f60646005346134689190614ffc565b6134729190614fcc565b90505f60055f3373ffffffffffffffffffffffffffffffffffffffff1673ffffffffffffffffffffffffffffffffffffffff1681526020019081526020015f2060010190505f836005015f8981526020019081526020015f205f3373ffffffffffffffffffffffffffffffffffffffff1673ffffffffffffffffffffffffffffffffffffffff1681526020019081526020015f2090505f846004015f8a81526020019081526020015f2090505f8054906101000a900473ffffffffffffffffffffffffffffffffffffffff1673ffffffffffffffffffffffffffffffffffffffff166108fc8590811502906040515f60405180830381858888f19350505050158015613580573d5f803e3d5ffd5b50833461358d919061503d565b60055f3373ffffffffffffffffffffffffffffffffffffffff1673ffffffffffffffffffffffffffffffffffffffff1681526020019081526020015f205f015f8282546135da91906151c2565b92505081905550826040518060e001604052803373ffffffffffffffffffffffffffffffffffffffff1681526020018634613615919061503d565b81526020018b81526020018c81526020016040518060400160405280600a81526020017f4d6f6e6579204c696e6500000000000000000000000000000000000000000000815250815260200142815260200160011515815250908060018154018082558091505060019003905f5260205f2090600702015f909190919091505f820151815f015f6101000a81548173ffffffffffffffffffffffffffffffffffffffff021916908373ffffffffffffffffffffffffffffffffffffffff160217905550602082015181600101556040820151816002015560608201518160030155608082015181600401908161370b9190615494565b5060a0820151816005015560c0820151816006015f6101000a81548160ff02191690831515021790555050503460065f8c81526020019081526020015f205f82825461375791906151c2565b925050819055503460075f8c81526020019081526020015f205f8b81526020019081526020015f205f82825461378d91906151c2565b9250508190555083346137a0919061503d565b855f015f8282546137b191906151c2565b9250508190555083346137c4919061503d565b856001015f8b81526020019081526020015f205f8282546137e591906151c2565b925050819055508785600201819055508685600301819055503373ffffffffffffffffffffffffffffffffffffffff1660085f8c81526020019081526020015f206005015f8b81526020019081526020015f205f3373ffffffffffffffffffffffffffffffffffffffff1673ffffffffffffffffffffffffffffffffffffffff1681526020019081526020015f205f015f9054906101000a900473ffffffffffffffffffffffffffffffffffffffff1673ffffffffffffffffffffffffffffffffffffffff1614613910578033908060018154018082558091505060019003905f5260205f20015f9091909190916101000a81548173ffffffffffffffffffffffffffffffffffffffff021916908373ffffffffffffffffffffffffffffffffffffffff1602179055505b33825f015f6101000a81548173ffffffffffffffffffffffffffffffffffffffff021916908373ffffffffffffffffffffffffffffffffffffffff160217905550833461395d919061503d565b826001015f82825461396f91906151c2565b925050819055508882600201819055508982600301819055506040518060400160405280600a81526020017f4d6f6e6579204c696e65000000000000000000000000000000000000000000008152508260040190816139ce9190615494565b504282600501819055506001826006015f6101000a81548160ff02191690831515021790555050505050505050505050565b5f8060075f8581526020019081526020015f205f8481526020019081526020015f205490505f60065f8681526020019081526020015f2054905080606483613a489190614ffc565b613a529190614fcc565b9250505092915050565b5f600a5f8381526020019081526020015f20600101549050919050565b3273ffffffffffffffffffffffffffffffffffffffff163373ffffffffffffffffffffffffffffffffffffffff1614613ab0575f80fd5b805f10613abb575f80fd5b613ac433611103565b15613acd575f80fd5b3373ffffffffffffffffffffffffffffffffffffffff16600a5f8781526020019081526020015f206005015f3373ffffffffffffffffffffffffffffffffffffffff1673ffffffffffffffffffffffffffffffffffffffff1681526020019081526020015f205f015f9054906101000a900473ffffffffffffffffffffffffffffffffffffffff1673ffffffffffffffffffffffffffffffffffffffff1603613b74575f80fd5b5f3411613b7f575f80fd5b5f600a5f8781526020019081526020015f2090505f801916600a5f8881526020019081526020015f206006015403613e1a575f6040518060400160405280600267ffffffffffffffff811115613bd857613bd7615253565b5b604051908082528060200260200182016040528015613c065781602001602082028036833780820191505090505b508152602001600267ffffffffffffffff811115613c2757613c26615253565b5b604051908082528060200260200182016040528015613c5a57816020015b6060815260200190600190039081613c455790505b5081525090506002815f01515f81518110613c7857613c77614f45565b5b60200260200101906004811115613c9257613c91615280565b5b90816004811115613ca657613ca5615280565b5b815250506004815f0151600181518110613cc357613cc2614f45565b5b60200260200101906004811115613cdd57613cdc615280565b5b90816004811115613cf157613cf0615280565b5b81525050613cfd61434f565b81602001515f81518110613d1457613d13614f45565b5b6020026020010181905250613dbb60038054613d2f9061509d565b80601f0160208091040260200160405190810160405280929190818152602001828054613d5b9061509d565b8015613da65780601f10613d7d57610100808354040283529160200191613da6565b820191905f5260205f20905b815481529060010190602001808311613d8957829003601f168201915b5050505050613db6308a87614365565b614394565b8160200151600181518110613dd357613dd2614f45565b5b6020026020010181905250613e1030638ee95f9f60e01b604051602001613dfa91906152e7565b604051602081830303815290604052835f6143c0565b8260060181905550505b5f6064600534613e2a9190614ffc565b613e349190614fcc565b90505f60055f3373ffffffffffffffffffffffffffffffffffffffff1673ffffffffffffffffffffffffffffffffffffffff1681526020019081526020015f2060010190505f836005015f3373ffffffffffffffffffffffffffffffffffffffff1673ffffffffffffffffffffffffffffffffffffffff1681526020019081526020015f2090505f8460040190505f8054906101000a900473ffffffffffffffffffffffffffffffffffffffff1673ffffffffffffffffffffffffffffffffffffffff166108fc8590811502906040515f60405180830381858888f19350505050158015613f24573d5f803e3d5ffd5b508334613f31919061503d565b60055f3373ffffffffffffffffffffffffffffffffffffffff1673ffffffffffffffffffffffffffffffffffffffff1681526020019081526020015f205f015f828254613f7e91906151c2565b92505081905550826040518060e001604052803373ffffffffffffffffffffffffffffffffffffffff1681526020018634613fb9919061503d565b81526020015f81526020018c81526020016040518060400160405280600b81526020017f506f696e7420546f74616c000000000000000000000000000000000000000000815250815260200142815260200160011515815250908060018154018082558091505060019003905f5260205f2090600702015f909190919091505f820151815f015f6101000a81548173ffffffffffffffffffffffffffffffffffffffff021916908373ffffffffffffffffffffffffffffffffffffffff16021790555060208201518160010155604082015181600201556060820151816003015560808201518160040190816140af9190615494565b5060a0820151816005015560c0820151816006015f6101000a81548160ff02191690831515021790555050503460065f8c81526020019081526020015f205f8282546140fb91906151c2565b9250508190555060023461410f9190614fcc565b60075f8c81526020019081526020015f205f8b81526020019081526020015f205f82825461413d91906151c2565b925050819055506002346141519190614fcc565b60075f8c81526020019081526020015f205f8a81526020019081526020015f205f82825461417f91906151c2565b925050819055508334614192919061503d565b856001015f8282546141a491906151c2565b9250508190555088856002018190555087856003018190555086855f015f3373ffffffffffffffffffffffffffffffffffffffff1673ffffffffffffffffffffffffffffffffffffffff1681526020019081526020015f20819055508033908060018154018082558091505060019003905f5260205f20015f9091909190916101000a81548173ffffffffffffffffffffffffffffffffffffffff021916908373ffffffffffffffffffffffffffffffffffffffff16021790555033825f015f6101000a81548173ffffffffffffffffffffffffffffffffffffffff021916908373ffffffffffffffffffffffffffffffffffffffff16021790555083346142ac919061503d565b826001015f8282546142be91906151c2565b925050819055505f82600201819055508982600301819055506040518060400160405280600b81526020017f506f696e7420546f74616c00000000000000000000000000000000000000000081525082600401908161431d9190615494565b504282600501819055506001826006015f6101000a81548160ff02191690831515021790555050505050505050505050565b606060405180602001604052805f815250905090565b606083838360405160200161437c9392919061563c565b60405160208183030381529060405290509392505050565b606082826040516020016143a99291906156fb565b604051602081830303815290604052905092915050565b5f7f000000000000000000000000000000000000000000000000000000000000000073ffffffffffffffffffffffffffffffffffffffff16633323b467868686866040518563ffffffff1660e01b81526004016144209493929190615962565b6020604051808303815f875af115801561443c573d5f803e3d5ffd5b505050506040513d601f19601f8201168201806040525081019061446091906159dd565b9050949350505050565b73eeeeeeeeeeeeeeeeeeeeeeeeeeeeeeeeeeeeeeee73ffffffffffffffffffffffffffffffffffffffff168273ffffffffffffffffffffffffffffffffffffffff160361457557600546146144f4576040517f08c379a00000000000000000000000000000000000000000000000000000000081526004016144eb90615a52565b60405180910390fd5b737506c12a824d73d9b08564d5afc22c949434755e73ffffffffffffffffffffffffffffffffffffffff166333bb7f9184836040518363ffffffff1660e01b81526004016145429190614807565b5f604051808303818588803b158015614559575f80fd5b505af115801561456b573d5f803e3d5ffd5b5050505050614712565b6089461480156145c45750732791bca1f2de4661ed88a30c99a7a9449aa8417473ffffffffffffffffffffffffffffffffffffffff168273ffffffffffffffffffffffffffffffffffffffff16145b614603576040517f08c379a00000000000000000000000000000000000000000000000000000000081526004016145fa90615aba565b60405180910390fd5b8173ffffffffffffffffffffffffffffffffffffffff1663095ea7b3737506c12a824d73d9b08564d5afc22c949434755e856040518363ffffffff1660e01b8152600401614652929190615ad8565b6020604051808303815f875af115801561466e573d5f803e3d5ffd5b505050506040513d601f19601f820116820180604052508101906146929190615b29565b50737506c12a824d73d9b08564d5afc22c949434755e73ffffffffffffffffffffffffffffffffffffffff1663fb0f97a88284866040518463ffffffff1660e01b81526004016146e493929190615b54565b5f604051808303815f87803b1580156146fb575f80fd5b505af115801561470d573d5f803e3d5ffd5b505050505b505050565b6040518060e001604052805f73ffffffffffffffffffffffffffffffffffffffff1681526020015f81526020015f81526020015f8152602001606081526020015f81526020015f151581525090565b5f80fd5b5f819050919050565b61477c8161476a565b8114614786575f80fd5b50565b5f8135905061479781614773565b92915050565b5f602082840312156147b2576147b1614766565b5b5f6147bf84828501614789565b91505092915050565b5f73ffffffffffffffffffffffffffffffffffffffff82169050919050565b5f6147f1826147c8565b9050919050565b614801816147e7565b82525050565b5f60208201905061481a5f8301846147f8565b92915050565b5f805f6060848603121561483757614836614766565b5b5f61484486828701614789565b935050602061485586828701614789565b925050604061486686828701614789565b9150509250925092565b5f819050919050565b5f61489361488e614889846147c8565b614870565b6147c8565b9050919050565b5f6148a482614879565b9050919050565b5f6148b58261489a565b9050919050565b6148c5816148ab565b82525050565b5f6020820190506148de5f8301846148bc565b92915050565b6148ed816147e7565b81146148f7575f80fd5b50565b5f81359050614908816148e4565b92915050565b5f6020828403121561492357614922614766565b5b5f614930848285016148fa565b91505092915050565b5f8115159050919050565b61494d81614939565b82525050565b5f6020820190506149665f830184614944565b92915050565b6149758161476a565b82525050565b5f60208201905061498e5f83018461496c565b92915050565b5f819050919050565b6149a681614994565b82525050565b5f6080820190506149bf5f83018761496c565b6149cc602083018661496c565b6149d9604083018561496c565b6149e6606083018461499d565b95945050505050565b5f8060408385031215614a0557614a04614766565b5b5f614a1285828601614789565b9250506020614a2385828601614789565b9150509250929050565b5f81519050919050565b5f82825260208201905092915050565b5f819050602082019050919050565b614a5f816147e7565b82525050565b614a6e8161476a565b82525050565b5f81519050919050565b5f82825260208201905092915050565b5f5b83811015614aab578082015181840152602081019050614a90565b5f8484015250505050565b5f601f19601f8301169050919050565b5f614ad082614a74565b614ada8185614a7e565b9350614aea818560208601614a8e565b614af381614ab6565b840191505092915050565b614b0781614939565b82525050565b5f60e083015f830151614b225f860182614a56565b506020830151614b356020860182614a65565b506040830151614b486040860182614a65565b506060830151614b5b6060860182614a65565b5060808301518482036080860152614b738282614ac6565b91505060a0830151614b8860a0860182614a65565b5060c0830151614b9b60c0860182614afe565b508091505092915050565b5f614bb18383614b0d565b905092915050565b5f602082019050919050565b5f614bcf82614a2d565b614bd98185614a37565b935083602082028501614beb85614a47565b805f5b85811015614c265784840389528151614c078582614ba6565b9450614c1283614bb9565b925060208a01995050600181019050614bee565b50829750879550505050505092915050565b5f6020820190508181035f830152614c508184614bc5565b905092915050565b5f60e083015f830151614c6d5f860182614a56565b506020830151614c806020860182614a65565b506040830151614c936040860182614a65565b506060830151614ca66060860182614a65565b5060808301518482036080860152614cbe8282614ac6565b91505060a0830151614cd360a0860182614a65565b5060c0830151614ce660c0860182614afe565b508091505092915050565b5f6020820190508181035f830152614d098184614c58565b905092915050565b5f614d1b8261489a565b9050919050565b614d2b81614d11565b82525050565b5f602082019050614d445f830184614d22565b92915050565b5f819050919050565b614d5c81614d4a565b8114614d66575f80fd5b50565b5f81359050614d7781614d53565b92915050565b5f805f805f8060c08789031215614d9757614d96614766565b5b5f614da489828a01614789565b9650506020614db589828a01614789565b9550506040614dc689828a01614789565b9450506060614dd789828a01614789565b9350506080614de889828a01614d69565b92505060a0614df989828a01614789565b9150509295509295509295565b5f805f60608486031215614e1d57614e1c614766565b5b5f614e2a86828701614789565b9350506020614e3b86828701614d69565b9250506040614e4c86828701614d69565b9150509250925092565b5f805f805f60a08688031215614e6f57614e6e614766565b5b5f614e7c88828901614789565b9550506020614e8d88828901614789565b9450506040614e9e88828901614789565b9350506060614eaf88828901614789565b9250506080614ec088828901614789565b9150509295509295909350565b5f82825260208201905092915050565b7f4f6e6c7920646564696361746564206d73672e73656e646572000000000000005f82015250565b5f614f11601983614ecd565b9150614f1c82614edd565b602082019050919050565b5f6020820190508181035f830152614f3e81614f05565b9050919050565b7f4e487b71000000000000000000000000000000000000000000000000000000005f52603260045260245ffd5b7f4e487b71000000000000000000000000000000000000000000000000000000005f52601260045260245ffd5b7f4e487b71000000000000000000000000000000000000000000000000000000005f52601160045260245ffd5b5f614fd68261476a565b9150614fe18361476a565b925082614ff157614ff0614f72565b5b828204905092915050565b5f6150068261476a565b91506150118361476a565b925082820261501f8161476a565b9150828204841483151761503657615035614f9f565b5b5092915050565b5f6150478261476a565b91506150528361476a565b925082820390508181111561506a57615069614f9f565b5b92915050565b7f4e487b71000000000000000000000000000000000000000000000000000000005f52602260045260245ffd5b5f60028204905060018216806150b457607f821691505b6020821081036150c7576150c6615070565b5b50919050565b5f81905092915050565b7f4d6f6e6579204c696e65000000000000000000000000000000000000000000005f82015250565b5f61510b600a836150cd565b9150615116826150d7565b600a82019050919050565b5f61512b826150ff565b9150819050919050565b5f61513f82614a74565b61514981856150cd565b9350615159818560208601614a8e565b80840191505092915050565b5f6151708284615135565b915081905092915050565b5f6151858261476a565b91507fffffffffffffffffffffffffffffffffffffffffffffffffffffffffffffffff82036151b7576151b6614f9f565b5b600182019050919050565b5f6151cc8261476a565b91506151d78361476a565b92508282019050808211156151ef576151ee614f9f565b5b92915050565b7f506f696e7420546f74616c0000000000000000000000000000000000000000005f82015250565b5f615229600b836150cd565b9150615234826151f5565b600b82019050919050565b5f6152498261521d565b9150819050919050565b7f4e487b71000000000000000000000000000000000000000000000000000000005f52604160045260245ffd5b7f4e487b71000000000000000000000000000000000000000000000000000000005f52602160045260245ffd5b5f7fffffffff0000000000000000000000000000000000000000000000000000000082169050919050565b6152e1816152ad565b82525050565b5f6020820190506152fa5f8301846152d8565b92915050565b5f819050815f5260205f209050919050565b5f6020601f8301049050919050565b5f82821b905092915050565b5f6008830261535c7fffffffffffffffffffffffffffffffffffffffffffffffffffffffffffffffff82615321565b6153668683615321565b95508019841693508086168417925050509392505050565b5f61539861539361538e8461476a565b614870565b61476a565b9050919050565b5f819050919050565b6153b18361537e565b6153c56153bd8261539f565b84845461532d565b825550505050565b5f90565b6153d96153cd565b6153e48184846153a8565b505050565b5b81811015615407576153fc5f826153d1565b6001810190506153ea565b5050565b601f82111561544c5761541d81615300565b61542684615312565b81016020851015615435578190505b61544961544185615312565b8301826153e9565b50505b505050565b5f82821c905092915050565b5f61546c5f1984600802615451565b1980831691505092915050565b5f615484838361545d565b9150826002028217905092915050565b61549d82614a74565b67ffffffffffffffff8111156154b6576154b5615253565b5b6154c0825461509d565b6154cb82828561540b565b5f60209050601f8311600181146154fc575f84156154ea578287015190505b6154f48582615479565b86555061555b565b601f19841661550a86615300565b5f5b828110156155315784890151825560018201915060208501945060208101905061550c565b8683101561554e578489015161554a601f89168261545d565b8355505b6001600288020188555050505b505050505050565b5f61556d82614d4a565b915061557883614d4a565b92508282019050828112155f8312168382125f84121516171561559e5761559d614f9f565b5b92915050565b5f819050919050565b6155be6155b98261476a565b6155a4565b82525050565b5f6155cf82846155ad565b60208201915081905092915050565b7f506f696e742053707265616400000000000000000000000000000000000000005f82015250565b5f615612600c836150cd565b915061561d826155de565b600c82019050919050565b5f61563282615606565b9150819050919050565b5f60608201905061564f5f8301866147f8565b61565c602083018561496c565b615669604083018461496c565b949350505050565b5f61567b82614a74565b6156858185614ecd565b9350615695818560208601614a8e565b61569e81614ab6565b840191505092915050565b5f81519050919050565b5f82825260208201905092915050565b5f6156cd826156a9565b6156d781856156b3565b93506156e7818560208601614a8e565b6156f081614ab6565b840191505092915050565b5f6040820190508181035f8301526157138185615671565b9050818103602083015261572781846156c3565b90509392505050565b5f81519050919050565b5f82825260208201905092915050565b5f819050602082019050919050565b6005811061576a57615769615280565b5b50565b5f81905061577a82615759565b919050565b5f6157898261576d565b9050919050565b6157998161577f565b82525050565b5f6157aa8383615790565b60208301905092915050565b5f602082019050919050565b5f6157cc82615730565b6157d6818561573a565b93506157e18361574a565b805f5b838110156158115781516157f8888261579f565b9750615803836157b6565b9250506001810190506157e4565b5085935050505092915050565b5f81519050919050565b5f82825260208201905092915050565b5f819050602082019050919050565b5f82825260208201905092915050565b5f615861826156a9565b61586b8185615847565b935061587b818560208601614a8e565b61588481614ab6565b840191505092915050565b5f61589a8383615857565b905092915050565b5f602082019050919050565b5f6158b88261581e565b6158c28185615828565b9350836020820285016158d485615838565b805f5b8581101561590f57848403895281516158f0858261588f565b94506158fb836158a2565b925060208a019950506001810190506158d7565b50829750879550505050505092915050565b5f604083015f8301518482035f86015261593b82826157c2565b9150506020830151848203602086015261595582826158ae565b9150508091505092915050565b5f6080820190506159755f8301876147f8565b818103602083015261598781866156c3565b9050818103604083015261599b8185615921565b90506159aa60608301846147f8565b95945050505050565b6159bc81614994565b81146159c6575f80fd5b50565b5f815190506159d7816159b3565b92915050565b5f602082840312156159f2576159f1614766565b5b5f6159ff848285016159c9565b91505092915050565b7f4f6e6c79206465706f73697420455448206f6e20676f65726c690000000000005f82015250565b5f615a3c601a83614ecd565b9150615a4782615a08565b602082019050919050565b5f6020820190508181035f830152615a6981615a30565b9050919050565b7f4f6e6c79206465706f7369742055534443206f6e20706f6c79676f6e000000005f82015250565b5f615aa4601c83614ecd565b9150615aaf82615a70565b602082019050919050565b5f6020820190508181035f830152615ad181615a98565b9050919050565b5f604082019050615aeb5f8301856147f8565b615af8602083018461496c565b9392505050565b615b0881614939565b8114615b12575f80fd5b50565b5f81519050615b2381615aff565b92915050565b5f60208284031215615b3e57615b3d614766565b5b5f615b4b84828501615b15565b91505092915050565b5f606082019050615b675f8301866147f8565b615b7460208301856147f8565b615b81604083018461496c565b94935050505056fea264697066735822122070a62df209f144ef98125d4e8fe3eab5f572d77d3774fdf38d72bcbb97d151bb64736f6c63430008150033",
  "linkReferences": {},
  "deployedLinkReferences": {}
}