{
  "_format": "hh-sol-artifact-1",
  "contractName": "Bet",
  "sourceName": "contracts/Bet.sol",
  "abi": [
    {
      "inputs": [],
      "stateMutability": "nonpayable",
      "type": "constructor"
    },
    {
      "inputs": [],
      "name": "automate",
      "outputs": [
        {
          "internalType": "contract IAutomate",
          "name": "",
          "type": "address"
        }
      ],
      "stateMutability": "view",
      "type": "function"
    },
    {
      "inputs": [],
      "name": "dedicatedMsgSender",
      "outputs": [
        {
          "internalType": "address",
          "name": "",
          "type": "address"
        }
      ],
      "stateMutability": "view",
      "type": "function"
    },
    {
      "inputs": [],
      "name": "depositForCounter",
      "outputs": [],
      "stateMutability": "payable",
      "type": "function"
    },
    {
      "inputs": [],
      "name": "fundsOwner",
      "outputs": [
        {
          "internalType": "address",
          "name": "",
          "type": "address"
        }
      ],
      "stateMutability": "view",
      "type": "function"
    },
    {
      "inputs": [],
      "name": "gelato1Balance",
      "outputs": [
        {
          "internalType": "contract IGelato1Balance",
          "name": "",
          "type": "address"
        }
      ],
      "stateMutability": "view",
      "type": "function"
    },
    {
      "inputs": [
        {
          "internalType": "uint256",
          "name": "",
          "type": "uint256"
        }
      ],
      "name": "home_team_score",
      "outputs": [
        {
          "internalType": "uint256",
          "name": "",
          "type": "uint256"
        }
      ],
      "stateMutability": "view",
      "type": "function"
    },
    {
      "inputs": [
        {
          "internalType": "address",
          "name": "user",
          "type": "address"
        },
        {
          "internalType": "uint256",
          "name": "gameID",
          "type": "uint256"
        },
        {
          "internalType": "uint256",
          "name": "teamID",
          "type": "uint256"
        },
        {
          "internalType": "uint256",
          "name": "homeTeamID",
          "type": "uint256"
        },
        {
          "internalType": "uint256",
          "name": "awayTeamID",
          "type": "uint256"
        },
        {
          "internalType": "uint256",
          "name": "startTime",
          "type": "uint256"
        }
      ],
      "name": "moneyLineBet",
      "outputs": [],
      "stateMutability": "payable",
      "type": "function"
    },
    {
      "inputs": [
        {
          "internalType": "uint256",
          "name": "",
          "type": "uint256"
        }
      ],
      "name": "newMoneyLineBet",
      "outputs": [
        {
          "internalType": "uint256",
          "name": "startTime",
          "type": "uint256"
        },
        {
          "internalType": "uint256",
          "name": "total",
          "type": "uint256"
        },
        {
          "internalType": "uint256",
          "name": "homeTeamID",
          "type": "uint256"
        },
        {
          "internalType": "uint256",
          "name": "awayTeamID",
          "type": "uint256"
        },
        {
          "internalType": "uint256",
          "name": "result",
          "type": "uint256"
        }
      ],
      "stateMutability": "view",
      "type": "function"
    },
    {
      "inputs": [
        {
          "internalType": "uint256",
          "name": "",
          "type": "uint256"
        }
      ],
      "name": "newPointSpreadBet",
      "outputs": [
        {
          "internalType": "uint256",
          "name": "startTime",
          "type": "uint256"
        },
        {
          "internalType": "uint256",
          "name": "total",
          "type": "uint256"
        },
        {
          "internalType": "uint256",
          "name": "homeTeamID",
          "type": "uint256"
        },
        {
          "internalType": "uint256",
          "name": "awayTeamID",
          "type": "uint256"
        },
        {
          "internalType": "uint256",
          "name": "result",
          "type": "uint256"
        }
      ],
      "stateMutability": "view",
      "type": "function"
    },
    {
      "inputs": [
        {
          "internalType": "uint256",
          "name": "",
          "type": "uint256"
        }
      ],
      "name": "newPointTotalBet",
      "outputs": [
        {
          "internalType": "uint256",
          "name": "pointAmount",
          "type": "uint256"
        },
        {
          "internalType": "uint256",
          "name": "startTime",
          "type": "uint256"
        },
        {
          "internalType": "uint256",
          "name": "total",
          "type": "uint256"
        },
        {
          "internalType": "uint256",
          "name": "homeTeamID",
          "type": "uint256"
        },
        {
          "internalType": "uint256",
          "name": "awayTeamID",
          "type": "uint256"
        },
        {
          "internalType": "int256",
          "name": "result",
          "type": "int256"
        }
      ],
      "stateMutability": "view",
      "type": "function"
    },
    {
      "inputs": [
        {
          "internalType": "address",
          "name": "user",
          "type": "address"
        },
        {
          "internalType": "uint256",
          "name": "gameID",
          "type": "uint256"
        },
        {
          "internalType": "uint256",
          "name": "teamID",
          "type": "uint256"
        },
        {
          "internalType": "uint256",
          "name": "homeTeamID",
          "type": "uint256"
        },
        {
          "internalType": "uint256",
          "name": "awayTeamID",
          "type": "uint256"
        },
        {
          "internalType": "uint256",
          "name": "startTime",
          "type": "uint256"
        },
        {
          "internalType": "int256",
          "name": "spread",
          "type": "int256"
        }
      ],
      "name": "pointSpreadBet",
      "outputs": [],
      "stateMutability": "payable",
      "type": "function"
    },
    {
      "inputs": [
        {
          "internalType": "address",
          "name": "user",
          "type": "address"
        },
        {
          "internalType": "uint256",
          "name": "gameID",
          "type": "uint256"
        },
        {
          "internalType": "uint256",
          "name": "pointAmount",
          "type": "uint256"
        },
        {
          "internalType": "uint256",
          "name": "homeTeamID",
          "type": "uint256"
        },
        {
          "internalType": "uint256",
          "name": "awayTeamID",
          "type": "uint256"
        },
        {
          "internalType": "uint256",
          "name": "startTime",
          "type": "uint256"
        },
        {
          "internalType": "int256",
          "name": "value",
          "type": "int256"
        }
      ],
      "name": "pointTotalBet",
      "outputs": [],
      "stateMutability": "payable",
      "type": "function"
    },
    {
      "inputs": [],
      "name": "returnEscrow",
      "outputs": [
        {
          "internalType": "uint256",
          "name": "",
          "type": "uint256"
        }
      ],
      "stateMutability": "view",
      "type": "function"
    },
    {
      "inputs": [
        {
          "internalType": "uint256",
          "name": "gameID",
          "type": "uint256"
        },
        {
          "internalType": "uint256",
          "name": "teamID",
          "type": "uint256"
        }
      ],
      "name": "returnMoneyLineBetReceipt",
      "outputs": [
        {
          "components": [
            {
              "internalType": "address",
              "name": "addr",
              "type": "address"
            },
            {
              "internalType": "uint256",
              "name": "amount",
              "type": "uint256"
            },
            {
              "internalType": "uint256",
              "name": "teamID",
              "type": "uint256"
            },
            {
              "internalType": "uint256",
              "name": "gameID",
              "type": "uint256"
            },
            {
              "internalType": "string",
              "name": "betType",
              "type": "string"
            },
            {
              "internalType": "uint256",
              "name": "time",
              "type": "uint256"
            }
          ],
          "internalType": "struct Bet.Transaction",
          "name": "",
          "type": "tuple"
        }
      ],
      "stateMutability": "view",
      "type": "function"
    },
    {
      "inputs": [
        {
          "internalType": "uint256",
          "name": "gameID",
          "type": "uint256"
        }
      ],
      "name": "returnMoneyLineStartTime",
      "outputs": [
        {
          "internalType": "uint256",
          "name": "",
          "type": "uint256"
        }
      ],
      "stateMutability": "view",
      "type": "function"
    },
    {
      "inputs": [
        {
          "internalType": "uint256",
          "name": "gameID",
          "type": "uint256"
        },
        {
          "internalType": "uint256",
          "name": "teamID",
          "type": "uint256"
        }
      ],
      "name": "returnMoneyLineUsersArray",
      "outputs": [
        {
          "internalType": "address payable[]",
          "name": "",
          "type": "address[]"
        }
      ],
      "stateMutability": "view",
      "type": "function"
    },
    {
      "inputs": [
        {
          "internalType": "uint256",
          "name": "gameID",
          "type": "uint256"
        },
        {
          "internalType": "uint256",
          "name": "bettingTeamID",
          "type": "uint256"
        }
      ],
      "name": "returnOdds",
      "outputs": [
        {
          "internalType": "uint256",
          "name": "",
          "type": "uint256"
        }
      ],
      "stateMutability": "view",
      "type": "function"
    },
    {
      "inputs": [
        {
          "internalType": "uint256",
          "name": "gameID",
          "type": "uint256"
        },
        {
          "internalType": "uint256",
          "name": "teamID",
          "type": "uint256"
        }
      ],
      "name": "returnPointSpreadBetReceipt",
      "outputs": [
        {
          "components": [
            {
              "internalType": "address",
              "name": "addr",
              "type": "address"
            },
            {
              "internalType": "uint256",
              "name": "amount",
              "type": "uint256"
            },
            {
              "internalType": "uint256",
              "name": "teamID",
              "type": "uint256"
            },
            {
              "internalType": "uint256",
              "name": "gameID",
              "type": "uint256"
            },
            {
              "internalType": "string",
              "name": "betType",
              "type": "string"
            },
            {
              "internalType": "uint256",
              "name": "time",
              "type": "uint256"
            }
          ],
          "internalType": "struct Bet.Transaction",
          "name": "",
          "type": "tuple"
        }
      ],
      "stateMutability": "view",
      "type": "function"
    },
    {
      "inputs": [
        {
          "internalType": "uint256",
          "name": "gameID",
          "type": "uint256"
        },
        {
          "internalType": "uint256",
          "name": "teamID",
          "type": "uint256"
        }
      ],
      "name": "returnPointSpreadGameAmount",
      "outputs": [
        {
          "internalType": "int256",
          "name": "",
          "type": "int256"
        }
      ],
      "stateMutability": "view",
      "type": "function"
    },
    {
      "inputs": [
        {
          "internalType": "uint256",
          "name": "gameID",
          "type": "uint256"
        },
        {
          "internalType": "uint256",
          "name": "teamID",
          "type": "uint256"
        }
      ],
      "name": "returnPointSpreadUsersArray",
      "outputs": [
        {
          "internalType": "address payable[]",
          "name": "",
          "type": "address[]"
        }
      ],
      "stateMutability": "view",
      "type": "function"
    },
    {
      "inputs": [
        {
          "internalType": "uint256",
          "name": "gameID",
          "type": "uint256"
        },
        {
          "internalType": "int256",
          "name": "value",
          "type": "int256"
        }
      ],
      "name": "returnPointTotalBetReceipt",
      "outputs": [
        {
          "components": [
            {
              "internalType": "address",
              "name": "addr",
              "type": "address"
            },
            {
              "internalType": "uint256",
              "name": "amount",
              "type": "uint256"
            },
            {
              "internalType": "uint256",
              "name": "teamID",
              "type": "uint256"
            },
            {
              "internalType": "uint256",
              "name": "gameID",
              "type": "uint256"
            },
            {
              "internalType": "string",
              "name": "betType",
              "type": "string"
            },
            {
              "internalType": "uint256",
              "name": "time",
              "type": "uint256"
            }
          ],
          "internalType": "struct Bet.Transaction",
          "name": "",
          "type": "tuple"
        }
      ],
      "stateMutability": "view",
      "type": "function"
    },
    {
      "inputs": [
        {
          "internalType": "uint256",
          "name": "gameID",
          "type": "uint256"
        }
      ],
      "name": "returnPointTotalGameAmount",
      "outputs": [
        {
          "internalType": "uint256",
          "name": "",
          "type": "uint256"
        }
      ],
      "stateMutability": "view",
      "type": "function"
    },
    {
      "inputs": [
        {
          "internalType": "uint256",
          "name": "gameID",
          "type": "uint256"
        },
        {
          "internalType": "int256",
          "name": "value",
          "type": "int256"
        }
      ],
      "name": "returnPointTotalUsersArray",
      "outputs": [
        {
          "internalType": "address payable[]",
          "name": "",
          "type": "address[]"
        }
      ],
      "stateMutability": "view",
      "type": "function"
    },
    {
      "inputs": [],
      "name": "returnReceipts",
      "outputs": [
        {
          "components": [
            {
              "internalType": "address",
              "name": "addr",
              "type": "address"
            },
            {
              "internalType": "uint256",
              "name": "amount",
              "type": "uint256"
            },
            {
              "internalType": "uint256",
              "name": "teamID",
              "type": "uint256"
            },
            {
              "internalType": "uint256",
              "name": "gameID",
              "type": "uint256"
            },
            {
              "internalType": "string",
              "name": "betType",
              "type": "string"
            },
            {
              "internalType": "uint256",
              "name": "time",
              "type": "uint256"
            }
          ],
          "internalType": "struct Bet.Transaction[]",
          "name": "",
          "type": "tuple[]"
        }
      ],
      "stateMutability": "view",
      "type": "function"
    },
    {
      "inputs": [
        {
          "internalType": "uint256",
          "name": "gameID",
          "type": "uint256"
        }
      ],
      "name": "rewardMoneyLineWinners",
      "outputs": [],
      "stateMutability": "nonpayable",
      "type": "function"
    },
    {
      "inputs": [
        {
          "internalType": "uint256",
          "name": "",
          "type": "uint256"
        }
      ],
      "name": "totalBetOnGame",
      "outputs": [
        {
          "internalType": "uint256",
          "name": "",
          "type": "uint256"
        }
      ],
      "stateMutability": "view",
      "type": "function"
    },
    {
      "inputs": [
        {
          "internalType": "uint256",
          "name": "",
          "type": "uint256"
        },
        {
          "internalType": "uint256",
          "name": "",
          "type": "uint256"
        }
      ],
      "name": "totalBetOnTeam",
      "outputs": [
        {
          "internalType": "uint256",
          "name": "",
          "type": "uint256"
        }
      ],
      "stateMutability": "view",
      "type": "function"
    },
    {
      "inputs": [],
      "name": "transferEther",
      "outputs": [],
      "stateMutability": "nonpayable",
      "type": "function"
    },
    {
      "inputs": [
        {
          "internalType": "address",
          "name": "",
          "type": "address"
        }
      ],
      "name": "userReceipts",
      "outputs": [
        {
          "internalType": "uint256",
          "name": "escrow",
          "type": "uint256"
        }
      ],
      "stateMutability": "view",
      "type": "function"
    },
    {
      "inputs": [
        {
          "internalType": "uint256",
          "name": "",
          "type": "uint256"
        }
      ],
      "name": "visitor_team_score",
      "outputs": [
        {
          "internalType": "uint256",
          "name": "",
          "type": "uint256"
        }
      ],
      "stateMutability": "view",
      "type": "function"
    }
  ],
  "bytecode": "0x6101006040523480156200001257600080fd5b50732a6c106ae13b558bb9e2ec64bd2f1f7beff3a5e03081308173ffffffffffffffffffffffffffffffffffffffff1660808173ffffffffffffffffffffffffffffffffffffffff16815250508173ffffffffffffffffffffffffffffffffffffffff1663573ea5756040518163ffffffff1660e01b8152600401602060405180830381865afa158015620000ab573d6000803e3d6000fd5b505050506040513d601f19601f82011682018060405250810190620000d191906200039b565b73ffffffffffffffffffffffffffffffffffffffff1660c08173ffffffffffffffffffffffffffffffffffffffff168152505060008273ffffffffffffffffffffffffffffffffffffffff1663cd3d4fb960026040518263ffffffff1660e01b81526004016200014291906200044d565b602060405180830381865afa15801562000160573d6000803e3d6000fd5b505050506040513d601f19601f82011682018060405250810190620001869190620004af565b905060008173ffffffffffffffffffffffffffffffffffffffff1663ba1d0ff46040518163ffffffff1660e01b8152600401602060405180830381865afa158015620001d6573d6000803e3d6000fd5b505050506040513d601f19601f82011682018060405250810190620001fc9190620004af565b90508073ffffffffffffffffffffffffffffffffffffffff1663ded89a7c846040518263ffffffff1660e01b8152600401620002399190620004f2565b6040805180830381865afa15801562000256573d6000803e3d6000fd5b505050506040513d601f19601f820116820180604052508101906200027c91906200054c565b508073ffffffffffffffffffffffffffffffffffffffff1660a09073ffffffffffffffffffffffffffffffffffffffff1681525050505050508073ffffffffffffffffffffffffffffffffffffffff1660e08173ffffffffffffffffffffffffffffffffffffffff16815250505050336000806101000a81548173ffffffffffffffffffffffffffffffffffffffff021916908373ffffffffffffffffffffffffffffffffffffffff16021790555062000593565b600080fd5b600073ffffffffffffffffffffffffffffffffffffffff82169050919050565b6000620003638262000336565b9050919050565b620003758162000356565b81146200038157600080fd5b50565b60008151905062000395816200036a565b92915050565b600060208284031215620003b457620003b362000331565b5b6000620003c48482850162000384565b91505092915050565b7f4e487b7100000000000000000000000000000000000000000000000000000000600052602160045260246000fd5b6005811062000410576200040f620003cd565b5b50565b60008190506200042382620003fc565b919050565b6000620004358262000413565b9050919050565b620004478162000428565b82525050565b60006020820190506200046460008301846200043c565b92915050565b6000620004778262000336565b9050919050565b62000489816200046a565b81146200049557600080fd5b50565b600081519050620004a9816200047e565b92915050565b600060208284031215620004c857620004c762000331565b5b6000620004d88482850162000498565b91505092915050565b620004ec816200046a565b82525050565b6000602082019050620005096000830184620004e1565b92915050565b60008115159050919050565b62000526816200050f565b81146200053257600080fd5b50565b60008151905062000546816200051b565b92915050565b6000806040838503121562000566576200056562000331565b5b6000620005768582860162000498565b9250506020620005898582860162000535565b9150509250929050565b60805160a05160c05160e051614666620005d86000396000610b030152600050506000818161090b0152610b270152600081816107cb015261318e01526146666000f3fe6080604052600436106101cd5760003560e01c806380eb6d04116100f7578063a59cba0211610095578063c9b25f0f11610064578063c9b25f0f146106fb578063ccb7ed4514610712578063f227ce4d1461074f578063f6d7c7591461078c576101cd565b8063a59cba0214610656578063a910e4a514610672578063a91faba2146106af578063b9cafa96146106f1576101cd565b80638697ac4e116100d15780638697ac4e1461057f5780638edd3971146105bc57806392a25a64146105fd578063a4786f3d14610619576101cd565b806380eb6d04146104e957806380ee79c114610526578063835f3fec14610563576101cd565b80633946f6661161016f57806368989a921161013e57806368989a92146104075780636bd4c7c0146104445780637e960916146104815780637ea4178a146104be576101cd565b80633946f6661461035d57806346ee3c59146103885780635658fa10146103b357806357fb1d67146103dc576101cd565b80632429827f116101ab5780632429827f14610277578063245a2fad146102b857806328f150eb146102f55780632b3a4ef614610320576101cd565b8063049aacfe146101d257806308c27e5a146101fd57806323821c211461023a575b600080fd5b3480156101de57600080fd5b506101e76107c9565b6040516101f491906134b6565b60405180910390f35b34801561020957600080fd5b50610224600480360381019061021f919061350c565b6107ed565b604051610231919061361c565b60405180910390f35b34801561024657600080fd5b50610261600480360381019061025c919061363e565b6108a3565b60405161026e919061367a565b60405180910390f35b34801561028357600080fd5b5061029e6004803603810190610299919061363e565b6108bb565b6040516102af959493929190613695565b60405180910390f35b3480156102c457600080fd5b506102df60048036038101906102da919061363e565b6108f1565b6040516102ec919061367a565b60405180910390f35b34801561030157600080fd5b5061030a610909565b6040516103179190613709565b60405180910390f35b34801561032c57600080fd5b506103476004803603810190610342919061350c565b61092d565b604051610354919061367a565b60405180910390f35b34801561036957600080fd5b50610372610952565b60405161037f9190613926565b60405180910390f35b34801561039457600080fd5b5061039d610b01565b6040516103aa9190613709565b60405180910390f35b3480156103bf57600080fd5b506103da60048036038101906103d5919061363e565b610b25565b005b3480156103e857600080fd5b506103f1611135565b6040516103fe9190613969565b60405180910390f35b34801561041357600080fd5b5061042e6004803603810190610429919061363e565b61114d565b60405161043b919061367a565b60405180910390f35b34801561045057600080fd5b5061046b6004803603810190610466919061350c565b61116d565b6040516104789190613a0d565b60405180910390f35b34801561048d57600080fd5b506104a860048036038101906104a3919061363e565b6112fc565b6040516104b5919061367a565b60405180910390f35b3480156104ca57600080fd5b506104d361131c565b6040516104e0919061367a565b60405180910390f35b3480156104f557600080fd5b50610510600480360381019061050b919061363e565b611366565b60405161051d919061367a565b60405180910390f35b34801561053257600080fd5b5061054d60048036038101906105489190613a65565b61137e565b60405161055a9190613a0d565b60405180910390f35b61057d60048036038101906105789190613ad1565b61150d565b005b34801561058b57600080fd5b506105a660048036038101906105a1919061350c565b611b4a565b6040516105b3919061361c565b60405180910390f35b3480156105c857600080fd5b506105e360048036038101906105de919061363e565b611c00565b6040516105f4959493929190613695565b60405180910390f35b61061760048036038101906106129190613b73565b611c36565b005b34801561062557600080fd5b50610640600480360381019061063b9190613c00565b612573565b60405161064d919061367a565b60405180910390f35b610670600480360381019061066b9190613ad1565b612591565b005b34801561067e57600080fd5b506106996004803603810190610694919061350c565b612c64565b6040516106a69190613a0d565b60405180910390f35b3480156106bb57600080fd5b506106d660048036038101906106d1919061363e565b612df3565b6040516106e896959493929190613c3c565b60405180910390f35b6106f9612e2f565b005b34801561070757600080fd5b50610710612efe565b005b34801561071e57600080fd5b506107396004803603810190610734919061350c565b612ff5565b6040516107469190613c9d565b60405180910390f35b34801561075b57600080fd5b506107766004803603810190610771919061350c565b613027565b604051610783919061367a565b60405180910390f35b34801561079857600080fd5b506107b360048036038101906107ae9190613a65565b613091565b6040516107c0919061361c565b60405180910390f35b7f000000000000000000000000000000000000000000000000000000000000000081565b606060056000848152602001908152602001600020600601600083815260200190815260200160002080548060200260200160405190810160405280929190818152602001828054801561089657602002820191906000526020600020905b8160009054906101000a900473ffffffffffffffffffffffffffffffffffffffff1673ffffffffffffffffffffffffffffffffffffffff168152602001906001019080831161084c575b5050505050905092915050565b60026020528060005260406000206000915090505481565b60056020528060005260406000206000915090508060010154908060020154908060040154908060050154908060080154905085565b60076020528060005260406000206000915090505481565b7f000000000000000000000000000000000000000000000000000000000000000081565b6003602052816000526040600020602052806000526040600020600091509150505481565b6060600160003373ffffffffffffffffffffffffffffffffffffffff1673ffffffffffffffffffffffffffffffffffffffff168152602001908152602001600020600101805480602002602001604051908101604052809291908181526020016000905b82821015610af857838290600052602060002090600602016040518060c00160405290816000820160009054906101000a900473ffffffffffffffffffffffffffffffffffffffff1673ffffffffffffffffffffffffffffffffffffffff1673ffffffffffffffffffffffffffffffffffffffff168152602001600182015481526020016002820154815260200160038201548152602001600482018054610a5d90613ce7565b80601f0160208091040260200160405190810160405280929190818152602001828054610a8990613ce7565b8015610ad65780601f10610aab57610100808354040283529160200191610ad6565b820191906000526020600020905b815481529060010190602001808311610ab957829003601f168201915b50505050508152602001600582015481525050815260200190600101906109b6565b50505050905090565b7f000000000000000000000000000000000000000000000000000000000000000081565b7f000000000000000000000000000000000000000000000000000000000000000073ffffffffffffffffffffffffffffffffffffffff163373ffffffffffffffffffffffffffffffffffffffff1614610bb3576040517f08c379a0000000000000000000000000000000000000000000000000000000008152600401610baa90613d75565b60405180910390fd5b60008060006007600085815260200190815260200160002054118015610bfe575060086000848152602001908152602001600020546007600085815260200190815260200160002054115b15610c3a576004600084815260200190815260200160002060040154915060046000848152602001908152602001600020600301549050610cbb565b60006008600085815260200190815260200160002054118015610c82575060076000848152602001908152602001600020546008600085815260200190815260200160002054115b15610cba5760046000848152602001908152602001600020600301549150600460008481526020019081526020016000206004015490505b5b60005b60046000858152602001908152602001600020600501600084815260200190815260200160002080549050811015610f5a57600060046000868152602001908152602001600020600601600085815260200190815260200160002060006004600088815260200190815260200160002060050160008781526020019081526020016000208481548110610d5457610d53613d95565b5b9060005260206000200160009054906101000a900473ffffffffffffffffffffffffffffffffffffffff1673ffffffffffffffffffffffffffffffffffffffff1673ffffffffffffffffffffffffffffffffffffffff1681526020019081526020016000206001015490506004600086815260200190815260200160002060050160008581526020019081526020016000208281548110610df857610df7613d95565b5b9060005260206000200160009054906101000a900473ffffffffffffffffffffffffffffffffffffffff1673ffffffffffffffffffffffffffffffffffffffff166108fc600460008881526020019081526020016000206001015483610e5e9190613e22565b9081150290604051600060405180830381858888f19350505050158015610e89573d6000803e3d6000fd5b5080600160006004600089815260200190815260200160002060050160008881526020019081526020016000208581548110610ec857610ec7613d95565b5b9060005260206000200160009054906101000a900473ffffffffffffffffffffffffffffffffffffffff1673ffffffffffffffffffffffffffffffffffffffff1673ffffffffffffffffffffffffffffffffffffffff1681526020019081526020016000206000016000828254610f3f9190613e53565b92505081905550508080610f5290613e87565b915050610cbe565b5060005b6004600085815260200190815260200160002060050160008381526020019081526020016000208054905081101561112f57600060046000868152602001908152602001600020600601600084815260200190815260200160002060006004600088815260200190815260200160002060050160008681526020019081526020016000208481548110610ff457610ff3613d95565b5b9060005260206000200160009054906101000a900473ffffffffffffffffffffffffffffffffffffffff1673ffffffffffffffffffffffffffffffffffffffff1673ffffffffffffffffffffffffffffffffffffffff1681526020019081526020016000206001015490508060016000600460008981526020019081526020016000206005016000878152602001908152602001600020858154811061109d5761109c613d95565b5b9060005260206000200160009054906101000a900473ffffffffffffffffffffffffffffffffffffffff1673ffffffffffffffffffffffffffffffffffffffff1673ffffffffffffffffffffffffffffffffffffffff16815260200190815260200160002060000160008282546111149190613e53565b9250508190555050808061112790613e87565b915050610f5e565b50505050565b737506c12a824d73d9b08564d5afc22c949434755e81565b600060066000838152602001908152602001600020600001549050919050565b611175613348565b60056000848152602001908152602001600020600701600083815260200190815260200160002060003373ffffffffffffffffffffffffffffffffffffffff1673ffffffffffffffffffffffffffffffffffffffff1681526020019081526020016000206040518060c00160405290816000820160009054906101000a900473ffffffffffffffffffffffffffffffffffffffff1673ffffffffffffffffffffffffffffffffffffffff1673ffffffffffffffffffffffffffffffffffffffff16815260200160018201548152602001600282015481526020016003820154815260200160048201805461126890613ce7565b80601f016020809104026020016040519081016040528092919081815260200182805461129490613ce7565b80156112e15780601f106112b6576101008083540402835291602001916112e1565b820191906000526020600020905b8154815290600101906020018083116112c457829003601f168201915b50505050508152602001600582015481525050905092915050565b600060046000838152602001908152602001600020600001549050919050565b6000600160003373ffffffffffffffffffffffffffffffffffffffff1673ffffffffffffffffffffffffffffffffffffffff16815260200190815260200160002060000154905090565b60086020528060005260406000206000915090505481565b611386613348565b60066000848152602001908152602001600020600701600083815260200190815260200160002060003373ffffffffffffffffffffffffffffffffffffffff1673ffffffffffffffffffffffffffffffffffffffff1681526020019081526020016000206040518060c00160405290816000820160009054906101000a900473ffffffffffffffffffffffffffffffffffffffff1673ffffffffffffffffffffffffffffffffffffffff1673ffffffffffffffffffffffffffffffffffffffff16815260200160018201548152602001600282015481526020016003820154815260200160048201805461147990613ce7565b80601f01602080910402602001604051908101604052809291908181526020018280546114a590613ce7565b80156114f25780601f106114c7576101008083540402835291602001916114f2565b820191906000526020600020905b8154815290600101906020018083116114d557829003601f168201915b50505050508152602001600582015481525050905092915050565b82840361151957600080fd5b8673ffffffffffffffffffffffffffffffffffffffff163373ffffffffffffffffffffffffffffffffffffffff1614611587576040517f08c379a000000000000000000000000000000000000000000000000000000000815260040161157e90613f41565b60405180910390fd5b600034116115ca576040517f08c379a00000000000000000000000000000000000000000000000000000000081526004016115c190613fad565b60405180910390fd5b600060646005346115db9190613fcd565b6115e59190613e22565b905060006064605f346115f89190613fcd565b6116029190613e22565b90506000600660008a815260200190815260200160002090506000600160003373ffffffffffffffffffffffffffffffffffffffff1673ffffffffffffffffffffffffffffffffffffffff1681526020019081526020016000206001019050600082600701600087815260200190815260200160002060003373ffffffffffffffffffffffffffffffffffffffff1673ffffffffffffffffffffffffffffffffffffffff16815260200190815260200160002090506000836006016000888152602001908152602001600020905060008054906101000a900473ffffffffffffffffffffffffffffffffffffffff1673ffffffffffffffffffffffffffffffffffffffff166108fc879081150290604051600060405180830381858888f19350505050158015611736573d6000803e3d6000fd5b5084600160003373ffffffffffffffffffffffffffffffffffffffff1673ffffffffffffffffffffffffffffffffffffffff16815260200190815260200160002060000160008282546117899190614027565b92505081905550826040518060c001604052803373ffffffffffffffffffffffffffffffffffffffff168152602001878152602001600081526020018e81526020016040518060400160405280600b81526020017f506f696e7420546f74616c000000000000000000000000000000000000000000815250815260200142815250908060018154018082558091505060019003906000526020600020906006020160009091909190915060008201518160000160006101000a81548173ffffffffffffffffffffffffffffffffffffffff021916908373ffffffffffffffffffffffffffffffffffffffff16021790555060208201518160010155604082015181600201556060820151816003015560808201518160040190805190602001906118b4929190613394565b5060a08201518160050155505034600260008e815260200190815260200160002060008282546118e49190614027565b92505081905550848460020160008282546118ff9190614027565b9250508190555084846003016000898152602001908152602001600020600082825461192b9190614027565b925050819055508984600401819055508884600501819055508784600101819055508a84600001819055503373ffffffffffffffffffffffffffffffffffffffff16600660008e8152602001908152602001600020600701600089815260200190815260200160002060003373ffffffffffffffffffffffffffffffffffffffff1673ffffffffffffffffffffffffffffffffffffffff16815260200190815260200160002060000160009054906101000a900473ffffffffffffffffffffffffffffffffffffffff1673ffffffffffffffffffffffffffffffffffffffff1614611a735780339080600181540180825580915050600190039060005260206000200160009091909190916101000a81548173ffffffffffffffffffffffffffffffffffffffff021916908373ffffffffffffffffffffffffffffffffffffffff1602179055505b338260000160006101000a81548173ffffffffffffffffffffffffffffffffffffffff021916908373ffffffffffffffffffffffffffffffffffffffff16021790555084826001016000828254611aca9190614027565b92505081905550600082600201819055508b82600301819055506040518060400160405280600b81526020017f506f696e7420546f74616c000000000000000000000000000000000000000000815250826004019080519060200190611b31929190613394565b5042826005018190555050505050505050505050505050565b6060600460008481526020019081526020016000206005016000838152602001908152602001600020805480602002602001604051908101604052809291908181526020018280548015611bf357602002820191906000526020600020905b8160009054906101000a900473ffffffffffffffffffffffffffffffffffffffff1673ffffffffffffffffffffffffffffffffffffffff1681526020019060010190808311611ba9575b5050505050905092915050565b60046020528060005260406000206000915090508060000154908060010154908060030154908060040154908060070154905085565b818303611c4257600080fd5b8573ffffffffffffffffffffffffffffffffffffffff163373ffffffffffffffffffffffffffffffffffffffff1614611cb0576040517f08c379a0000000000000000000000000000000000000000000000000000000008152600401611ca790613f41565b60405180910390fd5b60003411611cf3576040517f08c379a0000000000000000000000000000000000000000000000000000000008152600401611cea90613fad565b60405180910390fd5b82841480611d0057508184145b611d3f576040517f08c379a0000000000000000000000000000000000000000000000000000000008152600401611d36906140ef565b60405180910390fd5b6000600460008781526020019081526020016000206001015403611fc457600060405180602001604052806000815250905060006040518060400160405280600267ffffffffffffffff811115611d9957611d9861410f565b5b604051908082528060200260200182016040528015611dc75781602001602082028036833780820191505090505b508152602001600267ffffffffffffffff811115611de857611de761410f565b5b604051908082528060200260200182016040528015611e1b57816020015b6060815260200190600190039081611e065790505b50815250905060028160000151600081518110611e3b57611e3a613d95565b5b60200260200101906004811115611e5557611e5461413e565b5b90816004811115611e6957611e6861413e565b5b8152505060048160000151600181518110611e8757611e86613d95565b5b60200260200101906004811115611ea157611ea061413e565b5b90816004811115611eb557611eb461413e565b5b81525050611ec1613147565b8160200151600081518110611ed957611ed8613d95565b5b6020026020010181905250611f0f828885604051602001611efb92919061416d565b60405160208183030381529060405261315e565b8160200151600181518110611f2757611f26613d95565b5b6020026020010181905250611fc0303073ffffffffffffffffffffffffffffffffffffffff16635658fa108a604051602401611f63919061367a565b604051602081830303815290604052915060e01b6020820180517bffffffffffffffffffffffffffffffffffffffffffffffffffffffff83818316178352505050508373eeeeeeeeeeeeeeeeeeeeeeeeeeeeeeeeeeeeeeee61318a565b5050505b60006064600534611fd59190613fcd565b611fdf9190613e22565b905060006064605f34611ff29190613fcd565b611ffc9190613e22565b905060006004600089815260200190815260200160002090506000600160003373ffffffffffffffffffffffffffffffffffffffff1673ffffffffffffffffffffffffffffffffffffffff168152602001908152602001600020600101905060008260060160008a815260200190815260200160002060003373ffffffffffffffffffffffffffffffffffffffff1673ffffffffffffffffffffffffffffffffffffffff168152602001908152602001600020905060008360050160008b8152602001908152602001600020905060008054906101000a900473ffffffffffffffffffffffffffffffffffffffff1673ffffffffffffffffffffffffffffffffffffffff166108fc879081150290604051600060405180830381858888f19350505050158015612130573d6000803e3d6000fd5b5084600160003373ffffffffffffffffffffffffffffffffffffffff1673ffffffffffffffffffffffffffffffffffffffff16815260200190815260200160002060000160008282546121839190614027565b92505081905550826040518060c001604052803373ffffffffffffffffffffffffffffffffffffffff1681526020018781526020018c81526020018d81526020016040518060400160405280600a81526020017f4d6f6e6579204c696e6500000000000000000000000000000000000000000000815250815260200142815250908060018154018082558091505060019003906000526020600020906006020160009091909190915060008201518160000160006101000a81548173ffffffffffffffffffffffffffffffffffffffff021916908373ffffffffffffffffffffffffffffffffffffffff16021790555060208201518160010155604082015181600201556060820151816003015560808201518160040190805190602001906122ad929190613394565b5060a08201518160050155505034600260008d815260200190815260200160002060008282546122dd9190614027565b9250508190555034600360008d815260200190815260200160002060008c815260200190815260200160002060008282546123189190614027565b92505081905550848460010160008282546123339190614027565b92505081905550848460020160008c8152602001908152602001600020600082825461235f9190614027565b925050819055508884600301819055508784600401819055508684600001819055503373ffffffffffffffffffffffffffffffffffffffff16600460008d815260200190815260200160002060060160008c815260200190815260200160002060003373ffffffffffffffffffffffffffffffffffffffff1673ffffffffffffffffffffffffffffffffffffffff16815260200190815260200160002060000160009054906101000a900473ffffffffffffffffffffffffffffffffffffffff1673ffffffffffffffffffffffffffffffffffffffff161461249e5780339080600181540180825580915050600190039060005260206000200160009091909190916101000a81548173ffffffffffffffffffffffffffffffffffffffff021916908373ffffffffffffffffffffffffffffffffffffffff1602179055505b338260000160006101000a81548173ffffffffffffffffffffffffffffffffffffffff021916908373ffffffffffffffffffffffffffffffffffffffff160217905550848260010160008282546124f59190614027565b925050819055508982600201819055508a82600301819055506040518060400160405280600a81526020017f4d6f6e6579204c696e650000000000000000000000000000000000000000000081525082600401908051906020019061255b929190613394565b50428260050181905550505050505050505050505050565b60016020528060005260406000206000915090508060000154905081565b82840361259d57600080fd5b8673ffffffffffffffffffffffffffffffffffffffff163373ffffffffffffffffffffffffffffffffffffffff161461260b576040517f08c379a000000000000000000000000000000000000000000000000000000000815260040161260290613f41565b60405180910390fd5b6000341161264e576040517f08c379a000000000000000000000000000000000000000000000000000000000815260040161264590613fad565b60405180910390fd5b8385148061265b57508285145b61269a576040517f08c379a0000000000000000000000000000000000000000000000000000000008152600401612691906140ef565b60405180910390fd5b600060646005346126ab9190613fcd565b6126b59190613e22565b905060006064605f346126c89190613fcd565b6126d29190613e22565b90506000600560008a815260200190815260200160002090506000600160003373ffffffffffffffffffffffffffffffffffffffff1673ffffffffffffffffffffffffffffffffffffffff168152602001908152602001600020600101905060008260070160008b815260200190815260200160002060003373ffffffffffffffffffffffffffffffffffffffff1673ffffffffffffffffffffffffffffffffffffffff168152602001908152602001600020905060008360060160008c8152602001908152602001600020905060008054906101000a900473ffffffffffffffffffffffffffffffffffffffff1673ffffffffffffffffffffffffffffffffffffffff166108fc879081150290604051600060405180830381858888f19350505050158015612806573d6000803e3d6000fd5b5084600160003373ffffffffffffffffffffffffffffffffffffffff1673ffffffffffffffffffffffffffffffffffffffff16815260200190815260200160002060000160008282546128599190614027565b92505081905550826040518060c001604052803373ffffffffffffffffffffffffffffffffffffffff1681526020018781526020018d81526020018e81526020016040518060400160405280600c81526020017f506f696e74205370726561640000000000000000000000000000000000000000815250815260200142815250908060018154018082558091505060019003906000526020600020906006020160009091909190915060008201518160000160006101000a81548173ffffffffffffffffffffffffffffffffffffffff021916908373ffffffffffffffffffffffffffffffffffffffff1602179055506020820151816001015560408201518160020155606082015181600301556080820151816004019080519060200190612983929190613394565b5060a08201518160050155505034600260008e815260200190815260200160002060008282546129b39190614027565b9250508190555034600360008e815260200190815260200160002060008d815260200190815260200160002060008282546129ee9190614027565b9250508190555084846002016000828254612a099190614027565b92505081905550848460030160008d81526020019081526020016000206000828254612a359190614027565b92505081905550898460040181905550888460050181905550878460010181905550868460000160008d8152602001908152602001600020819055503373ffffffffffffffffffffffffffffffffffffffff16600560008e815260200190815260200160002060070160008d815260200190815260200160002060003373ffffffffffffffffffffffffffffffffffffffff1673ffffffffffffffffffffffffffffffffffffffff16815260200190815260200160002060000160009054906101000a900473ffffffffffffffffffffffffffffffffffffffff1673ffffffffffffffffffffffffffffffffffffffff1614612b8e5780339080600181540180825580915050600190039060005260206000200160009091909190916101000a81548173ffffffffffffffffffffffffffffffffffffffff021916908373ffffffffffffffffffffffffffffffffffffffff1602179055505b338260000160006101000a81548173ffffffffffffffffffffffffffffffffffffffff021916908373ffffffffffffffffffffffffffffffffffffffff16021790555084826001016000828254612be59190614027565b925050819055508a82600201819055508b82600301819055506040518060400160405280600c81526020017f506f696e74205370726561640000000000000000000000000000000000000000815250826004019080519060200190612c4b929190613394565b5042826005018190555050505050505050505050505050565b612c6c613348565b60046000848152602001908152602001600020600601600083815260200190815260200160002060003373ffffffffffffffffffffffffffffffffffffffff1673ffffffffffffffffffffffffffffffffffffffff1681526020019081526020016000206040518060c00160405290816000820160009054906101000a900473ffffffffffffffffffffffffffffffffffffffff1673ffffffffffffffffffffffffffffffffffffffff1673ffffffffffffffffffffffffffffffffffffffff168152602001600182015481526020016002820154815260200160038201548152602001600482018054612d5f90613ce7565b80601f0160208091040260200160405190810160405280929190818152602001828054612d8b90613ce7565b8015612dd85780601f10612dad57610100808354040283529160200191612dd8565b820191906000526020600020905b815481529060010190602001808311612dbb57829003601f168201915b50505050508152602001600582015481525050905092915050565b60066020528060005260406000206000915090508060000154908060010154908060020154908060040154908060050154908060080154905086565b60008054906101000a900473ffffffffffffffffffffffffffffffffffffffff1673ffffffffffffffffffffffffffffffffffffffff163373ffffffffffffffffffffffffffffffffffffffff1614612ebd576040517f08c379a0000000000000000000000000000000000000000000000000000000008152600401612eb4906141e2565b60405180910390fd5b612efc3473eeeeeeeeeeeeeeeeeeeeeeeeeeeeeeeeeeeeeeee60008054906101000a900473ffffffffffffffffffffffffffffffffffffffff16613238565b565b60008054906101000a900473ffffffffffffffffffffffffffffffffffffffff1673ffffffffffffffffffffffffffffffffffffffff163373ffffffffffffffffffffffffffffffffffffffff1614612f8c576040517f08c379a0000000000000000000000000000000000000000000000000000000008152600401612f83906141e2565b60405180910390fd5b60008054906101000a900473ffffffffffffffffffffffffffffffffffffffff1673ffffffffffffffffffffffffffffffffffffffff166108fc479081150290604051600060405180830381858888f19350505050158015612ff2573d6000803e3d6000fd5b50565b600060056000848152602001908152602001600020600001600083815260200190815260200160002054905092915050565b6000806003600085815260200190815260200160002060008481526020019081526020016000205490506000600260008681526020019081526020016000205490506000816064846130799190613fcd565b6130839190613e22565b905080935050505092915050565b606060066000848152602001908152602001600020600601600083815260200190815260200160002080548060200260200160405190810160405280929190818152602001828054801561313a57602002820191906000526020600020905b8160009054906101000a900473ffffffffffffffffffffffffffffffffffffffff1673ffffffffffffffffffffffffffffffffffffffff16815260200190600101908083116130f0575b5050505050905092915050565b606060405180602001604052806000815250905090565b60608282604051602001613173929190614290565b604051602081830303815290604052905092915050565b60007f000000000000000000000000000000000000000000000000000000000000000073ffffffffffffffffffffffffffffffffffffffff16633323b467868686866040518563ffffffff1660e01b81526004016131eb949392919061450e565b6020604051808303816000875af115801561320a573d6000803e3d6000fd5b505050506040513d601f19601f8201168201806040525081019061322e9190614597565b9050949350505050565b73eeeeeeeeeeeeeeeeeeeeeeeeeeeeeeeeeeeeeeee73ffffffffffffffffffffffffffffffffffffffff168273ffffffffffffffffffffffffffffffffffffffff160361334357600546146132c2576040517f08c379a00000000000000000000000000000000000000000000000000000000081526004016132b990614610565b60405180910390fd5b737506c12a824d73d9b08564d5afc22c949434755e73ffffffffffffffffffffffffffffffffffffffff166333bb7f9184836040518363ffffffff1660e01b81526004016133109190613709565b6000604051808303818588803b15801561332957600080fd5b505af115801561333d573d6000803e3d6000fd5b50505050505b505050565b6040518060c00160405280600073ffffffffffffffffffffffffffffffffffffffff16815260200160008152602001600081526020016000815260200160608152602001600081525090565b8280546133a090613ce7565b90600052602060002090601f0160209004810192826133c25760008555613409565b82601f106133db57805160ff1916838001178555613409565b82800160010185558215613409579182015b828111156134085782518255916020019190600101906133ed565b5b509050613416919061341a565b5090565b5b8082111561343357600081600090555060010161341b565b5090565b600073ffffffffffffffffffffffffffffffffffffffff82169050919050565b6000819050919050565b600061347c61347761347284613437565b613457565b613437565b9050919050565b600061348e82613461565b9050919050565b60006134a082613483565b9050919050565b6134b081613495565b82525050565b60006020820190506134cb60008301846134a7565b92915050565b600080fd5b6000819050919050565b6134e9816134d6565b81146134f457600080fd5b50565b600081359050613506816134e0565b92915050565b60008060408385031215613523576135226134d1565b5b6000613531858286016134f7565b9250506020613542858286016134f7565b9150509250929050565b600081519050919050565b600082825260208201905092915050565b6000819050602082019050919050565b600061358382613437565b9050919050565b61359381613578565b82525050565b60006135a5838361358a565b60208301905092915050565b6000602082019050919050565b60006135c98261354c565b6135d38185613557565b93506135de83613568565b8060005b8381101561360f5781516135f68882613599565b9750613601836135b1565b9250506001810190506135e2565b5085935050505092915050565b6000602082019050818103600083015261363681846135be565b905092915050565b600060208284031215613654576136536134d1565b5b6000613662848285016134f7565b91505092915050565b613674816134d6565b82525050565b600060208201905061368f600083018461366b565b92915050565b600060a0820190506136aa600083018861366b565b6136b7602083018761366b565b6136c4604083018661366b565b6136d1606083018561366b565b6136de608083018461366b565b9695505050505050565b60006136f382613437565b9050919050565b613703816136e8565b82525050565b600060208201905061371e60008301846136fa565b92915050565b600081519050919050565b600082825260208201905092915050565b6000819050602082019050919050565b613759816136e8565b82525050565b613768816134d6565b82525050565b600081519050919050565b600082825260208201905092915050565b60005b838110156137a857808201518184015260208101905061378d565b838111156137b7576000848401525b50505050565b6000601f19601f8301169050919050565b60006137d98261376e565b6137e38185613779565b93506137f381856020860161378a565b6137fc816137bd565b840191505092915050565b600060c08301600083015161381f6000860182613750565b506020830151613832602086018261375f565b506040830151613845604086018261375f565b506060830151613858606086018261375f565b506080830151848203608086015261387082826137ce565b91505060a083015161388560a086018261375f565b508091505092915050565b600061389c8383613807565b905092915050565b6000602082019050919050565b60006138bc82613724565b6138c6818561372f565b9350836020820285016138d885613740565b8060005b8581101561391457848403895281516138f58582613890565b9450613900836138a4565b925060208a019950506001810190506138dc565b50829750879550505050505092915050565b6000602082019050818103600083015261394081846138b1565b905092915050565b600061395382613483565b9050919050565b61396381613948565b82525050565b600060208201905061397e600083018461395a565b92915050565b600060c08301600083015161399c6000860182613750565b5060208301516139af602086018261375f565b5060408301516139c2604086018261375f565b5060608301516139d5606086018261375f565b50608083015184820360808601526139ed82826137ce565b91505060a0830151613a0260a086018261375f565b508091505092915050565b60006020820190508181036000830152613a278184613984565b905092915050565b6000819050919050565b613a4281613a2f565b8114613a4d57600080fd5b50565b600081359050613a5f81613a39565b92915050565b60008060408385031215613a7c57613a7b6134d1565b5b6000613a8a858286016134f7565b9250506020613a9b85828601613a50565b9150509250929050565b613aae816136e8565b8114613ab957600080fd5b50565b600081359050613acb81613aa5565b92915050565b600080600080600080600060e0888a031215613af057613aef6134d1565b5b6000613afe8a828b01613abc565b9750506020613b0f8a828b016134f7565b9650506040613b208a828b016134f7565b9550506060613b318a828b016134f7565b9450506080613b428a828b016134f7565b93505060a0613b538a828b016134f7565b92505060c0613b648a828b01613a50565b91505092959891949750929550565b60008060008060008060c08789031215613b9057613b8f6134d1565b5b6000613b9e89828a01613abc565b9650506020613baf89828a016134f7565b9550506040613bc089828a016134f7565b9450506060613bd189828a016134f7565b9350506080613be289828a016134f7565b92505060a0613bf389828a016134f7565b9150509295509295509295565b600060208284031215613c1657613c156134d1565b5b6000613c2484828501613abc565b91505092915050565b613c3681613a2f565b82525050565b600060c082019050613c51600083018961366b565b613c5e602083018861366b565b613c6b604083018761366b565b613c78606083018661366b565b613c85608083018561366b565b613c9260a0830184613c2d565b979650505050505050565b6000602082019050613cb26000830184613c2d565b92915050565b7f4e487b7100000000000000000000000000000000000000000000000000000000600052602260045260246000fd5b60006002820490506001821680613cff57607f821691505b602082108103613d1257613d11613cb8565b5b50919050565b600082825260208201905092915050565b7f4f6e6c7920646564696361746564206d73672e73656e64657200000000000000600082015250565b6000613d5f601983613d18565b9150613d6a82613d29565b602082019050919050565b60006020820190508181036000830152613d8e81613d52565b9050919050565b7f4e487b7100000000000000000000000000000000000000000000000000000000600052603260045260246000fd5b7f4e487b7100000000000000000000000000000000000000000000000000000000600052601260045260246000fd5b7f4e487b7100000000000000000000000000000000000000000000000000000000600052601160045260246000fd5b6000613e2d826134d6565b9150613e38836134d6565b925082613e4857613e47613dc4565b5b828204905092915050565b6000613e5e826134d6565b9150613e69836134d6565b925082821015613e7c57613e7b613df3565b5b828203905092915050565b6000613e92826134d6565b91507fffffffffffffffffffffffffffffffffffffffffffffffffffffffffffffffff8203613ec457613ec3613df3565b5b600182019050919050565b7f596f75206d757374206265742066726f6d20796f7572206f776e20616464726560008201527f7373000000000000000000000000000000000000000000000000000000000000602082015250565b6000613f2b602283613d18565b9150613f3682613ecf565b604082019050919050565b60006020820190508181036000830152613f5a81613f1e565b9050919050565b7f596f75206d7573742062657420736f6d657468696e6700000000000000000000600082015250565b6000613f97601683613d18565b9150613fa282613f61565b602082019050919050565b60006020820190508181036000830152613fc681613f8a565b9050919050565b6000613fd8826134d6565b9150613fe3836134d6565b9250817fffffffffffffffffffffffffffffffffffffffffffffffffffffffffffffffff048311821515161561401c5761401b613df3565b5b828202905092915050565b6000614032826134d6565b915061403d836134d6565b9250827fffffffffffffffffffffffffffffffffffffffffffffffffffffffffffffffff0382111561407257614071613df3565b5b828201905092915050565b7f596f75206d75737420626574206f6e2061207465616d2074686174206973207060008201527f6c6179696e6720696e20746869732067616d6500000000000000000000000000602082015250565b60006140d9603383613d18565b91506140e48261407d565b604082019050919050565b60006020820190508181036000830152614108816140cc565b9050919050565b7f4e487b7100000000000000000000000000000000000000000000000000000000600052604160045260246000fd5b7f4e487b7100000000000000000000000000000000000000000000000000000000600052602160045260246000fd5b6000604082019050614182600083018561366b565b61418f602083018461366b565b9392505050565b7f596f7520617265206e6f74207468652061646d696e0000000000000000000000600082015250565b60006141cc601583613d18565b91506141d782614196565b602082019050919050565b600060208201905081810360008301526141fb816141bf565b9050919050565b600061420d8261376e565b6142178185613d18565b935061422781856020860161378a565b614230816137bd565b840191505092915050565b600081519050919050565b600082825260208201905092915050565b60006142628261423b565b61426c8185614246565b935061427c81856020860161378a565b614285816137bd565b840191505092915050565b600060408201905081810360008301526142aa8185614202565b905081810360208301526142be8184614257565b90509392505050565b600081519050919050565b600082825260208201905092915050565b6000819050602082019050919050565b600581106143045761430361413e565b5b50565b6000819050614315826142f3565b919050565b600061432582614307565b9050919050565b6143358161431a565b82525050565b6000614347838361432c565b60208301905092915050565b6000602082019050919050565b600061436b826142c7565b61437581856142d2565b9350614380836142e3565b8060005b838110156143b1578151614398888261433b565b97506143a383614353565b925050600181019050614384565b5085935050505092915050565b600081519050919050565b600082825260208201905092915050565b6000819050602082019050919050565b600082825260208201905092915050565b60006144068261423b565b61441081856143ea565b935061442081856020860161378a565b614429816137bd565b840191505092915050565b600061444083836143fb565b905092915050565b6000602082019050919050565b6000614460826143be565b61446a81856143c9565b93508360208202850161447c856143da565b8060005b858110156144b857848403895281516144998582614434565b94506144a483614448565b925060208a01995050600181019050614480565b50829750879550505050505092915050565b600060408301600083015184820360008601526144e78282614360565b915050602083015184820360208601526145018282614455565b9150508091505092915050565b600060808201905061452360008301876136fa565b81810360208301526145358186614257565b9050818103604083015261454981856144ca565b905061455860608301846136fa565b95945050505050565b6000819050919050565b61457481614561565b811461457f57600080fd5b50565b6000815190506145918161456b565b92915050565b6000602082840312156145ad576145ac6134d1565b5b60006145bb84828501614582565b91505092915050565b7f4f6e6c79206465706f73697420455448206f6e20676f65726c69000000000000600082015250565b60006145fa601a83613d18565b9150614605826145c4565b602082019050919050565b60006020820190508181036000830152614629816145ed565b905091905056fea26469706673582212202ebbe352358afccfd98490bd2edb2f39ea78a902ec627cc61d16053fa36e84de64736f6c634300080e0033",
  "linkReferences": {},
  "deployedLinkReferences": {}
}