{
  "_format": "hh-sol-artifact-1",
  "contractName": "Bet",
  "sourceName": "contracts/Bet.sol",
  "abi": [
    {
      "inputs": [],
      "stateMutability": "nonpayable",
      "type": "constructor"
    },
    {
      "inputs": [],
      "name": "automate",
      "outputs": [
        {
          "internalType": "contract IAutomate",
          "name": "",
          "type": "address"
        }
      ],
      "stateMutability": "view",
      "type": "function"
    },
    {
      "inputs": [],
      "name": "dedicatedMsgSender",
      "outputs": [
        {
          "internalType": "address",
          "name": "",
          "type": "address"
        }
      ],
      "stateMutability": "view",
      "type": "function"
    },
    {
      "inputs": [],
      "name": "deposit",
      "outputs": [],
      "stateMutability": "payable",
      "type": "function"
    },
    {
      "inputs": [],
      "name": "fundsOwner",
      "outputs": [
        {
          "internalType": "address",
          "name": "",
          "type": "address"
        }
      ],
      "stateMutability": "view",
      "type": "function"
    },
    {
      "inputs": [],
      "name": "gelato1Balance",
      "outputs": [
        {
          "internalType": "contract IGelato1Balance",
          "name": "",
          "type": "address"
        }
      ],
      "stateMutability": "view",
      "type": "function"
    },
    {
      "inputs": [
        {
          "internalType": "uint256",
          "name": "",
          "type": "uint256"
        }
      ],
      "name": "home_team_score",
      "outputs": [
        {
          "internalType": "uint256",
          "name": "",
          "type": "uint256"
        }
      ],
      "stateMutability": "view",
      "type": "function"
    },
    {
      "inputs": [
        {
          "internalType": "address",
          "name": "user",
          "type": "address"
        },
        {
          "internalType": "uint256",
          "name": "gameID",
          "type": "uint256"
        },
        {
          "internalType": "uint256",
          "name": "teamID",
          "type": "uint256"
        },
        {
          "internalType": "uint256",
          "name": "homeTeamID",
          "type": "uint256"
        },
        {
          "internalType": "uint256",
          "name": "awayTeamID",
          "type": "uint256"
        },
        {
          "internalType": "uint256",
          "name": "startTime",
          "type": "uint256"
        },
        {
          "internalType": "string",
          "name": "web3ContractAddress",
          "type": "string"
        }
      ],
      "name": "moneyLineBet",
      "outputs": [],
      "stateMutability": "payable",
      "type": "function"
    },
    {
      "inputs": [
        {
          "internalType": "uint256",
          "name": "",
          "type": "uint256"
        }
      ],
      "name": "newMoneyLineBet",
      "outputs": [
        {
          "internalType": "uint256",
          "name": "startTime",
          "type": "uint256"
        },
        {
          "internalType": "uint256",
          "name": "total",
          "type": "uint256"
        },
        {
          "internalType": "uint256",
          "name": "homeTeamID",
          "type": "uint256"
        },
        {
          "internalType": "uint256",
          "name": "awayTeamID",
          "type": "uint256"
        },
        {
          "internalType": "bytes32",
          "name": "taskID",
          "type": "bytes32"
        }
      ],
      "stateMutability": "view",
      "type": "function"
    },
    {
      "inputs": [
        {
          "internalType": "uint256",
          "name": "",
          "type": "uint256"
        }
      ],
      "name": "newPointSpreadBet",
      "outputs": [
        {
          "internalType": "uint256",
          "name": "startTime",
          "type": "uint256"
        },
        {
          "internalType": "uint256",
          "name": "total",
          "type": "uint256"
        },
        {
          "internalType": "uint256",
          "name": "homeTeamID",
          "type": "uint256"
        },
        {
          "internalType": "uint256",
          "name": "awayTeamID",
          "type": "uint256"
        },
        {
          "internalType": "bytes32",
          "name": "taskID",
          "type": "bytes32"
        }
      ],
      "stateMutability": "view",
      "type": "function"
    },
    {
      "inputs": [
        {
          "internalType": "uint256",
          "name": "",
          "type": "uint256"
        }
      ],
      "name": "newPointTotalBet",
      "outputs": [
        {
          "internalType": "uint256",
          "name": "pointAmount",
          "type": "uint256"
        },
        {
          "internalType": "uint256",
          "name": "startTime",
          "type": "uint256"
        },
        {
          "internalType": "uint256",
          "name": "total",
          "type": "uint256"
        },
        {
          "internalType": "uint256",
          "name": "homeTeamID",
          "type": "uint256"
        },
        {
          "internalType": "uint256",
          "name": "awayTeamID",
          "type": "uint256"
        },
        {
          "internalType": "bytes32",
          "name": "taskID",
          "type": "bytes32"
        }
      ],
      "stateMutability": "view",
      "type": "function"
    },
    {
      "inputs": [
        {
          "internalType": "address",
          "name": "user",
          "type": "address"
        },
        {
          "internalType": "uint256",
          "name": "gameID",
          "type": "uint256"
        },
        {
          "internalType": "uint256",
          "name": "teamID",
          "type": "uint256"
        },
        {
          "internalType": "uint256",
          "name": "homeTeamID",
          "type": "uint256"
        },
        {
          "internalType": "uint256",
          "name": "awayTeamID",
          "type": "uint256"
        },
        {
          "internalType": "uint256",
          "name": "startTime",
          "type": "uint256"
        },
        {
          "internalType": "int256",
          "name": "spread",
          "type": "int256"
        }
      ],
      "name": "pointSpreadBet",
      "outputs": [],
      "stateMutability": "payable",
      "type": "function"
    },
    {
      "inputs": [
        {
          "internalType": "address",
          "name": "user",
          "type": "address"
        },
        {
          "internalType": "uint256",
          "name": "gameID",
          "type": "uint256"
        },
        {
          "internalType": "uint256",
          "name": "pointAmount",
          "type": "uint256"
        },
        {
          "internalType": "uint256",
          "name": "homeTeamID",
          "type": "uint256"
        },
        {
          "internalType": "uint256",
          "name": "awayTeamID",
          "type": "uint256"
        },
        {
          "internalType": "uint256",
          "name": "startTime",
          "type": "uint256"
        },
        {
          "internalType": "int256",
          "name": "value",
          "type": "int256"
        }
      ],
      "name": "pointTotalBet",
      "outputs": [],
      "stateMutability": "payable",
      "type": "function"
    },
    {
      "inputs": [],
      "name": "returnEscrow",
      "outputs": [
        {
          "internalType": "uint256",
          "name": "",
          "type": "uint256"
        }
      ],
      "stateMutability": "view",
      "type": "function"
    },
    {
      "inputs": [
        {
          "internalType": "uint256",
          "name": "gameID",
          "type": "uint256"
        },
        {
          "internalType": "uint256",
          "name": "teamID",
          "type": "uint256"
        }
      ],
      "name": "returnMoneyLineBetReceipt",
      "outputs": [
        {
          "components": [
            {
              "internalType": "address",
              "name": "addr",
              "type": "address"
            },
            {
              "internalType": "uint256",
              "name": "amount",
              "type": "uint256"
            },
            {
              "internalType": "uint256",
              "name": "teamID",
              "type": "uint256"
            },
            {
              "internalType": "uint256",
              "name": "gameID",
              "type": "uint256"
            },
            {
              "internalType": "string",
              "name": "betType",
              "type": "string"
            },
            {
              "internalType": "uint256",
              "name": "time",
              "type": "uint256"
            }
          ],
          "internalType": "struct Bet.Transaction",
          "name": "",
          "type": "tuple"
        }
      ],
      "stateMutability": "view",
      "type": "function"
    },
    {
      "inputs": [
        {
          "internalType": "uint256",
          "name": "gameID",
          "type": "uint256"
        }
      ],
      "name": "returnMoneyLineStartTime",
      "outputs": [
        {
          "internalType": "uint256",
          "name": "",
          "type": "uint256"
        }
      ],
      "stateMutability": "view",
      "type": "function"
    },
    {
      "inputs": [
        {
          "internalType": "uint256",
          "name": "gameID",
          "type": "uint256"
        },
        {
          "internalType": "uint256",
          "name": "teamID",
          "type": "uint256"
        }
      ],
      "name": "returnMoneyLineUsersArray",
      "outputs": [
        {
          "internalType": "address payable[]",
          "name": "",
          "type": "address[]"
        }
      ],
      "stateMutability": "view",
      "type": "function"
    },
    {
      "inputs": [
        {
          "internalType": "uint256",
          "name": "gameID",
          "type": "uint256"
        },
        {
          "internalType": "uint256",
          "name": "bettingTeamID",
          "type": "uint256"
        }
      ],
      "name": "returnOdds",
      "outputs": [
        {
          "internalType": "uint256",
          "name": "",
          "type": "uint256"
        }
      ],
      "stateMutability": "view",
      "type": "function"
    },
    {
      "inputs": [
        {
          "internalType": "uint256",
          "name": "gameID",
          "type": "uint256"
        },
        {
          "internalType": "uint256",
          "name": "teamID",
          "type": "uint256"
        }
      ],
      "name": "returnPointSpreadBetReceipt",
      "outputs": [
        {
          "components": [
            {
              "internalType": "address",
              "name": "addr",
              "type": "address"
            },
            {
              "internalType": "uint256",
              "name": "amount",
              "type": "uint256"
            },
            {
              "internalType": "uint256",
              "name": "teamID",
              "type": "uint256"
            },
            {
              "internalType": "uint256",
              "name": "gameID",
              "type": "uint256"
            },
            {
              "internalType": "string",
              "name": "betType",
              "type": "string"
            },
            {
              "internalType": "uint256",
              "name": "time",
              "type": "uint256"
            }
          ],
          "internalType": "struct Bet.Transaction",
          "name": "",
          "type": "tuple"
        }
      ],
      "stateMutability": "view",
      "type": "function"
    },
    {
      "inputs": [
        {
          "internalType": "uint256",
          "name": "gameID",
          "type": "uint256"
        },
        {
          "internalType": "uint256",
          "name": "teamID",
          "type": "uint256"
        }
      ],
      "name": "returnPointSpreadGameAmount",
      "outputs": [
        {
          "internalType": "int256",
          "name": "",
          "type": "int256"
        }
      ],
      "stateMutability": "view",
      "type": "function"
    },
    {
      "inputs": [
        {
          "internalType": "uint256",
          "name": "gameID",
          "type": "uint256"
        },
        {
          "internalType": "uint256",
          "name": "teamID",
          "type": "uint256"
        }
      ],
      "name": "returnPointSpreadUsersArray",
      "outputs": [
        {
          "internalType": "address payable[]",
          "name": "",
          "type": "address[]"
        }
      ],
      "stateMutability": "view",
      "type": "function"
    },
    {
      "inputs": [
        {
          "internalType": "uint256",
          "name": "gameID",
          "type": "uint256"
        },
        {
          "internalType": "int256",
          "name": "value",
          "type": "int256"
        }
      ],
      "name": "returnPointTotalBetReceipt",
      "outputs": [
        {
          "components": [
            {
              "internalType": "address",
              "name": "addr",
              "type": "address"
            },
            {
              "internalType": "uint256",
              "name": "amount",
              "type": "uint256"
            },
            {
              "internalType": "uint256",
              "name": "teamID",
              "type": "uint256"
            },
            {
              "internalType": "uint256",
              "name": "gameID",
              "type": "uint256"
            },
            {
              "internalType": "string",
              "name": "betType",
              "type": "string"
            },
            {
              "internalType": "uint256",
              "name": "time",
              "type": "uint256"
            }
          ],
          "internalType": "struct Bet.Transaction",
          "name": "",
          "type": "tuple"
        }
      ],
      "stateMutability": "view",
      "type": "function"
    },
    {
      "inputs": [
        {
          "internalType": "uint256",
          "name": "gameID",
          "type": "uint256"
        }
      ],
      "name": "returnPointTotalGameAmount",
      "outputs": [
        {
          "internalType": "uint256",
          "name": "",
          "type": "uint256"
        }
      ],
      "stateMutability": "view",
      "type": "function"
    },
    {
      "inputs": [
        {
          "internalType": "uint256",
          "name": "gameID",
          "type": "uint256"
        },
        {
          "internalType": "int256",
          "name": "value",
          "type": "int256"
        }
      ],
      "name": "returnPointTotalUsersArray",
      "outputs": [
        {
          "internalType": "address payable[]",
          "name": "",
          "type": "address[]"
        }
      ],
      "stateMutability": "view",
      "type": "function"
    },
    {
      "inputs": [],
      "name": "returnReceipts",
      "outputs": [
        {
          "components": [
            {
              "internalType": "address",
              "name": "addr",
              "type": "address"
            },
            {
              "internalType": "uint256",
              "name": "amount",
              "type": "uint256"
            },
            {
              "internalType": "uint256",
              "name": "teamID",
              "type": "uint256"
            },
            {
              "internalType": "uint256",
              "name": "gameID",
              "type": "uint256"
            },
            {
              "internalType": "string",
              "name": "betType",
              "type": "string"
            },
            {
              "internalType": "uint256",
              "name": "time",
              "type": "uint256"
            }
          ],
          "internalType": "struct Bet.Transaction[]",
          "name": "",
          "type": "tuple[]"
        }
      ],
      "stateMutability": "view",
      "type": "function"
    },
    {
      "inputs": [
        {
          "internalType": "uint256",
          "name": "gameID",
          "type": "uint256"
        },
        {
          "internalType": "uint256",
          "name": "winnerID",
          "type": "uint256"
        },
        {
          "internalType": "uint256",
          "name": "loserID",
          "type": "uint256"
        }
      ],
      "name": "rewardMoneyLineWinners",
      "outputs": [],
      "stateMutability": "nonpayable",
      "type": "function"
    },
    {
      "inputs": [
        {
          "internalType": "uint256",
          "name": "",
          "type": "uint256"
        }
      ],
      "name": "totalBetOnGame",
      "outputs": [
        {
          "internalType": "uint256",
          "name": "",
          "type": "uint256"
        }
      ],
      "stateMutability": "view",
      "type": "function"
    },
    {
      "inputs": [
        {
          "internalType": "uint256",
          "name": "",
          "type": "uint256"
        },
        {
          "internalType": "uint256",
          "name": "",
          "type": "uint256"
        }
      ],
      "name": "totalBetOnTeam",
      "outputs": [
        {
          "internalType": "uint256",
          "name": "",
          "type": "uint256"
        }
      ],
      "stateMutability": "view",
      "type": "function"
    },
    {
      "inputs": [
        {
          "internalType": "address",
          "name": "",
          "type": "address"
        }
      ],
      "name": "userReceipts",
      "outputs": [
        {
          "internalType": "uint256",
          "name": "escrow",
          "type": "uint256"
        }
      ],
      "stateMutability": "view",
      "type": "function"
    },
    {
      "inputs": [
        {
          "internalType": "uint256",
          "name": "",
          "type": "uint256"
        }
      ],
      "name": "visitor_team_score",
      "outputs": [
        {
          "internalType": "uint256",
          "name": "",
          "type": "uint256"
        }
      ],
      "stateMutability": "view",
      "type": "function"
    }
  ],
  "bytecode": "0x6101006040523480156200001257600080fd5b50732a6c106ae13b558bb9e2ec64bd2f1f7beff3a5e03081308173ffffffffffffffffffffffffffffffffffffffff1660808173ffffffffffffffffffffffffffffffffffffffff16815250508173ffffffffffffffffffffffffffffffffffffffff1663573ea5756040518163ffffffff1660e01b8152600401602060405180830381865afa158015620000ab573d6000803e3d6000fd5b505050506040513d601f19601f82011682018060405250810190620000d191906200039b565b73ffffffffffffffffffffffffffffffffffffffff1660c08173ffffffffffffffffffffffffffffffffffffffff168152505060008273ffffffffffffffffffffffffffffffffffffffff1663cd3d4fb960026040518263ffffffff1660e01b81526004016200014291906200044d565b602060405180830381865afa15801562000160573d6000803e3d6000fd5b505050506040513d601f19601f82011682018060405250810190620001869190620004af565b905060008173ffffffffffffffffffffffffffffffffffffffff1663ba1d0ff46040518163ffffffff1660e01b8152600401602060405180830381865afa158015620001d6573d6000803e3d6000fd5b505050506040513d601f19601f82011682018060405250810190620001fc9190620004af565b90508073ffffffffffffffffffffffffffffffffffffffff1663ded89a7c846040518263ffffffff1660e01b8152600401620002399190620004f2565b6040805180830381865afa15801562000256573d6000803e3d6000fd5b505050506040513d601f19601f820116820180604052508101906200027c91906200054c565b508073ffffffffffffffffffffffffffffffffffffffff1660a09073ffffffffffffffffffffffffffffffffffffffff1681525050505050508073ffffffffffffffffffffffffffffffffffffffff1660e08173ffffffffffffffffffffffffffffffffffffffff16815250505050336000806101000a81548173ffffffffffffffffffffffffffffffffffffffff021916908373ffffffffffffffffffffffffffffffffffffffff16021790555062000593565b600080fd5b600073ffffffffffffffffffffffffffffffffffffffff82169050919050565b6000620003638262000336565b9050919050565b620003758162000356565b81146200038157600080fd5b50565b60008151905062000395816200036a565b92915050565b600060208284031215620003b457620003b362000331565b5b6000620003c48482850162000384565b91505092915050565b7f4e487b7100000000000000000000000000000000000000000000000000000000600052602160045260246000fd5b6005811062000410576200040f620003cd565b5b50565b60008190506200042382620003fc565b919050565b6000620004358262000413565b9050919050565b620004478162000428565b82525050565b60006020820190506200046460008301846200043c565b92915050565b6000620004778262000336565b9050919050565b62000489816200046a565b81146200049557600080fd5b50565b600081519050620004a9816200047e565b92915050565b600060208284031215620004c857620004c762000331565b5b6000620004d88482850162000498565b91505092915050565b620004ec816200046a565b82525050565b6000602082019050620005096000830184620004e1565b92915050565b60008115159050919050565b62000526816200050f565b81146200053257600080fd5b50565b60008151905062000546816200051b565b92915050565b6000806040838503121562000566576200056562000331565b5b6000620005768582860162000498565b9250506020620005898582860162000535565b9150509250929050565b60805160a05160c05160e0516147d9620005d86000396000610ecc015260005050600081816107a90152610cd4015260008181610b940152612e1b01526147d96000f3fe6080604052600436106101c25760003560e01c80637ea4178a116100f7578063a59cba0211610095578063ccb7ed4511610064578063ccb7ed45146106e6578063d0e30db014610723578063f227ce4d1461072d578063f6d7c7591461076a576101c2565b8063a59cba021461062f578063a910e4a51461064b578063a91faba214610688578063b1e49b99146106ca576101c2565b8063835f3fec116100d1578063835f3fec146105585780638697ac4e146105745780638edd3971146105b1578063a4786f3d146105f2576101c2565b80637ea4178a146104b357806380eb6d04146104de57806380ee79c11461051b576101c2565b80632b3a4ef61161016457806357fb1d671161013e57806357fb1d67146103d157806368989a92146103fc5780636bd4c7c0146104395780637e96091614610476576101c2565b80632b3a4ef61461033e5780633946f6661461037b57806346ee3c59146103a6576101c2565b806323821c21116101a057806323821c21146102585780632429827f14610295578063245a2fad146102d657806328f150eb14610313576101c2565b806303bfeb20146101c7578063049aacfe146101f057806308c27e5a1461021b575b600080fd5b3480156101d357600080fd5b506101ee60048036038101906101e991906132b7565b6107a7565b005b3480156101fc57600080fd5b50610205610b92565b6040516102129190613389565b60405180910390f35b34801561022757600080fd5b50610242600480360381019061023d91906133a4565b610bb6565b60405161024f91906134b4565b60405180910390f35b34801561026457600080fd5b5061027f600480360381019061027a91906134d6565b610c6c565b60405161028c9190613512565b60405180910390f35b3480156102a157600080fd5b506102bc60048036038101906102b791906134d6565b610c84565b6040516102cd959493929190613546565b60405180910390f35b3480156102e257600080fd5b506102fd60048036038101906102f891906134d6565b610cba565b60405161030a9190613512565b60405180910390f35b34801561031f57600080fd5b50610328610cd2565b60405161033591906135ba565b60405180910390f35b34801561034a57600080fd5b50610365600480360381019061036091906133a4565b610cf6565b6040516103729190613512565b60405180910390f35b34801561038757600080fd5b50610390610d1b565b60405161039d91906137d7565b60405180910390f35b3480156103b257600080fd5b506103bb610eca565b6040516103c891906135ba565b60405180910390f35b3480156103dd57600080fd5b506103e6610eee565b6040516103f3919061381a565b60405180910390f35b34801561040857600080fd5b50610423600480360381019061041e91906134d6565b610f06565b6040516104309190613512565b60405180910390f35b34801561044557600080fd5b50610460600480360381019061045b91906133a4565b610f26565b60405161046d91906138be565b60405180910390f35b34801561048257600080fd5b5061049d600480360381019061049891906134d6565b6110b5565b6040516104aa9190613512565b60405180910390f35b3480156104bf57600080fd5b506104c86110d5565b6040516104d59190613512565b60405180910390f35b3480156104ea57600080fd5b50610505600480360381019061050091906134d6565b61111f565b6040516105129190613512565b60405180910390f35b34801561052757600080fd5b50610542600480360381019061053d9190613916565b611137565b60405161054f91906138be565b60405180910390f35b610572600480360381019061056d9190613982565b6112c6565b005b34801561058057600080fd5b5061059b600480360381019061059691906133a4565b611903565b6040516105a891906134b4565b60405180910390f35b3480156105bd57600080fd5b506105d860048036038101906105d391906134d6565b6119b9565b6040516105e9959493929190613546565b60405180910390f35b3480156105fe57600080fd5b5061061960048036038101906106149190613a24565b6119ef565b6040516106269190613512565b60405180910390f35b61064960048036038101906106449190613982565b611a0d565b005b34801561065757600080fd5b50610672600480360381019061066d91906133a4565b6120e0565b60405161067f91906138be565b60405180910390f35b34801561069457600080fd5b506106af60048036038101906106aa91906134d6565b61226f565b6040516106c196959493929190613a51565b60405180910390f35b6106e460048036038101906106df9190613be7565b6122ab565b005b3480156106f257600080fd5b5061070d600480360381019061070891906133a4565b612b84565b60405161071a9190613cb4565b60405180910390f35b61072b612bb6565b005b34801561073957600080fd5b50610754600480360381019061074f91906133a4565b612c85565b6040516107619190613512565b60405180910390f35b34801561077657600080fd5b50610791600480360381019061078c9190613916565b612cef565b60405161079e91906134b4565b60405180910390f35b7f000000000000000000000000000000000000000000000000000000000000000073ffffffffffffffffffffffffffffffffffffffff163373ffffffffffffffffffffffffffffffffffffffff1614610835576040517f08c379a000000000000000000000000000000000000000000000000000000000815260040161082c90613d2c565b60405180910390fd5b60005b60046000858152602001908152602001600020600501600084815260200190815260200160002080549050811015610a1457600060046000868152602001908152602001600020600501600085815260200190815260200160002082815481106108a5576108a4613d4c565b5b9060005260206000200160009054906101000a900473ffffffffffffffffffffffffffffffffffffffff169050600060046000878152602001908152602001600020600601600086815260200190815260200160002060008373ffffffffffffffffffffffffffffffffffffffff1673ffffffffffffffffffffffffffffffffffffffff1681526020019081526020016000206001015490508173ffffffffffffffffffffffffffffffffffffffff166108fc60046000898152602001908152602001600020600101548361097a9190613dd9565b9081150290604051600060405180830381858888f193505050501580156109a5573d6000803e3d6000fd5b5080600160008473ffffffffffffffffffffffffffffffffffffffff1673ffffffffffffffffffffffffffffffffffffffff16815260200190815260200160002060000160008282546109f89190613e0a565b9250508190555050508080610a0c90613e3e565b915050610838565b5060005b60046000858152602001908152602001600020600501600083815260200190815260200160002080549050811015610b8c5760006004600086815260200190815260200160002060050160008481526020019081526020016000208281548110610a8557610a84613d4c565b5b9060005260206000200160009054906101000a900473ffffffffffffffffffffffffffffffffffffffff169050600060046000878152602001908152602001600020600601600085815260200190815260200160002060008373ffffffffffffffffffffffffffffffffffffffff1673ffffffffffffffffffffffffffffffffffffffff16815260200190815260200160002060010154905080600160008473ffffffffffffffffffffffffffffffffffffffff1673ffffffffffffffffffffffffffffffffffffffff1681526020019081526020016000206000016000828254610b709190613e0a565b9250508190555050508080610b8490613e3e565b915050610a18565b50505050565b7f000000000000000000000000000000000000000000000000000000000000000081565b6060600560008481526020019081526020016000206006016000838152602001908152602001600020805480602002602001604051908101604052809291908181526020018280548015610c5f57602002820191906000526020600020905b8160009054906101000a900473ffffffffffffffffffffffffffffffffffffffff1673ffffffffffffffffffffffffffffffffffffffff1681526020019060010190808311610c15575b5050505050905092915050565b60026020528060005260406000206000915090505481565b60056020528060005260406000206000915090508060010154908060020154908060040154908060050154908060080154905085565b60076020528060005260406000206000915090505481565b7f000000000000000000000000000000000000000000000000000000000000000081565b6003602052816000526040600020602052806000526040600020600091509150505481565b6060600160003373ffffffffffffffffffffffffffffffffffffffff1673ffffffffffffffffffffffffffffffffffffffff168152602001908152602001600020600101805480602002602001604051908101604052809291908181526020016000905b82821015610ec157838290600052602060002090600602016040518060c00160405290816000820160009054906101000a900473ffffffffffffffffffffffffffffffffffffffff1673ffffffffffffffffffffffffffffffffffffffff1673ffffffffffffffffffffffffffffffffffffffff168152602001600182015481526020016002820154815260200160038201548152602001600482018054610e2690613eb5565b80601f0160208091040260200160405190810160405280929190818152602001828054610e5290613eb5565b8015610e9f5780601f10610e7457610100808354040283529160200191610e9f565b820191906000526020600020905b815481529060010190602001808311610e8257829003601f168201915b5050505050815260200160058201548152505081526020019060010190610d7f565b50505050905090565b7f000000000000000000000000000000000000000000000000000000000000000081565b737506c12a824d73d9b08564d5afc22c949434755e81565b600060066000838152602001908152602001600020600001549050919050565b610f2e61317e565b60056000848152602001908152602001600020600701600083815260200190815260200160002060003373ffffffffffffffffffffffffffffffffffffffff1673ffffffffffffffffffffffffffffffffffffffff1681526020019081526020016000206040518060c00160405290816000820160009054906101000a900473ffffffffffffffffffffffffffffffffffffffff1673ffffffffffffffffffffffffffffffffffffffff1673ffffffffffffffffffffffffffffffffffffffff16815260200160018201548152602001600282015481526020016003820154815260200160048201805461102190613eb5565b80601f016020809104026020016040519081016040528092919081815260200182805461104d90613eb5565b801561109a5780601f1061106f5761010080835404028352916020019161109a565b820191906000526020600020905b81548152906001019060200180831161107d57829003601f168201915b50505050508152602001600582015481525050905092915050565b600060046000838152602001908152602001600020600001549050919050565b6000600160003373ffffffffffffffffffffffffffffffffffffffff1673ffffffffffffffffffffffffffffffffffffffff16815260200190815260200160002060000154905090565b60086020528060005260406000206000915090505481565b61113f61317e565b60066000848152602001908152602001600020600701600083815260200190815260200160002060003373ffffffffffffffffffffffffffffffffffffffff1673ffffffffffffffffffffffffffffffffffffffff1681526020019081526020016000206040518060c00160405290816000820160009054906101000a900473ffffffffffffffffffffffffffffffffffffffff1673ffffffffffffffffffffffffffffffffffffffff1673ffffffffffffffffffffffffffffffffffffffff16815260200160018201548152602001600282015481526020016003820154815260200160048201805461123290613eb5565b80601f016020809104026020016040519081016040528092919081815260200182805461125e90613eb5565b80156112ab5780601f10611280576101008083540402835291602001916112ab565b820191906000526020600020905b81548152906001019060200180831161128e57829003601f168201915b50505050508152602001600582015481525050905092915050565b8284036112d257600080fd5b8673ffffffffffffffffffffffffffffffffffffffff163373ffffffffffffffffffffffffffffffffffffffff1614611340576040517f08c379a000000000000000000000000000000000000000000000000000000000815260040161133790613f58565b60405180910390fd5b60003411611383576040517f08c379a000000000000000000000000000000000000000000000000000000000815260040161137a90613fc4565b60405180910390fd5b600060646005346113949190613fe4565b61139e9190613dd9565b905060006064605f346113b19190613fe4565b6113bb9190613dd9565b90506000600660008a815260200190815260200160002090506000600160003373ffffffffffffffffffffffffffffffffffffffff1673ffffffffffffffffffffffffffffffffffffffff1681526020019081526020016000206001019050600082600701600087815260200190815260200160002060003373ffffffffffffffffffffffffffffffffffffffff1673ffffffffffffffffffffffffffffffffffffffff16815260200190815260200160002090506000836006016000888152602001908152602001600020905060008054906101000a900473ffffffffffffffffffffffffffffffffffffffff1673ffffffffffffffffffffffffffffffffffffffff166108fc879081150290604051600060405180830381858888f193505050501580156114ef573d6000803e3d6000fd5b5084600160003373ffffffffffffffffffffffffffffffffffffffff1673ffffffffffffffffffffffffffffffffffffffff1681526020019081526020016000206000016000828254611542919061403e565b92505081905550826040518060c001604052803373ffffffffffffffffffffffffffffffffffffffff168152602001878152602001600081526020018e81526020016040518060400160405280600b81526020017f506f696e7420546f74616c000000000000000000000000000000000000000000815250815260200142815250908060018154018082558091505060019003906000526020600020906006020160009091909190915060008201518160000160006101000a81548173ffffffffffffffffffffffffffffffffffffffff021916908373ffffffffffffffffffffffffffffffffffffffff160217905550602082015181600101556040820151816002015560608201518160030155608082015181600401908051906020019061166d9291906131ca565b5060a08201518160050155505034600260008e8152602001908152602001600020600082825461169d919061403e565b92505081905550848460020160008282546116b8919061403e565b925050819055508484600301600089815260200190815260200160002060008282546116e4919061403e565b925050819055508984600401819055508884600501819055508784600101819055508a84600001819055503373ffffffffffffffffffffffffffffffffffffffff16600660008e8152602001908152602001600020600701600089815260200190815260200160002060003373ffffffffffffffffffffffffffffffffffffffff1673ffffffffffffffffffffffffffffffffffffffff16815260200190815260200160002060000160009054906101000a900473ffffffffffffffffffffffffffffffffffffffff1673ffffffffffffffffffffffffffffffffffffffff161461182c5780339080600181540180825580915050600190039060005260206000200160009091909190916101000a81548173ffffffffffffffffffffffffffffffffffffffff021916908373ffffffffffffffffffffffffffffffffffffffff1602179055505b338260000160006101000a81548173ffffffffffffffffffffffffffffffffffffffff021916908373ffffffffffffffffffffffffffffffffffffffff16021790555084826001016000828254611883919061403e565b92505081905550600082600201819055508b82600301819055506040518060400160405280600b81526020017f506f696e7420546f74616c0000000000000000000000000000000000000000008152508260040190805190602001906118ea9291906131ca565b5042826005018190555050505050505050505050505050565b60606004600084815260200190815260200160002060050160008381526020019081526020016000208054806020026020016040519081016040528092919081815260200182805480156119ac57602002820191906000526020600020905b8160009054906101000a900473ffffffffffffffffffffffffffffffffffffffff1673ffffffffffffffffffffffffffffffffffffffff1681526020019060010190808311611962575b5050505050905092915050565b60046020528060005260406000206000915090508060000154908060010154908060030154908060040154908060070154905085565b60016020528060005260406000206000915090508060000154905081565b828403611a1957600080fd5b8673ffffffffffffffffffffffffffffffffffffffff163373ffffffffffffffffffffffffffffffffffffffff1614611a87576040517f08c379a0000000000000000000000000000000000000000000000000000000008152600401611a7e90613f58565b60405180910390fd5b60003411611aca576040517f08c379a0000000000000000000000000000000000000000000000000000000008152600401611ac190613fc4565b60405180910390fd5b83851480611ad757508285145b611b16576040517f08c379a0000000000000000000000000000000000000000000000000000000008152600401611b0d90614106565b60405180910390fd5b60006064600534611b279190613fe4565b611b319190613dd9565b905060006064605f34611b449190613fe4565b611b4e9190613dd9565b90506000600560008a815260200190815260200160002090506000600160003373ffffffffffffffffffffffffffffffffffffffff1673ffffffffffffffffffffffffffffffffffffffff168152602001908152602001600020600101905060008260070160008b815260200190815260200160002060003373ffffffffffffffffffffffffffffffffffffffff1673ffffffffffffffffffffffffffffffffffffffff168152602001908152602001600020905060008360060160008c8152602001908152602001600020905060008054906101000a900473ffffffffffffffffffffffffffffffffffffffff1673ffffffffffffffffffffffffffffffffffffffff166108fc879081150290604051600060405180830381858888f19350505050158015611c82573d6000803e3d6000fd5b5084600160003373ffffffffffffffffffffffffffffffffffffffff1673ffffffffffffffffffffffffffffffffffffffff1681526020019081526020016000206000016000828254611cd5919061403e565b92505081905550826040518060c001604052803373ffffffffffffffffffffffffffffffffffffffff1681526020018781526020018d81526020018e81526020016040518060400160405280600c81526020017f506f696e74205370726561640000000000000000000000000000000000000000815250815260200142815250908060018154018082558091505060019003906000526020600020906006020160009091909190915060008201518160000160006101000a81548173ffffffffffffffffffffffffffffffffffffffff021916908373ffffffffffffffffffffffffffffffffffffffff1602179055506020820151816001015560408201518160020155606082015181600301556080820151816004019080519060200190611dff9291906131ca565b5060a08201518160050155505034600260008e81526020019081526020016000206000828254611e2f919061403e565b9250508190555034600360008e815260200190815260200160002060008d81526020019081526020016000206000828254611e6a919061403e565b9250508190555084846002016000828254611e85919061403e565b92505081905550848460030160008d81526020019081526020016000206000828254611eb1919061403e565b92505081905550898460040181905550888460050181905550878460010181905550868460000160008d8152602001908152602001600020819055503373ffffffffffffffffffffffffffffffffffffffff16600560008e815260200190815260200160002060070160008d815260200190815260200160002060003373ffffffffffffffffffffffffffffffffffffffff1673ffffffffffffffffffffffffffffffffffffffff16815260200190815260200160002060000160009054906101000a900473ffffffffffffffffffffffffffffffffffffffff1673ffffffffffffffffffffffffffffffffffffffff161461200a5780339080600181540180825580915050600190039060005260206000200160009091909190916101000a81548173ffffffffffffffffffffffffffffffffffffffff021916908373ffffffffffffffffffffffffffffffffffffffff1602179055505b338260000160006101000a81548173ffffffffffffffffffffffffffffffffffffffff021916908373ffffffffffffffffffffffffffffffffffffffff16021790555084826001016000828254612061919061403e565b925050819055508a82600201819055508b82600301819055506040518060400160405280600c81526020017f506f696e742053707265616400000000000000000000000000000000000000008152508260040190805190602001906120c79291906131ca565b5042826005018190555050505050505050505050505050565b6120e861317e565b60046000848152602001908152602001600020600601600083815260200190815260200160002060003373ffffffffffffffffffffffffffffffffffffffff1673ffffffffffffffffffffffffffffffffffffffff1681526020019081526020016000206040518060c00160405290816000820160009054906101000a900473ffffffffffffffffffffffffffffffffffffffff1673ffffffffffffffffffffffffffffffffffffffff1673ffffffffffffffffffffffffffffffffffffffff1681526020016001820154815260200160028201548152602001600382015481526020016004820180546121db90613eb5565b80601f016020809104026020016040519081016040528092919081815260200182805461220790613eb5565b80156122545780601f1061222957610100808354040283529160200191612254565b820191906000526020600020905b81548152906001019060200180831161223757829003601f168201915b50505050508152602001600582015481525050905092915050565b60066020528060005260406000206000915090508060000154908060010154908060020154908060040154908060050154908060080154905086565b8284036122b757600080fd5b8673ffffffffffffffffffffffffffffffffffffffff163373ffffffffffffffffffffffffffffffffffffffff1614612325576040517f08c379a000000000000000000000000000000000000000000000000000000000815260040161231c90613f58565b60405180910390fd5b60003411612368576040517f08c379a000000000000000000000000000000000000000000000000000000000815260040161235f90613fc4565b60405180910390fd5b8385148061237557508285145b6123b4576040517f08c379a00000000000000000000000000000000000000000000000000000000081526004016123ab90614106565b60405180910390fd5b60008019166004600088815260200190815260200160002060070154036125d45760006040518060400160405280600267ffffffffffffffff8111156123fd576123fc613abc565b5b60405190808252806020026020018201604052801561242b5781602001602082028036833780820191505090505b508152602001600267ffffffffffffffff81111561244c5761244b613abc565b5b60405190808252806020026020018201604052801561247f57816020015b606081526020019060019003908161246a5790505b5081525090506002816000015160008151811061249f5761249e613d4c565b5b602002602001019060048111156124b9576124b8614126565b5b908160048111156124cd576124cc614126565b5b81525050600481600001516001815181106124eb576124ea613d4c565b5b6020026020010190600481111561250557612504614126565b5b9081600481111561251957612518614126565b5b81525050612525612da5565b816020015160008151811061253d5761253c613d4c565b5b602002602001018190525061255c82612557308a87612dbc565b612deb565b816020015160018151811061257457612573613d4c565b5b602002602001018190525060006125b4306303bfeb2060e01b60405160200161259d9190614190565b604051602081830303815290604052846000612e17565b905080600460008a81526020019081526020016000206007018190555050505b600060646005346125e59190613fe4565b6125ef9190613dd9565b905060006064605f346126029190613fe4565b61260c9190613dd9565b90506000600460008a815260200190815260200160002090506000600160003373ffffffffffffffffffffffffffffffffffffffff1673ffffffffffffffffffffffffffffffffffffffff168152602001908152602001600020600101905060008260060160008b815260200190815260200160002060003373ffffffffffffffffffffffffffffffffffffffff1673ffffffffffffffffffffffffffffffffffffffff168152602001908152602001600020905060008360050160008c8152602001908152602001600020905060008054906101000a900473ffffffffffffffffffffffffffffffffffffffff1673ffffffffffffffffffffffffffffffffffffffff166108fc879081150290604051600060405180830381858888f19350505050158015612740573d6000803e3d6000fd5b5084600160003373ffffffffffffffffffffffffffffffffffffffff1673ffffffffffffffffffffffffffffffffffffffff1681526020019081526020016000206000016000828254612793919061403e565b92505081905550826040518060c001604052803373ffffffffffffffffffffffffffffffffffffffff1681526020018781526020018d81526020018e81526020016040518060400160405280600a81526020017f4d6f6e6579204c696e6500000000000000000000000000000000000000000000815250815260200142815250908060018154018082558091505060019003906000526020600020906006020160009091909190915060008201518160000160006101000a81548173ffffffffffffffffffffffffffffffffffffffff021916908373ffffffffffffffffffffffffffffffffffffffff16021790555060208201518160010155604082015181600201556060820151816003015560808201518160040190805190602001906128bd9291906131ca565b5060a08201518160050155505034600260008e815260200190815260200160002060008282546128ed919061403e565b9250508190555034600360008e815260200190815260200160002060008d81526020019081526020016000206000828254612928919061403e565b9250508190555084846001016000828254612943919061403e565b92505081905550848460020160008d8152602001908152602001600020600082825461296f919061403e565b925050819055508984600301819055508884600401819055508784600001819055503373ffffffffffffffffffffffffffffffffffffffff16600460008e815260200190815260200160002060060160008d815260200190815260200160002060003373ffffffffffffffffffffffffffffffffffffffff1673ffffffffffffffffffffffffffffffffffffffff16815260200190815260200160002060000160009054906101000a900473ffffffffffffffffffffffffffffffffffffffff1673ffffffffffffffffffffffffffffffffffffffff1614612aae5780339080600181540180825580915050600190039060005260206000200160009091909190916101000a81548173ffffffffffffffffffffffffffffffffffffffff021916908373ffffffffffffffffffffffffffffffffffffffff1602179055505b338260000160006101000a81548173ffffffffffffffffffffffffffffffffffffffff021916908373ffffffffffffffffffffffffffffffffffffffff16021790555084826001016000828254612b05919061403e565b925050819055508a82600201819055508b82600301819055506040518060400160405280600a81526020017f4d6f6e6579204c696e6500000000000000000000000000000000000000000000815250826004019080519060200190612b6b9291906131ca565b5042826005018190555050505050505050505050505050565b600060056000848152602001908152602001600020600001600083815260200190815260200160002054905092915050565b60008054906101000a900473ffffffffffffffffffffffffffffffffffffffff1673ffffffffffffffffffffffffffffffffffffffff163373ffffffffffffffffffffffffffffffffffffffff1614612c44576040517f08c379a0000000000000000000000000000000000000000000000000000000008152600401612c3b906141f7565b60405180910390fd5b612c833473eeeeeeeeeeeeeeeeeeeeeeeeeeeeeeeeeeeeeeee60008054906101000a900473ffffffffffffffffffffffffffffffffffffffff16612ec5565b565b600080600360008581526020019081526020016000206000848152602001908152602001600020549050600060026000868152602001908152602001600020549050600081606484612cd79190613fe4565b612ce19190613dd9565b905080935050505092915050565b6060600660008481526020019081526020016000206006016000838152602001908152602001600020805480602002602001604051908101604052809291908181526020018280548015612d9857602002820191906000526020600020905b8160009054906101000a900473ffffffffffffffffffffffffffffffffffffffff1673ffffffffffffffffffffffffffffffffffffffff1681526020019060010190808311612d4e575b5050505050905092915050565b606060405180602001604052806000815250905090565b6060838383604051602001612dd393929190614217565b60405160208183030381529060405290509392505050565b60608282604051602001612e009291906142dc565b604051602081830303815290604052905092915050565b60007f000000000000000000000000000000000000000000000000000000000000000073ffffffffffffffffffffffffffffffffffffffff16633323b467868686866040518563ffffffff1660e01b8152600401612e78949392919061455a565b6020604051808303816000875af1158015612e97573d6000803e3d6000fd5b505050506040513d601f19601f82011682018060405250810190612ebb91906145d9565b9050949350505050565b73eeeeeeeeeeeeeeeeeeeeeeeeeeeeeeeeeeeeeeee73ffffffffffffffffffffffffffffffffffffffff168273ffffffffffffffffffffffffffffffffffffffff1603612fd45760054614612f4f576040517f08c379a0000000000000000000000000000000000000000000000000000000008152600401612f4690614652565b60405180910390fd5b737506c12a824d73d9b08564d5afc22c949434755e73ffffffffffffffffffffffffffffffffffffffff166333bb7f9184836040518363ffffffff1660e01b8152600401612f9d91906135ba565b6000604051808303818588803b158015612fb657600080fd5b505af1158015612fca573d6000803e3d6000fd5b5050505050613179565b6089461480156130235750732791bca1f2de4661ed88a30c99a7a9449aa8417473ffffffffffffffffffffffffffffffffffffffff168273ffffffffffffffffffffffffffffffffffffffff16145b613062576040517f08c379a0000000000000000000000000000000000000000000000000000000008152600401613059906146be565b60405180910390fd5b8173ffffffffffffffffffffffffffffffffffffffff1663095ea7b3737506c12a824d73d9b08564d5afc22c949434755e856040518363ffffffff1660e01b81526004016130b19291906146de565b6020604051808303816000875af11580156130d0573d6000803e3d6000fd5b505050506040513d601f19601f820116820180604052508101906130f4919061473f565b50737506c12a824d73d9b08564d5afc22c949434755e73ffffffffffffffffffffffffffffffffffffffff1663fb0f97a88284866040518463ffffffff1660e01b81526004016131469392919061476c565b600060405180830381600087803b15801561316057600080fd5b505af1158015613174573d6000803e3d6000fd5b505050505b505050565b6040518060c00160405280600073ffffffffffffffffffffffffffffffffffffffff16815260200160008152602001600081526020016000815260200160608152602001600081525090565b8280546131d690613eb5565b90600052602060002090601f0160209004810192826131f8576000855561323f565b82601f1061321157805160ff191683800117855561323f565b8280016001018555821561323f579182015b8281111561323e578251825591602001919060010190613223565b5b50905061324c9190613250565b5090565b5b80821115613269576000816000905550600101613251565b5090565b6000604051905090565b600080fd5b600080fd5b6000819050919050565b61329481613281565b811461329f57600080fd5b50565b6000813590506132b18161328b565b92915050565b6000806000606084860312156132d0576132cf613277565b5b60006132de868287016132a2565b93505060206132ef868287016132a2565b9250506040613300868287016132a2565b9150509250925092565b600073ffffffffffffffffffffffffffffffffffffffff82169050919050565b6000819050919050565b600061334f61334a6133458461330a565b61332a565b61330a565b9050919050565b600061336182613334565b9050919050565b600061337382613356565b9050919050565b61338381613368565b82525050565b600060208201905061339e600083018461337a565b92915050565b600080604083850312156133bb576133ba613277565b5b60006133c9858286016132a2565b92505060206133da858286016132a2565b9150509250929050565b600081519050919050565b600082825260208201905092915050565b6000819050602082019050919050565b600061341b8261330a565b9050919050565b61342b81613410565b82525050565b600061343d8383613422565b60208301905092915050565b6000602082019050919050565b6000613461826133e4565b61346b81856133ef565b935061347683613400565b8060005b838110156134a757815161348e8882613431565b975061349983613449565b92505060018101905061347a565b5085935050505092915050565b600060208201905081810360008301526134ce8184613456565b905092915050565b6000602082840312156134ec576134eb613277565b5b60006134fa848285016132a2565b91505092915050565b61350c81613281565b82525050565b60006020820190506135276000830184613503565b92915050565b6000819050919050565b6135408161352d565b82525050565b600060a08201905061355b6000830188613503565b6135686020830187613503565b6135756040830186613503565b6135826060830185613503565b61358f6080830184613537565b9695505050505050565b60006135a48261330a565b9050919050565b6135b481613599565b82525050565b60006020820190506135cf60008301846135ab565b92915050565b600081519050919050565b600082825260208201905092915050565b6000819050602082019050919050565b61360a81613599565b82525050565b61361981613281565b82525050565b600081519050919050565b600082825260208201905092915050565b60005b8381101561365957808201518184015260208101905061363e565b83811115613668576000848401525b50505050565b6000601f19601f8301169050919050565b600061368a8261361f565b613694818561362a565b93506136a481856020860161363b565b6136ad8161366e565b840191505092915050565b600060c0830160008301516136d06000860182613601565b5060208301516136e36020860182613610565b5060408301516136f66040860182613610565b5060608301516137096060860182613610565b5060808301518482036080860152613721828261367f565b91505060a083015161373660a0860182613610565b508091505092915050565b600061374d83836136b8565b905092915050565b6000602082019050919050565b600061376d826135d5565b61377781856135e0565b935083602082028501613789856135f1565b8060005b858110156137c557848403895281516137a68582613741565b94506137b183613755565b925060208a0199505060018101905061378d565b50829750879550505050505092915050565b600060208201905081810360008301526137f18184613762565b905092915050565b600061380482613356565b9050919050565b613814816137f9565b82525050565b600060208201905061382f600083018461380b565b92915050565b600060c08301600083015161384d6000860182613601565b5060208301516138606020860182613610565b5060408301516138736040860182613610565b5060608301516138866060860182613610565b506080830151848203608086015261389e828261367f565b91505060a08301516138b360a0860182613610565b508091505092915050565b600060208201905081810360008301526138d88184613835565b905092915050565b6000819050919050565b6138f3816138e0565b81146138fe57600080fd5b50565b600081359050613910816138ea565b92915050565b6000806040838503121561392d5761392c613277565b5b600061393b858286016132a2565b925050602061394c85828601613901565b9150509250929050565b61395f81613599565b811461396a57600080fd5b50565b60008135905061397c81613956565b92915050565b600080600080600080600060e0888a0312156139a1576139a0613277565b5b60006139af8a828b0161396d565b97505060206139c08a828b016132a2565b96505060406139d18a828b016132a2565b95505060606139e28a828b016132a2565b94505060806139f38a828b016132a2565b93505060a0613a048a828b016132a2565b92505060c0613a158a828b01613901565b91505092959891949750929550565b600060208284031215613a3a57613a39613277565b5b6000613a488482850161396d565b91505092915050565b600060c082019050613a666000830189613503565b613a736020830188613503565b613a806040830187613503565b613a8d6060830186613503565b613a9a6080830185613503565b613aa760a0830184613537565b979650505050505050565b600080fd5b600080fd5b7f4e487b7100000000000000000000000000000000000000000000000000000000600052604160045260246000fd5b613af48261366e565b810181811067ffffffffffffffff82111715613b1357613b12613abc565b5b80604052505050565b6000613b2661326d565b9050613b328282613aeb565b919050565b600067ffffffffffffffff821115613b5257613b51613abc565b5b613b5b8261366e565b9050602081019050919050565b82818337600083830152505050565b6000613b8a613b8584613b37565b613b1c565b905082815260208101848484011115613ba657613ba5613ab7565b5b613bb1848285613b68565b509392505050565b600082601f830112613bce57613bcd613ab2565b5b8135613bde848260208601613b77565b91505092915050565b600080600080600080600060e0888a031215613c0657613c05613277565b5b6000613c148a828b0161396d565b9750506020613c258a828b016132a2565b9650506040613c368a828b016132a2565b9550506060613c478a828b016132a2565b9450506080613c588a828b016132a2565b93505060a0613c698a828b016132a2565b92505060c088013567ffffffffffffffff811115613c8a57613c8961327c565b5b613c968a828b01613bb9565b91505092959891949750929550565b613cae816138e0565b82525050565b6000602082019050613cc96000830184613ca5565b92915050565b600082825260208201905092915050565b7f4f6e6c7920646564696361746564206d73672e73656e64657200000000000000600082015250565b6000613d16601983613ccf565b9150613d2182613ce0565b602082019050919050565b60006020820190508181036000830152613d4581613d09565b9050919050565b7f4e487b7100000000000000000000000000000000000000000000000000000000600052603260045260246000fd5b7f4e487b7100000000000000000000000000000000000000000000000000000000600052601260045260246000fd5b7f4e487b7100000000000000000000000000000000000000000000000000000000600052601160045260246000fd5b6000613de482613281565b9150613def83613281565b925082613dff57613dfe613d7b565b5b828204905092915050565b6000613e1582613281565b9150613e2083613281565b925082821015613e3357613e32613daa565b5b828203905092915050565b6000613e4982613281565b91507fffffffffffffffffffffffffffffffffffffffffffffffffffffffffffffffff8203613e7b57613e7a613daa565b5b600182019050919050565b7f4e487b7100000000000000000000000000000000000000000000000000000000600052602260045260246000fd5b60006002820490506001821680613ecd57607f821691505b602082108103613ee057613edf613e86565b5b50919050565b7f596f75206d757374206265742066726f6d20796f7572206f776e20616464726560008201527f7373000000000000000000000000000000000000000000000000000000000000602082015250565b6000613f42602283613ccf565b9150613f4d82613ee6565b604082019050919050565b60006020820190508181036000830152613f7181613f35565b9050919050565b7f596f75206d7573742062657420736f6d657468696e6700000000000000000000600082015250565b6000613fae601683613ccf565b9150613fb982613f78565b602082019050919050565b60006020820190508181036000830152613fdd81613fa1565b9050919050565b6000613fef82613281565b9150613ffa83613281565b9250817fffffffffffffffffffffffffffffffffffffffffffffffffffffffffffffffff048311821515161561403357614032613daa565b5b828202905092915050565b600061404982613281565b915061405483613281565b9250827fffffffffffffffffffffffffffffffffffffffffffffffffffffffffffffffff0382111561408957614088613daa565b5b828201905092915050565b7f596f75206d75737420626574206f6e2061207465616d2074686174206973207060008201527f6c6179696e6720696e20746869732067616d6500000000000000000000000000602082015250565b60006140f0603383613ccf565b91506140fb82614094565b604082019050919050565b6000602082019050818103600083015261411f816140e3565b9050919050565b7f4e487b7100000000000000000000000000000000000000000000000000000000600052602160045260246000fd5b60007fffffffff0000000000000000000000000000000000000000000000000000000082169050919050565b61418a81614155565b82525050565b60006020820190506141a56000830184614181565b92915050565b7f596f7520617265206e6f74207468652061646d696e0000000000000000000000600082015250565b60006141e1601583613ccf565b91506141ec826141ab565b602082019050919050565b60006020820190508181036000830152614210816141d4565b9050919050565b600060608201905061422c60008301866135ab565b6142396020830185613503565b6142466040830184613503565b949350505050565b60006142598261361f565b6142638185613ccf565b935061427381856020860161363b565b61427c8161366e565b840191505092915050565b600081519050919050565b600082825260208201905092915050565b60006142ae82614287565b6142b88185614292565b93506142c881856020860161363b565b6142d18161366e565b840191505092915050565b600060408201905081810360008301526142f6818561424e565b9050818103602083015261430a81846142a3565b90509392505050565b600081519050919050565b600082825260208201905092915050565b6000819050602082019050919050565b600581106143505761434f614126565b5b50565b60008190506143618261433f565b919050565b600061437182614353565b9050919050565b61438181614366565b82525050565b60006143938383614378565b60208301905092915050565b6000602082019050919050565b60006143b782614313565b6143c1818561431e565b93506143cc8361432f565b8060005b838110156143fd5781516143e48882614387565b97506143ef8361439f565b9250506001810190506143d0565b5085935050505092915050565b600081519050919050565b600082825260208201905092915050565b6000819050602082019050919050565b600082825260208201905092915050565b600061445282614287565b61445c8185614436565b935061446c81856020860161363b565b6144758161366e565b840191505092915050565b600061448c8383614447565b905092915050565b6000602082019050919050565b60006144ac8261440a565b6144b68185614415565b9350836020820285016144c885614426565b8060005b8581101561450457848403895281516144e58582614480565b94506144f083614494565b925060208a019950506001810190506144cc565b50829750879550505050505092915050565b6000604083016000830151848203600086015261453382826143ac565b9150506020830151848203602086015261454d82826144a1565b9150508091505092915050565b600060808201905061456f60008301876135ab565b818103602083015261458181866142a3565b905081810360408301526145958185614516565b90506145a460608301846135ab565b95945050505050565b6145b68161352d565b81146145c157600080fd5b50565b6000815190506145d3816145ad565b92915050565b6000602082840312156145ef576145ee613277565b5b60006145fd848285016145c4565b91505092915050565b7f4f6e6c79206465706f73697420455448206f6e20676f65726c69000000000000600082015250565b600061463c601a83613ccf565b915061464782614606565b602082019050919050565b6000602082019050818103600083015261466b8161462f565b9050919050565b7f4f6e6c79206465706f7369742055534443206f6e20706f6c79676f6e00000000600082015250565b60006146a8601c83613ccf565b91506146b382614672565b602082019050919050565b600060208201905081810360008301526146d78161469b565b9050919050565b60006040820190506146f360008301856135ab565b6147006020830184613503565b9392505050565b60008115159050919050565b61471c81614707565b811461472757600080fd5b50565b60008151905061473981614713565b92915050565b60006020828403121561475557614754613277565b5b60006147638482850161472a565b91505092915050565b600060608201905061478160008301866135ab565b61478e60208301856135ab565b61479b6040830184613503565b94935050505056fea2646970667358221220e376dd1487fe75249197489c3fa38106162ec90cc99e61cebecb7c9fa546eaed64736f6c634300080e0033",
  "linkReferences": {},
  "deployedLinkReferences": {}
}