{
  "_format": "hh-sol-artifact-1",
  "contractName": "Bet",
  "sourceName": "contracts/Bet.sol",
  "abi": [
    {
      "inputs": [],
      "stateMutability": "nonpayable",
      "type": "constructor"
    },
    {
      "anonymous": false,
      "inputs": [
        {
          "indexed": true,
          "internalType": "bytes32",
          "name": "id",
          "type": "bytes32"
        }
      ],
      "name": "ChainlinkCancelled",
      "type": "event"
    },
    {
      "anonymous": false,
      "inputs": [
        {
          "indexed": true,
          "internalType": "bytes32",
          "name": "id",
          "type": "bytes32"
        }
      ],
      "name": "ChainlinkFulfilled",
      "type": "event"
    },
    {
      "anonymous": false,
      "inputs": [
        {
          "indexed": true,
          "internalType": "bytes32",
          "name": "id",
          "type": "bytes32"
        }
      ],
      "name": "ChainlinkRequested",
      "type": "event"
    },
    {
      "anonymous": false,
      "inputs": [
        {
          "indexed": true,
          "internalType": "address",
          "name": "from",
          "type": "address"
        },
        {
          "indexed": true,
          "internalType": "address",
          "name": "to",
          "type": "address"
        }
      ],
      "name": "OwnershipTransferRequested",
      "type": "event"
    },
    {
      "anonymous": false,
      "inputs": [
        {
          "indexed": true,
          "internalType": "address",
          "name": "from",
          "type": "address"
        },
        {
          "indexed": true,
          "internalType": "address",
          "name": "to",
          "type": "address"
        }
      ],
      "name": "OwnershipTransferred",
      "type": "event"
    },
    {
      "anonymous": false,
      "inputs": [
        {
          "indexed": false,
          "internalType": "bytes32",
          "name": "requestId",
          "type": "bytes32"
        },
        {
          "indexed": true,
          "internalType": "uint256",
          "name": "id",
          "type": "uint256"
        },
        {
          "indexed": true,
          "internalType": "uint256",
          "name": "home_team_score",
          "type": "uint256"
        },
        {
          "indexed": true,
          "internalType": "uint256",
          "name": "visitor_team_score",
          "type": "uint256"
        }
      ],
      "name": "RequestMultipleFulfilled",
      "type": "event"
    },
    {
      "inputs": [],
      "name": "acceptOwnership",
      "outputs": [],
      "stateMutability": "nonpayable",
      "type": "function"
    },
    {
      "inputs": [],
      "name": "automate",
      "outputs": [
        {
          "internalType": "contract IAutomate",
          "name": "",
          "type": "address"
        }
      ],
      "stateMutability": "view",
      "type": "function"
    },
    {
      "inputs": [],
      "name": "dedicatedMsgSender",
      "outputs": [
        {
          "internalType": "address",
          "name": "",
          "type": "address"
        }
      ],
      "stateMutability": "view",
      "type": "function"
    },
    {
      "inputs": [],
      "name": "depositForCounter",
      "outputs": [],
      "stateMutability": "payable",
      "type": "function"
    },
    {
      "inputs": [
        {
          "internalType": "bytes32",
          "name": "requestId",
          "type": "bytes32"
        },
        {
          "internalType": "uint256",
          "name": "idResponse",
          "type": "uint256"
        },
        {
          "internalType": "uint256",
          "name": "home_team_scoreResponse",
          "type": "uint256"
        },
        {
          "internalType": "uint256",
          "name": "visitor_team_scoreResponse",
          "type": "uint256"
        }
      ],
      "name": "fulfillMultipleParameters",
      "outputs": [],
      "stateMutability": "nonpayable",
      "type": "function"
    },
    {
      "inputs": [],
      "name": "fundsOwner",
      "outputs": [
        {
          "internalType": "address",
          "name": "",
          "type": "address"
        }
      ],
      "stateMutability": "view",
      "type": "function"
    },
    {
      "inputs": [
        {
          "internalType": "uint256",
          "name": "",
          "type": "uint256"
        }
      ],
      "name": "home_team_score",
      "outputs": [
        {
          "internalType": "uint256",
          "name": "",
          "type": "uint256"
        }
      ],
      "stateMutability": "view",
      "type": "function"
    },
    {
      "inputs": [
        {
          "internalType": "address",
          "name": "user",
          "type": "address"
        },
        {
          "internalType": "uint256",
          "name": "gameID",
          "type": "uint256"
        },
        {
          "internalType": "uint256",
          "name": "teamID",
          "type": "uint256"
        },
        {
          "internalType": "uint256",
          "name": "homeTeamID",
          "type": "uint256"
        },
        {
          "internalType": "uint256",
          "name": "awayTeamID",
          "type": "uint256"
        },
        {
          "internalType": "uint256",
          "name": "startTime",
          "type": "uint256"
        }
      ],
      "name": "moneyLineBet",
      "outputs": [],
      "stateMutability": "payable",
      "type": "function"
    },
    {
      "inputs": [
        {
          "internalType": "uint256",
          "name": "currentGameID",
          "type": "uint256"
        }
      ],
      "name": "moneyLineChecker",
      "outputs": [
        {
          "internalType": "bool",
          "name": "canExec",
          "type": "bool"
        },
        {
          "internalType": "bytes",
          "name": "execPayload",
          "type": "bytes"
        }
      ],
      "stateMutability": "view",
      "type": "function"
    },
    {
      "inputs": [
        {
          "internalType": "uint256",
          "name": "",
          "type": "uint256"
        }
      ],
      "name": "newMoneyLineBet",
      "outputs": [
        {
          "internalType": "uint256",
          "name": "startTime",
          "type": "uint256"
        },
        {
          "internalType": "uint256",
          "name": "total",
          "type": "uint256"
        },
        {
          "internalType": "uint256",
          "name": "homeTeamID",
          "type": "uint256"
        },
        {
          "internalType": "uint256",
          "name": "awayTeamID",
          "type": "uint256"
        },
        {
          "internalType": "uint256",
          "name": "result",
          "type": "uint256"
        }
      ],
      "stateMutability": "view",
      "type": "function"
    },
    {
      "inputs": [
        {
          "internalType": "uint256",
          "name": "",
          "type": "uint256"
        }
      ],
      "name": "newPointSpreadBet",
      "outputs": [
        {
          "internalType": "uint256",
          "name": "startTime",
          "type": "uint256"
        },
        {
          "internalType": "uint256",
          "name": "total",
          "type": "uint256"
        },
        {
          "internalType": "uint256",
          "name": "homeTeamID",
          "type": "uint256"
        },
        {
          "internalType": "uint256",
          "name": "awayTeamID",
          "type": "uint256"
        },
        {
          "internalType": "uint256",
          "name": "result",
          "type": "uint256"
        }
      ],
      "stateMutability": "view",
      "type": "function"
    },
    {
      "inputs": [
        {
          "internalType": "uint256",
          "name": "",
          "type": "uint256"
        }
      ],
      "name": "newPointTotalBet",
      "outputs": [
        {
          "internalType": "uint256",
          "name": "pointAmount",
          "type": "uint256"
        },
        {
          "internalType": "uint256",
          "name": "startTime",
          "type": "uint256"
        },
        {
          "internalType": "uint256",
          "name": "total",
          "type": "uint256"
        },
        {
          "internalType": "uint256",
          "name": "homeTeamID",
          "type": "uint256"
        },
        {
          "internalType": "uint256",
          "name": "awayTeamID",
          "type": "uint256"
        },
        {
          "internalType": "int256",
          "name": "result",
          "type": "int256"
        }
      ],
      "stateMutability": "view",
      "type": "function"
    },
    {
      "inputs": [],
      "name": "owner",
      "outputs": [
        {
          "internalType": "address",
          "name": "",
          "type": "address"
        }
      ],
      "stateMutability": "view",
      "type": "function"
    },
    {
      "inputs": [
        {
          "internalType": "address",
          "name": "user",
          "type": "address"
        },
        {
          "internalType": "uint256",
          "name": "gameID",
          "type": "uint256"
        },
        {
          "internalType": "uint256",
          "name": "pointAmount",
          "type": "uint256"
        },
        {
          "internalType": "uint256",
          "name": "homeTeamID",
          "type": "uint256"
        },
        {
          "internalType": "uint256",
          "name": "awayTeamID",
          "type": "uint256"
        },
        {
          "internalType": "uint256",
          "name": "startTime",
          "type": "uint256"
        },
        {
          "internalType": "int256",
          "name": "value",
          "type": "int256"
        }
      ],
      "name": "pointTotalBet",
      "outputs": [],
      "stateMutability": "payable",
      "type": "function"
    },
    {
      "inputs": [
        {
          "internalType": "uint256",
          "name": "currentGameID",
          "type": "uint256"
        }
      ],
      "name": "requestMultipleParameters",
      "outputs": [],
      "stateMutability": "nonpayable",
      "type": "function"
    },
    {
      "inputs": [],
      "name": "returnEscrow",
      "outputs": [
        {
          "internalType": "uint256",
          "name": "",
          "type": "uint256"
        }
      ],
      "stateMutability": "view",
      "type": "function"
    },
    {
      "inputs": [
        {
          "internalType": "uint256",
          "name": "gameID",
          "type": "uint256"
        },
        {
          "internalType": "uint256",
          "name": "teamID",
          "type": "uint256"
        }
      ],
      "name": "returnMoneyLineBetReceipt",
      "outputs": [
        {
          "components": [
            {
              "internalType": "address",
              "name": "addr",
              "type": "address"
            },
            {
              "internalType": "uint256",
              "name": "amount",
              "type": "uint256"
            },
            {
              "internalType": "uint256",
              "name": "teamID",
              "type": "uint256"
            },
            {
              "internalType": "uint256",
              "name": "gameID",
              "type": "uint256"
            },
            {
              "internalType": "string",
              "name": "betType",
              "type": "string"
            },
            {
              "internalType": "uint256",
              "name": "time",
              "type": "uint256"
            }
          ],
          "internalType": "struct Bet.Transaction",
          "name": "",
          "type": "tuple"
        }
      ],
      "stateMutability": "view",
      "type": "function"
    },
    {
      "inputs": [
        {
          "internalType": "uint256",
          "name": "gameID",
          "type": "uint256"
        },
        {
          "internalType": "uint256",
          "name": "bettingTeamID",
          "type": "uint256"
        }
      ],
      "name": "returnOdds",
      "outputs": [
        {
          "internalType": "uint256",
          "name": "",
          "type": "uint256"
        }
      ],
      "stateMutability": "view",
      "type": "function"
    },
    {
      "inputs": [
        {
          "internalType": "uint256",
          "name": "gameID",
          "type": "uint256"
        },
        {
          "internalType": "uint256",
          "name": "teamID",
          "type": "uint256"
        }
      ],
      "name": "returnPointSpreadBetReceipt",
      "outputs": [
        {
          "components": [
            {
              "internalType": "address",
              "name": "addr",
              "type": "address"
            },
            {
              "internalType": "uint256",
              "name": "amount",
              "type": "uint256"
            },
            {
              "internalType": "uint256",
              "name": "teamID",
              "type": "uint256"
            },
            {
              "internalType": "uint256",
              "name": "gameID",
              "type": "uint256"
            },
            {
              "internalType": "string",
              "name": "betType",
              "type": "string"
            },
            {
              "internalType": "uint256",
              "name": "time",
              "type": "uint256"
            }
          ],
          "internalType": "struct Bet.Transaction",
          "name": "",
          "type": "tuple"
        }
      ],
      "stateMutability": "view",
      "type": "function"
    },
    {
      "inputs": [
        {
          "internalType": "uint256",
          "name": "gameID",
          "type": "uint256"
        },
        {
          "internalType": "int256",
          "name": "value",
          "type": "int256"
        }
      ],
      "name": "returnPointTotalBetReceipt",
      "outputs": [
        {
          "components": [
            {
              "internalType": "address",
              "name": "addr",
              "type": "address"
            },
            {
              "internalType": "uint256",
              "name": "amount",
              "type": "uint256"
            },
            {
              "internalType": "uint256",
              "name": "teamID",
              "type": "uint256"
            },
            {
              "internalType": "uint256",
              "name": "gameID",
              "type": "uint256"
            },
            {
              "internalType": "string",
              "name": "betType",
              "type": "string"
            },
            {
              "internalType": "uint256",
              "name": "time",
              "type": "uint256"
            }
          ],
          "internalType": "struct Bet.Transaction",
          "name": "",
          "type": "tuple"
        }
      ],
      "stateMutability": "view",
      "type": "function"
    },
    {
      "inputs": [],
      "name": "returnReceipts",
      "outputs": [
        {
          "components": [
            {
              "internalType": "address",
              "name": "addr",
              "type": "address"
            },
            {
              "internalType": "uint256",
              "name": "amount",
              "type": "uint256"
            },
            {
              "internalType": "uint256",
              "name": "teamID",
              "type": "uint256"
            },
            {
              "internalType": "uint256",
              "name": "gameID",
              "type": "uint256"
            },
            {
              "internalType": "string",
              "name": "betType",
              "type": "string"
            },
            {
              "internalType": "uint256",
              "name": "time",
              "type": "uint256"
            }
          ],
          "internalType": "struct Bet.Transaction[]",
          "name": "",
          "type": "tuple[]"
        }
      ],
      "stateMutability": "view",
      "type": "function"
    },
    {
      "inputs": [
        {
          "internalType": "uint256",
          "name": "gameID",
          "type": "uint256"
        }
      ],
      "name": "returnResponse",
      "outputs": [
        {
          "internalType": "uint256",
          "name": "",
          "type": "uint256"
        }
      ],
      "stateMutability": "nonpayable",
      "type": "function"
    },
    {
      "inputs": [
        {
          "internalType": "uint256",
          "name": "gameID",
          "type": "uint256"
        }
      ],
      "name": "rewardMoneyLineWinners",
      "outputs": [],
      "stateMutability": "nonpayable",
      "type": "function"
    },
    {
      "inputs": [],
      "name": "taskTreasury",
      "outputs": [
        {
          "internalType": "contract ITaskTreasuryUpgradable",
          "name": "",
          "type": "address"
        }
      ],
      "stateMutability": "view",
      "type": "function"
    },
    {
      "inputs": [
        {
          "internalType": "uint256",
          "name": "",
          "type": "uint256"
        }
      ],
      "name": "totalBetOnGame",
      "outputs": [
        {
          "internalType": "uint256",
          "name": "",
          "type": "uint256"
        }
      ],
      "stateMutability": "view",
      "type": "function"
    },
    {
      "inputs": [
        {
          "internalType": "uint256",
          "name": "",
          "type": "uint256"
        },
        {
          "internalType": "uint256",
          "name": "",
          "type": "uint256"
        }
      ],
      "name": "totalBetOnTeam",
      "outputs": [
        {
          "internalType": "uint256",
          "name": "",
          "type": "uint256"
        }
      ],
      "stateMutability": "view",
      "type": "function"
    },
    {
      "inputs": [
        {
          "internalType": "address",
          "name": "to",
          "type": "address"
        }
      ],
      "name": "transferOwnership",
      "outputs": [],
      "stateMutability": "nonpayable",
      "type": "function"
    },
    {
      "inputs": [
        {
          "internalType": "uint256",
          "name": "_i",
          "type": "uint256"
        }
      ],
      "name": "uint256ToString",
      "outputs": [
        {
          "internalType": "string",
          "name": "",
          "type": "string"
        }
      ],
      "stateMutability": "pure",
      "type": "function"
    },
    {
      "inputs": [
        {
          "internalType": "address",
          "name": "",
          "type": "address"
        }
      ],
      "name": "userReceipts",
      "outputs": [
        {
          "internalType": "uint256",
          "name": "escrow",
          "type": "uint256"
        }
      ],
      "stateMutability": "view",
      "type": "function"
    },
    {
      "inputs": [
        {
          "internalType": "uint256",
          "name": "",
          "type": "uint256"
        }
      ],
      "name": "visitor_team_score",
      "outputs": [
        {
          "internalType": "uint256",
          "name": "",
          "type": "uint256"
        }
      ],
      "stateMutability": "view",
      "type": "function"
    },
    {
      "inputs": [
        {
          "internalType": "uint256",
          "name": "_amount",
          "type": "uint256"
        },
        {
          "internalType": "address",
          "name": "_token",
          "type": "address"
        }
      ],
      "name": "withdrawFunds",
      "outputs": [],
      "stateMutability": "nonpayable",
      "type": "function"
    }
  ],
  "bytecode": "0x61012060405260016004553480156200001757600080fd5b503380600073c1c6805b857bef1f412519c4a842522431afed393081308173ffffffffffffffffffffffffffffffffffffffff1660808173ffffffffffffffffffffffffffffffffffffffff16815250508173ffffffffffffffffffffffffffffffffffffffff1663573ea5756040518163ffffffff1660e01b8152600401602060405180830381865afa158015620000b4573d6000803e3d6000fd5b505050506040513d601f19601f82011682018060405250810190620000da9190620006b7565b73ffffffffffffffffffffffffffffffffffffffff1660c08173ffffffffffffffffffffffffffffffffffffffff168152505073c815db16d4be6ddf2685c201937905abf338f5d773ffffffffffffffffffffffffffffffffffffffff1663ded89a7c826040518263ffffffff1660e01b81526004016200015c91906200070e565b6040805180830381865afa15801562000179573d6000803e3d6000fd5b505050506040513d601f19601f820116820180604052508101906200019f919062000799565b508073ffffffffffffffffffffffffffffffffffffffff1660a09073ffffffffffffffffffffffffffffffffffffffff168152505050508073ffffffffffffffffffffffffffffffffffffffff1660e08173ffffffffffffffffffffffffffffffffffffffff168152505060805173ffffffffffffffffffffffffffffffffffffffff1663e60a32136040518163ffffffff1660e01b8152600401602060405180830381865afa15801562000258573d6000803e3d6000fd5b505050506040513d601f19601f820116820180604052508101906200027e919062000825565b73ffffffffffffffffffffffffffffffffffffffff166101008173ffffffffffffffffffffffffffffffffffffffff16815250505050600073ffffffffffffffffffffffffffffffffffffffff168273ffffffffffffffffffffffffffffffffffffffff160362000326576040517f08c379a00000000000000000000000000000000000000000000000000000000081526004016200031d90620008b8565b60405180910390fd5b81600660006101000a81548173ffffffffffffffffffffffffffffffffffffffff021916908373ffffffffffffffffffffffffffffffffffffffff160217905550600073ffffffffffffffffffffffffffffffffffffffff168173ffffffffffffffffffffffffffffffffffffffff1614620003ae57620003ad816200049460201b60201c565b5b50505033600860006101000a81548173ffffffffffffffffffffffffffffffffffffffff021916908373ffffffffffffffffffffffffffffffffffffffff1602179055506200041773326c977e6efc84e512bb9c30f76e30c160ed06fb620005c560201b60201c565b6200043c73188b71c9d27cdee01b9b0dff5c1aff62e8d6f4346200060960201b60201c565b7f3433376432393864323130633466666639333564636564623937656138303131600981905550600a670de0b6b3a764000060016200047c919062000913565b620004889190620009a3565b600a8190555062000a4d565b3373ffffffffffffffffffffffffffffffffffffffff168173ffffffffffffffffffffffffffffffffffffffff160362000505576040517f08c379a0000000000000000000000000000000000000000000000000000000008152600401620004fc9062000a2b565b60405180910390fd5b80600760006101000a81548173ffffffffffffffffffffffffffffffffffffffff021916908373ffffffffffffffffffffffffffffffffffffffff1602179055508073ffffffffffffffffffffffffffffffffffffffff16600660009054906101000a900473ffffffffffffffffffffffffffffffffffffffff1673ffffffffffffffffffffffffffffffffffffffff167fed8889f560326eb138920d842192f0eb3dd22b4f139c87a2c57538e05bae127860405160405180910390a350565b80600260006101000a81548173ffffffffffffffffffffffffffffffffffffffff021916908373ffffffffffffffffffffffffffffffffffffffff16021790555050565b80600360006101000a81548173ffffffffffffffffffffffffffffffffffffffff021916908373ffffffffffffffffffffffffffffffffffffffff16021790555050565b600080fd5b600073ffffffffffffffffffffffffffffffffffffffff82169050919050565b60006200067f8262000652565b9050919050565b620006918162000672565b81146200069d57600080fd5b50565b600081519050620006b18162000686565b92915050565b600060208284031215620006d057620006cf6200064d565b5b6000620006e084828501620006a0565b91505092915050565b6000620006f68262000652565b9050919050565b6200070881620006e9565b82525050565b6000602082019050620007256000830184620006fd565b92915050565b6200073681620006e9565b81146200074257600080fd5b50565b60008151905062000756816200072b565b92915050565b60008115159050919050565b62000773816200075c565b81146200077f57600080fd5b50565b600081519050620007938162000768565b92915050565b60008060408385031215620007b357620007b26200064d565b5b6000620007c38582860162000745565b9250506020620007d68582860162000782565b9150509250929050565b6000620007ed82620006e9565b9050919050565b620007ff81620007e0565b81146200080b57600080fd5b50565b6000815190506200081f81620007f4565b92915050565b6000602082840312156200083e576200083d6200064d565b5b60006200084e848285016200080e565b91505092915050565b600082825260208201905092915050565b7f43616e6e6f7420736574206f776e657220746f207a65726f0000000000000000600082015250565b6000620008a060188362000857565b9150620008ad8262000868565b602082019050919050565b60006020820190508181036000830152620008d38162000891565b9050919050565b6000819050919050565b7f4e487b7100000000000000000000000000000000000000000000000000000000600052601160045260246000fd5b60006200092082620008da565b91506200092d83620008da565b9250817fffffffffffffffffffffffffffffffffffffffffffffffffffffffffffffffff0483118215151615620009695762000968620008e4565b5b828202905092915050565b7f4e487b7100000000000000000000000000000000000000000000000000000000600052601260045260246000fd5b6000620009b082620008da565b9150620009bd83620008da565b925082620009d057620009cf62000974565b5b828204905092915050565b7f43616e6e6f74207472616e7366657220746f2073656c66000000000000000000600082015250565b600062000a1360178362000857565b915062000a2082620009db565b602082019050919050565b6000602082019050818103600083015262000a468162000a04565b9050919050565b60805160a05160c05160e0516101005161597462000ab2600039600081816112e901528181612e3101526131a5015260008181610b1d0152818161125b015261132501526000505060006108ff0152600081816107d301526130a501526159746000f3fe6080604052600436106101d85760003560e01c806380eb6d0411610102578063a91faba211610095578063e60a321311610064578063e60a321314610717578063f227ce4d14610742578063f2fde38b1461077f578063fda4417b146107a8576101d8565b8063a91faba214610665578063b9cafa96146106a7578063ce7e51e3146106b1578063d02f0f55146106ee576101d8565b80638edd3971116100d15780638edd39711461058e57806392a25a64146105cf578063a4786f3d146105eb578063a910e4a514610628576101d8565b806380eb6d04146104cd57806380ee79c11461050a578063835f3fec146105475780638da5cb5b14610563576101d8565b80632e964aae1161017a5780636bd4c7c0116101495780636bd4c7c014610425578063744bfe611461046257806379ba50971461048b5780637ea4178a146104a2576101d8565b80632e964aae146103695780633946f666146103a657806346ee3c59146103d15780635658fa10146103fc576101d8565b80632429827f116101b65780632429827f14610283578063245a2fad146102c457806328f150eb146103015780632b3a4ef61461032c576101d8565b8063049aacfe146101dd5780630e065bd91461020857806323821c2114610246575b600080fd5b3480156101e957600080fd5b506101f26107d1565b6040516101ff9190613fec565b60405180910390f35b34801561021457600080fd5b5061022f600480360381019061022a9190614042565b6107f5565b60405161023d929190614123565b60405180910390f35b34801561025257600080fd5b5061026d60048036038101906102689190614042565b610897565b60405161027a9190614162565b60405180910390f35b34801561028f57600080fd5b506102aa60048036038101906102a59190614042565b6108af565b6040516102bb95949392919061417d565b60405180910390f35b3480156102d057600080fd5b506102eb60048036038101906102e69190614042565b6108e5565b6040516102f89190614162565b60405180910390f35b34801561030d57600080fd5b506103166108fd565b60405161032391906141f1565b60405180910390f35b34801561033857600080fd5b50610353600480360381019061034e919061420c565b610921565b6040516103609190614162565b60405180910390f35b34801561037557600080fd5b50610390600480360381019061038b9190614042565b610946565b60405161039d9190614162565b60405180910390f35b3480156103b257600080fd5b506103bb61096c565b6040516103c8919061440a565b60405180910390f35b3480156103dd57600080fd5b506103e6610b1b565b6040516103f391906141f1565b60405180910390f35b34801561040857600080fd5b50610423600480360381019061041e9190614042565b610b3f565b005b34801561043157600080fd5b5061044c6004803603810190610447919061420c565b6110ca565b60405161045991906144b5565b60405180910390f35b34801561046e57600080fd5b5061048960048036038101906104849190614503565b611259565b005b34801561049757600080fd5b506104a061139a565b005b3480156104ae57600080fd5b506104b7611531565b6040516104c49190614162565b60405180910390f35b3480156104d957600080fd5b506104f460048036038101906104ef9190614042565b61157b565b6040516105019190614162565b60405180910390f35b34801561051657600080fd5b50610531600480360381019061052c9190614579565b611593565b60405161053e91906144b5565b60405180910390f35b610561600480360381019061055c91906145b9565b611722565b005b34801561056f57600080fd5b50610578611d61565b60405161058591906141f1565b60405180910390f35b34801561059a57600080fd5b506105b560048036038101906105b09190614042565b611d8b565b6040516105c695949392919061417d565b60405180910390f35b6105e960048036038101906105e4919061465b565b611dc1565b005b3480156105f757600080fd5b50610612600480360381019061060d91906146e8565b6127b6565b60405161061f9190614162565b60405180910390f35b34801561063457600080fd5b5061064f600480360381019061064a919061420c565b6127d4565b60405161065c91906144b5565b60405180910390f35b34801561067157600080fd5b5061068c60048036038101906106879190614042565b612963565b60405161069e96959493929190614724565b60405180910390f35b6106af61299f565b005b3480156106bd57600080fd5b506106d860048036038101906106d39190614042565b612a4f565b6040516106e591906147cf565b60405180910390f35b3480156106fa57600080fd5b5061071560048036038101906107109190614042565b612bc1565b005b34801561072357600080fd5b5061072c612e2f565b6040516107399190614812565b60405180910390f35b34801561074e57600080fd5b506107696004803603810190610764919061420c565b612e53565b6040516107769190614162565b60405180910390f35b34801561078b57600080fd5b506107a660048036038101906107a191906146e8565b612ebd565b005b3480156107b457600080fd5b506107cf60048036038101906107ca9190614863565b612ed1565b005b7f000000000000000000000000000000000000000000000000000000000000000081565b60006060600e600084815260200190815260200160002060000154421115610891573073ffffffffffffffffffffffffffffffffffffffff16635658fa10846040516024016108449190614162565b604051602081830303815290604052915060e01b6020820180517bffffffffffffffffffffffffffffffffffffffffffffffffffffffff8381831617835250505050905060019150610892565b5b915091565b600c6020528060005260406000206000915090505481565b600f6020528060005260406000206000915090508060010154908060020154908060040154908060050154908060080154905085565b60116020528060005260406000206000915090505481565b7f000000000000000000000000000000000000000000000000000000000000000081565b600d602052816000526040600020602052806000526040600020600091509150505481565b600061095182612bc1565b60126000838152602001908152602001600020549050919050565b6060600b60003373ffffffffffffffffffffffffffffffffffffffff1673ffffffffffffffffffffffffffffffffffffffff168152602001908152602001600020600101805480602002602001604051908101604052809291908181526020016000905b82821015610b1257838290600052602060002090600602016040518060c00160405290816000820160009054906101000a900473ffffffffffffffffffffffffffffffffffffffff1673ffffffffffffffffffffffffffffffffffffffff1673ffffffffffffffffffffffffffffffffffffffff168152602001600182015481526020016002820154815260200160038201548152602001600482018054610a77906148f9565b80601f0160208091040260200160405190810160405280929190818152602001828054610aa3906148f9565b8015610af05780601f10610ac557610100808354040283529160200191610af0565b820191906000526020600020905b815481529060010190602001808311610ad357829003601f168201915b50505050508152602001600582015481525050815260200190600101906109d0565b50505050905090565b7f000000000000000000000000000000000000000000000000000000000000000081565b600080610b4b83612bc1565b60006011600085815260200190815260200160002054118015610b93575060126000848152602001908152602001600020546011600085815260200190815260200160002054115b15610bcf57600e6000848152602001908152602001600020600401549150600e6000848152602001908152602001600020600301549050610c50565b60006012600085815260200190815260200160002054118015610c17575060116000848152602001908152602001600020546012600085815260200190815260200160002054115b15610c4f57600e6000848152602001908152602001600020600301549150600e60008481526020019081526020016000206004015490505b5b60005b600e6000858152602001908152602001600020600501600084815260200190815260200160002080549050811015610eef576000600e600086815260200190815260200160002060060160008581526020019081526020016000206000600e600088815260200190815260200160002060050160008781526020019081526020016000208481548110610ce957610ce861492a565b5b9060005260206000200160009054906101000a900473ffffffffffffffffffffffffffffffffffffffff1673ffffffffffffffffffffffffffffffffffffffff1673ffffffffffffffffffffffffffffffffffffffff168152602001908152602001600020600101549050600e600086815260200190815260200160002060050160008581526020019081526020016000208281548110610d8d57610d8c61492a565b5b9060005260206000200160009054906101000a900473ffffffffffffffffffffffffffffffffffffffff1673ffffffffffffffffffffffffffffffffffffffff166108fc600e60008881526020019081526020016000206001015483610df391906149b7565b9081150290604051600060405180830381858888f19350505050158015610e1e573d6000803e3d6000fd5b5080600b6000600e600089815260200190815260200160002060050160008881526020019081526020016000208581548110610e5d57610e5c61492a565b5b9060005260206000200160009054906101000a900473ffffffffffffffffffffffffffffffffffffffff1673ffffffffffffffffffffffffffffffffffffffff1673ffffffffffffffffffffffffffffffffffffffff1681526020019081526020016000206000016000828254610ed491906149e8565b92505081905550508080610ee790614a1c565b915050610c53565b5060005b600e60008581526020019081526020016000206005016000838152602001908152602001600020805490508110156110c4576000600e600086815260200190815260200160002060060160008481526020019081526020016000206000600e600088815260200190815260200160002060050160008681526020019081526020016000208481548110610f8957610f8861492a565b5b9060005260206000200160009054906101000a900473ffffffffffffffffffffffffffffffffffffffff1673ffffffffffffffffffffffffffffffffffffffff1673ffffffffffffffffffffffffffffffffffffffff16815260200190815260200160002060010154905080600b6000600e6000898152602001908152602001600020600501600087815260200190815260200160002085815481106110325761103161492a565b5b9060005260206000200160009054906101000a900473ffffffffffffffffffffffffffffffffffffffff1673ffffffffffffffffffffffffffffffffffffffff1673ffffffffffffffffffffffffffffffffffffffff16815260200190815260200160002060000160008282546110a991906149e8565b925050819055505080806110bc90614a1c565b915050610ef3565b50505050565b6110d2613df7565b600f6000848152602001908152602001600020600701600083815260200190815260200160002060003373ffffffffffffffffffffffffffffffffffffffff1673ffffffffffffffffffffffffffffffffffffffff1681526020019081526020016000206040518060c00160405290816000820160009054906101000a900473ffffffffffffffffffffffffffffffffffffffff1673ffffffffffffffffffffffffffffffffffffffff1673ffffffffffffffffffffffffffffffffffffffff1681526020016001820154815260200160028201548152602001600382015481526020016004820180546111c5906148f9565b80601f01602080910402602001604051908101604052809291908181526020018280546111f1906148f9565b801561123e5780601f106112135761010080835404028352916020019161123e565b820191906000526020600020905b81548152906001019060200180831161122157829003601f168201915b50505050508152602001600582015481525050905092915050565b7f000000000000000000000000000000000000000000000000000000000000000073ffffffffffffffffffffffffffffffffffffffff163373ffffffffffffffffffffffffffffffffffffffff16146112e7576040517f08c379a00000000000000000000000000000000000000000000000000000000081526004016112de90614ad6565b60405180910390fd5b7f000000000000000000000000000000000000000000000000000000000000000073ffffffffffffffffffffffffffffffffffffffff16631c20fadd7f000000000000000000000000000000000000000000000000000000000000000083856040518463ffffffff1660e01b815260040161136493929190614b17565b600060405180830381600087803b15801561137e57600080fd5b505af1158015611392573d6000803e3d6000fd5b505050505050565b600760009054906101000a900473ffffffffffffffffffffffffffffffffffffffff1673ffffffffffffffffffffffffffffffffffffffff163373ffffffffffffffffffffffffffffffffffffffff161461142a576040517f08c379a000000000000000000000000000000000000000000000000000000000815260040161142190614b9a565b60405180910390fd5b6000600660009054906101000a900473ffffffffffffffffffffffffffffffffffffffff16905033600660006101000a81548173ffffffffffffffffffffffffffffffffffffffff021916908373ffffffffffffffffffffffffffffffffffffffff1602179055506000600760006101000a81548173ffffffffffffffffffffffffffffffffffffffff021916908373ffffffffffffffffffffffffffffffffffffffff1602179055503373ffffffffffffffffffffffffffffffffffffffff168173ffffffffffffffffffffffffffffffffffffffff167f8be0079c531659141344cd1fd0a4f28419497f9722a3daafe3b4186f6b6457e060405160405180910390a350565b6000600b60003373ffffffffffffffffffffffffffffffffffffffff1673ffffffffffffffffffffffffffffffffffffffff16815260200190815260200160002060000154905090565b60126020528060005260406000206000915090505481565b61159b613df7565b60106000848152602001908152602001600020600701600083815260200190815260200160002060003373ffffffffffffffffffffffffffffffffffffffff1673ffffffffffffffffffffffffffffffffffffffff1681526020019081526020016000206040518060c00160405290816000820160009054906101000a900473ffffffffffffffffffffffffffffffffffffffff1673ffffffffffffffffffffffffffffffffffffffff1673ffffffffffffffffffffffffffffffffffffffff16815260200160018201548152602001600282015481526020016003820154815260200160048201805461168e906148f9565b80601f01602080910402602001604051908101604052809291908181526020018280546116ba906148f9565b80156117075780601f106116dc57610100808354040283529160200191611707565b820191906000526020600020905b8154815290600101906020018083116116ea57829003601f168201915b50505050508152602001600582015481525050905092915050565b82840361172e57600080fd5b8673ffffffffffffffffffffffffffffffffffffffff163373ffffffffffffffffffffffffffffffffffffffff161461179c576040517f08c379a000000000000000000000000000000000000000000000000000000000815260040161179390614c2c565b60405180910390fd5b600034116117df576040517f08c379a00000000000000000000000000000000000000000000000000000000081526004016117d690614c98565b60405180910390fd5b600060646005346117f09190614cb8565b6117fa91906149b7565b905060006064605f3461180d9190614cb8565b61181791906149b7565b90506000601060008a815260200190815260200160002090506000600b60003373ffffffffffffffffffffffffffffffffffffffff1673ffffffffffffffffffffffffffffffffffffffff1681526020019081526020016000206001019050600082600701600087815260200190815260200160002060003373ffffffffffffffffffffffffffffffffffffffff1673ffffffffffffffffffffffffffffffffffffffff168152602001908152602001600020905060008360060160008881526020019081526020016000209050600860009054906101000a900473ffffffffffffffffffffffffffffffffffffffff1673ffffffffffffffffffffffffffffffffffffffff166108fc879081150290604051600060405180830381858888f1935050505015801561194d573d6000803e3d6000fd5b5084600b60003373ffffffffffffffffffffffffffffffffffffffff1673ffffffffffffffffffffffffffffffffffffffff16815260200190815260200160002060000160008282546119a09190614d12565b92505081905550826040518060c001604052803373ffffffffffffffffffffffffffffffffffffffff168152602001878152602001600081526020018e81526020016040518060400160405280600b81526020017f506f696e7420546f74616c000000000000000000000000000000000000000000815250815260200142815250908060018154018082558091505060019003906000526020600020906006020160009091909190915060008201518160000160006101000a81548173ffffffffffffffffffffffffffffffffffffffff021916908373ffffffffffffffffffffffffffffffffffffffff1602179055506020820151816001015560408201518160020155606082015181600301556080820151816004019080519060200190611acb929190613e43565b5060a08201518160050155505034600c60008e81526020019081526020016000206000828254611afb9190614d12565b9250508190555084846002016000828254611b169190614d12565b92505081905550848460030160008981526020019081526020016000206000828254611b429190614d12565b925050819055508984600401819055508884600501819055508784600101819055508a84600001819055503373ffffffffffffffffffffffffffffffffffffffff16601060008e8152602001908152602001600020600701600089815260200190815260200160002060003373ffffffffffffffffffffffffffffffffffffffff1673ffffffffffffffffffffffffffffffffffffffff16815260200190815260200160002060000160009054906101000a900473ffffffffffffffffffffffffffffffffffffffff1673ffffffffffffffffffffffffffffffffffffffff1614611c8a5780339080600181540180825580915050600190039060005260206000200160009091909190916101000a81548173ffffffffffffffffffffffffffffffffffffffff021916908373ffffffffffffffffffffffffffffffffffffffff1602179055505b338260000160006101000a81548173ffffffffffffffffffffffffffffffffffffffff021916908373ffffffffffffffffffffffffffffffffffffffff16021790555084826001016000828254611ce19190614d12565b92505081905550600082600201819055508b82600301819055506040518060400160405280600b81526020017f506f696e7420546f74616c000000000000000000000000000000000000000000815250826004019080519060200190611d48929190613e43565b5042826005018190555050505050505050505050505050565b6000600660009054906101000a900473ffffffffffffffffffffffffffffffffffffffff16905090565b600e6020528060005260406000206000915090508060000154908060010154908060030154908060040154908060070154905085565b818303611dcd57600080fd5b8573ffffffffffffffffffffffffffffffffffffffff163373ffffffffffffffffffffffffffffffffffffffff1614611e3b576040517f08c379a0000000000000000000000000000000000000000000000000000000008152600401611e3290614c2c565b60405180910390fd5b60003411611e7e576040517f08c379a0000000000000000000000000000000000000000000000000000000008152600401611e7590614c98565b60405180910390fd5b82841480611e8b57508184145b611eca576040517f08c379a0000000000000000000000000000000000000000000000000000000008152600401611ec190614dda565b60405180910390fd5b6000600e600087815260200190815260200160002060010154036122055760006040518060400160405280600367ffffffffffffffff811115611f1057611f0f614dfa565b5b604051908082528060200260200182016040528015611f3e5781602001602082028036833780820191505090505b508152602001600367ffffffffffffffff811115611f5f57611f5e614dfa565b5b604051908082528060200260200182016040528015611f9257816020015b6060815260200190600190039081611f7d5790505b50815250905060008160000151600081518110611fb257611fb161492a565b5b60200260200101906003811115611fcc57611fcb614e29565b5b90816003811115611fe057611fdf614e29565b5b8152505060028160000151600181518110611ffe57611ffd61492a565b5b6020026020010190600381111561201857612017614e29565b5b9081600381111561202c5761202b614e29565b5b815250506003816000015160028151811061204a5761204961492a565b5b6020026020010190600381111561206457612063614e29565b5b9081600381111561207857612077614e29565b5b815250506120f4303073ffffffffffffffffffffffffffffffffffffffff16630e065bd9896040516024016120ad9190614162565b604051602081830303815290604052915060e01b6020820180517bffffffffffffffffffffffffffffffffffffffffffffffffffffffff8381831617835250505050613047565b816020015160008151811061210c5761210b61492a565b5b602002602001018190525061211f613073565b81602001516001815181106121375761213661492a565b5b602002602001018190525061214a61308a565b81602001516002815181106121625761216161492a565b5b602002602001018190525061220230635658fa1060e01b8860405160240161218a9190614162565b604051602081830303815290604052907bffffffffffffffffffffffffffffffffffffffffffffffffffffffff19166020820180517bffffffffffffffffffffffffffffffffffffffffffffffffffffffff83818316178352505050508373eeeeeeeeeeeeeeeeeeeeeeeeeeeeeeeeeeeeeeee6130a1565b50505b600060646005346122169190614cb8565b61222091906149b7565b905060006064605f346122339190614cb8565b61223d91906149b7565b90506000600e600089815260200190815260200160002090506000600b60003373ffffffffffffffffffffffffffffffffffffffff1673ffffffffffffffffffffffffffffffffffffffff168152602001908152602001600020600101905060008260060160008a815260200190815260200160002060003373ffffffffffffffffffffffffffffffffffffffff1673ffffffffffffffffffffffffffffffffffffffff168152602001908152602001600020905060008360050160008b81526020019081526020016000209050600860009054906101000a900473ffffffffffffffffffffffffffffffffffffffff1673ffffffffffffffffffffffffffffffffffffffff166108fc879081150290604051600060405180830381858888f19350505050158015612373573d6000803e3d6000fd5b5084600b60003373ffffffffffffffffffffffffffffffffffffffff1673ffffffffffffffffffffffffffffffffffffffff16815260200190815260200160002060000160008282546123c69190614d12565b92505081905550826040518060c001604052803373ffffffffffffffffffffffffffffffffffffffff1681526020018781526020018c81526020018d81526020016040518060400160405280600a81526020017f4d6f6e6579204c696e6500000000000000000000000000000000000000000000815250815260200142815250908060018154018082558091505060019003906000526020600020906006020160009091909190915060008201518160000160006101000a81548173ffffffffffffffffffffffffffffffffffffffff021916908373ffffffffffffffffffffffffffffffffffffffff16021790555060208201518160010155604082015181600201556060820151816003015560808201518160040190805190602001906124f0929190613e43565b5060a08201518160050155505034600c60008d815260200190815260200160002060008282546125209190614d12565b9250508190555034600d60008d815260200190815260200160002060008c8152602001908152602001600020600082825461255b9190614d12565b92505081905550848460010160008282546125769190614d12565b92505081905550848460020160008c815260200190815260200160002060008282546125a29190614d12565b925050819055508884600301819055508784600401819055508684600001819055503373ffffffffffffffffffffffffffffffffffffffff16600e60008d815260200190815260200160002060060160008c815260200190815260200160002060003373ffffffffffffffffffffffffffffffffffffffff1673ffffffffffffffffffffffffffffffffffffffff16815260200190815260200160002060000160009054906101000a900473ffffffffffffffffffffffffffffffffffffffff1673ffffffffffffffffffffffffffffffffffffffff16146126e15780339080600181540180825580915050600190039060005260206000200160009091909190916101000a81548173ffffffffffffffffffffffffffffffffffffffff021916908373ffffffffffffffffffffffffffffffffffffffff1602179055505b338260000160006101000a81548173ffffffffffffffffffffffffffffffffffffffff021916908373ffffffffffffffffffffffffffffffffffffffff160217905550848260010160008282546127389190614d12565b925050819055508982600201819055508a82600301819055506040518060400160405280600a81526020017f4d6f6e6579204c696e650000000000000000000000000000000000000000000081525082600401908051906020019061279e929190613e43565b50428260050181905550505050505050505050505050565b600b6020528060005260406000206000915090508060000154905081565b6127dc613df7565b600e6000848152602001908152602001600020600601600083815260200190815260200160002060003373ffffffffffffffffffffffffffffffffffffffff1673ffffffffffffffffffffffffffffffffffffffff1681526020019081526020016000206040518060c00160405290816000820160009054906101000a900473ffffffffffffffffffffffffffffffffffffffff1673ffffffffffffffffffffffffffffffffffffffff1673ffffffffffffffffffffffffffffffffffffffff1681526020016001820154815260200160028201548152602001600382015481526020016004820180546128cf906148f9565b80601f01602080910402602001604051908101604052809291908181526020018280546128fb906148f9565b80156129485780601f1061291d57610100808354040283529160200191612948565b820191906000526020600020905b81548152906001019060200180831161292b57829003601f168201915b50505050508152602001600582015481525050905092915050565b60106020528060005260406000206000915090508060000154908060010154908060020154908060040154908060050154908060080154905086565b600860009054906101000a900473ffffffffffffffffffffffffffffffffffffffff1673ffffffffffffffffffffffffffffffffffffffff163373ffffffffffffffffffffffffffffffffffffffff1614612a2f576040517f08c379a0000000000000000000000000000000000000000000000000000000008152600401612a2690614ea4565b60405180910390fd5b612a4d3473eeeeeeeeeeeeeeeeeeeeeeeeeeeeeeeeeeeeeeee61314f565b565b606060008203612a96576040518060400160405280600181526020017f30000000000000000000000000000000000000000000000000000000000000008152509050612bbc565b600082905060005b60008214612ac8578080612ab190614a1c565b915050600a82612ac191906149b7565b9150612a9e565b60008167ffffffffffffffff811115612ae457612ae3614dfa565b5b6040519080825280601f01601f191660200182016040528015612b165781602001600182028036833780820191505090505b50905060008290505b60008614612bb457600181612b3491906149e8565b90506000600a87612b459190614ec4565b6030612b519190614d12565b905060008160f81b905080848481518110612b6f57612b6e61492a565b5b60200101907effffffffffffffffffffffffffffffffffffffffffffffffffffffffffffff1916908160001a905350600a88612bab91906149b7565b97505050612b1f565b819450505050505b919050565b6000612bd76009543063fda4417b60e01b613238565b90506000612be483612a4f565b9050600081604051602001612bf99190614fa3565b6040516020818303038152906040529050612c546040518060400160405280600381526020017f676574000000000000000000000000000000000000000000000000000000000081525082856132699092919063ffffffff16565b612cd36040518060400160405280600581526020017f70617468310000000000000000000000000000000000000000000000000000008152506040518060400160405280600281526020017f6964000000000000000000000000000000000000000000000000000000000000815250856132699092919063ffffffff16565b612d526040518060400160405280600581526020017f70617468320000000000000000000000000000000000000000000000000000008152506040518060400160405280600f81526020017f686f6d655f7465616d5f73636f72650000000000000000000000000000000000815250856132699092919063ffffffff16565b612dd16040518060400160405280600581526020017f70617468330000000000000000000000000000000000000000000000000000008152506040518060400160405280601281526020017f76697369746f725f7465616d5f73636f72650000000000000000000000000000815250856132699092919063ffffffff16565b612e1c6040518060400160405280600581526020017f74696d657300000000000000000000000000000000000000000000000000000081525060018561329c9092919063ffffffff16565b612e2883600a546132cf565b5050505050565b7f000000000000000000000000000000000000000000000000000000000000000081565b600080600d600085815260200190815260200160002060008481526020019081526020016000205490506000600c6000868152602001908152602001600020549050600081606484612ea59190614cb8565b612eaf91906149b7565b905080935050505092915050565b612ec5613306565b612ece81613398565b50565b836005600082815260200190815260200160002060009054906101000a900473ffffffffffffffffffffffffffffffffffffffff1673ffffffffffffffffffffffffffffffffffffffff163373ffffffffffffffffffffffffffffffffffffffff1614612f73576040517f08c379a0000000000000000000000000000000000000000000000000000000008152600401612f6a90615037565b60405180910390fd5b6005600082815260200190815260200160002060006101000a81549073ffffffffffffffffffffffffffffffffffffffff0219169055807f7cc135e0cebb02c3480ae5d74d377283180a2601f8f644edf7987b009316c63a60405160405180910390a28183857fd8422588c680817fe4971ef8a5fe6a6b5df0d7cd4537eabef7fb17750e4187a7886040516130089190615066565b60405180910390a48260126000868152602001908152602001600020819055508160116000868152602001908152602001600020819055505050505050565b6060828260405160200161305c929190615081565b604051602081830303815290604052905092915050565b606060405180602001604052806000815250905090565b606060405180602001604052806000815250905090565b60007f000000000000000000000000000000000000000000000000000000000000000073ffffffffffffffffffffffffffffffffffffffff16633323b467868686866040518563ffffffff1660e01b815260040161310294939291906152f8565b6020604051808303816000875af1158015613121573d6000803e3d6000fd5b505050506040513d601f19601f820116820180604052508101906131459190615360565b9050949350505050565b600073eeeeeeeeeeeeeeeeeeeeeeeeeeeeeeeeeeeeeeee73ffffffffffffffffffffffffffffffffffffffff168273ffffffffffffffffffffffffffffffffffffffff161461319f5760006131a1565b825b90507f000000000000000000000000000000000000000000000000000000000000000073ffffffffffffffffffffffffffffffffffffffff1663c1461d57823085876040518563ffffffff1660e01b81526004016132019392919061538d565b6000604051808303818588803b15801561321a57600080fd5b505af115801561322e573d6000803e3d6000fd5b5050505050505050565b613240613ec9565b613248613ec9565b61325f858585846134c6909392919063ffffffff16565b9150509392505050565b61328082846080015161357690919063ffffffff16565b61329781846080015161357690919063ffffffff16565b505050565b6132b382846080015161357690919063ffffffff16565b6132ca81846080015161359b90919063ffffffff16565b505050565b60006132fe600360009054906101000a900473ffffffffffffffffffffffffffffffffffffffff168484613648565b905092915050565b600660009054906101000a900473ffffffffffffffffffffffffffffffffffffffff1673ffffffffffffffffffffffffffffffffffffffff163373ffffffffffffffffffffffffffffffffffffffff1614613396576040517f08c379a000000000000000000000000000000000000000000000000000000000815260040161338d90615410565b60405180910390fd5b565b3373ffffffffffffffffffffffffffffffffffffffff168173ffffffffffffffffffffffffffffffffffffffff1603613406576040517f08c379a00000000000000000000000000000000000000000000000000000000081526004016133fd9061547c565b60405180910390fd5b80600760006101000a81548173ffffffffffffffffffffffffffffffffffffffff021916908373ffffffffffffffffffffffffffffffffffffffff1602179055508073ffffffffffffffffffffffffffffffffffffffff16600660009054906101000a900473ffffffffffffffffffffffffffffffffffffffff1673ffffffffffffffffffffffffffffffffffffffff167fed8889f560326eb138920d842192f0eb3dd22b4f139c87a2c57538e05bae127860405160405180910390a350565b6134ce613ec9565b6134de8560800151610100613714565b508385600001818152505082856020019073ffffffffffffffffffffffffffffffffffffffff16908173ffffffffffffffffffffffffffffffffffffffff16815250508185604001907bffffffffffffffffffffffffffffffffffffffffffffffffffffffff191690817bffffffffffffffffffffffffffffffffffffffffffffffffffffffff191681525050849050949350505050565b613583826003835161377e565b613596818361390390919063ffffffff16565b505050565b7fffffffffffffffffffffffffffffffffffffffffffffffff00000000000000008112156135d2576135cd8282613925565b613644565b67ffffffffffffffff8113156135f1576135ec828261399c565b613643565b6000811261360a576136058260008361377e565b613642565b613641826001837fffffffffffffffffffffffffffffffffffffffffffffffffffffffffffffffff61363c919061549c565b61377e565b5b5b5b5050565b600080600454905060018161365d9190614d12565b6004819055506000634042994660e01b60008087600001513089604001518760018c608001516000015160405160240161369e98979695949392919061556b565b604051602081830303815290604052907bffffffffffffffffffffffffffffffffffffffffffffffffffffffff19166020820180517bffffffffffffffffffffffffffffffffffffffffffffffffffffffff83818316178352505050509050613709868386846139e8565b925050509392505050565b61371c613f36565b600060208361372b9190614ec4565b146137575760208261373d9190614ec4565b602061374991906149e8565b826137549190614d12565b91505b81836020018181525050604051808452600081528281016020016040525082905092915050565b60178167ffffffffffffffff16116137b5576137af8160058460ff16901b60ff161784613b7d90919063ffffffff16565b506138fe565b60ff8167ffffffffffffffff161161380b576137e4601860058460ff16901b1784613b7d90919063ffffffff16565b506138058167ffffffffffffffff16600185613b9d9092919063ffffffff16565b506138fd565b61ffff8167ffffffffffffffff16116138625761383b601960058460ff16901b1784613b7d90919063ffffffff16565b5061385c8167ffffffffffffffff16600285613b9d9092919063ffffffff16565b506138fc565b63ffffffff8167ffffffffffffffff16116138bb57613894601a60058460ff16901b1784613b7d90919063ffffffff16565b506138b58167ffffffffffffffff16600485613b9d9092919063ffffffff16565b506138fb565b6138d8601b60058460ff16901b1784613b7d90919063ffffffff16565b506138f98167ffffffffffffffff16600885613b9d9092919063ffffffff16565b505b5b5b5b505050565b61390b613f36565b61391d83846000015151848551613bbf565b905092915050565b61394360036005600660ff16901b1783613b7d90919063ffffffff16565b5061399882827fffffffffffffffffffffffffffffffffffffffffffffffffffffffffffffffff613974919061549c565b6040516020016139849190614162565b604051602081830303815290604052613cae565b5050565b6139ba60026005600660ff16901b1783613b7d90919063ffffffff16565b506139e482826040516020016139d09190614162565b604051602081830303815290604052613cae565b5050565b600030846040516020016139fd92919061566b565b604051602081830303815290604052805190602001209050846005600083815260200190815260200160002060006101000a81548173ffffffffffffffffffffffffffffffffffffffff021916908373ffffffffffffffffffffffffffffffffffffffff160217905550807fb5e6e01e79f91267dc17b4e6314d5d4d03593d2ceee0fbb452b750bd70ea5af960405160405180910390a2600260009054906101000a900473ffffffffffffffffffffffffffffffffffffffff1673ffffffffffffffffffffffffffffffffffffffff16634000aea08685856040518463ffffffff1660e01b8152600401613af393929190615697565b6020604051808303816000875af1158015613b12573d6000803e3d6000fd5b505050506040513d601f19601f82011682018060405250810190613b369190615701565b613b75576040517f08c379a0000000000000000000000000000000000000000000000000000000008152600401613b6c906157a0565b60405180910390fd5b949350505050565b613b85613f36565b613b958384600001515184613cd3565b905092915050565b613ba5613f36565b613bb6848560000151518585613d29565b90509392505050565b613bc7613f36565b8251821115613bd557600080fd5b84602001518285613be69190614d12565b1115613c1b57613c1a856002613c0b88602001518887613c069190614d12565b613db7565b613c159190614cb8565b613dd3565b5b600080865180518760208301019350808887011115613c3a5787860182525b60208701925050505b60208410613c815780518252602082613c5c9190614d12565b9150602081613c6b9190614d12565b9050602084613c7a91906149e8565b9350613c43565b60006001856020036101000a03905080198251168184511681811785525050508692505050949350505050565b613cbb826002835161377e565b613cce818361390390919063ffffffff16565b505050565b613cdb613f36565b83602001518310613d0157613d008460028660200151613cfb9190614cb8565b613dd3565b5b83518051602085830101848153818603613d1c576001820183525b5050508390509392505050565b613d31613f36565b84602001518483613d429190614d12565b1115613d6a57613d698560028685613d5a9190614d12565b613d649190614cb8565b613dd3565b5b6000600183610100613d7c91906158f3565b613d8691906149e8565b90508551838682010185831982511617815281518588011115613da95784870182525b505085915050949350505050565b600081831115613dc957829050613dcd565b8190505b92915050565b600082600001519050613de68383613714565b50613df18382613903565b50505050565b6040518060c00160405280600073ffffffffffffffffffffffffffffffffffffffff16815260200160008152602001600081526020016000815260200160608152602001600081525090565b828054613e4f906148f9565b90600052602060002090601f016020900481019282613e715760008555613eb8565b82601f10613e8a57805160ff1916838001178555613eb8565b82800160010185558215613eb8579182015b82811115613eb7578251825591602001919060010190613e9c565b5b509050613ec59190613f50565b5090565b6040518060a0016040528060008019168152602001600073ffffffffffffffffffffffffffffffffffffffff16815260200160007bffffffffffffffffffffffffffffffffffffffffffffffffffffffff1916815260200160008152602001613f30613f36565b81525090565b604051806040016040528060608152602001600081525090565b5b80821115613f69576000816000905550600101613f51565b5090565b600073ffffffffffffffffffffffffffffffffffffffff82169050919050565b6000819050919050565b6000613fb2613fad613fa884613f6d565b613f8d565b613f6d565b9050919050565b6000613fc482613f97565b9050919050565b6000613fd682613fb9565b9050919050565b613fe681613fcb565b82525050565b60006020820190506140016000830184613fdd565b92915050565b600080fd5b6000819050919050565b61401f8161400c565b811461402a57600080fd5b50565b60008135905061403c81614016565b92915050565b60006020828403121561405857614057614007565b5b60006140668482850161402d565b91505092915050565b60008115159050919050565b6140848161406f565b82525050565b600081519050919050565b600082825260208201905092915050565b60005b838110156140c45780820151818401526020810190506140a9565b838111156140d3576000848401525b50505050565b6000601f19601f8301169050919050565b60006140f58261408a565b6140ff8185614095565b935061410f8185602086016140a6565b614118816140d9565b840191505092915050565b6000604082019050614138600083018561407b565b818103602083015261414a81846140ea565b90509392505050565b61415c8161400c565b82525050565b60006020820190506141776000830184614153565b92915050565b600060a0820190506141926000830188614153565b61419f6020830187614153565b6141ac6040830186614153565b6141b96060830185614153565b6141c66080830184614153565b9695505050505050565b60006141db82613f6d565b9050919050565b6141eb816141d0565b82525050565b600060208201905061420660008301846141e2565b92915050565b6000806040838503121561422357614222614007565b5b60006142318582860161402d565b92505060206142428582860161402d565b9150509250929050565b600081519050919050565b600082825260208201905092915050565b6000819050602082019050919050565b614281816141d0565b82525050565b6142908161400c565b82525050565b600081519050919050565b600082825260208201905092915050565b60006142bd82614296565b6142c781856142a1565b93506142d78185602086016140a6565b6142e0816140d9565b840191505092915050565b600060c0830160008301516143036000860182614278565b5060208301516143166020860182614287565b5060408301516143296040860182614287565b50606083015161433c6060860182614287565b506080830151848203608086015261435482826142b2565b91505060a083015161436960a0860182614287565b508091505092915050565b600061438083836142eb565b905092915050565b6000602082019050919050565b60006143a08261424c565b6143aa8185614257565b9350836020820285016143bc85614268565b8060005b858110156143f857848403895281516143d98582614374565b94506143e483614388565b925060208a019950506001810190506143c0565b50829750879550505050505092915050565b600060208201905081810360008301526144248184614395565b905092915050565b600060c0830160008301516144446000860182614278565b5060208301516144576020860182614287565b50604083015161446a6040860182614287565b50606083015161447d6060860182614287565b506080830151848203608086015261449582826142b2565b91505060a08301516144aa60a0860182614287565b508091505092915050565b600060208201905081810360008301526144cf818461442c565b905092915050565b6144e0816141d0565b81146144eb57600080fd5b50565b6000813590506144fd816144d7565b92915050565b6000806040838503121561451a57614519614007565b5b60006145288582860161402d565b9250506020614539858286016144ee565b9150509250929050565b6000819050919050565b61455681614543565b811461456157600080fd5b50565b6000813590506145738161454d565b92915050565b600080604083850312156145905761458f614007565b5b600061459e8582860161402d565b92505060206145af85828601614564565b9150509250929050565b600080600080600080600060e0888a0312156145d8576145d7614007565b5b60006145e68a828b016144ee565b97505060206145f78a828b0161402d565b96505060406146088a828b0161402d565b95505060606146198a828b0161402d565b945050608061462a8a828b0161402d565b93505060a061463b8a828b0161402d565b92505060c061464c8a828b01614564565b91505092959891949750929550565b60008060008060008060c0878903121561467857614677614007565b5b600061468689828a016144ee565b965050602061469789828a0161402d565b95505060406146a889828a0161402d565b94505060606146b989828a0161402d565b93505060806146ca89828a0161402d565b92505060a06146db89828a0161402d565b9150509295509295509295565b6000602082840312156146fe576146fd614007565b5b600061470c848285016144ee565b91505092915050565b61471e81614543565b82525050565b600060c0820190506147396000830189614153565b6147466020830188614153565b6147536040830187614153565b6147606060830186614153565b61476d6080830185614153565b61477a60a0830184614715565b979650505050505050565b600082825260208201905092915050565b60006147a182614296565b6147ab8185614785565b93506147bb8185602086016140a6565b6147c4816140d9565b840191505092915050565b600060208201905081810360008301526147e98184614796565b905092915050565b60006147fc82613fb9565b9050919050565b61480c816147f1565b82525050565b60006020820190506148276000830184614803565b92915050565b6000819050919050565b6148408161482d565b811461484b57600080fd5b50565b60008135905061485d81614837565b92915050565b6000806000806080858703121561487d5761487c614007565b5b600061488b8782880161484e565b945050602061489c8782880161402d565b93505060406148ad8782880161402d565b92505060606148be8782880161402d565b91505092959194509250565b7f4e487b7100000000000000000000000000000000000000000000000000000000600052602260045260246000fd5b6000600282049050600182168061491157607f821691505b602082108103614924576149236148ca565b5b50919050565b7f4e487b7100000000000000000000000000000000000000000000000000000000600052603260045260246000fd5b7f4e487b7100000000000000000000000000000000000000000000000000000000600052601260045260246000fd5b7f4e487b7100000000000000000000000000000000000000000000000000000000600052601160045260246000fd5b60006149c28261400c565b91506149cd8361400c565b9250826149dd576149dc614959565b5b828204905092915050565b60006149f38261400c565b91506149fe8361400c565b925082821015614a1157614a10614988565b5b828203905092915050565b6000614a278261400c565b91507fffffffffffffffffffffffffffffffffffffffffffffffffffffffffffffffff8203614a5957614a58614988565b5b600182019050919050565b7f4f6e6c792066756e6473206f776e65722063616e20776974686472617720667560008201527f6e64730000000000000000000000000000000000000000000000000000000000602082015250565b6000614ac0602383614785565b9150614acb82614a64565b604082019050919050565b60006020820190508181036000830152614aef81614ab3565b9050919050565b6000614b0182613f6d565b9050919050565b614b1181614af6565b82525050565b6000606082019050614b2c6000830186614b08565b614b3960208301856141e2565b614b466040830184614153565b949350505050565b7f4d7573742062652070726f706f736564206f776e657200000000000000000000600082015250565b6000614b84601683614785565b9150614b8f82614b4e565b602082019050919050565b60006020820190508181036000830152614bb381614b77565b9050919050565b7f596f75206d757374206265742066726f6d20796f7572206f776e20616464726560008201527f7373000000000000000000000000000000000000000000000000000000000000602082015250565b6000614c16602283614785565b9150614c2182614bba565b604082019050919050565b60006020820190508181036000830152614c4581614c09565b9050919050565b7f596f75206d7573742062657420736f6d657468696e6700000000000000000000600082015250565b6000614c82601683614785565b9150614c8d82614c4c565b602082019050919050565b60006020820190508181036000830152614cb181614c75565b9050919050565b6000614cc38261400c565b9150614cce8361400c565b9250817fffffffffffffffffffffffffffffffffffffffffffffffffffffffffffffffff0483118215151615614d0757614d06614988565b5b828202905092915050565b6000614d1d8261400c565b9150614d288361400c565b9250827fffffffffffffffffffffffffffffffffffffffffffffffffffffffffffffffff03821115614d5d57614d5c614988565b5b828201905092915050565b7f596f75206d75737420626574206f6e2061207465616d2074686174206973207060008201527f6c6179696e6720696e20746869732067616d6500000000000000000000000000602082015250565b6000614dc4603383614785565b9150614dcf82614d68565b604082019050919050565b60006020820190508181036000830152614df381614db7565b9050919050565b7f4e487b7100000000000000000000000000000000000000000000000000000000600052604160045260246000fd5b7f4e487b7100000000000000000000000000000000000000000000000000000000600052602160045260246000fd5b7f596f7520617265206e6f74207468652061646d696e0000000000000000000000600082015250565b6000614e8e601583614785565b9150614e9982614e58565b602082019050919050565b60006020820190508181036000830152614ebd81614e81565b9050919050565b6000614ecf8261400c565b9150614eda8361400c565b925082614eea57614ee9614959565b5b828206905092915050565b600081905092915050565b7f68747470733a2f2f7777772e62616c6c646f6e746c69652e696f2f6170692f7660008201527f312f67616d65732f000000000000000000000000000000000000000000000000602082015250565b6000614f5c602883614ef5565b9150614f6782614f00565b602882019050919050565b6000614f7d82614296565b614f878185614ef5565b9350614f978185602086016140a6565b80840191505092915050565b6000614fae82614f4f565b9150614fba8284614f72565b915081905092915050565b7f536f75726365206d75737420626520746865206f7261636c65206f662074686560008201527f2072657175657374000000000000000000000000000000000000000000000000602082015250565b6000615021602883614785565b915061502c82614fc5565b604082019050919050565b6000602082019050818103600083015261505081615014565b9050919050565b6150608161482d565b82525050565b600060208201905061507b6000830184615057565b92915050565b600060408201905061509660008301856141e2565b81810360208301526150a881846140ea565b90509392505050565b600081519050919050565b600082825260208201905092915050565b6000819050602082019050919050565b600481106150ee576150ed614e29565b5b50565b60008190506150ff826150dd565b919050565b600061510f826150f1565b9050919050565b61511f81615104565b82525050565b60006151318383615116565b60208301905092915050565b6000602082019050919050565b6000615155826150b1565b61515f81856150bc565b935061516a836150cd565b8060005b8381101561519b5781516151828882615125565b975061518d8361513d565b92505060018101905061516e565b5085935050505092915050565b600081519050919050565b600082825260208201905092915050565b6000819050602082019050919050565b600082825260208201905092915050565b60006151f08261408a565b6151fa81856151d4565b935061520a8185602086016140a6565b615213816140d9565b840191505092915050565b600061522a83836151e5565b905092915050565b6000602082019050919050565b600061524a826151a8565b61525481856151b3565b935083602082028501615266856151c4565b8060005b858110156152a25784840389528151615283858261521e565b945061528e83615232565b925060208a0199505060018101905061526a565b50829750879550505050505092915050565b600060408301600083015184820360008601526152d1828261514a565b915050602083015184820360208601526152eb828261523f565b9150508091505092915050565b600060808201905061530d60008301876141e2565b818103602083015261531f81866140ea565b9050818103604083015261533381856152b4565b905061534260608301846141e2565b95945050505050565b60008151905061535a81614837565b92915050565b60006020828403121561537657615375614007565b5b60006153848482850161534b565b91505092915050565b60006060820190506153a260008301866141e2565b6153af60208301856141e2565b6153bc6040830184614153565b949350505050565b7f4f6e6c792063616c6c61626c65206279206f776e657200000000000000000000600082015250565b60006153fa601683614785565b9150615405826153c4565b602082019050919050565b60006020820190508181036000830152615429816153ed565b9050919050565b7f43616e6e6f74207472616e7366657220746f2073656c66000000000000000000600082015250565b6000615466601783614785565b915061547182615430565b602082019050919050565b6000602082019050818103600083015261549581615459565b9050919050565b60006154a782614543565b91506154b283614543565b9250827f8000000000000000000000000000000000000000000000000000000000000000018212600084121516156154ed576154ec614988565b5b827f7fffffffffffffffffffffffffffffffffffffffffffffffffffffffffffffff01821360008412161561552557615524614988565b5b828203905092915050565b60007fffffffff0000000000000000000000000000000000000000000000000000000082169050919050565b61556581615530565b82525050565b600061010082019050615581600083018b6141e2565b61558e602083018a614153565b61559b6040830189615057565b6155a860608301886141e2565b6155b5608083018761555c565b6155c260a0830186614153565b6155cf60c0830185614153565b81810360e08301526155e181846140ea565b90509998505050505050505050565b60006155fb82613fb9565b9050919050565b60008160601b9050919050565b600061561a82615602565b9050919050565b600061562c8261560f565b9050919050565b61564461563f826155f0565b615621565b82525050565b6000819050919050565b6156656156608261400c565b61564a565b82525050565b60006156778285615633565b6014820191506156878284615654565b6020820191508190509392505050565b60006060820190506156ac60008301866141e2565b6156b96020830185614153565b81810360408301526156cb81846140ea565b9050949350505050565b6156de8161406f565b81146156e957600080fd5b50565b6000815190506156fb816156d5565b92915050565b60006020828403121561571757615716614007565b5b6000615725848285016156ec565b91505092915050565b7f756e61626c6520746f207472616e73666572416e6443616c6c20746f206f726160008201527f636c650000000000000000000000000000000000000000000000000000000000602082015250565b600061578a602383614785565b91506157958261572e565b604082019050919050565b600060208201905081810360008301526157b98161577d565b9050919050565b60008160011c9050919050565b6000808291508390505b6001851115615817578086048111156157f3576157f2614988565b5b60018516156158025780820291505b8081029050615810856157c0565b94506157d7565b94509492505050565b60008261583057600190506158ec565b8161583e57600090506158ec565b8160018114615854576002811461585e5761588d565b60019150506158ec565b60ff8411156158705761586f614988565b5b8360020a91508482111561588757615886614988565b5b506158ec565b5060208310610133831016604e8410600b84101617156158c25782820a9050838111156158bd576158bc614988565b5b6158ec565b6158cf84848460016157cd565b925090508184048111156158e6576158e5614988565b5b81810290505b9392505050565b60006158fe8261400c565b91506159098361400c565b92506159367fffffffffffffffffffffffffffffffffffffffffffffffffffffffffffffffff8484615820565b90509291505056fea2646970667358221220da7dff4f131df1ef4bd7420a08a31b34a20f1923fbb71e51cd0bd6b786917b3e64736f6c634300080e0033",
  "linkReferences": {},
  "deployedLinkReferences": {}
}