{
  "_format": "hh-sol-artifact-1",
  "contractName": "Bet",
  "sourceName": "contracts/Bet.sol",
  "abi": [
    {
      "inputs": [
        {
          "internalType": "string",
          "name": "_moneyLineFunctionHash",
          "type": "string"
        },
        {
          "internalType": "string",
          "name": "_pointSpreadFunctionHash",
          "type": "string"
        },
        {
          "internalType": "string",
          "name": "_pointTotalFunctionHash",
          "type": "string"
        }
      ],
      "stateMutability": "nonpayable",
      "type": "constructor"
    },
    {
      "inputs": [],
      "name": "automate",
      "outputs": [
        {
          "internalType": "contract IAutomate",
          "name": "",
          "type": "address"
        }
      ],
      "stateMutability": "view",
      "type": "function"
    },
    {
      "inputs": [
        {
          "internalType": "address",
          "name": "user",
          "type": "address"
        }
      ],
      "name": "blockUser",
      "outputs": [],
      "stateMutability": "nonpayable",
      "type": "function"
    },
    {
      "inputs": [
        {
          "internalType": "uint256",
          "name": "",
          "type": "uint256"
        }
      ],
      "name": "blockedUsers",
      "outputs": [
        {
          "internalType": "address",
          "name": "",
          "type": "address"
        }
      ],
      "stateMutability": "view",
      "type": "function"
    },
    {
      "inputs": [
        {
          "internalType": "address",
          "name": "user",
          "type": "address"
        }
      ],
      "name": "checkSender",
      "outputs": [
        {
          "internalType": "bool",
          "name": "",
          "type": "bool"
        }
      ],
      "stateMutability": "view",
      "type": "function"
    },
    {
      "inputs": [],
      "name": "dedicatedMsgSender",
      "outputs": [
        {
          "internalType": "address",
          "name": "",
          "type": "address"
        }
      ],
      "stateMutability": "view",
      "type": "function"
    },
    {
      "inputs": [
        {
          "internalType": "uint256",
          "name": "_amount",
          "type": "uint256"
        },
        {
          "internalType": "address",
          "name": "_token",
          "type": "address"
        },
        {
          "internalType": "address",
          "name": "_sponsor",
          "type": "address"
        }
      ],
      "name": "deposit",
      "outputs": [],
      "stateMutability": "payable",
      "type": "function"
    },
    {
      "inputs": [],
      "name": "fundsOwner",
      "outputs": [
        {
          "internalType": "address",
          "name": "",
          "type": "address"
        }
      ],
      "stateMutability": "view",
      "type": "function"
    },
    {
      "inputs": [],
      "name": "gelato1Balance",
      "outputs": [
        {
          "internalType": "contract IGelato1Balance",
          "name": "",
          "type": "address"
        }
      ],
      "stateMutability": "view",
      "type": "function"
    },
    {
      "inputs": [
        {
          "internalType": "uint256",
          "name": "gameID",
          "type": "uint256"
        },
        {
          "internalType": "uint256",
          "name": "teamID",
          "type": "uint256"
        },
        {
          "internalType": "uint256",
          "name": "homeTeamID",
          "type": "uint256"
        },
        {
          "internalType": "uint256",
          "name": "awayTeamID",
          "type": "uint256"
        },
        {
          "internalType": "uint256",
          "name": "startTime",
          "type": "uint256"
        }
      ],
      "name": "moneyLineBet",
      "outputs": [],
      "stateMutability": "payable",
      "type": "function"
    },
    {
      "inputs": [
        {
          "internalType": "uint256",
          "name": "",
          "type": "uint256"
        }
      ],
      "name": "newMoneyLineBet",
      "outputs": [
        {
          "internalType": "uint256",
          "name": "total",
          "type": "uint256"
        },
        {
          "internalType": "uint256",
          "name": "homeTeamID",
          "type": "uint256"
        },
        {
          "internalType": "uint256",
          "name": "awayTeamID",
          "type": "uint256"
        },
        {
          "internalType": "bytes32",
          "name": "taskID",
          "type": "bytes32"
        }
      ],
      "stateMutability": "view",
      "type": "function"
    },
    {
      "inputs": [
        {
          "internalType": "uint256",
          "name": "",
          "type": "uint256"
        }
      ],
      "name": "newPointSpreadBet",
      "outputs": [
        {
          "internalType": "uint256",
          "name": "total",
          "type": "uint256"
        },
        {
          "internalType": "uint256",
          "name": "homeTeamID",
          "type": "uint256"
        },
        {
          "internalType": "uint256",
          "name": "awayTeamID",
          "type": "uint256"
        },
        {
          "internalType": "bytes32",
          "name": "taskID",
          "type": "bytes32"
        }
      ],
      "stateMutability": "view",
      "type": "function"
    },
    {
      "inputs": [
        {
          "internalType": "uint256",
          "name": "",
          "type": "uint256"
        }
      ],
      "name": "newPointTotalBet",
      "outputs": [
        {
          "internalType": "uint256",
          "name": "total",
          "type": "uint256"
        },
        {
          "internalType": "uint256",
          "name": "homeTeamID",
          "type": "uint256"
        },
        {
          "internalType": "uint256",
          "name": "awayTeamID",
          "type": "uint256"
        },
        {
          "internalType": "bytes32",
          "name": "taskID",
          "type": "bytes32"
        }
      ],
      "stateMutability": "view",
      "type": "function"
    },
    {
      "inputs": [
        {
          "internalType": "uint256",
          "name": "gameID",
          "type": "uint256"
        },
        {
          "internalType": "uint256",
          "name": "teamID",
          "type": "uint256"
        },
        {
          "internalType": "uint256",
          "name": "homeTeamID",
          "type": "uint256"
        },
        {
          "internalType": "uint256",
          "name": "awayTeamID",
          "type": "uint256"
        },
        {
          "internalType": "int256",
          "name": "spread",
          "type": "int256"
        },
        {
          "internalType": "uint256",
          "name": "startTime",
          "type": "uint256"
        }
      ],
      "name": "pointSpreadBet",
      "outputs": [],
      "stateMutability": "payable",
      "type": "function"
    },
    {
      "inputs": [
        {
          "internalType": "uint256",
          "name": "gameID",
          "type": "uint256"
        },
        {
          "internalType": "uint256",
          "name": "overUnder",
          "type": "uint256"
        },
        {
          "internalType": "uint256",
          "name": "homeTeamID",
          "type": "uint256"
        },
        {
          "internalType": "uint256",
          "name": "awayTeamID",
          "type": "uint256"
        },
        {
          "internalType": "uint256",
          "name": "pointAmount",
          "type": "uint256"
        },
        {
          "internalType": "uint256",
          "name": "startTime",
          "type": "uint256"
        }
      ],
      "name": "pointTotalBet",
      "outputs": [],
      "stateMutability": "payable",
      "type": "function"
    },
    {
      "inputs": [],
      "name": "returnEscrow",
      "outputs": [
        {
          "internalType": "uint256",
          "name": "data",
          "type": "uint256"
        }
      ],
      "stateMutability": "view",
      "type": "function"
    },
    {
      "inputs": [
        {
          "internalType": "uint256",
          "name": "gameID",
          "type": "uint256"
        },
        {
          "internalType": "uint256",
          "name": "teamID",
          "type": "uint256"
        }
      ],
      "name": "returnMoneyLineBetReceipt",
      "outputs": [
        {
          "components": [
            {
              "internalType": "address",
              "name": "addr",
              "type": "address"
            },
            {
              "internalType": "uint256",
              "name": "amount",
              "type": "uint256"
            },
            {
              "internalType": "uint256",
              "name": "teamID",
              "type": "uint256"
            },
            {
              "internalType": "uint256",
              "name": "gameID",
              "type": "uint256"
            },
            {
              "internalType": "string",
              "name": "betType",
              "type": "string"
            },
            {
              "internalType": "uint256",
              "name": "time",
              "type": "uint256"
            },
            {
              "internalType": "bool",
              "name": "active",
              "type": "bool"
            }
          ],
          "internalType": "struct Bet.Transaction",
          "name": "data",
          "type": "tuple"
        }
      ],
      "stateMutability": "view",
      "type": "function"
    },
    {
      "inputs": [
        {
          "internalType": "uint256",
          "name": "gameID",
          "type": "uint256"
        },
        {
          "internalType": "uint256",
          "name": "teamID",
          "type": "uint256"
        }
      ],
      "name": "returnMoneyLineBetTotal",
      "outputs": [
        {
          "internalType": "uint256",
          "name": "data",
          "type": "uint256"
        }
      ],
      "stateMutability": "view",
      "type": "function"
    },
    {
      "inputs": [
        {
          "internalType": "uint256",
          "name": "gameID",
          "type": "uint256"
        },
        {
          "internalType": "uint256",
          "name": "bettingTeamID",
          "type": "uint256"
        }
      ],
      "name": "returnOdds",
      "outputs": [
        {
          "internalType": "uint256",
          "name": "odds",
          "type": "uint256"
        }
      ],
      "stateMutability": "view",
      "type": "function"
    },
    {
      "inputs": [
        {
          "internalType": "uint256",
          "name": "gameID",
          "type": "uint256"
        }
      ],
      "name": "returnPointSpreadBetReceipt",
      "outputs": [
        {
          "components": [
            {
              "internalType": "address",
              "name": "addr",
              "type": "address"
            },
            {
              "internalType": "uint256",
              "name": "amount",
              "type": "uint256"
            },
            {
              "internalType": "uint256",
              "name": "teamID",
              "type": "uint256"
            },
            {
              "internalType": "uint256",
              "name": "gameID",
              "type": "uint256"
            },
            {
              "internalType": "string",
              "name": "betType",
              "type": "string"
            },
            {
              "internalType": "uint256",
              "name": "time",
              "type": "uint256"
            },
            {
              "internalType": "bool",
              "name": "active",
              "type": "bool"
            }
          ],
          "internalType": "struct Bet.Transaction",
          "name": "data",
          "type": "tuple"
        }
      ],
      "stateMutability": "view",
      "type": "function"
    },
    {
      "inputs": [
        {
          "internalType": "uint256",
          "name": "gameID",
          "type": "uint256"
        },
        {
          "internalType": "uint256",
          "name": "teamID",
          "type": "uint256"
        }
      ],
      "name": "returnPointSpreadBetTotal",
      "outputs": [
        {
          "internalType": "uint256",
          "name": "data",
          "type": "uint256"
        }
      ],
      "stateMutability": "view",
      "type": "function"
    },
    {
      "inputs": [
        {
          "internalType": "uint256",
          "name": "gameID",
          "type": "uint256"
        }
      ],
      "name": "returnPointTotalBetReceipt",
      "outputs": [
        {
          "components": [
            {
              "internalType": "address",
              "name": "addr",
              "type": "address"
            },
            {
              "internalType": "uint256",
              "name": "amount",
              "type": "uint256"
            },
            {
              "internalType": "uint256",
              "name": "teamID",
              "type": "uint256"
            },
            {
              "internalType": "uint256",
              "name": "gameID",
              "type": "uint256"
            },
            {
              "internalType": "string",
              "name": "betType",
              "type": "string"
            },
            {
              "internalType": "uint256",
              "name": "time",
              "type": "uint256"
            },
            {
              "internalType": "bool",
              "name": "active",
              "type": "bool"
            }
          ],
          "internalType": "struct Bet.Transaction",
          "name": "data",
          "type": "tuple"
        }
      ],
      "stateMutability": "view",
      "type": "function"
    },
    {
      "inputs": [
        {
          "internalType": "uint256",
          "name": "gameID",
          "type": "uint256"
        }
      ],
      "name": "returnPointTotalBetTotal",
      "outputs": [
        {
          "internalType": "uint256",
          "name": "data",
          "type": "uint256"
        }
      ],
      "stateMutability": "view",
      "type": "function"
    },
    {
      "inputs": [],
      "name": "returnReceipts",
      "outputs": [
        {
          "components": [
            {
              "internalType": "address",
              "name": "addr",
              "type": "address"
            },
            {
              "internalType": "uint256",
              "name": "amount",
              "type": "uint256"
            },
            {
              "internalType": "uint256",
              "name": "teamID",
              "type": "uint256"
            },
            {
              "internalType": "uint256",
              "name": "gameID",
              "type": "uint256"
            },
            {
              "internalType": "string",
              "name": "betType",
              "type": "string"
            },
            {
              "internalType": "uint256",
              "name": "time",
              "type": "uint256"
            },
            {
              "internalType": "bool",
              "name": "active",
              "type": "bool"
            }
          ],
          "internalType": "struct Bet.Transaction[]",
          "name": "data",
          "type": "tuple[]"
        }
      ],
      "stateMutability": "view",
      "type": "function"
    },
    {
      "inputs": [
        {
          "internalType": "uint256",
          "name": "gameID",
          "type": "uint256"
        },
        {
          "internalType": "uint256",
          "name": "winnerID",
          "type": "uint256"
        },
        {
          "internalType": "uint256",
          "name": "loserID",
          "type": "uint256"
        }
      ],
      "name": "rewardMoneyLineWinners",
      "outputs": [],
      "stateMutability": "nonpayable",
      "type": "function"
    },
    {
      "inputs": [
        {
          "internalType": "uint256",
          "name": "gameID",
          "type": "uint256"
        },
        {
          "internalType": "int256",
          "name": "homeScore",
          "type": "int256"
        },
        {
          "internalType": "int256",
          "name": "awayScore",
          "type": "int256"
        },
        {
          "internalType": "uint256",
          "name": "homeTeamID",
          "type": "uint256"
        },
        {
          "internalType": "uint256",
          "name": "awayTeamID",
          "type": "uint256"
        }
      ],
      "name": "rewardPointSpreadWinners",
      "outputs": [],
      "stateMutability": "nonpayable",
      "type": "function"
    },
    {
      "inputs": [
        {
          "internalType": "uint256",
          "name": "gameID",
          "type": "uint256"
        },
        {
          "internalType": "uint256",
          "name": "total",
          "type": "uint256"
        }
      ],
      "name": "rewardPointTotalWinners",
      "outputs": [],
      "stateMutability": "nonpayable",
      "type": "function"
    },
    {
      "inputs": [
        {
          "internalType": "uint256",
          "name": "",
          "type": "uint256"
        }
      ],
      "name": "totalBetOnGame",
      "outputs": [
        {
          "internalType": "uint256",
          "name": "",
          "type": "uint256"
        }
      ],
      "stateMutability": "view",
      "type": "function"
    },
    {
      "inputs": [
        {
          "internalType": "uint256",
          "name": "",
          "type": "uint256"
        },
        {
          "internalType": "uint256",
          "name": "",
          "type": "uint256"
        }
      ],
      "name": "totalBetOnTeam",
      "outputs": [
        {
          "internalType": "uint256",
          "name": "",
          "type": "uint256"
        }
      ],
      "stateMutability": "view",
      "type": "function"
    },
    {
      "inputs": [
        {
          "internalType": "address",
          "name": "",
          "type": "address"
        }
      ],
      "name": "userReceipts",
      "outputs": [
        {
          "internalType": "uint256",
          "name": "escrow",
          "type": "uint256"
        }
      ],
      "stateMutability": "view",
      "type": "function"
    }
  ],
  "bytecode": "0x61010060405234801562000011575f80fd5b506040516200686638038062006866833981810160405281019062000037919062000508565b732a6c106ae13b558bb9e2ec64bd2f1f7beff3a5e03081308173ffffffffffffffffffffffffffffffffffffffff1660808173ffffffffffffffffffffffffffffffffffffffff16815250508173ffffffffffffffffffffffffffffffffffffffff1663573ea5756040518163ffffffff1660e01b8152600401602060405180830381865afa158015620000cd573d5f803e3d5ffd5b505050506040513d601f19601f82011682018060405250810190620000f391906200061f565b73ffffffffffffffffffffffffffffffffffffffff1660c08173ffffffffffffffffffffffffffffffffffffffff16815250505f8273ffffffffffffffffffffffffffffffffffffffff1663cd3d4fb960026040518263ffffffff1660e01b8152600401620001639190620006cb565b602060405180830381865afa1580156200017f573d5f803e3d5ffd5b505050506040513d601f19601f82011682018060405250810190620001a5919062000728565b90505f8173ffffffffffffffffffffffffffffffffffffffff1663ba1d0ff46040518163ffffffff1660e01b8152600401602060405180830381865afa158015620001f2573d5f803e3d5ffd5b505050506040513d601f19601f8201168201806040525081019062000218919062000728565b90508073ffffffffffffffffffffffffffffffffffffffff1663ded89a7c846040518263ffffffff1660e01b815260040162000255919062000769565b6040805180830381865afa15801562000270573d5f803e3d5ffd5b505050506040513d601f19601f82011682018060405250810190620002969190620007be565b508073ffffffffffffffffffffffffffffffffffffffff1660a09073ffffffffffffffffffffffffffffffffffffffff1681525050505050508073ffffffffffffffffffffffffffffffffffffffff1660e08173ffffffffffffffffffffffffffffffffffffffff16815250505050335f806101000a81548173ffffffffffffffffffffffffffffffffffffffff021916908373ffffffffffffffffffffffffffffffffffffffff160217905550826001908162000355919062000a3a565b50806003908162000367919062000a3a565b50816002908162000379919062000a3a565b5050505062000b1e565b5f604051905090565b5f80fd5b5f80fd5b5f80fd5b5f80fd5b5f601f19601f8301169050919050565b7f4e487b71000000000000000000000000000000000000000000000000000000005f52604160045260245ffd5b620003e4826200039c565b810181811067ffffffffffffffff82111715620004065762000405620003ac565b5b80604052505050565b5f6200041a62000383565b9050620004288282620003d9565b919050565b5f67ffffffffffffffff8211156200044a5762000449620003ac565b5b62000455826200039c565b9050602081019050919050565b5f5b838110156200048157808201518184015260208101905062000464565b5f8484015250505050565b5f620004a26200049c846200042d565b6200040f565b905082815260208101848484011115620004c157620004c062000398565b5b620004ce84828562000462565b509392505050565b5f82601f830112620004ed57620004ec62000394565b5b8151620004ff8482602086016200048c565b91505092915050565b5f805f606084860312156200052257620005216200038c565b5b5f84015167ffffffffffffffff81111562000542576200054162000390565b5b6200055086828701620004d6565b935050602084015167ffffffffffffffff81111562000574576200057362000390565b5b6200058286828701620004d6565b925050604084015167ffffffffffffffff811115620005a657620005a562000390565b5b620005b486828701620004d6565b9150509250925092565b5f73ffffffffffffffffffffffffffffffffffffffff82169050919050565b5f620005e982620005be565b9050919050565b620005fb81620005dd565b811462000606575f80fd5b50565b5f815190506200061981620005f0565b92915050565b5f602082840312156200063757620006366200038c565b5b5f620006468482850162000609565b91505092915050565b7f4e487b71000000000000000000000000000000000000000000000000000000005f52602160045260245ffd5b6005811062000690576200068f6200064f565b5b50565b5f819050620006a2826200067c565b919050565b5f620006b38262000693565b9050919050565b620006c581620006a7565b82525050565b5f602082019050620006e05f830184620006ba565b92915050565b5f620006f282620005be565b9050919050565b6200070481620006e6565b81146200070f575f80fd5b50565b5f815190506200072281620006f9565b92915050565b5f6020828403121562000740576200073f6200038c565b5b5f6200074f8482850162000712565b91505092915050565b6200076381620006e6565b82525050565b5f6020820190506200077e5f83018462000758565b92915050565b5f8115159050919050565b6200079a8162000784565b8114620007a5575f80fd5b50565b5f81519050620007b8816200078f565b92915050565b5f8060408385031215620007d757620007d66200038c565b5b5f620007e68582860162000712565b9250506020620007f985828601620007a8565b9150509250929050565b5f81519050919050565b7f4e487b71000000000000000000000000000000000000000000000000000000005f52602260045260245ffd5b5f60028204905060018216806200085257607f821691505b6020821081036200086857620008676200080d565b5b50919050565b5f819050815f5260205f209050919050565b5f6020601f8301049050919050565b5f82821b905092915050565b5f60088302620008cc7fffffffffffffffffffffffffffffffffffffffffffffffffffffffffffffffff826200088f565b620008d886836200088f565b95508019841693508086168417925050509392505050565b5f819050919050565b5f819050919050565b5f620009226200091c6200091684620008f0565b620008f9565b620008f0565b9050919050565b5f819050919050565b6200093d8362000902565b620009556200094c8262000929565b8484546200089b565b825550505050565b5f90565b6200096b6200095d565b6200097881848462000932565b505050565b5b818110156200099f57620009935f8262000961565b6001810190506200097e565b5050565b601f821115620009ee57620009b8816200086e565b620009c38462000880565b81016020851015620009d3578190505b620009eb620009e28562000880565b8301826200097d565b50505b505050565b5f82821c905092915050565b5f62000a105f1984600802620009f3565b1980831691505092915050565b5f62000a2a8383620009ff565b9150826002028217905092915050565b62000a458262000803565b67ffffffffffffffff81111562000a615762000a60620003ac565b5b62000a6d82546200083a565b62000a7a828285620009a3565b5f60209050601f83116001811462000ab0575f841562000a9b578287015190505b62000aa7858262000a1d565b86555062000b16565b601f19841662000ac0866200086e565b5f5b8281101562000ae95784890151825560018201915060208501945060208101905062000ac2565b8683101562000b09578489015162000b05601f891682620009ff565b8355505b6001600288020188555050505b505050505050565b60805160a05160c05160e051615cfb62000b6b5f395f6111f201525f50505f818161079b01528181610f2501528181611d52015261304e01525f8181610e1701526143630152615cfb5ff3fe6080604052600436106101c1575f3560e01c806357fb1d67116100f6578063a910e4a511610094578063ec5a24d711610063578063ec5a24d71461068e578063f12b2a8b146106ca578063f227ce4d146106e6578063f782a75414610722576101c1565b8063a910e4a5146105cf578063a91faba21461060b578063b1a374dd1461064a578063ce914f7314610666576101c1565b80638edd3971116100d05780638edd3971146104f05780638ee95f9f1461052f578063914989fd14610557578063a4786f3d14610593576101c1565b806357fb1d6714610480578063753dc3b8146104aa5780637ea4178a146104c6576101c1565b80632b3a4ef6116101635780633da013251161013d5780633da01325146103b657806346ee3c59146103de57806347f53fc914610408578063481042e214610444576101c1565b80632b3a4ef6146103345780632e2d2984146103705780633946f6661461038c576101c1565b806308bc451e1161019f57806308bc451e1461025357806323821c211461028f5780632429827f146102cb57806328f150eb1461030a576101c1565b806302cba3c3146101c557806303bfeb2014610201578063049aacfe14610229575b5f80fd5b3480156101d0575f80fd5b506101eb60048036038101906101e691906146c5565b61075e565b6040516101f8919061472f565b60405180910390f35b34801561020c575f80fd5b5061022760048036038101906102229190614748565b610799565b005b348015610234575f80fd5b5061023d610e15565b60405161024a91906147f3565b60405180910390f35b34801561025e575f80fd5b5061027960048036038101906102749190614836565b610e39565b604051610286919061487b565b60405180910390f35b34801561029a575f80fd5b506102b560048036038101906102b091906146c5565b610ee1565b6040516102c291906148a3565b60405180910390f35b3480156102d6575f80fd5b506102f160048036038101906102ec91906146c5565b610ef6565b60405161030194939291906148d4565b60405180910390f35b348015610315575f80fd5b5061031e610f23565b60405161032b919061472f565b60405180910390f35b34801561033f575f80fd5b5061035a60048036038101906103559190614917565b610f47565b60405161036791906148a3565b60405180910390f35b61038a60048036038101906103859190614955565b610f67565b005b348015610397575f80fd5b506103a0610f77565b6040516103ad9190614bb0565b60405180910390f35b3480156103c1575f80fd5b506103dc60048036038101906103d79190614836565b611137565b005b3480156103e9575f80fd5b506103f26111f0565b6040516103ff919061472f565b60405180910390f35b348015610413575f80fd5b5061042e60048036038101906104299190614917565b611214565b60405161043b91906148a3565b60405180910390f35b34801561044f575f80fd5b5061046a600480360381019061046591906146c5565b611241565b6040516104779190614c69565b60405180910390f35b34801561048b575f80fd5b506104946113d0565b6040516104a19190614ca9565b60405180910390f35b6104c460048036038101906104bf9190614cc2565b6113e8565b005b3480156104d1575f80fd5b506104da611cde565b6040516104e791906148a3565b60405180910390f35b3480156104fb575f80fd5b50610516600480360381019061051191906146c5565b611d24565b60405161052694939291906148d4565b60405180910390f35b34801561053a575f80fd5b5061055560048036038101906105509190614917565b611d50565b005b348015610562575f80fd5b5061057d600480360381019061057891906146c5565b6123fb565b60405161058a9190614c69565b60405180910390f35b34801561059e575f80fd5b506105b960048036038101906105b49190614836565b61258a565b6040516105c691906148a3565b60405180910390f35b3480156105da575f80fd5b506105f560048036038101906105f09190614917565b6125a4565b6040516106029190614c69565b60405180910390f35b348015610616575f80fd5b50610631600480360381019061062c91906146c5565b612743565b60405161064194939291906148d4565b60405180910390f35b610664600480360381019061065f9190614d7e565b612770565b005b348015610671575f80fd5b5061068c60048036038101906106879190614e07565b61304c565b005b348015610699575f80fd5b506106b460048036038101906106af9190614917565b6136dd565b6040516106c191906148a3565b60405180910390f35b6106e460048036038101906106df9190614e7e565b61370a565b005b3480156106f1575f80fd5b5061070c60048036038101906107079190614917565b613fcb565b60405161071991906148a3565b60405180910390f35b34801561072d575f80fd5b50610748600480360381019061074391906146c5565b614027565b60405161075591906148a3565b60405180910390f35b6004818154811061076d575f80fd5b905f5260205f20015f915054906101000a900473ffffffffffffffffffffffffffffffffffffffff1681565b7f000000000000000000000000000000000000000000000000000000000000000073ffffffffffffffffffffffffffffffffffffffff163373ffffffffffffffffffffffffffffffffffffffff1614610827576040517f08c379a000000000000000000000000000000000000000000000000000000000815260040161081e90614f4f565b60405180910390fd5b5f5b60085f8581526020019081526020015f206004015f8481526020019081526020015f2080549050811015610b6c575f60085f8681526020019081526020015f206004015f8581526020019081526020015f20828154811061088d5761088c614f6d565b5b905f5260205f20015f9054906101000a900473ffffffffffffffffffffffffffffffffffffffff1690505f60085f8781526020019081526020015f206005015f8681526020019081526020015f205f8373ffffffffffffffffffffffffffffffffffffffff1673ffffffffffffffffffffffffffffffffffffffff1681526020019081526020015f206001015490505f60085f8881526020019081526020015f206001015f8781526020019081526020015f20548261094c9190614ff4565b905061095783610e39565b6109be578273ffffffffffffffffffffffffffffffffffffffff166108fc8260085f8b81526020019081526020015f205f01546109949190615024565b90811502906040515f60405180830381858888f193505050501580156109bc573d5f803e3d5ffd5b505b8160055f8573ffffffffffffffffffffffffffffffffffffffff1673ffffffffffffffffffffffffffffffffffffffff1681526020019081526020015f205f015f828254610a0c9190615065565b925050819055505f5b60055f8573ffffffffffffffffffffffffffffffffffffffff1673ffffffffffffffffffffffffffffffffffffffff1681526020019081526020015f2060010180549050811015610b55575f60055f8673ffffffffffffffffffffffffffffffffffffffff1673ffffffffffffffffffffffffffffffffffffffff1681526020019081526020015f206001018281548110610ab357610ab2614f6d565b5b905f5260205f2090600702019050888160030154148015610b205750604051602001610ade906150ec565b6040516020818303038152906040528051906020012081600401604051602001610b0891906151ef565b60405160208183030381529060405280519060200120145b15610b41575f816006015f6101000a81548160ff0219169083151502179055505b508080610b4d90615205565b915050610a15565b505050508080610b6490615205565b915050610829565b505f5b60085f8581526020019081526020015f206004015f8381526020019081526020015f2080549050811015610e0f575f60085f8681526020019081526020015f206004015f8481526020019081526020015f208281548110610bd357610bd2614f6d565b5b905f5260205f20015f9054906101000a900473ffffffffffffffffffffffffffffffffffffffff1690505f60085f8781526020019081526020015f206005015f8581526020019081526020015f205f8373ffffffffffffffffffffffffffffffffffffffff1673ffffffffffffffffffffffffffffffffffffffff1681526020019081526020015f206001015490508060055f8473ffffffffffffffffffffffffffffffffffffffff1673ffffffffffffffffffffffffffffffffffffffff1681526020019081526020015f205f015f828254610cb09190615065565b925050819055505f5b60055f8473ffffffffffffffffffffffffffffffffffffffff1673ffffffffffffffffffffffffffffffffffffffff1681526020019081526020015f2060010180549050811015610df9575f60055f8573ffffffffffffffffffffffffffffffffffffffff1673ffffffffffffffffffffffffffffffffffffffff1681526020019081526020015f206001018281548110610d5757610d56614f6d565b5b905f5260205f2090600702019050878160030154148015610dc45750604051602001610d82906150ec565b6040516020818303038152906040528051906020012081600401604051602001610dac91906151ef565b60405160208183030381529060405280519060200120145b15610de5575f816006015f6101000a81548160ff0219169083151502179055505b508080610df190615205565b915050610cb9565b5050508080610e0790615205565b915050610b6f565b50505050565b7f000000000000000000000000000000000000000000000000000000000000000081565b5f805f90505b600480549050811015610ed7578273ffffffffffffffffffffffffffffffffffffffff1660048281548110610e7757610e76614f6d565b5b905f5260205f20015f9054906101000a900473ffffffffffffffffffffffffffffffffffffffff1673ffffffffffffffffffffffffffffffffffffffff1603610ec4576001915050610edc565b8080610ecf90615205565b915050610e3f565b505f90505b919050565b6006602052805f5260405f205f915090505481565b6009602052805f5260405f205f915090508060010154908060030154908060040154908060070154905084565b7f000000000000000000000000000000000000000000000000000000000000000081565b6007602052815f5260405f20602052805f5260405f205f91509150505481565b610f72838383614044565b505050565b606060055f3373ffffffffffffffffffffffffffffffffffffffff1673ffffffffffffffffffffffffffffffffffffffff1681526020019081526020015f20600101805480602002602001604051908101604052809291908181526020015f905b8282101561112e578382905f5260205f2090600702016040518060e00160405290815f82015f9054906101000a900473ffffffffffffffffffffffffffffffffffffffff1673ffffffffffffffffffffffffffffffffffffffff1673ffffffffffffffffffffffffffffffffffffffff16815260200160018201548152602001600282015481526020016003820154815260200160048201805461107b9061512d565b80601f01602080910402602001604051908101604052809291908181526020018280546110a79061512d565b80156110f25780601f106110c9576101008083540402835291602001916110f2565b820191905f5260205f20905b8154815290600101906020018083116110d557829003601f168201915b5050505050815260200160058201548152602001600682015f9054906101000a900460ff16151515158152505081526020019060010190610fd8565b50505050905090565b5f8054906101000a900473ffffffffffffffffffffffffffffffffffffffff1673ffffffffffffffffffffffffffffffffffffffff163373ffffffffffffffffffffffffffffffffffffffff161461118d575f80fd5b600481908060018154018082558091505060019003905f5260205f20015f9091909190916101000a81548173ffffffffffffffffffffffffffffffffffffffff021916908373ffffffffffffffffffffffffffffffffffffffff16021790555050565b7f000000000000000000000000000000000000000000000000000000000000000081565b5f60085f8481526020019081526020015f206001015f8381526020019081526020015f2054905092915050565b61124961463f565b60095f8381526020019081526020015f206006015f3373ffffffffffffffffffffffffffffffffffffffff1673ffffffffffffffffffffffffffffffffffffffff1681526020019081526020015f206040518060e00160405290815f82015f9054906101000a900473ffffffffffffffffffffffffffffffffffffffff1673ffffffffffffffffffffffffffffffffffffffff1673ffffffffffffffffffffffffffffffffffffffff1681526020016001820154815260200160028201548152602001600382015481526020016004820180546113259061512d565b80601f01602080910402602001604051908101604052809291908181526020018280546113519061512d565b801561139c5780601f106113735761010080835404028352916020019161139c565b820191905f5260205f20905b81548152906001019060200180831161137f57829003601f168201915b5050505050815260200160058201548152602001600682015f9054906101000a900460ff1615151515815250509050919050565b737506c12a824d73d9b08564d5afc22c949434755e81565b3273ffffffffffffffffffffffffffffffffffffffff163373ffffffffffffffffffffffffffffffffffffffff161461141f575f80fd5b805f1061142a575f80fd5b61143333610e39565b1561143c575f80fd5b3373ffffffffffffffffffffffffffffffffffffffff16600a5f8881526020019081526020015f206005015f3373ffffffffffffffffffffffffffffffffffffffff1673ffffffffffffffffffffffffffffffffffffffff1681526020019081526020015f205f015f9054906101000a900473ffffffffffffffffffffffffffffffffffffffff1673ffffffffffffffffffffffffffffffffffffffff16036114e3575f80fd5b5f34116114ee575f80fd5b5f600a5f8881526020019081526020015f2090505f801916600a5f8981526020019081526020015f2060060154036117a8575f6040518060400160405280600267ffffffffffffffff8111156115475761154661524c565b5b6040519080825280602002602001820160405280156115755781602001602082028036833780820191505090505b508152602001600267ffffffffffffffff8111156115965761159561524c565b5b6040519080825280602002602001820160405280156115c957816020015b60608152602001906001900390816115b45790505b5081525090506002815f01515f815181106115e7576115e6614f6d565b5b6020026020010190600481111561160157611600615279565b5b9081600481111561161557611614615279565b5b815250506004815f015160018151811061163257611631614f6d565b5b6020026020010190600481111561164c5761164b615279565b5b908160048111156116605761165f615279565b5b8152505061166c6142f1565b81602001515f8151811061168357611682614f6d565b5b60200260200101819052506117496003805461169e9061512d565b80601f01602080910402602001604051908101604052809291908181526020018280546116ca9061512d565b80156117155780601f106116ec57610100808354040283529160200191611715565b820191905f5260205f20905b8154815290600101906020018083116116f857829003601f168201915b505050505061172330614307565b8a6040516020016117359291906152de565b604051602081830303815290604052614334565b816020015160018151811061176157611760614f6d565b5b602002602001018190525061179e30638ee95f9f60e01b6040516020016117889190615346565b604051602081830303815290604052835f614360565b8260060181905550505b5f60646005346117b89190615024565b6117c29190614ff4565b90505f60055f3373ffffffffffffffffffffffffffffffffffffffff1673ffffffffffffffffffffffffffffffffffffffff1681526020019081526020015f2060010190505f836005015f3373ffffffffffffffffffffffffffffffffffffffff1673ffffffffffffffffffffffffffffffffffffffff1681526020019081526020015f2090505f8460040190505f8054906101000a900473ffffffffffffffffffffffffffffffffffffffff1673ffffffffffffffffffffffffffffffffffffffff166108fc8590811502906040515f60405180830381858888f193505050501580156118b2573d5f803e3d5ffd5b5083346118bf9190615065565b60055f3373ffffffffffffffffffffffffffffffffffffffff1673ffffffffffffffffffffffffffffffffffffffff1681526020019081526020015f205f015f82825461190c919061535f565b92505081905550826040518060e001604052803373ffffffffffffffffffffffffffffffffffffffff16815260200186346119479190615065565b81526020018c81526020018d81526020016040518060400160405280600b81526020017f506f696e7420546f74616c000000000000000000000000000000000000000000815250815260200142815260200160011515815250908060018154018082558091505060019003905f5260205f2090600702015f909190919091505f820151815f015f6101000a81548173ffffffffffffffffffffffffffffffffffffffff021916908373ffffffffffffffffffffffffffffffffffffffff1602179055506020820151816001015560408201518160020155606082015181600301556080820151816004019081611a3d9190615514565b5060a0820151816005015560c0820151816006015f6101000a81548160ff02191690831515021790555050503460065f8d81526020019081526020015f205f828254611a89919061535f565b92505081905550600234611a9d9190614ff4565b60075f8d81526020019081526020015f205f8b81526020019081526020015f205f828254611acb919061535f565b92505081905550600234611adf9190614ff4565b60075f8d81526020019081526020015f205f8a81526020019081526020015f205f828254611b0d919061535f565b925050819055508334611b209190615065565b856001015f828254611b32919061535f565b9250508190555088856002018190555087856003018190555086855f015f3373ffffffffffffffffffffffffffffffffffffffff1673ffffffffffffffffffffffffffffffffffffffff1681526020019081526020015f20819055508033908060018154018082558091505060019003905f5260205f20015f9091909190916101000a81548173ffffffffffffffffffffffffffffffffffffffff021916908373ffffffffffffffffffffffffffffffffffffffff16021790555033825f015f6101000a81548173ffffffffffffffffffffffffffffffffffffffff021916908373ffffffffffffffffffffffffffffffffffffffff1602179055508334611c3a9190615065565b826001015f828254611c4c919061535f565b925050819055508982600201819055508a82600301819055506040518060400160405280600b81526020017f506f696e7420546f74616c000000000000000000000000000000000000000000815250826004019081611cab9190615514565b504282600501819055506001826006015f6101000a81548160ff0219169083151502179055505050505050505050505050565b5f60055f3373ffffffffffffffffffffffffffffffffffffffff1673ffffffffffffffffffffffffffffffffffffffff1681526020019081526020015f205f0154905090565b6008602052805f5260405f205f91509050805f0154908060020154908060030154908060060154905084565b7f000000000000000000000000000000000000000000000000000000000000000073ffffffffffffffffffffffffffffffffffffffff163373ffffffffffffffffffffffffffffffffffffffff1614611dde576040517f08c379a0000000000000000000000000000000000000000000000000000000008152600401611dd590614f4f565b60405180910390fd5b60605f805f5b600a5f8781526020019081526020015f20600401805490508110156122d6575f600a5f8881526020019081526020015f206004018281548110611e2a57611e29614f6d565b5b905f5260205f20015f9054906101000a900473ffffffffffffffffffffffffffffffffffffffff1690505f600a5f8981526020019081526020015f206005015f8373ffffffffffffffffffffffffffffffffffffffff1673ffffffffffffffffffffffffffffffffffffffff1681526020019081526020015f206001015490506063600a5f8a81526020019081526020015f206005015f8473ffffffffffffffffffffffffffffffffffffffff1673ffffffffffffffffffffffffffffffffffffffff1681526020019081526020015f2060020154148015611f655750600a5f8981526020019081526020015f205f015f8373ffffffffffffffffffffffffffffffffffffffff1673ffffffffffffffffffffffffffffffffffffffff1681526020019081526020015f2054600a88611f639190615024565b105b8015611f775750611f7582610e39565b155b15611feb5781868581518110611f9057611f8f614f6d565b5b602002602001019073ffffffffffffffffffffffffffffffffffffffff16908173ffffffffffffffffffffffffffffffffffffffff16815250508380611fd590615205565b9450508085611fe4919061535f565b9450612129565b6064600a5f8a81526020019081526020015f206005015f8473ffffffffffffffffffffffffffffffffffffffff1673ffffffffffffffffffffffffffffffffffffffff1681526020019081526020015f20600201541480156120a65750600a5f8981526020019081526020015f205f015f8373ffffffffffffffffffffffffffffffffffffffff1673ffffffffffffffffffffffffffffffffffffffff1681526020019081526020015f2054600a886120a49190615024565b115b80156120b857506120b682610e39565b155b1561212857818685815181106120d1576120d0614f6d565b5b602002602001019073ffffffffffffffffffffffffffffffffffffffff16908173ffffffffffffffffffffffffffffffffffffffff1681525050838061211690615205565b9450508085612125919061535f565b94505b5b8060055f8473ffffffffffffffffffffffffffffffffffffffff1673ffffffffffffffffffffffffffffffffffffffff1681526020019081526020015f205f015f8282546121779190615065565b925050819055505f5b60055f8473ffffffffffffffffffffffffffffffffffffffff1673ffffffffffffffffffffffffffffffffffffffff1681526020019081526020015f20600101805490508110156122c0575f60055f8573ffffffffffffffffffffffffffffffffffffffff1673ffffffffffffffffffffffffffffffffffffffff1681526020019081526020015f20600101828154811061221e5761221d614f6d565b5b905f5260205f209060070201905089816003015414801561228b57506040516020016122499061562d565b604051602081830303815290604052805190602001208160040160405160200161227391906151ef565b60405160208183030381529060405280519060200120145b156122ac575f816006015f6101000a81548160ff0219169083151502179055505b5080806122b890615205565b915050612180565b50505080806122ce90615205565b915050611de4565b505f5b83518110156123f3575f600a5f8881526020019081526020015f206005015f86848151811061230b5761230a614f6d565b5b602002602001015173ffffffffffffffffffffffffffffffffffffffff1673ffffffffffffffffffffffffffffffffffffffff1681526020019081526020015f206001015490505f848261235f9190614ff4565b905085838151811061237457612373614f6d565b5b602002602001015173ffffffffffffffffffffffffffffffffffffffff166108fc82600a5f8c81526020019081526020015f20600101546123b59190615024565b90811502906040515f60405180830381858888f193505050501580156123dd573d5f803e3d5ffd5b50505080806123eb90615205565b9150506122d9565b505050505050565b61240361463f565b600a5f8381526020019081526020015f206005015f3373ffffffffffffffffffffffffffffffffffffffff1673ffffffffffffffffffffffffffffffffffffffff1681526020019081526020015f206040518060e00160405290815f82015f9054906101000a900473ffffffffffffffffffffffffffffffffffffffff1673ffffffffffffffffffffffffffffffffffffffff1673ffffffffffffffffffffffffffffffffffffffff1681526020016001820154815260200160028201548152602001600382015481526020016004820180546124df9061512d565b80601f016020809104026020016040519081016040528092919081815260200182805461250b9061512d565b80156125565780601f1061252d57610100808354040283529160200191612556565b820191905f5260205f20905b81548152906001019060200180831161253957829003601f168201915b5050505050815260200160058201548152602001600682015f9054906101000a900460ff1615151515815250509050919050565b6005602052805f5260405f205f91509050805f0154905081565b6125ac61463f565b60085f8481526020019081526020015f206005015f8381526020019081526020015f205f3373ffffffffffffffffffffffffffffffffffffffff1673ffffffffffffffffffffffffffffffffffffffff1681526020019081526020015f206040518060e00160405290815f82015f9054906101000a900473ffffffffffffffffffffffffffffffffffffffff1673ffffffffffffffffffffffffffffffffffffffff1673ffffffffffffffffffffffffffffffffffffffff1681526020016001820154815260200160028201548152602001600382015481526020016004820180546126979061512d565b80601f01602080910402602001604051908101604052809291908181526020018280546126c39061512d565b801561270e5780601f106126e55761010080835404028352916020019161270e565b820191905f5260205f20905b8154815290600101906020018083116126f157829003601f168201915b5050505050815260200160058201548152602001600682015f9054906101000a900460ff161515151581525050905092915050565b600a602052805f5260405f205f915090508060010154908060020154908060030154908060060154905084565b3273ffffffffffffffffffffffffffffffffffffffff163373ffffffffffffffffffffffffffffffffffffffff16146127a7575f80fd5b805f106127b2575f80fd5b6127bb33610e39565b156127c4575f80fd5b3373ffffffffffffffffffffffffffffffffffffffff1660095f8881526020019081526020015f206006015f3373ffffffffffffffffffffffffffffffffffffffff1673ffffffffffffffffffffffffffffffffffffffff1681526020019081526020015f205f015f9054906101000a900473ffffffffffffffffffffffffffffffffffffffff1673ffffffffffffffffffffffffffffffffffffffff160361286b575f80fd5b5f3411612876575f80fd5b5f60095f8881526020019081526020015f2090505f80191660095f8981526020019081526020015f206007015403612b30575f6040518060400160405280600267ffffffffffffffff8111156128cf576128ce61524c565b5b6040519080825280602002602001820160405280156128fd5781602001602082028036833780820191505090505b508152602001600267ffffffffffffffff81111561291e5761291d61524c565b5b60405190808252806020026020018201604052801561295157816020015b606081526020019060019003908161293c5790505b5081525090506002815f01515f8151811061296f5761296e614f6d565b5b6020026020010190600481111561298957612988615279565b5b9081600481111561299d5761299c615279565b5b815250506004815f01516001815181106129ba576129b9614f6d565b5b602002602001019060048111156129d4576129d3615279565b5b908160048111156129e8576129e7615279565b5b815250506129f46142f1565b81602001515f81518110612a0b57612a0a614f6d565b5b6020026020010181905250612ad160028054612a269061512d565b80601f0160208091040260200160405190810160405280929190818152602001828054612a529061512d565b8015612a9d5780601f10612a7457610100808354040283529160200191612a9d565b820191905f5260205f20905b815481529060010190602001808311612a8057829003601f168201915b5050505050612aab30614307565b8a604051602001612abd9291906152de565b604051602081830303815290604052614334565b8160200151600181518110612ae957612ae8614f6d565b5b6020026020010181905250612b263063ce914f7360e01b604051602001612b109190615346565b604051602081830303815290604052835f614360565b8260070181905550505b5f6064600534612b409190615024565b612b4a9190614ff4565b90505f60055f3373ffffffffffffffffffffffffffffffffffffffff1673ffffffffffffffffffffffffffffffffffffffff1681526020019081526020015f2060010190505f836006015f3373ffffffffffffffffffffffffffffffffffffffff1673ffffffffffffffffffffffffffffffffffffffff1681526020019081526020015f2090505f8460050190505f8054906101000a900473ffffffffffffffffffffffffffffffffffffffff1673ffffffffffffffffffffffffffffffffffffffff166108fc8590811502906040515f60405180830381858888f19350505050158015612c3a573d5f803e3d5ffd5b508334612c479190615065565b60055f3373ffffffffffffffffffffffffffffffffffffffff1673ffffffffffffffffffffffffffffffffffffffff1681526020019081526020015f205f015f828254612c94919061535f565b92505081905550826040518060e001604052803373ffffffffffffffffffffffffffffffffffffffff1681526020018634612ccf9190615065565b81526020018c81526020018d81526020016040518060400160405280600c81526020017f506f696e74205370726561640000000000000000000000000000000000000000815250815260200142815260200160011515815250908060018154018082558091505060019003905f5260205f2090600702015f909190919091505f820151815f015f6101000a81548173ffffffffffffffffffffffffffffffffffffffff021916908373ffffffffffffffffffffffffffffffffffffffff1602179055506020820151816001015560408201518160020155606082015181600301556080820151816004019081612dc59190615514565b5060a0820151816005015560c0820151816006015f6101000a81548160ff02191690831515021790555050503460065f8d81526020019081526020015f205f828254612e11919061535f565b925050819055503460075f8d81526020019081526020015f205f8c81526020019081526020015f205f828254612e47919061535f565b925050819055508334612e5a9190615065565b856001015f828254612e6c919061535f565b925050819055508334612e7f9190615065565b856002015f8c81526020019081526020015f205f828254612ea0919061535f565b9250508190555088856003018190555087856004018190555086855f015f3373ffffffffffffffffffffffffffffffffffffffff1673ffffffffffffffffffffffffffffffffffffffff1681526020019081526020015f20819055508033908060018154018082558091505060019003905f5260205f20015f9091909190916101000a81548173ffffffffffffffffffffffffffffffffffffffff021916908373ffffffffffffffffffffffffffffffffffffffff16021790555033825f015f6101000a81548173ffffffffffffffffffffffffffffffffffffffff021916908373ffffffffffffffffffffffffffffffffffffffff1602179055508334612fa89190615065565b826001015f828254612fba919061535f565b925050819055508982600201819055508a82600301819055506040518060400160405280600c81526020017f506f696e742053707265616400000000000000000000000000000000000000008152508260040190816130199190615514565b504282600501819055506001826006015f6101000a81548160ff0219169083151502179055505050505050505050505050565b7f000000000000000000000000000000000000000000000000000000000000000073ffffffffffffffffffffffffffffffffffffffff163373ffffffffffffffffffffffffffffffffffffffff16146130da576040517f08c379a00000000000000000000000000000000000000000000000000000000081526004016130d190614f4f565b60405180910390fd5b60605f805f5b60095f8a81526020019081526020015f20600501805490508110156135b5575f60095f8b81526020019081526020015f20600501828154811061312657613125614f6d565b5b905f5260205f20015f9054906101000a900473ffffffffffffffffffffffffffffffffffffffff1690505f60095f8c81526020019081526020015f206006015f8373ffffffffffffffffffffffffffffffffffffffff1673ffffffffffffffffffffffffffffffffffffffff1681526020019081526020015f206001015490505f60095f8d81526020019081526020015f205f015f8473ffffffffffffffffffffffffffffffffffffffff1673ffffffffffffffffffffffffffffffffffffffff1681526020019081526020015f205490508860095f8e81526020019081526020015f206006015f8573ffffffffffffffffffffffffffffffffffffffff1673ffffffffffffffffffffffffffffffffffffffff1681526020019081526020015f206002015414801561327b5750600a8a6132619190615641565b81600a8d61326f9190615641565b61327991906156b7565b135b801561328d575061328b83610e39565b155b1561330157828786815181106132a6576132a5614f6d565b5b602002602001019073ffffffffffffffffffffffffffffffffffffffff16908173ffffffffffffffffffffffffffffffffffffffff168152505084806132eb90615205565b95505081866132fa919061535f565b9550613407565b8760095f8e81526020019081526020015f206006015f8573ffffffffffffffffffffffffffffffffffffffff1673ffffffffffffffffffffffffffffffffffffffff1681526020019081526020015f20600201541480156133845750600a8b61336a9190615641565b81600a8c6133789190615641565b61338291906156b7565b135b8015613396575061339483610e39565b155b1561340657828786815181106133af576133ae614f6d565b5b602002602001019073ffffffffffffffffffffffffffffffffffffffff16908173ffffffffffffffffffffffffffffffffffffffff168152505084806133f490615205565b9550508186613403919061535f565b95505b5b8160055f8573ffffffffffffffffffffffffffffffffffffffff1673ffffffffffffffffffffffffffffffffffffffff1681526020019081526020015f205f015f8282546134559190615065565b925050819055505f5b60055f8573ffffffffffffffffffffffffffffffffffffffff1673ffffffffffffffffffffffffffffffffffffffff1681526020019081526020015f206001018054905081101561359e575f60055f8673ffffffffffffffffffffffffffffffffffffffff1673ffffffffffffffffffffffffffffffffffffffff1681526020019081526020015f2060010182815481106134fc576134fb614f6d565b5b905f5260205f20906007020190508d8160030154148015613569575060405160200161352790615742565b604051602081830303815290604052805190602001208160040160405160200161355191906151ef565b60405160208183030381529060405280519060200120145b1561358a575f816006015f6101000a81548160ff0219169083151502179055505b50808061359690615205565b91505061345e565b5050505080806135ad90615205565b9150506130e0565b505f5b83518110156136d2575f60095f8b81526020019081526020015f206006015f8684815181106135ea576135e9614f6d565b5b602002602001015173ffffffffffffffffffffffffffffffffffffffff1673ffffffffffffffffffffffffffffffffffffffff1681526020019081526020015f206001015490505f848261363e9190614ff4565b905085838151811061365357613652614f6d565b5b602002602001015173ffffffffffffffffffffffffffffffffffffffff166108fc8260095f8f81526020019081526020015f20600101546136949190615024565b90811502906040515f60405180830381858888f193505050501580156136bc573d5f803e3d5ffd5b50505080806136ca90615205565b9150506135b8565b505050505050505050565b5f60095f8481526020019081526020015f206002015f8381526020019081526020015f2054905092915050565b3273ffffffffffffffffffffffffffffffffffffffff163373ffffffffffffffffffffffffffffffffffffffff1614613741575f80fd5b805f1061374c575f80fd5b61375533610e39565b1561375e575f80fd5b5f3411613769575f80fd5b5f60085f8781526020019081526020015f2090505f80191660085f8881526020019081526020015f206006015403613a23575f6040518060400160405280600267ffffffffffffffff8111156137c2576137c161524c565b5b6040519080825280602002602001820160405280156137f05781602001602082028036833780820191505090505b508152602001600267ffffffffffffffff8111156138115761381061524c565b5b60405190808252806020026020018201604052801561384457816020015b606081526020019060019003908161382f5790505b5081525090506002815f01515f8151811061386257613861614f6d565b5b6020026020010190600481111561387c5761387b615279565b5b908160048111156138905761388f615279565b5b815250506004815f01516001815181106138ad576138ac614f6d565b5b602002602001019060048111156138c7576138c6615279565b5b908160048111156138db576138da615279565b5b815250506138e76142f1565b81602001515f815181106138fe576138fd614f6d565b5b60200260200101819052506139c4600180546139199061512d565b80601f01602080910402602001604051908101604052809291908181526020018280546139459061512d565b80156139905780601f1061396757610100808354040283529160200191613990565b820191905f5260205f20905b81548152906001019060200180831161397357829003601f168201915b505050505061399e30614307565b896040516020016139b09291906152de565b604051602081830303815290604052614334565b81602001516001815181106139dc576139db614f6d565b5b6020026020010181905250613a19306303bfeb2060e01b604051602001613a039190615346565b604051602081830303815290604052835f614360565b8260060181905550505b5f6064600534613a339190615024565b613a3d9190614ff4565b90505f60055f3373ffffffffffffffffffffffffffffffffffffffff1673ffffffffffffffffffffffffffffffffffffffff1681526020019081526020015f2060010190505f836005015f8981526020019081526020015f205f3373ffffffffffffffffffffffffffffffffffffffff1673ffffffffffffffffffffffffffffffffffffffff1681526020019081526020015f2090505f846004015f8a81526020019081526020015f2090505f8054906101000a900473ffffffffffffffffffffffffffffffffffffffff1673ffffffffffffffffffffffffffffffffffffffff166108fc8590811502906040515f60405180830381858888f19350505050158015613b4b573d5f803e3d5ffd5b508334613b589190615065565b60055f3373ffffffffffffffffffffffffffffffffffffffff1673ffffffffffffffffffffffffffffffffffffffff1681526020019081526020015f205f015f828254613ba5919061535f565b92505081905550826040518060e001604052803373ffffffffffffffffffffffffffffffffffffffff1681526020018634613be09190615065565b81526020018b81526020018c81526020016040518060400160405280600a81526020017f4d6f6e6579204c696e6500000000000000000000000000000000000000000000815250815260200142815260200160011515815250908060018154018082558091505060019003905f5260205f2090600702015f909190919091505f820151815f015f6101000a81548173ffffffffffffffffffffffffffffffffffffffff021916908373ffffffffffffffffffffffffffffffffffffffff1602179055506020820151816001015560408201518160020155606082015181600301556080820151816004019081613cd69190615514565b5060a0820151816005015560c0820151816006015f6101000a81548160ff02191690831515021790555050503460065f8c81526020019081526020015f205f828254613d22919061535f565b925050819055503460075f8c81526020019081526020015f205f8b81526020019081526020015f205f828254613d58919061535f565b925050819055508334613d6b9190615065565b855f015f828254613d7c919061535f565b925050819055508334613d8f9190615065565b856001015f8b81526020019081526020015f205f828254613db0919061535f565b925050819055508785600201819055508685600301819055503373ffffffffffffffffffffffffffffffffffffffff1660085f8c81526020019081526020015f206005015f8b81526020019081526020015f205f3373ffffffffffffffffffffffffffffffffffffffff1673ffffffffffffffffffffffffffffffffffffffff1681526020019081526020015f205f015f9054906101000a900473ffffffffffffffffffffffffffffffffffffffff1673ffffffffffffffffffffffffffffffffffffffff1614613edb578033908060018154018082558091505060019003905f5260205f20015f9091909190916101000a81548173ffffffffffffffffffffffffffffffffffffffff021916908373ffffffffffffffffffffffffffffffffffffffff1602179055505b33825f015f6101000a81548173ffffffffffffffffffffffffffffffffffffffff021916908373ffffffffffffffffffffffffffffffffffffffff1602179055508334613f289190615065565b826001015f828254613f3a919061535f565b925050819055508882600201819055508982600301819055506040518060400160405280600a81526020017f4d6f6e6579204c696e6500000000000000000000000000000000000000000000815250826004019081613f999190615514565b504282600501819055506001826006015f6101000a81548160ff02191690831515021790555050505050505050505050565b5f8060075f8581526020019081526020015f205f8481526020019081526020015f205490505f60065f8681526020019081526020015f20549050806064836140139190615024565b61401d9190614ff4565b9250505092915050565b5f600a5f8381526020019081526020015f20600101549050919050565b73eeeeeeeeeeeeeeeeeeeeeeeeeeeeeeeeeeeeeeee73ffffffffffffffffffffffffffffffffffffffff168273ffffffffffffffffffffffffffffffffffffffff160361414f57600546146140ce576040517f08c379a00000000000000000000000000000000000000000000000000000000081526004016140c5906157a0565b60405180910390fd5b737506c12a824d73d9b08564d5afc22c949434755e73ffffffffffffffffffffffffffffffffffffffff166333bb7f9184836040518363ffffffff1660e01b815260040161411c919061472f565b5f604051808303818588803b158015614133575f80fd5b505af1158015614145573d5f803e3d5ffd5b50505050506142ec565b60894614801561419e5750732791bca1f2de4661ed88a30c99a7a9449aa8417473ffffffffffffffffffffffffffffffffffffffff168273ffffffffffffffffffffffffffffffffffffffff16145b6141dd576040517f08c379a00000000000000000000000000000000000000000000000000000000081526004016141d490615808565b60405180910390fd5b8173ffffffffffffffffffffffffffffffffffffffff1663095ea7b3737506c12a824d73d9b08564d5afc22c949434755e856040518363ffffffff1660e01b815260040161422c929190615826565b6020604051808303815f875af1158015614248573d5f803e3d5ffd5b505050506040513d601f19601f8201168201806040525081019061426c9190615877565b50737506c12a824d73d9b08564d5afc22c949434755e73ffffffffffffffffffffffffffffffffffffffff1663fb0f97a88284866040518463ffffffff1660e01b81526004016142be939291906158a2565b5f604051808303815f87803b1580156142d5575f80fd5b505af11580156142e7573d5f803e3d5ffd5b505050505b505050565b606060405180602001604052805f815250905090565b606061432d8273ffffffffffffffffffffffffffffffffffffffff16601460ff1661440a565b9050919050565b60608282604051602001614349929190615929565b604051602081830303815290604052905092915050565b5f7f000000000000000000000000000000000000000000000000000000000000000073ffffffffffffffffffffffffffffffffffffffff16633323b467868686866040518563ffffffff1660e01b81526004016143c09493929190615b90565b6020604051808303815f875af11580156143dc573d5f803e3d5ffd5b505050506040513d601f19601f820116820180604052508101906144009190615c0b565b9050949350505050565b60605f600283600261441c9190615024565b614426919061535f565b67ffffffffffffffff81111561443f5761443e61524c565b5b6040519080825280601f01601f1916602001820160405280156144715781602001600182028036833780820191505090505b5090507f3000000000000000000000000000000000000000000000000000000000000000815f815181106144a8576144a7614f6d565b5b60200101907effffffffffffffffffffffffffffffffffffffffffffffffffffffffffffff191690815f1a9053507f78000000000000000000000000000000000000000000000000000000000000008160018151811061450b5761450a614f6d565b5b60200101907effffffffffffffffffffffffffffffffffffffffffffffffffffffffffffff191690815f1a9053505f60018460026145499190615024565b614553919061535f565b90505b60018111156145f2577f3031323334353637383961626364656600000000000000000000000000000000600f86166010811061459557614594614f6d565b5b1a60f81b8282815181106145ac576145ab614f6d565b5b60200101907effffffffffffffffffffffffffffffffffffffffffffffffffffffffffffff191690815f1a905350600485901c9450806145eb90615c36565b9050614556565b505f8414614635576040517f08c379a000000000000000000000000000000000000000000000000000000000815260040161462c90615ca7565b60405180910390fd5b8091505092915050565b6040518060e001604052805f73ffffffffffffffffffffffffffffffffffffffff1681526020015f81526020015f81526020015f8152602001606081526020015f81526020015f151581525090565b5f80fd5b5f819050919050565b6146a481614692565b81146146ae575f80fd5b50565b5f813590506146bf8161469b565b92915050565b5f602082840312156146da576146d961468e565b5b5f6146e7848285016146b1565b91505092915050565b5f73ffffffffffffffffffffffffffffffffffffffff82169050919050565b5f614719826146f0565b9050919050565b6147298161470f565b82525050565b5f6020820190506147425f830184614720565b92915050565b5f805f6060848603121561475f5761475e61468e565b5b5f61476c868287016146b1565b935050602061477d868287016146b1565b925050604061478e868287016146b1565b9150509250925092565b5f819050919050565b5f6147bb6147b66147b1846146f0565b614798565b6146f0565b9050919050565b5f6147cc826147a1565b9050919050565b5f6147dd826147c2565b9050919050565b6147ed816147d3565b82525050565b5f6020820190506148065f8301846147e4565b92915050565b6148158161470f565b811461481f575f80fd5b50565b5f813590506148308161480c565b92915050565b5f6020828403121561484b5761484a61468e565b5b5f61485884828501614822565b91505092915050565b5f8115159050919050565b61487581614861565b82525050565b5f60208201905061488e5f83018461486c565b92915050565b61489d81614692565b82525050565b5f6020820190506148b65f830184614894565b92915050565b5f819050919050565b6148ce816148bc565b82525050565b5f6080820190506148e75f830187614894565b6148f46020830186614894565b6149016040830185614894565b61490e60608301846148c5565b95945050505050565b5f806040838503121561492d5761492c61468e565b5b5f61493a858286016146b1565b925050602061494b858286016146b1565b9150509250929050565b5f805f6060848603121561496c5761496b61468e565b5b5f614979868287016146b1565b935050602061498a86828701614822565b925050604061499b86828701614822565b9150509250925092565b5f81519050919050565b5f82825260208201905092915050565b5f819050602082019050919050565b6149d78161470f565b82525050565b6149e681614692565b82525050565b5f81519050919050565b5f82825260208201905092915050565b5f5b83811015614a23578082015181840152602081019050614a08565b5f8484015250505050565b5f601f19601f8301169050919050565b5f614a48826149ec565b614a5281856149f6565b9350614a62818560208601614a06565b614a6b81614a2e565b840191505092915050565b614a7f81614861565b82525050565b5f60e083015f830151614a9a5f8601826149ce565b506020830151614aad60208601826149dd565b506040830151614ac060408601826149dd565b506060830151614ad360608601826149dd565b5060808301518482036080860152614aeb8282614a3e565b91505060a0830151614b0060a08601826149dd565b5060c0830151614b1360c0860182614a76565b508091505092915050565b5f614b298383614a85565b905092915050565b5f602082019050919050565b5f614b47826149a5565b614b5181856149af565b935083602082028501614b63856149bf565b805f5b85811015614b9e5784840389528151614b7f8582614b1e565b9450614b8a83614b31565b925060208a01995050600181019050614b66565b50829750879550505050505092915050565b5f6020820190508181035f830152614bc88184614b3d565b905092915050565b5f60e083015f830151614be55f8601826149ce565b506020830151614bf860208601826149dd565b506040830151614c0b60408601826149dd565b506060830151614c1e60608601826149dd565b5060808301518482036080860152614c368282614a3e565b91505060a0830151614c4b60a08601826149dd565b5060c0830151614c5e60c0860182614a76565b508091505092915050565b5f6020820190508181035f830152614c818184614bd0565b905092915050565b5f614c93826147c2565b9050919050565b614ca381614c89565b82525050565b5f602082019050614cbc5f830184614c9a565b92915050565b5f805f805f8060c08789031215614cdc57614cdb61468e565b5b5f614ce989828a016146b1565b9650506020614cfa89828a016146b1565b9550506040614d0b89828a016146b1565b9450506060614d1c89828a016146b1565b9350506080614d2d89828a016146b1565b92505060a0614d3e89828a016146b1565b9150509295509295509295565b5f819050919050565b614d5d81614d4b565b8114614d67575f80fd5b50565b5f81359050614d7881614d54565b92915050565b5f805f805f8060c08789031215614d9857614d9761468e565b5b5f614da589828a016146b1565b9650506020614db689828a016146b1565b9550506040614dc789828a016146b1565b9450506060614dd889828a016146b1565b9350506080614de989828a01614d6a565b92505060a0614dfa89828a016146b1565b9150509295509295509295565b5f805f805f60a08688031215614e2057614e1f61468e565b5b5f614e2d888289016146b1565b9550506020614e3e88828901614d6a565b9450506040614e4f88828901614d6a565b9350506060614e60888289016146b1565b9250506080614e71888289016146b1565b9150509295509295909350565b5f805f805f60a08688031215614e9757614e9661468e565b5b5f614ea4888289016146b1565b9550506020614eb5888289016146b1565b9450506040614ec6888289016146b1565b9350506060614ed7888289016146b1565b9250506080614ee8888289016146b1565b9150509295509295909350565b5f82825260208201905092915050565b7f4f6e6c7920646564696361746564206d73672e73656e646572000000000000005f82015250565b5f614f39601983614ef5565b9150614f4482614f05565b602082019050919050565b5f6020820190508181035f830152614f6681614f2d565b9050919050565b7f4e487b71000000000000000000000000000000000000000000000000000000005f52603260045260245ffd5b7f4e487b71000000000000000000000000000000000000000000000000000000005f52601260045260245ffd5b7f4e487b71000000000000000000000000000000000000000000000000000000005f52601160045260245ffd5b5f614ffe82614692565b915061500983614692565b92508261501957615018614f9a565b5b828204905092915050565b5f61502e82614692565b915061503983614692565b925082820261504781614692565b9150828204841483151761505e5761505d614fc7565b5b5092915050565b5f61506f82614692565b915061507a83614692565b925082820390508181111561509257615091614fc7565b5b92915050565b5f81905092915050565b7f4d6f6e6579204c696e65000000000000000000000000000000000000000000005f82015250565b5f6150d6600a83615098565b91506150e1826150a2565b600a82019050919050565b5f6150f6826150ca565b9150819050919050565b7f4e487b71000000000000000000000000000000000000000000000000000000005f52602260045260245ffd5b5f600282049050600182168061514457607f821691505b60208210810361515757615156615100565b5b50919050565b5f819050815f5260205f209050919050565b5f815461517b8161512d565b6151858186615098565b9450600182165f811461519f57600181146151b4576151e6565b60ff19831686528115158202860193506151e6565b6151bd8561515d565b5f5b838110156151de578154818901526001820191506020810190506151bf565b838801955050505b50505092915050565b5f6151fa828461516f565b915081905092915050565b5f61520f82614692565b91507fffffffffffffffffffffffffffffffffffffffffffffffffffffffffffffffff820361524157615240614fc7565b5b600182019050919050565b7f4e487b71000000000000000000000000000000000000000000000000000000005f52604160045260245ffd5b7f4e487b71000000000000000000000000000000000000000000000000000000005f52602160045260245ffd5b5f6152b0826149ec565b6152ba8185614ef5565b93506152ca818560208601614a06565b6152d381614a2e565b840191505092915050565b5f6040820190508181035f8301526152f681856152a6565b90506153056020830184614894565b9392505050565b5f7fffffffff0000000000000000000000000000000000000000000000000000000082169050919050565b6153408161530c565b82525050565b5f6020820190506153595f830184615337565b92915050565b5f61536982614692565b915061537483614692565b925082820190508082111561538c5761538b614fc7565b5b92915050565b5f6020601f8301049050919050565b5f82821b905092915050565b5f600883026153dc7fffffffffffffffffffffffffffffffffffffffffffffffffffffffffffffffff826153a1565b6153e686836153a1565b95508019841693508086168417925050509392505050565b5f61541861541361540e84614692565b614798565b614692565b9050919050565b5f819050919050565b615431836153fe565b61544561543d8261541f565b8484546153ad565b825550505050565b5f90565b61545961544d565b615464818484615428565b505050565b5b818110156154875761547c5f82615451565b60018101905061546a565b5050565b601f8211156154cc5761549d8161515d565b6154a684615392565b810160208510156154b5578190505b6154c96154c185615392565b830182615469565b50505b505050565b5f82821c905092915050565b5f6154ec5f19846008026154d1565b1980831691505092915050565b5f61550483836154dd565b9150826002028217905092915050565b61551d826149ec565b67ffffffffffffffff8111156155365761553561524c565b5b615540825461512d565b61554b82828561548b565b5f60209050601f83116001811461557c575f841561556a578287015190505b61557485826154f9565b8655506155db565b601f19841661558a8661515d565b5f5b828110156155b15784890151825560018201915060208501945060208101905061558c565b868310156155ce57848901516155ca601f8916826154dd565b8355505b6001600288020188555050505b505050505050565b7f506f696e7420546f74616c0000000000000000000000000000000000000000005f82015250565b5f615617600b83615098565b9150615622826155e3565b600b82019050919050565b5f6156378261560b565b9150819050919050565b5f61564b82614d4b565b915061565683614d4b565b925082820261566481614d4b565b91507f800000000000000000000000000000000000000000000000000000000000000084145f8412161561569b5761569a614fc7565b5b82820584148315176156b0576156af614fc7565b5b5092915050565b5f6156c182614d4b565b91506156cc83614d4b565b92508282019050828112155f8312168382125f8412151617156156f2576156f1614fc7565b5b92915050565b7f506f696e742053707265616400000000000000000000000000000000000000005f82015250565b5f61572c600c83615098565b9150615737826156f8565b600c82019050919050565b5f61574c82615720565b9150819050919050565b7f4f6e6c79206465706f73697420455448206f6e20676f65726c690000000000005f82015250565b5f61578a601a83614ef5565b915061579582615756565b602082019050919050565b5f6020820190508181035f8301526157b78161577e565b9050919050565b7f4f6e6c79206465706f7369742055534443206f6e20706f6c79676f6e000000005f82015250565b5f6157f2601c83614ef5565b91506157fd826157be565b602082019050919050565b5f6020820190508181035f83015261581f816157e6565b9050919050565b5f6040820190506158395f830185614720565b6158466020830184614894565b9392505050565b61585681614861565b8114615860575f80fd5b50565b5f815190506158718161584d565b92915050565b5f6020828403121561588c5761588b61468e565b5b5f61589984828501615863565b91505092915050565b5f6060820190506158b55f830186614720565b6158c26020830185614720565b6158cf6040830184614894565b949350505050565b5f81519050919050565b5f82825260208201905092915050565b5f6158fb826158d7565b61590581856158e1565b9350615915818560208601614a06565b61591e81614a2e565b840191505092915050565b5f6040820190508181035f83015261594181856152a6565b9050818103602083015261595581846158f1565b90509392505050565b5f81519050919050565b5f82825260208201905092915050565b5f819050602082019050919050565b6005811061599857615997615279565b5b50565b5f8190506159a882615987565b919050565b5f6159b78261599b565b9050919050565b6159c7816159ad565b82525050565b5f6159d883836159be565b60208301905092915050565b5f602082019050919050565b5f6159fa8261595e565b615a048185615968565b9350615a0f83615978565b805f5b83811015615a3f578151615a2688826159cd565b9750615a31836159e4565b925050600181019050615a12565b5085935050505092915050565b5f81519050919050565b5f82825260208201905092915050565b5f819050602082019050919050565b5f82825260208201905092915050565b5f615a8f826158d7565b615a998185615a75565b9350615aa9818560208601614a06565b615ab281614a2e565b840191505092915050565b5f615ac88383615a85565b905092915050565b5f602082019050919050565b5f615ae682615a4c565b615af08185615a56565b935083602082028501615b0285615a66565b805f5b85811015615b3d5784840389528151615b1e8582615abd565b9450615b2983615ad0565b925060208a01995050600181019050615b05565b50829750879550505050505092915050565b5f604083015f8301518482035f860152615b6982826159f0565b91505060208301518482036020860152615b838282615adc565b9150508091505092915050565b5f608082019050615ba35f830187614720565b8181036020830152615bb581866158f1565b90508181036040830152615bc98185615b4f565b9050615bd86060830184614720565b95945050505050565b615bea816148bc565b8114615bf4575f80fd5b50565b5f81519050615c0581615be1565b92915050565b5f60208284031215615c2057615c1f61468e565b5b5f615c2d84828501615bf7565b91505092915050565b5f615c4082614692565b91505f8203615c5257615c51614fc7565b5b600182039050919050565b7f537472696e67733a20686578206c656e67746820696e73756666696369656e745f82015250565b5f615c91602083614ef5565b9150615c9c82615c5d565b602082019050919050565b5f6020820190508181035f830152615cbe81615c85565b905091905056fea264697066735822122014f7f6aed45db9d0b1d9ffd855556239e8fa3459d3147fd41ea6b88204397d2264736f6c63430008150033",
  "linkReferences": {},
  "deployedLinkReferences": {}
}