{
  "_format": "hh-sol-artifact-1",
  "contractName": "Bet",
  "sourceName": "contracts/Bet.sol",
  "abi": [
    {
      "inputs": [
        {
          "internalType": "string",
          "name": "_moneyLineFunctionHash",
          "type": "string"
        },
        {
          "internalType": "string",
          "name": "_pointTotalFunctionHash",
          "type": "string"
        },
        {
          "internalType": "string",
          "name": "_pointSpreadFunctionHash",
          "type": "string"
        }
      ],
      "stateMutability": "nonpayable",
      "type": "constructor"
    },
    {
      "inputs": [],
      "name": "automate",
      "outputs": [
        {
          "internalType": "contract IAutomate",
          "name": "",
          "type": "address"
        }
      ],
      "stateMutability": "view",
      "type": "function"
    },
    {
      "inputs": [
        {
          "internalType": "address",
          "name": "user",
          "type": "address"
        }
      ],
      "name": "blockUser",
      "outputs": [],
      "stateMutability": "nonpayable",
      "type": "function"
    },
    {
      "inputs": [
        {
          "internalType": "uint256",
          "name": "",
          "type": "uint256"
        }
      ],
      "name": "blockedUsers",
      "outputs": [
        {
          "internalType": "address",
          "name": "",
          "type": "address"
        }
      ],
      "stateMutability": "view",
      "type": "function"
    },
    {
      "inputs": [],
      "name": "checkSender",
      "outputs": [
        {
          "internalType": "bool",
          "name": "",
          "type": "bool"
        }
      ],
      "stateMutability": "view",
      "type": "function"
    },
    {
      "inputs": [],
      "name": "dedicatedMsgSender",
      "outputs": [
        {
          "internalType": "address",
          "name": "",
          "type": "address"
        }
      ],
      "stateMutability": "view",
      "type": "function"
    },
    {
      "inputs": [],
      "name": "deposit",
      "outputs": [],
      "stateMutability": "payable",
      "type": "function"
    },
    {
      "inputs": [],
      "name": "fundsOwner",
      "outputs": [
        {
          "internalType": "address",
          "name": "",
          "type": "address"
        }
      ],
      "stateMutability": "view",
      "type": "function"
    },
    {
      "inputs": [],
      "name": "gelato1Balance",
      "outputs": [
        {
          "internalType": "contract IGelato1Balance",
          "name": "",
          "type": "address"
        }
      ],
      "stateMutability": "view",
      "type": "function"
    },
    {
      "inputs": [
        {
          "internalType": "uint256",
          "name": "",
          "type": "uint256"
        }
      ],
      "name": "home_team_score",
      "outputs": [
        {
          "internalType": "uint256",
          "name": "",
          "type": "uint256"
        }
      ],
      "stateMutability": "view",
      "type": "function"
    },
    {
      "inputs": [
        {
          "internalType": "uint256",
          "name": "gameID",
          "type": "uint256"
        },
        {
          "internalType": "uint256",
          "name": "teamID",
          "type": "uint256"
        },
        {
          "internalType": "uint256",
          "name": "homeTeamID",
          "type": "uint256"
        },
        {
          "internalType": "uint256",
          "name": "awayTeamID",
          "type": "uint256"
        },
        {
          "internalType": "uint256",
          "name": "startTime",
          "type": "uint256"
        },
        {
          "internalType": "bytes",
          "name": "_web3FunctionArgsHex",
          "type": "bytes"
        }
      ],
      "name": "moneyLineBet",
      "outputs": [],
      "stateMutability": "payable",
      "type": "function"
    },
    {
      "inputs": [
        {
          "internalType": "uint256",
          "name": "",
          "type": "uint256"
        }
      ],
      "name": "newMoneyLineBet",
      "outputs": [
        {
          "internalType": "uint256",
          "name": "total",
          "type": "uint256"
        },
        {
          "internalType": "uint256",
          "name": "homeTeamID",
          "type": "uint256"
        },
        {
          "internalType": "uint256",
          "name": "awayTeamID",
          "type": "uint256"
        },
        {
          "internalType": "bytes32",
          "name": "taskID",
          "type": "bytes32"
        }
      ],
      "stateMutability": "view",
      "type": "function"
    },
    {
      "inputs": [
        {
          "internalType": "uint256",
          "name": "",
          "type": "uint256"
        }
      ],
      "name": "newPointSpreadBet",
      "outputs": [
        {
          "internalType": "uint256",
          "name": "total",
          "type": "uint256"
        },
        {
          "internalType": "uint256",
          "name": "homeTeamID",
          "type": "uint256"
        },
        {
          "internalType": "uint256",
          "name": "awayTeamID",
          "type": "uint256"
        },
        {
          "internalType": "bytes32",
          "name": "taskID",
          "type": "bytes32"
        }
      ],
      "stateMutability": "view",
      "type": "function"
    },
    {
      "inputs": [
        {
          "internalType": "uint256",
          "name": "",
          "type": "uint256"
        }
      ],
      "name": "newPointTotalBet",
      "outputs": [
        {
          "internalType": "uint256",
          "name": "total",
          "type": "uint256"
        },
        {
          "internalType": "uint256",
          "name": "homeTeamID",
          "type": "uint256"
        },
        {
          "internalType": "uint256",
          "name": "awayTeamID",
          "type": "uint256"
        },
        {
          "internalType": "bytes32",
          "name": "taskID",
          "type": "bytes32"
        }
      ],
      "stateMutability": "view",
      "type": "function"
    },
    {
      "inputs": [
        {
          "internalType": "uint256",
          "name": "gameID",
          "type": "uint256"
        },
        {
          "internalType": "uint256",
          "name": "teamID",
          "type": "uint256"
        },
        {
          "internalType": "uint256",
          "name": "homeTeamID",
          "type": "uint256"
        },
        {
          "internalType": "uint256",
          "name": "awayTeamID",
          "type": "uint256"
        },
        {
          "internalType": "int256",
          "name": "spread",
          "type": "int256"
        },
        {
          "internalType": "uint256",
          "name": "startTime",
          "type": "uint256"
        },
        {
          "internalType": "bytes",
          "name": "_web3FunctionArgsHex",
          "type": "bytes"
        }
      ],
      "name": "pointSpreadBet",
      "outputs": [],
      "stateMutability": "payable",
      "type": "function"
    },
    {
      "inputs": [
        {
          "internalType": "uint256",
          "name": "gameID",
          "type": "uint256"
        },
        {
          "internalType": "uint256",
          "name": "homeTeamID",
          "type": "uint256"
        },
        {
          "internalType": "uint256",
          "name": "awayTeamID",
          "type": "uint256"
        },
        {
          "internalType": "uint256",
          "name": "pointAmount",
          "type": "uint256"
        },
        {
          "internalType": "uint256",
          "name": "startTime",
          "type": "uint256"
        },
        {
          "internalType": "bytes",
          "name": "_web3FunctionArgsHex",
          "type": "bytes"
        }
      ],
      "name": "pointTotalBet",
      "outputs": [],
      "stateMutability": "payable",
      "type": "function"
    },
    {
      "inputs": [],
      "name": "returnEscrow",
      "outputs": [
        {
          "internalType": "uint256",
          "name": "data",
          "type": "uint256"
        }
      ],
      "stateMutability": "view",
      "type": "function"
    },
    {
      "inputs": [
        {
          "internalType": "uint256",
          "name": "gameID",
          "type": "uint256"
        },
        {
          "internalType": "uint256",
          "name": "teamID",
          "type": "uint256"
        }
      ],
      "name": "returnMoneyLineBetReceipt",
      "outputs": [
        {
          "components": [
            {
              "internalType": "address",
              "name": "addr",
              "type": "address"
            },
            {
              "internalType": "uint256",
              "name": "amount",
              "type": "uint256"
            },
            {
              "internalType": "uint256",
              "name": "teamID",
              "type": "uint256"
            },
            {
              "internalType": "uint256",
              "name": "gameID",
              "type": "uint256"
            },
            {
              "internalType": "string",
              "name": "betType",
              "type": "string"
            },
            {
              "internalType": "uint256",
              "name": "time",
              "type": "uint256"
            },
            {
              "internalType": "bool",
              "name": "active",
              "type": "bool"
            }
          ],
          "internalType": "struct Bet.Transaction",
          "name": "data",
          "type": "tuple"
        }
      ],
      "stateMutability": "view",
      "type": "function"
    },
    {
      "inputs": [
        {
          "internalType": "uint256",
          "name": "gameID",
          "type": "uint256"
        },
        {
          "internalType": "uint256",
          "name": "teamID",
          "type": "uint256"
        }
      ],
      "name": "returnMoneyLineBetTotal",
      "outputs": [
        {
          "internalType": "uint256",
          "name": "data",
          "type": "uint256"
        }
      ],
      "stateMutability": "view",
      "type": "function"
    },
    {
      "inputs": [
        {
          "internalType": "uint256",
          "name": "gameID",
          "type": "uint256"
        },
        {
          "internalType": "uint256",
          "name": "bettingTeamID",
          "type": "uint256"
        }
      ],
      "name": "returnOdds",
      "outputs": [
        {
          "internalType": "uint256",
          "name": "odds",
          "type": "uint256"
        }
      ],
      "stateMutability": "view",
      "type": "function"
    },
    {
      "inputs": [
        {
          "internalType": "uint256",
          "name": "gameID",
          "type": "uint256"
        }
      ],
      "name": "returnPointSpreadBetReceipt",
      "outputs": [
        {
          "components": [
            {
              "internalType": "address",
              "name": "addr",
              "type": "address"
            },
            {
              "internalType": "uint256",
              "name": "amount",
              "type": "uint256"
            },
            {
              "internalType": "uint256",
              "name": "teamID",
              "type": "uint256"
            },
            {
              "internalType": "uint256",
              "name": "gameID",
              "type": "uint256"
            },
            {
              "internalType": "string",
              "name": "betType",
              "type": "string"
            },
            {
              "internalType": "uint256",
              "name": "time",
              "type": "uint256"
            },
            {
              "internalType": "bool",
              "name": "active",
              "type": "bool"
            }
          ],
          "internalType": "struct Bet.Transaction",
          "name": "data",
          "type": "tuple"
        }
      ],
      "stateMutability": "view",
      "type": "function"
    },
    {
      "inputs": [
        {
          "internalType": "uint256",
          "name": "gameID",
          "type": "uint256"
        },
        {
          "internalType": "uint256",
          "name": "teamID",
          "type": "uint256"
        }
      ],
      "name": "returnPointSpreadBetTotal",
      "outputs": [
        {
          "internalType": "uint256",
          "name": "data",
          "type": "uint256"
        }
      ],
      "stateMutability": "view",
      "type": "function"
    },
    {
      "inputs": [
        {
          "internalType": "uint256",
          "name": "gameID",
          "type": "uint256"
        }
      ],
      "name": "returnPointTotalBetReceipt",
      "outputs": [
        {
          "components": [
            {
              "internalType": "address",
              "name": "addr",
              "type": "address"
            },
            {
              "internalType": "uint256",
              "name": "amount",
              "type": "uint256"
            },
            {
              "internalType": "uint256",
              "name": "teamID",
              "type": "uint256"
            },
            {
              "internalType": "uint256",
              "name": "gameID",
              "type": "uint256"
            },
            {
              "internalType": "string",
              "name": "betType",
              "type": "string"
            },
            {
              "internalType": "uint256",
              "name": "time",
              "type": "uint256"
            },
            {
              "internalType": "bool",
              "name": "active",
              "type": "bool"
            }
          ],
          "internalType": "struct Bet.Transaction",
          "name": "data",
          "type": "tuple"
        }
      ],
      "stateMutability": "view",
      "type": "function"
    },
    {
      "inputs": [
        {
          "internalType": "uint256",
          "name": "gameID",
          "type": "uint256"
        }
      ],
      "name": "returnPointTotalBetTotal",
      "outputs": [
        {
          "internalType": "uint256",
          "name": "data",
          "type": "uint256"
        }
      ],
      "stateMutability": "view",
      "type": "function"
    },
    {
      "inputs": [],
      "name": "returnReceipts",
      "outputs": [
        {
          "components": [
            {
              "internalType": "address",
              "name": "addr",
              "type": "address"
            },
            {
              "internalType": "uint256",
              "name": "amount",
              "type": "uint256"
            },
            {
              "internalType": "uint256",
              "name": "teamID",
              "type": "uint256"
            },
            {
              "internalType": "uint256",
              "name": "gameID",
              "type": "uint256"
            },
            {
              "internalType": "string",
              "name": "betType",
              "type": "string"
            },
            {
              "internalType": "uint256",
              "name": "time",
              "type": "uint256"
            },
            {
              "internalType": "bool",
              "name": "active",
              "type": "bool"
            }
          ],
          "internalType": "struct Bet.Transaction[]",
          "name": "data",
          "type": "tuple[]"
        }
      ],
      "stateMutability": "view",
      "type": "function"
    },
    {
      "inputs": [
        {
          "internalType": "uint256",
          "name": "gameID",
          "type": "uint256"
        },
        {
          "internalType": "uint256",
          "name": "winnerID",
          "type": "uint256"
        },
        {
          "internalType": "uint256",
          "name": "loserID",
          "type": "uint256"
        }
      ],
      "name": "rewardMoneyLineWinners",
      "outputs": [],
      "stateMutability": "nonpayable",
      "type": "function"
    },
    {
      "inputs": [
        {
          "internalType": "uint256",
          "name": "gameID",
          "type": "uint256"
        },
        {
          "internalType": "int256",
          "name": "winnerScore",
          "type": "int256"
        },
        {
          "internalType": "int256",
          "name": "loserScore",
          "type": "int256"
        }
      ],
      "name": "rewardPointSpreadWinners",
      "outputs": [],
      "stateMutability": "nonpayable",
      "type": "function"
    },
    {
      "inputs": [
        {
          "internalType": "uint256",
          "name": "gameID",
          "type": "uint256"
        },
        {
          "internalType": "uint256",
          "name": "total",
          "type": "uint256"
        }
      ],
      "name": "rewardPointTotalWinners",
      "outputs": [],
      "stateMutability": "nonpayable",
      "type": "function"
    },
    {
      "inputs": [
        {
          "internalType": "uint256",
          "name": "",
          "type": "uint256"
        }
      ],
      "name": "totalBetOnGame",
      "outputs": [
        {
          "internalType": "uint256",
          "name": "",
          "type": "uint256"
        }
      ],
      "stateMutability": "view",
      "type": "function"
    },
    {
      "inputs": [
        {
          "internalType": "uint256",
          "name": "",
          "type": "uint256"
        },
        {
          "internalType": "uint256",
          "name": "",
          "type": "uint256"
        }
      ],
      "name": "totalBetOnTeam",
      "outputs": [
        {
          "internalType": "uint256",
          "name": "",
          "type": "uint256"
        }
      ],
      "stateMutability": "view",
      "type": "function"
    },
    {
      "inputs": [
        {
          "internalType": "address",
          "name": "",
          "type": "address"
        }
      ],
      "name": "userReceipts",
      "outputs": [
        {
          "internalType": "uint256",
          "name": "escrow",
          "type": "uint256"
        }
      ],
      "stateMutability": "view",
      "type": "function"
    },
    {
      "inputs": [
        {
          "internalType": "uint256",
          "name": "",
          "type": "uint256"
        }
      ],
      "name": "visitor_team_score",
      "outputs": [
        {
          "internalType": "uint256",
          "name": "",
          "type": "uint256"
        }
      ],
      "stateMutability": "view",
      "type": "function"
    }
  ],
  "bytecode": "0x61010060405234801562000011575f80fd5b50604051620069ae380380620069ae833981810160405281019062000037919062000508565b732a6c106ae13b558bb9e2ec64bd2f1f7beff3a5e03081308173ffffffffffffffffffffffffffffffffffffffff1660808173ffffffffffffffffffffffffffffffffffffffff16815250508173ffffffffffffffffffffffffffffffffffffffff1663573ea5756040518163ffffffff1660e01b8152600401602060405180830381865afa158015620000cd573d5f803e3d5ffd5b505050506040513d601f19601f82011682018060405250810190620000f391906200061f565b73ffffffffffffffffffffffffffffffffffffffff1660c08173ffffffffffffffffffffffffffffffffffffffff16815250505f8273ffffffffffffffffffffffffffffffffffffffff1663cd3d4fb960026040518263ffffffff1660e01b8152600401620001639190620006cb565b602060405180830381865afa1580156200017f573d5f803e3d5ffd5b505050506040513d601f19601f82011682018060405250810190620001a5919062000728565b90505f8173ffffffffffffffffffffffffffffffffffffffff1663ba1d0ff46040518163ffffffff1660e01b8152600401602060405180830381865afa158015620001f2573d5f803e3d5ffd5b505050506040513d601f19601f8201168201806040525081019062000218919062000728565b90508073ffffffffffffffffffffffffffffffffffffffff1663ded89a7c846040518263ffffffff1660e01b815260040162000255919062000769565b6040805180830381865afa15801562000270573d5f803e3d5ffd5b505050506040513d601f19601f82011682018060405250810190620002969190620007be565b508073ffffffffffffffffffffffffffffffffffffffff1660a09073ffffffffffffffffffffffffffffffffffffffff1681525050505050508073ffffffffffffffffffffffffffffffffffffffff1660e08173ffffffffffffffffffffffffffffffffffffffff16815250505050335f806101000a81548173ffffffffffffffffffffffffffffffffffffffff021916908373ffffffffffffffffffffffffffffffffffffffff160217905550826001908162000355919062000a3a565b50816003908162000367919062000a3a565b50806002908162000379919062000a3a565b5050505062000b1e565b5f604051905090565b5f80fd5b5f80fd5b5f80fd5b5f80fd5b5f601f19601f8301169050919050565b7f4e487b71000000000000000000000000000000000000000000000000000000005f52604160045260245ffd5b620003e4826200039c565b810181811067ffffffffffffffff82111715620004065762000405620003ac565b5b80604052505050565b5f6200041a62000383565b9050620004288282620003d9565b919050565b5f67ffffffffffffffff8211156200044a5762000449620003ac565b5b62000455826200039c565b9050602081019050919050565b5f5b838110156200048157808201518184015260208101905062000464565b5f8484015250505050565b5f620004a26200049c846200042d565b6200040f565b905082815260208101848484011115620004c157620004c062000398565b5b620004ce84828562000462565b509392505050565b5f82601f830112620004ed57620004ec62000394565b5b8151620004ff8482602086016200048c565b91505092915050565b5f805f606084860312156200052257620005216200038c565b5b5f84015167ffffffffffffffff81111562000542576200054162000390565b5b6200055086828701620004d6565b935050602084015167ffffffffffffffff81111562000574576200057362000390565b5b6200058286828701620004d6565b925050604084015167ffffffffffffffff811115620005a657620005a562000390565b5b620005b486828701620004d6565b9150509250925092565b5f73ffffffffffffffffffffffffffffffffffffffff82169050919050565b5f620005e982620005be565b9050919050565b620005fb81620005dd565b811462000606575f80fd5b50565b5f815190506200061981620005f0565b92915050565b5f602082840312156200063757620006366200038c565b5b5f620006468482850162000609565b91505092915050565b7f4e487b71000000000000000000000000000000000000000000000000000000005f52602160045260245ffd5b6005811062000690576200068f6200064f565b5b50565b5f819050620006a2826200067c565b919050565b5f620006b38262000693565b9050919050565b620006c581620006a7565b82525050565b5f602082019050620006e05f830184620006ba565b92915050565b5f620006f282620005be565b9050919050565b6200070481620006e6565b81146200070f575f80fd5b50565b5f815190506200072281620006f9565b92915050565b5f6020828403121562000740576200073f6200038c565b5b5f6200074f8482850162000712565b91505092915050565b6200076381620006e6565b82525050565b5f6020820190506200077e5f83018462000758565b92915050565b5f8115159050919050565b6200079a8162000784565b8114620007a5575f80fd5b50565b5f81519050620007b8816200078f565b92915050565b5f8060408385031215620007d757620007d66200038c565b5b5f620007e68582860162000712565b9250506020620007f985828601620007a8565b9150509250929050565b5f81519050919050565b7f4e487b71000000000000000000000000000000000000000000000000000000005f52602260045260245ffd5b5f60028204905060018216806200085257607f821691505b6020821081036200086857620008676200080d565b5b50919050565b5f819050815f5260205f209050919050565b5f6020601f8301049050919050565b5f82821b905092915050565b5f60088302620008cc7fffffffffffffffffffffffffffffffffffffffffffffffffffffffffffffffff826200088f565b620008d886836200088f565b95508019841693508086168417925050509392505050565b5f819050919050565b5f819050919050565b5f620009226200091c6200091684620008f0565b620008f9565b620008f0565b9050919050565b5f819050919050565b6200093d8362000902565b620009556200094c8262000929565b8484546200089b565b825550505050565b5f90565b6200096b6200095d565b6200097881848462000932565b505050565b5b818110156200099f57620009935f8262000961565b6001810190506200097e565b5050565b601f821115620009ee57620009b8816200086e565b620009c38462000880565b81016020851015620009d3578190505b620009eb620009e28562000880565b8301826200097d565b50505b505050565b5f82821c905092915050565b5f62000a105f1984600802620009f3565b1980831691505092915050565b5f62000a2a8383620009ff565b9150826002028217905092915050565b62000a458262000803565b67ffffffffffffffff81111562000a615762000a60620003ac565b5b62000a6d82546200083a565b62000a7a828285620009a3565b5f60209050601f83116001811462000ab0575f841562000a9b578287015190505b62000aa7858262000a1d565b86555062000b16565b601f19841662000ac0866200086e565b5f5b8281101562000ae95784890151825560018201915060208501945060208101905062000ac2565b8683101562000b09578489015162000b05601f891682620009ff565b8355505b6001600288020188555050505b505050505050565b60805160a05160c05160e051615e4362000b6b5f395f61260601525f50505f818161080501528181611a780152818161324e0152613cdf01525f81816110c1015261443c0152615e435ff3fe6080604052600436106101d7575f3560e01c8063481042e211610101578063a4786f3d11610094578063e6d3861b11610063578063e6d3861b146106ec578063ec5a24d714610714578063f227ce4d14610750578063f782a7541461078c576101d7565b8063a4786f3d1461062b578063a910e4a514610667578063a91faba2146106a3578063d0e30db0146106e2576101d7565b806380eb6d04116100d057806380eb6d041461054c5780638edd3971146105885780638ee95f9f146105c7578063914989fd146105ef576101d7565b8063481042e2146104a057806357fb1d67146104dc578063686ff780146105065780637ea4178a14610522576101d7565b806328f150eb116101795780633e43a6f6116101485780633e43a6f6146103f457806346ee3c591461041057806347f53fc91461043a57806347fb0bed14610476576101d7565b806328f150eb1461033c5780632b3a4ef6146103665780633946f666146103a25780633da01325146103cc576101d7565b806323821c21116101b557806323821c21146102695780632429827f146102a5578063245a2fad146102e457806325b7e8d614610320576101d7565b806302cba3c3146101db57806303bfeb2014610217578063049aacfe1461023f575b5f80fd5b3480156101e6575f80fd5b5061020160048036038101906101fc919061481a565b6107c8565b60405161020e9190614884565b60405180910390f35b348015610222575f80fd5b5061023d6004803603810190610238919061489d565b610803565b005b34801561024a575f80fd5b506102536110bf565b6040516102609190614948565b60405180910390f35b348015610274575f80fd5b5061028f600480360381019061028a919061481a565b6110e3565b60405161029c9190614970565b60405180910390f35b3480156102b0575f80fd5b506102cb60048036038101906102c6919061481a565b6110f8565b6040516102db94939291906149a1565b60405180910390f35b3480156102ef575f80fd5b5061030a6004803603810190610305919061481a565b611125565b6040516103179190614970565b60405180910390f35b61033a60048036038101906103359190614a45565b61113a565b005b348015610347575f80fd5b50610350611a76565b60405161035d9190614884565b60405180910390f35b348015610371575f80fd5b5061038c60048036038101906103879190614aef565b611a9a565b6040516103999190614970565b60405180910390f35b3480156103ad575f80fd5b506103b6611aba565b6040516103c39190614d43565b60405180910390f35b3480156103d7575f80fd5b506103f260048036038101906103ed9190614d8d565b611c7a565b005b61040e60048036038101906104099190614a45565b611d33565b005b34801561041b575f80fd5b50610424612604565b6040516104319190614884565b60405180910390f35b348015610445575f80fd5b50610460600480360381019061045b9190614aef565b612628565b60405161046d9190614970565b60405180910390f35b348015610481575f80fd5b5061048a612655565b6040516104979190614dc7565b60405180910390f35b3480156104ab575f80fd5b506104c660048036038101906104c1919061481a565b6126fb565b6040516104d39190614e79565b60405180910390f35b3480156104e7575f80fd5b506104f061288a565b6040516104fd9190614eb9565b60405180910390f35b610520600480360381019061051b9190614f05565b6128a2565b005b34801561052d575f80fd5b506105366131c5565b6040516105439190614970565b60405180910390f35b348015610557575f80fd5b50610572600480360381019061056d919061481a565b61320b565b60405161057f9190614970565b60405180910390f35b348015610593575f80fd5b506105ae60048036038101906105a9919061481a565b613220565b6040516105be94939291906149a1565b60405180910390f35b3480156105d2575f80fd5b506105ed60048036038101906105e89190614aef565b61324c565b005b3480156105fa575f80fd5b506106156004803603810190610610919061481a565b613928565b6040516106229190614e79565b60405180910390f35b348015610636575f80fd5b50610651600480360381019061064c9190614d8d565b613ab7565b60405161065e9190614970565b60405180910390f35b348015610672575f80fd5b5061068d60048036038101906106889190614aef565b613ad1565b60405161069a9190614e79565b60405180910390f35b3480156106ae575f80fd5b506106c960048036038101906106c4919061481a565b613c70565b6040516106d994939291906149a1565b60405180910390f35b6106ea613c9d565b005b3480156106f7575f80fd5b50610712600480360381019061070d9190614fc2565b613cdd565b005b34801561071f575f80fd5b5061073a60048036038101906107359190614aef565b61434e565b6040516107479190614970565b60405180910390f35b34801561075b575f80fd5b5061077660048036038101906107719190614aef565b61437b565b6040516107839190614970565b60405180910390f35b348015610797575f80fd5b506107b260048036038101906107ad919061481a565b6143d7565b6040516107bf9190614970565b60405180910390f35b600481815481106107d7575f80fd5b905f5260205f20015f915054906101000a900473ffffffffffffffffffffffffffffffffffffffff1681565b7f000000000000000000000000000000000000000000000000000000000000000073ffffffffffffffffffffffffffffffffffffffff163373ffffffffffffffffffffffffffffffffffffffff1614610891576040517f08c379a00000000000000000000000000000000000000000000000000000000081526004016108889061506c565b60405180910390fd5b5f5b60085f8581526020019081526020015f206004015f8481526020019081526020015f2080549050811015610cef575f60085f8681526020019081526020015f206004015f8581526020019081526020015f2082815481106108f7576108f661508a565b5b905f5260205f20015f9054906101000a900473ffffffffffffffffffffffffffffffffffffffff1690505f60085f8781526020019081526020015f206005015f8681526020019081526020015f205f8373ffffffffffffffffffffffffffffffffffffffff1673ffffffffffffffffffffffffffffffffffffffff1681526020019081526020015f206001015490505f60085f8881526020019081526020015f206001015f8781526020019081526020015f2054826109b69190615111565b90508273ffffffffffffffffffffffffffffffffffffffff166108fc8260085f8b81526020019081526020015f205f01546109f19190615141565b90811502906040515f60405180830381858888f19350505050158015610a19573d5f803e3d5ffd5b508160055f8573ffffffffffffffffffffffffffffffffffffffff1673ffffffffffffffffffffffffffffffffffffffff1681526020019081526020015f205f015f828254610a689190615182565b925050819055505f5b60055f8573ffffffffffffffffffffffffffffffffffffffff1673ffffffffffffffffffffffffffffffffffffffff1681526020019081526020015f2060010180549050811015610cd8575f60055f8673ffffffffffffffffffffffffffffffffffffffff1673ffffffffffffffffffffffffffffffffffffffff1681526020019081526020015f206001018281548110610b0f57610b0e61508a565b5b905f5260205f2090600702016040518060e00160405290815f82015f9054906101000a900473ffffffffffffffffffffffffffffffffffffffff1673ffffffffffffffffffffffffffffffffffffffff1673ffffffffffffffffffffffffffffffffffffffff168152602001600182015481526020016002820154815260200160038201548152602001600482018054610ba8906151e2565b80601f0160208091040260200160405190810160405280929190818152602001828054610bd4906151e2565b8015610c1f5780601f10610bf657610100808354040283529160200191610c1f565b820191905f5260205f20905b815481529060010190602001808311610c0257829003601f168201915b5050505050815260200160058201548152602001600682015f9054906101000a900460ff1615151515815250509050888160600151148015610cae5750604051602001610c6b90615266565b604051602081830303815290604052805190602001208160800151604051602001610c9691906152aa565b60405160208183030381529060405280519060200120145b15610cc4575f8160c00190151590811515815250505b508080610cd0906152c0565b915050610a71565b505050508080610ce7906152c0565b915050610893565b505f5b60085f8581526020019081526020015f206004015f8381526020019081526020015f20805490508110156110b9575f60085f8681526020019081526020015f206004015f8481526020019081526020015f208281548110610d5657610d5561508a565b5b905f5260205f20015f9054906101000a900473ffffffffffffffffffffffffffffffffffffffff1690505f60085f8781526020019081526020015f206005015f8581526020019081526020015f205f8373ffffffffffffffffffffffffffffffffffffffff1673ffffffffffffffffffffffffffffffffffffffff1681526020019081526020015f206001015490508060055f8473ffffffffffffffffffffffffffffffffffffffff1673ffffffffffffffffffffffffffffffffffffffff1681526020019081526020015f205f015f828254610e339190615182565b925050819055505f5b60055f8473ffffffffffffffffffffffffffffffffffffffff1673ffffffffffffffffffffffffffffffffffffffff1681526020019081526020015f20600101805490508110156110a3575f60055f8573ffffffffffffffffffffffffffffffffffffffff1673ffffffffffffffffffffffffffffffffffffffff1681526020019081526020015f206001018281548110610eda57610ed961508a565b5b905f5260205f2090600702016040518060e00160405290815f82015f9054906101000a900473ffffffffffffffffffffffffffffffffffffffff1673ffffffffffffffffffffffffffffffffffffffff1673ffffffffffffffffffffffffffffffffffffffff168152602001600182015481526020016002820154815260200160038201548152602001600482018054610f73906151e2565b80601f0160208091040260200160405190810160405280929190818152602001828054610f9f906151e2565b8015610fea5780601f10610fc157610100808354040283529160200191610fea565b820191905f5260205f20905b815481529060010190602001808311610fcd57829003601f168201915b5050505050815260200160058201548152602001600682015f9054906101000a900460ff1615151515815250509050878160600151148015611079575060405160200161103690615266565b60405160208183030381529060405280519060200120816080015160405160200161106191906152aa565b60405160208183030381529060405280519060200120145b1561108f575f8160c00190151590811515815250505b50808061109b906152c0565b915050610e3c565b50505080806110b1906152c0565b915050610cf2565b50505050565b7f000000000000000000000000000000000000000000000000000000000000000081565b6006602052805f5260405f205f915090505481565b6009602052805f5260405f205f915090508060010154908060030154908060040154908060070154905084565b600b602052805f5260405f205f915090505481565b825f1061117c576040517f08c379a000000000000000000000000000000000000000000000000000000000815260040161117390615351565b60405180910390fd5b611184612655565b156111c4576040517f08c379a00000000000000000000000000000000000000000000000000000000081526004016111bb906153b9565b60405180910390fd5b3373ffffffffffffffffffffffffffffffffffffffff16600a5f8981526020019081526020015f206005015f3373ffffffffffffffffffffffffffffffffffffffff1673ffffffffffffffffffffffffffffffffffffffff1681526020019081526020015f205f015f9054906101000a900473ffffffffffffffffffffffffffffffffffffffff1673ffffffffffffffffffffffffffffffffffffffff160361126b575f80fd5b5f34116112ad576040517f08c379a00000000000000000000000000000000000000000000000000000000081526004016112a490615421565b60405180910390fd5b5f600a5f8981526020019081526020015f2090505f801916600a5f8a81526020019081526020015f20600601540361153f575f6040518060400160405280600267ffffffffffffffff8111156113065761130561543f565b5b6040519080825280602002602001820160405280156113345781602001602082028036833780820191505090505b508152602001600267ffffffffffffffff8111156113555761135461543f565b5b60405190808252806020026020018201604052801561138857816020015b60608152602001906001900390816113735790505b5081525090506002815f01515f815181106113a6576113a561508a565b5b602002602001019060048111156113c0576113bf61546c565b5b908160048111156113d4576113d361546c565b5b815250506004815f01516001815181106113f1576113f061508a565b5b6020026020010190600481111561140b5761140a61546c565b5b9081600481111561141f5761141e61546c565b5b8152505061142b6143f4565b81602001515f815181106114425761144161508a565b5b60200260200101819052506114e06003805461145d906151e2565b80601f0160208091040260200160405190810160405280929190818152602001828054611489906151e2565b80156114d45780601f106114ab576101008083540402835291602001916114d4565b820191905f5260205f20905b8154815290600101906020018083116114b757829003601f168201915b5050505050858561440a565b81602001516001815181106114f8576114f761508a565b5b602002602001018190525061153530638ee95f9f60e01b60405160200161151f91906154d3565b604051602081830303815290604052835f614439565b8260060181905550505b5f606460053461154f9190615141565b6115599190615111565b90505f60055f3373ffffffffffffffffffffffffffffffffffffffff1673ffffffffffffffffffffffffffffffffffffffff1681526020019081526020015f2060010190505f836005015f3373ffffffffffffffffffffffffffffffffffffffff1673ffffffffffffffffffffffffffffffffffffffff1681526020019081526020015f2090505f8460040190505f8054906101000a900473ffffffffffffffffffffffffffffffffffffffff1673ffffffffffffffffffffffffffffffffffffffff166108fc8590811502906040515f60405180830381858888f19350505050158015611649573d5f803e3d5ffd5b5083346116569190615182565b60055f3373ffffffffffffffffffffffffffffffffffffffff1673ffffffffffffffffffffffffffffffffffffffff1681526020019081526020015f205f015f8282546116a391906154ec565b92505081905550826040518060e001604052803373ffffffffffffffffffffffffffffffffffffffff16815260200186346116de9190615182565b81526020015f81526020018e81526020016040518060400160405280600b81526020017f506f696e7420546f74616c000000000000000000000000000000000000000000815250815260200142815260200160011515815250908060018154018082558091505060019003905f5260205f2090600702015f909190919091505f820151815f015f6101000a81548173ffffffffffffffffffffffffffffffffffffffff021916908373ffffffffffffffffffffffffffffffffffffffff16021790555060208201518160010155604082015181600201556060820151816003015560808201518160040190816117d491906156b3565b5060a0820151816005015560c0820151816006015f6101000a81548160ff02191690831515021790555050503460065f8e81526020019081526020015f205f82825461182091906154ec565b925050819055506002346118349190615111565b60075f8e81526020019081526020015f205f8d81526020019081526020015f205f82825461186291906154ec565b925050819055506002346118769190615111565b60075f8e81526020019081526020015f205f8c81526020019081526020015f205f8282546118a491906154ec565b9250508190555083346118b79190615182565b856001015f8282546118c991906154ec565b925050819055508a856002018190555089856003018190555088855f015f3373ffffffffffffffffffffffffffffffffffffffff1673ffffffffffffffffffffffffffffffffffffffff1681526020019081526020015f20819055508033908060018154018082558091505060019003905f5260205f20015f9091909190916101000a81548173ffffffffffffffffffffffffffffffffffffffff021916908373ffffffffffffffffffffffffffffffffffffffff16021790555033825f015f6101000a81548173ffffffffffffffffffffffffffffffffffffffff021916908373ffffffffffffffffffffffffffffffffffffffff16021790555083346119d19190615182565b826001015f8282546119e391906154ec565b925050819055505f82600201819055508b82600301819055506040518060400160405280600b81526020017f506f696e7420546f74616c000000000000000000000000000000000000000000815250826004019081611a4291906156b3565b504282600501819055506001826006015f6101000a81548160ff021916908315150217905550505050505050505050505050565b7f000000000000000000000000000000000000000000000000000000000000000081565b6007602052815f5260405f20602052805f5260405f205f91509150505481565b606060055f3373ffffffffffffffffffffffffffffffffffffffff1673ffffffffffffffffffffffffffffffffffffffff1681526020019081526020015f20600101805480602002602001604051908101604052809291908181526020015f905b82821015611c71578382905f5260205f2090600702016040518060e00160405290815f82015f9054906101000a900473ffffffffffffffffffffffffffffffffffffffff1673ffffffffffffffffffffffffffffffffffffffff1673ffffffffffffffffffffffffffffffffffffffff168152602001600182015481526020016002820154815260200160038201548152602001600482018054611bbe906151e2565b80601f0160208091040260200160405190810160405280929190818152602001828054611bea906151e2565b8015611c355780601f10611c0c57610100808354040283529160200191611c35565b820191905f5260205f20905b815481529060010190602001808311611c1857829003601f168201915b5050505050815260200160058201548152602001600682015f9054906101000a900460ff16151515158152505081526020019060010190611b1b565b50505050905090565b5f8054906101000a900473ffffffffffffffffffffffffffffffffffffffff1673ffffffffffffffffffffffffffffffffffffffff163373ffffffffffffffffffffffffffffffffffffffff1614611cd0575f80fd5b600481908060018154018082558091505060019003905f5260205f20015f9091909190916101000a81548173ffffffffffffffffffffffffffffffffffffffff021916908373ffffffffffffffffffffffffffffffffffffffff16021790555050565b825f10611d75576040517f08c379a0000000000000000000000000000000000000000000000000000000008152600401611d6c90615351565b60405180910390fd5b611d7d612655565b15611dbd576040517f08c379a0000000000000000000000000000000000000000000000000000000008152600401611db4906153b9565b60405180910390fd5b5f3411611dc8575f80fd5b5f60085f8981526020019081526020015f2090505f80191660085f8a81526020019081526020015f20600601540361205a575f6040518060400160405280600267ffffffffffffffff811115611e2157611e2061543f565b5b604051908082528060200260200182016040528015611e4f5781602001602082028036833780820191505090505b508152602001600267ffffffffffffffff811115611e7057611e6f61543f565b5b604051908082528060200260200182016040528015611ea357816020015b6060815260200190600190039081611e8e5790505b5081525090506002815f01515f81518110611ec157611ec061508a565b5b60200260200101906004811115611edb57611eda61546c565b5b90816004811115611eef57611eee61546c565b5b815250506004815f0151600181518110611f0c57611f0b61508a565b5b60200260200101906004811115611f2657611f2561546c565b5b90816004811115611f3a57611f3961546c565b5b81525050611f466143f4565b81602001515f81518110611f5d57611f5c61508a565b5b6020026020010181905250611ffb60018054611f78906151e2565b80601f0160208091040260200160405190810160405280929190818152602001828054611fa4906151e2565b8015611fef5780601f10611fc657610100808354040283529160200191611fef565b820191905f5260205f20905b815481529060010190602001808311611fd257829003601f168201915b5050505050858561440a565b81602001516001815181106120135761201261508a565b5b6020026020010181905250612050306303bfeb2060e01b60405160200161203a91906154d3565b604051602081830303815290604052835f614439565b8260060181905550505b5f606460053461206a9190615141565b6120749190615111565b90505f60055f3373ffffffffffffffffffffffffffffffffffffffff1673ffffffffffffffffffffffffffffffffffffffff1681526020019081526020015f2060010190505f836005015f8b81526020019081526020015f205f3373ffffffffffffffffffffffffffffffffffffffff1673ffffffffffffffffffffffffffffffffffffffff1681526020019081526020015f2090505f846004015f8c81526020019081526020015f2090505f8054906101000a900473ffffffffffffffffffffffffffffffffffffffff1673ffffffffffffffffffffffffffffffffffffffff166108fc8590811502906040515f60405180830381858888f19350505050158015612182573d5f803e3d5ffd5b50833461218f9190615182565b60055f3373ffffffffffffffffffffffffffffffffffffffff1673ffffffffffffffffffffffffffffffffffffffff1681526020019081526020015f205f015f8282546121dc91906154ec565b92505081905550826040518060e001604052803373ffffffffffffffffffffffffffffffffffffffff16815260200186346122179190615182565b81526020018d81526020018e81526020016040518060400160405280600a81526020017f4d6f6e6579204c696e6500000000000000000000000000000000000000000000815250815260200142815260200160011515815250908060018154018082558091505060019003905f5260205f2090600702015f909190919091505f820151815f015f6101000a81548173ffffffffffffffffffffffffffffffffffffffff021916908373ffffffffffffffffffffffffffffffffffffffff160217905550602082015181600101556040820151816002015560608201518160030155608082015181600401908161230d91906156b3565b5060a0820151816005015560c0820151816006015f6101000a81548160ff02191690831515021790555050503460065f8e81526020019081526020015f205f82825461235991906154ec565b925050819055503460075f8e81526020019081526020015f205f8d81526020019081526020015f205f82825461238f91906154ec565b9250508190555083346123a29190615182565b855f015f8282546123b391906154ec565b9250508190555083346123c69190615182565b856001015f8d81526020019081526020015f205f8282546123e791906154ec565b925050819055508985600201819055508885600301819055503373ffffffffffffffffffffffffffffffffffffffff1660085f8e81526020019081526020015f206005015f8d81526020019081526020015f205f3373ffffffffffffffffffffffffffffffffffffffff1673ffffffffffffffffffffffffffffffffffffffff1681526020019081526020015f205f015f9054906101000a900473ffffffffffffffffffffffffffffffffffffffff1673ffffffffffffffffffffffffffffffffffffffff1614612512578033908060018154018082558091505060019003905f5260205f20015f9091909190916101000a81548173ffffffffffffffffffffffffffffffffffffffff021916908373ffffffffffffffffffffffffffffffffffffffff1602179055505b33825f015f6101000a81548173ffffffffffffffffffffffffffffffffffffffff021916908373ffffffffffffffffffffffffffffffffffffffff160217905550833461255f9190615182565b826001015f82825461257191906154ec565b925050819055508a82600201819055508b82600301819055506040518060400160405280600a81526020017f4d6f6e6579204c696e65000000000000000000000000000000000000000000008152508260040190816125d091906156b3565b504282600501819055506001826006015f6101000a81548160ff021916908315150217905550505050505050505050505050565b7f000000000000000000000000000000000000000000000000000000000000000081565b5f60085f8481526020019081526020015f206001015f8381526020019081526020015f2054905092915050565b5f805f90505b6004805490508110156126f3573373ffffffffffffffffffffffffffffffffffffffff16600482815481106126935761269261508a565b5b905f5260205f20015f9054906101000a900473ffffffffffffffffffffffffffffffffffffffff1673ffffffffffffffffffffffffffffffffffffffff16036126e05760019150506126f8565b80806126eb906152c0565b91505061265b565b505f90505b90565b612703614790565b60095f8381526020019081526020015f206006015f3373ffffffffffffffffffffffffffffffffffffffff1673ffffffffffffffffffffffffffffffffffffffff1681526020019081526020015f206040518060e00160405290815f82015f9054906101000a900473ffffffffffffffffffffffffffffffffffffffff1673ffffffffffffffffffffffffffffffffffffffff1673ffffffffffffffffffffffffffffffffffffffff1681526020016001820154815260200160028201548152602001600382015481526020016004820180546127df906151e2565b80601f016020809104026020016040519081016040528092919081815260200182805461280b906151e2565b80156128565780601f1061282d57610100808354040283529160200191612856565b820191905f5260205f20905b81548152906001019060200180831161283957829003601f168201915b5050505050815260200160058201548152602001600682015f9054906101000a900460ff1615151515815250509050919050565b737506c12a824d73d9b08564d5afc22c949434755e81565b825f106128e4576040517f08c379a00000000000000000000000000000000000000000000000000000000081526004016128db90615351565b60405180910390fd5b6128ec612655565b1561292c576040517f08c379a0000000000000000000000000000000000000000000000000000000008152600401612923906153b9565b60405180910390fd5b3373ffffffffffffffffffffffffffffffffffffffff1660095f8a81526020019081526020015f206006015f3373ffffffffffffffffffffffffffffffffffffffff1673ffffffffffffffffffffffffffffffffffffffff1681526020019081526020015f205f015f9054906101000a900473ffffffffffffffffffffffffffffffffffffffff1673ffffffffffffffffffffffffffffffffffffffff16036129d3575f80fd5b5f3411612a15576040517f08c379a0000000000000000000000000000000000000000000000000000000008152600401612a0c90615421565b60405180910390fd5b5f60095f8a81526020019081526020015f2090505f80191660095f8b81526020019081526020015f206007015403612ca7575f6040518060400160405280600267ffffffffffffffff811115612a6e57612a6d61543f565b5b604051908082528060200260200182016040528015612a9c5781602001602082028036833780820191505090505b508152602001600267ffffffffffffffff811115612abd57612abc61543f565b5b604051908082528060200260200182016040528015612af057816020015b6060815260200190600190039081612adb5790505b5081525090506002815f01515f81518110612b0e57612b0d61508a565b5b60200260200101906004811115612b2857612b2761546c565b5b90816004811115612b3c57612b3b61546c565b5b815250506004815f0151600181518110612b5957612b5861508a565b5b60200260200101906004811115612b7357612b7261546c565b5b90816004811115612b8757612b8661546c565b5b81525050612b936143f4565b81602001515f81518110612baa57612ba961508a565b5b6020026020010181905250612c4860028054612bc5906151e2565b80601f0160208091040260200160405190810160405280929190818152602001828054612bf1906151e2565b8015612c3c5780601f10612c1357610100808354040283529160200191612c3c565b820191905f5260205f20905b815481529060010190602001808311612c1f57829003601f168201915b5050505050858561440a565b8160200151600181518110612c6057612c5f61508a565b5b6020026020010181905250612c9d3063e6d3861b60e01b604051602001612c8791906154d3565b604051602081830303815290604052835f614439565b8260070181905550505b5f6064600534612cb79190615141565b612cc19190615111565b90505f60055f3373ffffffffffffffffffffffffffffffffffffffff1673ffffffffffffffffffffffffffffffffffffffff1681526020019081526020015f2060010190505f836006015f3373ffffffffffffffffffffffffffffffffffffffff1673ffffffffffffffffffffffffffffffffffffffff1681526020019081526020015f2090505f8460050190505f8054906101000a900473ffffffffffffffffffffffffffffffffffffffff1673ffffffffffffffffffffffffffffffffffffffff166108fc8590811502906040515f60405180830381858888f19350505050158015612db1573d5f803e3d5ffd5b508334612dbe9190615182565b60055f3373ffffffffffffffffffffffffffffffffffffffff1673ffffffffffffffffffffffffffffffffffffffff1681526020019081526020015f205f015f828254612e0b91906154ec565b92505081905550826040518060e001604052803373ffffffffffffffffffffffffffffffffffffffff1681526020018634612e469190615182565b81526020018e81526020018f81526020016040518060400160405280600c81526020017f506f696e74205370726561640000000000000000000000000000000000000000815250815260200142815260200160011515815250908060018154018082558091505060019003905f5260205f2090600702015f909190919091505f820151815f015f6101000a81548173ffffffffffffffffffffffffffffffffffffffff021916908373ffffffffffffffffffffffffffffffffffffffff1602179055506020820151816001015560408201518160020155606082015181600301556080820151816004019081612f3c91906156b3565b5060a0820151816005015560c0820151816006015f6101000a81548160ff02191690831515021790555050503460065f8f81526020019081526020015f205f828254612f8891906154ec565b925050819055503460075f8f81526020019081526020015f205f8e81526020019081526020015f205f828254612fbe91906154ec565b925050819055508334612fd19190615182565b856001015f828254612fe391906154ec565b925050819055508334612ff69190615182565b856002015f8e81526020019081526020015f205f82825461301791906154ec565b925050819055508a856003018190555089856004018190555088855f015f3373ffffffffffffffffffffffffffffffffffffffff1673ffffffffffffffffffffffffffffffffffffffff1681526020019081526020015f20819055508033908060018154018082558091505060019003905f5260205f20015f9091909190916101000a81548173ffffffffffffffffffffffffffffffffffffffff021916908373ffffffffffffffffffffffffffffffffffffffff16021790555033825f015f6101000a81548173ffffffffffffffffffffffffffffffffffffffff021916908373ffffffffffffffffffffffffffffffffffffffff160217905550833461311f9190615182565b826001015f82825461313191906154ec565b925050819055508b82600201819055508c82600301819055506040518060400160405280600c81526020017f506f696e7420537072656164000000000000000000000000000000000000000081525082600401908161319091906156b3565b504282600501819055506001826006015f6101000a81548160ff02191690831515021790555050505050505050505050505050565b5f60055f3373ffffffffffffffffffffffffffffffffffffffff1673ffffffffffffffffffffffffffffffffffffffff1681526020019081526020015f205f0154905090565b600c602052805f5260405f205f915090505481565b6008602052805f5260405f205f91509050805f0154908060020154908060030154908060060154905084565b7f000000000000000000000000000000000000000000000000000000000000000073ffffffffffffffffffffffffffffffffffffffff163373ffffffffffffffffffffffffffffffffffffffff16146132da576040517f08c379a00000000000000000000000000000000000000000000000000000000081526004016132d19061506c565b60405180910390fd5b60605f805f805b600a5f8881526020019081526020015f20600401805490508110156137f7575f600a5f8981526020019081526020015f2060040182815481106133275761332661508a565b5b905f5260205f20015f9054906101000a900473ffffffffffffffffffffffffffffffffffffffff1690505f600a5f8a81526020019081526020015f206005015f8373ffffffffffffffffffffffffffffffffffffffff1673ffffffffffffffffffffffffffffffffffffffff1681526020019081526020015f20600101549050600a5f8a81526020019081526020015f205f015f8373ffffffffffffffffffffffffffffffffffffffff1673ffffffffffffffffffffffffffffffffffffffff1681526020019081526020015f205488111561346c57818786815181106134115761341061508a565b5b602002602001019073ffffffffffffffffffffffffffffffffffffffff16908173ffffffffffffffffffffffffffffffffffffffff16815250508480613456906152c0565b955050808661346591906154ec565b9550613523565b600a5f8a81526020019081526020015f205f015f8373ffffffffffffffffffffffffffffffffffffffff1673ffffffffffffffffffffffffffffffffffffffff1681526020019081526020015f205488036135225780866134cd9190615182565b955080846134db91906154ec565b93508173ffffffffffffffffffffffffffffffffffffffff166108fc8290811502906040515f60405180830381858888f19350505050158015613520573d5f803e3d5ffd5b505b5b8060055f8473ffffffffffffffffffffffffffffffffffffffff1673ffffffffffffffffffffffffffffffffffffffff1681526020019081526020015f205f015f8282546135719190615182565b925050819055505f5b60055f8473ffffffffffffffffffffffffffffffffffffffff1673ffffffffffffffffffffffffffffffffffffffff1681526020019081526020015f20600101805490508110156137e1575f60055f8573ffffffffffffffffffffffffffffffffffffffff1673ffffffffffffffffffffffffffffffffffffffff1681526020019081526020015f2060010182815481106136185761361761508a565b5b905f5260205f2090600702016040518060e00160405290815f82015f9054906101000a900473ffffffffffffffffffffffffffffffffffffffff1673ffffffffffffffffffffffffffffffffffffffff1673ffffffffffffffffffffffffffffffffffffffff1681526020016001820154815260200160028201548152602001600382015481526020016004820180546136b1906151e2565b80601f01602080910402602001604051908101604052809291908181526020018280546136dd906151e2565b80156137285780601f106136ff57610100808354040283529160200191613728565b820191905f5260205f20905b81548152906001019060200180831161370b57829003601f168201915b5050505050815260200160058201548152602001600682015f9054906101000a900460ff16151515158152505090508a81606001511480156137b75750604051602001613774906157cc565b60405160208183030381529060405280519060200120816080015160405160200161379f91906152aa565b60405160208183030381529060405280519060200120145b156137cd575f8160c00190151590811515815250505b5080806137d9906152c0565b91505061357a565b50505080806137ef906152c0565b9150506132e1565b505f5b845181101561391f575f600a5f8981526020019081526020015f206005015f87848151811061382c5761382b61508a565b5b602002602001015173ffffffffffffffffffffffffffffffffffffffff1673ffffffffffffffffffffffffffffffffffffffff1681526020019081526020015f206001015490505f85826138809190615111565b90508683815181106138955761389461508a565b5b602002602001015173ffffffffffffffffffffffffffffffffffffffff166108fc8286600a5f8e81526020019081526020015f20600101546138d79190615182565b6138e19190615141565b90811502906040515f60405180830381858888f19350505050158015613909573d5f803e3d5ffd5b5050508080613917906152c0565b9150506137fa565b50505050505050565b613930614790565b600a5f8381526020019081526020015f206005015f3373ffffffffffffffffffffffffffffffffffffffff1673ffffffffffffffffffffffffffffffffffffffff1681526020019081526020015f206040518060e00160405290815f82015f9054906101000a900473ffffffffffffffffffffffffffffffffffffffff1673ffffffffffffffffffffffffffffffffffffffff1673ffffffffffffffffffffffffffffffffffffffff168152602001600182015481526020016002820154815260200160038201548152602001600482018054613a0c906151e2565b80601f0160208091040260200160405190810160405280929190818152602001828054613a38906151e2565b8015613a835780601f10613a5a57610100808354040283529160200191613a83565b820191905f5260205f20905b815481529060010190602001808311613a6657829003601f168201915b5050505050815260200160058201548152602001600682015f9054906101000a900460ff1615151515815250509050919050565b6005602052805f5260405f205f91509050805f0154905081565b613ad9614790565b60085f8481526020019081526020015f206005015f8381526020019081526020015f205f3373ffffffffffffffffffffffffffffffffffffffff1673ffffffffffffffffffffffffffffffffffffffff1681526020019081526020015f206040518060e00160405290815f82015f9054906101000a900473ffffffffffffffffffffffffffffffffffffffff1673ffffffffffffffffffffffffffffffffffffffff1673ffffffffffffffffffffffffffffffffffffffff168152602001600182015481526020016002820154815260200160038201548152602001600482018054613bc4906151e2565b80601f0160208091040260200160405190810160405280929190818152602001828054613bf0906151e2565b8015613c3b5780601f10613c1257610100808354040283529160200191613c3b565b820191905f5260205f20905b815481529060010190602001808311613c1e57829003601f168201915b5050505050815260200160058201548152602001600682015f9054906101000a900460ff161515151581525050905092915050565b600a602052805f5260405f205f915090508060010154908060020154908060030154908060060154905084565b613cdb3473eeeeeeeeeeeeeeeeeeeeeeeeeeeeeeeeeeeeeeee5f8054906101000a900473ffffffffffffffffffffffffffffffffffffffff166144e3565b565b7f000000000000000000000000000000000000000000000000000000000000000073ffffffffffffffffffffffffffffffffffffffff163373ffffffffffffffffffffffffffffffffffffffff1614613d6b576040517f08c379a0000000000000000000000000000000000000000000000000000000008152600401613d629061506c565b60405180910390fd5b60605f805f5b60095f8881526020019081526020015f2060050180549050811015614228575f60095f8981526020019081526020015f206005018281548110613db757613db661508a565b5b905f5260205f20015f9054906101000a900473ffffffffffffffffffffffffffffffffffffffff1690505f60095f8a81526020019081526020015f206006015f8373ffffffffffffffffffffffffffffffffffffffff1673ffffffffffffffffffffffffffffffffffffffff1681526020019081526020015f206001015490505f60095f8b81526020019081526020015f205f015f8473ffffffffffffffffffffffffffffffffffffffff1673ffffffffffffffffffffffffffffffffffffffff1681526020019081526020015f2054905087818a613e9691906157e0565b1315613f075782878681518110613eb057613eaf61508a565b5b602002602001019073ffffffffffffffffffffffffffffffffffffffff16908173ffffffffffffffffffffffffffffffffffffffff16815250508480613ef5906152c0565b9550508186613f0491906154ec565b95505b8160055f8573ffffffffffffffffffffffffffffffffffffffff1673ffffffffffffffffffffffffffffffffffffffff1681526020019081526020015f205f015f828254613f559190615182565b925050819055505f5b60055f8573ffffffffffffffffffffffffffffffffffffffff1673ffffffffffffffffffffffffffffffffffffffff1681526020019081526020015f2060010180549050811015614211575f60055f8673ffffffffffffffffffffffffffffffffffffffff1673ffffffffffffffffffffffffffffffffffffffff1681526020019081526020015f206001018281548110613ffc57613ffb61508a565b5b905f5260205f2090600702016040518060e00160405290815f82015f9054906101000a900473ffffffffffffffffffffffffffffffffffffffff1673ffffffffffffffffffffffffffffffffffffffff1673ffffffffffffffffffffffffffffffffffffffff168152602001600182015481526020016002820154815260200160038201548152602001600482018054614095906151e2565b80601f01602080910402602001604051908101604052809291908181526020018280546140c1906151e2565b801561410c5780601f106140e35761010080835404028352916020019161410c565b820191905f5260205f20905b8154815290600101906020018083116140ef57829003601f168201915b5050505050815260200160058201548152602001600682015f9054906101000a900460ff16151515158152505090508b60405160200161414c9190615841565b6040516020818303038152906040528051906020012081606001516040516020016141779190615841565b604051602081830303815290604052805190602001201480156141e757506040516020016141a4906158a5565b6040516020818303038152906040528051906020012081608001516040516020016141cf91906152aa565b60405160208183030381529060405280519060200120145b156141fd575f8160c00190151590811515815250505b508080614209906152c0565b915050613f5e565b505050508080614220906152c0565b915050613d71565b505f5b8351811015614345575f60095f8981526020019081526020015f206006015f86848151811061425d5761425c61508a565b5b602002602001015173ffffffffffffffffffffffffffffffffffffffff1673ffffffffffffffffffffffffffffffffffffffff1681526020019081526020015f206001015490505f84826142b19190615111565b90508583815181106142c6576142c561508a565b5b602002602001015173ffffffffffffffffffffffffffffffffffffffff166108fc8260095f8d81526020019081526020015f20600101546143079190615141565b90811502906040515f60405180830381858888f1935050505015801561432f573d5f803e3d5ffd5b505050808061433d906152c0565b91505061422b565b50505050505050565b5f60095f8481526020019081526020015f206002015f8381526020019081526020015f2054905092915050565b5f8060075f8581526020019081526020015f205f8481526020019081526020015f205490505f60065f8681526020019081526020015f20549050806064836143c39190615141565b6143cd9190615111565b9250505092915050565b5f600a5f8381526020019081526020015f20600101549050919050565b606060405180602001604052805f815250905090565b60608383836040516020016144219392919061593b565b60405160208183030381529060405290509392505050565b5f7f000000000000000000000000000000000000000000000000000000000000000073ffffffffffffffffffffffffffffffffffffffff16633323b467868686866040518563ffffffff1660e01b81526004016144999493929190615be6565b6020604051808303815f875af11580156144b5573d5f803e3d5ffd5b505050506040513d601f19601f820116820180604052508101906144d99190615c61565b9050949350505050565b73eeeeeeeeeeeeeeeeeeeeeeeeeeeeeeeeeeeeeeee73ffffffffffffffffffffffffffffffffffffffff168273ffffffffffffffffffffffffffffffffffffffff16036145ee576005461461456d576040517f08c379a000000000000000000000000000000000000000000000000000000000815260040161456490615cd6565b60405180910390fd5b737506c12a824d73d9b08564d5afc22c949434755e73ffffffffffffffffffffffffffffffffffffffff166333bb7f9184836040518363ffffffff1660e01b81526004016145bb9190614884565b5f604051808303818588803b1580156145d2575f80fd5b505af11580156145e4573d5f803e3d5ffd5b505050505061478b565b60894614801561463d5750732791bca1f2de4661ed88a30c99a7a9449aa8417473ffffffffffffffffffffffffffffffffffffffff168273ffffffffffffffffffffffffffffffffffffffff16145b61467c576040517f08c379a000000000000000000000000000000000000000000000000000000000815260040161467390615d3e565b60405180910390fd5b8173ffffffffffffffffffffffffffffffffffffffff1663095ea7b3737506c12a824d73d9b08564d5afc22c949434755e856040518363ffffffff1660e01b81526004016146cb929190615d5c565b6020604051808303815f875af11580156146e7573d5f803e3d5ffd5b505050506040513d601f19601f8201168201806040525081019061470b9190615dad565b50737506c12a824d73d9b08564d5afc22c949434755e73ffffffffffffffffffffffffffffffffffffffff1663fb0f97a88284866040518463ffffffff1660e01b815260040161475d93929190615dd8565b5f604051808303815f87803b158015614774575f80fd5b505af1158015614786573d5f803e3d5ffd5b505050505b505050565b6040518060e001604052805f73ffffffffffffffffffffffffffffffffffffffff1681526020015f81526020015f81526020015f8152602001606081526020015f81526020015f151581525090565b5f80fd5b5f80fd5b5f819050919050565b6147f9816147e7565b8114614803575f80fd5b50565b5f81359050614814816147f0565b92915050565b5f6020828403121561482f5761482e6147df565b5b5f61483c84828501614806565b91505092915050565b5f73ffffffffffffffffffffffffffffffffffffffff82169050919050565b5f61486e82614845565b9050919050565b61487e81614864565b82525050565b5f6020820190506148975f830184614875565b92915050565b5f805f606084860312156148b4576148b36147df565b5b5f6148c186828701614806565b93505060206148d286828701614806565b92505060406148e386828701614806565b9150509250925092565b5f819050919050565b5f61491061490b61490684614845565b6148ed565b614845565b9050919050565b5f614921826148f6565b9050919050565b5f61493282614917565b9050919050565b61494281614928565b82525050565b5f60208201905061495b5f830184614939565b92915050565b61496a816147e7565b82525050565b5f6020820190506149835f830184614961565b92915050565b5f819050919050565b61499b81614989565b82525050565b5f6080820190506149b45f830187614961565b6149c16020830186614961565b6149ce6040830185614961565b6149db6060830184614992565b95945050505050565b5f80fd5b5f80fd5b5f80fd5b5f8083601f840112614a0557614a046149e4565b5b8235905067ffffffffffffffff811115614a2257614a216149e8565b5b602083019150836001820283011115614a3e57614a3d6149ec565b5b9250929050565b5f805f805f805f60c0888a031215614a6057614a5f6147df565b5b5f614a6d8a828b01614806565b9750506020614a7e8a828b01614806565b9650506040614a8f8a828b01614806565b9550506060614aa08a828b01614806565b9450506080614ab18a828b01614806565b93505060a088013567ffffffffffffffff811115614ad257614ad16147e3565b5b614ade8a828b016149f0565b925092505092959891949750929550565b5f8060408385031215614b0557614b046147df565b5b5f614b1285828601614806565b9250506020614b2385828601614806565b9150509250929050565b5f81519050919050565b5f82825260208201905092915050565b5f819050602082019050919050565b614b5f81614864565b82525050565b614b6e816147e7565b82525050565b5f81519050919050565b5f82825260208201905092915050565b5f5b83811015614bab578082015181840152602081019050614b90565b5f8484015250505050565b5f601f19601f8301169050919050565b5f614bd082614b74565b614bda8185614b7e565b9350614bea818560208601614b8e565b614bf381614bb6565b840191505092915050565b5f8115159050919050565b614c1281614bfe565b82525050565b5f60e083015f830151614c2d5f860182614b56565b506020830151614c406020860182614b65565b506040830151614c536040860182614b65565b506060830151614c666060860182614b65565b5060808301518482036080860152614c7e8282614bc6565b91505060a0830151614c9360a0860182614b65565b5060c0830151614ca660c0860182614c09565b508091505092915050565b5f614cbc8383614c18565b905092915050565b5f602082019050919050565b5f614cda82614b2d565b614ce48185614b37565b935083602082028501614cf685614b47565b805f5b85811015614d315784840389528151614d128582614cb1565b9450614d1d83614cc4565b925060208a01995050600181019050614cf9565b50829750879550505050505092915050565b5f6020820190508181035f830152614d5b8184614cd0565b905092915050565b614d6c81614864565b8114614d76575f80fd5b50565b5f81359050614d8781614d63565b92915050565b5f60208284031215614da257614da16147df565b5b5f614daf84828501614d79565b91505092915050565b614dc181614bfe565b82525050565b5f602082019050614dda5f830184614db8565b92915050565b5f60e083015f830151614df55f860182614b56565b506020830151614e086020860182614b65565b506040830151614e1b6040860182614b65565b506060830151614e2e6060860182614b65565b5060808301518482036080860152614e468282614bc6565b91505060a0830151614e5b60a0860182614b65565b5060c0830151614e6e60c0860182614c09565b508091505092915050565b5f6020820190508181035f830152614e918184614de0565b905092915050565b5f614ea382614917565b9050919050565b614eb381614e99565b82525050565b5f602082019050614ecc5f830184614eaa565b92915050565b5f819050919050565b614ee481614ed2565b8114614eee575f80fd5b50565b5f81359050614eff81614edb565b92915050565b5f805f805f805f8060e0898b031215614f2157614f206147df565b5b5f614f2e8b828c01614806565b9850506020614f3f8b828c01614806565b9750506040614f508b828c01614806565b9650506060614f618b828c01614806565b9550506080614f728b828c01614ef1565b94505060a0614f838b828c01614806565b93505060c089013567ffffffffffffffff811115614fa457614fa36147e3565b5b614fb08b828c016149f0565b92509250509295985092959890939650565b5f805f60608486031215614fd957614fd86147df565b5b5f614fe686828701614806565b9350506020614ff786828701614ef1565b925050604061500886828701614ef1565b9150509250925092565b5f82825260208201905092915050565b7f4f6e6c7920646564696361746564206d73672e73656e646572000000000000005f82015250565b5f615056601983615012565b915061506182615022565b602082019050919050565b5f6020820190508181035f8301526150838161504a565b9050919050565b7f4e487b71000000000000000000000000000000000000000000000000000000005f52603260045260245ffd5b7f4e487b71000000000000000000000000000000000000000000000000000000005f52601260045260245ffd5b7f4e487b71000000000000000000000000000000000000000000000000000000005f52601160045260245ffd5b5f61511b826147e7565b9150615126836147e7565b925082615136576151356150b7565b5b828204905092915050565b5f61514b826147e7565b9150615156836147e7565b9250828202615164816147e7565b9150828204841483151761517b5761517a6150e4565b5b5092915050565b5f61518c826147e7565b9150615197836147e7565b92508282039050818111156151af576151ae6150e4565b5b92915050565b7f4e487b71000000000000000000000000000000000000000000000000000000005f52602260045260245ffd5b5f60028204905060018216806151f957607f821691505b60208210810361520c5761520b6151b5565b5b50919050565b5f81905092915050565b7f4d6f6e6579204c696e65000000000000000000000000000000000000000000005f82015250565b5f615250600a83615212565b915061525b8261521c565b600a82019050919050565b5f61527082615244565b9150819050919050565b5f61528482614b74565b61528e8185615212565b935061529e818560208601614b8e565b80840191505092915050565b5f6152b5828461527a565b915081905092915050565b5f6152ca826147e7565b91507fffffffffffffffffffffffffffffffffffffffffffffffffffffffffffffffff82036152fc576152fb6150e4565b5b600182019050919050565b7f47616d652068617320616c7265616479207374617274656400000000000000005f82015250565b5f61533b601883615012565b915061534682615307565b602082019050919050565b5f6020820190508181035f8301526153688161532f565b9050919050565b7f6d73672e73656e64657220697320626c6f636b656400000000000000000000005f82015250565b5f6153a3601583615012565b91506153ae8261536f565b602082019050919050565b5f6020820190508181035f8301526153d081615397565b9050919050565b7f596f75206d7573742062657420736f6d657468696e67000000000000000000005f82015250565b5f61540b601683615012565b9150615416826153d7565b602082019050919050565b5f6020820190508181035f830152615438816153ff565b9050919050565b7f4e487b71000000000000000000000000000000000000000000000000000000005f52604160045260245ffd5b7f4e487b71000000000000000000000000000000000000000000000000000000005f52602160045260245ffd5b5f7fffffffff0000000000000000000000000000000000000000000000000000000082169050919050565b6154cd81615499565b82525050565b5f6020820190506154e65f8301846154c4565b92915050565b5f6154f6826147e7565b9150615501836147e7565b9250828201905080821115615519576155186150e4565b5b92915050565b5f819050815f5260205f209050919050565b5f6020601f8301049050919050565b5f82821b905092915050565b5f6008830261557b7fffffffffffffffffffffffffffffffffffffffffffffffffffffffffffffffff82615540565b6155858683615540565b95508019841693508086168417925050509392505050565b5f6155b76155b26155ad846147e7565b6148ed565b6147e7565b9050919050565b5f819050919050565b6155d08361559d565b6155e46155dc826155be565b84845461554c565b825550505050565b5f90565b6155f86155ec565b6156038184846155c7565b505050565b5b818110156156265761561b5f826155f0565b600181019050615609565b5050565b601f82111561566b5761563c8161551f565b61564584615531565b81016020851015615654578190505b61566861566085615531565b830182615608565b50505b505050565b5f82821c905092915050565b5f61568b5f1984600802615670565b1980831691505092915050565b5f6156a3838361567c565b9150826002028217905092915050565b6156bc82614b74565b67ffffffffffffffff8111156156d5576156d461543f565b5b6156df82546151e2565b6156ea82828561562a565b5f60209050601f83116001811461571b575f8415615709578287015190505b6157138582615698565b86555061577a565b601f1984166157298661551f565b5f5b828110156157505784890151825560018201915060208501945060208101905061572b565b8683101561576d5784890151615769601f89168261567c565b8355505b6001600288020188555050505b505050505050565b7f506f696e7420546f74616c0000000000000000000000000000000000000000005f82015250565b5f6157b6600b83615212565b91506157c182615782565b600b82019050919050565b5f6157d6826157aa565b9150819050919050565b5f6157ea82614ed2565b91506157f583614ed2565b92508282019050828112155f8312168382125f84121516171561581b5761581a6150e4565b5b92915050565b5f819050919050565b61583b615836826147e7565b615821565b82525050565b5f61584c828461582a565b60208201915081905092915050565b7f506f696e742053707265616400000000000000000000000000000000000000005f82015250565b5f61588f600c83615212565b915061589a8261585b565b600c82019050919050565b5f6158af82615883565b9150819050919050565b5f6158c382614b74565b6158cd8185615012565b93506158dd818560208601614b8e565b6158e681614bb6565b840191505092915050565b5f82825260208201905092915050565b828183375f83830152505050565b5f61591a83856158f1565b9350615927838584615901565b61593083614bb6565b840190509392505050565b5f6040820190508181035f83015261595381866158b9565b9050818103602083015261596881848661590f565b9050949350505050565b5f81519050919050565b5f61598682615972565b61599081856158f1565b93506159a0818560208601614b8e565b6159a981614bb6565b840191505092915050565b5f81519050919050565b5f82825260208201905092915050565b5f819050602082019050919050565b600581106159ee576159ed61546c565b5b50565b5f8190506159fe826159dd565b919050565b5f615a0d826159f1565b9050919050565b615a1d81615a03565b82525050565b5f615a2e8383615a14565b60208301905092915050565b5f602082019050919050565b5f615a50826159b4565b615a5a81856159be565b9350615a65836159ce565b805f5b83811015615a95578151615a7c8882615a23565b9750615a8783615a3a565b925050600181019050615a68565b5085935050505092915050565b5f81519050919050565b5f82825260208201905092915050565b5f819050602082019050919050565b5f82825260208201905092915050565b5f615ae582615972565b615aef8185615acb565b9350615aff818560208601614b8e565b615b0881614bb6565b840191505092915050565b5f615b1e8383615adb565b905092915050565b5f602082019050919050565b5f615b3c82615aa2565b615b468185615aac565b935083602082028501615b5885615abc565b805f5b85811015615b935784840389528151615b748582615b13565b9450615b7f83615b26565b925060208a01995050600181019050615b5b565b50829750879550505050505092915050565b5f604083015f8301518482035f860152615bbf8282615a46565b91505060208301518482036020860152615bd98282615b32565b9150508091505092915050565b5f608082019050615bf95f830187614875565b8181036020830152615c0b818661597c565b90508181036040830152615c1f8185615ba5565b9050615c2e6060830184614875565b95945050505050565b615c4081614989565b8114615c4a575f80fd5b50565b5f81519050615c5b81615c37565b92915050565b5f60208284031215615c7657615c756147df565b5b5f615c8384828501615c4d565b91505092915050565b7f4f6e6c79206465706f73697420455448206f6e20676f65726c690000000000005f82015250565b5f615cc0601a83615012565b9150615ccb82615c8c565b602082019050919050565b5f6020820190508181035f830152615ced81615cb4565b9050919050565b7f4f6e6c79206465706f7369742055534443206f6e20706f6c79676f6e000000005f82015250565b5f615d28601c83615012565b9150615d3382615cf4565b602082019050919050565b5f6020820190508181035f830152615d5581615d1c565b9050919050565b5f604082019050615d6f5f830185614875565b615d7c6020830184614961565b9392505050565b615d8c81614bfe565b8114615d96575f80fd5b50565b5f81519050615da781615d83565b92915050565b5f60208284031215615dc257615dc16147df565b5b5f615dcf84828501615d99565b91505092915050565b5f606082019050615deb5f830186614875565b615df86020830185614875565b615e056040830184614961565b94935050505056fea2646970667358221220dc6dc1c8a62c02d052017e0366223de0dc0e609649ab16a815289260aac4993a64736f6c63430008150033",
  "linkReferences": {},
  "deployedLinkReferences": {}
}