{
  "_format": "hh-sol-artifact-1",
  "contractName": "Bet",
  "sourceName": "contracts/Bet.sol",
  "abi": [
    {
      "inputs": [
        {
          "internalType": "string",
          "name": "_moneyLineFunctionHash",
          "type": "string"
        },
        {
          "internalType": "string",
          "name": "_pointTotalFunctionHash",
          "type": "string"
        },
        {
          "internalType": "string",
          "name": "_pointSpreadFunctionHash",
          "type": "string"
        }
      ],
      "stateMutability": "nonpayable",
      "type": "constructor"
    },
    {
      "inputs": [],
      "name": "automate",
      "outputs": [
        {
          "internalType": "contract IAutomate",
          "name": "",
          "type": "address"
        }
      ],
      "stateMutability": "view",
      "type": "function"
    },
    {
      "inputs": [
        {
          "internalType": "address",
          "name": "user",
          "type": "address"
        }
      ],
      "name": "blockUser",
      "outputs": [],
      "stateMutability": "nonpayable",
      "type": "function"
    },
    {
      "inputs": [
        {
          "internalType": "uint256",
          "name": "",
          "type": "uint256"
        }
      ],
      "name": "blockedUsers",
      "outputs": [
        {
          "internalType": "address",
          "name": "",
          "type": "address"
        }
      ],
      "stateMutability": "view",
      "type": "function"
    },
    {
      "inputs": [
        {
          "internalType": "address",
          "name": "user",
          "type": "address"
        }
      ],
      "name": "checkSender",
      "outputs": [
        {
          "internalType": "bool",
          "name": "",
          "type": "bool"
        }
      ],
      "stateMutability": "view",
      "type": "function"
    },
    {
      "inputs": [],
      "name": "dedicatedMsgSender",
      "outputs": [
        {
          "internalType": "address",
          "name": "",
          "type": "address"
        }
      ],
      "stateMutability": "view",
      "type": "function"
    },
    {
      "inputs": [],
      "name": "deposit",
      "outputs": [],
      "stateMutability": "payable",
      "type": "function"
    },
    {
      "inputs": [],
      "name": "fundsOwner",
      "outputs": [
        {
          "internalType": "address",
          "name": "",
          "type": "address"
        }
      ],
      "stateMutability": "view",
      "type": "function"
    },
    {
      "inputs": [],
      "name": "gelato1Balance",
      "outputs": [
        {
          "internalType": "contract IGelato1Balance",
          "name": "",
          "type": "address"
        }
      ],
      "stateMutability": "view",
      "type": "function"
    },
    {
      "inputs": [
        {
          "internalType": "address",
          "name": "web3fAddress",
          "type": "address"
        },
        {
          "internalType": "uint256",
          "name": "gameID",
          "type": "uint256"
        }
      ],
      "name": "getWeb3FunctionArgsHex",
      "outputs": [],
      "stateMutability": "pure",
      "type": "function"
    },
    {
      "inputs": [
        {
          "internalType": "uint256",
          "name": "",
          "type": "uint256"
        }
      ],
      "name": "home_team_score",
      "outputs": [
        {
          "internalType": "uint256",
          "name": "",
          "type": "uint256"
        }
      ],
      "stateMutability": "view",
      "type": "function"
    },
    {
      "inputs": [
        {
          "internalType": "uint256",
          "name": "gameID",
          "type": "uint256"
        },
        {
          "internalType": "uint256",
          "name": "teamID",
          "type": "uint256"
        },
        {
          "internalType": "uint256",
          "name": "homeTeamID",
          "type": "uint256"
        },
        {
          "internalType": "uint256",
          "name": "awayTeamID",
          "type": "uint256"
        },
        {
          "internalType": "uint256",
          "name": "startTime",
          "type": "uint256"
        },
        {
          "internalType": "bytes",
          "name": "web3FunctionArgsHex",
          "type": "bytes"
        }
      ],
      "name": "moneyLineBet",
      "outputs": [],
      "stateMutability": "payable",
      "type": "function"
    },
    {
      "inputs": [
        {
          "internalType": "uint256",
          "name": "",
          "type": "uint256"
        }
      ],
      "name": "newMoneyLineBet",
      "outputs": [
        {
          "internalType": "uint256",
          "name": "total",
          "type": "uint256"
        },
        {
          "internalType": "uint256",
          "name": "homeTeamID",
          "type": "uint256"
        },
        {
          "internalType": "uint256",
          "name": "awayTeamID",
          "type": "uint256"
        },
        {
          "internalType": "bytes32",
          "name": "taskID",
          "type": "bytes32"
        }
      ],
      "stateMutability": "view",
      "type": "function"
    },
    {
      "inputs": [
        {
          "internalType": "uint256",
          "name": "",
          "type": "uint256"
        }
      ],
      "name": "newPointSpreadBet",
      "outputs": [
        {
          "internalType": "uint256",
          "name": "total",
          "type": "uint256"
        },
        {
          "internalType": "uint256",
          "name": "homeTeamID",
          "type": "uint256"
        },
        {
          "internalType": "uint256",
          "name": "awayTeamID",
          "type": "uint256"
        },
        {
          "internalType": "bytes32",
          "name": "taskID",
          "type": "bytes32"
        }
      ],
      "stateMutability": "view",
      "type": "function"
    },
    {
      "inputs": [
        {
          "internalType": "uint256",
          "name": "",
          "type": "uint256"
        }
      ],
      "name": "newPointTotalBet",
      "outputs": [
        {
          "internalType": "uint256",
          "name": "total",
          "type": "uint256"
        },
        {
          "internalType": "uint256",
          "name": "homeTeamID",
          "type": "uint256"
        },
        {
          "internalType": "uint256",
          "name": "awayTeamID",
          "type": "uint256"
        },
        {
          "internalType": "bytes32",
          "name": "taskID",
          "type": "bytes32"
        }
      ],
      "stateMutability": "view",
      "type": "function"
    },
    {
      "inputs": [
        {
          "internalType": "uint256",
          "name": "gameID",
          "type": "uint256"
        },
        {
          "internalType": "uint256",
          "name": "teamID",
          "type": "uint256"
        },
        {
          "internalType": "uint256",
          "name": "homeTeamID",
          "type": "uint256"
        },
        {
          "internalType": "uint256",
          "name": "awayTeamID",
          "type": "uint256"
        },
        {
          "internalType": "int256",
          "name": "spread",
          "type": "int256"
        },
        {
          "internalType": "uint256",
          "name": "startTime",
          "type": "uint256"
        },
        {
          "internalType": "bytes",
          "name": "web3FunctionArgsHex",
          "type": "bytes"
        }
      ],
      "name": "pointSpreadBet",
      "outputs": [],
      "stateMutability": "payable",
      "type": "function"
    },
    {
      "inputs": [
        {
          "internalType": "uint256",
          "name": "gameID",
          "type": "uint256"
        },
        {
          "internalType": "uint256",
          "name": "overUnder",
          "type": "uint256"
        },
        {
          "internalType": "uint256",
          "name": "homeTeamID",
          "type": "uint256"
        },
        {
          "internalType": "uint256",
          "name": "awayTeamID",
          "type": "uint256"
        },
        {
          "internalType": "uint256",
          "name": "pointAmount",
          "type": "uint256"
        },
        {
          "internalType": "uint256",
          "name": "startTime",
          "type": "uint256"
        },
        {
          "internalType": "bytes",
          "name": "web3FunctionArgsHex",
          "type": "bytes"
        }
      ],
      "name": "pointTotalBet",
      "outputs": [],
      "stateMutability": "payable",
      "type": "function"
    },
    {
      "inputs": [],
      "name": "returnEscrow",
      "outputs": [
        {
          "internalType": "uint256",
          "name": "data",
          "type": "uint256"
        }
      ],
      "stateMutability": "view",
      "type": "function"
    },
    {
      "inputs": [
        {
          "internalType": "uint256",
          "name": "gameID",
          "type": "uint256"
        },
        {
          "internalType": "uint256",
          "name": "teamID",
          "type": "uint256"
        }
      ],
      "name": "returnMoneyLineBetReceipt",
      "outputs": [
        {
          "components": [
            {
              "internalType": "address",
              "name": "addr",
              "type": "address"
            },
            {
              "internalType": "uint256",
              "name": "amount",
              "type": "uint256"
            },
            {
              "internalType": "uint256",
              "name": "teamID",
              "type": "uint256"
            },
            {
              "internalType": "uint256",
              "name": "gameID",
              "type": "uint256"
            },
            {
              "internalType": "string",
              "name": "betType",
              "type": "string"
            },
            {
              "internalType": "uint256",
              "name": "time",
              "type": "uint256"
            },
            {
              "internalType": "bool",
              "name": "active",
              "type": "bool"
            }
          ],
          "internalType": "struct Bet.Transaction",
          "name": "data",
          "type": "tuple"
        }
      ],
      "stateMutability": "view",
      "type": "function"
    },
    {
      "inputs": [
        {
          "internalType": "uint256",
          "name": "gameID",
          "type": "uint256"
        },
        {
          "internalType": "uint256",
          "name": "teamID",
          "type": "uint256"
        }
      ],
      "name": "returnMoneyLineBetTotal",
      "outputs": [
        {
          "internalType": "uint256",
          "name": "data",
          "type": "uint256"
        }
      ],
      "stateMutability": "view",
      "type": "function"
    },
    {
      "inputs": [
        {
          "internalType": "uint256",
          "name": "gameID",
          "type": "uint256"
        },
        {
          "internalType": "uint256",
          "name": "bettingTeamID",
          "type": "uint256"
        }
      ],
      "name": "returnOdds",
      "outputs": [
        {
          "internalType": "uint256",
          "name": "odds",
          "type": "uint256"
        }
      ],
      "stateMutability": "view",
      "type": "function"
    },
    {
      "inputs": [
        {
          "internalType": "uint256",
          "name": "gameID",
          "type": "uint256"
        }
      ],
      "name": "returnPointSpreadBetReceipt",
      "outputs": [
        {
          "components": [
            {
              "internalType": "address",
              "name": "addr",
              "type": "address"
            },
            {
              "internalType": "uint256",
              "name": "amount",
              "type": "uint256"
            },
            {
              "internalType": "uint256",
              "name": "teamID",
              "type": "uint256"
            },
            {
              "internalType": "uint256",
              "name": "gameID",
              "type": "uint256"
            },
            {
              "internalType": "string",
              "name": "betType",
              "type": "string"
            },
            {
              "internalType": "uint256",
              "name": "time",
              "type": "uint256"
            },
            {
              "internalType": "bool",
              "name": "active",
              "type": "bool"
            }
          ],
          "internalType": "struct Bet.Transaction",
          "name": "data",
          "type": "tuple"
        }
      ],
      "stateMutability": "view",
      "type": "function"
    },
    {
      "inputs": [
        {
          "internalType": "uint256",
          "name": "gameID",
          "type": "uint256"
        },
        {
          "internalType": "uint256",
          "name": "teamID",
          "type": "uint256"
        }
      ],
      "name": "returnPointSpreadBetTotal",
      "outputs": [
        {
          "internalType": "uint256",
          "name": "data",
          "type": "uint256"
        }
      ],
      "stateMutability": "view",
      "type": "function"
    },
    {
      "inputs": [
        {
          "internalType": "uint256",
          "name": "gameID",
          "type": "uint256"
        }
      ],
      "name": "returnPointTotalBetReceipt",
      "outputs": [
        {
          "components": [
            {
              "internalType": "address",
              "name": "addr",
              "type": "address"
            },
            {
              "internalType": "uint256",
              "name": "amount",
              "type": "uint256"
            },
            {
              "internalType": "uint256",
              "name": "teamID",
              "type": "uint256"
            },
            {
              "internalType": "uint256",
              "name": "gameID",
              "type": "uint256"
            },
            {
              "internalType": "string",
              "name": "betType",
              "type": "string"
            },
            {
              "internalType": "uint256",
              "name": "time",
              "type": "uint256"
            },
            {
              "internalType": "bool",
              "name": "active",
              "type": "bool"
            }
          ],
          "internalType": "struct Bet.Transaction",
          "name": "data",
          "type": "tuple"
        }
      ],
      "stateMutability": "view",
      "type": "function"
    },
    {
      "inputs": [
        {
          "internalType": "uint256",
          "name": "gameID",
          "type": "uint256"
        }
      ],
      "name": "returnPointTotalBetTotal",
      "outputs": [
        {
          "internalType": "uint256",
          "name": "data",
          "type": "uint256"
        }
      ],
      "stateMutability": "view",
      "type": "function"
    },
    {
      "inputs": [],
      "name": "returnReceipts",
      "outputs": [
        {
          "components": [
            {
              "internalType": "address",
              "name": "addr",
              "type": "address"
            },
            {
              "internalType": "uint256",
              "name": "amount",
              "type": "uint256"
            },
            {
              "internalType": "uint256",
              "name": "teamID",
              "type": "uint256"
            },
            {
              "internalType": "uint256",
              "name": "gameID",
              "type": "uint256"
            },
            {
              "internalType": "string",
              "name": "betType",
              "type": "string"
            },
            {
              "internalType": "uint256",
              "name": "time",
              "type": "uint256"
            },
            {
              "internalType": "bool",
              "name": "active",
              "type": "bool"
            }
          ],
          "internalType": "struct Bet.Transaction[]",
          "name": "data",
          "type": "tuple[]"
        }
      ],
      "stateMutability": "view",
      "type": "function"
    },
    {
      "inputs": [
        {
          "internalType": "uint256",
          "name": "gameID",
          "type": "uint256"
        },
        {
          "internalType": "uint256",
          "name": "winnerID",
          "type": "uint256"
        },
        {
          "internalType": "uint256",
          "name": "loserID",
          "type": "uint256"
        }
      ],
      "name": "rewardMoneyLineWinners",
      "outputs": [],
      "stateMutability": "nonpayable",
      "type": "function"
    },
    {
      "inputs": [
        {
          "internalType": "uint256",
          "name": "gameID",
          "type": "uint256"
        },
        {
          "internalType": "int256",
          "name": "homeScore",
          "type": "int256"
        },
        {
          "internalType": "int256",
          "name": "awayScore",
          "type": "int256"
        },
        {
          "internalType": "uint256",
          "name": "homeTeamID",
          "type": "uint256"
        },
        {
          "internalType": "uint256",
          "name": "awayTeamID",
          "type": "uint256"
        }
      ],
      "name": "rewardPointSpreadWinners",
      "outputs": [],
      "stateMutability": "nonpayable",
      "type": "function"
    },
    {
      "inputs": [
        {
          "internalType": "uint256",
          "name": "gameID",
          "type": "uint256"
        },
        {
          "internalType": "uint256",
          "name": "total",
          "type": "uint256"
        }
      ],
      "name": "rewardPointTotalWinners",
      "outputs": [],
      "stateMutability": "nonpayable",
      "type": "function"
    },
    {
      "inputs": [
        {
          "internalType": "uint256",
          "name": "",
          "type": "uint256"
        }
      ],
      "name": "totalBetOnGame",
      "outputs": [
        {
          "internalType": "uint256",
          "name": "",
          "type": "uint256"
        }
      ],
      "stateMutability": "view",
      "type": "function"
    },
    {
      "inputs": [
        {
          "internalType": "uint256",
          "name": "",
          "type": "uint256"
        },
        {
          "internalType": "uint256",
          "name": "",
          "type": "uint256"
        }
      ],
      "name": "totalBetOnTeam",
      "outputs": [
        {
          "internalType": "uint256",
          "name": "",
          "type": "uint256"
        }
      ],
      "stateMutability": "view",
      "type": "function"
    },
    {
      "inputs": [
        {
          "internalType": "address",
          "name": "",
          "type": "address"
        }
      ],
      "name": "userReceipts",
      "outputs": [
        {
          "internalType": "uint256",
          "name": "escrow",
          "type": "uint256"
        }
      ],
      "stateMutability": "view",
      "type": "function"
    },
    {
      "inputs": [
        {
          "internalType": "uint256",
          "name": "",
          "type": "uint256"
        }
      ],
      "name": "visitor_team_score",
      "outputs": [
        {
          "internalType": "uint256",
          "name": "",
          "type": "uint256"
        }
      ],
      "stateMutability": "view",
      "type": "function"
    }
  ],
  "bytecode": "0x61010060405234801562000011575f80fd5b5060405162006b5938038062006b59833981810160405281019062000037919062000508565b732a6c106ae13b558bb9e2ec64bd2f1f7beff3a5e03081308173ffffffffffffffffffffffffffffffffffffffff1660808173ffffffffffffffffffffffffffffffffffffffff16815250508173ffffffffffffffffffffffffffffffffffffffff1663573ea5756040518163ffffffff1660e01b8152600401602060405180830381865afa158015620000cd573d5f803e3d5ffd5b505050506040513d601f19601f82011682018060405250810190620000f391906200061f565b73ffffffffffffffffffffffffffffffffffffffff1660c08173ffffffffffffffffffffffffffffffffffffffff16815250505f8273ffffffffffffffffffffffffffffffffffffffff1663cd3d4fb960026040518263ffffffff1660e01b8152600401620001639190620006cb565b602060405180830381865afa1580156200017f573d5f803e3d5ffd5b505050506040513d601f19601f82011682018060405250810190620001a5919062000728565b90505f8173ffffffffffffffffffffffffffffffffffffffff1663ba1d0ff46040518163ffffffff1660e01b8152600401602060405180830381865afa158015620001f2573d5f803e3d5ffd5b505050506040513d601f19601f8201168201806040525081019062000218919062000728565b90508073ffffffffffffffffffffffffffffffffffffffff1663ded89a7c846040518263ffffffff1660e01b815260040162000255919062000769565b6040805180830381865afa15801562000270573d5f803e3d5ffd5b505050506040513d601f19601f82011682018060405250810190620002969190620007be565b508073ffffffffffffffffffffffffffffffffffffffff1660a09073ffffffffffffffffffffffffffffffffffffffff1681525050505050508073ffffffffffffffffffffffffffffffffffffffff1660e08173ffffffffffffffffffffffffffffffffffffffff16815250505050335f806101000a81548173ffffffffffffffffffffffffffffffffffffffff021916908373ffffffffffffffffffffffffffffffffffffffff160217905550826001908162000355919062000a3a565b50816003908162000367919062000a3a565b50806002908162000379919062000a3a565b5050505062000b1e565b5f604051905090565b5f80fd5b5f80fd5b5f80fd5b5f80fd5b5f601f19601f8301169050919050565b7f4e487b71000000000000000000000000000000000000000000000000000000005f52604160045260245ffd5b620003e4826200039c565b810181811067ffffffffffffffff82111715620004065762000405620003ac565b5b80604052505050565b5f6200041a62000383565b9050620004288282620003d9565b919050565b5f67ffffffffffffffff8211156200044a5762000449620003ac565b5b62000455826200039c565b9050602081019050919050565b5f5b838110156200048157808201518184015260208101905062000464565b5f8484015250505050565b5f620004a26200049c846200042d565b6200040f565b905082815260208101848484011115620004c157620004c062000398565b5b620004ce84828562000462565b509392505050565b5f82601f830112620004ed57620004ec62000394565b5b8151620004ff8482602086016200048c565b91505092915050565b5f805f606084860312156200052257620005216200038c565b5b5f84015167ffffffffffffffff81111562000542576200054162000390565b5b6200055086828701620004d6565b935050602084015167ffffffffffffffff81111562000574576200057362000390565b5b6200058286828701620004d6565b925050604084015167ffffffffffffffff811115620005a657620005a562000390565b5b620005b486828701620004d6565b9150509250925092565b5f73ffffffffffffffffffffffffffffffffffffffff82169050919050565b5f620005e982620005be565b9050919050565b620005fb81620005dd565b811462000606575f80fd5b50565b5f815190506200061981620005f0565b92915050565b5f602082840312156200063757620006366200038c565b5b5f620006468482850162000609565b91505092915050565b7f4e487b71000000000000000000000000000000000000000000000000000000005f52602160045260245ffd5b6005811062000690576200068f6200064f565b5b50565b5f819050620006a2826200067c565b919050565b5f620006b38262000693565b9050919050565b620006c581620006a7565b82525050565b5f602082019050620006e05f830184620006ba565b92915050565b5f620006f282620005be565b9050919050565b6200070481620006e6565b81146200070f575f80fd5b50565b5f815190506200072281620006f9565b92915050565b5f6020828403121562000740576200073f6200038c565b5b5f6200074f8482850162000712565b91505092915050565b6200076381620006e6565b82525050565b5f6020820190506200077e5f83018462000758565b92915050565b5f8115159050919050565b6200079a8162000784565b8114620007a5575f80fd5b50565b5f81519050620007b8816200078f565b92915050565b5f8060408385031215620007d757620007d66200038c565b5b5f620007e68582860162000712565b9250506020620007f985828601620007a8565b9150509250929050565b5f81519050919050565b7f4e487b71000000000000000000000000000000000000000000000000000000005f52602260045260245ffd5b5f60028204905060018216806200085257607f821691505b6020821081036200086857620008676200080d565b5b50919050565b5f819050815f5260205f209050919050565b5f6020601f8301049050919050565b5f82821b905092915050565b5f60088302620008cc7fffffffffffffffffffffffffffffffffffffffffffffffffffffffffffffffff826200088f565b620008d886836200088f565b95508019841693508086168417925050509392505050565b5f819050919050565b5f819050919050565b5f620009226200091c6200091684620008f0565b620008f9565b620008f0565b9050919050565b5f819050919050565b6200093d8362000902565b620009556200094c8262000929565b8484546200089b565b825550505050565b5f90565b6200096b6200095d565b6200097881848462000932565b505050565b5b818110156200099f57620009935f8262000961565b6001810190506200097e565b5050565b601f821115620009ee57620009b8816200086e565b620009c38462000880565b81016020851015620009d3578190505b620009eb620009e28562000880565b8301826200097d565b50505b505050565b5f82821c905092915050565b5f62000a105f1984600802620009f3565b1980831691505092915050565b5f62000a2a8383620009ff565b9150826002028217905092915050565b62000a458262000803565b67ffffffffffffffff81111562000a615762000a60620003ac565b5b62000a6d82546200083a565b62000a7a828285620009a3565b5f60209050601f83116001811462000ab0575f841562000a9b578287015190505b62000aa7858262000a1d565b86555062000b16565b601f19841662000ac0866200086e565b5f5b8281101562000ae95784890151825560018201915060208501945060208101905062000ac2565b8683101562000b09578489015162000b05601f891682620009ff565b8355505b6001600288020188555050505b505050505050565b60805160a05160c05160e051615fee62000b6b5f395f611d8f01525f50505f818161084a01528181611237015281816131940152613cc201525f818161111401526145d10152615fee5ff3fe6080604052600436106101e2575f3560e01c80636505a05d11610101578063a910e4a511610094578063d0e30db011610063578063d0e30db01461074f578063ec5a24d714610759578063f227ce4d14610795578063f782a754146107d1576101e2565b8063a910e4a514610684578063a91faba2146106c0578063ce914f73146106ff578063cf3690a814610727576101e2565b80638edd3971116100d05780638edd3971146105a55780638ee95f9f146105e4578063914989fd1461060c578063a4786f3d14610648576101e2565b80636505a05d14610507578063686ff780146105235780637ea4178a1461053f57806380eb6d0414610569576101e2565b80632b3a4ef61161017957806346ee3c591161014857806346ee3c591461043b57806347f53fc914610465578063481042e2146104a157806357fb1d67146104dd576101e2565b80632b3a4ef6146103915780633946f666146103cd5780633da01325146103f75780633e43a6f61461041f576101e2565b806323821c21116101b557806323821c21146102b05780632429827f146102ec578063245a2fad1461032b57806328f150eb14610367576101e2565b806302cba3c3146101e657806303bfeb2014610222578063049aacfe1461024a57806308bc451e14610274575b5f80fd5b3480156101f1575f80fd5b5061020c600480360381019061020791906149db565b61080d565b6040516102199190614a45565b60405180910390f35b34801561022d575f80fd5b5061024860048036038101906102439190614a5e565b610848565b005b348015610255575f80fd5b5061025e611112565b60405161026b9190614b09565b60405180910390f35b34801561027f575f80fd5b5061029a60048036038101906102959190614b4c565b611136565b6040516102a79190614b91565b60405180910390f35b3480156102bb575f80fd5b506102d660048036038101906102d191906149db565b6111de565b6040516102e39190614bb9565b60405180910390f35b3480156102f7575f80fd5b50610312600480360381019061030d91906149db565b6111f3565b6040516103229493929190614bea565b60405180910390f35b348015610336575f80fd5b50610351600480360381019061034c91906149db565b611220565b60405161035e9190614bb9565b60405180910390f35b348015610372575f80fd5b5061037b611235565b6040516103889190614a45565b60405180910390f35b34801561039c575f80fd5b506103b760048036038101906103b29190614c2d565b611259565b6040516103c49190614bb9565b60405180910390f35b3480156103d8575f80fd5b506103e1611279565b6040516103ee9190614e76565b60405180910390f35b348015610402575f80fd5b5061041d60048036038101906104189190614b4c565b611439565b005b61043960048036038101906104349190614ef7565b6114f2565b005b348015610446575f80fd5b5061044f611d8d565b60405161045c9190614a45565b60405180910390f35b348015610470575f80fd5b5061048b60048036038101906104869190614c2d565b611db1565b6040516104989190614bb9565b60405180910390f35b3480156104ac575f80fd5b506104c760048036038101906104c291906149db565b611dde565b6040516104d4919061503a565b60405180910390f35b3480156104e8575f80fd5b506104f1611f6d565b6040516104fe919061507a565b60405180910390f35b610521600480360381019061051c9190615093565b611f85565b005b61053d60048036038101906105389190615183565b612855565b005b34801561054a575f80fd5b5061055361310b565b6040516105609190614bb9565b60405180910390f35b348015610574575f80fd5b5061058f600480360381019061058a91906149db565b613151565b60405161059c9190614bb9565b60405180910390f35b3480156105b0575f80fd5b506105cb60048036038101906105c691906149db565b613166565b6040516105db9493929190614bea565b60405180910390f35b3480156105ef575f80fd5b5061060a60048036038101906106059190614c2d565b613192565b005b348015610617575f80fd5b50610632600480360381019061062d91906149db565b61394b565b60405161063f919061503a565b60405180910390f35b348015610653575f80fd5b5061066e60048036038101906106699190614b4c565b613ada565b60405161067b9190614bb9565b60405180910390f35b34801561068f575f80fd5b506106aa60048036038101906106a59190614c2d565b613af4565b6040516106b7919061503a565b60405180910390f35b3480156106cb575f80fd5b506106e660048036038101906106e191906149db565b613c93565b6040516106f69493929190614bea565b60405180910390f35b34801561070a575f80fd5b5061072560048036038101906107209190615240565b613cc0565b005b348015610732575f80fd5b5061074d600480360381019061074891906152b7565b614494565b005b6107576144a3565b005b348015610764575f80fd5b5061077f600480360381019061077a9190614c2d565b6144e3565b60405161078c9190614bb9565b60405180910390f35b3480156107a0575f80fd5b506107bb60048036038101906107b69190614c2d565b614510565b6040516107c89190614bb9565b60405180910390f35b3480156107dc575f80fd5b506107f760048036038101906107f291906149db565b61456c565b6040516108049190614bb9565b60405180910390f35b6004818154811061081c575f80fd5b905f5260205f20015f915054906101000a900473ffffffffffffffffffffffffffffffffffffffff1681565b7f000000000000000000000000000000000000000000000000000000000000000073ffffffffffffffffffffffffffffffffffffffff163373ffffffffffffffffffffffffffffffffffffffff16146108d6576040517f08c379a00000000000000000000000000000000000000000000000000000000081526004016108cd9061534f565b60405180910390fd5b5f5b60085f8581526020019081526020015f206004015f8481526020019081526020015f2080549050811015610d42575f60085f8681526020019081526020015f206004015f8581526020019081526020015f20828154811061093c5761093b61536d565b5b905f5260205f20015f9054906101000a900473ffffffffffffffffffffffffffffffffffffffff1690505f60085f8781526020019081526020015f206005015f8681526020019081526020015f205f8373ffffffffffffffffffffffffffffffffffffffff1673ffffffffffffffffffffffffffffffffffffffff1681526020019081526020015f206001015490505f60085f8881526020019081526020015f206001015f8781526020019081526020015f2054826109fb91906153f4565b9050610a0683611136565b610a6d578273ffffffffffffffffffffffffffffffffffffffff166108fc8260085f8b81526020019081526020015f205f0154610a439190615424565b90811502906040515f60405180830381858888f19350505050158015610a6b573d5f803e3d5ffd5b505b8160055f8573ffffffffffffffffffffffffffffffffffffffff1673ffffffffffffffffffffffffffffffffffffffff1681526020019081526020015f205f015f828254610abb9190615465565b925050819055505f5b60055f8573ffffffffffffffffffffffffffffffffffffffff1673ffffffffffffffffffffffffffffffffffffffff1681526020019081526020015f2060010180549050811015610d2b575f60055f8673ffffffffffffffffffffffffffffffffffffffff1673ffffffffffffffffffffffffffffffffffffffff1681526020019081526020015f206001018281548110610b6257610b6161536d565b5b905f5260205f2090600702016040518060e00160405290815f82015f9054906101000a900473ffffffffffffffffffffffffffffffffffffffff1673ffffffffffffffffffffffffffffffffffffffff1673ffffffffffffffffffffffffffffffffffffffff168152602001600182015481526020016002820154815260200160038201548152602001600482018054610bfb906154c5565b80601f0160208091040260200160405190810160405280929190818152602001828054610c27906154c5565b8015610c725780601f10610c4957610100808354040283529160200191610c72565b820191905f5260205f20905b815481529060010190602001808311610c5557829003601f168201915b5050505050815260200160058201548152602001600682015f9054906101000a900460ff1615151515815250509050888160600151148015610d015750604051602001610cbe90615549565b604051602081830303815290604052805190602001208160800151604051602001610ce9919061558d565b60405160208183030381529060405280519060200120145b15610d17575f8160c00190151590811515815250505b508080610d23906155a3565b915050610ac4565b505050508080610d3a906155a3565b9150506108d8565b505f5b60085f8581526020019081526020015f206004015f8381526020019081526020015f208054905081101561110c575f60085f8681526020019081526020015f206004015f8481526020019081526020015f208281548110610da957610da861536d565b5b905f5260205f20015f9054906101000a900473ffffffffffffffffffffffffffffffffffffffff1690505f60085f8781526020019081526020015f206005015f8581526020019081526020015f205f8373ffffffffffffffffffffffffffffffffffffffff1673ffffffffffffffffffffffffffffffffffffffff1681526020019081526020015f206001015490508060055f8473ffffffffffffffffffffffffffffffffffffffff1673ffffffffffffffffffffffffffffffffffffffff1681526020019081526020015f205f015f828254610e869190615465565b925050819055505f5b60055f8473ffffffffffffffffffffffffffffffffffffffff1673ffffffffffffffffffffffffffffffffffffffff1681526020019081526020015f20600101805490508110156110f6575f60055f8573ffffffffffffffffffffffffffffffffffffffff1673ffffffffffffffffffffffffffffffffffffffff1681526020019081526020015f206001018281548110610f2d57610f2c61536d565b5b905f5260205f2090600702016040518060e00160405290815f82015f9054906101000a900473ffffffffffffffffffffffffffffffffffffffff1673ffffffffffffffffffffffffffffffffffffffff1673ffffffffffffffffffffffffffffffffffffffff168152602001600182015481526020016002820154815260200160038201548152602001600482018054610fc6906154c5565b80601f0160208091040260200160405190810160405280929190818152602001828054610ff2906154c5565b801561103d5780601f106110145761010080835404028352916020019161103d565b820191905f5260205f20905b81548152906001019060200180831161102057829003601f168201915b5050505050815260200160058201548152602001600682015f9054906101000a900460ff16151515158152505090508781606001511480156110cc575060405160200161108990615549565b6040516020818303038152906040528051906020012081608001516040516020016110b4919061558d565b60405160208183030381529060405280519060200120145b156110e2575f8160c00190151590811515815250505b5080806110ee906155a3565b915050610e8f565b5050508080611104906155a3565b915050610d45565b50505050565b7f000000000000000000000000000000000000000000000000000000000000000081565b5f805f90505b6004805490508110156111d4578273ffffffffffffffffffffffffffffffffffffffff16600482815481106111745761117361536d565b5b905f5260205f20015f9054906101000a900473ffffffffffffffffffffffffffffffffffffffff1673ffffffffffffffffffffffffffffffffffffffff16036111c15760019150506111d9565b80806111cc906155a3565b91505061113c565b505f90505b919050565b6006602052805f5260405f205f915090505481565b6009602052805f5260405f205f915090508060010154908060030154908060040154908060070154905084565b600b602052805f5260405f205f915090505481565b7f000000000000000000000000000000000000000000000000000000000000000081565b6007602052815f5260405f20602052805f5260405f205f91509150505481565b606060055f3373ffffffffffffffffffffffffffffffffffffffff1673ffffffffffffffffffffffffffffffffffffffff1681526020019081526020015f20600101805480602002602001604051908101604052809291908181526020015f905b82821015611430578382905f5260205f2090600702016040518060e00160405290815f82015f9054906101000a900473ffffffffffffffffffffffffffffffffffffffff1673ffffffffffffffffffffffffffffffffffffffff1673ffffffffffffffffffffffffffffffffffffffff16815260200160018201548152602001600282015481526020016003820154815260200160048201805461137d906154c5565b80601f01602080910402602001604051908101604052809291908181526020018280546113a9906154c5565b80156113f45780601f106113cb576101008083540402835291602001916113f4565b820191905f5260205f20905b8154815290600101906020018083116113d757829003601f168201915b5050505050815260200160058201548152602001600682015f9054906101000a900460ff161515151581525050815260200190600101906112da565b50505050905090565b5f8054906101000a900473ffffffffffffffffffffffffffffffffffffffff1673ffffffffffffffffffffffffffffffffffffffff163373ffffffffffffffffffffffffffffffffffffffff161461148f575f80fd5b600481908060018154018082558091505060019003905f5260205f20015f9091909190916101000a81548173ffffffffffffffffffffffffffffffffffffffff021916908373ffffffffffffffffffffffffffffffffffffffff16021790555050565b3273ffffffffffffffffffffffffffffffffffffffff163373ffffffffffffffffffffffffffffffffffffffff1614611529575f80fd5b825f10611534575f80fd5b61153d33611136565b15611546575f80fd5b5f3411611551575f80fd5b5f60085f8981526020019081526020015f2090505f80191660085f8a81526020019081526020015f2060060154036117e3575f6040518060400160405280600267ffffffffffffffff8111156115aa576115a96155ea565b5b6040519080825280602002602001820160405280156115d85781602001602082028036833780820191505090505b508152602001600267ffffffffffffffff8111156115f9576115f86155ea565b5b60405190808252806020026020018201604052801561162c57816020015b60608152602001906001900390816116175790505b5081525090506002815f01515f8151811061164a5761164961536d565b5b6020026020010190600481111561166457611663615617565b5b9081600481111561167857611677615617565b5b815250506004815f01516001815181106116955761169461536d565b5b602002602001019060048111156116af576116ae615617565b5b908160048111156116c3576116c2615617565b5b815250506116cf614589565b81602001515f815181106116e6576116e561536d565b5b602002602001018190525061178460018054611701906154c5565b80601f016020809104026020016040519081016040528092919081815260200182805461172d906154c5565b80156117785780601f1061174f57610100808354040283529160200191611778565b820191905f5260205f20905b81548152906001019060200180831161175b57829003601f168201915b5050505050858561459f565b816020015160018151811061179c5761179b61536d565b5b60200260200101819052506117d9306303bfeb2060e01b6040516020016117c3919061567e565b604051602081830303815290604052835f6145ce565b8260060181905550505b5f60646005346117f39190615424565b6117fd91906153f4565b90505f60055f3373ffffffffffffffffffffffffffffffffffffffff1673ffffffffffffffffffffffffffffffffffffffff1681526020019081526020015f2060010190505f836005015f8b81526020019081526020015f205f3373ffffffffffffffffffffffffffffffffffffffff1673ffffffffffffffffffffffffffffffffffffffff1681526020019081526020015f2090505f846004015f8c81526020019081526020015f2090505f8054906101000a900473ffffffffffffffffffffffffffffffffffffffff1673ffffffffffffffffffffffffffffffffffffffff166108fc8590811502906040515f60405180830381858888f1935050505015801561190b573d5f803e3d5ffd5b5083346119189190615465565b60055f3373ffffffffffffffffffffffffffffffffffffffff1673ffffffffffffffffffffffffffffffffffffffff1681526020019081526020015f205f015f8282546119659190615697565b92505081905550826040518060e001604052803373ffffffffffffffffffffffffffffffffffffffff16815260200186346119a09190615465565b81526020018d81526020018e81526020016040518060400160405280600a81526020017f4d6f6e6579204c696e6500000000000000000000000000000000000000000000815250815260200142815260200160011515815250908060018154018082558091505060019003905f5260205f2090600702015f909190919091505f820151815f015f6101000a81548173ffffffffffffffffffffffffffffffffffffffff021916908373ffffffffffffffffffffffffffffffffffffffff1602179055506020820151816001015560408201518160020155606082015181600301556080820151816004019081611a96919061585e565b5060a0820151816005015560c0820151816006015f6101000a81548160ff02191690831515021790555050503460065f8e81526020019081526020015f205f828254611ae29190615697565b925050819055503460075f8e81526020019081526020015f205f8d81526020019081526020015f205f828254611b189190615697565b925050819055508334611b2b9190615465565b855f015f828254611b3c9190615697565b925050819055508334611b4f9190615465565b856001015f8d81526020019081526020015f205f828254611b709190615697565b925050819055508985600201819055508885600301819055503373ffffffffffffffffffffffffffffffffffffffff1660085f8e81526020019081526020015f206005015f8d81526020019081526020015f205f3373ffffffffffffffffffffffffffffffffffffffff1673ffffffffffffffffffffffffffffffffffffffff1681526020019081526020015f205f015f9054906101000a900473ffffffffffffffffffffffffffffffffffffffff1673ffffffffffffffffffffffffffffffffffffffff1614611c9b578033908060018154018082558091505060019003905f5260205f20015f9091909190916101000a81548173ffffffffffffffffffffffffffffffffffffffff021916908373ffffffffffffffffffffffffffffffffffffffff1602179055505b33825f015f6101000a81548173ffffffffffffffffffffffffffffffffffffffff021916908373ffffffffffffffffffffffffffffffffffffffff1602179055508334611ce89190615465565b826001015f828254611cfa9190615697565b925050819055508a82600201819055508b82600301819055506040518060400160405280600a81526020017f4d6f6e6579204c696e6500000000000000000000000000000000000000000000815250826004019081611d59919061585e565b504282600501819055506001826006015f6101000a81548160ff021916908315150217905550505050505050505050505050565b7f000000000000000000000000000000000000000000000000000000000000000081565b5f60085f8481526020019081526020015f206001015f8381526020019081526020015f2054905092915050565b611de6614951565b60095f8381526020019081526020015f206006015f3373ffffffffffffffffffffffffffffffffffffffff1673ffffffffffffffffffffffffffffffffffffffff1681526020019081526020015f206040518060e00160405290815f82015f9054906101000a900473ffffffffffffffffffffffffffffffffffffffff1673ffffffffffffffffffffffffffffffffffffffff1673ffffffffffffffffffffffffffffffffffffffff168152602001600182015481526020016002820154815260200160038201548152602001600482018054611ec2906154c5565b80601f0160208091040260200160405190810160405280929190818152602001828054611eee906154c5565b8015611f395780601f10611f1057610100808354040283529160200191611f39565b820191905f5260205f20905b815481529060010190602001808311611f1c57829003601f168201915b5050505050815260200160058201548152602001600682015f9054906101000a900460ff1615151515815250509050919050565b737506c12a824d73d9b08564d5afc22c949434755e81565b3273ffffffffffffffffffffffffffffffffffffffff163373ffffffffffffffffffffffffffffffffffffffff1614611fbc575f80fd5b825f10611fc7575f80fd5b611fd033611136565b15611fd9575f80fd5b3373ffffffffffffffffffffffffffffffffffffffff16600a5f8a81526020019081526020015f206005015f3373ffffffffffffffffffffffffffffffffffffffff1673ffffffffffffffffffffffffffffffffffffffff1681526020019081526020015f205f015f9054906101000a900473ffffffffffffffffffffffffffffffffffffffff1673ffffffffffffffffffffffffffffffffffffffff1603612080575f80fd5b5f341161208b575f80fd5b5f600a5f8a81526020019081526020015f2090505f801916600a5f8b81526020019081526020015f20600601540361231d575f6040518060400160405280600267ffffffffffffffff8111156120e4576120e36155ea565b5b6040519080825280602002602001820160405280156121125781602001602082028036833780820191505090505b508152602001600267ffffffffffffffff811115612133576121326155ea565b5b60405190808252806020026020018201604052801561216657816020015b60608152602001906001900390816121515790505b5081525090506002815f01515f815181106121845761218361536d565b5b6020026020010190600481111561219e5761219d615617565b5b908160048111156121b2576121b1615617565b5b815250506004815f01516001815181106121cf576121ce61536d565b5b602002602001019060048111156121e9576121e8615617565b5b908160048111156121fd576121fc615617565b5b81525050612209614589565b81602001515f815181106122205761221f61536d565b5b60200260200101819052506122be6003805461223b906154c5565b80601f0160208091040260200160405190810160405280929190818152602001828054612267906154c5565b80156122b25780601f10612289576101008083540402835291602001916122b2565b820191905f5260205f20905b81548152906001019060200180831161229557829003601f168201915b5050505050858561459f565b81602001516001815181106122d6576122d561536d565b5b602002602001018190525061231330638ee95f9f60e01b6040516020016122fd919061567e565b604051602081830303815290604052835f6145ce565b8260060181905550505b5f606460053461232d9190615424565b61233791906153f4565b90505f60055f3373ffffffffffffffffffffffffffffffffffffffff1673ffffffffffffffffffffffffffffffffffffffff1681526020019081526020015f2060010190505f836005015f3373ffffffffffffffffffffffffffffffffffffffff1673ffffffffffffffffffffffffffffffffffffffff1681526020019081526020015f2090505f8460040190505f8054906101000a900473ffffffffffffffffffffffffffffffffffffffff1673ffffffffffffffffffffffffffffffffffffffff166108fc8590811502906040515f60405180830381858888f19350505050158015612427573d5f803e3d5ffd5b5083346124349190615465565b60055f3373ffffffffffffffffffffffffffffffffffffffff1673ffffffffffffffffffffffffffffffffffffffff1681526020019081526020015f205f015f8282546124819190615697565b92505081905550826040518060e001604052803373ffffffffffffffffffffffffffffffffffffffff16815260200186346124bc9190615465565b81526020018e81526020018f81526020016040518060400160405280600b81526020017f506f696e7420546f74616c000000000000000000000000000000000000000000815250815260200142815260200160011515815250908060018154018082558091505060019003905f5260205f2090600702015f909190919091505f820151815f015f6101000a81548173ffffffffffffffffffffffffffffffffffffffff021916908373ffffffffffffffffffffffffffffffffffffffff16021790555060208201518160010155604082015181600201556060820151816003015560808201518160040190816125b2919061585e565b5060a0820151816005015560c0820151816006015f6101000a81548160ff02191690831515021790555050503460065f8f81526020019081526020015f205f8282546125fe9190615697565b9250508190555060023461261291906153f4565b60075f8f81526020019081526020015f205f8d81526020019081526020015f205f8282546126409190615697565b9250508190555060023461265491906153f4565b60075f8f81526020019081526020015f205f8c81526020019081526020015f205f8282546126829190615697565b9250508190555083346126959190615465565b856001015f8282546126a79190615697565b925050819055508a856002018190555089856003018190555088855f015f3373ffffffffffffffffffffffffffffffffffffffff1673ffffffffffffffffffffffffffffffffffffffff1681526020019081526020015f20819055508033908060018154018082558091505060019003905f5260205f20015f9091909190916101000a81548173ffffffffffffffffffffffffffffffffffffffff021916908373ffffffffffffffffffffffffffffffffffffffff16021790555033825f015f6101000a81548173ffffffffffffffffffffffffffffffffffffffff021916908373ffffffffffffffffffffffffffffffffffffffff16021790555083346127af9190615465565b826001015f8282546127c19190615697565b925050819055508b82600201819055508c82600301819055506040518060400160405280600b81526020017f506f696e7420546f74616c000000000000000000000000000000000000000000815250826004019081612820919061585e565b504282600501819055506001826006015f6101000a81548160ff02191690831515021790555050505050505050505050505050565b3273ffffffffffffffffffffffffffffffffffffffff163373ffffffffffffffffffffffffffffffffffffffff161461288c575f80fd5b825f10612897575f80fd5b6128a033611136565b156128a9575f80fd5b3373ffffffffffffffffffffffffffffffffffffffff1660095f8a81526020019081526020015f206006015f3373ffffffffffffffffffffffffffffffffffffffff1673ffffffffffffffffffffffffffffffffffffffff1681526020019081526020015f205f015f9054906101000a900473ffffffffffffffffffffffffffffffffffffffff1673ffffffffffffffffffffffffffffffffffffffff1603612950575f80fd5b5f341161295b575f80fd5b5f60095f8a81526020019081526020015f2090505f80191660095f8b81526020019081526020015f206007015403612bed575f6040518060400160405280600267ffffffffffffffff8111156129b4576129b36155ea565b5b6040519080825280602002602001820160405280156129e25781602001602082028036833780820191505090505b508152602001600267ffffffffffffffff811115612a0357612a026155ea565b5b604051908082528060200260200182016040528015612a3657816020015b6060815260200190600190039081612a215790505b5081525090506002815f01515f81518110612a5457612a5361536d565b5b60200260200101906004811115612a6e57612a6d615617565b5b90816004811115612a8257612a81615617565b5b815250506004815f0151600181518110612a9f57612a9e61536d565b5b60200260200101906004811115612ab957612ab8615617565b5b90816004811115612acd57612acc615617565b5b81525050612ad9614589565b81602001515f81518110612af057612aef61536d565b5b6020026020010181905250612b8e60028054612b0b906154c5565b80601f0160208091040260200160405190810160405280929190818152602001828054612b37906154c5565b8015612b825780601f10612b5957610100808354040283529160200191612b82565b820191905f5260205f20905b815481529060010190602001808311612b6557829003601f168201915b5050505050858561459f565b8160200151600181518110612ba657612ba561536d565b5b6020026020010181905250612be33063ce914f7360e01b604051602001612bcd919061567e565b604051602081830303815290604052835f6145ce565b8260070181905550505b5f6064600534612bfd9190615424565b612c0791906153f4565b90505f60055f3373ffffffffffffffffffffffffffffffffffffffff1673ffffffffffffffffffffffffffffffffffffffff1681526020019081526020015f2060010190505f836006015f3373ffffffffffffffffffffffffffffffffffffffff1673ffffffffffffffffffffffffffffffffffffffff1681526020019081526020015f2090505f8460050190505f8054906101000a900473ffffffffffffffffffffffffffffffffffffffff1673ffffffffffffffffffffffffffffffffffffffff166108fc8590811502906040515f60405180830381858888f19350505050158015612cf7573d5f803e3d5ffd5b508334612d049190615465565b60055f3373ffffffffffffffffffffffffffffffffffffffff1673ffffffffffffffffffffffffffffffffffffffff1681526020019081526020015f205f015f828254612d519190615697565b92505081905550826040518060e001604052803373ffffffffffffffffffffffffffffffffffffffff1681526020018634612d8c9190615465565b81526020018e81526020018f81526020016040518060400160405280600c81526020017f506f696e74205370726561640000000000000000000000000000000000000000815250815260200142815260200160011515815250908060018154018082558091505060019003905f5260205f2090600702015f909190919091505f820151815f015f6101000a81548173ffffffffffffffffffffffffffffffffffffffff021916908373ffffffffffffffffffffffffffffffffffffffff1602179055506020820151816001015560408201518160020155606082015181600301556080820151816004019081612e82919061585e565b5060a0820151816005015560c0820151816006015f6101000a81548160ff02191690831515021790555050503460065f8f81526020019081526020015f205f828254612ece9190615697565b925050819055503460075f8f81526020019081526020015f205f8e81526020019081526020015f205f828254612f049190615697565b925050819055508334612f179190615465565b856001015f828254612f299190615697565b925050819055508334612f3c9190615465565b856002015f8e81526020019081526020015f205f828254612f5d9190615697565b925050819055508a856003018190555089856004018190555088855f015f3373ffffffffffffffffffffffffffffffffffffffff1673ffffffffffffffffffffffffffffffffffffffff1681526020019081526020015f20819055508033908060018154018082558091505060019003905f5260205f20015f9091909190916101000a81548173ffffffffffffffffffffffffffffffffffffffff021916908373ffffffffffffffffffffffffffffffffffffffff16021790555033825f015f6101000a81548173ffffffffffffffffffffffffffffffffffffffff021916908373ffffffffffffffffffffffffffffffffffffffff16021790555083346130659190615465565b826001015f8282546130779190615697565b925050819055508b82600201819055508c82600301819055506040518060400160405280600c81526020017f506f696e742053707265616400000000000000000000000000000000000000008152508260040190816130d6919061585e565b504282600501819055506001826006015f6101000a81548160ff02191690831515021790555050505050505050505050505050565b5f60055f3373ffffffffffffffffffffffffffffffffffffffff1673ffffffffffffffffffffffffffffffffffffffff1681526020019081526020015f205f0154905090565b600c602052805f5260405f205f915090505481565b6008602052805f5260405f205f91509050805f0154908060020154908060030154908060060154905084565b7f000000000000000000000000000000000000000000000000000000000000000073ffffffffffffffffffffffffffffffffffffffff163373ffffffffffffffffffffffffffffffffffffffff1614613220576040517f08c379a00000000000000000000000000000000000000000000000000000000081526004016132179061534f565b60405180910390fd5b60605f805f5b600a5f8781526020019081526020015f2060040180549050811015613826575f600a5f8881526020019081526020015f20600401828154811061326c5761326b61536d565b5b905f5260205f20015f9054906101000a900473ffffffffffffffffffffffffffffffffffffffff1690505f600a5f8981526020019081526020015f206005015f8373ffffffffffffffffffffffffffffffffffffffff1673ffffffffffffffffffffffffffffffffffffffff1681526020019081526020015f206001015490505f600a5f8a81526020019081526020015f206005015f8473ffffffffffffffffffffffffffffffffffffffff1673ffffffffffffffffffffffffffffffffffffffff1681526020019081526020015f206002015414801561339a5750600a5f8981526020019081526020015f205f015f8373ffffffffffffffffffffffffffffffffffffffff1673ffffffffffffffffffffffffffffffffffffffff1681526020019081526020015f205487105b80156133ac57506133aa82611136565b155b1561342057818685815181106133c5576133c461536d565b5b602002602001019073ffffffffffffffffffffffffffffffffffffffff16908173ffffffffffffffffffffffffffffffffffffffff1681525050838061340a906155a3565b94505080856134199190615697565b9450613552565b6001600a5f8a81526020019081526020015f206005015f8473ffffffffffffffffffffffffffffffffffffffff1673ffffffffffffffffffffffffffffffffffffffff1681526020019081526020015f20600201541480156134cf5750600a5f8981526020019081526020015f205f015f8373ffffffffffffffffffffffffffffffffffffffff1673ffffffffffffffffffffffffffffffffffffffff1681526020019081526020015f205487115b80156134e157506134df82611136565b155b1561355157818685815181106134fa576134f961536d565b5b602002602001019073ffffffffffffffffffffffffffffffffffffffff16908173ffffffffffffffffffffffffffffffffffffffff1681525050838061353f906155a3565b945050808561354e9190615697565b94505b5b8060055f8473ffffffffffffffffffffffffffffffffffffffff1673ffffffffffffffffffffffffffffffffffffffff1681526020019081526020015f205f015f8282546135a09190615465565b925050819055505f5b60055f8473ffffffffffffffffffffffffffffffffffffffff1673ffffffffffffffffffffffffffffffffffffffff1681526020019081526020015f2060010180549050811015613810575f60055f8573ffffffffffffffffffffffffffffffffffffffff1673ffffffffffffffffffffffffffffffffffffffff1681526020019081526020015f2060010182815481106136475761364661536d565b5b905f5260205f2090600702016040518060e00160405290815f82015f9054906101000a900473ffffffffffffffffffffffffffffffffffffffff1673ffffffffffffffffffffffffffffffffffffffff1673ffffffffffffffffffffffffffffffffffffffff1681526020016001820154815260200160028201548152602001600382015481526020016004820180546136e0906154c5565b80601f016020809104026020016040519081016040528092919081815260200182805461370c906154c5565b80156137575780601f1061372e57610100808354040283529160200191613757565b820191905f5260205f20905b81548152906001019060200180831161373a57829003601f168201915b5050505050815260200160058201548152602001600682015f9054906101000a900460ff16151515158152505090508981606001511480156137e657506040516020016137a390615977565b6040516020818303038152906040528051906020012081608001516040516020016137ce919061558d565b60405160208183030381529060405280519060200120145b156137fc575f8160c00190151590811515815250505b508080613808906155a3565b9150506135a9565b505050808061381e906155a3565b915050613226565b505f5b8351811015613943575f600a5f8881526020019081526020015f206005015f86848151811061385b5761385a61536d565b5b602002602001015173ffffffffffffffffffffffffffffffffffffffff1673ffffffffffffffffffffffffffffffffffffffff1681526020019081526020015f206001015490505f84826138af91906153f4565b90508583815181106138c4576138c361536d565b5b602002602001015173ffffffffffffffffffffffffffffffffffffffff166108fc82600a5f8c81526020019081526020015f20600101546139059190615424565b90811502906040515f60405180830381858888f1935050505015801561392d573d5f803e3d5ffd5b505050808061393b906155a3565b915050613829565b505050505050565b613953614951565b600a5f8381526020019081526020015f206005015f3373ffffffffffffffffffffffffffffffffffffffff1673ffffffffffffffffffffffffffffffffffffffff1681526020019081526020015f206040518060e00160405290815f82015f9054906101000a900473ffffffffffffffffffffffffffffffffffffffff1673ffffffffffffffffffffffffffffffffffffffff1673ffffffffffffffffffffffffffffffffffffffff168152602001600182015481526020016002820154815260200160038201548152602001600482018054613a2f906154c5565b80601f0160208091040260200160405190810160405280929190818152602001828054613a5b906154c5565b8015613aa65780601f10613a7d57610100808354040283529160200191613aa6565b820191905f5260205f20905b815481529060010190602001808311613a8957829003601f168201915b5050505050815260200160058201548152602001600682015f9054906101000a900460ff1615151515815250509050919050565b6005602052805f5260405f205f91509050805f0154905081565b613afc614951565b60085f8481526020019081526020015f206005015f8381526020019081526020015f205f3373ffffffffffffffffffffffffffffffffffffffff1673ffffffffffffffffffffffffffffffffffffffff1681526020019081526020015f206040518060e00160405290815f82015f9054906101000a900473ffffffffffffffffffffffffffffffffffffffff1673ffffffffffffffffffffffffffffffffffffffff1673ffffffffffffffffffffffffffffffffffffffff168152602001600182015481526020016002820154815260200160038201548152602001600482018054613be7906154c5565b80601f0160208091040260200160405190810160405280929190818152602001828054613c13906154c5565b8015613c5e5780601f10613c3557610100808354040283529160200191613c5e565b820191905f5260205f20905b815481529060010190602001808311613c4157829003601f168201915b5050505050815260200160058201548152602001600682015f9054906101000a900460ff161515151581525050905092915050565b600a602052805f5260405f205f915090508060010154908060020154908060030154908060060154905084565b7f000000000000000000000000000000000000000000000000000000000000000073ffffffffffffffffffffffffffffffffffffffff163373ffffffffffffffffffffffffffffffffffffffff1614613d4e576040517f08c379a0000000000000000000000000000000000000000000000000000000008152600401613d459061534f565b60405180910390fd5b60605f805f5b60095f8a81526020019081526020015f206005018054905081101561436c575f60095f8b81526020019081526020015f206005018281548110613d9a57613d9961536d565b5b905f5260205f20015f9054906101000a900473ffffffffffffffffffffffffffffffffffffffff1690505f60095f8c81526020019081526020015f206006015f8373ffffffffffffffffffffffffffffffffffffffff1673ffffffffffffffffffffffffffffffffffffffff1681526020019081526020015f206001015490505f60095f8d81526020019081526020015f205f015f8473ffffffffffffffffffffffffffffffffffffffff1673ffffffffffffffffffffffffffffffffffffffff1681526020019081526020015f205490508860095f8e81526020019081526020015f206006015f8573ffffffffffffffffffffffffffffffffffffffff1673ffffffffffffffffffffffffffffffffffffffff1681526020019081526020015f2060020154148015613ed7575089818c613ed5919061598b565b135b8015613ee95750613ee783611136565b155b15613f5d5782878681518110613f0257613f0161536d565b5b602002602001019073ffffffffffffffffffffffffffffffffffffffff16908173ffffffffffffffffffffffffffffffffffffffff16815250508480613f47906155a3565b9550508186613f569190615697565b955061404b565b8760095f8e81526020019081526020015f206006015f8573ffffffffffffffffffffffffffffffffffffffff1673ffffffffffffffffffffffffffffffffffffffff1681526020019081526020015f2060020154148015613fc857508a818b613fc6919061598b565b135b8015613fda5750613fd883611136565b155b1561404a5782878681518110613ff357613ff261536d565b5b602002602001019073ffffffffffffffffffffffffffffffffffffffff16908173ffffffffffffffffffffffffffffffffffffffff16815250508480614038906155a3565b95505081866140479190615697565b95505b5b8160055f8573ffffffffffffffffffffffffffffffffffffffff1673ffffffffffffffffffffffffffffffffffffffff1681526020019081526020015f205f015f8282546140999190615465565b925050819055505f5b60055f8573ffffffffffffffffffffffffffffffffffffffff1673ffffffffffffffffffffffffffffffffffffffff1681526020019081526020015f2060010180549050811015614355575f60055f8673ffffffffffffffffffffffffffffffffffffffff1673ffffffffffffffffffffffffffffffffffffffff1681526020019081526020015f2060010182815481106141405761413f61536d565b5b905f5260205f2090600702016040518060e00160405290815f82015f9054906101000a900473ffffffffffffffffffffffffffffffffffffffff1673ffffffffffffffffffffffffffffffffffffffff1673ffffffffffffffffffffffffffffffffffffffff1681526020016001820154815260200160028201548152602001600382015481526020016004820180546141d9906154c5565b80601f0160208091040260200160405190810160405280929190818152602001828054614205906154c5565b80156142505780601f1061422757610100808354040283529160200191614250565b820191905f5260205f20905b81548152906001019060200180831161423357829003601f168201915b5050505050815260200160058201548152602001600682015f9054906101000a900460ff16151515158152505090508d60405160200161429091906159ec565b6040516020818303038152906040528051906020012081606001516040516020016142bb91906159ec565b6040516020818303038152906040528051906020012014801561432b57506040516020016142e890615a50565b604051602081830303815290604052805190602001208160800151604051602001614313919061558d565b60405160208183030381529060405280519060200120145b15614341575f8160c00190151590811515815250505b50808061434d906155a3565b9150506140a2565b505050508080614364906155a3565b915050613d54565b505f5b8351811015614489575f60095f8b81526020019081526020015f206006015f8684815181106143a1576143a061536d565b5b602002602001015173ffffffffffffffffffffffffffffffffffffffff1673ffffffffffffffffffffffffffffffffffffffff1681526020019081526020015f206001015490505f84826143f591906153f4565b905085838151811061440a5761440961536d565b5b602002602001015173ffffffffffffffffffffffffffffffffffffffff166108fc8260095f8f81526020019081526020015f206001015461444b9190615424565b90811502906040515f60405180830381858888f19350505050158015614473573d5f803e3d5ffd5b5050508080614481906155a3565b91505061436f565b505050505050505050565b61449e8282614678565b505050565b6144e13473eeeeeeeeeeeeeeeeeeeeeeeeeeeeeeeeeeeeeeee5f8054906101000a900473ffffffffffffffffffffffffffffffffffffffff166146a4565b565b5f60095f8481526020019081526020015f206002015f8381526020019081526020015f2054905092915050565b5f8060075f8581526020019081526020015f205f8481526020019081526020015f205490505f60065f8681526020019081526020015f20549050806064836145589190615424565b61456291906153f4565b9250505092915050565b5f600a5f8381526020019081526020015f20600101549050919050565b606060405180602001604052805f815250905090565b60608383836040516020016145b693929190615ae6565b60405160208183030381529060405290509392505050565b5f7f000000000000000000000000000000000000000000000000000000000000000073ffffffffffffffffffffffffffffffffffffffff16633323b467868686866040518563ffffffff1660e01b815260040161462e9493929190615d91565b6020604051808303815f875af115801561464a573d5f803e3d5ffd5b505050506040513d601f19601f8201168201806040525081019061466e9190615e0c565b9050949350505050565b6060828260405160200161468d929190615e37565b604051602081830303815290604052905092915050565b73eeeeeeeeeeeeeeeeeeeeeeeeeeeeeeeeeeeeeeee73ffffffffffffffffffffffffffffffffffffffff168273ffffffffffffffffffffffffffffffffffffffff16036147af576005461461472e576040517f08c379a000000000000000000000000000000000000000000000000000000000815260040161472590615ea8565b60405180910390fd5b737506c12a824d73d9b08564d5afc22c949434755e73ffffffffffffffffffffffffffffffffffffffff166333bb7f9184836040518363ffffffff1660e01b815260040161477c9190614a45565b5f604051808303818588803b158015614793575f80fd5b505af11580156147a5573d5f803e3d5ffd5b505050505061494c565b6089461480156147fe5750732791bca1f2de4661ed88a30c99a7a9449aa8417473ffffffffffffffffffffffffffffffffffffffff168273ffffffffffffffffffffffffffffffffffffffff16145b61483d576040517f08c379a000000000000000000000000000000000000000000000000000000000815260040161483490615f10565b60405180910390fd5b8173ffffffffffffffffffffffffffffffffffffffff1663095ea7b3737506c12a824d73d9b08564d5afc22c949434755e856040518363ffffffff1660e01b815260040161488c929190615e37565b6020604051808303815f875af11580156148a8573d5f803e3d5ffd5b505050506040513d601f19601f820116820180604052508101906148cc9190615f58565b50737506c12a824d73d9b08564d5afc22c949434755e73ffffffffffffffffffffffffffffffffffffffff1663fb0f97a88284866040518463ffffffff1660e01b815260040161491e93929190615f83565b5f604051808303815f87803b158015614935575f80fd5b505af1158015614947573d5f803e3d5ffd5b505050505b505050565b6040518060e001604052805f73ffffffffffffffffffffffffffffffffffffffff1681526020015f81526020015f81526020015f8152602001606081526020015f81526020015f151581525090565b5f80fd5b5f80fd5b5f819050919050565b6149ba816149a8565b81146149c4575f80fd5b50565b5f813590506149d5816149b1565b92915050565b5f602082840312156149f0576149ef6149a0565b5b5f6149fd848285016149c7565b91505092915050565b5f73ffffffffffffffffffffffffffffffffffffffff82169050919050565b5f614a2f82614a06565b9050919050565b614a3f81614a25565b82525050565b5f602082019050614a585f830184614a36565b92915050565b5f805f60608486031215614a7557614a746149a0565b5b5f614a82868287016149c7565b9350506020614a93868287016149c7565b9250506040614aa4868287016149c7565b9150509250925092565b5f819050919050565b5f614ad1614acc614ac784614a06565b614aae565b614a06565b9050919050565b5f614ae282614ab7565b9050919050565b5f614af382614ad8565b9050919050565b614b0381614ae9565b82525050565b5f602082019050614b1c5f830184614afa565b92915050565b614b2b81614a25565b8114614b35575f80fd5b50565b5f81359050614b4681614b22565b92915050565b5f60208284031215614b6157614b606149a0565b5b5f614b6e84828501614b38565b91505092915050565b5f8115159050919050565b614b8b81614b77565b82525050565b5f602082019050614ba45f830184614b82565b92915050565b614bb3816149a8565b82525050565b5f602082019050614bcc5f830184614baa565b92915050565b5f819050919050565b614be481614bd2565b82525050565b5f608082019050614bfd5f830187614baa565b614c0a6020830186614baa565b614c176040830185614baa565b614c246060830184614bdb565b95945050505050565b5f8060408385031215614c4357614c426149a0565b5b5f614c50858286016149c7565b9250506020614c61858286016149c7565b9150509250929050565b5f81519050919050565b5f82825260208201905092915050565b5f819050602082019050919050565b614c9d81614a25565b82525050565b614cac816149a8565b82525050565b5f81519050919050565b5f82825260208201905092915050565b5f5b83811015614ce9578082015181840152602081019050614cce565b5f8484015250505050565b5f601f19601f8301169050919050565b5f614d0e82614cb2565b614d188185614cbc565b9350614d28818560208601614ccc565b614d3181614cf4565b840191505092915050565b614d4581614b77565b82525050565b5f60e083015f830151614d605f860182614c94565b506020830151614d736020860182614ca3565b506040830151614d866040860182614ca3565b506060830151614d996060860182614ca3565b5060808301518482036080860152614db18282614d04565b91505060a0830151614dc660a0860182614ca3565b5060c0830151614dd960c0860182614d3c565b508091505092915050565b5f614def8383614d4b565b905092915050565b5f602082019050919050565b5f614e0d82614c6b565b614e178185614c75565b935083602082028501614e2985614c85565b805f5b85811015614e645784840389528151614e458582614de4565b9450614e5083614df7565b925060208a01995050600181019050614e2c565b50829750879550505050505092915050565b5f6020820190508181035f830152614e8e8184614e03565b905092915050565b5f80fd5b5f80fd5b5f80fd5b5f8083601f840112614eb757614eb6614e96565b5b8235905067ffffffffffffffff811115614ed457614ed3614e9a565b5b602083019150836001820283011115614ef057614eef614e9e565b5b9250929050565b5f805f805f805f60c0888a031215614f1257614f116149a0565b5b5f614f1f8a828b016149c7565b9750506020614f308a828b016149c7565b9650506040614f418a828b016149c7565b9550506060614f528a828b016149c7565b9450506080614f638a828b016149c7565b93505060a088013567ffffffffffffffff811115614f8457614f836149a4565b5b614f908a828b01614ea2565b925092505092959891949750929550565b5f60e083015f830151614fb65f860182614c94565b506020830151614fc96020860182614ca3565b506040830151614fdc6040860182614ca3565b506060830151614fef6060860182614ca3565b50608083015184820360808601526150078282614d04565b91505060a083015161501c60a0860182614ca3565b5060c083015161502f60c0860182614d3c565b508091505092915050565b5f6020820190508181035f8301526150528184614fa1565b905092915050565b5f61506482614ad8565b9050919050565b6150748161505a565b82525050565b5f60208201905061508d5f83018461506b565b92915050565b5f805f805f805f8060e0898b0312156150af576150ae6149a0565b5b5f6150bc8b828c016149c7565b98505060206150cd8b828c016149c7565b97505060406150de8b828c016149c7565b96505060606150ef8b828c016149c7565b95505060806151008b828c016149c7565b94505060a06151118b828c016149c7565b93505060c089013567ffffffffffffffff811115615132576151316149a4565b5b61513e8b828c01614ea2565b92509250509295985092959890939650565b5f819050919050565b61516281615150565b811461516c575f80fd5b50565b5f8135905061517d81615159565b92915050565b5f805f805f805f8060e0898b03121561519f5761519e6149a0565b5b5f6151ac8b828c016149c7565b98505060206151bd8b828c016149c7565b97505060406151ce8b828c016149c7565b96505060606151df8b828c016149c7565b95505060806151f08b828c0161516f565b94505060a06152018b828c016149c7565b93505060c089013567ffffffffffffffff811115615222576152216149a4565b5b61522e8b828c01614ea2565b92509250509295985092959890939650565b5f805f805f60a08688031215615259576152586149a0565b5b5f615266888289016149c7565b95505060206152778882890161516f565b94505060406152888882890161516f565b9350506060615299888289016149c7565b92505060806152aa888289016149c7565b9150509295509295909350565b5f80604083850312156152cd576152cc6149a0565b5b5f6152da85828601614b38565b92505060206152eb858286016149c7565b9150509250929050565b5f82825260208201905092915050565b7f4f6e6c7920646564696361746564206d73672e73656e646572000000000000005f82015250565b5f6153396019836152f5565b915061534482615305565b602082019050919050565b5f6020820190508181035f8301526153668161532d565b9050919050565b7f4e487b71000000000000000000000000000000000000000000000000000000005f52603260045260245ffd5b7f4e487b71000000000000000000000000000000000000000000000000000000005f52601260045260245ffd5b7f4e487b71000000000000000000000000000000000000000000000000000000005f52601160045260245ffd5b5f6153fe826149a8565b9150615409836149a8565b9250826154195761541861539a565b5b828204905092915050565b5f61542e826149a8565b9150615439836149a8565b9250828202615447816149a8565b9150828204841483151761545e5761545d6153c7565b5b5092915050565b5f61546f826149a8565b915061547a836149a8565b9250828203905081811115615492576154916153c7565b5b92915050565b7f4e487b71000000000000000000000000000000000000000000000000000000005f52602260045260245ffd5b5f60028204905060018216806154dc57607f821691505b6020821081036154ef576154ee615498565b5b50919050565b5f81905092915050565b7f4d6f6e6579204c696e65000000000000000000000000000000000000000000005f82015250565b5f615533600a836154f5565b915061553e826154ff565b600a82019050919050565b5f61555382615527565b9150819050919050565b5f61556782614cb2565b61557181856154f5565b9350615581818560208601614ccc565b80840191505092915050565b5f615598828461555d565b915081905092915050565b5f6155ad826149a8565b91507fffffffffffffffffffffffffffffffffffffffffffffffffffffffffffffffff82036155df576155de6153c7565b5b600182019050919050565b7f4e487b71000000000000000000000000000000000000000000000000000000005f52604160045260245ffd5b7f4e487b71000000000000000000000000000000000000000000000000000000005f52602160045260245ffd5b5f7fffffffff0000000000000000000000000000000000000000000000000000000082169050919050565b61567881615644565b82525050565b5f6020820190506156915f83018461566f565b92915050565b5f6156a1826149a8565b91506156ac836149a8565b92508282019050808211156156c4576156c36153c7565b5b92915050565b5f819050815f5260205f209050919050565b5f6020601f8301049050919050565b5f82821b905092915050565b5f600883026157267fffffffffffffffffffffffffffffffffffffffffffffffffffffffffffffffff826156eb565b61573086836156eb565b95508019841693508086168417925050509392505050565b5f61576261575d615758846149a8565b614aae565b6149a8565b9050919050565b5f819050919050565b61577b83615748565b61578f61578782615769565b8484546156f7565b825550505050565b5f90565b6157a3615797565b6157ae818484615772565b505050565b5b818110156157d1576157c65f8261579b565b6001810190506157b4565b5050565b601f821115615816576157e7816156ca565b6157f0846156dc565b810160208510156157ff578190505b61581361580b856156dc565b8301826157b3565b50505b505050565b5f82821c905092915050565b5f6158365f198460080261581b565b1980831691505092915050565b5f61584e8383615827565b9150826002028217905092915050565b61586782614cb2565b67ffffffffffffffff8111156158805761587f6155ea565b5b61588a82546154c5565b6158958282856157d5565b5f60209050601f8311600181146158c6575f84156158b4578287015190505b6158be8582615843565b865550615925565b601f1984166158d4866156ca565b5f5b828110156158fb578489015182556001820191506020850194506020810190506158d6565b868310156159185784890151615914601f891682615827565b8355505b6001600288020188555050505b505050505050565b7f506f696e7420546f74616c0000000000000000000000000000000000000000005f82015250565b5f615961600b836154f5565b915061596c8261592d565b600b82019050919050565b5f61598182615955565b9150819050919050565b5f61599582615150565b91506159a083615150565b92508282019050828112155f8312168382125f8412151617156159c6576159c56153c7565b5b92915050565b5f819050919050565b6159e66159e1826149a8565b6159cc565b82525050565b5f6159f782846159d5565b60208201915081905092915050565b7f506f696e742053707265616400000000000000000000000000000000000000005f82015250565b5f615a3a600c836154f5565b9150615a4582615a06565b600c82019050919050565b5f615a5a82615a2e565b9150819050919050565b5f615a6e82614cb2565b615a7881856152f5565b9350615a88818560208601614ccc565b615a9181614cf4565b840191505092915050565b5f82825260208201905092915050565b828183375f83830152505050565b5f615ac58385615a9c565b9350615ad2838584615aac565b615adb83614cf4565b840190509392505050565b5f6040820190508181035f830152615afe8186615a64565b90508181036020830152615b13818486615aba565b9050949350505050565b5f81519050919050565b5f615b3182615b1d565b615b3b8185615a9c565b9350615b4b818560208601614ccc565b615b5481614cf4565b840191505092915050565b5f81519050919050565b5f82825260208201905092915050565b5f819050602082019050919050565b60058110615b9957615b98615617565b5b50565b5f819050615ba982615b88565b919050565b5f615bb882615b9c565b9050919050565b615bc881615bae565b82525050565b5f615bd98383615bbf565b60208301905092915050565b5f602082019050919050565b5f615bfb82615b5f565b615c058185615b69565b9350615c1083615b79565b805f5b83811015615c40578151615c278882615bce565b9750615c3283615be5565b925050600181019050615c13565b5085935050505092915050565b5f81519050919050565b5f82825260208201905092915050565b5f819050602082019050919050565b5f82825260208201905092915050565b5f615c9082615b1d565b615c9a8185615c76565b9350615caa818560208601614ccc565b615cb381614cf4565b840191505092915050565b5f615cc98383615c86565b905092915050565b5f602082019050919050565b5f615ce782615c4d565b615cf18185615c57565b935083602082028501615d0385615c67565b805f5b85811015615d3e5784840389528151615d1f8582615cbe565b9450615d2a83615cd1565b925060208a01995050600181019050615d06565b50829750879550505050505092915050565b5f604083015f8301518482035f860152615d6a8282615bf1565b91505060208301518482036020860152615d848282615cdd565b9150508091505092915050565b5f608082019050615da45f830187614a36565b8181036020830152615db68186615b27565b90508181036040830152615dca8185615d50565b9050615dd96060830184614a36565b95945050505050565b615deb81614bd2565b8114615df5575f80fd5b50565b5f81519050615e0681615de2565b92915050565b5f60208284031215615e2157615e206149a0565b5b5f615e2e84828501615df8565b91505092915050565b5f604082019050615e4a5f830185614a36565b615e576020830184614baa565b9392505050565b7f4f6e6c79206465706f73697420455448206f6e20676f65726c690000000000005f82015250565b5f615e92601a836152f5565b9150615e9d82615e5e565b602082019050919050565b5f6020820190508181035f830152615ebf81615e86565b9050919050565b7f4f6e6c79206465706f7369742055534443206f6e20706f6c79676f6e000000005f82015250565b5f615efa601c836152f5565b9150615f0582615ec6565b602082019050919050565b5f6020820190508181035f830152615f2781615eee565b9050919050565b615f3781614b77565b8114615f41575f80fd5b50565b5f81519050615f5281615f2e565b92915050565b5f60208284031215615f6d57615f6c6149a0565b5b5f615f7a84828501615f44565b91505092915050565b5f606082019050615f965f830186614a36565b615fa36020830185614a36565b615fb06040830184614baa565b94935050505056fea264697066735822122032b8ef58a80ee2a605260c137fb1ed9d4103fe583588a4c0a268771e7d623a4064736f6c63430008150033",
  "linkReferences": {},
  "deployedLinkReferences": {}
}