{
  "_format": "hh-sol-artifact-1",
  "contractName": "Bet",
  "sourceName": "contracts/Bet.sol",
  "abi": [
    {
      "inputs": [],
      "stateMutability": "nonpayable",
      "type": "constructor"
    },
    {
      "inputs": [
        {
          "internalType": "string",
          "name": "datetimeString",
          "type": "string"
        }
      ],
      "name": "datetimeToUnix",
      "outputs": [
        {
          "internalType": "uint256",
          "name": "",
          "type": "uint256"
        }
      ],
      "stateMutability": "pure",
      "type": "function"
    },
    {
      "inputs": [
        {
          "internalType": "address",
          "name": "user",
          "type": "address"
        },
        {
          "internalType": "uint256",
          "name": "gameID",
          "type": "uint256"
        },
        {
          "internalType": "uint256",
          "name": "teamID",
          "type": "uint256"
        },
        {
          "internalType": "uint256",
          "name": "homeTeamID",
          "type": "uint256"
        },
        {
          "internalType": "uint256",
          "name": "awayTeamID",
          "type": "uint256"
        },
        {
          "internalType": "string",
          "name": "startTime",
          "type": "string"
        }
      ],
      "name": "moneyLineBet",
      "outputs": [],
      "stateMutability": "payable",
      "type": "function"
    },
    {
      "inputs": [
        {
          "internalType": "uint256",
          "name": "",
          "type": "uint256"
        }
      ],
      "name": "newMoneyLineBet",
      "outputs": [
        {
          "internalType": "uint256",
          "name": "startTime",
          "type": "uint256"
        },
        {
          "internalType": "uint256",
          "name": "total",
          "type": "uint256"
        },
        {
          "internalType": "uint256",
          "name": "homeTeamID",
          "type": "uint256"
        },
        {
          "internalType": "uint256",
          "name": "awayTeamID",
          "type": "uint256"
        },
        {
          "internalType": "uint256",
          "name": "result",
          "type": "uint256"
        }
      ],
      "stateMutability": "view",
      "type": "function"
    },
    {
      "inputs": [
        {
          "internalType": "uint256",
          "name": "",
          "type": "uint256"
        }
      ],
      "name": "newPointSpreadBet",
      "outputs": [
        {
          "internalType": "uint256",
          "name": "startTime",
          "type": "uint256"
        },
        {
          "internalType": "uint256",
          "name": "total",
          "type": "uint256"
        },
        {
          "internalType": "uint256",
          "name": "homeTeamID",
          "type": "uint256"
        },
        {
          "internalType": "uint256",
          "name": "awayTeamID",
          "type": "uint256"
        },
        {
          "internalType": "uint256",
          "name": "result",
          "type": "uint256"
        }
      ],
      "stateMutability": "view",
      "type": "function"
    },
    {
      "inputs": [
        {
          "internalType": "uint256",
          "name": "",
          "type": "uint256"
        }
      ],
      "name": "newPointTotalBet",
      "outputs": [
        {
          "internalType": "uint256",
          "name": "pointAmount",
          "type": "uint256"
        },
        {
          "internalType": "uint256",
          "name": "startTime",
          "type": "uint256"
        },
        {
          "internalType": "uint256",
          "name": "total",
          "type": "uint256"
        },
        {
          "internalType": "uint256",
          "name": "homeTeamID",
          "type": "uint256"
        },
        {
          "internalType": "uint256",
          "name": "awayTeamID",
          "type": "uint256"
        },
        {
          "internalType": "int256",
          "name": "result",
          "type": "int256"
        }
      ],
      "stateMutability": "view",
      "type": "function"
    },
    {
      "inputs": [
        {
          "internalType": "address",
          "name": "user",
          "type": "address"
        },
        {
          "internalType": "uint256",
          "name": "gameID",
          "type": "uint256"
        },
        {
          "internalType": "uint256",
          "name": "teamID",
          "type": "uint256"
        },
        {
          "internalType": "uint256",
          "name": "homeTeamID",
          "type": "uint256"
        },
        {
          "internalType": "uint256",
          "name": "awayTeamID",
          "type": "uint256"
        },
        {
          "internalType": "string",
          "name": "startTime",
          "type": "string"
        },
        {
          "internalType": "int256",
          "name": "spread",
          "type": "int256"
        }
      ],
      "name": "pointSpreadBet",
      "outputs": [],
      "stateMutability": "payable",
      "type": "function"
    },
    {
      "inputs": [
        {
          "internalType": "address",
          "name": "user",
          "type": "address"
        },
        {
          "internalType": "uint256",
          "name": "gameID",
          "type": "uint256"
        },
        {
          "internalType": "uint256",
          "name": "pointAmount",
          "type": "uint256"
        },
        {
          "internalType": "uint256",
          "name": "homeTeamID",
          "type": "uint256"
        },
        {
          "internalType": "uint256",
          "name": "awayTeamID",
          "type": "uint256"
        },
        {
          "internalType": "string",
          "name": "startTime",
          "type": "string"
        },
        {
          "internalType": "int256",
          "name": "value",
          "type": "int256"
        }
      ],
      "name": "pointTotalBet",
      "outputs": [],
      "stateMutability": "payable",
      "type": "function"
    },
    {
      "inputs": [],
      "name": "returnEscrow",
      "outputs": [
        {
          "internalType": "uint256",
          "name": "",
          "type": "uint256"
        }
      ],
      "stateMutability": "view",
      "type": "function"
    },
    {
      "inputs": [
        {
          "internalType": "uint256",
          "name": "gameID",
          "type": "uint256"
        },
        {
          "internalType": "uint256",
          "name": "teamID",
          "type": "uint256"
        }
      ],
      "name": "returnMoneyLineBetReceipt",
      "outputs": [
        {
          "components": [
            {
              "internalType": "address",
              "name": "addr",
              "type": "address"
            },
            {
              "internalType": "uint256",
              "name": "amount",
              "type": "uint256"
            },
            {
              "internalType": "uint256",
              "name": "teamID",
              "type": "uint256"
            },
            {
              "internalType": "uint256",
              "name": "gameID",
              "type": "uint256"
            },
            {
              "internalType": "string",
              "name": "betType",
              "type": "string"
            },
            {
              "internalType": "uint256",
              "name": "time",
              "type": "uint256"
            }
          ],
          "internalType": "struct Bet.Transaction",
          "name": "",
          "type": "tuple"
        }
      ],
      "stateMutability": "view",
      "type": "function"
    },
    {
      "inputs": [
        {
          "internalType": "uint256",
          "name": "gameID",
          "type": "uint256"
        },
        {
          "internalType": "uint256",
          "name": "teamID",
          "type": "uint256"
        }
      ],
      "name": "returnMoneyLineUsersArray",
      "outputs": [
        {
          "internalType": "address[]",
          "name": "",
          "type": "address[]"
        }
      ],
      "stateMutability": "view",
      "type": "function"
    },
    {
      "inputs": [
        {
          "internalType": "uint256",
          "name": "gameID",
          "type": "uint256"
        },
        {
          "internalType": "uint256",
          "name": "bettingTeamID",
          "type": "uint256"
        }
      ],
      "name": "returnOdds",
      "outputs": [
        {
          "internalType": "uint256",
          "name": "",
          "type": "uint256"
        }
      ],
      "stateMutability": "view",
      "type": "function"
    },
    {
      "inputs": [
        {
          "internalType": "uint256",
          "name": "gameID",
          "type": "uint256"
        },
        {
          "internalType": "uint256",
          "name": "teamID",
          "type": "uint256"
        }
      ],
      "name": "returnPointSpreadBetReceipt",
      "outputs": [
        {
          "components": [
            {
              "internalType": "address",
              "name": "addr",
              "type": "address"
            },
            {
              "internalType": "uint256",
              "name": "amount",
              "type": "uint256"
            },
            {
              "internalType": "uint256",
              "name": "teamID",
              "type": "uint256"
            },
            {
              "internalType": "uint256",
              "name": "gameID",
              "type": "uint256"
            },
            {
              "internalType": "string",
              "name": "betType",
              "type": "string"
            },
            {
              "internalType": "uint256",
              "name": "time",
              "type": "uint256"
            }
          ],
          "internalType": "struct Bet.Transaction",
          "name": "",
          "type": "tuple"
        }
      ],
      "stateMutability": "view",
      "type": "function"
    },
    {
      "inputs": [
        {
          "internalType": "uint256",
          "name": "gameID",
          "type": "uint256"
        },
        {
          "internalType": "uint256",
          "name": "teamID",
          "type": "uint256"
        }
      ],
      "name": "returnPointSpreadGameAmount",
      "outputs": [
        {
          "internalType": "int256",
          "name": "",
          "type": "int256"
        }
      ],
      "stateMutability": "view",
      "type": "function"
    },
    {
      "inputs": [
        {
          "internalType": "uint256",
          "name": "gameID",
          "type": "uint256"
        },
        {
          "internalType": "uint256",
          "name": "teamID",
          "type": "uint256"
        }
      ],
      "name": "returnPointSpreadUsersArray",
      "outputs": [
        {
          "internalType": "address[]",
          "name": "",
          "type": "address[]"
        }
      ],
      "stateMutability": "view",
      "type": "function"
    },
    {
      "inputs": [
        {
          "internalType": "uint256",
          "name": "gameID",
          "type": "uint256"
        },
        {
          "internalType": "int256",
          "name": "value",
          "type": "int256"
        }
      ],
      "name": "returnPointTotalBetReceipt",
      "outputs": [
        {
          "components": [
            {
              "internalType": "address",
              "name": "addr",
              "type": "address"
            },
            {
              "internalType": "uint256",
              "name": "amount",
              "type": "uint256"
            },
            {
              "internalType": "uint256",
              "name": "teamID",
              "type": "uint256"
            },
            {
              "internalType": "uint256",
              "name": "gameID",
              "type": "uint256"
            },
            {
              "internalType": "string",
              "name": "betType",
              "type": "string"
            },
            {
              "internalType": "uint256",
              "name": "time",
              "type": "uint256"
            }
          ],
          "internalType": "struct Bet.Transaction",
          "name": "",
          "type": "tuple"
        }
      ],
      "stateMutability": "view",
      "type": "function"
    },
    {
      "inputs": [
        {
          "internalType": "uint256",
          "name": "gameID",
          "type": "uint256"
        }
      ],
      "name": "returnPointTotalGameAmount",
      "outputs": [
        {
          "internalType": "uint256",
          "name": "",
          "type": "uint256"
        }
      ],
      "stateMutability": "view",
      "type": "function"
    },
    {
      "inputs": [
        {
          "internalType": "uint256",
          "name": "gameID",
          "type": "uint256"
        },
        {
          "internalType": "int256",
          "name": "value",
          "type": "int256"
        }
      ],
      "name": "returnPointTotalUsersArray",
      "outputs": [
        {
          "internalType": "address[]",
          "name": "",
          "type": "address[]"
        }
      ],
      "stateMutability": "view",
      "type": "function"
    },
    {
      "inputs": [],
      "name": "returnReceipts",
      "outputs": [
        {
          "components": [
            {
              "internalType": "address",
              "name": "addr",
              "type": "address"
            },
            {
              "internalType": "uint256",
              "name": "amount",
              "type": "uint256"
            },
            {
              "internalType": "uint256",
              "name": "teamID",
              "type": "uint256"
            },
            {
              "internalType": "uint256",
              "name": "gameID",
              "type": "uint256"
            },
            {
              "internalType": "string",
              "name": "betType",
              "type": "string"
            },
            {
              "internalType": "uint256",
              "name": "time",
              "type": "uint256"
            }
          ],
          "internalType": "struct Bet.Transaction[]",
          "name": "",
          "type": "tuple[]"
        }
      ],
      "stateMutability": "view",
      "type": "function"
    },
    {
      "inputs": [
        {
          "internalType": "uint256",
          "name": "",
          "type": "uint256"
        }
      ],
      "name": "totalBetOnGame",
      "outputs": [
        {
          "internalType": "uint256",
          "name": "",
          "type": "uint256"
        }
      ],
      "stateMutability": "view",
      "type": "function"
    },
    {
      "inputs": [
        {
          "internalType": "uint256",
          "name": "",
          "type": "uint256"
        },
        {
          "internalType": "uint256",
          "name": "",
          "type": "uint256"
        }
      ],
      "name": "totalBetOnTeam",
      "outputs": [
        {
          "internalType": "uint256",
          "name": "",
          "type": "uint256"
        }
      ],
      "stateMutability": "view",
      "type": "function"
    },
    {
      "inputs": [],
      "name": "transferEther",
      "outputs": [],
      "stateMutability": "nonpayable",
      "type": "function"
    },
    {
      "inputs": [
        {
          "internalType": "address",
          "name": "",
          "type": "address"
        }
      ],
      "name": "userReceipts",
      "outputs": [
        {
          "internalType": "uint256",
          "name": "escrow",
          "type": "uint256"
        }
      ],
      "stateMutability": "view",
      "type": "function"
    }
  ],
  "bytecode": "0x608060405234801561001057600080fd5b50336000806101000a81548173ffffffffffffffffffffffffffffffffffffffff021916908373ffffffffffffffffffffffffffffffffffffffff16021790555061333c806100606000396000f3fe6080604052600436106101355760003560e01c80638edd3971116100ab578063c084eff71161006f578063c084eff7146104b1578063c9b25f0f146104ee578063ccb7ed4514610505578063ee8d6d8b14610542578063f227ce4d1461055e578063f6d7c7591461059b57610135565b80638edd397114610398578063a4786f3d146103d9578063a910e4a514610416578063a91faba214610453578063ab0900c51461049557610135565b80633946f666116100fd5780633946f6661461024e57806368989a92146102795780636bd4c7c0146102b65780637ea4178a146102f357806380ee79c11461031e5780638697ac4e1461035b57610135565b806308c27e5a1461013a5780631f294bf61461017757806323821c21146101935780632429827f146101d05780632b3a4ef614610211575b600080fd5b34801561014657600080fd5b50610161600480360381019061015c9190612928565b6105d8565b60405161016e9190612d7e565b60405180910390f35b610191600480360381019061018c91906127cc565b61068e565b005b34801561019f57600080fd5b506101ba60048036038101906101b591906128c3565b610cd4565b6040516101c79190612e7f565b60405180910390f35b3480156101dc57600080fd5b506101f760048036038101906101f291906128c3565b610cec565b604051610208959493929190612e9a565b60405180910390f35b34801561021d57600080fd5b5061023860048036038101906102339190612928565b610d22565b6040516102459190612e7f565b60405180910390f35b34801561025a57600080fd5b50610263610d47565b6040516102709190612da0565b60405180910390f35b34801561028557600080fd5b506102a0600480360381019061029b91906128c3565b610ef6565b6040516102ad9190612e7f565b60405180910390f35b3480156102c257600080fd5b506102dd60048036038101906102d89190612928565b610f16565b6040516102ea9190612e5d565b60405180910390f35b3480156102ff57600080fd5b506103086110a5565b6040516103159190612e7f565b60405180910390f35b34801561032a57600080fd5b50610345600480360381019061034091906128ec565b6110ef565b6040516103529190612e5d565b60405180910390f35b34801561036757600080fd5b50610382600480360381019061037d9190612928565b61127e565b60405161038f9190612d7e565b60405180910390f35b3480156103a457600080fd5b506103bf60048036038101906103ba91906128c3565b611334565b6040516103d0959493929190612e9a565b60405180910390f35b3480156103e557600080fd5b5061040060048036038101906103fb9190612702565b61136a565b60405161040d9190612e7f565b60405180910390f35b34801561042257600080fd5b5061043d60048036038101906104389190612928565b611388565b60405161044a9190612e5d565b60405180910390f35b34801561045f57600080fd5b5061047a600480360381019061047591906128c3565b611517565b60405161048c96959493929190612eed565b60405180910390f35b6104af60048036038101906104aa91906127cc565b611553565b005b3480156104bd57600080fd5b506104d860048036038101906104d39190612882565b611c2f565b6040516104e59190612e7f565b60405180910390f35b3480156104fa57600080fd5b50610503611c62565b005b34801561051157600080fd5b5061052c60048036038101906105279190612928565b611d59565b6040516105399190612dc2565b60405180910390f35b61055c6004803603810190610557919061272b565b611d8b565b005b34801561056a57600080fd5b5061058560048036038101906105809190612928565b61244c565b6040516105929190612e7f565b60405180910390f35b3480156105a757600080fd5b506105c260048036038101906105bd91906128ec565b6124b6565b6040516105cf9190612d7e565b60405180910390f35b606060056000848152602001908152602001600020600601600083815260200190815260200160002080548060200260200160405190810160405280929190818152602001828054801561068157602002820191906000526020600020905b8160009054906101000a900473ffffffffffffffffffffffffffffffffffffffff1673ffffffffffffffffffffffffffffffffffffffff1681526020019060010190808311610637575b5050505050905092915050565b8284141561069b57600080fd5b8673ffffffffffffffffffffffffffffffffffffffff163373ffffffffffffffffffffffffffffffffffffffff1614610709576040517f08c379a000000000000000000000000000000000000000000000000000000000815260040161070090612dfd565b60405180910390fd5b6000341161074c576040517f08c379a000000000000000000000000000000000000000000000000000000000815260040161074390612e1d565b60405180910390fd5b6000606460053461075d91906130e0565b61076791906130af565b905060006064605f3461077a91906130e0565b61078491906130af565b90506000600660008a815260200190815260200160002090506000600160003373ffffffffffffffffffffffffffffffffffffffff1673ffffffffffffffffffffffffffffffffffffffff1681526020019081526020016000206001019050600082600701600087815260200190815260200160002060003373ffffffffffffffffffffffffffffffffffffffff1673ffffffffffffffffffffffffffffffffffffffff16815260200190815260200160002090506000836006016000888152602001908152602001600020905060008054906101000a900473ffffffffffffffffffffffffffffffffffffffff1673ffffffffffffffffffffffffffffffffffffffff166108fc879081150290604051600060405180830381858888f193505050501580156108b8573d6000803e3d6000fd5b5084600160003373ffffffffffffffffffffffffffffffffffffffff1673ffffffffffffffffffffffffffffffffffffffff168152602001908152602001600020600001600082825461090b9190613059565b92505081905550826040518060c001604052803373ffffffffffffffffffffffffffffffffffffffff168152602001878152602001600081526020018e81526020016040518060400160405280600b81526020017f506f696e7420546f74616c000000000000000000000000000000000000000000815250815260200142815250908060018154018082558091505060019003906000526020600020906006020160009091909190915060008201518160000160006101000a81548173ffffffffffffffffffffffffffffffffffffffff021916908373ffffffffffffffffffffffffffffffffffffffff1602179055506020820151816001015560408201518160020155606082015181600301556080820151816004019080519060200190610a3692919061256c565b5060a08201518160050155505034600260008e81526020019081526020016000206000828254610a669190613059565b9250508190555084846002016000828254610a819190613059565b92505081905550848460030160008981526020019081526020016000206000828254610aad9190613059565b92505081905550898460040181905550888460050181905550610acf88611c2f565b84600101819055508a84600001819055503373ffffffffffffffffffffffffffffffffffffffff16600660008e8152602001908152602001600020600701600089815260200190815260200160002060003373ffffffffffffffffffffffffffffffffffffffff1673ffffffffffffffffffffffffffffffffffffffff16815260200190815260200160002060000160009054906101000a900473ffffffffffffffffffffffffffffffffffffffff1673ffffffffffffffffffffffffffffffffffffffff1614610bfd5780339080600181540180825580915050600190039060005260206000200160009091909190916101000a81548173ffffffffffffffffffffffffffffffffffffffff021916908373ffffffffffffffffffffffffffffffffffffffff1602179055505b338260000160006101000a81548173ffffffffffffffffffffffffffffffffffffffff021916908373ffffffffffffffffffffffffffffffffffffffff16021790555084826001016000828254610c549190613059565b92505081905550600082600201819055508b82600301819055506040518060400160405280600b81526020017f506f696e7420546f74616c000000000000000000000000000000000000000000815250826004019080519060200190610cbb92919061256c565b5042826005018190555050505050505050505050505050565b60026020528060005260406000206000915090505481565b60056020528060005260406000206000915090508060010154908060020154908060040154908060050154908060080154905085565b6003602052816000526040600020602052806000526040600020600091509150505481565b6060600160003373ffffffffffffffffffffffffffffffffffffffff1673ffffffffffffffffffffffffffffffffffffffff168152602001908152602001600020600101805480602002602001604051908101604052809291908181526020016000905b82821015610eed57838290600052602060002090600602016040518060c00160405290816000820160009054906101000a900473ffffffffffffffffffffffffffffffffffffffff1673ffffffffffffffffffffffffffffffffffffffff1673ffffffffffffffffffffffffffffffffffffffff168152602001600182015481526020016002820154815260200160038201548152602001600482018054610e52906131c2565b80601f0160208091040260200160405190810160405280929190818152602001828054610e7e906131c2565b8015610ecb5780601f10610ea057610100808354040283529160200191610ecb565b820191906000526020600020905b815481529060010190602001808311610eae57829003601f168201915b5050505050815260200160058201548152505081526020019060010190610dab565b50505050905090565b600060066000838152602001908152602001600020600001549050919050565b610f1e6125f2565b60056000848152602001908152602001600020600701600083815260200190815260200160002060003373ffffffffffffffffffffffffffffffffffffffff1673ffffffffffffffffffffffffffffffffffffffff1681526020019081526020016000206040518060c00160405290816000820160009054906101000a900473ffffffffffffffffffffffffffffffffffffffff1673ffffffffffffffffffffffffffffffffffffffff1673ffffffffffffffffffffffffffffffffffffffff168152602001600182015481526020016002820154815260200160038201548152602001600482018054611011906131c2565b80601f016020809104026020016040519081016040528092919081815260200182805461103d906131c2565b801561108a5780601f1061105f5761010080835404028352916020019161108a565b820191906000526020600020905b81548152906001019060200180831161106d57829003601f168201915b50505050508152602001600582015481525050905092915050565b6000600160003373ffffffffffffffffffffffffffffffffffffffff1673ffffffffffffffffffffffffffffffffffffffff16815260200190815260200160002060000154905090565b6110f76125f2565b60066000848152602001908152602001600020600701600083815260200190815260200160002060003373ffffffffffffffffffffffffffffffffffffffff1673ffffffffffffffffffffffffffffffffffffffff1681526020019081526020016000206040518060c00160405290816000820160009054906101000a900473ffffffffffffffffffffffffffffffffffffffff1673ffffffffffffffffffffffffffffffffffffffff1673ffffffffffffffffffffffffffffffffffffffff1681526020016001820154815260200160028201548152602001600382015481526020016004820180546111ea906131c2565b80601f0160208091040260200160405190810160405280929190818152602001828054611216906131c2565b80156112635780601f1061123857610100808354040283529160200191611263565b820191906000526020600020905b81548152906001019060200180831161124657829003601f168201915b50505050508152602001600582015481525050905092915050565b606060046000848152602001908152602001600020600501600083815260200190815260200160002080548060200260200160405190810160405280929190818152602001828054801561132757602002820191906000526020600020905b8160009054906101000a900473ffffffffffffffffffffffffffffffffffffffff1673ffffffffffffffffffffffffffffffffffffffff16815260200190600101908083116112dd575b5050505050905092915050565b60046020528060005260406000206000915090508060000154908060010154908060030154908060040154908060070154905085565b60016020528060005260406000206000915090508060000154905081565b6113906125f2565b60046000848152602001908152602001600020600601600083815260200190815260200160002060003373ffffffffffffffffffffffffffffffffffffffff1673ffffffffffffffffffffffffffffffffffffffff1681526020019081526020016000206040518060c00160405290816000820160009054906101000a900473ffffffffffffffffffffffffffffffffffffffff1673ffffffffffffffffffffffffffffffffffffffff1673ffffffffffffffffffffffffffffffffffffffff168152602001600182015481526020016002820154815260200160038201548152602001600482018054611483906131c2565b80601f01602080910402602001604051908101604052809291908181526020018280546114af906131c2565b80156114fc5780601f106114d1576101008083540402835291602001916114fc565b820191906000526020600020905b8154815290600101906020018083116114df57829003601f168201915b50505050508152602001600582015481525050905092915050565b60066020528060005260406000206000915090508060000154908060010154908060020154908060040154908060050154908060080154905086565b8284141561156057600080fd5b8673ffffffffffffffffffffffffffffffffffffffff163373ffffffffffffffffffffffffffffffffffffffff16146115ce576040517f08c379a00000000000000000000000000000000000000000000000000000000081526004016115c590612dfd565b60405180910390fd5b60003411611611576040517f08c379a000000000000000000000000000000000000000000000000000000000815260040161160890612e1d565b60405180910390fd5b8385148061161e57508285145b61165d576040517f08c379a000000000000000000000000000000000000000000000000000000000815260040161165490612ddd565b60405180910390fd5b6000606460053461166e91906130e0565b61167891906130af565b905060006064605f3461168b91906130e0565b61169591906130af565b90506000600560008a815260200190815260200160002090506000600160003373ffffffffffffffffffffffffffffffffffffffff1673ffffffffffffffffffffffffffffffffffffffff168152602001908152602001600020600101905060008260070160008b815260200190815260200160002060003373ffffffffffffffffffffffffffffffffffffffff1673ffffffffffffffffffffffffffffffffffffffff168152602001908152602001600020905060008360060160008c8152602001908152602001600020905060008054906101000a900473ffffffffffffffffffffffffffffffffffffffff1673ffffffffffffffffffffffffffffffffffffffff166108fc879081150290604051600060405180830381858888f193505050501580156117c9573d6000803e3d6000fd5b5084600160003373ffffffffffffffffffffffffffffffffffffffff1673ffffffffffffffffffffffffffffffffffffffff168152602001908152602001600020600001600082825461181c9190613059565b92505081905550826040518060c001604052803373ffffffffffffffffffffffffffffffffffffffff1681526020018781526020018d81526020018e81526020016040518060400160405280600c81526020017f506f696e74205370726561640000000000000000000000000000000000000000815250815260200142815250908060018154018082558091505060019003906000526020600020906006020160009091909190915060008201518160000160006101000a81548173ffffffffffffffffffffffffffffffffffffffff021916908373ffffffffffffffffffffffffffffffffffffffff160217905550602082015181600101556040820151816002015560608201518160030155608082015181600401908051906020019061194692919061256c565b5060a08201518160050155505034600260008e815260200190815260200160002060008282546119769190613059565b9250508190555034600360008e815260200190815260200160002060008d815260200190815260200160002060008282546119b19190613059565b92505081905550848460020160008282546119cc9190613059565b92505081905550848460030160008d815260200190815260200160002060008282546119f89190613059565b92505081905550898460040181905550888460050181905550611a1a88611c2f565b8460010181905550868460000160008d8152602001908152602001600020819055503373ffffffffffffffffffffffffffffffffffffffff16600560008e815260200190815260200160002060070160008d815260200190815260200160002060003373ffffffffffffffffffffffffffffffffffffffff1673ffffffffffffffffffffffffffffffffffffffff16815260200190815260200160002060000160009054906101000a900473ffffffffffffffffffffffffffffffffffffffff1673ffffffffffffffffffffffffffffffffffffffff1614611b595780339080600181540180825580915050600190039060005260206000200160009091909190916101000a81548173ffffffffffffffffffffffffffffffffffffffff021916908373ffffffffffffffffffffffffffffffffffffffff1602179055505b338260000160006101000a81548173ffffffffffffffffffffffffffffffffffffffff021916908373ffffffffffffffffffffffffffffffffffffffff16021790555084826001016000828254611bb09190613059565b925050819055508a82600201819055508b82600301819055506040518060400160405280600c81526020017f506f696e74205370726561640000000000000000000000000000000000000000815250826004019080519060200190611c1692919061256c565b5042826005018190555050505050505050505050505050565b600081604051602001611c429190612d67565b6040516020818303038152906040528051906020012060001c9050919050565b60008054906101000a900473ffffffffffffffffffffffffffffffffffffffff1673ffffffffffffffffffffffffffffffffffffffff163373ffffffffffffffffffffffffffffffffffffffff1614611cf0576040517f08c379a0000000000000000000000000000000000000000000000000000000008152600401611ce790612e3d565b60405180910390fd5b60008054906101000a900473ffffffffffffffffffffffffffffffffffffffff1673ffffffffffffffffffffffffffffffffffffffff166108fc479081150290604051600060405180830381858888f19350505050158015611d56573d6000803e3d6000fd5b50565b600060056000848152602001908152602001600020600001600083815260200190815260200160002054905092915050565b81831415611d9857600080fd5b8573ffffffffffffffffffffffffffffffffffffffff163373ffffffffffffffffffffffffffffffffffffffff1614611e06576040517f08c379a0000000000000000000000000000000000000000000000000000000008152600401611dfd90612dfd565b60405180910390fd5b60003411611e49576040517f08c379a0000000000000000000000000000000000000000000000000000000008152600401611e4090612e1d565b60405180910390fd5b82841480611e5657508184145b611e95576040517f08c379a0000000000000000000000000000000000000000000000000000000008152600401611e8c90612ddd565b60405180910390fd5b60006064600534611ea691906130e0565b611eb091906130af565b905060006064605f34611ec391906130e0565b611ecd91906130af565b905060006004600089815260200190815260200160002090506000600160003373ffffffffffffffffffffffffffffffffffffffff1673ffffffffffffffffffffffffffffffffffffffff168152602001908152602001600020600101905060008260060160008a815260200190815260200160002060003373ffffffffffffffffffffffffffffffffffffffff1673ffffffffffffffffffffffffffffffffffffffff168152602001908152602001600020905060008360050160008b8152602001908152602001600020905060008054906101000a900473ffffffffffffffffffffffffffffffffffffffff1673ffffffffffffffffffffffffffffffffffffffff166108fc879081150290604051600060405180830381858888f19350505050158015612001573d6000803e3d6000fd5b5084600160003373ffffffffffffffffffffffffffffffffffffffff1673ffffffffffffffffffffffffffffffffffffffff16815260200190815260200160002060000160008282546120549190613059565b92505081905550826040518060c001604052803373ffffffffffffffffffffffffffffffffffffffff1681526020018781526020018c81526020018d81526020016040518060400160405280600a81526020017f4d6f6e6579204c696e6500000000000000000000000000000000000000000000815250815260200142815250908060018154018082558091505060019003906000526020600020906006020160009091909190915060008201518160000160006101000a81548173ffffffffffffffffffffffffffffffffffffffff021916908373ffffffffffffffffffffffffffffffffffffffff160217905550602082015181600101556040820151816002015560608201518160030155608082015181600401908051906020019061217e92919061256c565b5060a08201518160050155505034600260008d815260200190815260200160002060008282546121ae9190613059565b9250508190555034600360008d815260200190815260200160002060008c815260200190815260200160002060008282546121e99190613059565b92505081905550848460010160008282546122049190613059565b92505081905550848460020160008c815260200190815260200160002060008282546122309190613059565b9250508190555088846003018190555087846004018190555061225287611c2f565b84600001819055503373ffffffffffffffffffffffffffffffffffffffff16600460008d815260200190815260200160002060060160008c815260200190815260200160002060003373ffffffffffffffffffffffffffffffffffffffff1673ffffffffffffffffffffffffffffffffffffffff16815260200190815260200160002060000160009054906101000a900473ffffffffffffffffffffffffffffffffffffffff1673ffffffffffffffffffffffffffffffffffffffff16146123775780339080600181540180825580915050600190039060005260206000200160009091909190916101000a81548173ffffffffffffffffffffffffffffffffffffffff021916908373ffffffffffffffffffffffffffffffffffffffff1602179055505b338260000160006101000a81548173ffffffffffffffffffffffffffffffffffffffff021916908373ffffffffffffffffffffffffffffffffffffffff160217905550848260010160008282546123ce9190613059565b925050819055508982600201819055508a82600301819055506040518060400160405280600a81526020017f4d6f6e6579204c696e650000000000000000000000000000000000000000000081525082600401908051906020019061243492919061256c565b50428260050181905550505050505050505050505050565b60008060036000858152602001908152602001600020600084815260200190815260200160002054905060006002600086815260200190815260200160002054905060008160648461249e91906130e0565b6124a891906130af565b905080935050505092915050565b606060066000848152602001908152602001600020600601600083815260200190815260200160002080548060200260200160405190810160405280929190818152602001828054801561255f57602002820191906000526020600020905b8160009054906101000a900473ffffffffffffffffffffffffffffffffffffffff1673ffffffffffffffffffffffffffffffffffffffff1681526020019060010190808311612515575b5050505050905092915050565b828054612578906131c2565b90600052602060002090601f01602090048101928261259a57600085556125e1565b82601f106125b357805160ff19168380011785556125e1565b828001600101855582156125e1579182015b828111156125e05782518255916020019190600101906125c5565b5b5090506125ee919061263e565b5090565b6040518060c00160405280600073ffffffffffffffffffffffffffffffffffffffff16815260200160008152602001600081526020016000815260200160608152602001600081525090565b5b8082111561265757600081600090555060010161263f565b5090565b600061266e61266984612f7f565b612f4e565b90508281526020810184848401111561268657600080fd5b612691848285613180565b509392505050565b6000813590506126a8816132c1565b92915050565b6000813590506126bd816132d8565b92915050565b600082601f8301126126d457600080fd5b81356126e484826020860161265b565b91505092915050565b6000813590506126fc816132ef565b92915050565b60006020828403121561271457600080fd5b600061272284828501612699565b91505092915050565b60008060008060008060c0878903121561274457600080fd5b600061275289828a01612699565b965050602061276389828a016126ed565b955050604061277489828a016126ed565b945050606061278589828a016126ed565b935050608061279689828a016126ed565b92505060a087013567ffffffffffffffff8111156127b357600080fd5b6127bf89828a016126c3565b9150509295509295509295565b600080600080600080600060e0888a0312156127e757600080fd5b60006127f58a828b01612699565b97505060206128068a828b016126ed565b96505060406128178a828b016126ed565b95505060606128288a828b016126ed565b94505060806128398a828b016126ed565b93505060a088013567ffffffffffffffff81111561285657600080fd5b6128628a828b016126c3565b92505060c06128738a828b016126ae565b91505092959891949750929550565b60006020828403121561289457600080fd5b600082013567ffffffffffffffff8111156128ae57600080fd5b6128ba848285016126c3565b91505092915050565b6000602082840312156128d557600080fd5b60006128e3848285016126ed565b91505092915050565b600080604083850312156128ff57600080fd5b600061290d858286016126ed565b925050602061291e858286016126ae565b9150509250929050565b6000806040838503121561293b57600080fd5b6000612949858286016126ed565b925050602061295a858286016126ed565b9150509250929050565b60006129708383612990565b60208301905092915050565b60006129888383612c37565b905092915050565b6129998161313a565b82525050565b60006129aa82612fcf565b6129b4818561300a565b93506129bf83612faf565b8060005b838110156129f05781516129d78882612964565b97506129e283612ff0565b9250506001810190506129c3565b5085935050505092915050565b6000612a0882612fda565b612a12818561301b565b935083602082028501612a2485612fbf565b8060005b85811015612a605784840389528151612a41858261297c565b9450612a4c83612ffd565b925060208a01995050600181019050612a28565b50829750879550505050505092915050565b612a7b8161314c565b82525050565b6000612a8c82612fe5565b612a96818561302c565b9350612aa681856020860161318f565b612aaf816132b0565b840191505092915050565b6000612ac582612fe5565b612acf818561304e565b9350612adf81856020860161318f565b80840191505092915050565b6000612af860338361303d565b91507f596f75206d75737420626574206f6e2061207465616d2074686174206973207060008301527f6c6179696e6720696e20746869732067616d65000000000000000000000000006020830152604082019050919050565b6000612b5e60228361303d565b91507f596f75206d757374206265742066726f6d20796f7572206f776e20616464726560008301527f73730000000000000000000000000000000000000000000000000000000000006020830152604082019050919050565b6000612bc460168361303d565b91507f596f75206d7573742062657420736f6d657468696e67000000000000000000006000830152602082019050919050565b6000612c0460158361303d565b91507f596f7520617265206e6f74207468652061646d696e00000000000000000000006000830152602082019050919050565b600060c083016000830151612c4f6000860182612990565b506020830151612c626020860182612d49565b506040830151612c756040860182612d49565b506060830151612c886060860182612d49565b5060808301518482036080860152612ca08282612a81565b91505060a0830151612cb560a0860182612d49565b508091505092915050565b600060c083016000830151612cd86000860182612990565b506020830151612ceb6020860182612d49565b506040830151612cfe6040860182612d49565b506060830151612d116060860182612d49565b5060808301518482036080860152612d298282612a81565b91505060a0830151612d3e60a0860182612d49565b508091505092915050565b612d5281613176565b82525050565b612d6181613176565b82525050565b6000612d738284612aba565b915081905092915050565b60006020820190508181036000830152612d98818461299f565b905092915050565b60006020820190508181036000830152612dba81846129fd565b905092915050565b6000602082019050612dd76000830184612a72565b92915050565b60006020820190508181036000830152612df681612aeb565b9050919050565b60006020820190508181036000830152612e1681612b51565b9050919050565b60006020820190508181036000830152612e3681612bb7565b9050919050565b60006020820190508181036000830152612e5681612bf7565b9050919050565b60006020820190508181036000830152612e778184612cc0565b905092915050565b6000602082019050612e946000830184612d58565b92915050565b600060a082019050612eaf6000830188612d58565b612ebc6020830187612d58565b612ec96040830186612d58565b612ed66060830185612d58565b612ee36080830184612d58565b9695505050505050565b600060c082019050612f026000830189612d58565b612f0f6020830188612d58565b612f1c6040830187612d58565b612f296060830186612d58565b612f366080830185612d58565b612f4360a0830184612a72565b979650505050505050565b6000604051905081810181811067ffffffffffffffff82111715612f7557612f74613281565b5b8060405250919050565b600067ffffffffffffffff821115612f9a57612f99613281565b5b601f19601f8301169050602081019050919050565b6000819050602082019050919050565b6000819050602082019050919050565b600081519050919050565b600081519050919050565b600081519050919050565b6000602082019050919050565b6000602082019050919050565b600082825260208201905092915050565b600082825260208201905092915050565b600082825260208201905092915050565b600082825260208201905092915050565b600081905092915050565b600061306482613176565b915061306f83613176565b9250827fffffffffffffffffffffffffffffffffffffffffffffffffffffffffffffffff038211156130a4576130a36131f4565b5b828201905092915050565b60006130ba82613176565b91506130c583613176565b9250826130d5576130d4613223565b5b828204905092915050565b60006130eb82613176565b91506130f683613176565b9250817fffffffffffffffffffffffffffffffffffffffffffffffffffffffffffffffff048311821515161561312f5761312e6131f4565b5b828202905092915050565b600061314582613156565b9050919050565b6000819050919050565b600073ffffffffffffffffffffffffffffffffffffffff82169050919050565b6000819050919050565b82818337600083830152505050565b60005b838110156131ad578082015181840152602081019050613192565b838111156131bc576000848401525b50505050565b600060028204905060018216806131da57607f821691505b602082108114156131ee576131ed613252565b5b50919050565b7f4e487b7100000000000000000000000000000000000000000000000000000000600052601160045260246000fd5b7f4e487b7100000000000000000000000000000000000000000000000000000000600052601260045260246000fd5b7f4e487b7100000000000000000000000000000000000000000000000000000000600052602260045260246000fd5b7f4e487b7100000000000000000000000000000000000000000000000000000000600052604160045260246000fd5b6000601f19601f8301169050919050565b6132ca8161313a565b81146132d557600080fd5b50565b6132e18161314c565b81146132ec57600080fd5b50565b6132f881613176565b811461330357600080fd5b5056fea2646970667358221220ce2d4cc5144dd6590275bc7c259a9416bb00a0df3433144c5dcbc6e9af9419db64736f6c63430008000033",
  "linkReferences": {},
  "deployedLinkReferences": {}
}