{
  "_format": "hh-sol-artifact-1",
  "contractName": "Bet",
  "sourceName": "contracts/Bet.sol",
  "abi": [
    {
      "inputs": [],
      "stateMutability": "nonpayable",
      "type": "constructor"
    },
    {
      "inputs": [],
      "name": "automate",
      "outputs": [
        {
          "internalType": "contract IAutomate",
          "name": "",
          "type": "address"
        }
      ],
      "stateMutability": "view",
      "type": "function"
    },
    {
      "inputs": [],
      "name": "dedicatedMsgSender",
      "outputs": [
        {
          "internalType": "address",
          "name": "",
          "type": "address"
        }
      ],
      "stateMutability": "view",
      "type": "function"
    },
    {
      "inputs": [],
      "name": "fundsOwner",
      "outputs": [
        {
          "internalType": "address",
          "name": "",
          "type": "address"
        }
      ],
      "stateMutability": "view",
      "type": "function"
    },
    {
      "inputs": [],
      "name": "gelato1Balance",
      "outputs": [
        {
          "internalType": "contract IGelato1Balance",
          "name": "",
          "type": "address"
        }
      ],
      "stateMutability": "view",
      "type": "function"
    },
    {
      "inputs": [
        {
          "internalType": "uint256",
          "name": "",
          "type": "uint256"
        }
      ],
      "name": "home_team_score",
      "outputs": [
        {
          "internalType": "uint256",
          "name": "",
          "type": "uint256"
        }
      ],
      "stateMutability": "view",
      "type": "function"
    },
    {
      "inputs": [
        {
          "internalType": "address",
          "name": "user",
          "type": "address"
        },
        {
          "internalType": "uint256",
          "name": "gameID",
          "type": "uint256"
        },
        {
          "internalType": "uint256",
          "name": "teamID",
          "type": "uint256"
        },
        {
          "internalType": "uint256",
          "name": "homeTeamID",
          "type": "uint256"
        },
        {
          "internalType": "uint256",
          "name": "awayTeamID",
          "type": "uint256"
        },
        {
          "internalType": "uint256",
          "name": "startTime",
          "type": "uint256"
        },
        {
          "internalType": "string",
          "name": "web3ContractAddress",
          "type": "string"
        }
      ],
      "name": "moneyLineBet",
      "outputs": [],
      "stateMutability": "payable",
      "type": "function"
    },
    {
      "inputs": [
        {
          "internalType": "uint256",
          "name": "",
          "type": "uint256"
        }
      ],
      "name": "newMoneyLineBet",
      "outputs": [
        {
          "internalType": "uint256",
          "name": "startTime",
          "type": "uint256"
        },
        {
          "internalType": "uint256",
          "name": "total",
          "type": "uint256"
        },
        {
          "internalType": "uint256",
          "name": "homeTeamID",
          "type": "uint256"
        },
        {
          "internalType": "uint256",
          "name": "awayTeamID",
          "type": "uint256"
        },
        {
          "internalType": "bytes32",
          "name": "taskID",
          "type": "bytes32"
        }
      ],
      "stateMutability": "view",
      "type": "function"
    },
    {
      "inputs": [
        {
          "internalType": "uint256",
          "name": "",
          "type": "uint256"
        }
      ],
      "name": "newPointSpreadBet",
      "outputs": [
        {
          "internalType": "uint256",
          "name": "startTime",
          "type": "uint256"
        },
        {
          "internalType": "uint256",
          "name": "total",
          "type": "uint256"
        },
        {
          "internalType": "uint256",
          "name": "homeTeamID",
          "type": "uint256"
        },
        {
          "internalType": "uint256",
          "name": "awayTeamID",
          "type": "uint256"
        },
        {
          "internalType": "bytes32",
          "name": "taskID",
          "type": "bytes32"
        }
      ],
      "stateMutability": "view",
      "type": "function"
    },
    {
      "inputs": [
        {
          "internalType": "uint256",
          "name": "",
          "type": "uint256"
        }
      ],
      "name": "newPointTotalBet",
      "outputs": [
        {
          "internalType": "uint256",
          "name": "startTime",
          "type": "uint256"
        },
        {
          "internalType": "uint256",
          "name": "total",
          "type": "uint256"
        },
        {
          "internalType": "uint256",
          "name": "homeTeamID",
          "type": "uint256"
        },
        {
          "internalType": "uint256",
          "name": "awayTeamID",
          "type": "uint256"
        },
        {
          "internalType": "bytes32",
          "name": "taskID",
          "type": "bytes32"
        }
      ],
      "stateMutability": "view",
      "type": "function"
    },
    {
      "inputs": [
        {
          "internalType": "address",
          "name": "user",
          "type": "address"
        },
        {
          "internalType": "uint256",
          "name": "gameID",
          "type": "uint256"
        },
        {
          "internalType": "uint256",
          "name": "teamID",
          "type": "uint256"
        },
        {
          "internalType": "uint256",
          "name": "homeTeamID",
          "type": "uint256"
        },
        {
          "internalType": "uint256",
          "name": "awayTeamID",
          "type": "uint256"
        },
        {
          "internalType": "uint256",
          "name": "startTime",
          "type": "uint256"
        },
        {
          "internalType": "int256",
          "name": "spread",
          "type": "int256"
        },
        {
          "internalType": "string",
          "name": "web3ContractAddress",
          "type": "string"
        }
      ],
      "name": "pointSpreadBet",
      "outputs": [],
      "stateMutability": "payable",
      "type": "function"
    },
    {
      "inputs": [
        {
          "internalType": "address",
          "name": "user",
          "type": "address"
        },
        {
          "internalType": "uint256",
          "name": "gameID",
          "type": "uint256"
        },
        {
          "internalType": "uint256",
          "name": "pointAmount",
          "type": "uint256"
        },
        {
          "internalType": "uint256",
          "name": "homeTeamID",
          "type": "uint256"
        },
        {
          "internalType": "uint256",
          "name": "awayTeamID",
          "type": "uint256"
        },
        {
          "internalType": "uint256",
          "name": "startTime",
          "type": "uint256"
        },
        {
          "internalType": "string",
          "name": "web3ContractAddress",
          "type": "string"
        }
      ],
      "name": "pointTotalBet",
      "outputs": [],
      "stateMutability": "payable",
      "type": "function"
    },
    {
      "inputs": [],
      "name": "returnEscrow",
      "outputs": [
        {
          "internalType": "uint256",
          "name": "",
          "type": "uint256"
        }
      ],
      "stateMutability": "view",
      "type": "function"
    },
    {
      "inputs": [
        {
          "internalType": "uint256",
          "name": "gameID",
          "type": "uint256"
        },
        {
          "internalType": "uint256",
          "name": "teamID",
          "type": "uint256"
        }
      ],
      "name": "returnMoneyLineBetReceipt",
      "outputs": [
        {
          "components": [
            {
              "internalType": "address",
              "name": "addr",
              "type": "address"
            },
            {
              "internalType": "uint256",
              "name": "amount",
              "type": "uint256"
            },
            {
              "internalType": "uint256",
              "name": "teamID",
              "type": "uint256"
            },
            {
              "internalType": "uint256",
              "name": "gameID",
              "type": "uint256"
            },
            {
              "internalType": "string",
              "name": "betType",
              "type": "string"
            },
            {
              "internalType": "uint256",
              "name": "time",
              "type": "uint256"
            },
            {
              "internalType": "bool",
              "name": "active",
              "type": "bool"
            }
          ],
          "internalType": "struct Bet.Transaction",
          "name": "",
          "type": "tuple"
        }
      ],
      "stateMutability": "view",
      "type": "function"
    },
    {
      "inputs": [
        {
          "internalType": "uint256",
          "name": "gameID",
          "type": "uint256"
        },
        {
          "internalType": "uint256",
          "name": "teamID",
          "type": "uint256"
        }
      ],
      "name": "returnMoneyLineBetTotal",
      "outputs": [
        {
          "internalType": "uint256",
          "name": "",
          "type": "uint256"
        }
      ],
      "stateMutability": "view",
      "type": "function"
    },
    {
      "inputs": [
        {
          "internalType": "uint256",
          "name": "gameID",
          "type": "uint256"
        },
        {
          "internalType": "uint256",
          "name": "bettingTeamID",
          "type": "uint256"
        }
      ],
      "name": "returnOdds",
      "outputs": [
        {
          "internalType": "uint256",
          "name": "",
          "type": "uint256"
        }
      ],
      "stateMutability": "view",
      "type": "function"
    },
    {
      "inputs": [
        {
          "internalType": "uint256",
          "name": "gameID",
          "type": "uint256"
        },
        {
          "internalType": "uint256",
          "name": "teamID",
          "type": "uint256"
        }
      ],
      "name": "returnPointSpreadBetReceipt",
      "outputs": [
        {
          "components": [
            {
              "internalType": "address",
              "name": "addr",
              "type": "address"
            },
            {
              "internalType": "uint256",
              "name": "amount",
              "type": "uint256"
            },
            {
              "internalType": "uint256",
              "name": "teamID",
              "type": "uint256"
            },
            {
              "internalType": "uint256",
              "name": "gameID",
              "type": "uint256"
            },
            {
              "internalType": "string",
              "name": "betType",
              "type": "string"
            },
            {
              "internalType": "uint256",
              "name": "time",
              "type": "uint256"
            },
            {
              "internalType": "bool",
              "name": "active",
              "type": "bool"
            }
          ],
          "internalType": "struct Bet.Transaction",
          "name": "",
          "type": "tuple"
        }
      ],
      "stateMutability": "view",
      "type": "function"
    },
    {
      "inputs": [
        {
          "internalType": "uint256",
          "name": "gameID",
          "type": "uint256"
        },
        {
          "internalType": "uint256",
          "name": "teamID",
          "type": "uint256"
        }
      ],
      "name": "returnPointSpreadBetTotal",
      "outputs": [
        {
          "internalType": "uint256",
          "name": "",
          "type": "uint256"
        }
      ],
      "stateMutability": "view",
      "type": "function"
    },
    {
      "inputs": [
        {
          "internalType": "uint256",
          "name": "gameID",
          "type": "uint256"
        }
      ],
      "name": "returnPointTotalBetReceipt",
      "outputs": [
        {
          "components": [
            {
              "internalType": "address",
              "name": "addr",
              "type": "address"
            },
            {
              "internalType": "uint256",
              "name": "amount",
              "type": "uint256"
            },
            {
              "internalType": "uint256",
              "name": "teamID",
              "type": "uint256"
            },
            {
              "internalType": "uint256",
              "name": "gameID",
              "type": "uint256"
            },
            {
              "internalType": "string",
              "name": "betType",
              "type": "string"
            },
            {
              "internalType": "uint256",
              "name": "time",
              "type": "uint256"
            },
            {
              "internalType": "bool",
              "name": "active",
              "type": "bool"
            }
          ],
          "internalType": "struct Bet.Transaction",
          "name": "",
          "type": "tuple"
        }
      ],
      "stateMutability": "view",
      "type": "function"
    },
    {
      "inputs": [
        {
          "internalType": "uint256",
          "name": "gameID",
          "type": "uint256"
        }
      ],
      "name": "returnPointTotalBetTotal",
      "outputs": [
        {
          "internalType": "uint256",
          "name": "",
          "type": "uint256"
        }
      ],
      "stateMutability": "view",
      "type": "function"
    },
    {
      "inputs": [],
      "name": "returnReceipts",
      "outputs": [
        {
          "components": [
            {
              "internalType": "address",
              "name": "addr",
              "type": "address"
            },
            {
              "internalType": "uint256",
              "name": "amount",
              "type": "uint256"
            },
            {
              "internalType": "uint256",
              "name": "teamID",
              "type": "uint256"
            },
            {
              "internalType": "uint256",
              "name": "gameID",
              "type": "uint256"
            },
            {
              "internalType": "string",
              "name": "betType",
              "type": "string"
            },
            {
              "internalType": "uint256",
              "name": "time",
              "type": "uint256"
            },
            {
              "internalType": "bool",
              "name": "active",
              "type": "bool"
            }
          ],
          "internalType": "struct Bet.Transaction[]",
          "name": "",
          "type": "tuple[]"
        }
      ],
      "stateMutability": "view",
      "type": "function"
    },
    {
      "inputs": [
        {
          "internalType": "uint256",
          "name": "gameID",
          "type": "uint256"
        },
        {
          "internalType": "uint256",
          "name": "winnerID",
          "type": "uint256"
        },
        {
          "internalType": "uint256",
          "name": "loserID",
          "type": "uint256"
        }
      ],
      "name": "rewardMoneyLineWinners",
      "outputs": [],
      "stateMutability": "nonpayable",
      "type": "function"
    },
    {
      "inputs": [
        {
          "internalType": "uint256",
          "name": "gameID",
          "type": "uint256"
        },
        {
          "internalType": "uint256",
          "name": "winnerID",
          "type": "uint256"
        },
        {
          "internalType": "uint256",
          "name": "loserID",
          "type": "uint256"
        },
        {
          "internalType": "int256",
          "name": "winnerScore",
          "type": "int256"
        },
        {
          "internalType": "int256",
          "name": "loserScore",
          "type": "int256"
        }
      ],
      "name": "rewardPointSpreadWinners",
      "outputs": [],
      "stateMutability": "nonpayable",
      "type": "function"
    },
    {
      "inputs": [
        {
          "internalType": "uint256",
          "name": "gameID",
          "type": "uint256"
        },
        {
          "internalType": "uint256",
          "name": "total",
          "type": "uint256"
        }
      ],
      "name": "rewardPointTotalWinners",
      "outputs": [],
      "stateMutability": "nonpayable",
      "type": "function"
    },
    {
      "inputs": [
        {
          "internalType": "uint256",
          "name": "",
          "type": "uint256"
        }
      ],
      "name": "totalBetOnGame",
      "outputs": [
        {
          "internalType": "uint256",
          "name": "",
          "type": "uint256"
        }
      ],
      "stateMutability": "view",
      "type": "function"
    },
    {
      "inputs": [
        {
          "internalType": "uint256",
          "name": "",
          "type": "uint256"
        },
        {
          "internalType": "uint256",
          "name": "",
          "type": "uint256"
        }
      ],
      "name": "totalBetOnTeam",
      "outputs": [
        {
          "internalType": "uint256",
          "name": "",
          "type": "uint256"
        }
      ],
      "stateMutability": "view",
      "type": "function"
    },
    {
      "inputs": [
        {
          "internalType": "address",
          "name": "",
          "type": "address"
        }
      ],
      "name": "userReceipts",
      "outputs": [
        {
          "internalType": "uint256",
          "name": "escrow",
          "type": "uint256"
        }
      ],
      "stateMutability": "view",
      "type": "function"
    },
    {
      "inputs": [
        {
          "internalType": "uint256",
          "name": "",
          "type": "uint256"
        }
      ],
      "name": "visitor_team_score",
      "outputs": [
        {
          "internalType": "uint256",
          "name": "",
          "type": "uint256"
        }
      ],
      "stateMutability": "view",
      "type": "function"
    }
  ],
  "bytecode": "0x6101006040523480156200001257600080fd5b50732a6c106ae13b558bb9e2ec64bd2f1f7beff3a5e03081308173ffffffffffffffffffffffffffffffffffffffff1660808173ffffffffffffffffffffffffffffffffffffffff16815250508173ffffffffffffffffffffffffffffffffffffffff1663573ea5756040518163ffffffff1660e01b8152600401602060405180830381865afa158015620000ab573d6000803e3d6000fd5b505050506040513d601f19601f82011682018060405250810190620000d191906200039b565b73ffffffffffffffffffffffffffffffffffffffff1660c08173ffffffffffffffffffffffffffffffffffffffff168152505060008273ffffffffffffffffffffffffffffffffffffffff1663cd3d4fb960026040518263ffffffff1660e01b81526004016200014291906200044d565b602060405180830381865afa15801562000160573d6000803e3d6000fd5b505050506040513d601f19601f82011682018060405250810190620001869190620004af565b905060008173ffffffffffffffffffffffffffffffffffffffff1663ba1d0ff46040518163ffffffff1660e01b8152600401602060405180830381865afa158015620001d6573d6000803e3d6000fd5b505050506040513d601f19601f82011682018060405250810190620001fc9190620004af565b90508073ffffffffffffffffffffffffffffffffffffffff1663ded89a7c846040518263ffffffff1660e01b8152600401620002399190620004f2565b6040805180830381865afa15801562000256573d6000803e3d6000fd5b505050506040513d601f19601f820116820180604052508101906200027c91906200054c565b508073ffffffffffffffffffffffffffffffffffffffff1660a09073ffffffffffffffffffffffffffffffffffffffff1681525050505050508073ffffffffffffffffffffffffffffffffffffffff1660e08173ffffffffffffffffffffffffffffffffffffffff16815250505050336000806101000a81548173ffffffffffffffffffffffffffffffffffffffff021916908373ffffffffffffffffffffffffffffffffffffffff16021790555062000593565b600080fd5b600073ffffffffffffffffffffffffffffffffffffffff82169050919050565b6000620003638262000336565b9050919050565b620003758162000356565b81146200038157600080fd5b50565b60008151905062000395816200036a565b92915050565b600060208284031215620003b457620003b362000331565b5b6000620003c48482850162000384565b91505092915050565b7f4e487b7100000000000000000000000000000000000000000000000000000000600052602160045260246000fd5b6005811062000410576200040f620003cd565b5b50565b60008190506200042382620003fc565b919050565b6000620004358262000413565b9050919050565b620004478162000428565b82525050565b60006020820190506200046460008301846200043c565b92915050565b6000620004778262000336565b9050919050565b62000489816200046a565b81146200049557600080fd5b50565b600081519050620004a9816200047e565b92915050565b600060208284031215620004c857620004c762000331565b5b6000620004d88482850162000498565b91505092915050565b620004ec816200046a565b82525050565b6000602082019050620005096000830184620004e1565b92915050565b60008115159050919050565b62000526816200050f565b81146200053257600080fd5b50565b60008151905062000546816200051b565b92915050565b6000806040838503121562000566576200056562000331565b5b6000620005768582860162000498565b9250506020620005898582860162000535565b9150509250929050565b60805160a05160c05160e051615e0e620005e6600039600061275d015260005050600081816110be01528181611a5b01528181611c6e01526133380152600081816119d101526146dc0152615e0e6000f3fe60806040526004361061019c5760003560e01c80636bd4c7c0116100ec578063a4786f3d1161008a578063b1e49b9911610064578063b1e49b991461063e578063ec5a24d71461065a578063f227ce4d14610697578063f782a754146106d45761019c565b8063a4786f3d14610583578063a910e4a5146105c0578063a91faba2146105fd5761019c565b806381142907116100c657806381142907146104c05780638edd3971146104dc5780638ee95f9f1461051d578063914989fd146105465761019c565b80636bd4c7c01461041b5780637ea4178a1461045857806380eb6d04146104835761019c565b806328f150eb116101595780633b51e58a116101335780633b51e58a1461035f57806346ee3c591461038857806347f53fc9146103b357806357fb1d67146103f05761019c565b806328f150eb146102cc5780632b3a4ef6146102f75780633946f666146103345761019c565b8063037081e9146101a157806303bfeb20146101bd578063049aacfe146101e657806323821c21146102115780632429827f1461024e578063245a2fad1461028f575b600080fd5b6101bb60048036038101906101b69190614aa2565b610711565b005b3480156101c957600080fd5b506101e460048036038101906101df9190614b74565b6110bc565b005b3480156101f257600080fd5b506101fb6119cf565b6040516102089190614c26565b60405180910390f35b34801561021d57600080fd5b5061023860048036038101906102339190614c41565b6119f3565b6040516102459190614c7d565b60405180910390f35b34801561025a57600080fd5b5061027560048036038101906102709190614c41565b611a0b565b604051610286959493929190614cb1565b60405180910390f35b34801561029b57600080fd5b506102b660048036038101906102b19190614c41565b611a41565b6040516102c39190614c7d565b60405180910390f35b3480156102d857600080fd5b506102e1611a59565b6040516102ee9190614d13565b60405180910390f35b34801561030357600080fd5b5061031e60048036038101906103199190614d2e565b611a7d565b60405161032b9190614c7d565b60405180910390f35b34801561034057600080fd5b50610349611aa2565b6040516103569190614f8d565b60405180910390f35b34801561036b57600080fd5b5061038660048036038101906103819190614faf565b611c6c565b005b34801561039457600080fd5b5061039d61275b565b6040516103aa9190614d13565b60405180910390f35b3480156103bf57600080fd5b506103da60048036038101906103d59190614d2e565b61277f565b6040516103e79190614c7d565b60405180910390f35b3480156103fc57600080fd5b506104056127b1565b604051610412919061504b565b60405180910390f35b34801561042757600080fd5b50610442600480360381019061043d9190614d2e565b6127c9565b60405161044f9190615102565b60405180910390f35b34801561046457600080fd5b5061046d612973565b60405161047a9190614c7d565b60405180910390f35b34801561048f57600080fd5b506104aa60048036038101906104a59190614c41565b6129bd565b6040516104b79190614c7d565b60405180910390f35b6104da60048036038101906104d59190615124565b6129d5565b005b3480156104e857600080fd5b5061050360048036038101906104fe9190614c41565b613300565b604051610514959493929190614cb1565b60405180910390f35b34801561052957600080fd5b50610544600480360381019061053f9190614d2e565b613336565b005b34801561055257600080fd5b5061056d60048036038101906105689190614c41565b6138fb565b60405161057a9190615102565b60405180910390f35b34801561058f57600080fd5b506105aa60048036038101906105a591906151e2565b613a93565b6040516105b79190614c7d565b60405180910390f35b3480156105cc57600080fd5b506105e760048036038101906105e29190614d2e565b613ab1565b6040516105f49190615102565b60405180910390f35b34801561060957600080fd5b50610624600480360381019061061f9190614c41565b613c5b565b604051610635959493929190614cb1565b60405180910390f35b61065860048036038101906106539190615124565b613c91565b005b34801561066657600080fd5b50610681600480360381019061067c9190614d2e565b6145aa565b60405161068e9190614c7d565b60405180910390f35b3480156106a357600080fd5b506106be60048036038101906106b99190614d2e565b6145dc565b6040516106cb9190614c7d565b60405180910390f35b3480156106e057600080fd5b506106fb60048036038101906106f69190614c41565b614646565b6040516107089190614c7d565b60405180910390f35b3373ffffffffffffffffffffffffffffffffffffffff1660056000898152602001908152602001600020600701600088815260200190815260200160002060003373ffffffffffffffffffffffffffffffffffffffff1673ffffffffffffffffffffffffffffffffffffffff16815260200190815260200160002060000160009054906101000a900473ffffffffffffffffffffffffffffffffffffffff1673ffffffffffffffffffffffffffffffffffffffff1603610806576040517f08c379a00000000000000000000000000000000000000000000000000000000081526004016107fd906152b8565b60405180910390fd5b83850361081257600080fd5b8773ffffffffffffffffffffffffffffffffffffffff163373ffffffffffffffffffffffffffffffffffffffff1614610880576040517f08c379a00000000000000000000000000000000000000000000000000000000081526004016108779061534a565b60405180910390fd5b600034116108c3576040517f08c379a00000000000000000000000000000000000000000000000000000000081526004016108ba906153b6565b60405180910390fd5b848614806108d057508386145b61090f576040517f08c379a000000000000000000000000000000000000000000000000000000000815260040161090690615448565b60405180910390fd5b6000801916600560008981526020019081526020016000206008015403610b295760006040518060400160405280600267ffffffffffffffff81111561095857610957614977565b5b6040519080825280602002602001820160405280156109865781602001602082028036833780820191505090505b508152602001600267ffffffffffffffff8111156109a7576109a6614977565b5b6040519080825280602002602001820160405280156109da57816020015b60608152602001906001900390816109c55790505b508152509050600281600001516000815181106109fa576109f9615468565b5b60200260200101906004811115610a1457610a13615497565b5b90816004811115610a2857610a27615497565b5b8152505060048160000151600181518110610a4657610a45615468565b5b60200260200101906004811115610a6057610a5f615497565b5b90816004811115610a7457610a73615497565b5b81525050610a80614666565b8160200151600081518110610a9857610a97615468565b5b6020026020010181905250610ab782610ab2308b8861467d565b6146ac565b8160200151600181518110610acf57610ace615468565b5b6020026020010181905250610b0d30633b51e58a60e01b604051602001610af69190615501565b6040516020818303038152906040528360006146d8565b600560008a815260200190815260200160002060080181905550505b60006064600534610b3a919061554b565b610b4491906155d4565b905060006064605f34610b57919061554b565b610b6191906155d4565b90506000600560008b815260200190815260200160002090506000600160003373ffffffffffffffffffffffffffffffffffffffff1673ffffffffffffffffffffffffffffffffffffffff168152602001908152602001600020600101905060008260070160008c815260200190815260200160002060003373ffffffffffffffffffffffffffffffffffffffff1673ffffffffffffffffffffffffffffffffffffffff168152602001908152602001600020905060008360060160008d8152602001908152602001600020905060008054906101000a900473ffffffffffffffffffffffffffffffffffffffff1673ffffffffffffffffffffffffffffffffffffffff166108fc879081150290604051600060405180830381858888f19350505050158015610c95573d6000803e3d6000fd5b5084600160003373ffffffffffffffffffffffffffffffffffffffff1673ffffffffffffffffffffffffffffffffffffffff1681526020019081526020016000206000016000828254610ce89190615605565b92505081905550826040518060e001604052803373ffffffffffffffffffffffffffffffffffffffff1681526020018781526020018e81526020018f81526020016040518060400160405280600c81526020017f506f696e74205370726561640000000000000000000000000000000000000000815250815260200142815260200160011515815250908060018154018082558091505060019003906000526020600020906007020160009091909190915060008201518160000160006101000a81548173ffffffffffffffffffffffffffffffffffffffff021916908373ffffffffffffffffffffffffffffffffffffffff1602179055506020820151816001015560408201518160020155606082015181600301556080820151816004019080519060200190610e1b929190614786565b5060a0820151816005015560c08201518160060160006101000a81548160ff021916908315150217905550505034600260008f81526020019081526020016000206000828254610e6b9190615605565b9250508190555034600360008f815260200190815260200160002060008e81526020019081526020016000206000828254610ea69190615605565b9250508190555084846002016000828254610ec19190615605565b92505081905550848460030160008e81526020019081526020016000206000828254610eed9190615605565b925050819055508a8460040181905550898460050181905550888460010181905550878460000160003373ffffffffffffffffffffffffffffffffffffffff1673ffffffffffffffffffffffffffffffffffffffff16815260200190815260200160002060008e81526020019081526020016000208190555080339080600181540180825580915050600190039060005260206000200160009091909190916101000a81548173ffffffffffffffffffffffffffffffffffffffff021916908373ffffffffffffffffffffffffffffffffffffffff160217905550338260000160006101000a81548173ffffffffffffffffffffffffffffffffffffffff021916908373ffffffffffffffffffffffffffffffffffffffff1602179055508482600101600082825461101f9190615605565b925050819055508b82600201819055508c82600301819055506040518060400160405280600c81526020017f506f696e74205370726561640000000000000000000000000000000000000000815250826004019080519060200190611085929190614786565b5042826005018190555060018260060160006101000a81548160ff0219169083151502179055505050505050505050505050505050565b7f000000000000000000000000000000000000000000000000000000000000000073ffffffffffffffffffffffffffffffffffffffff163373ffffffffffffffffffffffffffffffffffffffff161461114a576040517f08c379a0000000000000000000000000000000000000000000000000000000008152600401611141906156a7565b60405180910390fd5b60005b600460008581526020019081526020016000206005016000848152602001908152602001600020805490508110156115d957600060046000868152602001908152602001600020600501600085815260200190815260200160002082815481106111ba576111b9615468565b5b9060005260206000200160009054906101000a900473ffffffffffffffffffffffffffffffffffffffff169050600060046000878152602001908152602001600020600601600086815260200190815260200160002060008373ffffffffffffffffffffffffffffffffffffffff1673ffffffffffffffffffffffffffffffffffffffff1681526020019081526020016000206001015490506000600460008881526020019081526020016000206002016000878152602001908152602001600020548261128891906155d4565b90508273ffffffffffffffffffffffffffffffffffffffff166108fc82600460008b8152602001908152602001600020600101546112c6919061554b565b9081150290604051600060405180830381858888f193505050501580156112f1573d6000803e3d6000fd5b5081600160008573ffffffffffffffffffffffffffffffffffffffff1673ffffffffffffffffffffffffffffffffffffffff168152602001908152602001600020600001600082825461134491906156c7565b9250508190555060005b600160008573ffffffffffffffffffffffffffffffffffffffff1673ffffffffffffffffffffffffffffffffffffffff168152602001908152602001600020600101805490508110156115c2576000600160008673ffffffffffffffffffffffffffffffffffffffff1673ffffffffffffffffffffffffffffffffffffffff16815260200190815260200160002060010182815481106113f1576113f0615468565b5b90600052602060002090600702016040518060e00160405290816000820160009054906101000a900473ffffffffffffffffffffffffffffffffffffffff1673ffffffffffffffffffffffffffffffffffffffff1673ffffffffffffffffffffffffffffffffffffffff16815260200160018201548152602001600282015481526020016003820154815260200160048201805461148e9061572a565b80601f01602080910402602001604051908101604052809291908181526020018280546114ba9061572a565b80156115075780601f106114dc57610100808354040283529160200191611507565b820191906000526020600020905b8154815290600101906020018083116114ea57829003601f168201915b50505050508152602001600582015481526020016006820160009054906101000a900460ff16151515158152505090508881606001511480156115975750604051602001611554906157b2565b60405160208183030381529060405280519060200120816080015160405160200161157f91906157f8565b60405160208183030381529060405280519060200120145b156115ae5760008160c00190151590811515815250505b5080806115ba9061580f565b91505061134e565b5050505080806115d19061580f565b91505061114d565b5060005b600460008581526020019081526020016000206005016000838152602001908152602001600020805490508110156119c9576000600460008681526020019081526020016000206005016000848152602001908152602001600020828154811061164a57611649615468565b5b9060005260206000200160009054906101000a900473ffffffffffffffffffffffffffffffffffffffff169050600060046000878152602001908152602001600020600601600085815260200190815260200160002060008373ffffffffffffffffffffffffffffffffffffffff1673ffffffffffffffffffffffffffffffffffffffff16815260200190815260200160002060010154905080600160008473ffffffffffffffffffffffffffffffffffffffff1673ffffffffffffffffffffffffffffffffffffffff168152602001908152602001600020600001600082825461173591906156c7565b9250508190555060005b600160008473ffffffffffffffffffffffffffffffffffffffff1673ffffffffffffffffffffffffffffffffffffffff168152602001908152602001600020600101805490508110156119b3576000600160008573ffffffffffffffffffffffffffffffffffffffff1673ffffffffffffffffffffffffffffffffffffffff16815260200190815260200160002060010182815481106117e2576117e1615468565b5b90600052602060002090600702016040518060e00160405290816000820160009054906101000a900473ffffffffffffffffffffffffffffffffffffffff1673ffffffffffffffffffffffffffffffffffffffff1673ffffffffffffffffffffffffffffffffffffffff16815260200160018201548152602001600282015481526020016003820154815260200160048201805461187f9061572a565b80601f01602080910402602001604051908101604052809291908181526020018280546118ab9061572a565b80156118f85780601f106118cd576101008083540402835291602001916118f8565b820191906000526020600020905b8154815290600101906020018083116118db57829003601f168201915b50505050508152602001600582015481526020016006820160009054906101000a900460ff16151515158152505090508781606001511480156119885750604051602001611945906157b2565b60405160208183030381529060405280519060200120816080015160405160200161197091906157f8565b60405160208183030381529060405280519060200120145b1561199f5760008160c00190151590811515815250505b5080806119ab9061580f565b91505061173f565b50505080806119c19061580f565b9150506115dd565b50505050565b7f000000000000000000000000000000000000000000000000000000000000000081565b60026020528060005260406000206000915090505481565b60056020528060005260406000206000915090508060010154908060020154908060040154908060050154908060080154905085565b60076020528060005260406000206000915090505481565b7f000000000000000000000000000000000000000000000000000000000000000081565b6003602052816000526040600020602052806000526040600020600091509150505481565b6060600160003373ffffffffffffffffffffffffffffffffffffffff1673ffffffffffffffffffffffffffffffffffffffff168152602001908152602001600020600101805480602002602001604051908101604052809291908181526020016000905b82821015611c6357838290600052602060002090600702016040518060e00160405290816000820160009054906101000a900473ffffffffffffffffffffffffffffffffffffffff1673ffffffffffffffffffffffffffffffffffffffff1673ffffffffffffffffffffffffffffffffffffffff168152602001600182015481526020016002820154815260200160038201548152602001600482018054611bad9061572a565b80601f0160208091040260200160405190810160405280929190818152602001828054611bd99061572a565b8015611c265780601f10611bfb57610100808354040283529160200191611c26565b820191906000526020600020905b815481529060010190602001808311611c0957829003601f168201915b50505050508152602001600582015481526020016006820160009054906101000a900460ff16151515158152505081526020019060010190611b06565b50505050905090565b7f000000000000000000000000000000000000000000000000000000000000000073ffffffffffffffffffffffffffffffffffffffff163373ffffffffffffffffffffffffffffffffffffffff1614611cfa576040517f08c379a0000000000000000000000000000000000000000000000000000000008152600401611cf1906156a7565b60405180910390fd5b60005b600560008781526020019081526020016000206006016000868152602001908152602001600020805490508110156122265760006005600088815260200190815260200160002060060160008781526020019081526020016000208281548110611d6a57611d69615468565b5b9060005260206000200160009054906101000a900473ffffffffffffffffffffffffffffffffffffffff169050600060056000898152602001908152602001600020600701600088815260200190815260200160002060008373ffffffffffffffffffffffffffffffffffffffff1673ffffffffffffffffffffffffffffffffffffffff1681526020019081526020016000206001015490506000600560008a815260200190815260200160002060000160003373ffffffffffffffffffffffffffffffffffffffff1673ffffffffffffffffffffffffffffffffffffffff1681526020019081526020016000206000898152602001908152602001600020549050848187611e799190615857565b1315611ef3578273ffffffffffffffffffffffffffffffffffffffff166108fc83600560008d81526020019081526020016000206002015485611ebc91906155d4565b611ec6919061554b565b9081150290604051600060405180830381858888f19350505050158015611ef1573d6000803e3d6000fd5b505b81600160008573ffffffffffffffffffffffffffffffffffffffff1673ffffffffffffffffffffffffffffffffffffffff1681526020019081526020016000206000016000828254611f4591906156c7565b9250508190555060005b600160008573ffffffffffffffffffffffffffffffffffffffff1673ffffffffffffffffffffffffffffffffffffffff1681526020019081526020016000206001018054905081101561220f576000600160008673ffffffffffffffffffffffffffffffffffffffff1673ffffffffffffffffffffffffffffffffffffffff1681526020019081526020016000206001018281548110611ff257611ff1615468565b5b90600052602060002090600702016040518060e00160405290816000820160009054906101000a900473ffffffffffffffffffffffffffffffffffffffff1673ffffffffffffffffffffffffffffffffffffffff1673ffffffffffffffffffffffffffffffffffffffff16815260200160018201548152602001600282015481526020016003820154815260200160048201805461208f9061572a565b80601f01602080910402602001604051908101604052809291908181526020018280546120bb9061572a565b80156121085780601f106120dd57610100808354040283529160200191612108565b820191906000526020600020905b8154815290600101906020018083116120eb57829003601f168201915b50505050508152602001600582015481526020016006820160009054906101000a900460ff16151515158152505090508a604051602001612149919061590c565b604051602081830303815290604052805190602001208160600151604051602001612174919061590c565b604051602081830303815290604052805190602001201480156121e457506040516020016121a190615973565b6040516020818303038152906040528051906020012081608001516040516020016121cc91906157f8565b60405160208183030381529060405280519060200120145b156121fb5760008160c00190151590811515815250505b5080806122079061580f565b915050611f4f565b50505050808061221e9061580f565b915050611cfd565b5060005b60056000878152602001908152602001600020600601600085815260200190815260200160002080549050811015612753576000600560008881526020019081526020016000206006016000868152602001908152602001600020828154811061229757612296615468565b5b9060005260206000200160009054906101000a900473ffffffffffffffffffffffffffffffffffffffff169050600060056000898152602001908152602001600020600701600087815260200190815260200160002060008373ffffffffffffffffffffffffffffffffffffffff1673ffffffffffffffffffffffffffffffffffffffff16815260200190815260200160002060010154905080600160008473ffffffffffffffffffffffffffffffffffffffff1673ffffffffffffffffffffffffffffffffffffffff168152602001908152602001600020600001600082825461238291906156c7565b925050819055506000600560008a815260200190815260200160002060000160003373ffffffffffffffffffffffffffffffffffffffff1673ffffffffffffffffffffffffffffffffffffffff16815260200190815260200160002060008881526020019081526020016000205490508581866123ff9190615857565b1315612479578273ffffffffffffffffffffffffffffffffffffffff166108fc83600560008d8152602001908152602001600020600201548561244291906155d4565b61244c919061554b565b9081150290604051600060405180830381858888f19350505050158015612477573d6000803e3d6000fd5b505b60005b600160008573ffffffffffffffffffffffffffffffffffffffff1673ffffffffffffffffffffffffffffffffffffffff1681526020019081526020016000206001018054905081101561273c576000600160008673ffffffffffffffffffffffffffffffffffffffff1673ffffffffffffffffffffffffffffffffffffffff168152602001908152602001600020600101828154811061251f5761251e615468565b5b90600052602060002090600702016040518060e00160405290816000820160009054906101000a900473ffffffffffffffffffffffffffffffffffffffff1673ffffffffffffffffffffffffffffffffffffffff1673ffffffffffffffffffffffffffffffffffffffff1681526020016001820154815260200160028201548152602001600382015481526020016004820180546125bc9061572a565b80601f01602080910402602001604051908101604052809291908181526020018280546125e89061572a565b80156126355780601f1061260a57610100808354040283529160200191612635565b820191906000526020600020905b81548152906001019060200180831161261857829003601f168201915b50505050508152602001600582015481526020016006820160009054906101000a900460ff16151515158152505090508a604051602001612676919061590c565b6040516020818303038152906040528051906020012081606001516040516020016126a1919061590c565b6040516020818303038152906040528051906020012014801561271157506040516020016126ce90615973565b6040516020818303038152906040528051906020012081608001516040516020016126f991906157f8565b60405160208183030381529060405280519060200120145b156127285760008160c00190151590811515815250505b5080806127349061580f565b91505061247c565b50505050808061274b9061580f565b91505061222a565b505050505050565b7f000000000000000000000000000000000000000000000000000000000000000081565b600060046000848152602001908152602001600020600201600083815260200190815260200160002054905092915050565b737506c12a824d73d9b08564d5afc22c949434755e81565b6127d161480c565b60056000848152602001908152602001600020600701600083815260200190815260200160002060003373ffffffffffffffffffffffffffffffffffffffff1673ffffffffffffffffffffffffffffffffffffffff1681526020019081526020016000206040518060e00160405290816000820160009054906101000a900473ffffffffffffffffffffffffffffffffffffffff1673ffffffffffffffffffffffffffffffffffffffff1673ffffffffffffffffffffffffffffffffffffffff1681526020016001820154815260200160028201548152602001600382015481526020016004820180546128c49061572a565b80601f01602080910402602001604051908101604052809291908181526020018280546128f09061572a565b801561293d5780601f106129125761010080835404028352916020019161293d565b820191906000526020600020905b81548152906001019060200180831161292057829003601f168201915b50505050508152602001600582015481526020016006820160009054906101000a900460ff161515151581525050905092915050565b6000600160003373ffffffffffffffffffffffffffffffffffffffff1673ffffffffffffffffffffffffffffffffffffffff16815260200190815260200160002060000154905090565b60086020528060005260406000206000915090505481565b3373ffffffffffffffffffffffffffffffffffffffff166006600088815260200190815260200160002060060160003373ffffffffffffffffffffffffffffffffffffffff1673ffffffffffffffffffffffffffffffffffffffff16815260200190815260200160002060000160009054906101000a900473ffffffffffffffffffffffffffffffffffffffff1673ffffffffffffffffffffffffffffffffffffffff1603612ab9576040517f08c379a0000000000000000000000000000000000000000000000000000000008152600401612ab0906152b8565b60405180910390fd5b828403612ac557600080fd5b8673ffffffffffffffffffffffffffffffffffffffff163373ffffffffffffffffffffffffffffffffffffffff1614612b33576040517f08c379a0000000000000000000000000000000000000000000000000000000008152600401612b2a9061534a565b60405180910390fd5b60003411612b76576040517f08c379a0000000000000000000000000000000000000000000000000000000008152600401612b6d906153b6565b60405180910390fd5b6000801916600660008881526020019081526020016000206007015403612d905760006040518060400160405280600267ffffffffffffffff811115612bbf57612bbe614977565b5b604051908082528060200260200182016040528015612bed5781602001602082028036833780820191505090505b508152602001600267ffffffffffffffff811115612c0e57612c0d614977565b5b604051908082528060200260200182016040528015612c4157816020015b6060815260200190600190039081612c2c5790505b50815250905060028160000151600081518110612c6157612c60615468565b5b60200260200101906004811115612c7b57612c7a615497565b5b90816004811115612c8f57612c8e615497565b5b8152505060048160000151600181518110612cad57612cac615468565b5b60200260200101906004811115612cc757612cc6615497565b5b90816004811115612cdb57612cda615497565b5b81525050612ce7614666565b8160200151600081518110612cff57612cfe615468565b5b6020026020010181905250612d1e82612d19308a8761467d565b6146ac565b8160200151600181518110612d3657612d35615468565b5b6020026020010181905250612d7430638ee95f9f60e01b604051602001612d5d9190615501565b6040516020818303038152906040528360006146d8565b6006600089815260200190815260200160002060070181905550505b60006064600534612da1919061554b565b612dab91906155d4565b905060006064605f34612dbe919061554b565b612dc891906155d4565b90506000600660008a815260200190815260200160002090506000600160003373ffffffffffffffffffffffffffffffffffffffff1673ffffffffffffffffffffffffffffffffffffffff168152602001908152602001600020600101905060008260060160003373ffffffffffffffffffffffffffffffffffffffff1673ffffffffffffffffffffffffffffffffffffffff1681526020019081526020016000209050600083600501905060008054906101000a900473ffffffffffffffffffffffffffffffffffffffff1673ffffffffffffffffffffffffffffffffffffffff166108fc879081150290604051600060405180830381858888f19350505050158015612eda573d6000803e3d6000fd5b5084600160003373ffffffffffffffffffffffffffffffffffffffff1673ffffffffffffffffffffffffffffffffffffffff1681526020019081526020016000206000016000828254612f2d9190615605565b92505081905550826040518060e001604052803373ffffffffffffffffffffffffffffffffffffffff168152602001878152602001600081526020018e81526020016040518060400160405280600b81526020017f506f696e7420546f74616c000000000000000000000000000000000000000000815250815260200142815260200160011515815250908060018154018082558091505060019003906000526020600020906007020160009091909190915060008201518160000160006101000a81548173ffffffffffffffffffffffffffffffffffffffff021916908373ffffffffffffffffffffffffffffffffffffffff1602179055506020820151816001015560408201518160020155606082015181600301556080820151816004019080519060200190613061929190614786565b5060a0820151816005015560c08201518160060160006101000a81548160ff021916908315150217905550505034600260008e815260200190815260200160002060008282546130b19190615605565b9250508190555034600360008e815260200190815260200160002060008c815260200190815260200160002060008282546130ec9190615605565b9250508190555034600360008e815260200190815260200160002060008b815260200190815260200160002060008282546131279190615605565b92505081905550848460020160008282546131429190615605565b925050819055508984600301819055508884600401819055508784600101819055508a8460000160003373ffffffffffffffffffffffffffffffffffffffff1673ffffffffffffffffffffffffffffffffffffffff1681526020019081526020016000208190555080339080600181540180825580915050600190039060005260206000200160009091909190916101000a81548173ffffffffffffffffffffffffffffffffffffffff021916908373ffffffffffffffffffffffffffffffffffffffff160217905550338260000160006101000a81548173ffffffffffffffffffffffffffffffffffffffff021916908373ffffffffffffffffffffffffffffffffffffffff160217905550848260010160008282546132639190615605565b92505081905550600082600201819055508b82600301819055506040518060400160405280600b81526020017f506f696e7420546f74616c0000000000000000000000000000000000000000008152508260040190805190602001906132ca929190614786565b5042826005018190555060018260060160006101000a81548160ff02191690831515021790555050505050505050505050505050565b60046020528060005260406000206000915090508060000154908060010154908060030154908060040154908060070154905085565b7f000000000000000000000000000000000000000000000000000000000000000073ffffffffffffffffffffffffffffffffffffffff163373ffffffffffffffffffffffffffffffffffffffff16146133c4576040517f08c379a00000000000000000000000000000000000000000000000000000000081526004016133bb906156a7565b60405180910390fd5b60005b60066000848152602001908152602001600020600501805490508110156138f657600060066000858152602001908152602001600020600501828154811061341257613411615468565b5b9060005260206000200160009054906101000a900473ffffffffffffffffffffffffffffffffffffffff16905060006006600086815260200190815260200160002060060160008373ffffffffffffffffffffffffffffffffffffffff1673ffffffffffffffffffffffffffffffffffffffff1681526020019081526020016000206001015490506006600086815260200190815260200160002060000160008373ffffffffffffffffffffffffffffffffffffffff1673ffffffffffffffffffffffffffffffffffffffff1681526020019081526020016000205484111561356d578173ffffffffffffffffffffffffffffffffffffffff166108fc8260066000898152602001908152602001600020600201548461353291906155d4565b61353c919061554b565b9081150290604051600060405180830381858888f19350505050158015613567573d6000803e3d6000fd5b50613610565b6006600086815260200190815260200160002060000160008373ffffffffffffffffffffffffffffffffffffffff1673ffffffffffffffffffffffffffffffffffffffff16815260200190815260200160002054840361360f578173ffffffffffffffffffffffffffffffffffffffff166108fc829081150290604051600060405180830381858888f1935050505015801561360d573d6000803e3d6000fd5b505b5b80600160008473ffffffffffffffffffffffffffffffffffffffff1673ffffffffffffffffffffffffffffffffffffffff168152602001908152602001600020600001600082825461366291906156c7565b9250508190555060005b600160008473ffffffffffffffffffffffffffffffffffffffff1673ffffffffffffffffffffffffffffffffffffffff168152602001908152602001600020600101805490508110156138e0576000600160008573ffffffffffffffffffffffffffffffffffffffff1673ffffffffffffffffffffffffffffffffffffffff168152602001908152602001600020600101828154811061370f5761370e615468565b5b90600052602060002090600702016040518060e00160405290816000820160009054906101000a900473ffffffffffffffffffffffffffffffffffffffff1673ffffffffffffffffffffffffffffffffffffffff1673ffffffffffffffffffffffffffffffffffffffff1681526020016001820154815260200160028201548152602001600382015481526020016004820180546137ac9061572a565b80601f01602080910402602001604051908101604052809291908181526020018280546137d89061572a565b80156138255780601f106137fa57610100808354040283529160200191613825565b820191906000526020600020905b81548152906001019060200180831161380857829003601f168201915b50505050508152602001600582015481526020016006820160009054906101000a900460ff16151515158152505090508681606001511480156138b55750604051602001613872906159d4565b60405160208183030381529060405280519060200120816080015160405160200161389d91906157f8565b60405160208183030381529060405280519060200120145b156138cc5760008160c00190151590811515815250505b5080806138d89061580f565b91505061366c565b50505080806138ee9061580f565b9150506133c7565b505050565b61390361480c565b6006600083815260200190815260200160002060060160003373ffffffffffffffffffffffffffffffffffffffff1673ffffffffffffffffffffffffffffffffffffffff1681526020019081526020016000206040518060e00160405290816000820160009054906101000a900473ffffffffffffffffffffffffffffffffffffffff1673ffffffffffffffffffffffffffffffffffffffff1673ffffffffffffffffffffffffffffffffffffffff1681526020016001820154815260200160028201548152602001600382015481526020016004820180546139e59061572a565b80601f0160208091040260200160405190810160405280929190818152602001828054613a119061572a565b8015613a5e5780601f10613a3357610100808354040283529160200191613a5e565b820191906000526020600020905b815481529060010190602001808311613a4157829003601f168201915b50505050508152602001600582015481526020016006820160009054906101000a900460ff1615151515815250509050919050565b60016020528060005260406000206000915090508060000154905081565b613ab961480c565b60046000848152602001908152602001600020600601600083815260200190815260200160002060003373ffffffffffffffffffffffffffffffffffffffff1673ffffffffffffffffffffffffffffffffffffffff1681526020019081526020016000206040518060e00160405290816000820160009054906101000a900473ffffffffffffffffffffffffffffffffffffffff1673ffffffffffffffffffffffffffffffffffffffff1673ffffffffffffffffffffffffffffffffffffffff168152602001600182015481526020016002820154815260200160038201548152602001600482018054613bac9061572a565b80601f0160208091040260200160405190810160405280929190818152602001828054613bd89061572a565b8015613c255780601f10613bfa57610100808354040283529160200191613c25565b820191906000526020600020905b815481529060010190602001808311613c0857829003601f168201915b50505050508152602001600582015481526020016006820160009054906101000a900460ff161515151581525050905092915050565b60066020528060005260406000206000915090508060010154908060020154908060030154908060040154908060070154905085565b828403613c9d57600080fd5b8673ffffffffffffffffffffffffffffffffffffffff163373ffffffffffffffffffffffffffffffffffffffff1614613d0b576040517f08c379a0000000000000000000000000000000000000000000000000000000008152600401613d029061534a565b60405180910390fd5b60003411613d4e576040517f08c379a0000000000000000000000000000000000000000000000000000000008152600401613d45906153b6565b60405180910390fd5b83851480613d5b57508285145b613d9a576040517f08c379a0000000000000000000000000000000000000000000000000000000008152600401613d9190615448565b60405180910390fd5b6000801916600460008881526020019081526020016000206007015403613fb45760006040518060400160405280600267ffffffffffffffff811115613de357613de2614977565b5b604051908082528060200260200182016040528015613e115781602001602082028036833780820191505090505b508152602001600267ffffffffffffffff811115613e3257613e31614977565b5b604051908082528060200260200182016040528015613e6557816020015b6060815260200190600190039081613e505790505b50815250905060028160000151600081518110613e8557613e84615468565b5b60200260200101906004811115613e9f57613e9e615497565b5b90816004811115613eb357613eb2615497565b5b8152505060048160000151600181518110613ed157613ed0615468565b5b60200260200101906004811115613eeb57613eea615497565b5b90816004811115613eff57613efe615497565b5b81525050613f0b614666565b8160200151600081518110613f2357613f22615468565b5b6020026020010181905250613f4282613f3d308a8761467d565b6146ac565b8160200151600181518110613f5a57613f59615468565b5b6020026020010181905250613f98306303bfeb2060e01b604051602001613f819190615501565b6040516020818303038152906040528360006146d8565b6004600089815260200190815260200160002060070181905550505b60006064600534613fc5919061554b565b613fcf91906155d4565b905060006064605f34613fe2919061554b565b613fec91906155d4565b90506000600460008a815260200190815260200160002090506000600160003373ffffffffffffffffffffffffffffffffffffffff1673ffffffffffffffffffffffffffffffffffffffff168152602001908152602001600020600101905060008260060160008b815260200190815260200160002060003373ffffffffffffffffffffffffffffffffffffffff1673ffffffffffffffffffffffffffffffffffffffff168152602001908152602001600020905060008360050160008c8152602001908152602001600020905060008054906101000a900473ffffffffffffffffffffffffffffffffffffffff1673ffffffffffffffffffffffffffffffffffffffff166108fc879081150290604051600060405180830381858888f19350505050158015614120573d6000803e3d6000fd5b5084600160003373ffffffffffffffffffffffffffffffffffffffff1673ffffffffffffffffffffffffffffffffffffffff16815260200190815260200160002060000160008282546141739190615605565b92505081905550826040518060e001604052803373ffffffffffffffffffffffffffffffffffffffff1681526020018781526020018d81526020018e81526020016040518060400160405280600a81526020017f4d6f6e6579204c696e6500000000000000000000000000000000000000000000815250815260200142815260200160011515815250908060018154018082558091505060019003906000526020600020906007020160009091909190915060008201518160000160006101000a81548173ffffffffffffffffffffffffffffffffffffffff021916908373ffffffffffffffffffffffffffffffffffffffff16021790555060208201518160010155604082015181600201556060820151816003015560808201518160040190805190602001906142a6929190614786565b5060a0820151816005015560c08201518160060160006101000a81548160ff021916908315150217905550505034600260008e815260200190815260200160002060008282546142f69190615605565b9250508190555034600360008e815260200190815260200160002060008d815260200190815260200160002060008282546143319190615605565b925050819055508484600101600082825461434c9190615605565b92505081905550848460020160008d815260200190815260200160002060008282546143789190615605565b925050819055508984600301819055508884600401819055508784600001819055503373ffffffffffffffffffffffffffffffffffffffff16600460008e815260200190815260200160002060060160008d815260200190815260200160002060003373ffffffffffffffffffffffffffffffffffffffff1673ffffffffffffffffffffffffffffffffffffffff16815260200190815260200160002060000160009054906101000a900473ffffffffffffffffffffffffffffffffffffffff1673ffffffffffffffffffffffffffffffffffffffff16146144b75780339080600181540180825580915050600190039060005260206000200160009091909190916101000a81548173ffffffffffffffffffffffffffffffffffffffff021916908373ffffffffffffffffffffffffffffffffffffffff1602179055505b338260000160006101000a81548173ffffffffffffffffffffffffffffffffffffffff021916908373ffffffffffffffffffffffffffffffffffffffff1602179055508482600101600082825461450e9190615605565b925050819055508a82600201819055508b82600301819055506040518060400160405280600a81526020017f4d6f6e6579204c696e6500000000000000000000000000000000000000000000815250826004019080519060200190614574929190614786565b5042826005018190555060018260060160006101000a81548160ff02191690831515021790555050505050505050505050505050565b600060056000848152602001908152602001600020600301600083815260200190815260200160002054905092915050565b60008060036000858152602001908152602001600020600084815260200190815260200160002054905060006002600086815260200190815260200160002054905060008160648461462e919061554b565b61463891906155d4565b905080935050505092915050565b600060066000838152602001908152602001600020600201549050919050565b606060405180602001604052806000815250905090565b6060838383604051602001614694939291906159e9565b60405160208183030381529060405290509392505050565b606082826040516020016146c1929190615aae565b604051602081830303815290604052905092915050565b60007f000000000000000000000000000000000000000000000000000000000000000073ffffffffffffffffffffffffffffffffffffffff16633323b467868686866040518563ffffffff1660e01b81526004016147399493929190615d2c565b6020604051808303816000875af1158015614758573d6000803e3d6000fd5b505050506040513d601f19601f8201168201806040525081019061477c9190615dab565b9050949350505050565b8280546147929061572a565b90600052602060002090601f0160209004810192826147b457600085556147fb565b82601f106147cd57805160ff19168380011785556147fb565b828001600101855582156147fb579182015b828111156147fa5782518255916020019190600101906147df565b5b5090506148089190614861565b5090565b6040518060e00160405280600073ffffffffffffffffffffffffffffffffffffffff16815260200160008152602001600081526020016000815260200160608152602001600081526020016000151581525090565b5b8082111561487a576000816000905550600101614862565b5090565b6000604051905090565b600080fd5b600080fd5b600073ffffffffffffffffffffffffffffffffffffffff82169050919050565b60006148bd82614892565b9050919050565b6148cd816148b2565b81146148d857600080fd5b50565b6000813590506148ea816148c4565b92915050565b6000819050919050565b614903816148f0565b811461490e57600080fd5b50565b600081359050614920816148fa565b92915050565b6000819050919050565b61493981614926565b811461494457600080fd5b50565b60008135905061495681614930565b92915050565b600080fd5b600080fd5b6000601f19601f8301169050919050565b7f4e487b7100000000000000000000000000000000000000000000000000000000600052604160045260246000fd5b6149af82614966565b810181811067ffffffffffffffff821117156149ce576149cd614977565b5b80604052505050565b60006149e161487e565b90506149ed82826149a6565b919050565b600067ffffffffffffffff821115614a0d57614a0c614977565b5b614a1682614966565b9050602081019050919050565b82818337600083830152505050565b6000614a45614a40846149f2565b6149d7565b905082815260208101848484011115614a6157614a60614961565b5b614a6c848285614a23565b509392505050565b600082601f830112614a8957614a8861495c565b5b8135614a99848260208601614a32565b91505092915050565b600080600080600080600080610100898b031215614ac357614ac2614888565b5b6000614ad18b828c016148db565b9850506020614ae28b828c01614911565b9750506040614af38b828c01614911565b9650506060614b048b828c01614911565b9550506080614b158b828c01614911565b94505060a0614b268b828c01614911565b93505060c0614b378b828c01614947565b92505060e089013567ffffffffffffffff811115614b5857614b5761488d565b5b614b648b828c01614a74565b9150509295985092959890939650565b600080600060608486031215614b8d57614b8c614888565b5b6000614b9b86828701614911565b9350506020614bac86828701614911565b9250506040614bbd86828701614911565b9150509250925092565b6000819050919050565b6000614bec614be7614be284614892565b614bc7565b614892565b9050919050565b6000614bfe82614bd1565b9050919050565b6000614c1082614bf3565b9050919050565b614c2081614c05565b82525050565b6000602082019050614c3b6000830184614c17565b92915050565b600060208284031215614c5757614c56614888565b5b6000614c6584828501614911565b91505092915050565b614c77816148f0565b82525050565b6000602082019050614c926000830184614c6e565b92915050565b6000819050919050565b614cab81614c98565b82525050565b600060a082019050614cc66000830188614c6e565b614cd36020830187614c6e565b614ce06040830186614c6e565b614ced6060830185614c6e565b614cfa6080830184614ca2565b9695505050505050565b614d0d816148b2565b82525050565b6000602082019050614d286000830184614d04565b92915050565b60008060408385031215614d4557614d44614888565b5b6000614d5385828601614911565b9250506020614d6485828601614911565b9150509250929050565b600081519050919050565b600082825260208201905092915050565b6000819050602082019050919050565b614da3816148b2565b82525050565b614db2816148f0565b82525050565b600081519050919050565b600082825260208201905092915050565b60005b83811015614df2578082015181840152602081019050614dd7565b83811115614e01576000848401525b50505050565b6000614e1282614db8565b614e1c8185614dc3565b9350614e2c818560208601614dd4565b614e3581614966565b840191505092915050565b60008115159050919050565b614e5581614e40565b82525050565b600060e083016000830151614e736000860182614d9a565b506020830151614e866020860182614da9565b506040830151614e996040860182614da9565b506060830151614eac6060860182614da9565b5060808301518482036080860152614ec48282614e07565b91505060a0830151614ed960a0860182614da9565b5060c0830151614eec60c0860182614e4c565b508091505092915050565b6000614f038383614e5b565b905092915050565b6000602082019050919050565b6000614f2382614d6e565b614f2d8185614d79565b935083602082028501614f3f85614d8a565b8060005b85811015614f7b5784840389528151614f5c8582614ef7565b9450614f6783614f0b565b925060208a01995050600181019050614f43565b50829750879550505050505092915050565b60006020820190508181036000830152614fa78184614f18565b905092915050565b600080600080600060a08688031215614fcb57614fca614888565b5b6000614fd988828901614911565b9550506020614fea88828901614911565b9450506040614ffb88828901614911565b935050606061500c88828901614947565b925050608061501d88828901614947565b9150509295509295909350565b600061503582614bf3565b9050919050565b6150458161502a565b82525050565b6000602082019050615060600083018461503c565b92915050565b600060e08301600083015161507e6000860182614d9a565b5060208301516150916020860182614da9565b5060408301516150a46040860182614da9565b5060608301516150b76060860182614da9565b50608083015184820360808601526150cf8282614e07565b91505060a08301516150e460a0860182614da9565b5060c08301516150f760c0860182614e4c565b508091505092915050565b6000602082019050818103600083015261511c8184615066565b905092915050565b600080600080600080600060e0888a03121561514357615142614888565b5b60006151518a828b016148db565b97505060206151628a828b01614911565b96505060406151738a828b01614911565b95505060606151848a828b01614911565b94505060806151958a828b01614911565b93505060a06151a68a828b01614911565b92505060c088013567ffffffffffffffff8111156151c7576151c661488d565b5b6151d38a828b01614a74565b91505092959891949750929550565b6000602082840312156151f8576151f7614888565b5b6000615206848285016148db565b91505092915050565b600082825260208201905092915050565b7f596f7520617265206f6e6c7920616c6c6f77656420746f20706c616365206d7560008201527f6c7469706c65204d6f6e6579204c696e652062657473206f6e2074686520736160208201527f6d652067616d6500000000000000000000000000000000000000000000000000604082015250565b60006152a260478361520f565b91506152ad82615220565b606082019050919050565b600060208201905081810360008301526152d181615295565b9050919050565b7f596f75206d757374206265742066726f6d20796f7572206f776e20616464726560008201527f7373000000000000000000000000000000000000000000000000000000000000602082015250565b600061533460228361520f565b915061533f826152d8565b604082019050919050565b6000602082019050818103600083015261536381615327565b9050919050565b7f596f75206d7573742062657420736f6d657468696e6700000000000000000000600082015250565b60006153a060168361520f565b91506153ab8261536a565b602082019050919050565b600060208201905081810360008301526153cf81615393565b9050919050565b7f596f75206d75737420626574206f6e2061207465616d2074686174206973207060008201527f6c6179696e6720696e20746869732067616d6500000000000000000000000000602082015250565b600061543260338361520f565b915061543d826153d6565b604082019050919050565b6000602082019050818103600083015261546181615425565b9050919050565b7f4e487b7100000000000000000000000000000000000000000000000000000000600052603260045260246000fd5b7f4e487b7100000000000000000000000000000000000000000000000000000000600052602160045260246000fd5b60007fffffffff0000000000000000000000000000000000000000000000000000000082169050919050565b6154fb816154c6565b82525050565b600060208201905061551660008301846154f2565b92915050565b7f4e487b7100000000000000000000000000000000000000000000000000000000600052601160045260246000fd5b6000615556826148f0565b9150615561836148f0565b9250817fffffffffffffffffffffffffffffffffffffffffffffffffffffffffffffffff048311821515161561559a5761559961551c565b5b828202905092915050565b7f4e487b7100000000000000000000000000000000000000000000000000000000600052601260045260246000fd5b60006155df826148f0565b91506155ea836148f0565b9250826155fa576155f96155a5565b5b828204905092915050565b6000615610826148f0565b915061561b836148f0565b9250827fffffffffffffffffffffffffffffffffffffffffffffffffffffffffffffffff038211156156505761564f61551c565b5b828201905092915050565b7f4f6e6c7920646564696361746564206d73672e73656e64657200000000000000600082015250565b600061569160198361520f565b915061569c8261565b565b602082019050919050565b600060208201905081810360008301526156c081615684565b9050919050565b60006156d2826148f0565b91506156dd836148f0565b9250828210156156f0576156ef61551c565b5b828203905092915050565b7f4e487b7100000000000000000000000000000000000000000000000000000000600052602260045260246000fd5b6000600282049050600182168061574257607f821691505b602082108103615755576157546156fb565b5b50919050565b600081905092915050565b7f4d6f6e6579204c696e6500000000000000000000000000000000000000000000600082015250565b600061579c600a8361575b565b91506157a782615766565b600a82019050919050565b60006157bd8261578f565b9150819050919050565b60006157d282614db8565b6157dc818561575b565b93506157ec818560208601614dd4565b80840191505092915050565b600061580482846157c7565b915081905092915050565b600061581a826148f0565b91507fffffffffffffffffffffffffffffffffffffffffffffffffffffffffffffffff820361584c5761584b61551c565b5b600182019050919050565b600061586282614926565b915061586d83614926565b9250817f7fffffffffffffffffffffffffffffffffffffffffffffffffffffffffffffff038313600083121516156158a8576158a761551c565b5b817f80000000000000000000000000000000000000000000000000000000000000000383126000831216156158e0576158df61551c565b5b828201905092915050565b6000819050919050565b615906615901826148f0565b6158eb565b82525050565b600061591882846158f5565b60208201915081905092915050565b7f506f696e74205370726561640000000000000000000000000000000000000000600082015250565b600061595d600c8361575b565b915061596882615927565b600c82019050919050565b600061597e82615950565b9150819050919050565b7f506f696e7420546f74616c000000000000000000000000000000000000000000600082015250565b60006159be600b8361575b565b91506159c982615988565b600b82019050919050565b60006159df826159b1565b9150819050919050565b60006060820190506159fe6000830186614d04565b615a0b6020830185614c6e565b615a186040830184614c6e565b949350505050565b6000615a2b82614db8565b615a35818561520f565b9350615a45818560208601614dd4565b615a4e81614966565b840191505092915050565b600081519050919050565b600082825260208201905092915050565b6000615a8082615a59565b615a8a8185615a64565b9350615a9a818560208601614dd4565b615aa381614966565b840191505092915050565b60006040820190508181036000830152615ac88185615a20565b90508181036020830152615adc8184615a75565b90509392505050565b600081519050919050565b600082825260208201905092915050565b6000819050602082019050919050565b60058110615b2257615b21615497565b5b50565b6000819050615b3382615b11565b919050565b6000615b4382615b25565b9050919050565b615b5381615b38565b82525050565b6000615b658383615b4a565b60208301905092915050565b6000602082019050919050565b6000615b8982615ae5565b615b938185615af0565b9350615b9e83615b01565b8060005b83811015615bcf578151615bb68882615b59565b9750615bc183615b71565b925050600181019050615ba2565b5085935050505092915050565b600081519050919050565b600082825260208201905092915050565b6000819050602082019050919050565b600082825260208201905092915050565b6000615c2482615a59565b615c2e8185615c08565b9350615c3e818560208601614dd4565b615c4781614966565b840191505092915050565b6000615c5e8383615c19565b905092915050565b6000602082019050919050565b6000615c7e82615bdc565b615c888185615be7565b935083602082028501615c9a85615bf8565b8060005b85811015615cd65784840389528151615cb78582615c52565b9450615cc283615c66565b925060208a01995050600181019050615c9e565b50829750879550505050505092915050565b60006040830160008301518482036000860152615d058282615b7e565b91505060208301518482036020860152615d1f8282615c73565b9150508091505092915050565b6000608082019050615d416000830187614d04565b8181036020830152615d538186615a75565b90508181036040830152615d678185615ce8565b9050615d766060830184614d04565b95945050505050565b615d8881614c98565b8114615d9357600080fd5b50565b600081519050615da581615d7f565b92915050565b600060208284031215615dc157615dc0614888565b5b6000615dcf84828501615d96565b9150509291505056fea2646970667358221220411ad7490bd02c0fcb3dd05142b934c92bc6f95eebdd78c034a31c4ed5333fe364736f6c634300080e0033",
  "linkReferences": {},
  "deployedLinkReferences": {}
}