{
  "_format": "hh-sol-artifact-1",
  "contractName": "Bet",
  "sourceName": "contracts/Bet.sol",
  "abi": [
    {
      "inputs": [],
      "stateMutability": "nonpayable",
      "type": "constructor"
    },
    {
      "inputs": [
        {
          "internalType": "address",
          "name": "",
          "type": "address"
        }
      ],
      "name": "balances",
      "outputs": [
        {
          "internalType": "uint256",
          "name": "escrow",
          "type": "uint256"
        }
      ],
      "stateMutability": "view",
      "type": "function"
    },
    {
      "inputs": [
        {
          "internalType": "string",
          "name": "datetimeString",
          "type": "string"
        }
      ],
      "name": "datetimeToUnix",
      "outputs": [
        {
          "internalType": "uint256",
          "name": "",
          "type": "uint256"
        }
      ],
      "stateMutability": "pure",
      "type": "function"
    },
    {
      "inputs": [
        {
          "internalType": "address",
          "name": "user",
          "type": "address"
        },
        {
          "internalType": "uint256",
          "name": "gameID",
          "type": "uint256"
        },
        {
          "internalType": "uint256",
          "name": "teamID",
          "type": "uint256"
        },
        {
          "internalType": "uint256",
          "name": "homeTeamID",
          "type": "uint256"
        },
        {
          "internalType": "uint256",
          "name": "awayTeamID",
          "type": "uint256"
        },
        {
          "internalType": "string",
          "name": "startTime",
          "type": "string"
        }
      ],
      "name": "moneyLineBet",
      "outputs": [],
      "stateMutability": "payable",
      "type": "function"
    },
    {
      "inputs": [
        {
          "internalType": "uint256",
          "name": "",
          "type": "uint256"
        }
      ],
      "name": "newMoneyLineBet",
      "outputs": [
        {
          "internalType": "uint256",
          "name": "startTime",
          "type": "uint256"
        },
        {
          "internalType": "uint256",
          "name": "total",
          "type": "uint256"
        },
        {
          "internalType": "uint256",
          "name": "homeTeamID",
          "type": "uint256"
        },
        {
          "internalType": "uint256",
          "name": "awayTeamID",
          "type": "uint256"
        },
        {
          "internalType": "uint256",
          "name": "result",
          "type": "uint256"
        }
      ],
      "stateMutability": "view",
      "type": "function"
    },
    {
      "inputs": [
        {
          "internalType": "uint256",
          "name": "",
          "type": "uint256"
        }
      ],
      "name": "newPointSpreadBet",
      "outputs": [
        {
          "internalType": "uint256",
          "name": "startTime",
          "type": "uint256"
        },
        {
          "internalType": "uint256",
          "name": "total",
          "type": "uint256"
        },
        {
          "internalType": "uint256",
          "name": "homeTeamID",
          "type": "uint256"
        },
        {
          "internalType": "uint256",
          "name": "awayTeamID",
          "type": "uint256"
        },
        {
          "internalType": "uint256",
          "name": "result",
          "type": "uint256"
        }
      ],
      "stateMutability": "view",
      "type": "function"
    },
    {
      "inputs": [
        {
          "internalType": "uint256",
          "name": "",
          "type": "uint256"
        }
      ],
      "name": "newPointTotalBet",
      "outputs": [
        {
          "internalType": "uint256",
          "name": "pointAmount",
          "type": "uint256"
        },
        {
          "internalType": "uint256",
          "name": "startTime",
          "type": "uint256"
        },
        {
          "internalType": "uint256",
          "name": "total",
          "type": "uint256"
        },
        {
          "internalType": "uint256",
          "name": "homeTeamID",
          "type": "uint256"
        },
        {
          "internalType": "uint256",
          "name": "awayTeamID",
          "type": "uint256"
        },
        {
          "internalType": "int256",
          "name": "result",
          "type": "int256"
        }
      ],
      "stateMutability": "view",
      "type": "function"
    },
    {
      "inputs": [
        {
          "internalType": "address",
          "name": "user",
          "type": "address"
        },
        {
          "internalType": "uint256",
          "name": "gameID",
          "type": "uint256"
        },
        {
          "internalType": "uint256",
          "name": "teamID",
          "type": "uint256"
        },
        {
          "internalType": "uint256",
          "name": "homeTeamID",
          "type": "uint256"
        },
        {
          "internalType": "uint256",
          "name": "awayTeamID",
          "type": "uint256"
        },
        {
          "internalType": "string",
          "name": "startTime",
          "type": "string"
        },
        {
          "internalType": "int256",
          "name": "spread",
          "type": "int256"
        }
      ],
      "name": "pointSpreadBet",
      "outputs": [],
      "stateMutability": "payable",
      "type": "function"
    },
    {
      "inputs": [
        {
          "internalType": "address",
          "name": "user",
          "type": "address"
        },
        {
          "internalType": "uint256",
          "name": "gameID",
          "type": "uint256"
        },
        {
          "internalType": "uint256",
          "name": "pointAmount",
          "type": "uint256"
        },
        {
          "internalType": "uint256",
          "name": "homeTeamID",
          "type": "uint256"
        },
        {
          "internalType": "uint256",
          "name": "awayTeamID",
          "type": "uint256"
        },
        {
          "internalType": "string",
          "name": "startTime",
          "type": "string"
        },
        {
          "internalType": "int256",
          "name": "value",
          "type": "int256"
        }
      ],
      "name": "pointTotalBet",
      "outputs": [],
      "stateMutability": "payable",
      "type": "function"
    },
    {
      "inputs": [],
      "name": "returnEscrow",
      "outputs": [
        {
          "internalType": "uint256",
          "name": "",
          "type": "uint256"
        }
      ],
      "stateMutability": "view",
      "type": "function"
    },
    {
      "inputs": [
        {
          "internalType": "uint256",
          "name": "gameID",
          "type": "uint256"
        },
        {
          "internalType": "uint256",
          "name": "teamID",
          "type": "uint256"
        }
      ],
      "name": "returnMoneyLineBetReceipt",
      "outputs": [
        {
          "components": [
            {
              "internalType": "address",
              "name": "addr",
              "type": "address"
            },
            {
              "internalType": "uint256",
              "name": "amount",
              "type": "uint256"
            },
            {
              "internalType": "uint256",
              "name": "teamID",
              "type": "uint256"
            },
            {
              "internalType": "uint256",
              "name": "gameID",
              "type": "uint256"
            },
            {
              "internalType": "string",
              "name": "betType",
              "type": "string"
            }
          ],
          "internalType": "struct Bet.Transaction",
          "name": "",
          "type": "tuple"
        }
      ],
      "stateMutability": "view",
      "type": "function"
    },
    {
      "inputs": [
        {
          "internalType": "uint256",
          "name": "gameID",
          "type": "uint256"
        },
        {
          "internalType": "uint256",
          "name": "teamID",
          "type": "uint256"
        }
      ],
      "name": "returnMoneyLineUsersArray",
      "outputs": [
        {
          "internalType": "address[]",
          "name": "",
          "type": "address[]"
        }
      ],
      "stateMutability": "view",
      "type": "function"
    },
    {
      "inputs": [
        {
          "internalType": "uint256",
          "name": "gameID",
          "type": "uint256"
        },
        {
          "internalType": "uint256",
          "name": "bettingTeamID",
          "type": "uint256"
        },
        {
          "internalType": "uint256",
          "name": "opposingTeamID",
          "type": "uint256"
        }
      ],
      "name": "returnOdds",
      "outputs": [
        {
          "internalType": "uint256",
          "name": "",
          "type": "uint256"
        }
      ],
      "stateMutability": "view",
      "type": "function"
    },
    {
      "inputs": [
        {
          "internalType": "uint256",
          "name": "gameID",
          "type": "uint256"
        },
        {
          "internalType": "uint256",
          "name": "teamID",
          "type": "uint256"
        }
      ],
      "name": "returnPointSpreadBetReceipt",
      "outputs": [
        {
          "components": [
            {
              "internalType": "address",
              "name": "addr",
              "type": "address"
            },
            {
              "internalType": "uint256",
              "name": "amount",
              "type": "uint256"
            },
            {
              "internalType": "uint256",
              "name": "teamID",
              "type": "uint256"
            },
            {
              "internalType": "uint256",
              "name": "gameID",
              "type": "uint256"
            },
            {
              "internalType": "string",
              "name": "betType",
              "type": "string"
            }
          ],
          "internalType": "struct Bet.Transaction",
          "name": "",
          "type": "tuple"
        }
      ],
      "stateMutability": "view",
      "type": "function"
    },
    {
      "inputs": [
        {
          "internalType": "uint256",
          "name": "gameID",
          "type": "uint256"
        },
        {
          "internalType": "uint256",
          "name": "teamID",
          "type": "uint256"
        }
      ],
      "name": "returnPointSpreadGameAmount",
      "outputs": [
        {
          "internalType": "int256",
          "name": "",
          "type": "int256"
        }
      ],
      "stateMutability": "view",
      "type": "function"
    },
    {
      "inputs": [
        {
          "internalType": "uint256",
          "name": "gameID",
          "type": "uint256"
        },
        {
          "internalType": "uint256",
          "name": "teamID",
          "type": "uint256"
        }
      ],
      "name": "returnPointSpreadUsersArray",
      "outputs": [
        {
          "internalType": "address[]",
          "name": "",
          "type": "address[]"
        }
      ],
      "stateMutability": "view",
      "type": "function"
    },
    {
      "inputs": [
        {
          "internalType": "uint256",
          "name": "gameID",
          "type": "uint256"
        },
        {
          "internalType": "int256",
          "name": "value",
          "type": "int256"
        }
      ],
      "name": "returnPointTotalBetReceipt",
      "outputs": [
        {
          "components": [
            {
              "internalType": "address",
              "name": "addr",
              "type": "address"
            },
            {
              "internalType": "uint256",
              "name": "amount",
              "type": "uint256"
            },
            {
              "internalType": "uint256",
              "name": "teamID",
              "type": "uint256"
            },
            {
              "internalType": "uint256",
              "name": "gameID",
              "type": "uint256"
            },
            {
              "internalType": "string",
              "name": "betType",
              "type": "string"
            }
          ],
          "internalType": "struct Bet.Transaction",
          "name": "",
          "type": "tuple"
        }
      ],
      "stateMutability": "view",
      "type": "function"
    },
    {
      "inputs": [
        {
          "internalType": "uint256",
          "name": "gameID",
          "type": "uint256"
        }
      ],
      "name": "returnPointTotalGameAmount",
      "outputs": [
        {
          "internalType": "uint256",
          "name": "",
          "type": "uint256"
        }
      ],
      "stateMutability": "view",
      "type": "function"
    },
    {
      "inputs": [
        {
          "internalType": "uint256",
          "name": "gameID",
          "type": "uint256"
        },
        {
          "internalType": "int256",
          "name": "value",
          "type": "int256"
        }
      ],
      "name": "returnPointTotalUsersArray",
      "outputs": [
        {
          "internalType": "address[]",
          "name": "",
          "type": "address[]"
        }
      ],
      "stateMutability": "view",
      "type": "function"
    },
    {
      "inputs": [],
      "name": "returnReceipts",
      "outputs": [
        {
          "components": [
            {
              "internalType": "address",
              "name": "addr",
              "type": "address"
            },
            {
              "internalType": "uint256",
              "name": "amount",
              "type": "uint256"
            },
            {
              "internalType": "uint256",
              "name": "teamID",
              "type": "uint256"
            },
            {
              "internalType": "uint256",
              "name": "gameID",
              "type": "uint256"
            },
            {
              "internalType": "string",
              "name": "betType",
              "type": "string"
            }
          ],
          "internalType": "struct Bet.Transaction[]",
          "name": "",
          "type": "tuple[]"
        }
      ],
      "stateMutability": "view",
      "type": "function"
    },
    {
      "inputs": [
        {
          "internalType": "uint256",
          "name": "",
          "type": "uint256"
        }
      ],
      "name": "totalBetOnGame",
      "outputs": [
        {
          "internalType": "uint256",
          "name": "",
          "type": "uint256"
        }
      ],
      "stateMutability": "view",
      "type": "function"
    },
    {
      "inputs": [
        {
          "internalType": "uint256",
          "name": "",
          "type": "uint256"
        },
        {
          "internalType": "uint256",
          "name": "",
          "type": "uint256"
        }
      ],
      "name": "totalBetOnTeam",
      "outputs": [
        {
          "internalType": "uint256",
          "name": "",
          "type": "uint256"
        }
      ],
      "stateMutability": "view",
      "type": "function"
    },
    {
      "inputs": [],
      "name": "transferEther",
      "outputs": [],
      "stateMutability": "nonpayable",
      "type": "function"
    }
  ],
  "bytecode": "0x608060405234801561001057600080fd5b50336000806101000a81548173ffffffffffffffffffffffffffffffffffffffff021916908373ffffffffffffffffffffffffffffffffffffffff16021790555061362c806100606000396000f3fe6080604052600436106101355760003560e01c80638697ac4e116100ab578063c084eff71161006f578063c084eff7146104b1578063c1b2bddc146104ee578063c9b25f0f1461052b578063ccb7ed4514610542578063ee8d6d8b1461057f578063f6d7c7591461059b57610135565b80638697ac4e146103985780638edd3971146103d5578063a910e4a514610416578063a91faba214610453578063ab0900c51461049557610135565b80632b3a4ef6116100fd5780632b3a4ef61461024e5780633946f6661461028b57806368989a92146102b65780636bd4c7c0146102f35780637ea4178a1461033057806380ee79c11461035b57610135565b806308c27e5a1461013a5780631f294bf61461017757806323821c21146101935780632429827f146101d057806327e235e314610211575b600080fd5b34801561014657600080fd5b50610161600480360381019061015c9190612bef565b6105d8565b60405161016e919061306e565b60405180910390f35b610191600480360381019061018c9190612a93565b61068e565b005b34801561019f57600080fd5b506101ba60048036038101906101b59190612b8a565b610dc6565b6040516101c7919061316f565b60405180910390f35b3480156101dc57600080fd5b506101f760048036038101906101f29190612b8a565b610dde565b60405161020895949392919061318a565b60405180910390f35b34801561021d57600080fd5b50610238600480360381019061023391906129c9565b610e14565b604051610245919061316f565b60405180910390f35b34801561025a57600080fd5b5061027560048036038101906102709190612bef565b610e32565b604051610282919061316f565b60405180910390f35b34801561029757600080fd5b506102a0610e57565b6040516102ad9190613090565b60405180910390f35b3480156102c257600080fd5b506102dd60048036038101906102d89190612b8a565b610ffc565b6040516102ea919061316f565b60405180910390f35b3480156102ff57600080fd5b5061031a60048036038101906103159190612bef565b61101c565b604051610327919061314d565b60405180910390f35b34801561033c57600080fd5b506103456111a1565b604051610352919061316f565b60405180910390f35b34801561036757600080fd5b50610382600480360381019061037d9190612bb3565b6111eb565b60405161038f919061314d565b60405180910390f35b3480156103a457600080fd5b506103bf60048036038101906103ba9190612bef565b611370565b6040516103cc919061306e565b60405180910390f35b3480156103e157600080fd5b506103fc60048036038101906103f79190612b8a565b611426565b60405161040d95949392919061318a565b60405180910390f35b34801561042257600080fd5b5061043d60048036038101906104389190612bef565b61145c565b60405161044a919061314d565b60405180910390f35b34801561045f57600080fd5b5061047a60048036038101906104759190612b8a565b6115e1565b60405161048c969594939291906131dd565b60405180910390f35b6104af60048036038101906104aa9190612a93565b61161d565b005b3480156104bd57600080fd5b506104d860048036038101906104d39190612b49565b611deb565b6040516104e5919061316f565b60405180910390f35b3480156104fa57600080fd5b5061051560048036038101906105109190612c2b565b611e1e565b604051610522919061316f565b60405180910390f35b34801561053757600080fd5b50610540611eba565b005b34801561054e57600080fd5b5061056960048036038101906105649190612bef565b611fb1565b60405161057691906130b2565b60405180910390f35b610599600480360381019061059491906129f2565b611fe3565b005b3480156105a757600080fd5b506105c260048036038101906105bd9190612bb3565b612784565b6040516105cf919061306e565b60405180910390f35b606060056000848152602001908152602001600020600601600083815260200190815260200160002080548060200260200160405190810160405280929190818152602001828054801561068157602002820191906000526020600020905b8160009054906101000a900473ffffffffffffffffffffffffffffffffffffffff1673ffffffffffffffffffffffffffffffffffffffff1681526020019060010190808311610637575b5050505050905092915050565b8673ffffffffffffffffffffffffffffffffffffffff163373ffffffffffffffffffffffffffffffffffffffff16146106fc576040517f08c379a00000000000000000000000000000000000000000000000000000000081526004016106f3906130ed565b60405180910390fd5b6000341161073f576040517f08c379a00000000000000000000000000000000000000000000000000000000081526004016107369061310d565b60405180910390fd5b600060066000888152602001908152602001600020600701600083815260200190815260200160002060003373ffffffffffffffffffffffffffffffffffffffff1673ffffffffffffffffffffffffffffffffffffffff168152602001908152602001600020600101549050600060056064346107bc919061339f565b6107c691906133d0565b90506000605f6064346107d9919061339f565b6107e391906133d0565b905060008054906101000a900473ffffffffffffffffffffffffffffffffffffffff1673ffffffffffffffffffffffffffffffffffffffff166108fc839081150290604051600060405180830381858888f1935050505015801561084b573d6000803e3d6000fd5b5080600160008c73ffffffffffffffffffffffffffffffffffffffff1673ffffffffffffffffffffffffffffffffffffffff168152602001908152602001600020600001600082825461089e9190613349565b92505081905550600160008b73ffffffffffffffffffffffffffffffffffffffff1673ffffffffffffffffffffffffffffffffffffffff1681526020019081526020016000206001016040518060a001604052803373ffffffffffffffffffffffffffffffffffffffff168152602001838152602001600081526020018b81526020016040518060400160405280600b81526020017f506f696e7420546f74616c000000000000000000000000000000000000000000815250815250908060018154018082558091505060019003906000526020600020906005020160009091909190915060008201518160000160006101000a81548173ffffffffffffffffffffffffffffffffffffffff021916908373ffffffffffffffffffffffffffffffffffffffff1602179055506020820151816001015560408201518160020155606082015181600301556080820151816004019080519060200190610a0492919061283a565b50505034600260008b81526020019081526020016000206000828254610a2a9190613349565b9250508190555080600660008b81526020019081526020016000206002016000828254610a579190613349565b9250508190555080600660008b815260200190815260200160002060030160008681526020019081526020016000206000828254610a959190613349565b9250508190555086600660008b81526020019081526020016000206004018190555085600660008b815260200190815260200160002060050181905550610adb85611deb565b600660008b81526020019081526020016000206001018190555087600660008b8152602001908152602001600020600001819055503373ffffffffffffffffffffffffffffffffffffffff16600660008b8152602001908152602001600020600701600086815260200190815260200160002060003373ffffffffffffffffffffffffffffffffffffffff1673ffffffffffffffffffffffffffffffffffffffff16815260200190815260200160002060000160009054906101000a900473ffffffffffffffffffffffffffffffffffffffff1673ffffffffffffffffffffffffffffffffffffffff1614610c5357600660008a81526020019081526020016000206006016000858152602001908152602001600020339080600181540180825580915050600190039060005260206000200160009091909190916101000a81548173ffffffffffffffffffffffffffffffffffffffff021916908373ffffffffffffffffffffffffffffffffffffffff1602179055505b6040518060a001604052803373ffffffffffffffffffffffffffffffffffffffff1681526020018285610c869190613349565b8152602001600081526020018a81526020016040518060400160405280600b81526020017f506f696e7420546f74616c000000000000000000000000000000000000000000815250815250600660008b8152602001908152602001600020600701600086815260200190815260200160002060003373ffffffffffffffffffffffffffffffffffffffff1673ffffffffffffffffffffffffffffffffffffffff16815260200190815260200160002060008201518160000160006101000a81548173ffffffffffffffffffffffffffffffffffffffff021916908373ffffffffffffffffffffffffffffffffffffffff1602179055506020820151816001015560408201518160020155606082015181600301556080820151816004019080519060200190610db692919061283a565b5090505050505050505050505050565b60026020528060005260406000206000915090505481565b60056020528060005260406000206000915090508060010154908060020154908060040154908060050154908060080154905085565b60016020528060005260406000206000915090508060000154905081565b6003602052816000526040600020602052806000526040600020600091509150505481565b6060600160003373ffffffffffffffffffffffffffffffffffffffff1673ffffffffffffffffffffffffffffffffffffffff168152602001908152602001600020600101805480602002602001604051908101604052809291908181526020016000905b82821015610ff357838290600052602060002090600502016040518060a00160405290816000820160009054906101000a900473ffffffffffffffffffffffffffffffffffffffff1673ffffffffffffffffffffffffffffffffffffffff1673ffffffffffffffffffffffffffffffffffffffff168152602001600182015481526020016002820154815260200160038201548152602001600482018054610f62906134b2565b80601f0160208091040260200160405190810160405280929190818152602001828054610f8e906134b2565b8015610fdb5780601f10610fb057610100808354040283529160200191610fdb565b820191906000526020600020905b815481529060010190602001808311610fbe57829003601f168201915b50505050508152505081526020019060010190610ebb565b50505050905090565b600060066000838152602001908152602001600020600001549050919050565b6110246128c0565b60056000848152602001908152602001600020600701600083815260200190815260200160002060003373ffffffffffffffffffffffffffffffffffffffff1673ffffffffffffffffffffffffffffffffffffffff1681526020019081526020016000206040518060a00160405290816000820160009054906101000a900473ffffffffffffffffffffffffffffffffffffffff1673ffffffffffffffffffffffffffffffffffffffff1673ffffffffffffffffffffffffffffffffffffffff168152602001600182015481526020016002820154815260200160038201548152602001600482018054611117906134b2565b80601f0160208091040260200160405190810160405280929190818152602001828054611143906134b2565b80156111905780601f1061116557610100808354040283529160200191611190565b820191906000526020600020905b81548152906001019060200180831161117357829003601f168201915b505050505081525050905092915050565b6000600160003373ffffffffffffffffffffffffffffffffffffffff1673ffffffffffffffffffffffffffffffffffffffff16815260200190815260200160002060000154905090565b6111f36128c0565b60066000848152602001908152602001600020600701600083815260200190815260200160002060003373ffffffffffffffffffffffffffffffffffffffff1673ffffffffffffffffffffffffffffffffffffffff1681526020019081526020016000206040518060a00160405290816000820160009054906101000a900473ffffffffffffffffffffffffffffffffffffffff1673ffffffffffffffffffffffffffffffffffffffff1673ffffffffffffffffffffffffffffffffffffffff1681526020016001820154815260200160028201548152602001600382015481526020016004820180546112e6906134b2565b80601f0160208091040260200160405190810160405280929190818152602001828054611312906134b2565b801561135f5780601f106113345761010080835404028352916020019161135f565b820191906000526020600020905b81548152906001019060200180831161134257829003601f168201915b505050505081525050905092915050565b606060046000848152602001908152602001600020600501600083815260200190815260200160002080548060200260200160405190810160405280929190818152602001828054801561141957602002820191906000526020600020905b8160009054906101000a900473ffffffffffffffffffffffffffffffffffffffff1673ffffffffffffffffffffffffffffffffffffffff16815260200190600101908083116113cf575b5050505050905092915050565b60046020528060005260406000206000915090508060000154908060010154908060030154908060040154908060070154905085565b6114646128c0565b60046000848152602001908152602001600020600601600083815260200190815260200160002060003373ffffffffffffffffffffffffffffffffffffffff1673ffffffffffffffffffffffffffffffffffffffff1681526020019081526020016000206040518060a00160405290816000820160009054906101000a900473ffffffffffffffffffffffffffffffffffffffff1673ffffffffffffffffffffffffffffffffffffffff1673ffffffffffffffffffffffffffffffffffffffff168152602001600182015481526020016002820154815260200160038201548152602001600482018054611557906134b2565b80601f0160208091040260200160405190810160405280929190818152602001828054611583906134b2565b80156115d05780601f106115a5576101008083540402835291602001916115d0565b820191906000526020600020905b8154815290600101906020018083116115b357829003601f168201915b505050505081525050905092915050565b60066020528060005260406000206000915090508060000154908060010154908060020154908060040154908060050154908060080154905086565b8673ffffffffffffffffffffffffffffffffffffffff163373ffffffffffffffffffffffffffffffffffffffff161461168b576040517f08c379a0000000000000000000000000000000000000000000000000000000008152600401611682906130ed565b60405180910390fd5b600034116116ce576040517f08c379a00000000000000000000000000000000000000000000000000000000081526004016116c59061310d565b60405180910390fd5b838514806116db57508285145b61171a576040517f08c379a0000000000000000000000000000000000000000000000000000000008152600401611711906130cd565b60405180910390fd5b600060056000888152602001908152602001600020600701600087815260200190815260200160002060003373ffffffffffffffffffffffffffffffffffffffff1673ffffffffffffffffffffffffffffffffffffffff16815260200190815260200160002060010154905060006005606434611797919061339f565b6117a191906133d0565b90506000605f6064346117b4919061339f565b6117be91906133d0565b905060008054906101000a900473ffffffffffffffffffffffffffffffffffffffff1673ffffffffffffffffffffffffffffffffffffffff166108fc839081150290604051600060405180830381858888f19350505050158015611826573d6000803e3d6000fd5b5080600160008c73ffffffffffffffffffffffffffffffffffffffff1673ffffffffffffffffffffffffffffffffffffffff16815260200190815260200160002060000160008282546118799190613349565b92505081905550600160008b73ffffffffffffffffffffffffffffffffffffffff1673ffffffffffffffffffffffffffffffffffffffff1681526020019081526020016000206001016040518060a001604052803373ffffffffffffffffffffffffffffffffffffffff1681526020018381526020018a81526020018b81526020016040518060400160405280600c81526020017f506f696e74205370726561640000000000000000000000000000000000000000815250815250908060018154018082558091505060019003906000526020600020906005020160009091909190915060008201518160000160006101000a81548173ffffffffffffffffffffffffffffffffffffffff021916908373ffffffffffffffffffffffffffffffffffffffff16021790555060208201518160010155604082015181600201556060820151816003015560808201518160040190805190602001906119de92919061283a565b50505034600260008b81526020019081526020016000206000828254611a049190613349565b9250508190555034600360008b815260200190815260200160002060008a81526020019081526020016000206000828254611a3f9190613349565b9250508190555080600560008b81526020019081526020016000206002016000828254611a6c9190613349565b9250508190555080600560008b815260200190815260200160002060030160008a81526020019081526020016000206000828254611aaa9190613349565b9250508190555086600560008b81526020019081526020016000206004018190555085600560008b815260200190815260200160002060050181905550611af085611deb565b600560008b81526020019081526020016000206001018190555083600560008b815260200190815260200160002060000160008a8152602001908152602001600020819055503373ffffffffffffffffffffffffffffffffffffffff16600560008b815260200190815260200160002060070160008a815260200190815260200160002060003373ffffffffffffffffffffffffffffffffffffffff1673ffffffffffffffffffffffffffffffffffffffff16815260200190815260200160002060000160009054906101000a900473ffffffffffffffffffffffffffffffffffffffff1673ffffffffffffffffffffffffffffffffffffffff1614611c7957600560008a81526020019081526020016000206006016000898152602001908152602001600020339080600181540180825580915050600190039060005260206000200160009091909190916101000a81548173ffffffffffffffffffffffffffffffffffffffff021916908373ffffffffffffffffffffffffffffffffffffffff1602179055505b6040518060a001604052803373ffffffffffffffffffffffffffffffffffffffff1681526020018285611cac9190613349565b81526020018981526020018a81526020016040518060400160405280600c81526020017f506f696e74205370726561640000000000000000000000000000000000000000815250815250600560008b815260200190815260200160002060070160008a815260200190815260200160002060003373ffffffffffffffffffffffffffffffffffffffff1673ffffffffffffffffffffffffffffffffffffffff16815260200190815260200160002060008201518160000160006101000a81548173ffffffffffffffffffffffffffffffffffffffff021916908373ffffffffffffffffffffffffffffffffffffffff1602179055506020820151816001015560408201518160020155606082015181600301556080820151816004019080519060200190611ddb92919061283a565b5090505050505050505050505050565b600081604051602001611dfe9190613057565b6040516020818303038152906040528051906020012060001c9050919050565b60008060036000868152602001908152602001600020600085815260200190815260200160002054905060006003600087815260200190815260200160002060008581526020019081526020016000205490506000821115611eac5760008183611e889190613349565b83611e93919061339f565b9050606481611ea291906133d0565b9350505050611eb3565b6000925050505b9392505050565b60008054906101000a900473ffffffffffffffffffffffffffffffffffffffff1673ffffffffffffffffffffffffffffffffffffffff163373ffffffffffffffffffffffffffffffffffffffff1614611f48576040517f08c379a0000000000000000000000000000000000000000000000000000000008152600401611f3f9061312d565b60405180910390fd5b60008054906101000a900473ffffffffffffffffffffffffffffffffffffffff1673ffffffffffffffffffffffffffffffffffffffff166108fc479081150290604051600060405180830381858888f19350505050158015611fae573d6000803e3d6000fd5b50565b600060056000848152602001908152602001600020600001600083815260200190815260200160002054905092915050565b8573ffffffffffffffffffffffffffffffffffffffff163373ffffffffffffffffffffffffffffffffffffffff1614612051576040517f08c379a0000000000000000000000000000000000000000000000000000000008152600401612048906130ed565b60405180910390fd5b60003411612094576040517f08c379a000000000000000000000000000000000000000000000000000000000815260040161208b9061310d565b60405180910390fd5b828414806120a157508184145b6120e0576040517f08c379a00000000000000000000000000000000000000000000000000000000081526004016120d7906130cd565b60405180910390fd5b600060046000878152602001908152602001600020600601600086815260200190815260200160002060003373ffffffffffffffffffffffffffffffffffffffff1673ffffffffffffffffffffffffffffffffffffffff1681526020019081526020016000206001015490506000600560643461215d919061339f565b61216791906133d0565b90506000605f60643461217a919061339f565b61218491906133d0565b905060008054906101000a900473ffffffffffffffffffffffffffffffffffffffff1673ffffffffffffffffffffffffffffffffffffffff166108fc839081150290604051600060405180830381858888f193505050501580156121ec573d6000803e3d6000fd5b5080600160008b73ffffffffffffffffffffffffffffffffffffffff1673ffffffffffffffffffffffffffffffffffffffff168152602001908152602001600020600001600082825461223f9190613349565b92505081905550600160008a73ffffffffffffffffffffffffffffffffffffffff1673ffffffffffffffffffffffffffffffffffffffff1681526020019081526020016000206001016040518060a001604052803373ffffffffffffffffffffffffffffffffffffffff1681526020018381526020018981526020018a81526020016040518060400160405280600a81526020017f4d6f6e6579204c696e6500000000000000000000000000000000000000000000815250815250908060018154018082558091505060019003906000526020600020906005020160009091909190915060008201518160000160006101000a81548173ffffffffffffffffffffffffffffffffffffffff021916908373ffffffffffffffffffffffffffffffffffffffff16021790555060208201518160010155604082015181600201556060820151816003015560808201518160040190805190602001906123a492919061283a565b50505034600260008a815260200190815260200160002060008282546123ca9190613349565b9250508190555034600360008a8152602001908152602001600020600089815260200190815260200160002060008282546124059190613349565b9250508190555080600460008a815260200190815260200160002060010160008282546124329190613349565b9250508190555080600460008a8152602001908152602001600020600201600089815260200190815260200160002060008282546124709190613349565b9250508190555085600460008a81526020019081526020016000206003018190555084600460008a8152602001908152602001600020600401819055506124b684611deb565b600460008a8152602001908152602001600020600001819055503373ffffffffffffffffffffffffffffffffffffffff16600460008a8152602001908152602001600020600601600089815260200190815260200160002060003373ffffffffffffffffffffffffffffffffffffffff1673ffffffffffffffffffffffffffffffffffffffff16815260200190815260200160002060000160009054906101000a900473ffffffffffffffffffffffffffffffffffffffff1673ffffffffffffffffffffffffffffffffffffffff161461261357600460008981526020019081526020016000206005016000888152602001908152602001600020339080600181540180825580915050600190039060005260206000200160009091909190916101000a81548173ffffffffffffffffffffffffffffffffffffffff021916908373ffffffffffffffffffffffffffffffffffffffff1602179055505b6040518060a001604052803373ffffffffffffffffffffffffffffffffffffffff16815260200182856126469190613349565b81526020018881526020018981526020016040518060400160405280600a81526020017f4d6f6e6579204c696e6500000000000000000000000000000000000000000000815250815250600460008a8152602001908152602001600020600601600089815260200190815260200160002060003373ffffffffffffffffffffffffffffffffffffffff1673ffffffffffffffffffffffffffffffffffffffff16815260200190815260200160002060008201518160000160006101000a81548173ffffffffffffffffffffffffffffffffffffffff021916908373ffffffffffffffffffffffffffffffffffffffff160217905550602082015181600101556040820151816002015560608201518160030155608082015181600401908051906020019061277592919061283a565b50905050505050505050505050565b606060066000848152602001908152602001600020600601600083815260200190815260200160002080548060200260200160405190810160405280929190818152602001828054801561282d57602002820191906000526020600020905b8160009054906101000a900473ffffffffffffffffffffffffffffffffffffffff1673ffffffffffffffffffffffffffffffffffffffff16815260200190600101908083116127e3575b5050505050905092915050565b828054612846906134b2565b90600052602060002090601f01602090048101928261286857600085556128af565b82601f1061288157805160ff19168380011785556128af565b828001600101855582156128af579182015b828111156128ae578251825591602001919060010190612893565b5b5090506128bc9190612905565b5090565b6040518060a00160405280600073ffffffffffffffffffffffffffffffffffffffff168152602001600081526020016000815260200160008152602001606081525090565b5b8082111561291e576000816000905550600101612906565b5090565b60006129356129308461326f565b61323e565b90508281526020810184848401111561294d57600080fd5b612958848285613470565b509392505050565b60008135905061296f816135b1565b92915050565b600081359050612984816135c8565b92915050565b600082601f83011261299b57600080fd5b81356129ab848260208601612922565b91505092915050565b6000813590506129c3816135df565b92915050565b6000602082840312156129db57600080fd5b60006129e984828501612960565b91505092915050565b60008060008060008060c08789031215612a0b57600080fd5b6000612a1989828a01612960565b9650506020612a2a89828a016129b4565b9550506040612a3b89828a016129b4565b9450506060612a4c89828a016129b4565b9350506080612a5d89828a016129b4565b92505060a087013567ffffffffffffffff811115612a7a57600080fd5b612a8689828a0161298a565b9150509295509295509295565b600080600080600080600060e0888a031215612aae57600080fd5b6000612abc8a828b01612960565b9750506020612acd8a828b016129b4565b9650506040612ade8a828b016129b4565b9550506060612aef8a828b016129b4565b9450506080612b008a828b016129b4565b93505060a088013567ffffffffffffffff811115612b1d57600080fd5b612b298a828b0161298a565b92505060c0612b3a8a828b01612975565b91505092959891949750929550565b600060208284031215612b5b57600080fd5b600082013567ffffffffffffffff811115612b7557600080fd5b612b818482850161298a565b91505092915050565b600060208284031215612b9c57600080fd5b6000612baa848285016129b4565b91505092915050565b60008060408385031215612bc657600080fd5b6000612bd4858286016129b4565b9250506020612be585828601612975565b9150509250929050565b60008060408385031215612c0257600080fd5b6000612c10858286016129b4565b9250506020612c21858286016129b4565b9150509250929050565b600080600060608486031215612c4057600080fd5b6000612c4e868287016129b4565b9350506020612c5f868287016129b4565b9250506040612c70868287016129b4565b9150509250925092565b6000612c868383612ca6565b60208301905092915050565b6000612c9e8383612f4d565b905092915050565b612caf8161342a565b82525050565b6000612cc0826132bf565b612cca81856132fa565b9350612cd58361329f565b8060005b83811015612d06578151612ced8882612c7a565b9750612cf8836132e0565b925050600181019050612cd9565b5085935050505092915050565b6000612d1e826132ca565b612d28818561330b565b935083602082028501612d3a856132af565b8060005b85811015612d765784840389528151612d578582612c92565b9450612d62836132ed565b925060208a01995050600181019050612d3e565b50829750879550505050505092915050565b612d918161343c565b82525050565b6000612da2826132d5565b612dac818561331c565b9350612dbc81856020860161347f565b612dc5816135a0565b840191505092915050565b6000612ddb826132d5565b612de5818561333e565b9350612df581856020860161347f565b80840191505092915050565b6000612e0e60338361332d565b91507f596f75206d75737420626574206f6e2061207465616d2074686174206973207060008301527f6c6179696e6720696e20746869732067616d65000000000000000000000000006020830152604082019050919050565b6000612e7460228361332d565b91507f596f75206d757374206265742066726f6d20796f7572206f776e20616464726560008301527f73730000000000000000000000000000000000000000000000000000000000006020830152604082019050919050565b6000612eda60168361332d565b91507f596f75206d7573742062657420736f6d657468696e67000000000000000000006000830152602082019050919050565b6000612f1a60158361332d565b91507f596f7520617265206e6f74207468652061646d696e00000000000000000000006000830152602082019050919050565b600060a083016000830151612f656000860182612ca6565b506020830151612f786020860182613039565b506040830151612f8b6040860182613039565b506060830151612f9e6060860182613039565b5060808301518482036080860152612fb68282612d97565b9150508091505092915050565b600060a083016000830151612fdb6000860182612ca6565b506020830151612fee6020860182613039565b5060408301516130016040860182613039565b5060608301516130146060860182613039565b506080830151848203608086015261302c8282612d97565b9150508091505092915050565b61304281613466565b82525050565b61305181613466565b82525050565b60006130638284612dd0565b915081905092915050565b600060208201905081810360008301526130888184612cb5565b905092915050565b600060208201905081810360008301526130aa8184612d13565b905092915050565b60006020820190506130c76000830184612d88565b92915050565b600060208201905081810360008301526130e681612e01565b9050919050565b6000602082019050818103600083015261310681612e67565b9050919050565b6000602082019050818103600083015261312681612ecd565b9050919050565b6000602082019050818103600083015261314681612f0d565b9050919050565b600060208201905081810360008301526131678184612fc3565b905092915050565b60006020820190506131846000830184613048565b92915050565b600060a08201905061319f6000830188613048565b6131ac6020830187613048565b6131b96040830186613048565b6131c66060830185613048565b6131d36080830184613048565b9695505050505050565b600060c0820190506131f26000830189613048565b6131ff6020830188613048565b61320c6040830187613048565b6132196060830186613048565b6132266080830185613048565b61323360a0830184612d88565b979650505050505050565b6000604051905081810181811067ffffffffffffffff8211171561326557613264613571565b5b8060405250919050565b600067ffffffffffffffff82111561328a57613289613571565b5b601f19601f8301169050602081019050919050565b6000819050602082019050919050565b6000819050602082019050919050565b600081519050919050565b600081519050919050565b600081519050919050565b6000602082019050919050565b6000602082019050919050565b600082825260208201905092915050565b600082825260208201905092915050565b600082825260208201905092915050565b600082825260208201905092915050565b600081905092915050565b600061335482613466565b915061335f83613466565b9250827fffffffffffffffffffffffffffffffffffffffffffffffffffffffffffffffff03821115613394576133936134e4565b5b828201905092915050565b60006133aa82613466565b91506133b583613466565b9250826133c5576133c4613513565b5b828204905092915050565b60006133db82613466565b91506133e683613466565b9250817fffffffffffffffffffffffffffffffffffffffffffffffffffffffffffffffff048311821515161561341f5761341e6134e4565b5b828202905092915050565b600061343582613446565b9050919050565b6000819050919050565b600073ffffffffffffffffffffffffffffffffffffffff82169050919050565b6000819050919050565b82818337600083830152505050565b60005b8381101561349d578082015181840152602081019050613482565b838111156134ac576000848401525b50505050565b600060028204905060018216806134ca57607f821691505b602082108114156134de576134dd613542565b5b50919050565b7f4e487b7100000000000000000000000000000000000000000000000000000000600052601160045260246000fd5b7f4e487b7100000000000000000000000000000000000000000000000000000000600052601260045260246000fd5b7f4e487b7100000000000000000000000000000000000000000000000000000000600052602260045260246000fd5b7f4e487b7100000000000000000000000000000000000000000000000000000000600052604160045260246000fd5b6000601f19601f8301169050919050565b6135ba8161342a565b81146135c557600080fd5b50565b6135d18161343c565b81146135dc57600080fd5b50565b6135e881613466565b81146135f357600080fd5b5056fea2646970667358221220acfc6476cfa556f70f938d6058a9d2ff2b3179fa6799d8907a0de4ae857512d964736f6c63430008000033",
  "linkReferences": {},
  "deployedLinkReferences": {}
}