{
  "_format": "hh-sol-artifact-1",
  "contractName": "Bet",
  "sourceName": "contracts/Bet.sol",
  "abi": [
    {
      "inputs": [],
      "stateMutability": "nonpayable",
      "type": "constructor"
    },
    {
      "inputs": [
        {
          "internalType": "address",
          "name": "",
          "type": "address"
        }
      ],
      "name": "balances",
      "outputs": [
        {
          "internalType": "uint256",
          "name": "escrow",
          "type": "uint256"
        }
      ],
      "stateMutability": "view",
      "type": "function"
    },
    {
      "inputs": [
        {
          "internalType": "string",
          "name": "datetimeString",
          "type": "string"
        }
      ],
      "name": "datetimeToUnix",
      "outputs": [
        {
          "internalType": "uint256",
          "name": "",
          "type": "uint256"
        }
      ],
      "stateMutability": "pure",
      "type": "function"
    },
    {
      "inputs": [
        {
          "internalType": "address",
          "name": "user",
          "type": "address"
        },
        {
          "internalType": "uint256",
          "name": "gameID",
          "type": "uint256"
        },
        {
          "internalType": "uint256",
          "name": "teamID",
          "type": "uint256"
        },
        {
          "internalType": "uint256",
          "name": "homeTeamID",
          "type": "uint256"
        },
        {
          "internalType": "uint256",
          "name": "awayTeamID",
          "type": "uint256"
        },
        {
          "internalType": "string",
          "name": "startTime",
          "type": "string"
        }
      ],
      "name": "moneyLineBet",
      "outputs": [],
      "stateMutability": "payable",
      "type": "function"
    },
    {
      "inputs": [
        {
          "internalType": "uint256",
          "name": "",
          "type": "uint256"
        }
      ],
      "name": "newMoneyLineBet",
      "outputs": [
        {
          "internalType": "uint256",
          "name": "startTime",
          "type": "uint256"
        },
        {
          "internalType": "uint256",
          "name": "total",
          "type": "uint256"
        },
        {
          "internalType": "uint256",
          "name": "homeTeamID",
          "type": "uint256"
        },
        {
          "internalType": "uint256",
          "name": "awayTeamID",
          "type": "uint256"
        },
        {
          "internalType": "uint256",
          "name": "result",
          "type": "uint256"
        }
      ],
      "stateMutability": "view",
      "type": "function"
    },
    {
      "inputs": [
        {
          "internalType": "uint256",
          "name": "",
          "type": "uint256"
        }
      ],
      "name": "newPointSpreadBet",
      "outputs": [
        {
          "internalType": "uint256",
          "name": "startTime",
          "type": "uint256"
        },
        {
          "internalType": "uint256",
          "name": "total",
          "type": "uint256"
        },
        {
          "internalType": "uint256",
          "name": "homeTeamID",
          "type": "uint256"
        },
        {
          "internalType": "uint256",
          "name": "awayTeamID",
          "type": "uint256"
        },
        {
          "internalType": "uint256",
          "name": "result",
          "type": "uint256"
        }
      ],
      "stateMutability": "view",
      "type": "function"
    },
    {
      "inputs": [
        {
          "internalType": "uint256",
          "name": "",
          "type": "uint256"
        }
      ],
      "name": "newPointTotalBet",
      "outputs": [
        {
          "internalType": "uint256",
          "name": "pointAmount",
          "type": "uint256"
        },
        {
          "internalType": "uint256",
          "name": "startTime",
          "type": "uint256"
        },
        {
          "internalType": "uint256",
          "name": "total",
          "type": "uint256"
        },
        {
          "internalType": "uint256",
          "name": "homeTeamID",
          "type": "uint256"
        },
        {
          "internalType": "uint256",
          "name": "awayTeamID",
          "type": "uint256"
        },
        {
          "internalType": "int256",
          "name": "result",
          "type": "int256"
        }
      ],
      "stateMutability": "view",
      "type": "function"
    },
    {
      "inputs": [
        {
          "internalType": "address",
          "name": "user",
          "type": "address"
        },
        {
          "internalType": "uint256",
          "name": "gameID",
          "type": "uint256"
        },
        {
          "internalType": "uint256",
          "name": "teamID",
          "type": "uint256"
        },
        {
          "internalType": "uint256",
          "name": "homeTeamID",
          "type": "uint256"
        },
        {
          "internalType": "uint256",
          "name": "awayTeamID",
          "type": "uint256"
        },
        {
          "internalType": "string",
          "name": "startTime",
          "type": "string"
        },
        {
          "internalType": "int256",
          "name": "spread",
          "type": "int256"
        }
      ],
      "name": "pointSpreadBet",
      "outputs": [],
      "stateMutability": "payable",
      "type": "function"
    },
    {
      "inputs": [
        {
          "internalType": "address",
          "name": "user",
          "type": "address"
        },
        {
          "internalType": "uint256",
          "name": "gameID",
          "type": "uint256"
        },
        {
          "internalType": "uint256",
          "name": "pointAmount",
          "type": "uint256"
        },
        {
          "internalType": "uint256",
          "name": "homeTeamID",
          "type": "uint256"
        },
        {
          "internalType": "uint256",
          "name": "awayTeamID",
          "type": "uint256"
        },
        {
          "internalType": "string",
          "name": "startTime",
          "type": "string"
        },
        {
          "internalType": "int256",
          "name": "value",
          "type": "int256"
        }
      ],
      "name": "pointTotalBet",
      "outputs": [],
      "stateMutability": "payable",
      "type": "function"
    },
    {
      "inputs": [],
      "name": "returnEscrow",
      "outputs": [
        {
          "internalType": "uint256",
          "name": "",
          "type": "uint256"
        }
      ],
      "stateMutability": "view",
      "type": "function"
    },
    {
      "inputs": [
        {
          "internalType": "uint256",
          "name": "gameID",
          "type": "uint256"
        },
        {
          "internalType": "uint256",
          "name": "teamID",
          "type": "uint256"
        }
      ],
      "name": "returnMoneyLineBetReceipt",
      "outputs": [
        {
          "components": [
            {
              "internalType": "address",
              "name": "addr",
              "type": "address"
            },
            {
              "internalType": "uint256",
              "name": "amount",
              "type": "uint256"
            },
            {
              "internalType": "uint256",
              "name": "teamID",
              "type": "uint256"
            },
            {
              "internalType": "uint256",
              "name": "gameID",
              "type": "uint256"
            },
            {
              "internalType": "string",
              "name": "betType",
              "type": "string"
            }
          ],
          "internalType": "struct Bet.Transaction",
          "name": "",
          "type": "tuple"
        }
      ],
      "stateMutability": "view",
      "type": "function"
    },
    {
      "inputs": [
        {
          "internalType": "uint256",
          "name": "gameID",
          "type": "uint256"
        },
        {
          "internalType": "uint256",
          "name": "teamID",
          "type": "uint256"
        }
      ],
      "name": "returnMoneyLineUsersArray",
      "outputs": [
        {
          "internalType": "address[]",
          "name": "",
          "type": "address[]"
        }
      ],
      "stateMutability": "view",
      "type": "function"
    },
    {
      "inputs": [
        {
          "internalType": "uint256",
          "name": "gameID",
          "type": "uint256"
        },
        {
          "internalType": "uint256",
          "name": "bettingTeamID",
          "type": "uint256"
        },
        {
          "internalType": "uint256",
          "name": "opposingTeamID",
          "type": "uint256"
        }
      ],
      "name": "returnOdds",
      "outputs": [
        {
          "internalType": "uint256",
          "name": "",
          "type": "uint256"
        }
      ],
      "stateMutability": "view",
      "type": "function"
    },
    {
      "inputs": [
        {
          "internalType": "uint256",
          "name": "gameID",
          "type": "uint256"
        },
        {
          "internalType": "uint256",
          "name": "teamID",
          "type": "uint256"
        }
      ],
      "name": "returnPointSpreadBetReceipt",
      "outputs": [
        {
          "components": [
            {
              "internalType": "address",
              "name": "addr",
              "type": "address"
            },
            {
              "internalType": "uint256",
              "name": "amount",
              "type": "uint256"
            },
            {
              "internalType": "uint256",
              "name": "teamID",
              "type": "uint256"
            },
            {
              "internalType": "uint256",
              "name": "gameID",
              "type": "uint256"
            },
            {
              "internalType": "string",
              "name": "betType",
              "type": "string"
            }
          ],
          "internalType": "struct Bet.Transaction",
          "name": "",
          "type": "tuple"
        }
      ],
      "stateMutability": "view",
      "type": "function"
    },
    {
      "inputs": [
        {
          "internalType": "uint256",
          "name": "gameID",
          "type": "uint256"
        },
        {
          "internalType": "uint256",
          "name": "teamID",
          "type": "uint256"
        }
      ],
      "name": "returnPointSpreadGameAmount",
      "outputs": [
        {
          "internalType": "int256",
          "name": "",
          "type": "int256"
        }
      ],
      "stateMutability": "view",
      "type": "function"
    },
    {
      "inputs": [
        {
          "internalType": "uint256",
          "name": "gameID",
          "type": "uint256"
        },
        {
          "internalType": "uint256",
          "name": "teamID",
          "type": "uint256"
        }
      ],
      "name": "returnPointSpreadUsersArray",
      "outputs": [
        {
          "internalType": "address[]",
          "name": "",
          "type": "address[]"
        }
      ],
      "stateMutability": "view",
      "type": "function"
    },
    {
      "inputs": [
        {
          "internalType": "uint256",
          "name": "gameID",
          "type": "uint256"
        },
        {
          "internalType": "int256",
          "name": "value",
          "type": "int256"
        }
      ],
      "name": "returnPointTotalBetReceipt",
      "outputs": [
        {
          "components": [
            {
              "internalType": "address",
              "name": "addr",
              "type": "address"
            },
            {
              "internalType": "uint256",
              "name": "amount",
              "type": "uint256"
            },
            {
              "internalType": "uint256",
              "name": "teamID",
              "type": "uint256"
            },
            {
              "internalType": "uint256",
              "name": "gameID",
              "type": "uint256"
            },
            {
              "internalType": "string",
              "name": "betType",
              "type": "string"
            }
          ],
          "internalType": "struct Bet.Transaction",
          "name": "",
          "type": "tuple"
        }
      ],
      "stateMutability": "view",
      "type": "function"
    },
    {
      "inputs": [
        {
          "internalType": "uint256",
          "name": "gameID",
          "type": "uint256"
        }
      ],
      "name": "returnPointTotalGameAmount",
      "outputs": [
        {
          "internalType": "uint256",
          "name": "",
          "type": "uint256"
        }
      ],
      "stateMutability": "view",
      "type": "function"
    },
    {
      "inputs": [
        {
          "internalType": "uint256",
          "name": "gameID",
          "type": "uint256"
        },
        {
          "internalType": "int256",
          "name": "value",
          "type": "int256"
        }
      ],
      "name": "returnPointTotalUsersArray",
      "outputs": [
        {
          "internalType": "address[]",
          "name": "",
          "type": "address[]"
        }
      ],
      "stateMutability": "view",
      "type": "function"
    },
    {
      "inputs": [],
      "name": "returnReceipts",
      "outputs": [
        {
          "components": [
            {
              "internalType": "address",
              "name": "addr",
              "type": "address"
            },
            {
              "internalType": "uint256",
              "name": "amount",
              "type": "uint256"
            },
            {
              "internalType": "uint256",
              "name": "teamID",
              "type": "uint256"
            },
            {
              "internalType": "uint256",
              "name": "gameID",
              "type": "uint256"
            },
            {
              "internalType": "string",
              "name": "betType",
              "type": "string"
            }
          ],
          "internalType": "struct Bet.Transaction[]",
          "name": "",
          "type": "tuple[]"
        }
      ],
      "stateMutability": "view",
      "type": "function"
    },
    {
      "inputs": [
        {
          "internalType": "uint256",
          "name": "",
          "type": "uint256"
        }
      ],
      "name": "totalBetOnGame",
      "outputs": [
        {
          "internalType": "uint256",
          "name": "",
          "type": "uint256"
        }
      ],
      "stateMutability": "view",
      "type": "function"
    },
    {
      "inputs": [
        {
          "internalType": "uint256",
          "name": "",
          "type": "uint256"
        },
        {
          "internalType": "uint256",
          "name": "",
          "type": "uint256"
        }
      ],
      "name": "totalBetOnTeam",
      "outputs": [
        {
          "internalType": "uint256",
          "name": "",
          "type": "uint256"
        }
      ],
      "stateMutability": "view",
      "type": "function"
    },
    {
      "inputs": [],
      "name": "transferEther",
      "outputs": [],
      "stateMutability": "nonpayable",
      "type": "function"
    }
  ],
  "bytecode": "0x608060405234801561001057600080fd5b50336000806101000a81548173ffffffffffffffffffffffffffffffffffffffff021916908373ffffffffffffffffffffffffffffffffffffffff160217905550613218806100606000396000f3fe6080604052600436106101355760003560e01c80638697ac4e116100ab578063c084eff71161006f578063c084eff7146104b1578063c1b2bddc146104ee578063c9b25f0f1461052b578063ccb7ed4514610542578063ee8d6d8b1461057f578063f6d7c7591461059b57610135565b80638697ac4e146103985780638edd3971146103d5578063a910e4a514610416578063a91faba214610453578063ab0900c51461049557610135565b80632b3a4ef6116100fd5780632b3a4ef61461024e5780633946f6661461028b57806368989a92146102b65780636bd4c7c0146102f35780637ea4178a1461033057806380ee79c11461035b57610135565b806308c27e5a1461013a5780631f294bf61461017757806323821c21146101935780632429827f146101d057806327e235e314610211575b600080fd5b34801561014657600080fd5b50610161600480360381019061015c91906127db565b6105d8565b60405161016e9190612c5a565b60405180910390f35b610191600480360381019061018c919061267f565b61068e565b005b34801561019f57600080fd5b506101ba60048036038101906101b59190612776565b610c64565b6040516101c79190612d5b565b60405180910390f35b3480156101dc57600080fd5b506101f760048036038101906101f29190612776565b610c7c565b604051610208959493929190612d76565b60405180910390f35b34801561021d57600080fd5b50610238600480360381019061023391906125b5565b610cb2565b6040516102459190612d5b565b60405180910390f35b34801561025a57600080fd5b50610275600480360381019061027091906127db565b610cd0565b6040516102829190612d5b565b60405180910390f35b34801561029757600080fd5b506102a0610cf5565b6040516102ad9190612c7c565b60405180910390f35b3480156102c257600080fd5b506102dd60048036038101906102d89190612776565b610e9a565b6040516102ea9190612d5b565b60405180910390f35b3480156102ff57600080fd5b5061031a600480360381019061031591906127db565b610eba565b6040516103279190612d39565b60405180910390f35b34801561033c57600080fd5b5061034561103f565b6040516103529190612d5b565b60405180910390f35b34801561036757600080fd5b50610382600480360381019061037d919061279f565b611089565b60405161038f9190612d39565b60405180910390f35b3480156103a457600080fd5b506103bf60048036038101906103ba91906127db565b61120e565b6040516103cc9190612c5a565b60405180910390f35b3480156103e157600080fd5b506103fc60048036038101906103f79190612776565b6112c4565b60405161040d959493929190612d76565b60405180910390f35b34801561042257600080fd5b5061043d600480360381019061043891906127db565b6112fa565b60405161044a9190612d39565b60405180910390f35b34801561045f57600080fd5b5061047a60048036038101906104759190612776565b61147f565b60405161048c96959493929190612dc9565b60405180910390f35b6104af60048036038101906104aa919061267f565b6114bb565b005b3480156104bd57600080fd5b506104d860048036038101906104d39190612735565b611b27565b6040516104e59190612d5b565b60405180910390f35b3480156104fa57600080fd5b5061051560048036038101906105109190612817565b611b5a565b6040516105229190612d5b565b60405180910390f35b34801561053757600080fd5b50610540611bf6565b005b34801561054e57600080fd5b50610569600480360381019061056491906127db565b611ced565b6040516105769190612c9e565b60405180910390f35b610599600480360381019061059491906125de565b611d1f565b005b3480156105a757600080fd5b506105c260048036038101906105bd919061279f565b612370565b6040516105cf9190612c5a565b60405180910390f35b606060056000848152602001908152602001600020600601600083815260200190815260200160002080548060200260200160405190810160405280929190818152602001828054801561068157602002820191906000526020600020905b8160009054906101000a900473ffffffffffffffffffffffffffffffffffffffff1673ffffffffffffffffffffffffffffffffffffffff1681526020019060010190808311610637575b5050505050905092915050565b8673ffffffffffffffffffffffffffffffffffffffff163373ffffffffffffffffffffffffffffffffffffffff16146106fc576040517f08c379a00000000000000000000000000000000000000000000000000000000081526004016106f390612cd9565b60405180910390fd5b6000341161073f576040517f08c379a000000000000000000000000000000000000000000000000000000000815260040161073690612cf9565b60405180910390fd5b600060056064346107509190612f8b565b61075a9190612fbc565b90506000605f60643461076d9190612f8b565b6107779190612fbc565b90506000600660008a815260200190815260200160002090506000600160003373ffffffffffffffffffffffffffffffffffffffff1673ffffffffffffffffffffffffffffffffffffffff16815260200190815260200160002090506000816001019050600083600701600088815260200190815260200160002060003373ffffffffffffffffffffffffffffffffffffffff1673ffffffffffffffffffffffffffffffffffffffff16815260200190815260200160002090506000846006016000898152602001908152602001600020905060008054906101000a900473ffffffffffffffffffffffffffffffffffffffff1673ffffffffffffffffffffffffffffffffffffffff166108fc889081150290604051600060405180830381858888f193505050501580156108b0573d6000803e3d6000fd5b50858460000160008282546108c59190612f35565b92505081905550826040518060a001604052803373ffffffffffffffffffffffffffffffffffffffff168152602001888152602001600081526020018f81526020016040518060400160405280600b81526020017f506f696e7420546f74616c000000000000000000000000000000000000000000815250815250908060018154018082558091505060019003906000526020600020906005020160009091909190915060008201518160000160006101000a81548173ffffffffffffffffffffffffffffffffffffffff021916908373ffffffffffffffffffffffffffffffffffffffff16021790555060208201518160010155604082015181600201556060820151816003015560808201518160040190805190602001906109ea929190612426565b50505034600260008f81526020019081526020016000206000828254610a109190612f35565b9250508190555085856002016000828254610a2b9190612f35565b92505081905550858560030160008a81526020019081526020016000206000828254610a579190612f35565b925050819055508a8560040181905550898560050181905550610a7989611b27565b85600101819055508b85600001819055503373ffffffffffffffffffffffffffffffffffffffff168560070160008a815260200190815260200160002060003373ffffffffffffffffffffffffffffffffffffffff1673ffffffffffffffffffffffffffffffffffffffff16815260200190815260200160002060000160009054906101000a900473ffffffffffffffffffffffffffffffffffffffff1673ffffffffffffffffffffffffffffffffffffffff1614610b955780339080600181540180825580915050600190039060005260206000200160009091909190916101000a81548173ffffffffffffffffffffffffffffffffffffffff021916908373ffffffffffffffffffffffffffffffffffffffff1602179055505b338260000160006101000a81548173ffffffffffffffffffffffffffffffffffffffff021916908373ffffffffffffffffffffffffffffffffffffffff16021790555085826001016000828254610bec9190612f35565b92505081905550600082600201819055508c82600301819055506040518060400160405280600b81526020017f506f696e7420546f74616c000000000000000000000000000000000000000000815250826004019080519060200190610c53929190612426565b505050505050505050505050505050565b60026020528060005260406000206000915090505481565b60056020528060005260406000206000915090508060010154908060020154908060040154908060050154908060080154905085565b60016020528060005260406000206000915090508060000154905081565b6003602052816000526040600020602052806000526040600020600091509150505481565b6060600160003373ffffffffffffffffffffffffffffffffffffffff1673ffffffffffffffffffffffffffffffffffffffff168152602001908152602001600020600101805480602002602001604051908101604052809291908181526020016000905b82821015610e9157838290600052602060002090600502016040518060a00160405290816000820160009054906101000a900473ffffffffffffffffffffffffffffffffffffffff1673ffffffffffffffffffffffffffffffffffffffff1673ffffffffffffffffffffffffffffffffffffffff168152602001600182015481526020016002820154815260200160038201548152602001600482018054610e009061309e565b80601f0160208091040260200160405190810160405280929190818152602001828054610e2c9061309e565b8015610e795780601f10610e4e57610100808354040283529160200191610e79565b820191906000526020600020905b815481529060010190602001808311610e5c57829003601f168201915b50505050508152505081526020019060010190610d59565b50505050905090565b600060066000838152602001908152602001600020600001549050919050565b610ec26124ac565b60056000848152602001908152602001600020600701600083815260200190815260200160002060003373ffffffffffffffffffffffffffffffffffffffff1673ffffffffffffffffffffffffffffffffffffffff1681526020019081526020016000206040518060a00160405290816000820160009054906101000a900473ffffffffffffffffffffffffffffffffffffffff1673ffffffffffffffffffffffffffffffffffffffff1673ffffffffffffffffffffffffffffffffffffffff168152602001600182015481526020016002820154815260200160038201548152602001600482018054610fb59061309e565b80601f0160208091040260200160405190810160405280929190818152602001828054610fe19061309e565b801561102e5780601f106110035761010080835404028352916020019161102e565b820191906000526020600020905b81548152906001019060200180831161101157829003601f168201915b505050505081525050905092915050565b6000600160003373ffffffffffffffffffffffffffffffffffffffff1673ffffffffffffffffffffffffffffffffffffffff16815260200190815260200160002060000154905090565b6110916124ac565b60066000848152602001908152602001600020600701600083815260200190815260200160002060003373ffffffffffffffffffffffffffffffffffffffff1673ffffffffffffffffffffffffffffffffffffffff1681526020019081526020016000206040518060a00160405290816000820160009054906101000a900473ffffffffffffffffffffffffffffffffffffffff1673ffffffffffffffffffffffffffffffffffffffff1673ffffffffffffffffffffffffffffffffffffffff1681526020016001820154815260200160028201548152602001600382015481526020016004820180546111849061309e565b80601f01602080910402602001604051908101604052809291908181526020018280546111b09061309e565b80156111fd5780601f106111d2576101008083540402835291602001916111fd565b820191906000526020600020905b8154815290600101906020018083116111e057829003601f168201915b505050505081525050905092915050565b60606004600084815260200190815260200160002060050160008381526020019081526020016000208054806020026020016040519081016040528092919081815260200182805480156112b757602002820191906000526020600020905b8160009054906101000a900473ffffffffffffffffffffffffffffffffffffffff1673ffffffffffffffffffffffffffffffffffffffff168152602001906001019080831161126d575b5050505050905092915050565b60046020528060005260406000206000915090508060000154908060010154908060030154908060040154908060070154905085565b6113026124ac565b60046000848152602001908152602001600020600601600083815260200190815260200160002060003373ffffffffffffffffffffffffffffffffffffffff1673ffffffffffffffffffffffffffffffffffffffff1681526020019081526020016000206040518060a00160405290816000820160009054906101000a900473ffffffffffffffffffffffffffffffffffffffff1673ffffffffffffffffffffffffffffffffffffffff1673ffffffffffffffffffffffffffffffffffffffff1681526020016001820154815260200160028201548152602001600382015481526020016004820180546113f59061309e565b80601f01602080910402602001604051908101604052809291908181526020018280546114219061309e565b801561146e5780601f106114435761010080835404028352916020019161146e565b820191906000526020600020905b81548152906001019060200180831161145157829003601f168201915b505050505081525050905092915050565b60066020528060005260406000206000915090508060000154908060010154908060020154908060040154908060050154908060080154905086565b8673ffffffffffffffffffffffffffffffffffffffff163373ffffffffffffffffffffffffffffffffffffffff1614611529576040517f08c379a000000000000000000000000000000000000000000000000000000000815260040161152090612cd9565b60405180910390fd5b6000341161156c576040517f08c379a000000000000000000000000000000000000000000000000000000000815260040161156390612cf9565b60405180910390fd5b8385148061157957508285145b6115b8576040517f08c379a00000000000000000000000000000000000000000000000000000000081526004016115af90612cb9565b60405180910390fd5b600060056064346115c99190612f8b565b6115d39190612fbc565b90506000605f6064346115e69190612f8b565b6115f09190612fbc565b90506000600560008a815260200190815260200160002090506000600160003373ffffffffffffffffffffffffffffffffffffffff1673ffffffffffffffffffffffffffffffffffffffff1681526020019081526020016000209050600081600101905060008360070160008c815260200190815260200160002060003373ffffffffffffffffffffffffffffffffffffffff1673ffffffffffffffffffffffffffffffffffffffff168152602001908152602001600020905060008460060160008d8152602001908152602001600020905060008054906101000a900473ffffffffffffffffffffffffffffffffffffffff1673ffffffffffffffffffffffffffffffffffffffff166108fc889081150290604051600060405180830381858888f19350505050158015611729573d6000803e3d6000fd5b508584600001600082825461173e9190612f35565b92505081905550826040518060a001604052803373ffffffffffffffffffffffffffffffffffffffff1681526020018881526020018e81526020018f81526020016040518060400160405280600c81526020017f506f696e74205370726561640000000000000000000000000000000000000000815250815250908060018154018082558091505060019003906000526020600020906005020160009091909190915060008201518160000160006101000a81548173ffffffffffffffffffffffffffffffffffffffff021916908373ffffffffffffffffffffffffffffffffffffffff1602179055506020820151816001015560408201518160020155606082015181600301556080820151816004019080519060200190611862929190612426565b50505034600260008f815260200190815260200160002060008282546118889190612f35565b9250508190555034600360008f815260200190815260200160002060008e815260200190815260200160002060008282546118c39190612f35565b92505081905550858560020160008282546118de9190612f35565b92505081905550858560030160008e8152602001908152602001600020600082825461190a9190612f35565b925050819055508a856004018190555089856005018190555061192c89611b27565b8560010181905550878560000160008e8152602001908152602001600020819055503373ffffffffffffffffffffffffffffffffffffffff168560070160008e815260200190815260200160002060003373ffffffffffffffffffffffffffffffffffffffff1673ffffffffffffffffffffffffffffffffffffffff16815260200190815260200160002060000160009054906101000a900473ffffffffffffffffffffffffffffffffffffffff1673ffffffffffffffffffffffffffffffffffffffff1614611a595780339080600181540180825580915050600190039060005260206000200160009091909190916101000a81548173ffffffffffffffffffffffffffffffffffffffff021916908373ffffffffffffffffffffffffffffffffffffffff1602179055505b338260000160006101000a81548173ffffffffffffffffffffffffffffffffffffffff021916908373ffffffffffffffffffffffffffffffffffffffff16021790555085826001016000828254611ab09190612f35565b925050819055508b82600201819055508c82600301819055506040518060400160405280600c81526020017f506f696e74205370726561640000000000000000000000000000000000000000815250826004019080519060200190611b16929190612426565b505050505050505050505050505050565b600081604051602001611b3a9190612c43565b6040516020818303038152906040528051906020012060001c9050919050565b60008060036000868152602001908152602001600020600085815260200190815260200160002054905060006003600087815260200190815260200160002060008581526020019081526020016000205490506000821115611be85760008183611bc49190612f35565b83611bcf9190612f8b565b9050606481611bde9190612fbc565b9350505050611bef565b6000925050505b9392505050565b60008054906101000a900473ffffffffffffffffffffffffffffffffffffffff1673ffffffffffffffffffffffffffffffffffffffff163373ffffffffffffffffffffffffffffffffffffffff1614611c84576040517f08c379a0000000000000000000000000000000000000000000000000000000008152600401611c7b90612d19565b60405180910390fd5b60008054906101000a900473ffffffffffffffffffffffffffffffffffffffff1673ffffffffffffffffffffffffffffffffffffffff166108fc479081150290604051600060405180830381858888f19350505050158015611cea573d6000803e3d6000fd5b50565b600060056000848152602001908152602001600020600001600083815260200190815260200160002054905092915050565b8573ffffffffffffffffffffffffffffffffffffffff163373ffffffffffffffffffffffffffffffffffffffff1614611d8d576040517f08c379a0000000000000000000000000000000000000000000000000000000008152600401611d8490612cd9565b60405180910390fd5b60003411611dd0576040517f08c379a0000000000000000000000000000000000000000000000000000000008152600401611dc790612cf9565b60405180910390fd5b82841480611ddd57508184145b611e1c576040517f08c379a0000000000000000000000000000000000000000000000000000000008152600401611e1390612cb9565b60405180910390fd5b60006005606434611e2d9190612f8b565b611e379190612fbc565b90506000605f606434611e4a9190612f8b565b611e549190612fbc565b905060006004600089815260200190815260200160002090506000600160003373ffffffffffffffffffffffffffffffffffffffff1673ffffffffffffffffffffffffffffffffffffffff1681526020019081526020016000209050600081600101905060008360060160008b815260200190815260200160002060003373ffffffffffffffffffffffffffffffffffffffff1673ffffffffffffffffffffffffffffffffffffffff168152602001908152602001600020905060008460050160008c8152602001908152602001600020905060008054906101000a900473ffffffffffffffffffffffffffffffffffffffff1673ffffffffffffffffffffffffffffffffffffffff166108fc889081150290604051600060405180830381858888f19350505050158015611f8d573d6000803e3d6000fd5b5085846000016000828254611fa29190612f35565b92505081905550826040518060a001604052803373ffffffffffffffffffffffffffffffffffffffff1681526020018881526020018d81526020018e81526020016040518060400160405280600a81526020017f4d6f6e6579204c696e6500000000000000000000000000000000000000000000815250815250908060018154018082558091505060019003906000526020600020906005020160009091909190915060008201518160000160006101000a81548173ffffffffffffffffffffffffffffffffffffffff021916908373ffffffffffffffffffffffffffffffffffffffff16021790555060208201518160010155604082015181600201556060820151816003015560808201518160040190805190602001906120c6929190612426565b50505034600260008e815260200190815260200160002060008282546120ec9190612f35565b9250508190555034600360008e815260200190815260200160002060008d815260200190815260200160002060008282546121279190612f35565b92505081905550858560010160008282546121429190612f35565b92505081905550858560020160008d8152602001908152602001600020600082825461216e9190612f35565b9250508190555089856003018190555088856004018190555061219088611b27565b85600001819055503373ffffffffffffffffffffffffffffffffffffffff168560060160008d815260200190815260200160002060003373ffffffffffffffffffffffffffffffffffffffff1673ffffffffffffffffffffffffffffffffffffffff16815260200190815260200160002060000160009054906101000a900473ffffffffffffffffffffffffffffffffffffffff1673ffffffffffffffffffffffffffffffffffffffff16146122a35780339080600181540180825580915050600190039060005260206000200160009091909190916101000a81548173ffffffffffffffffffffffffffffffffffffffff021916908373ffffffffffffffffffffffffffffffffffffffff1602179055505b338260000160006101000a81548173ffffffffffffffffffffffffffffffffffffffff021916908373ffffffffffffffffffffffffffffffffffffffff160217905550858260010160008282546122fa9190612f35565b925050819055508a82600201819055508b82600301819055506040518060400160405280600a81526020017f4d6f6e6579204c696e6500000000000000000000000000000000000000000000815250826004019080519060200190612360929190612426565b5050505050505050505050505050565b606060066000848152602001908152602001600020600601600083815260200190815260200160002080548060200260200160405190810160405280929190818152602001828054801561241957602002820191906000526020600020905b8160009054906101000a900473ffffffffffffffffffffffffffffffffffffffff1673ffffffffffffffffffffffffffffffffffffffff16815260200190600101908083116123cf575b5050505050905092915050565b8280546124329061309e565b90600052602060002090601f016020900481019282612454576000855561249b565b82601f1061246d57805160ff191683800117855561249b565b8280016001018555821561249b579182015b8281111561249a57825182559160200191906001019061247f565b5b5090506124a891906124f1565b5090565b6040518060a00160405280600073ffffffffffffffffffffffffffffffffffffffff168152602001600081526020016000815260200160008152602001606081525090565b5b8082111561250a5760008160009055506001016124f2565b5090565b600061252161251c84612e5b565b612e2a565b90508281526020810184848401111561253957600080fd5b61254484828561305c565b509392505050565b60008135905061255b8161319d565b92915050565b600081359050612570816131b4565b92915050565b600082601f83011261258757600080fd5b813561259784826020860161250e565b91505092915050565b6000813590506125af816131cb565b92915050565b6000602082840312156125c757600080fd5b60006125d58482850161254c565b91505092915050565b60008060008060008060c087890312156125f757600080fd5b600061260589828a0161254c565b965050602061261689828a016125a0565b955050604061262789828a016125a0565b945050606061263889828a016125a0565b935050608061264989828a016125a0565b92505060a087013567ffffffffffffffff81111561266657600080fd5b61267289828a01612576565b9150509295509295509295565b600080600080600080600060e0888a03121561269a57600080fd5b60006126a88a828b0161254c565b97505060206126b98a828b016125a0565b96505060406126ca8a828b016125a0565b95505060606126db8a828b016125a0565b94505060806126ec8a828b016125a0565b93505060a088013567ffffffffffffffff81111561270957600080fd5b6127158a828b01612576565b92505060c06127268a828b01612561565b91505092959891949750929550565b60006020828403121561274757600080fd5b600082013567ffffffffffffffff81111561276157600080fd5b61276d84828501612576565b91505092915050565b60006020828403121561278857600080fd5b6000612796848285016125a0565b91505092915050565b600080604083850312156127b257600080fd5b60006127c0858286016125a0565b92505060206127d185828601612561565b9150509250929050565b600080604083850312156127ee57600080fd5b60006127fc858286016125a0565b925050602061280d858286016125a0565b9150509250929050565b60008060006060848603121561282c57600080fd5b600061283a868287016125a0565b935050602061284b868287016125a0565b925050604061285c868287016125a0565b9150509250925092565b60006128728383612892565b60208301905092915050565b600061288a8383612b39565b905092915050565b61289b81613016565b82525050565b60006128ac82612eab565b6128b68185612ee6565b93506128c183612e8b565b8060005b838110156128f25781516128d98882612866565b97506128e483612ecc565b9250506001810190506128c5565b5085935050505092915050565b600061290a82612eb6565b6129148185612ef7565b93508360208202850161292685612e9b565b8060005b858110156129625784840389528151612943858261287e565b945061294e83612ed9565b925060208a0199505060018101905061292a565b50829750879550505050505092915050565b61297d81613028565b82525050565b600061298e82612ec1565b6129988185612f08565b93506129a881856020860161306b565b6129b18161318c565b840191505092915050565b60006129c782612ec1565b6129d18185612f2a565b93506129e181856020860161306b565b80840191505092915050565b60006129fa603383612f19565b91507f596f75206d75737420626574206f6e2061207465616d2074686174206973207060008301527f6c6179696e6720696e20746869732067616d65000000000000000000000000006020830152604082019050919050565b6000612a60602283612f19565b91507f596f75206d757374206265742066726f6d20796f7572206f776e20616464726560008301527f73730000000000000000000000000000000000000000000000000000000000006020830152604082019050919050565b6000612ac6601683612f19565b91507f596f75206d7573742062657420736f6d657468696e67000000000000000000006000830152602082019050919050565b6000612b06601583612f19565b91507f596f7520617265206e6f74207468652061646d696e00000000000000000000006000830152602082019050919050565b600060a083016000830151612b516000860182612892565b506020830151612b646020860182612c25565b506040830151612b776040860182612c25565b506060830151612b8a6060860182612c25565b5060808301518482036080860152612ba28282612983565b9150508091505092915050565b600060a083016000830151612bc76000860182612892565b506020830151612bda6020860182612c25565b506040830151612bed6040860182612c25565b506060830151612c006060860182612c25565b5060808301518482036080860152612c188282612983565b9150508091505092915050565b612c2e81613052565b82525050565b612c3d81613052565b82525050565b6000612c4f82846129bc565b915081905092915050565b60006020820190508181036000830152612c7481846128a1565b905092915050565b60006020820190508181036000830152612c9681846128ff565b905092915050565b6000602082019050612cb36000830184612974565b92915050565b60006020820190508181036000830152612cd2816129ed565b9050919050565b60006020820190508181036000830152612cf281612a53565b9050919050565b60006020820190508181036000830152612d1281612ab9565b9050919050565b60006020820190508181036000830152612d3281612af9565b9050919050565b60006020820190508181036000830152612d538184612baf565b905092915050565b6000602082019050612d706000830184612c34565b92915050565b600060a082019050612d8b6000830188612c34565b612d986020830187612c34565b612da56040830186612c34565b612db26060830185612c34565b612dbf6080830184612c34565b9695505050505050565b600060c082019050612dde6000830189612c34565b612deb6020830188612c34565b612df86040830187612c34565b612e056060830186612c34565b612e126080830185612c34565b612e1f60a0830184612974565b979650505050505050565b6000604051905081810181811067ffffffffffffffff82111715612e5157612e5061315d565b5b8060405250919050565b600067ffffffffffffffff821115612e7657612e7561315d565b5b601f19601f8301169050602081019050919050565b6000819050602082019050919050565b6000819050602082019050919050565b600081519050919050565b600081519050919050565b600081519050919050565b6000602082019050919050565b6000602082019050919050565b600082825260208201905092915050565b600082825260208201905092915050565b600082825260208201905092915050565b600082825260208201905092915050565b600081905092915050565b6000612f4082613052565b9150612f4b83613052565b9250827fffffffffffffffffffffffffffffffffffffffffffffffffffffffffffffffff03821115612f8057612f7f6130d0565b5b828201905092915050565b6000612f9682613052565b9150612fa183613052565b925082612fb157612fb06130ff565b5b828204905092915050565b6000612fc782613052565b9150612fd283613052565b9250817fffffffffffffffffffffffffffffffffffffffffffffffffffffffffffffffff048311821515161561300b5761300a6130d0565b5b828202905092915050565b600061302182613032565b9050919050565b6000819050919050565b600073ffffffffffffffffffffffffffffffffffffffff82169050919050565b6000819050919050565b82818337600083830152505050565b60005b8381101561308957808201518184015260208101905061306e565b83811115613098576000848401525b50505050565b600060028204905060018216806130b657607f821691505b602082108114156130ca576130c961312e565b5b50919050565b7f4e487b7100000000000000000000000000000000000000000000000000000000600052601160045260246000fd5b7f4e487b7100000000000000000000000000000000000000000000000000000000600052601260045260246000fd5b7f4e487b7100000000000000000000000000000000000000000000000000000000600052602260045260246000fd5b7f4e487b7100000000000000000000000000000000000000000000000000000000600052604160045260246000fd5b6000601f19601f8301169050919050565b6131a681613016565b81146131b157600080fd5b50565b6131bd81613028565b81146131c857600080fd5b50565b6131d481613052565b81146131df57600080fd5b5056fea264697066735822122078e43f8b031b4cc3b10a34d053a95f6550681db742ef7db7bb7d80cf5aafcd6164736f6c63430008000033",
  "linkReferences": {},
  "deployedLinkReferences": {}
}