{
  "_format": "hh-sol-artifact-1",
  "contractName": "Bet",
  "sourceName": "contracts/Bet.sol",
  "abi": [
    {
      "inputs": [
        {
          "internalType": "string",
          "name": "_moneyLineFunctionHash",
          "type": "string"
        },
        {
          "internalType": "string",
          "name": "_pointSpreadFunctionHash",
          "type": "string"
        },
        {
          "internalType": "string",
          "name": "_pointTotalFunctionHash",
          "type": "string"
        }
      ],
      "stateMutability": "nonpayable",
      "type": "constructor"
    },
    {
      "inputs": [],
      "name": "automate",
      "outputs": [
        {
          "internalType": "contract IAutomate",
          "name": "",
          "type": "address"
        }
      ],
      "stateMutability": "view",
      "type": "function"
    },
    {
      "inputs": [
        {
          "internalType": "address",
          "name": "user",
          "type": "address"
        }
      ],
      "name": "blockUser",
      "outputs": [],
      "stateMutability": "nonpayable",
      "type": "function"
    },
    {
      "inputs": [
        {
          "internalType": "uint256",
          "name": "",
          "type": "uint256"
        }
      ],
      "name": "blockedUsers",
      "outputs": [
        {
          "internalType": "address",
          "name": "",
          "type": "address"
        }
      ],
      "stateMutability": "view",
      "type": "function"
    },
    {
      "inputs": [
        {
          "internalType": "address",
          "name": "user",
          "type": "address"
        }
      ],
      "name": "checkSender",
      "outputs": [
        {
          "internalType": "bool",
          "name": "",
          "type": "bool"
        }
      ],
      "stateMutability": "view",
      "type": "function"
    },
    {
      "inputs": [],
      "name": "dedicatedMsgSender",
      "outputs": [
        {
          "internalType": "address",
          "name": "",
          "type": "address"
        }
      ],
      "stateMutability": "view",
      "type": "function"
    },
    {
      "inputs": [],
      "name": "fundsOwner",
      "outputs": [
        {
          "internalType": "address",
          "name": "",
          "type": "address"
        }
      ],
      "stateMutability": "view",
      "type": "function"
    },
    {
      "inputs": [],
      "name": "gelato1Balance",
      "outputs": [
        {
          "internalType": "contract IGelato1Balance",
          "name": "",
          "type": "address"
        }
      ],
      "stateMutability": "view",
      "type": "function"
    },
    {
      "inputs": [
        {
          "internalType": "uint256",
          "name": "gameID",
          "type": "uint256"
        },
        {
          "internalType": "uint256",
          "name": "teamID",
          "type": "uint256"
        },
        {
          "internalType": "uint256",
          "name": "homeTeamID",
          "type": "uint256"
        },
        {
          "internalType": "uint256",
          "name": "awayTeamID",
          "type": "uint256"
        },
        {
          "internalType": "uint256",
          "name": "startTime",
          "type": "uint256"
        }
      ],
      "name": "moneyLineBet",
      "outputs": [],
      "stateMutability": "payable",
      "type": "function"
    },
    {
      "inputs": [
        {
          "internalType": "uint256",
          "name": "",
          "type": "uint256"
        }
      ],
      "name": "newMoneyLineBet",
      "outputs": [
        {
          "internalType": "uint256",
          "name": "total",
          "type": "uint256"
        },
        {
          "internalType": "uint256",
          "name": "homeTeamID",
          "type": "uint256"
        },
        {
          "internalType": "uint256",
          "name": "awayTeamID",
          "type": "uint256"
        },
        {
          "internalType": "bytes32",
          "name": "taskID",
          "type": "bytes32"
        }
      ],
      "stateMutability": "view",
      "type": "function"
    },
    {
      "inputs": [
        {
          "internalType": "uint256",
          "name": "",
          "type": "uint256"
        }
      ],
      "name": "newPointSpreadBet",
      "outputs": [
        {
          "internalType": "uint256",
          "name": "total",
          "type": "uint256"
        },
        {
          "internalType": "uint256",
          "name": "homeTeamID",
          "type": "uint256"
        },
        {
          "internalType": "uint256",
          "name": "awayTeamID",
          "type": "uint256"
        },
        {
          "internalType": "bytes32",
          "name": "taskID",
          "type": "bytes32"
        }
      ],
      "stateMutability": "view",
      "type": "function"
    },
    {
      "inputs": [
        {
          "internalType": "uint256",
          "name": "",
          "type": "uint256"
        }
      ],
      "name": "newPointTotalBet",
      "outputs": [
        {
          "internalType": "uint256",
          "name": "total",
          "type": "uint256"
        },
        {
          "internalType": "uint256",
          "name": "homeTeamID",
          "type": "uint256"
        },
        {
          "internalType": "uint256",
          "name": "awayTeamID",
          "type": "uint256"
        },
        {
          "internalType": "bytes32",
          "name": "taskID",
          "type": "bytes32"
        }
      ],
      "stateMutability": "view",
      "type": "function"
    },
    {
      "inputs": [
        {
          "internalType": "uint256",
          "name": "gameID",
          "type": "uint256"
        },
        {
          "internalType": "uint256",
          "name": "teamID",
          "type": "uint256"
        },
        {
          "internalType": "uint256",
          "name": "homeTeamID",
          "type": "uint256"
        },
        {
          "internalType": "uint256",
          "name": "awayTeamID",
          "type": "uint256"
        },
        {
          "internalType": "int256",
          "name": "spread",
          "type": "int256"
        },
        {
          "internalType": "uint256",
          "name": "startTime",
          "type": "uint256"
        }
      ],
      "name": "pointSpreadBet",
      "outputs": [],
      "stateMutability": "payable",
      "type": "function"
    },
    {
      "inputs": [
        {
          "internalType": "uint256",
          "name": "gameID",
          "type": "uint256"
        },
        {
          "internalType": "uint256",
          "name": "overUnder",
          "type": "uint256"
        },
        {
          "internalType": "uint256",
          "name": "homeTeamID",
          "type": "uint256"
        },
        {
          "internalType": "uint256",
          "name": "awayTeamID",
          "type": "uint256"
        },
        {
          "internalType": "uint256",
          "name": "pointAmount",
          "type": "uint256"
        },
        {
          "internalType": "uint256",
          "name": "startTime",
          "type": "uint256"
        }
      ],
      "name": "pointTotalBet",
      "outputs": [],
      "stateMutability": "payable",
      "type": "function"
    },
    {
      "inputs": [],
      "name": "returnEscrow",
      "outputs": [
        {
          "internalType": "uint256",
          "name": "data",
          "type": "uint256"
        }
      ],
      "stateMutability": "view",
      "type": "function"
    },
    {
      "inputs": [
        {
          "internalType": "uint256",
          "name": "gameID",
          "type": "uint256"
        },
        {
          "internalType": "uint256",
          "name": "teamID",
          "type": "uint256"
        }
      ],
      "name": "returnMoneyLineBetReceipt",
      "outputs": [
        {
          "components": [
            {
              "internalType": "address",
              "name": "addr",
              "type": "address"
            },
            {
              "internalType": "uint256",
              "name": "amount",
              "type": "uint256"
            },
            {
              "internalType": "uint256",
              "name": "teamID",
              "type": "uint256"
            },
            {
              "internalType": "uint256",
              "name": "gameID",
              "type": "uint256"
            },
            {
              "internalType": "string",
              "name": "betType",
              "type": "string"
            },
            {
              "internalType": "uint256",
              "name": "time",
              "type": "uint256"
            },
            {
              "internalType": "bool",
              "name": "active",
              "type": "bool"
            }
          ],
          "internalType": "struct Bet.Transaction",
          "name": "data",
          "type": "tuple"
        }
      ],
      "stateMutability": "view",
      "type": "function"
    },
    {
      "inputs": [
        {
          "internalType": "uint256",
          "name": "gameID",
          "type": "uint256"
        },
        {
          "internalType": "uint256",
          "name": "teamID",
          "type": "uint256"
        }
      ],
      "name": "returnMoneyLineBetTotal",
      "outputs": [
        {
          "internalType": "uint256",
          "name": "data",
          "type": "uint256"
        }
      ],
      "stateMutability": "view",
      "type": "function"
    },
    {
      "inputs": [
        {
          "internalType": "uint256",
          "name": "gameID",
          "type": "uint256"
        },
        {
          "internalType": "uint256",
          "name": "bettingTeamID",
          "type": "uint256"
        }
      ],
      "name": "returnOdds",
      "outputs": [
        {
          "internalType": "uint256",
          "name": "odds",
          "type": "uint256"
        }
      ],
      "stateMutability": "view",
      "type": "function"
    },
    {
      "inputs": [
        {
          "internalType": "uint256",
          "name": "gameID",
          "type": "uint256"
        }
      ],
      "name": "returnPointSpreadBetReceipt",
      "outputs": [
        {
          "components": [
            {
              "internalType": "address",
              "name": "addr",
              "type": "address"
            },
            {
              "internalType": "uint256",
              "name": "amount",
              "type": "uint256"
            },
            {
              "internalType": "uint256",
              "name": "teamID",
              "type": "uint256"
            },
            {
              "internalType": "uint256",
              "name": "gameID",
              "type": "uint256"
            },
            {
              "internalType": "string",
              "name": "betType",
              "type": "string"
            },
            {
              "internalType": "uint256",
              "name": "time",
              "type": "uint256"
            },
            {
              "internalType": "bool",
              "name": "active",
              "type": "bool"
            }
          ],
          "internalType": "struct Bet.Transaction",
          "name": "data",
          "type": "tuple"
        }
      ],
      "stateMutability": "view",
      "type": "function"
    },
    {
      "inputs": [
        {
          "internalType": "uint256",
          "name": "gameID",
          "type": "uint256"
        },
        {
          "internalType": "uint256",
          "name": "teamID",
          "type": "uint256"
        }
      ],
      "name": "returnPointSpreadBetTotal",
      "outputs": [
        {
          "internalType": "uint256",
          "name": "data",
          "type": "uint256"
        }
      ],
      "stateMutability": "view",
      "type": "function"
    },
    {
      "inputs": [
        {
          "internalType": "uint256",
          "name": "gameID",
          "type": "uint256"
        }
      ],
      "name": "returnPointTotalBetReceipt",
      "outputs": [
        {
          "components": [
            {
              "internalType": "address",
              "name": "addr",
              "type": "address"
            },
            {
              "internalType": "uint256",
              "name": "amount",
              "type": "uint256"
            },
            {
              "internalType": "uint256",
              "name": "teamID",
              "type": "uint256"
            },
            {
              "internalType": "uint256",
              "name": "gameID",
              "type": "uint256"
            },
            {
              "internalType": "string",
              "name": "betType",
              "type": "string"
            },
            {
              "internalType": "uint256",
              "name": "time",
              "type": "uint256"
            },
            {
              "internalType": "bool",
              "name": "active",
              "type": "bool"
            }
          ],
          "internalType": "struct Bet.Transaction",
          "name": "data",
          "type": "tuple"
        }
      ],
      "stateMutability": "view",
      "type": "function"
    },
    {
      "inputs": [
        {
          "internalType": "uint256",
          "name": "gameID",
          "type": "uint256"
        }
      ],
      "name": "returnPointTotalBetTotal",
      "outputs": [
        {
          "internalType": "uint256",
          "name": "data",
          "type": "uint256"
        }
      ],
      "stateMutability": "view",
      "type": "function"
    },
    {
      "inputs": [],
      "name": "returnReceipts",
      "outputs": [
        {
          "components": [
            {
              "internalType": "address",
              "name": "addr",
              "type": "address"
            },
            {
              "internalType": "uint256",
              "name": "amount",
              "type": "uint256"
            },
            {
              "internalType": "uint256",
              "name": "teamID",
              "type": "uint256"
            },
            {
              "internalType": "uint256",
              "name": "gameID",
              "type": "uint256"
            },
            {
              "internalType": "string",
              "name": "betType",
              "type": "string"
            },
            {
              "internalType": "uint256",
              "name": "time",
              "type": "uint256"
            },
            {
              "internalType": "bool",
              "name": "active",
              "type": "bool"
            }
          ],
          "internalType": "struct Bet.Transaction[]",
          "name": "data",
          "type": "tuple[]"
        }
      ],
      "stateMutability": "view",
      "type": "function"
    },
    {
      "inputs": [
        {
          "internalType": "uint256",
          "name": "gameID",
          "type": "uint256"
        },
        {
          "internalType": "uint256",
          "name": "winnerID",
          "type": "uint256"
        },
        {
          "internalType": "uint256",
          "name": "loserID",
          "type": "uint256"
        }
      ],
      "name": "rewardMoneyLineWinners",
      "outputs": [],
      "stateMutability": "nonpayable",
      "type": "function"
    },
    {
      "inputs": [
        {
          "internalType": "uint256",
          "name": "gameID",
          "type": "uint256"
        },
        {
          "internalType": "int256",
          "name": "homeScore",
          "type": "int256"
        },
        {
          "internalType": "int256",
          "name": "awayScore",
          "type": "int256"
        },
        {
          "internalType": "uint256",
          "name": "homeTeamID",
          "type": "uint256"
        },
        {
          "internalType": "uint256",
          "name": "awayTeamID",
          "type": "uint256"
        }
      ],
      "name": "rewardPointSpreadWinners",
      "outputs": [],
      "stateMutability": "nonpayable",
      "type": "function"
    },
    {
      "inputs": [
        {
          "internalType": "uint256",
          "name": "gameID",
          "type": "uint256"
        },
        {
          "internalType": "uint256",
          "name": "total",
          "type": "uint256"
        }
      ],
      "name": "rewardPointTotalWinners",
      "outputs": [],
      "stateMutability": "nonpayable",
      "type": "function"
    },
    {
      "inputs": [
        {
          "internalType": "uint256",
          "name": "",
          "type": "uint256"
        }
      ],
      "name": "totalBetOnGame",
      "outputs": [
        {
          "internalType": "uint256",
          "name": "",
          "type": "uint256"
        }
      ],
      "stateMutability": "view",
      "type": "function"
    },
    {
      "inputs": [
        {
          "internalType": "uint256",
          "name": "",
          "type": "uint256"
        },
        {
          "internalType": "uint256",
          "name": "",
          "type": "uint256"
        }
      ],
      "name": "totalBetOnTeam",
      "outputs": [
        {
          "internalType": "uint256",
          "name": "",
          "type": "uint256"
        }
      ],
      "stateMutability": "view",
      "type": "function"
    },
    {
      "inputs": [
        {
          "internalType": "address",
          "name": "",
          "type": "address"
        }
      ],
      "name": "userReceipts",
      "outputs": [
        {
          "internalType": "uint256",
          "name": "escrow",
          "type": "uint256"
        }
      ],
      "stateMutability": "view",
      "type": "function"
    }
  ],
  "bytecode": "0x6101006040523480156200001257600080fd5b506040516200690f3803806200690f833981810160405281019062000038919062000522565b732a6c106ae13b558bb9e2ec64bd2f1f7beff3a5e03081308173ffffffffffffffffffffffffffffffffffffffff1660808173ffffffffffffffffffffffffffffffffffffffff16815250508173ffffffffffffffffffffffffffffffffffffffff1663573ea5756040518163ffffffff1660e01b8152600401602060405180830381865afa158015620000d0573d6000803e3d6000fd5b505050506040513d601f19601f82011682018060405250810190620000f6919062000640565b73ffffffffffffffffffffffffffffffffffffffff1660c08173ffffffffffffffffffffffffffffffffffffffff168152505060008273ffffffffffffffffffffffffffffffffffffffff1663cd3d4fb960026040518263ffffffff1660e01b8152600401620001679190620006f2565b602060405180830381865afa15801562000185573d6000803e3d6000fd5b505050506040513d601f19601f82011682018060405250810190620001ab919062000754565b905060008173ffffffffffffffffffffffffffffffffffffffff1663ba1d0ff46040518163ffffffff1660e01b8152600401602060405180830381865afa158015620001fb573d6000803e3d6000fd5b505050506040513d601f19601f8201168201806040525081019062000221919062000754565b90508073ffffffffffffffffffffffffffffffffffffffff1663ded89a7c846040518263ffffffff1660e01b81526004016200025e919062000797565b6040805180830381865afa1580156200027b573d6000803e3d6000fd5b505050506040513d601f19601f82011682018060405250810190620002a19190620007f1565b508073ffffffffffffffffffffffffffffffffffffffff1660a09073ffffffffffffffffffffffffffffffffffffffff1681525050505050508073ffffffffffffffffffffffffffffffffffffffff1660e08173ffffffffffffffffffffffffffffffffffffffff16815250505050336000806101000a81548173ffffffffffffffffffffffffffffffffffffffff021916908373ffffffffffffffffffffffffffffffffffffffff160217905550826001908162000361919062000a83565b50816002908162000373919062000a83565b50806003908162000385919062000a83565b5050505062000b6a565b6000604051905090565b600080fd5b600080fd5b600080fd5b600080fd5b6000601f19601f8301169050919050565b7f4e487b7100000000000000000000000000000000000000000000000000000000600052604160045260246000fd5b620003f882620003ad565b810181811067ffffffffffffffff821117156200041a5762000419620003be565b5b80604052505050565b60006200042f6200038f565b90506200043d8282620003ed565b919050565b600067ffffffffffffffff82111562000460576200045f620003be565b5b6200046b82620003ad565b9050602081019050919050565b60005b83811015620004985780820151818401526020810190506200047b565b60008484015250505050565b6000620004bb620004b58462000442565b62000423565b905082815260208101848484011115620004da57620004d9620003a8565b5b620004e784828562000478565b509392505050565b600082601f830112620005075762000506620003a3565b5b815162000519848260208601620004a4565b91505092915050565b6000806000606084860312156200053e576200053d62000399565b5b600084015167ffffffffffffffff8111156200055f576200055e6200039e565b5b6200056d86828701620004ef565b935050602084015167ffffffffffffffff8111156200059157620005906200039e565b5b6200059f86828701620004ef565b925050604084015167ffffffffffffffff811115620005c357620005c26200039e565b5b620005d186828701620004ef565b9150509250925092565b600073ffffffffffffffffffffffffffffffffffffffff82169050919050565b60006200060882620005db565b9050919050565b6200061a81620005fb565b81146200062657600080fd5b50565b6000815190506200063a816200060f565b92915050565b60006020828403121562000659576200065862000399565b5b6000620006698482850162000629565b91505092915050565b7f4e487b7100000000000000000000000000000000000000000000000000000000600052602160045260246000fd5b60058110620006b557620006b462000672565b5b50565b6000819050620006c882620006a1565b919050565b6000620006da82620006b8565b9050919050565b620006ec81620006cd565b82525050565b6000602082019050620007096000830184620006e1565b92915050565b60006200071c82620005db565b9050919050565b6200072e816200070f565b81146200073a57600080fd5b50565b6000815190506200074e8162000723565b92915050565b6000602082840312156200076d576200076c62000399565b5b60006200077d848285016200073d565b91505092915050565b62000791816200070f565b82525050565b6000602082019050620007ae600083018462000786565b92915050565b60008115159050919050565b620007cb81620007b4565b8114620007d757600080fd5b50565b600081519050620007eb81620007c0565b92915050565b600080604083850312156200080b576200080a62000399565b5b60006200081b858286016200073d565b92505060206200082e85828601620007da565b9150509250929050565b600081519050919050565b7f4e487b7100000000000000000000000000000000000000000000000000000000600052602260045260246000fd5b600060028204905060018216806200088b57607f821691505b602082108103620008a157620008a062000843565b5b50919050565b60008190508160005260206000209050919050565b60006020601f8301049050919050565b600082821b905092915050565b6000600883026200090b7fffffffffffffffffffffffffffffffffffffffffffffffffffffffffffffffff82620008cc565b620009178683620008cc565b95508019841693508086168417925050509392505050565b6000819050919050565b6000819050919050565b6000620009646200095e62000958846200092f565b62000939565b6200092f565b9050919050565b6000819050919050565b620009808362000943565b620009986200098f826200096b565b848454620008d9565b825550505050565b600090565b620009af620009a0565b620009bc81848462000975565b505050565b5b81811015620009e457620009d8600082620009a5565b600181019050620009c2565b5050565b601f82111562000a3357620009fd81620008a7565b62000a0884620008bc565b8101602085101562000a18578190505b62000a3062000a2785620008bc565b830182620009c1565b50505b505050565b600082821c905092915050565b600062000a586000198460080262000a38565b1980831691505092915050565b600062000a73838362000a45565b9150826002028217905092915050565b62000a8e8262000838565b67ffffffffffffffff81111562000aaa5762000aa9620003be565b5b62000ab6825462000872565b62000ac3828285620009e8565b600060209050601f83116001811462000afb576000841562000ae6578287015190505b62000af2858262000a65565b86555062000b62565b601f19841662000b0b86620008a7565b60005b8281101562000b355784890151825560018201915060208501945060208101905062000b0e565b8683101562000b55578489015162000b51601f89168262000a45565b8355505b6001600288020188555050505b505050505050565b60805160a05160c05160e051615d4b62000bc460003960006112800152600050506000818161079301528181610faf01528181611e3f0152613279015260008181610e95015281816143a401526144a40152615d4b6000f3fe6080604052600436106101b75760003560e01c8063753dc3b8116100ec578063a91faba21161008a578063ec5a24d711610064578063ec5a24d71461067f578063f12b2a8b146106bc578063f227ce4d146106d8578063f782a75414610715576101b7565b8063a91faba2146105fa578063b1a374dd1461063a578063ce914f7314610656576101b7565b80638ee95f9f116100c65780638ee95f9f1461051a578063914989fd14610543578063a4786f3d14610580578063a910e4a5146105bd576101b7565b8063753dc3b8146104935780637ea4178a146104af5780638edd3971146104da576101b7565b80632b3a4ef61161015957806346ee3c591161013357806346ee3c59146103c357806347f53fc9146103ee578063481042e21461042b57806357fb1d6714610468576101b7565b80632b3a4ef6146103325780633946f6661461036f5780633da013251461039a576101b7565b806308bc451e1161019557806308bc451e1461024d57806323821c211461028a5780632429827f146102c757806328f150eb14610307576101b7565b806302cba3c3146101bc57806303bfeb20146101f9578063049aacfe14610222575b600080fd5b3480156101c857600080fd5b506101e360048036038101906101de919061481a565b610752565b6040516101f09190614888565b60405180910390f35b34801561020557600080fd5b50610220600480360381019061021b91906148a3565b610791565b005b34801561022e57600080fd5b50610237610e93565b6040516102449190614955565b60405180910390f35b34801561025957600080fd5b50610274600480360381019061026f919061499c565b610eb7565b60405161028191906149e4565b60405180910390f35b34801561029657600080fd5b506102b160048036038101906102ac919061481a565b610f65565b6040516102be9190614a0e565b60405180910390f35b3480156102d357600080fd5b506102ee60048036038101906102e9919061481a565b610f7d565b6040516102fe9493929190614a42565b60405180910390f35b34801561031357600080fd5b5061031c610fad565b6040516103299190614888565b60405180910390f35b34801561033e57600080fd5b5061035960048036038101906103549190614a87565b610fd1565b6040516103669190614a0e565b60405180910390f35b34801561037b57600080fd5b50610384610ff6565b6040516103919190614ce2565b60405180910390f35b3480156103a657600080fd5b506103c160048036038101906103bc919061499c565b6111c0565b005b3480156103cf57600080fd5b506103d861127e565b6040516103e59190614888565b60405180910390f35b3480156103fa57600080fd5b5061041560048036038101906104109190614a87565b6112a2565b6040516104229190614a0e565b60405180910390f35b34801561043757600080fd5b50610452600480360381019061044d919061481a565b6112d4565b60405161045f9190614da0565b60405180910390f35b34801561047457600080fd5b5061047d61146c565b60405161048a9190614de3565b60405180910390f35b6104ad60048036038101906104a89190614dfe565b611484565b005b3480156104bb57600080fd5b506104c4611dc3565b6040516104d19190614a0e565b60405180910390f35b3480156104e657600080fd5b5061050160048036038101906104fc919061481a565b611e0d565b6040516105119493929190614a42565b60405180910390f35b34801561052657600080fd5b50610541600480360381019061053c9190614a87565b611e3d565b005b34801561054f57600080fd5b5061056a6004803603810190610565919061481a565b6125c4565b6040516105779190614da0565b60405180910390f35b34801561058c57600080fd5b506105a760048036038101906105a2919061499c565b61275c565b6040516105b49190614a0e565b60405180910390f35b3480156105c957600080fd5b506105e460048036038101906105df9190614a87565b61277a565b6040516105f19190614da0565b60405180910390f35b34801561060657600080fd5b50610621600480360381019061061c919061481a565b612924565b6040516106319493929190614a42565b60405180910390f35b610654600480360381019061064f9190614ec1565b612954565b005b34801561066257600080fd5b5061067d60048036038101906106789190614f4e565b613277565b005b34801561068b57600080fd5b506106a660048036038101906106a19190614a87565b6139e0565b6040516106b39190614a0e565b60405180910390f35b6106d660048036038101906106d19190614fc9565b613a12565b005b3480156106e457600080fd5b506106ff60048036038101906106fa9190614a87565b61431e565b60405161070c9190614a0e565b60405180910390f35b34801561072157600080fd5b5061073c6004803603810190610737919061481a565b614382565b6040516107499190614a0e565b60405180910390f35b6004818154811061076257600080fd5b906000526020600020016000915054906101000a900473ffffffffffffffffffffffffffffffffffffffff1681565b7f000000000000000000000000000000000000000000000000000000000000000073ffffffffffffffffffffffffffffffffffffffff163373ffffffffffffffffffffffffffffffffffffffff161461081f576040517f08c379a0000000000000000000000000000000000000000000000000000000008152600401610816906150a1565b60405180910390fd5b60005b60086000858152602001908152602001600020600401600084815260200190815260200160002080549050811015610ba9576000600860008681526020019081526020016000206004016000858152602001908152602001600020828154811061088f5761088e6150c1565b5b9060005260206000200160009054906101000a900473ffffffffffffffffffffffffffffffffffffffff169050600060086000878152602001908152602001600020600501600086815260200190815260200160002060008373ffffffffffffffffffffffffffffffffffffffff1673ffffffffffffffffffffffffffffffffffffffff16815260200190815260200160002060010154905060006008600088815260200190815260200160002060010160008781526020019081526020016000205460648361095f919061511f565b6109699190615190565b905061097483610eb7565b6109ed578273ffffffffffffffffffffffffffffffffffffffff166108fc606483600860008c8152602001908152602001600020600001546109b6919061511f565b6109c09190615190565b9081150290604051600060405180830381858888f193505050501580156109eb573d6000803e3d6000fd5b505b81600560008573ffffffffffffffffffffffffffffffffffffffff1673ffffffffffffffffffffffffffffffffffffffff1681526020019081526020016000206000016000828254610a3f91906151c1565b9250508190555060005b600560008573ffffffffffffffffffffffffffffffffffffffff1673ffffffffffffffffffffffffffffffffffffffff16815260200190815260200160002060010180549050811015610b92576000600560008673ffffffffffffffffffffffffffffffffffffffff1673ffffffffffffffffffffffffffffffffffffffff1681526020019081526020016000206001018281548110610aec57610aeb6150c1565b5b90600052602060002090600702019050888160030154148015610b5b5750604051602001610b199061524c565b6040516020818303038152906040528051906020012081600401604051602001610b439190615359565b60405160208183030381529060405280519060200120145b15610b7e5760008160060160006101000a81548160ff0219169083151502179055505b508080610b8a90615370565b915050610a49565b505050508080610ba190615370565b915050610822565b5060005b60086000858152602001908152602001600020600401600083815260200190815260200160002080549050811015610e6e5760006008600086815260200190815260200160002060040160008481526020019081526020016000208281548110610c1a57610c196150c1565b5b9060005260206000200160009054906101000a900473ffffffffffffffffffffffffffffffffffffffff169050600060086000878152602001908152602001600020600501600085815260200190815260200160002060008373ffffffffffffffffffffffffffffffffffffffff1673ffffffffffffffffffffffffffffffffffffffff16815260200190815260200160002060010154905080600560008473ffffffffffffffffffffffffffffffffffffffff1673ffffffffffffffffffffffffffffffffffffffff1681526020019081526020016000206000016000828254610d0591906151c1565b9250508190555060005b600560008473ffffffffffffffffffffffffffffffffffffffff1673ffffffffffffffffffffffffffffffffffffffff16815260200190815260200160002060010180549050811015610e58576000600560008573ffffffffffffffffffffffffffffffffffffffff1673ffffffffffffffffffffffffffffffffffffffff1681526020019081526020016000206001018281548110610db257610db16150c1565b5b90600052602060002090600702019050878160030154148015610e215750604051602001610ddf9061524c565b6040516020818303038152906040528051906020012081600401604051602001610e099190615359565b60405160208183030381529060405280519060200120145b15610e445760008160060160006101000a81548160ff0219169083151502179055505b508080610e5090615370565b915050610d0f565b5050508080610e6690615370565b915050610bad565b50610e8e60086000858152602001908152602001600020600601546143a2565b505050565b7f000000000000000000000000000000000000000000000000000000000000000081565b600080600090505b600480549050811015610f5a578273ffffffffffffffffffffffffffffffffffffffff1660048281548110610ef757610ef66150c1565b5b9060005260206000200160009054906101000a900473ffffffffffffffffffffffffffffffffffffffff1673ffffffffffffffffffffffffffffffffffffffff1603610f47576001915050610f60565b8080610f5290615370565b915050610ebf565b50600090505b919050565b60066020528060005260406000206000915090505481565b60096020528060005260406000206000915090508060010154908060030154908060040154908060070154905084565b7f000000000000000000000000000000000000000000000000000000000000000081565b6007602052816000526040600020602052806000526040600020600091509150505481565b6060600560003373ffffffffffffffffffffffffffffffffffffffff1673ffffffffffffffffffffffffffffffffffffffff168152602001908152602001600020600101805480602002602001604051908101604052809291908181526020016000905b828210156111b757838290600052602060002090600702016040518060e00160405290816000820160009054906101000a900473ffffffffffffffffffffffffffffffffffffffff1673ffffffffffffffffffffffffffffffffffffffff1673ffffffffffffffffffffffffffffffffffffffff16815260200160018201548152602001600282015481526020016003820154815260200160048201805461110190615290565b80601f016020809104026020016040519081016040528092919081815260200182805461112d90615290565b801561117a5780601f1061114f5761010080835404028352916020019161117a565b820191906000526020600020905b81548152906001019060200180831161115d57829003601f168201915b50505050508152602001600582015481526020016006820160009054906101000a900460ff1615151515815250508152602001906001019061105a565b50505050905090565b60008054906101000a900473ffffffffffffffffffffffffffffffffffffffff1673ffffffffffffffffffffffffffffffffffffffff163373ffffffffffffffffffffffffffffffffffffffff161461121857600080fd5b6004819080600181540180825580915050600190039060005260206000200160009091909190916101000a81548173ffffffffffffffffffffffffffffffffffffffff021916908373ffffffffffffffffffffffffffffffffffffffff16021790555050565b7f000000000000000000000000000000000000000000000000000000000000000081565b600060086000848152602001908152602001600020600101600083815260200190815260200160002054905092915050565b6112dc61478a565b6009600083815260200190815260200160002060060160003373ffffffffffffffffffffffffffffffffffffffff1673ffffffffffffffffffffffffffffffffffffffff1681526020019081526020016000206040518060e00160405290816000820160009054906101000a900473ffffffffffffffffffffffffffffffffffffffff1673ffffffffffffffffffffffffffffffffffffffff1673ffffffffffffffffffffffffffffffffffffffff1681526020016001820154815260200160028201548152602001600382015481526020016004820180546113be90615290565b80601f01602080910402602001604051908101604052809291908181526020018280546113ea90615290565b80156114375780601f1061140c57610100808354040283529160200191611437565b820191906000526020600020905b81548152906001019060200180831161141a57829003601f168201915b50505050508152602001600582015481526020016006820160009054906101000a900460ff1615151515815250509050919050565b737506c12a824d73d9b08564d5afc22c949434755e81565b3273ffffffffffffffffffffffffffffffffffffffff163373ffffffffffffffffffffffffffffffffffffffff16146114bc57600080fd5b8042106114c857600080fd5b6114d133610eb7565b156114db57600080fd5b3373ffffffffffffffffffffffffffffffffffffffff16600a600088815260200190815260200160002060050160003373ffffffffffffffffffffffffffffffffffffffff1673ffffffffffffffffffffffffffffffffffffffff16815260200190815260200160002060000160009054906101000a900473ffffffffffffffffffffffffffffffffffffffff1673ffffffffffffffffffffffffffffffffffffffff160361158957600080fd5b6000341161159657600080fd5b6000600a600088815260200190815260200160002090506000801916600a6000898152602001908152602001600020600601540361185e5760006040518060400160405280600267ffffffffffffffff8111156115f6576115f56153b8565b5b6040519080825280602002602001820160405280156116245781602001602082028036833780820191505090505b508152602001600267ffffffffffffffff811115611645576116446153b8565b5b60405190808252806020026020018201604052801561167857816020015b60608152602001906001900390816116635790505b50815250905060028160000151600081518110611698576116976150c1565b5b602002602001019060048111156116b2576116b16153e7565b5b908160048111156116c6576116c56153e7565b5b81525050600481600001516001815181106116e4576116e36150c1565b5b602002602001019060048111156116fe576116fd6153e7565b5b90816004811115611712576117116153e7565b5b8152505061171e614430565b8160200151600081518110611736576117356150c1565b5b60200260200101819052506117fe6003805461175190615290565b80601f016020809104026020016040519081016040528092919081815260200182805461177d90615290565b80156117ca5780601f1061179f576101008083540402835291602001916117ca565b820191906000526020600020905b8154815290600101906020018083116117ad57829003601f168201915b50505050506117d830614447565b8a6040516020016117ea92919061544f565b604051602081830303815290604052614474565b8160200151600181518110611816576118156150c1565b5b602002602001018190525061185430638ee95f9f60e01b60405160200161183d91906154ba565b6040516020818303038152906040528360006144a0565b8260060181905550505b6000606460053461186f919061511f565b6118799190615190565b90506000600560003373ffffffffffffffffffffffffffffffffffffffff1673ffffffffffffffffffffffffffffffffffffffff168152602001908152602001600020600101905060008360050160003373ffffffffffffffffffffffffffffffffffffffff1673ffffffffffffffffffffffffffffffffffffffff1681526020019081526020016000209050600084600401905060008054906101000a900473ffffffffffffffffffffffffffffffffffffffff1673ffffffffffffffffffffffffffffffffffffffff166108fc859081150290604051600060405180830381858888f19350505050158015611974573d6000803e3d6000fd5b50833461198191906151c1565b600560003373ffffffffffffffffffffffffffffffffffffffff1673ffffffffffffffffffffffffffffffffffffffff16815260200190815260200160002060000160008282546119d291906154d5565b92505081905550826040518060e001604052803373ffffffffffffffffffffffffffffffffffffffff1681526020018634611a0d91906151c1565b81526020018c81526020018d81526020016040518060400160405280600b81526020017f506f696e7420546f74616c000000000000000000000000000000000000000000815250815260200142815260200160011515815250908060018154018082558091505060019003906000526020600020906007020160009091909190915060008201518160000160006101000a81548173ffffffffffffffffffffffffffffffffffffffff021916908373ffffffffffffffffffffffffffffffffffffffff1602179055506020820151816001015560408201518160020155606082015181600301556080820151816004019081611b099190615696565b5060a0820151816005015560c08201518160060160006101000a81548160ff021916908315150217905550505034600660008d81526020019081526020016000206000828254611b5991906154d5565b92505081905550600234611b6d9190615190565b600760008d815260200190815260200160002060008b81526020019081526020016000206000828254611ba091906154d5565b92505081905550600234611bb49190615190565b600760008d815260200190815260200160002060008a81526020019081526020016000206000828254611be791906154d5565b925050819055508334611bfa91906151c1565b856001016000828254611c0d91906154d5565b92505081905550888560020181905550878560030181905550868560000160003373ffffffffffffffffffffffffffffffffffffffff1673ffffffffffffffffffffffffffffffffffffffff1681526020019081526020016000208190555080339080600181540180825580915050600190039060005260206000200160009091909190916101000a81548173ffffffffffffffffffffffffffffffffffffffff021916908373ffffffffffffffffffffffffffffffffffffffff160217905550338260000160006101000a81548173ffffffffffffffffffffffffffffffffffffffff021916908373ffffffffffffffffffffffffffffffffffffffff1602179055508334611d1d91906151c1565b826001016000828254611d3091906154d5565b925050819055508982600201819055508a82600301819055506040518060400160405280600b81526020017f506f696e7420546f74616c000000000000000000000000000000000000000000815250826004019081611d8f9190615696565b5042826005018190555060018260060160006101000a81548160ff0219169083151502179055505050505050505050505050565b6000600560003373ffffffffffffffffffffffffffffffffffffffff1673ffffffffffffffffffffffffffffffffffffffff16815260200190815260200160002060000154905090565b60086020528060005260406000206000915090508060000154908060020154908060030154908060060154905084565b7f000000000000000000000000000000000000000000000000000000000000000073ffffffffffffffffffffffffffffffffffffffff163373ffffffffffffffffffffffffffffffffffffffff1614611ecb576040517f08c379a0000000000000000000000000000000000000000000000000000000008152600401611ec2906150a1565b60405180910390fd5b6000600a600084815260200190815260200160002060070190506000805b600a600086815260200190815260200160002060040180549050811015612414576000600a60008781526020019081526020016000206004018281548110611f3457611f336150c1565b5b9060005260206000200160009054906101000a900473ffffffffffffffffffffffffffffffffffffffff1690506000600a600088815260200190815260200160002060050160008373ffffffffffffffffffffffffffffffffffffffff1673ffffffffffffffffffffffffffffffffffffffff1681526020019081526020016000206001015490506063600a600089815260200190815260200160002060050160008473ffffffffffffffffffffffffffffffffffffffff1673ffffffffffffffffffffffffffffffffffffffff168152602001908152602001600020600201541480156120805750600a600088815260200190815260200160002060000160008373ffffffffffffffffffffffffffffffffffffffff1673ffffffffffffffffffffffffffffffffffffffff16815260200190815260200160002054600a8761207e919061511f565b105b8015612092575061209082610eb7565b155b1561210c5784829080600181540180825580915050600190039060005260206000200160009091909190916101000a81548173ffffffffffffffffffffffffffffffffffffffff021916908373ffffffffffffffffffffffffffffffffffffffff160217905550808461210591906154d5565b9350612259565b6064600a600089815260200190815260200160002060050160008473ffffffffffffffffffffffffffffffffffffffff1673ffffffffffffffffffffffffffffffffffffffff168152602001908152602001600020600201541480156121d05750600a600088815260200190815260200160002060000160008373ffffffffffffffffffffffffffffffffffffffff1673ffffffffffffffffffffffffffffffffffffffff16815260200190815260200160002054600a876121ce919061511f565b115b80156121e257506121e082610eb7565b155b156122585784829080600181540180825580915050600190039060005260206000200160009091909190916101000a81548173ffffffffffffffffffffffffffffffffffffffff021916908373ffffffffffffffffffffffffffffffffffffffff160217905550808461225591906154d5565b93505b5b80600560008473ffffffffffffffffffffffffffffffffffffffff1673ffffffffffffffffffffffffffffffffffffffff16815260200190815260200160002060000160008282546122ab91906151c1565b9250508190555060005b600560008473ffffffffffffffffffffffffffffffffffffffff1673ffffffffffffffffffffffffffffffffffffffff168152602001908152602001600020600101805490508110156123fe576000600560008573ffffffffffffffffffffffffffffffffffffffff1673ffffffffffffffffffffffffffffffffffffffff1681526020019081526020016000206001018281548110612358576123576150c1565b5b906000526020600020906007020190508881600301541480156123c75750604051602001612385906157b4565b60405160208183030381529060405280519060200120816004016040516020016123af9190615359565b60405160208183030381529060405280519060200120145b156123ea5760008160060160006101000a81548160ff0219169083151502179055505b5080806123f690615370565b9150506122b5565b505050808061240c90615370565b915050611ee9565b5060005b828054905081101561259e576000600a60008781526020019081526020016000206005016000858481548110612451576124506150c1565b5b9060005260206000200160009054906101000a900473ffffffffffffffffffffffffffffffffffffffff1673ffffffffffffffffffffffffffffffffffffffff1673ffffffffffffffffffffffffffffffffffffffff1681526020019081526020016000206001015490506000836064836124cc919061511f565b6124d69190615190565b90508483815481106124eb576124ea6150c1565b5b9060005260206000200160009054906101000a900473ffffffffffffffffffffffffffffffffffffffff1673ffffffffffffffffffffffffffffffffffffffff166108fc606483600a60008c815260200190815260200160002060010154612553919061511f565b61255d9190615190565b9081150290604051600060405180830381858888f19350505050158015612588573d6000803e3d6000fd5b505050808061259690615370565b915050612418565b506125be600a6000868152602001908152602001600020600601546143a2565b50505050565b6125cc61478a565b600a600083815260200190815260200160002060050160003373ffffffffffffffffffffffffffffffffffffffff1673ffffffffffffffffffffffffffffffffffffffff1681526020019081526020016000206040518060e00160405290816000820160009054906101000a900473ffffffffffffffffffffffffffffffffffffffff1673ffffffffffffffffffffffffffffffffffffffff1673ffffffffffffffffffffffffffffffffffffffff1681526020016001820154815260200160028201548152602001600382015481526020016004820180546126ae90615290565b80601f01602080910402602001604051908101604052809291908181526020018280546126da90615290565b80156127275780601f106126fc57610100808354040283529160200191612727565b820191906000526020600020905b81548152906001019060200180831161270a57829003601f168201915b50505050508152602001600582015481526020016006820160009054906101000a900460ff1615151515815250509050919050565b60056020528060005260406000206000915090508060000154905081565b61278261478a565b60086000848152602001908152602001600020600501600083815260200190815260200160002060003373ffffffffffffffffffffffffffffffffffffffff1673ffffffffffffffffffffffffffffffffffffffff1681526020019081526020016000206040518060e00160405290816000820160009054906101000a900473ffffffffffffffffffffffffffffffffffffffff1673ffffffffffffffffffffffffffffffffffffffff1673ffffffffffffffffffffffffffffffffffffffff16815260200160018201548152602001600282015481526020016003820154815260200160048201805461287590615290565b80601f01602080910402602001604051908101604052809291908181526020018280546128a190615290565b80156128ee5780601f106128c3576101008083540402835291602001916128ee565b820191906000526020600020905b8154815290600101906020018083116128d157829003601f168201915b50505050508152602001600582015481526020016006820160009054906101000a900460ff161515151581525050905092915050565b600a6020528060005260406000206000915090508060010154908060020154908060030154908060060154905084565b3273ffffffffffffffffffffffffffffffffffffffff163373ffffffffffffffffffffffffffffffffffffffff161461298c57600080fd5b80421061299857600080fd5b6129a133610eb7565b156129ab57600080fd5b3373ffffffffffffffffffffffffffffffffffffffff166009600088815260200190815260200160002060060160003373ffffffffffffffffffffffffffffffffffffffff1673ffffffffffffffffffffffffffffffffffffffff16815260200190815260200160002060000160009054906101000a900473ffffffffffffffffffffffffffffffffffffffff1673ffffffffffffffffffffffffffffffffffffffff1603612a5957600080fd5b60003411612a6657600080fd5b60006009600088815260200190815260200160002090506000801916600960008981526020019081526020016000206007015403612d2e5760006040518060400160405280600267ffffffffffffffff811115612ac657612ac56153b8565b5b604051908082528060200260200182016040528015612af45781602001602082028036833780820191505090505b508152602001600267ffffffffffffffff811115612b1557612b146153b8565b5b604051908082528060200260200182016040528015612b4857816020015b6060815260200190600190039081612b335790505b50815250905060028160000151600081518110612b6857612b676150c1565b5b60200260200101906004811115612b8257612b816153e7565b5b90816004811115612b9657612b956153e7565b5b8152505060048160000151600181518110612bb457612bb36150c1565b5b60200260200101906004811115612bce57612bcd6153e7565b5b90816004811115612be257612be16153e7565b5b81525050612bee614430565b8160200151600081518110612c0657612c056150c1565b5b6020026020010181905250612cce60028054612c2190615290565b80601f0160208091040260200160405190810160405280929190818152602001828054612c4d90615290565b8015612c9a5780601f10612c6f57610100808354040283529160200191612c9a565b820191906000526020600020905b815481529060010190602001808311612c7d57829003601f168201915b5050505050612ca830614447565b8a604051602001612cba92919061544f565b604051602081830303815290604052614474565b8160200151600181518110612ce657612ce56150c1565b5b6020026020010181905250612d243063ce914f7360e01b604051602001612d0d91906154ba565b6040516020818303038152906040528360006144a0565b8260070181905550505b60006064600534612d3f919061511f565b612d499190615190565b90506000600560003373ffffffffffffffffffffffffffffffffffffffff1673ffffffffffffffffffffffffffffffffffffffff168152602001908152602001600020600101905060008360060160003373ffffffffffffffffffffffffffffffffffffffff1673ffffffffffffffffffffffffffffffffffffffff1681526020019081526020016000209050600084600501905060008054906101000a900473ffffffffffffffffffffffffffffffffffffffff1673ffffffffffffffffffffffffffffffffffffffff166108fc859081150290604051600060405180830381858888f19350505050158015612e44573d6000803e3d6000fd5b508334612e5191906151c1565b600560003373ffffffffffffffffffffffffffffffffffffffff1673ffffffffffffffffffffffffffffffffffffffff1681526020019081526020016000206000016000828254612ea291906154d5565b92505081905550826040518060e001604052803373ffffffffffffffffffffffffffffffffffffffff1681526020018634612edd91906151c1565b81526020018c81526020018d81526020016040518060400160405280600c81526020017f506f696e74205370726561640000000000000000000000000000000000000000815250815260200142815260200160011515815250908060018154018082558091505060019003906000526020600020906007020160009091909190915060008201518160000160006101000a81548173ffffffffffffffffffffffffffffffffffffffff021916908373ffffffffffffffffffffffffffffffffffffffff1602179055506020820151816001015560408201518160020155606082015181600301556080820151816004019081612fd99190615696565b5060a0820151816005015560c08201518160060160006101000a81548160ff021916908315150217905550505034600660008d8152602001908152602001600020600082825461302991906154d5565b9250508190555034600760008d815260200190815260200160002060008c8152602001908152602001600020600082825461306491906154d5565b92505081905550833461307791906151c1565b85600101600082825461308a91906154d5565b92505081905550833461309d91906151c1565b8560020160008c815260200190815260200160002060008282546130c191906154d5565b92505081905550888560030181905550878560040181905550868560000160003373ffffffffffffffffffffffffffffffffffffffff1673ffffffffffffffffffffffffffffffffffffffff1681526020019081526020016000208190555080339080600181540180825580915050600190039060005260206000200160009091909190916101000a81548173ffffffffffffffffffffffffffffffffffffffff021916908373ffffffffffffffffffffffffffffffffffffffff160217905550338260000160006101000a81548173ffffffffffffffffffffffffffffffffffffffff021916908373ffffffffffffffffffffffffffffffffffffffff16021790555083346131d191906151c1565b8260010160008282546131e491906154d5565b925050819055508982600201819055508a82600301819055506040518060400160405280600c81526020017f506f696e742053707265616400000000000000000000000000000000000000008152508260040190816132439190615696565b5042826005018190555060018260060160006101000a81548160ff0219169083151502179055505050505050505050505050565b7f000000000000000000000000000000000000000000000000000000000000000073ffffffffffffffffffffffffffffffffffffffff163373ffffffffffffffffffffffffffffffffffffffff1614613305576040517f08c379a00000000000000000000000000000000000000000000000000000000081526004016132fc906150a1565b60405180910390fd5b60006009600087815260200190815260200160002060080190506000805b600960008981526020019081526020016000206005018054905081101561382d576000600960008a8152602001908152602001600020600501828154811061336e5761336d6150c1565b5b9060005260206000200160009054906101000a900473ffffffffffffffffffffffffffffffffffffffff1690506000600960008b815260200190815260200160002060060160008373ffffffffffffffffffffffffffffffffffffffff1673ffffffffffffffffffffffffffffffffffffffff1681526020019081526020016000206001015490506000600960008c815260200190815260200160002060000160008473ffffffffffffffffffffffffffffffffffffffff1673ffffffffffffffffffffffffffffffffffffffff16815260200190815260200160002054905087600960008d815260200190815260200160002060060160008573ffffffffffffffffffffffffffffffffffffffff1673ffffffffffffffffffffffffffffffffffffffff168152602001908152602001600020600201541480156134d55750600a896134bb91906157c9565b81600a8c6134c991906157c9565b6134d39190615841565b135b80156134e757506134e583610eb7565b155b156135615785839080600181540180825580915050600190039060005260206000200160009091909190916101000a81548173ffffffffffffffffffffffffffffffffffffffff021916908373ffffffffffffffffffffffffffffffffffffffff160217905550818561355a91906154d5565b9450613671565b86600960008d815260200190815260200160002060060160008573ffffffffffffffffffffffffffffffffffffffff1673ffffffffffffffffffffffffffffffffffffffff168152602001908152602001600020600201541480156135e85750600a8a6135ce91906157c9565b81600a8b6135dc91906157c9565b6135e69190615841565b135b80156135fa57506135f883610eb7565b155b156136705785839080600181540180825580915050600190039060005260206000200160009091909190916101000a81548173ffffffffffffffffffffffffffffffffffffffff021916908373ffffffffffffffffffffffffffffffffffffffff160217905550818561366d91906154d5565b94505b5b81600560008573ffffffffffffffffffffffffffffffffffffffff1673ffffffffffffffffffffffffffffffffffffffff16815260200190815260200160002060000160008282546136c391906151c1565b9250508190555060005b600560008573ffffffffffffffffffffffffffffffffffffffff1673ffffffffffffffffffffffffffffffffffffffff16815260200190815260200160002060010180549050811015613816576000600560008673ffffffffffffffffffffffffffffffffffffffff1673ffffffffffffffffffffffffffffffffffffffff16815260200190815260200160002060010182815481106137705761376f6150c1565b5b906000526020600020906007020190508c81600301541480156137df575060405160200161379d906158d1565b60405160208183030381529060405280519060200120816004016040516020016137c79190615359565b60405160208183030381529060405280519060200120145b156138025760008160060160006101000a81548160ff0219169083151502179055505b50808061380e90615370565b9150506136cd565b50505050808061382590615370565b915050613323565b5060005b82805490508110156139b7576000600960008a8152602001908152602001600020600601600085848154811061386a576138696150c1565b5b9060005260206000200160009054906101000a900473ffffffffffffffffffffffffffffffffffffffff1673ffffffffffffffffffffffffffffffffffffffff1673ffffffffffffffffffffffffffffffffffffffff1681526020019081526020016000206001015490506000836064836138e5919061511f565b6138ef9190615190565b9050848381548110613904576139036150c1565b5b9060005260206000200160009054906101000a900473ffffffffffffffffffffffffffffffffffffffff1673ffffffffffffffffffffffffffffffffffffffff166108fc606483600960008f81526020019081526020016000206001015461396c919061511f565b6139769190615190565b9081150290604051600060405180830381858888f193505050501580156139a1573d6000803e3d6000fd5b50505080806139af90615370565b915050613831565b506139d760096000898152602001908152602001600020600701546143a2565b50505050505050565b600060096000848152602001908152602001600020600201600083815260200190815260200160002054905092915050565b3273ffffffffffffffffffffffffffffffffffffffff163373ffffffffffffffffffffffffffffffffffffffff1614613a4a57600080fd5b80600010613a5757600080fd5b613a6033610eb7565b15613a6a57600080fd5b60003411613a7757600080fd5b60006008600087815260200190815260200160002090506000801916600860008881526020019081526020016000206006015403613d3f5760006040518060400160405280600267ffffffffffffffff811115613ad757613ad66153b8565b5b604051908082528060200260200182016040528015613b055781602001602082028036833780820191505090505b508152602001600267ffffffffffffffff811115613b2657613b256153b8565b5b604051908082528060200260200182016040528015613b5957816020015b6060815260200190600190039081613b445790505b50815250905060028160000151600081518110613b7957613b786150c1565b5b60200260200101906004811115613b9357613b926153e7565b5b90816004811115613ba757613ba66153e7565b5b8152505060048160000151600181518110613bc557613bc46150c1565b5b60200260200101906004811115613bdf57613bde6153e7565b5b90816004811115613bf357613bf26153e7565b5b81525050613bff614430565b8160200151600081518110613c1757613c166150c1565b5b6020026020010181905250613cdf60018054613c3290615290565b80601f0160208091040260200160405190810160405280929190818152602001828054613c5e90615290565b8015613cab5780601f10613c8057610100808354040283529160200191613cab565b820191906000526020600020905b815481529060010190602001808311613c8e57829003601f168201915b5050505050613cb930614447565b89604051602001613ccb92919061544f565b604051602081830303815290604052614474565b8160200151600181518110613cf757613cf66150c1565b5b6020026020010181905250613d35306303bfeb2060e01b604051602001613d1e91906154ba565b6040516020818303038152906040528360006144a0565b8260060181905550505b60006064600534613d50919061511f565b613d5a9190615190565b90506000600560003373ffffffffffffffffffffffffffffffffffffffff1673ffffffffffffffffffffffffffffffffffffffff1681526020019081526020016000206001019050600083600501600089815260200190815260200160002060003373ffffffffffffffffffffffffffffffffffffffff1673ffffffffffffffffffffffffffffffffffffffff168152602001908152602001600020905060008460040160008a8152602001908152602001600020905060008054906101000a900473ffffffffffffffffffffffffffffffffffffffff1673ffffffffffffffffffffffffffffffffffffffff166108fc859081150290604051600060405180830381858888f19350505050158015613e77573d6000803e3d6000fd5b508334613e8491906151c1565b600560003373ffffffffffffffffffffffffffffffffffffffff1673ffffffffffffffffffffffffffffffffffffffff1681526020019081526020016000206000016000828254613ed591906154d5565b92505081905550826040518060e001604052803373ffffffffffffffffffffffffffffffffffffffff1681526020018634613f1091906151c1565b81526020018b81526020018c81526020016040518060400160405280600a81526020017f4d6f6e6579204c696e6500000000000000000000000000000000000000000000815250815260200142815260200160011515815250908060018154018082558091505060019003906000526020600020906007020160009091909190915060008201518160000160006101000a81548173ffffffffffffffffffffffffffffffffffffffff021916908373ffffffffffffffffffffffffffffffffffffffff160217905550602082015181600101556040820151816002015560608201518160030155608082015181600401908161400c9190615696565b5060a0820151816005015560c08201518160060160006101000a81548160ff021916908315150217905550505034600660008c8152602001908152602001600020600082825461405c91906154d5565b9250508190555034600760008c815260200190815260200160002060008b8152602001908152602001600020600082825461409791906154d5565b9250508190555083346140aa91906151c1565b8560000160008282546140bd91906154d5565b9250508190555083346140d091906151c1565b8560010160008b815260200190815260200160002060008282546140f491906154d5565b925050819055508785600201819055508685600301819055503373ffffffffffffffffffffffffffffffffffffffff16600860008c815260200190815260200160002060050160008b815260200190815260200160002060003373ffffffffffffffffffffffffffffffffffffffff1673ffffffffffffffffffffffffffffffffffffffff16815260200190815260200160002060000160009054906101000a900473ffffffffffffffffffffffffffffffffffffffff1673ffffffffffffffffffffffffffffffffffffffff161461422a5780339080600181540180825580915050600190039060005260206000200160009091909190916101000a81548173ffffffffffffffffffffffffffffffffffffffff021916908373ffffffffffffffffffffffffffffffffffffffff1602179055505b338260000160006101000a81548173ffffffffffffffffffffffffffffffffffffffff021916908373ffffffffffffffffffffffffffffffffffffffff160217905550833461427991906151c1565b82600101600082825461428c91906154d5565b925050819055508882600201819055508982600301819055506040518060400160405280600a81526020017f4d6f6e6579204c696e65000000000000000000000000000000000000000000008152508260040190816142eb9190615696565b5042826005018190555060018260060160006101000a81548160ff02191690831515021790555050505050505050505050565b6000806007600085815260200190815260200160002060008481526020019081526020016000205490506000600660008681526020019081526020016000205490508060648361436e919061511f565b6143789190615190565b9250505092915050565b6000600a6000838152602001908152602001600020600101549050919050565b7f000000000000000000000000000000000000000000000000000000000000000073ffffffffffffffffffffffffffffffffffffffff1663ee8ca3b5826040518263ffffffff1660e01b81526004016143fb91906158e6565b600060405180830381600087803b15801561441557600080fd5b505af1158015614429573d6000803e3d6000fd5b5050505050565b606060405180602001604052806000815250905090565b606061446d8273ffffffffffffffffffffffffffffffffffffffff16601460ff1661454e565b9050919050565b60608282604051602001614489929190615956565b604051602081830303815290604052905092915050565b60007f000000000000000000000000000000000000000000000000000000000000000073ffffffffffffffffffffffffffffffffffffffff16633323b467868686866040518563ffffffff1660e01b81526004016145019493929190615bd4565b6020604051808303816000875af1158015614520573d6000803e3d6000fd5b505050506040513d601f19601f820116820180604052508101906145449190615c53565b9050949350505050565b606060006002836002614561919061511f565b61456b91906154d5565b67ffffffffffffffff811115614584576145836153b8565b5b6040519080825280601f01601f1916602001820160405280156145b65781602001600182028036833780820191505090505b5090507f3000000000000000000000000000000000000000000000000000000000000000816000815181106145ee576145ed6150c1565b5b60200101907effffffffffffffffffffffffffffffffffffffffffffffffffffffffffffff1916908160001a9053507f780000000000000000000000000000000000000000000000000000000000000081600181518110614652576146516150c1565b5b60200101907effffffffffffffffffffffffffffffffffffffffffffffffffffffffffffff1916908160001a90535060006001846002614692919061511f565b61469c91906154d5565b90505b600181111561473c577f3031323334353637383961626364656600000000000000000000000000000000600f8616601081106146de576146dd6150c1565b5b1a60f81b8282815181106146f5576146f46150c1565b5b60200101907effffffffffffffffffffffffffffffffffffffffffffffffffffffffffffff1916908160001a905350600485901c94508061473590615c80565b905061469f565b5060008414614780576040517f08c379a000000000000000000000000000000000000000000000000000000000815260040161477790615cf5565b60405180910390fd5b8091505092915050565b6040518060e00160405280600073ffffffffffffffffffffffffffffffffffffffff16815260200160008152602001600081526020016000815260200160608152602001600081526020016000151581525090565b600080fd5b6000819050919050565b6147f7816147e4565b811461480257600080fd5b50565b600081359050614814816147ee565b92915050565b6000602082840312156148305761482f6147df565b5b600061483e84828501614805565b91505092915050565b600073ffffffffffffffffffffffffffffffffffffffff82169050919050565b600061487282614847565b9050919050565b61488281614867565b82525050565b600060208201905061489d6000830184614879565b92915050565b6000806000606084860312156148bc576148bb6147df565b5b60006148ca86828701614805565b93505060206148db86828701614805565b92505060406148ec86828701614805565b9150509250925092565b6000819050919050565b600061491b61491661491184614847565b6148f6565b614847565b9050919050565b600061492d82614900565b9050919050565b600061493f82614922565b9050919050565b61494f81614934565b82525050565b600060208201905061496a6000830184614946565b92915050565b61497981614867565b811461498457600080fd5b50565b60008135905061499681614970565b92915050565b6000602082840312156149b2576149b16147df565b5b60006149c084828501614987565b91505092915050565b60008115159050919050565b6149de816149c9565b82525050565b60006020820190506149f960008301846149d5565b92915050565b614a08816147e4565b82525050565b6000602082019050614a2360008301846149ff565b92915050565b6000819050919050565b614a3c81614a29565b82525050565b6000608082019050614a5760008301876149ff565b614a6460208301866149ff565b614a7160408301856149ff565b614a7e6060830184614a33565b95945050505050565b60008060408385031215614a9e57614a9d6147df565b5b6000614aac85828601614805565b9250506020614abd85828601614805565b9150509250929050565b600081519050919050565b600082825260208201905092915050565b6000819050602082019050919050565b614afc81614867565b82525050565b614b0b816147e4565b82525050565b600081519050919050565b600082825260208201905092915050565b60005b83811015614b4b578082015181840152602081019050614b30565b60008484015250505050565b6000601f19601f8301169050919050565b6000614b7382614b11565b614b7d8185614b1c565b9350614b8d818560208601614b2d565b614b9681614b57565b840191505092915050565b614baa816149c9565b82525050565b600060e083016000830151614bc86000860182614af3565b506020830151614bdb6020860182614b02565b506040830151614bee6040860182614b02565b506060830151614c016060860182614b02565b5060808301518482036080860152614c198282614b68565b91505060a0830151614c2e60a0860182614b02565b5060c0830151614c4160c0860182614ba1565b508091505092915050565b6000614c588383614bb0565b905092915050565b6000602082019050919050565b6000614c7882614ac7565b614c828185614ad2565b935083602082028501614c9485614ae3565b8060005b85811015614cd05784840389528151614cb18582614c4c565b9450614cbc83614c60565b925060208a01995050600181019050614c98565b50829750879550505050505092915050565b60006020820190508181036000830152614cfc8184614c6d565b905092915050565b600060e083016000830151614d1c6000860182614af3565b506020830151614d2f6020860182614b02565b506040830151614d426040860182614b02565b506060830151614d556060860182614b02565b5060808301518482036080860152614d6d8282614b68565b91505060a0830151614d8260a0860182614b02565b5060c0830151614d9560c0860182614ba1565b508091505092915050565b60006020820190508181036000830152614dba8184614d04565b905092915050565b6000614dcd82614922565b9050919050565b614ddd81614dc2565b82525050565b6000602082019050614df86000830184614dd4565b92915050565b60008060008060008060c08789031215614e1b57614e1a6147df565b5b6000614e2989828a01614805565b9650506020614e3a89828a01614805565b9550506040614e4b89828a01614805565b9450506060614e5c89828a01614805565b9350506080614e6d89828a01614805565b92505060a0614e7e89828a01614805565b9150509295509295509295565b6000819050919050565b614e9e81614e8b565b8114614ea957600080fd5b50565b600081359050614ebb81614e95565b92915050565b60008060008060008060c08789031215614ede57614edd6147df565b5b6000614eec89828a01614805565b9650506020614efd89828a01614805565b9550506040614f0e89828a01614805565b9450506060614f1f89828a01614805565b9350506080614f3089828a01614eac565b92505060a0614f4189828a01614805565b9150509295509295509295565b600080600080600060a08688031215614f6a57614f696147df565b5b6000614f7888828901614805565b9550506020614f8988828901614eac565b9450506040614f9a88828901614eac565b9350506060614fab88828901614805565b9250506080614fbc88828901614805565b9150509295509295909350565b600080600080600060a08688031215614fe557614fe46147df565b5b6000614ff388828901614805565b955050602061500488828901614805565b945050604061501588828901614805565b935050606061502688828901614805565b925050608061503788828901614805565b9150509295509295909350565b600082825260208201905092915050565b7f4f6e6c7920646564696361746564206d73672e73656e64657200000000000000600082015250565b600061508b601983615044565b915061509682615055565b602082019050919050565b600060208201905081810360008301526150ba8161507e565b9050919050565b7f4e487b7100000000000000000000000000000000000000000000000000000000600052603260045260246000fd5b7f4e487b7100000000000000000000000000000000000000000000000000000000600052601160045260246000fd5b600061512a826147e4565b9150615135836147e4565b9250828202615143816147e4565b9150828204841483151761515a576151596150f0565b5b5092915050565b7f4e487b7100000000000000000000000000000000000000000000000000000000600052601260045260246000fd5b600061519b826147e4565b91506151a6836147e4565b9250826151b6576151b5615161565b5b828204905092915050565b60006151cc826147e4565b91506151d7836147e4565b92508282039050818111156151ef576151ee6150f0565b5b92915050565b600081905092915050565b7f4d6f6e6579204c696e6500000000000000000000000000000000000000000000600082015250565b6000615236600a836151f5565b915061524182615200565b600a82019050919050565b600061525782615229565b9150819050919050565b7f4e487b7100000000000000000000000000000000000000000000000000000000600052602260045260246000fd5b600060028204905060018216806152a857607f821691505b6020821081036152bb576152ba615261565b5b50919050565b60008190508160005260206000209050919050565b600081546152e381615290565b6152ed81866151f5565b94506001821660008114615308576001811461531d57615350565b60ff1983168652811515820286019350615350565b615326856152c1565b60005b8381101561534857815481890152600182019150602081019050615329565b838801955050505b50505092915050565b600061536582846152d6565b915081905092915050565b600061537b826147e4565b91507fffffffffffffffffffffffffffffffffffffffffffffffffffffffffffffffff82036153ad576153ac6150f0565b5b600182019050919050565b7f4e487b7100000000000000000000000000000000000000000000000000000000600052604160045260246000fd5b7f4e487b7100000000000000000000000000000000000000000000000000000000600052602160045260246000fd5b600061542182614b11565b61542b8185615044565b935061543b818560208601614b2d565b61544481614b57565b840191505092915050565b600060408201905081810360008301526154698185615416565b905061547860208301846149ff565b9392505050565b60007fffffffff0000000000000000000000000000000000000000000000000000000082169050919050565b6154b48161547f565b82525050565b60006020820190506154cf60008301846154ab565b92915050565b60006154e0826147e4565b91506154eb836147e4565b9250828201905080821115615503576155026150f0565b5b92915050565b60006020601f8301049050919050565b600082821b905092915050565b6000600883026155567fffffffffffffffffffffffffffffffffffffffffffffffffffffffffffffffff82615519565b6155608683615519565b95508019841693508086168417925050509392505050565b600061559361558e615589846147e4565b6148f6565b6147e4565b9050919050565b6000819050919050565b6155ad83615578565b6155c16155b98261559a565b848454615526565b825550505050565b600090565b6155d66155c9565b6155e18184846155a4565b505050565b5b81811015615605576155fa6000826155ce565b6001810190506155e7565b5050565b601f82111561564a5761561b816152c1565b61562484615509565b81016020851015615633578190505b61564761563f85615509565b8301826155e6565b50505b505050565b600082821c905092915050565b600061566d6000198460080261564f565b1980831691505092915050565b6000615686838361565c565b9150826002028217905092915050565b61569f82614b11565b67ffffffffffffffff8111156156b8576156b76153b8565b5b6156c28254615290565b6156cd828285615609565b600060209050601f83116001811461570057600084156156ee578287015190505b6156f8858261567a565b865550615760565b601f19841661570e866152c1565b60005b8281101561573657848901518255600182019150602085019450602081019050615711565b86831015615753578489015161574f601f89168261565c565b8355505b6001600288020188555050505b505050505050565b7f506f696e7420546f74616c000000000000000000000000000000000000000000600082015250565b600061579e600b836151f5565b91506157a982615768565b600b82019050919050565b60006157bf82615791565b9150819050919050565b60006157d482614e8b565b91506157df83614e8b565b92508282026157ed81614e8b565b91507f80000000000000000000000000000000000000000000000000000000000000008414600084121615615825576158246150f0565b5b828205841483151761583a576158396150f0565b5b5092915050565b600061584c82614e8b565b915061585783614e8b565b92508282019050828112156000831216838212600084121516171561587f5761587e6150f0565b5b92915050565b7f506f696e74205370726561640000000000000000000000000000000000000000600082015250565b60006158bb600c836151f5565b91506158c682615885565b600c82019050919050565b60006158dc826158ae565b9150819050919050565b60006020820190506158fb6000830184614a33565b92915050565b600081519050919050565b600082825260208201905092915050565b600061592882615901565b615932818561590c565b9350615942818560208601614b2d565b61594b81614b57565b840191505092915050565b600060408201905081810360008301526159708185615416565b90508181036020830152615984818461591d565b90509392505050565b600081519050919050565b600082825260208201905092915050565b6000819050602082019050919050565b600581106159ca576159c96153e7565b5b50565b60008190506159db826159b9565b919050565b60006159eb826159cd565b9050919050565b6159fb816159e0565b82525050565b6000615a0d83836159f2565b60208301905092915050565b6000602082019050919050565b6000615a318261598d565b615a3b8185615998565b9350615a46836159a9565b8060005b83811015615a77578151615a5e8882615a01565b9750615a6983615a19565b925050600181019050615a4a565b5085935050505092915050565b600081519050919050565b600082825260208201905092915050565b6000819050602082019050919050565b600082825260208201905092915050565b6000615acc82615901565b615ad68185615ab0565b9350615ae6818560208601614b2d565b615aef81614b57565b840191505092915050565b6000615b068383615ac1565b905092915050565b6000602082019050919050565b6000615b2682615a84565b615b308185615a8f565b935083602082028501615b4285615aa0565b8060005b85811015615b7e5784840389528151615b5f8582615afa565b9450615b6a83615b0e565b925060208a01995050600181019050615b46565b50829750879550505050505092915050565b60006040830160008301518482036000860152615bad8282615a26565b91505060208301518482036020860152615bc78282615b1b565b9150508091505092915050565b6000608082019050615be96000830187614879565b8181036020830152615bfb818661591d565b90508181036040830152615c0f8185615b90565b9050615c1e6060830184614879565b95945050505050565b615c3081614a29565b8114615c3b57600080fd5b50565b600081519050615c4d81615c27565b92915050565b600060208284031215615c6957615c686147df565b5b6000615c7784828501615c3e565b91505092915050565b6000615c8b826147e4565b915060008203615c9e57615c9d6150f0565b5b600182039050919050565b7f537472696e67733a20686578206c656e67746820696e73756666696369656e74600082015250565b6000615cdf602083615044565b9150615cea82615ca9565b602082019050919050565b60006020820190508181036000830152615d0e81615cd2565b905091905056fea26469706673582212203e583247e5823e317ea16e8f18490f53affe608e19f578bf7b04c256bef468cc64736f6c63430008150033",
  "linkReferences": {},
  "deployedLinkReferences": {}
}