{
  "_format": "hh-sol-artifact-1",
  "contractName": "Bet",
  "sourceName": "contracts/Bet.sol",
  "abi": [
    {
      "inputs": [
        {
          "internalType": "string",
          "name": "_moneyLineFunctionHash",
          "type": "string"
        },
        {
          "internalType": "string",
          "name": "_pointSpreadFunctionHash",
          "type": "string"
        },
        {
          "internalType": "string",
          "name": "_pointTotalFunctionHash",
          "type": "string"
        }
      ],
      "stateMutability": "nonpayable",
      "type": "constructor"
    },
    {
      "inputs": [],
      "name": "automate",
      "outputs": [
        {
          "internalType": "contract IAutomate",
          "name": "",
          "type": "address"
        }
      ],
      "stateMutability": "view",
      "type": "function"
    },
    {
      "inputs": [
        {
          "internalType": "address",
          "name": "user",
          "type": "address"
        }
      ],
      "name": "blockUser",
      "outputs": [],
      "stateMutability": "nonpayable",
      "type": "function"
    },
    {
      "inputs": [
        {
          "internalType": "uint256",
          "name": "",
          "type": "uint256"
        }
      ],
      "name": "blockedUsers",
      "outputs": [
        {
          "internalType": "address",
          "name": "",
          "type": "address"
        }
      ],
      "stateMutability": "view",
      "type": "function"
    },
    {
      "inputs": [
        {
          "internalType": "address",
          "name": "user",
          "type": "address"
        }
      ],
      "name": "checkSender",
      "outputs": [
        {
          "internalType": "bool",
          "name": "",
          "type": "bool"
        }
      ],
      "stateMutability": "view",
      "type": "function"
    },
    {
      "inputs": [],
      "name": "dedicatedMsgSender",
      "outputs": [
        {
          "internalType": "address",
          "name": "",
          "type": "address"
        }
      ],
      "stateMutability": "view",
      "type": "function"
    },
    {
      "inputs": [
        {
          "internalType": "uint256",
          "name": "_amount",
          "type": "uint256"
        },
        {
          "internalType": "address",
          "name": "_token",
          "type": "address"
        },
        {
          "internalType": "address",
          "name": "_sponsor",
          "type": "address"
        }
      ],
      "name": "deposit",
      "outputs": [],
      "stateMutability": "payable",
      "type": "function"
    },
    {
      "inputs": [],
      "name": "fundsOwner",
      "outputs": [
        {
          "internalType": "address",
          "name": "",
          "type": "address"
        }
      ],
      "stateMutability": "view",
      "type": "function"
    },
    {
      "inputs": [],
      "name": "gelato1Balance",
      "outputs": [
        {
          "internalType": "contract IGelato1Balance",
          "name": "",
          "type": "address"
        }
      ],
      "stateMutability": "view",
      "type": "function"
    },
    {
      "inputs": [
        {
          "internalType": "uint256",
          "name": "gameID",
          "type": "uint256"
        },
        {
          "internalType": "uint256",
          "name": "teamID",
          "type": "uint256"
        },
        {
          "internalType": "uint256",
          "name": "homeTeamID",
          "type": "uint256"
        },
        {
          "internalType": "uint256",
          "name": "awayTeamID",
          "type": "uint256"
        },
        {
          "internalType": "uint256",
          "name": "startTime",
          "type": "uint256"
        }
      ],
      "name": "moneyLineBet",
      "outputs": [],
      "stateMutability": "payable",
      "type": "function"
    },
    {
      "inputs": [
        {
          "internalType": "uint256",
          "name": "",
          "type": "uint256"
        }
      ],
      "name": "newMoneyLineBet",
      "outputs": [
        {
          "internalType": "uint256",
          "name": "total",
          "type": "uint256"
        },
        {
          "internalType": "uint256",
          "name": "homeTeamID",
          "type": "uint256"
        },
        {
          "internalType": "uint256",
          "name": "awayTeamID",
          "type": "uint256"
        },
        {
          "internalType": "bytes32",
          "name": "taskID",
          "type": "bytes32"
        }
      ],
      "stateMutability": "view",
      "type": "function"
    },
    {
      "inputs": [
        {
          "internalType": "uint256",
          "name": "",
          "type": "uint256"
        }
      ],
      "name": "newPointSpreadBet",
      "outputs": [
        {
          "internalType": "uint256",
          "name": "total",
          "type": "uint256"
        },
        {
          "internalType": "uint256",
          "name": "homeTeamID",
          "type": "uint256"
        },
        {
          "internalType": "uint256",
          "name": "awayTeamID",
          "type": "uint256"
        },
        {
          "internalType": "bytes32",
          "name": "taskID",
          "type": "bytes32"
        }
      ],
      "stateMutability": "view",
      "type": "function"
    },
    {
      "inputs": [
        {
          "internalType": "uint256",
          "name": "",
          "type": "uint256"
        }
      ],
      "name": "newPointTotalBet",
      "outputs": [
        {
          "internalType": "uint256",
          "name": "total",
          "type": "uint256"
        },
        {
          "internalType": "uint256",
          "name": "homeTeamID",
          "type": "uint256"
        },
        {
          "internalType": "uint256",
          "name": "awayTeamID",
          "type": "uint256"
        },
        {
          "internalType": "bytes32",
          "name": "taskID",
          "type": "bytes32"
        }
      ],
      "stateMutability": "view",
      "type": "function"
    },
    {
      "inputs": [
        {
          "internalType": "uint256",
          "name": "gameID",
          "type": "uint256"
        },
        {
          "internalType": "uint256",
          "name": "teamID",
          "type": "uint256"
        },
        {
          "internalType": "uint256",
          "name": "homeTeamID",
          "type": "uint256"
        },
        {
          "internalType": "uint256",
          "name": "awayTeamID",
          "type": "uint256"
        },
        {
          "internalType": "int256",
          "name": "spread",
          "type": "int256"
        },
        {
          "internalType": "uint256",
          "name": "startTime",
          "type": "uint256"
        }
      ],
      "name": "pointSpreadBet",
      "outputs": [],
      "stateMutability": "payable",
      "type": "function"
    },
    {
      "inputs": [
        {
          "internalType": "uint256",
          "name": "gameID",
          "type": "uint256"
        },
        {
          "internalType": "uint256",
          "name": "overUnder",
          "type": "uint256"
        },
        {
          "internalType": "uint256",
          "name": "homeTeamID",
          "type": "uint256"
        },
        {
          "internalType": "uint256",
          "name": "awayTeamID",
          "type": "uint256"
        },
        {
          "internalType": "uint256",
          "name": "pointAmount",
          "type": "uint256"
        },
        {
          "internalType": "uint256",
          "name": "startTime",
          "type": "uint256"
        }
      ],
      "name": "pointTotalBet",
      "outputs": [],
      "stateMutability": "payable",
      "type": "function"
    },
    {
      "inputs": [],
      "name": "returnEscrow",
      "outputs": [
        {
          "internalType": "uint256",
          "name": "data",
          "type": "uint256"
        }
      ],
      "stateMutability": "view",
      "type": "function"
    },
    {
      "inputs": [
        {
          "internalType": "uint256",
          "name": "gameID",
          "type": "uint256"
        },
        {
          "internalType": "uint256",
          "name": "teamID",
          "type": "uint256"
        }
      ],
      "name": "returnMoneyLineBetReceipt",
      "outputs": [
        {
          "components": [
            {
              "internalType": "address",
              "name": "addr",
              "type": "address"
            },
            {
              "internalType": "uint256",
              "name": "amount",
              "type": "uint256"
            },
            {
              "internalType": "uint256",
              "name": "teamID",
              "type": "uint256"
            },
            {
              "internalType": "uint256",
              "name": "gameID",
              "type": "uint256"
            },
            {
              "internalType": "string",
              "name": "betType",
              "type": "string"
            },
            {
              "internalType": "uint256",
              "name": "time",
              "type": "uint256"
            },
            {
              "internalType": "bool",
              "name": "active",
              "type": "bool"
            }
          ],
          "internalType": "struct Bet.Transaction",
          "name": "data",
          "type": "tuple"
        }
      ],
      "stateMutability": "view",
      "type": "function"
    },
    {
      "inputs": [
        {
          "internalType": "uint256",
          "name": "gameID",
          "type": "uint256"
        },
        {
          "internalType": "uint256",
          "name": "teamID",
          "type": "uint256"
        }
      ],
      "name": "returnMoneyLineBetTotal",
      "outputs": [
        {
          "internalType": "uint256",
          "name": "data",
          "type": "uint256"
        }
      ],
      "stateMutability": "view",
      "type": "function"
    },
    {
      "inputs": [
        {
          "internalType": "uint256",
          "name": "gameID",
          "type": "uint256"
        },
        {
          "internalType": "uint256",
          "name": "bettingTeamID",
          "type": "uint256"
        }
      ],
      "name": "returnOdds",
      "outputs": [
        {
          "internalType": "uint256",
          "name": "odds",
          "type": "uint256"
        }
      ],
      "stateMutability": "view",
      "type": "function"
    },
    {
      "inputs": [
        {
          "internalType": "uint256",
          "name": "gameID",
          "type": "uint256"
        }
      ],
      "name": "returnPointSpreadBetReceipt",
      "outputs": [
        {
          "components": [
            {
              "internalType": "address",
              "name": "addr",
              "type": "address"
            },
            {
              "internalType": "uint256",
              "name": "amount",
              "type": "uint256"
            },
            {
              "internalType": "uint256",
              "name": "teamID",
              "type": "uint256"
            },
            {
              "internalType": "uint256",
              "name": "gameID",
              "type": "uint256"
            },
            {
              "internalType": "string",
              "name": "betType",
              "type": "string"
            },
            {
              "internalType": "uint256",
              "name": "time",
              "type": "uint256"
            },
            {
              "internalType": "bool",
              "name": "active",
              "type": "bool"
            }
          ],
          "internalType": "struct Bet.Transaction",
          "name": "data",
          "type": "tuple"
        }
      ],
      "stateMutability": "view",
      "type": "function"
    },
    {
      "inputs": [
        {
          "internalType": "uint256",
          "name": "gameID",
          "type": "uint256"
        },
        {
          "internalType": "uint256",
          "name": "teamID",
          "type": "uint256"
        }
      ],
      "name": "returnPointSpreadBetTotal",
      "outputs": [
        {
          "internalType": "uint256",
          "name": "data",
          "type": "uint256"
        }
      ],
      "stateMutability": "view",
      "type": "function"
    },
    {
      "inputs": [
        {
          "internalType": "uint256",
          "name": "gameID",
          "type": "uint256"
        }
      ],
      "name": "returnPointTotalBetReceipt",
      "outputs": [
        {
          "components": [
            {
              "internalType": "address",
              "name": "addr",
              "type": "address"
            },
            {
              "internalType": "uint256",
              "name": "amount",
              "type": "uint256"
            },
            {
              "internalType": "uint256",
              "name": "teamID",
              "type": "uint256"
            },
            {
              "internalType": "uint256",
              "name": "gameID",
              "type": "uint256"
            },
            {
              "internalType": "string",
              "name": "betType",
              "type": "string"
            },
            {
              "internalType": "uint256",
              "name": "time",
              "type": "uint256"
            },
            {
              "internalType": "bool",
              "name": "active",
              "type": "bool"
            }
          ],
          "internalType": "struct Bet.Transaction",
          "name": "data",
          "type": "tuple"
        }
      ],
      "stateMutability": "view",
      "type": "function"
    },
    {
      "inputs": [
        {
          "internalType": "uint256",
          "name": "gameID",
          "type": "uint256"
        }
      ],
      "name": "returnPointTotalBetTotal",
      "outputs": [
        {
          "internalType": "uint256",
          "name": "data",
          "type": "uint256"
        }
      ],
      "stateMutability": "view",
      "type": "function"
    },
    {
      "inputs": [],
      "name": "returnReceipts",
      "outputs": [
        {
          "components": [
            {
              "internalType": "address",
              "name": "addr",
              "type": "address"
            },
            {
              "internalType": "uint256",
              "name": "amount",
              "type": "uint256"
            },
            {
              "internalType": "uint256",
              "name": "teamID",
              "type": "uint256"
            },
            {
              "internalType": "uint256",
              "name": "gameID",
              "type": "uint256"
            },
            {
              "internalType": "string",
              "name": "betType",
              "type": "string"
            },
            {
              "internalType": "uint256",
              "name": "time",
              "type": "uint256"
            },
            {
              "internalType": "bool",
              "name": "active",
              "type": "bool"
            }
          ],
          "internalType": "struct Bet.Transaction[]",
          "name": "data",
          "type": "tuple[]"
        }
      ],
      "stateMutability": "view",
      "type": "function"
    },
    {
      "inputs": [
        {
          "internalType": "uint256",
          "name": "gameID",
          "type": "uint256"
        },
        {
          "internalType": "uint256",
          "name": "winnerID",
          "type": "uint256"
        },
        {
          "internalType": "uint256",
          "name": "loserID",
          "type": "uint256"
        }
      ],
      "name": "rewardMoneyLineWinners",
      "outputs": [],
      "stateMutability": "nonpayable",
      "type": "function"
    },
    {
      "inputs": [
        {
          "internalType": "uint256",
          "name": "gameID",
          "type": "uint256"
        },
        {
          "internalType": "int256",
          "name": "homeScore",
          "type": "int256"
        },
        {
          "internalType": "int256",
          "name": "awayScore",
          "type": "int256"
        },
        {
          "internalType": "uint256",
          "name": "homeTeamID",
          "type": "uint256"
        },
        {
          "internalType": "uint256",
          "name": "awayTeamID",
          "type": "uint256"
        }
      ],
      "name": "rewardPointSpreadWinners",
      "outputs": [],
      "stateMutability": "nonpayable",
      "type": "function"
    },
    {
      "inputs": [
        {
          "internalType": "uint256",
          "name": "gameID",
          "type": "uint256"
        },
        {
          "internalType": "uint256",
          "name": "total",
          "type": "uint256"
        }
      ],
      "name": "rewardPointTotalWinners",
      "outputs": [],
      "stateMutability": "nonpayable",
      "type": "function"
    },
    {
      "inputs": [
        {
          "internalType": "uint256",
          "name": "",
          "type": "uint256"
        }
      ],
      "name": "totalBetOnGame",
      "outputs": [
        {
          "internalType": "uint256",
          "name": "",
          "type": "uint256"
        }
      ],
      "stateMutability": "view",
      "type": "function"
    },
    {
      "inputs": [
        {
          "internalType": "uint256",
          "name": "",
          "type": "uint256"
        },
        {
          "internalType": "uint256",
          "name": "",
          "type": "uint256"
        }
      ],
      "name": "totalBetOnTeam",
      "outputs": [
        {
          "internalType": "uint256",
          "name": "",
          "type": "uint256"
        }
      ],
      "stateMutability": "view",
      "type": "function"
    },
    {
      "inputs": [
        {
          "internalType": "address",
          "name": "",
          "type": "address"
        }
      ],
      "name": "userReceipts",
      "outputs": [
        {
          "internalType": "uint256",
          "name": "escrow",
          "type": "uint256"
        }
      ],
      "stateMutability": "view",
      "type": "function"
    }
  ],
  "bytecode": "0x61010060405234801562000011575f80fd5b506040516200696638038062006966833981810160405281019062000037919062000508565b732a6c106ae13b558bb9e2ec64bd2f1f7beff3a5e03081308173ffffffffffffffffffffffffffffffffffffffff1660808173ffffffffffffffffffffffffffffffffffffffff16815250508173ffffffffffffffffffffffffffffffffffffffff1663573ea5756040518163ffffffff1660e01b8152600401602060405180830381865afa158015620000cd573d5f803e3d5ffd5b505050506040513d601f19601f82011682018060405250810190620000f391906200061f565b73ffffffffffffffffffffffffffffffffffffffff1660c08173ffffffffffffffffffffffffffffffffffffffff16815250505f8273ffffffffffffffffffffffffffffffffffffffff1663cd3d4fb960026040518263ffffffff1660e01b8152600401620001639190620006cb565b602060405180830381865afa1580156200017f573d5f803e3d5ffd5b505050506040513d601f19601f82011682018060405250810190620001a5919062000728565b90505f8173ffffffffffffffffffffffffffffffffffffffff1663ba1d0ff46040518163ffffffff1660e01b8152600401602060405180830381865afa158015620001f2573d5f803e3d5ffd5b505050506040513d601f19601f8201168201806040525081019062000218919062000728565b90508073ffffffffffffffffffffffffffffffffffffffff1663ded89a7c846040518263ffffffff1660e01b815260040162000255919062000769565b6040805180830381865afa15801562000270573d5f803e3d5ffd5b505050506040513d601f19601f82011682018060405250810190620002969190620007be565b508073ffffffffffffffffffffffffffffffffffffffff1660a09073ffffffffffffffffffffffffffffffffffffffff1681525050505050508073ffffffffffffffffffffffffffffffffffffffff1660e08173ffffffffffffffffffffffffffffffffffffffff16815250505050335f806101000a81548173ffffffffffffffffffffffffffffffffffffffff021916908373ffffffffffffffffffffffffffffffffffffffff160217905550826001908162000355919062000a3a565b50806003908162000367919062000a3a565b50816002908162000379919062000a3a565b5050505062000b1e565b5f604051905090565b5f80fd5b5f80fd5b5f80fd5b5f80fd5b5f601f19601f8301169050919050565b7f4e487b71000000000000000000000000000000000000000000000000000000005f52604160045260245ffd5b620003e4826200039c565b810181811067ffffffffffffffff82111715620004065762000405620003ac565b5b80604052505050565b5f6200041a62000383565b9050620004288282620003d9565b919050565b5f67ffffffffffffffff8211156200044a5762000449620003ac565b5b62000455826200039c565b9050602081019050919050565b5f5b838110156200048157808201518184015260208101905062000464565b5f8484015250505050565b5f620004a26200049c846200042d565b6200040f565b905082815260208101848484011115620004c157620004c062000398565b5b620004ce84828562000462565b509392505050565b5f82601f830112620004ed57620004ec62000394565b5b8151620004ff8482602086016200048c565b91505092915050565b5f805f606084860312156200052257620005216200038c565b5b5f84015167ffffffffffffffff81111562000542576200054162000390565b5b6200055086828701620004d6565b935050602084015167ffffffffffffffff81111562000574576200057362000390565b5b6200058286828701620004d6565b925050604084015167ffffffffffffffff811115620005a657620005a562000390565b5b620005b486828701620004d6565b9150509250925092565b5f73ffffffffffffffffffffffffffffffffffffffff82169050919050565b5f620005e982620005be565b9050919050565b620005fb81620005dd565b811462000606575f80fd5b50565b5f815190506200061981620005f0565b92915050565b5f602082840312156200063757620006366200038c565b5b5f620006468482850162000609565b91505092915050565b7f4e487b71000000000000000000000000000000000000000000000000000000005f52602160045260245ffd5b6005811062000690576200068f6200064f565b5b50565b5f819050620006a2826200067c565b919050565b5f620006b38262000693565b9050919050565b620006c581620006a7565b82525050565b5f602082019050620006e05f830184620006ba565b92915050565b5f620006f282620005be565b9050919050565b6200070481620006e6565b81146200070f575f80fd5b50565b5f815190506200072281620006f9565b92915050565b5f6020828403121562000740576200073f6200038c565b5b5f6200074f8482850162000712565b91505092915050565b6200076381620006e6565b82525050565b5f6020820190506200077e5f83018462000758565b92915050565b5f8115159050919050565b6200079a8162000784565b8114620007a5575f80fd5b50565b5f81519050620007b8816200078f565b92915050565b5f8060408385031215620007d757620007d66200038c565b5b5f620007e68582860162000712565b9250506020620007f985828601620007a8565b9150509250929050565b5f81519050919050565b7f4e487b71000000000000000000000000000000000000000000000000000000005f52602260045260245ffd5b5f60028204905060018216806200085257607f821691505b6020821081036200086857620008676200080d565b5b50919050565b5f819050815f5260205f209050919050565b5f6020601f8301049050919050565b5f82821b905092915050565b5f60088302620008cc7fffffffffffffffffffffffffffffffffffffffffffffffffffffffffffffffff826200088f565b620008d886836200088f565b95508019841693508086168417925050509392505050565b5f819050919050565b5f819050919050565b5f620009226200091c6200091684620008f0565b620008f9565b620008f0565b9050919050565b5f819050919050565b6200093d8362000902565b620009556200094c8262000929565b8484546200089b565b825550505050565b5f90565b6200096b6200095d565b6200097881848462000932565b505050565b5b818110156200099f57620009935f8262000961565b6001810190506200097e565b5050565b601f821115620009ee57620009b8816200086e565b620009c38462000880565b81016020851015620009d3578190505b620009eb620009e28562000880565b8301826200097d565b50505b505050565b5f82821c905092915050565b5f62000a105f1984600802620009f3565b1980831691505092915050565b5f62000a2a8383620009ff565b9150826002028217905092915050565b62000a458262000803565b67ffffffffffffffff81111562000a615762000a60620003ac565b5b62000a6d82546200083a565b62000a7a828285620009a3565b5f60209050601f83116001811462000ab0575f841562000a9b578287015190505b62000aa7858262000a1d565b86555062000b16565b601f19841662000ac0866200086e565b5f5b8281101562000ae95784890151825560018201915060208501945060208101905062000ac2565b8683101562000b09578489015162000b05601f891682620009ff565b8355505b6001600288020188555050505b505050505050565b60805160a05160c05160e051615df462000b725f395f61120f01525f50505f818161079b01528181610f4201528181611d6f015261308801525f8181610e340152818161409d01526144430152615df45ff3fe6080604052600436106101c1575f3560e01c806357fb1d67116100f6578063a910e4a511610094578063ec5a24d711610063578063ec5a24d71461068e578063f12b2a8b146106ca578063f227ce4d146106e6578063f782a75414610722576101c1565b8063a910e4a5146105cf578063a91faba21461060b578063b1a374dd1461064a578063ce914f7314610666576101c1565b80638edd3971116100d05780638edd3971146104f05780638ee95f9f1461052f578063914989fd14610557578063a4786f3d14610593576101c1565b806357fb1d6714610480578063753dc3b8146104aa5780637ea4178a146104c6576101c1565b80632b3a4ef6116101635780633da013251161013d5780633da01325146103b657806346ee3c59146103de57806347f53fc914610408578063481042e214610444576101c1565b80632b3a4ef6146103345780632e2d2984146103705780633946f6661461038c576101c1565b806308bc451e1161019f57806308bc451e1461025357806323821c211461028f5780632429827f146102cb57806328f150eb1461030a576101c1565b806302cba3c3146101c557806303bfeb2014610201578063049aacfe14610229575b5f80fd5b3480156101d0575f80fd5b506101eb60048036038101906101e691906147a5565b61075e565b6040516101f8919061480f565b60405180910390f35b34801561020c575f80fd5b5061022760048036038101906102229190614828565b610799565b005b348015610234575f80fd5b5061023d610e32565b60405161024a91906148d3565b60405180910390f35b34801561025e575f80fd5b5061027960048036038101906102749190614916565b610e56565b604051610286919061495b565b60405180910390f35b34801561029a575f80fd5b506102b560048036038101906102b091906147a5565b610efe565b6040516102c29190614983565b60405180910390f35b3480156102d6575f80fd5b506102f160048036038101906102ec91906147a5565b610f13565b60405161030194939291906149b4565b60405180910390f35b348015610315575f80fd5b5061031e610f40565b60405161032b919061480f565b60405180910390f35b34801561033f575f80fd5b5061035a600480360381019061035591906149f7565b610f64565b6040516103679190614983565b60405180910390f35b61038a60048036038101906103859190614a35565b610f84565b005b348015610397575f80fd5b506103a0610f94565b6040516103ad9190614c90565b60405180910390f35b3480156103c1575f80fd5b506103dc60048036038101906103d79190614916565b611154565b005b3480156103e9575f80fd5b506103f261120d565b6040516103ff919061480f565b60405180910390f35b348015610413575f80fd5b5061042e600480360381019061042991906149f7565b611231565b60405161043b9190614983565b60405180910390f35b34801561044f575f80fd5b5061046a600480360381019061046591906147a5565b61125e565b6040516104779190614d49565b60405180910390f35b34801561048b575f80fd5b506104946113ed565b6040516104a19190614d89565b60405180910390f35b6104c460048036038101906104bf9190614da2565b611405565b005b3480156104d1575f80fd5b506104da611cfb565b6040516104e79190614983565b60405180910390f35b3480156104fb575f80fd5b50610516600480360381019061051191906147a5565b611d41565b60405161052694939291906149b4565b60405180910390f35b34801561053a575f80fd5b50610555600480360381019061055091906149f7565b611d6d565b005b348015610562575f80fd5b5061057d600480360381019061057891906147a5565b612435565b60405161058a9190614d49565b60405180910390f35b34801561059e575f80fd5b506105b960048036038101906105b49190614916565b6125c4565b6040516105c69190614983565b60405180910390f35b3480156105da575f80fd5b506105f560048036038101906105f091906149f7565b6125de565b6040516106029190614d49565b60405180910390f35b348015610616575f80fd5b50610631600480360381019061062c91906147a5565b61277d565b60405161064194939291906149b4565b60405180910390f35b610664600480360381019061065f9190614e5e565b6127aa565b005b348015610671575f80fd5b5061068c60048036038101906106879190614ee7565b613086565b005b348015610699575f80fd5b506106b460048036038101906106af91906149f7565b613734565b6040516106c19190614983565b60405180910390f35b6106e460048036038101906106df9190614f5e565b613761565b005b3480156106f1575f80fd5b5061070c600480360381019061070791906149f7565b614022565b6040516107199190614983565b60405180910390f35b34801561072d575f80fd5b50610748600480360381019061074391906147a5565b61407e565b6040516107559190614983565b60405180910390f35b6004818154811061076d575f80fd5b905f5260205f20015f915054906101000a900473ffffffffffffffffffffffffffffffffffffffff1681565b7f000000000000000000000000000000000000000000000000000000000000000073ffffffffffffffffffffffffffffffffffffffff163373ffffffffffffffffffffffffffffffffffffffff1614610827576040517f08c379a000000000000000000000000000000000000000000000000000000000815260040161081e9061502f565b60405180910390fd5b5f5b60085f8581526020019081526020015f206004015f8481526020019081526020015f2080549050811015610b6c575f60085f8681526020019081526020015f206004015f8581526020019081526020015f20828154811061088d5761088c61504d565b5b905f5260205f20015f9054906101000a900473ffffffffffffffffffffffffffffffffffffffff1690505f60085f8781526020019081526020015f206005015f8681526020019081526020015f205f8373ffffffffffffffffffffffffffffffffffffffff1673ffffffffffffffffffffffffffffffffffffffff1681526020019081526020015f206001015490505f60085f8881526020019081526020015f206001015f8781526020019081526020015f20548261094c91906150d4565b905061095783610e56565b6109be578273ffffffffffffffffffffffffffffffffffffffff166108fc8260085f8b81526020019081526020015f205f01546109949190615104565b90811502906040515f60405180830381858888f193505050501580156109bc573d5f803e3d5ffd5b505b8160055f8573ffffffffffffffffffffffffffffffffffffffff1673ffffffffffffffffffffffffffffffffffffffff1681526020019081526020015f205f015f828254610a0c9190615145565b925050819055505f5b60055f8573ffffffffffffffffffffffffffffffffffffffff1673ffffffffffffffffffffffffffffffffffffffff1681526020019081526020015f2060010180549050811015610b55575f60055f8673ffffffffffffffffffffffffffffffffffffffff1673ffffffffffffffffffffffffffffffffffffffff1681526020019081526020015f206001018281548110610ab357610ab261504d565b5b905f5260205f2090600702019050888160030154148015610b205750604051602001610ade906151cc565b6040516020818303038152906040528051906020012081600401604051602001610b0891906152cf565b60405160208183030381529060405280519060200120145b15610b41575f816006015f6101000a81548160ff0219169083151502179055505b508080610b4d906152e5565b915050610a15565b505050508080610b64906152e5565b915050610829565b505f5b60085f8581526020019081526020015f206004015f8381526020019081526020015f2080549050811015610e0f575f60085f8681526020019081526020015f206004015f8481526020019081526020015f208281548110610bd357610bd261504d565b5b905f5260205f20015f9054906101000a900473ffffffffffffffffffffffffffffffffffffffff1690505f60085f8781526020019081526020015f206005015f8581526020019081526020015f205f8373ffffffffffffffffffffffffffffffffffffffff1673ffffffffffffffffffffffffffffffffffffffff1681526020019081526020015f206001015490508060055f8473ffffffffffffffffffffffffffffffffffffffff1673ffffffffffffffffffffffffffffffffffffffff1681526020019081526020015f205f015f828254610cb09190615145565b925050819055505f5b60055f8473ffffffffffffffffffffffffffffffffffffffff1673ffffffffffffffffffffffffffffffffffffffff1681526020019081526020015f2060010180549050811015610df9575f60055f8573ffffffffffffffffffffffffffffffffffffffff1673ffffffffffffffffffffffffffffffffffffffff1681526020019081526020015f206001018281548110610d5757610d5661504d565b5b905f5260205f2090600702019050878160030154148015610dc45750604051602001610d82906151cc565b6040516020818303038152906040528051906020012081600401604051602001610dac91906152cf565b60405160208183030381529060405280519060200120145b15610de5575f816006015f6101000a81548160ff0219169083151502179055505b508080610df1906152e5565b915050610cb9565b5050508080610e07906152e5565b915050610b6f565b50610e2d60085f8581526020019081526020015f206006015461409b565b505050565b7f000000000000000000000000000000000000000000000000000000000000000081565b5f805f90505b600480549050811015610ef4578273ffffffffffffffffffffffffffffffffffffffff1660048281548110610e9457610e9361504d565b5b905f5260205f20015f9054906101000a900473ffffffffffffffffffffffffffffffffffffffff1673ffffffffffffffffffffffffffffffffffffffff1603610ee1576001915050610ef9565b8080610eec906152e5565b915050610e5c565b505f90505b919050565b6006602052805f5260405f205f915090505481565b6009602052805f5260405f205f915090508060010154908060030154908060040154908060070154905084565b7f000000000000000000000000000000000000000000000000000000000000000081565b6007602052815f5260405f20602052805f5260405f205f91509150505481565b610f8f838383614124565b505050565b606060055f3373ffffffffffffffffffffffffffffffffffffffff1673ffffffffffffffffffffffffffffffffffffffff1681526020019081526020015f20600101805480602002602001604051908101604052809291908181526020015f905b8282101561114b578382905f5260205f2090600702016040518060e00160405290815f82015f9054906101000a900473ffffffffffffffffffffffffffffffffffffffff1673ffffffffffffffffffffffffffffffffffffffff1673ffffffffffffffffffffffffffffffffffffffff1681526020016001820154815260200160028201548152602001600382015481526020016004820180546110989061520d565b80601f01602080910402602001604051908101604052809291908181526020018280546110c49061520d565b801561110f5780601f106110e65761010080835404028352916020019161110f565b820191905f5260205f20905b8154815290600101906020018083116110f257829003601f168201915b5050505050815260200160058201548152602001600682015f9054906101000a900460ff16151515158152505081526020019060010190610ff5565b50505050905090565b5f8054906101000a900473ffffffffffffffffffffffffffffffffffffffff1673ffffffffffffffffffffffffffffffffffffffff163373ffffffffffffffffffffffffffffffffffffffff16146111aa575f80fd5b600481908060018154018082558091505060019003905f5260205f20015f9091909190916101000a81548173ffffffffffffffffffffffffffffffffffffffff021916908373ffffffffffffffffffffffffffffffffffffffff16021790555050565b7f000000000000000000000000000000000000000000000000000000000000000081565b5f60085f8481526020019081526020015f206001015f8381526020019081526020015f2054905092915050565b61126661471f565b60095f8381526020019081526020015f206006015f3373ffffffffffffffffffffffffffffffffffffffff1673ffffffffffffffffffffffffffffffffffffffff1681526020019081526020015f206040518060e00160405290815f82015f9054906101000a900473ffffffffffffffffffffffffffffffffffffffff1673ffffffffffffffffffffffffffffffffffffffff1673ffffffffffffffffffffffffffffffffffffffff1681526020016001820154815260200160028201548152602001600382015481526020016004820180546113429061520d565b80601f016020809104026020016040519081016040528092919081815260200182805461136e9061520d565b80156113b95780601f10611390576101008083540402835291602001916113b9565b820191905f5260205f20905b81548152906001019060200180831161139c57829003601f168201915b5050505050815260200160058201548152602001600682015f9054906101000a900460ff1615151515815250509050919050565b737506c12a824d73d9b08564d5afc22c949434755e81565b3273ffffffffffffffffffffffffffffffffffffffff163373ffffffffffffffffffffffffffffffffffffffff161461143c575f80fd5b805f10611447575f80fd5b61145033610e56565b15611459575f80fd5b3373ffffffffffffffffffffffffffffffffffffffff16600a5f8881526020019081526020015f206005015f3373ffffffffffffffffffffffffffffffffffffffff1673ffffffffffffffffffffffffffffffffffffffff1681526020019081526020015f205f015f9054906101000a900473ffffffffffffffffffffffffffffffffffffffff1673ffffffffffffffffffffffffffffffffffffffff1603611500575f80fd5b5f341161150b575f80fd5b5f600a5f8881526020019081526020015f2090505f801916600a5f8981526020019081526020015f2060060154036117c5575f6040518060400160405280600267ffffffffffffffff8111156115645761156361532c565b5b6040519080825280602002602001820160405280156115925781602001602082028036833780820191505090505b508152602001600267ffffffffffffffff8111156115b3576115b261532c565b5b6040519080825280602002602001820160405280156115e657816020015b60608152602001906001900390816115d15790505b5081525090506002815f01515f815181106116045761160361504d565b5b6020026020010190600481111561161e5761161d615359565b5b9081600481111561163257611631615359565b5b815250506004815f015160018151811061164f5761164e61504d565b5b6020026020010190600481111561166957611668615359565b5b9081600481111561167d5761167c615359565b5b815250506116896143d1565b81602001515f815181106116a05761169f61504d565b5b6020026020010181905250611766600380546116bb9061520d565b80601f01602080910402602001604051908101604052809291908181526020018280546116e79061520d565b80156117325780601f1061170957610100808354040283529160200191611732565b820191905f5260205f20905b81548152906001019060200180831161171557829003601f168201915b5050505050611740306143e7565b8a6040516020016117529291906153be565b604051602081830303815290604052614414565b816020015160018151811061177e5761177d61504d565b5b60200260200101819052506117bb30638ee95f9f60e01b6040516020016117a59190615426565b604051602081830303815290604052835f614440565b8260060181905550505b5f60646005346117d59190615104565b6117df91906150d4565b90505f60055f3373ffffffffffffffffffffffffffffffffffffffff1673ffffffffffffffffffffffffffffffffffffffff1681526020019081526020015f2060010190505f836005015f3373ffffffffffffffffffffffffffffffffffffffff1673ffffffffffffffffffffffffffffffffffffffff1681526020019081526020015f2090505f8460040190505f8054906101000a900473ffffffffffffffffffffffffffffffffffffffff1673ffffffffffffffffffffffffffffffffffffffff166108fc8590811502906040515f60405180830381858888f193505050501580156118cf573d5f803e3d5ffd5b5083346118dc9190615145565b60055f3373ffffffffffffffffffffffffffffffffffffffff1673ffffffffffffffffffffffffffffffffffffffff1681526020019081526020015f205f015f828254611929919061543f565b92505081905550826040518060e001604052803373ffffffffffffffffffffffffffffffffffffffff16815260200186346119649190615145565b81526020018c81526020018d81526020016040518060400160405280600b81526020017f506f696e7420546f74616c000000000000000000000000000000000000000000815250815260200142815260200160011515815250908060018154018082558091505060019003905f5260205f2090600702015f909190919091505f820151815f015f6101000a81548173ffffffffffffffffffffffffffffffffffffffff021916908373ffffffffffffffffffffffffffffffffffffffff1602179055506020820151816001015560408201518160020155606082015181600301556080820151816004019081611a5a91906155f4565b5060a0820151816005015560c0820151816006015f6101000a81548160ff02191690831515021790555050503460065f8d81526020019081526020015f205f828254611aa6919061543f565b92505081905550600234611aba91906150d4565b60075f8d81526020019081526020015f205f8b81526020019081526020015f205f828254611ae8919061543f565b92505081905550600234611afc91906150d4565b60075f8d81526020019081526020015f205f8a81526020019081526020015f205f828254611b2a919061543f565b925050819055508334611b3d9190615145565b856001015f828254611b4f919061543f565b9250508190555088856002018190555087856003018190555086855f015f3373ffffffffffffffffffffffffffffffffffffffff1673ffffffffffffffffffffffffffffffffffffffff1681526020019081526020015f20819055508033908060018154018082558091505060019003905f5260205f20015f9091909190916101000a81548173ffffffffffffffffffffffffffffffffffffffff021916908373ffffffffffffffffffffffffffffffffffffffff16021790555033825f015f6101000a81548173ffffffffffffffffffffffffffffffffffffffff021916908373ffffffffffffffffffffffffffffffffffffffff1602179055508334611c579190615145565b826001015f828254611c69919061543f565b925050819055508982600201819055508a82600301819055506040518060400160405280600b81526020017f506f696e7420546f74616c000000000000000000000000000000000000000000815250826004019081611cc891906155f4565b504282600501819055506001826006015f6101000a81548160ff0219169083151502179055505050505050505050505050565b5f60055f3373ffffffffffffffffffffffffffffffffffffffff1673ffffffffffffffffffffffffffffffffffffffff1681526020019081526020015f205f0154905090565b6008602052805f5260405f205f91509050805f0154908060020154908060030154908060060154905084565b7f000000000000000000000000000000000000000000000000000000000000000073ffffffffffffffffffffffffffffffffffffffff163373ffffffffffffffffffffffffffffffffffffffff1614611dfb576040517f08c379a0000000000000000000000000000000000000000000000000000000008152600401611df29061502f565b60405180910390fd5b60605f805f5b600a5f8781526020019081526020015f20600401805490508110156122f3575f600a5f8881526020019081526020015f206004018281548110611e4757611e4661504d565b5b905f5260205f20015f9054906101000a900473ffffffffffffffffffffffffffffffffffffffff1690505f600a5f8981526020019081526020015f206005015f8373ffffffffffffffffffffffffffffffffffffffff1673ffffffffffffffffffffffffffffffffffffffff1681526020019081526020015f206001015490506063600a5f8a81526020019081526020015f206005015f8473ffffffffffffffffffffffffffffffffffffffff1673ffffffffffffffffffffffffffffffffffffffff1681526020019081526020015f2060020154148015611f825750600a5f8981526020019081526020015f205f015f8373ffffffffffffffffffffffffffffffffffffffff1673ffffffffffffffffffffffffffffffffffffffff1681526020019081526020015f2054600a88611f809190615104565b105b8015611f945750611f9282610e56565b155b156120085781868581518110611fad57611fac61504d565b5b602002602001019073ffffffffffffffffffffffffffffffffffffffff16908173ffffffffffffffffffffffffffffffffffffffff16815250508380611ff2906152e5565b9450508085612001919061543f565b9450612146565b6064600a5f8a81526020019081526020015f206005015f8473ffffffffffffffffffffffffffffffffffffffff1673ffffffffffffffffffffffffffffffffffffffff1681526020019081526020015f20600201541480156120c35750600a5f8981526020019081526020015f205f015f8373ffffffffffffffffffffffffffffffffffffffff1673ffffffffffffffffffffffffffffffffffffffff1681526020019081526020015f2054600a886120c19190615104565b115b80156120d557506120d382610e56565b155b1561214557818685815181106120ee576120ed61504d565b5b602002602001019073ffffffffffffffffffffffffffffffffffffffff16908173ffffffffffffffffffffffffffffffffffffffff16815250508380612133906152e5565b9450508085612142919061543f565b94505b5b8060055f8473ffffffffffffffffffffffffffffffffffffffff1673ffffffffffffffffffffffffffffffffffffffff1681526020019081526020015f205f015f8282546121949190615145565b925050819055505f5b60055f8473ffffffffffffffffffffffffffffffffffffffff1673ffffffffffffffffffffffffffffffffffffffff1681526020019081526020015f20600101805490508110156122dd575f60055f8573ffffffffffffffffffffffffffffffffffffffff1673ffffffffffffffffffffffffffffffffffffffff1681526020019081526020015f20600101828154811061223b5761223a61504d565b5b905f5260205f20906007020190508981600301541480156122a857506040516020016122669061570d565b604051602081830303815290604052805190602001208160040160405160200161229091906152cf565b60405160208183030381529060405280519060200120145b156122c9575f816006015f6101000a81548160ff0219169083151502179055505b5080806122d5906152e5565b91505061219d565b50505080806122eb906152e5565b915050611e01565b505f5b8351811015612410575f600a5f8881526020019081526020015f206005015f8684815181106123285761232761504d565b5b602002602001015173ffffffffffffffffffffffffffffffffffffffff1673ffffffffffffffffffffffffffffffffffffffff1681526020019081526020015f206001015490505f848261237c91906150d4565b90508583815181106123915761239061504d565b5b602002602001015173ffffffffffffffffffffffffffffffffffffffff166108fc82600a5f8c81526020019081526020015f20600101546123d29190615104565b90811502906040515f60405180830381858888f193505050501580156123fa573d5f803e3d5ffd5b5050508080612408906152e5565b9150506122f6565b5061242e600a5f8781526020019081526020015f206006015461409b565b5050505050565b61243d61471f565b600a5f8381526020019081526020015f206005015f3373ffffffffffffffffffffffffffffffffffffffff1673ffffffffffffffffffffffffffffffffffffffff1681526020019081526020015f206040518060e00160405290815f82015f9054906101000a900473ffffffffffffffffffffffffffffffffffffffff1673ffffffffffffffffffffffffffffffffffffffff1673ffffffffffffffffffffffffffffffffffffffff1681526020016001820154815260200160028201548152602001600382015481526020016004820180546125199061520d565b80601f01602080910402602001604051908101604052809291908181526020018280546125459061520d565b80156125905780601f1061256757610100808354040283529160200191612590565b820191905f5260205f20905b81548152906001019060200180831161257357829003601f168201915b5050505050815260200160058201548152602001600682015f9054906101000a900460ff1615151515815250509050919050565b6005602052805f5260405f205f91509050805f0154905081565b6125e661471f565b60085f8481526020019081526020015f206005015f8381526020019081526020015f205f3373ffffffffffffffffffffffffffffffffffffffff1673ffffffffffffffffffffffffffffffffffffffff1681526020019081526020015f206040518060e00160405290815f82015f9054906101000a900473ffffffffffffffffffffffffffffffffffffffff1673ffffffffffffffffffffffffffffffffffffffff1673ffffffffffffffffffffffffffffffffffffffff1681526020016001820154815260200160028201548152602001600382015481526020016004820180546126d19061520d565b80601f01602080910402602001604051908101604052809291908181526020018280546126fd9061520d565b80156127485780601f1061271f57610100808354040283529160200191612748565b820191905f5260205f20905b81548152906001019060200180831161272b57829003601f168201915b5050505050815260200160058201548152602001600682015f9054906101000a900460ff161515151581525050905092915050565b600a602052805f5260405f205f915090508060010154908060020154908060030154908060060154905084565b3273ffffffffffffffffffffffffffffffffffffffff163373ffffffffffffffffffffffffffffffffffffffff16146127e1575f80fd5b805f106127ec575f80fd5b6127f533610e56565b156127fe575f80fd5b3373ffffffffffffffffffffffffffffffffffffffff1660095f8881526020019081526020015f206006015f3373ffffffffffffffffffffffffffffffffffffffff1673ffffffffffffffffffffffffffffffffffffffff1681526020019081526020015f205f015f9054906101000a900473ffffffffffffffffffffffffffffffffffffffff1673ffffffffffffffffffffffffffffffffffffffff16036128a5575f80fd5b5f34116128b0575f80fd5b5f60095f8881526020019081526020015f2090505f80191660095f8981526020019081526020015f206007015403612b6a575f6040518060400160405280600267ffffffffffffffff8111156129095761290861532c565b5b6040519080825280602002602001820160405280156129375781602001602082028036833780820191505090505b508152602001600267ffffffffffffffff8111156129585761295761532c565b5b60405190808252806020026020018201604052801561298b57816020015b60608152602001906001900390816129765790505b5081525090506002815f01515f815181106129a9576129a861504d565b5b602002602001019060048111156129c3576129c2615359565b5b908160048111156129d7576129d6615359565b5b815250506004815f01516001815181106129f4576129f361504d565b5b60200260200101906004811115612a0e57612a0d615359565b5b90816004811115612a2257612a21615359565b5b81525050612a2e6143d1565b81602001515f81518110612a4557612a4461504d565b5b6020026020010181905250612b0b60028054612a609061520d565b80601f0160208091040260200160405190810160405280929190818152602001828054612a8c9061520d565b8015612ad75780601f10612aae57610100808354040283529160200191612ad7565b820191905f5260205f20905b815481529060010190602001808311612aba57829003601f168201915b5050505050612ae5306143e7565b8a604051602001612af79291906153be565b604051602081830303815290604052614414565b8160200151600181518110612b2357612b2261504d565b5b6020026020010181905250612b603063ce914f7360e01b604051602001612b4a9190615426565b604051602081830303815290604052835f614440565b8260070181905550505b5f6064600534612b7a9190615104565b612b8491906150d4565b90505f60055f3373ffffffffffffffffffffffffffffffffffffffff1673ffffffffffffffffffffffffffffffffffffffff1681526020019081526020015f2060010190505f836006015f3373ffffffffffffffffffffffffffffffffffffffff1673ffffffffffffffffffffffffffffffffffffffff1681526020019081526020015f2090505f8460050190505f8054906101000a900473ffffffffffffffffffffffffffffffffffffffff1673ffffffffffffffffffffffffffffffffffffffff166108fc8590811502906040515f60405180830381858888f19350505050158015612c74573d5f803e3d5ffd5b508334612c819190615145565b60055f3373ffffffffffffffffffffffffffffffffffffffff1673ffffffffffffffffffffffffffffffffffffffff1681526020019081526020015f205f015f828254612cce919061543f565b92505081905550826040518060e001604052803373ffffffffffffffffffffffffffffffffffffffff1681526020018634612d099190615145565b81526020018c81526020018d81526020016040518060400160405280600c81526020017f506f696e74205370726561640000000000000000000000000000000000000000815250815260200142815260200160011515815250908060018154018082558091505060019003905f5260205f2090600702015f909190919091505f820151815f015f6101000a81548173ffffffffffffffffffffffffffffffffffffffff021916908373ffffffffffffffffffffffffffffffffffffffff1602179055506020820151816001015560408201518160020155606082015181600301556080820151816004019081612dff91906155f4565b5060a0820151816005015560c0820151816006015f6101000a81548160ff02191690831515021790555050503460065f8d81526020019081526020015f205f828254612e4b919061543f565b925050819055503460075f8d81526020019081526020015f205f8c81526020019081526020015f205f828254612e81919061543f565b925050819055508334612e949190615145565b856001015f828254612ea6919061543f565b925050819055508334612eb99190615145565b856002015f8c81526020019081526020015f205f828254612eda919061543f565b9250508190555088856003018190555087856004018190555086855f015f3373ffffffffffffffffffffffffffffffffffffffff1673ffffffffffffffffffffffffffffffffffffffff1681526020019081526020015f20819055508033908060018154018082558091505060019003905f5260205f20015f9091909190916101000a81548173ffffffffffffffffffffffffffffffffffffffff021916908373ffffffffffffffffffffffffffffffffffffffff16021790555033825f015f6101000a81548173ffffffffffffffffffffffffffffffffffffffff021916908373ffffffffffffffffffffffffffffffffffffffff1602179055508334612fe29190615145565b826001015f828254612ff4919061543f565b925050819055508982600201819055508a82600301819055506040518060400160405280600c81526020017f506f696e7420537072656164000000000000000000000000000000000000000081525082600401908161305391906155f4565b504282600501819055506001826006015f6101000a81548160ff0219169083151502179055505050505050505050505050565b7f000000000000000000000000000000000000000000000000000000000000000073ffffffffffffffffffffffffffffffffffffffff163373ffffffffffffffffffffffffffffffffffffffff1614613114576040517f08c379a000000000000000000000000000000000000000000000000000000000815260040161310b9061502f565b60405180910390fd5b60605f805f5b60095f8a81526020019081526020015f20600501805490508110156135ef575f60095f8b81526020019081526020015f2060050182815481106131605761315f61504d565b5b905f5260205f20015f9054906101000a900473ffffffffffffffffffffffffffffffffffffffff1690505f60095f8c81526020019081526020015f206006015f8373ffffffffffffffffffffffffffffffffffffffff1673ffffffffffffffffffffffffffffffffffffffff1681526020019081526020015f206001015490505f60095f8d81526020019081526020015f205f015f8473ffffffffffffffffffffffffffffffffffffffff1673ffffffffffffffffffffffffffffffffffffffff1681526020019081526020015f205490508860095f8e81526020019081526020015f206006015f8573ffffffffffffffffffffffffffffffffffffffff1673ffffffffffffffffffffffffffffffffffffffff1681526020019081526020015f20600201541480156132b55750600a8a61329b9190615721565b81600a8d6132a99190615721565b6132b39190615797565b135b80156132c757506132c583610e56565b155b1561333b57828786815181106132e0576132df61504d565b5b602002602001019073ffffffffffffffffffffffffffffffffffffffff16908173ffffffffffffffffffffffffffffffffffffffff16815250508480613325906152e5565b9550508186613334919061543f565b9550613441565b8760095f8e81526020019081526020015f206006015f8573ffffffffffffffffffffffffffffffffffffffff1673ffffffffffffffffffffffffffffffffffffffff1681526020019081526020015f20600201541480156133be5750600a8b6133a49190615721565b81600a8c6133b29190615721565b6133bc9190615797565b135b80156133d057506133ce83610e56565b155b1561344057828786815181106133e9576133e861504d565b5b602002602001019073ffffffffffffffffffffffffffffffffffffffff16908173ffffffffffffffffffffffffffffffffffffffff1681525050848061342e906152e5565b955050818661343d919061543f565b95505b5b8160055f8573ffffffffffffffffffffffffffffffffffffffff1673ffffffffffffffffffffffffffffffffffffffff1681526020019081526020015f205f015f82825461348f9190615145565b925050819055505f5b60055f8573ffffffffffffffffffffffffffffffffffffffff1673ffffffffffffffffffffffffffffffffffffffff1681526020019081526020015f20600101805490508110156135d8575f60055f8673ffffffffffffffffffffffffffffffffffffffff1673ffffffffffffffffffffffffffffffffffffffff1681526020019081526020015f2060010182815481106135365761353561504d565b5b905f5260205f20906007020190508d81600301541480156135a3575060405160200161356190615822565b604051602081830303815290604052805190602001208160040160405160200161358b91906152cf565b60405160208183030381529060405280519060200120145b156135c4575f816006015f6101000a81548160ff0219169083151502179055505b5080806135d0906152e5565b915050613498565b5050505080806135e7906152e5565b91505061311a565b505f5b835181101561370c575f60095f8b81526020019081526020015f206006015f8684815181106136245761362361504d565b5b602002602001015173ffffffffffffffffffffffffffffffffffffffff1673ffffffffffffffffffffffffffffffffffffffff1681526020019081526020015f206001015490505f848261367891906150d4565b905085838151811061368d5761368c61504d565b5b602002602001015173ffffffffffffffffffffffffffffffffffffffff166108fc8260095f8f81526020019081526020015f20600101546136ce9190615104565b90811502906040515f60405180830381858888f193505050501580156136f6573d5f803e3d5ffd5b5050508080613704906152e5565b9150506135f2565b5061372a60095f8a81526020019081526020015f206007015461409b565b5050505050505050565b5f60095f8481526020019081526020015f206002015f8381526020019081526020015f2054905092915050565b3273ffffffffffffffffffffffffffffffffffffffff163373ffffffffffffffffffffffffffffffffffffffff1614613798575f80fd5b805f106137a3575f80fd5b6137ac33610e56565b156137b5575f80fd5b5f34116137c0575f80fd5b5f60085f8781526020019081526020015f2090505f80191660085f8881526020019081526020015f206006015403613a7a575f6040518060400160405280600267ffffffffffffffff8111156138195761381861532c565b5b6040519080825280602002602001820160405280156138475781602001602082028036833780820191505090505b508152602001600267ffffffffffffffff8111156138685761386761532c565b5b60405190808252806020026020018201604052801561389b57816020015b60608152602001906001900390816138865790505b5081525090506002815f01515f815181106138b9576138b861504d565b5b602002602001019060048111156138d3576138d2615359565b5b908160048111156138e7576138e6615359565b5b815250506004815f01516001815181106139045761390361504d565b5b6020026020010190600481111561391e5761391d615359565b5b9081600481111561393257613931615359565b5b8152505061393e6143d1565b81602001515f815181106139555761395461504d565b5b6020026020010181905250613a1b600180546139709061520d565b80601f016020809104026020016040519081016040528092919081815260200182805461399c9061520d565b80156139e75780601f106139be576101008083540402835291602001916139e7565b820191905f5260205f20905b8154815290600101906020018083116139ca57829003601f168201915b50505050506139f5306143e7565b89604051602001613a079291906153be565b604051602081830303815290604052614414565b8160200151600181518110613a3357613a3261504d565b5b6020026020010181905250613a70306303bfeb2060e01b604051602001613a5a9190615426565b604051602081830303815290604052835f614440565b8260060181905550505b5f6064600534613a8a9190615104565b613a9491906150d4565b90505f60055f3373ffffffffffffffffffffffffffffffffffffffff1673ffffffffffffffffffffffffffffffffffffffff1681526020019081526020015f2060010190505f836005015f8981526020019081526020015f205f3373ffffffffffffffffffffffffffffffffffffffff1673ffffffffffffffffffffffffffffffffffffffff1681526020019081526020015f2090505f846004015f8a81526020019081526020015f2090505f8054906101000a900473ffffffffffffffffffffffffffffffffffffffff1673ffffffffffffffffffffffffffffffffffffffff166108fc8590811502906040515f60405180830381858888f19350505050158015613ba2573d5f803e3d5ffd5b508334613baf9190615145565b60055f3373ffffffffffffffffffffffffffffffffffffffff1673ffffffffffffffffffffffffffffffffffffffff1681526020019081526020015f205f015f828254613bfc919061543f565b92505081905550826040518060e001604052803373ffffffffffffffffffffffffffffffffffffffff1681526020018634613c379190615145565b81526020018b81526020018c81526020016040518060400160405280600a81526020017f4d6f6e6579204c696e6500000000000000000000000000000000000000000000815250815260200142815260200160011515815250908060018154018082558091505060019003905f5260205f2090600702015f909190919091505f820151815f015f6101000a81548173ffffffffffffffffffffffffffffffffffffffff021916908373ffffffffffffffffffffffffffffffffffffffff1602179055506020820151816001015560408201518160020155606082015181600301556080820151816004019081613d2d91906155f4565b5060a0820151816005015560c0820151816006015f6101000a81548160ff02191690831515021790555050503460065f8c81526020019081526020015f205f828254613d79919061543f565b925050819055503460075f8c81526020019081526020015f205f8b81526020019081526020015f205f828254613daf919061543f565b925050819055508334613dc29190615145565b855f015f828254613dd3919061543f565b925050819055508334613de69190615145565b856001015f8b81526020019081526020015f205f828254613e07919061543f565b925050819055508785600201819055508685600301819055503373ffffffffffffffffffffffffffffffffffffffff1660085f8c81526020019081526020015f206005015f8b81526020019081526020015f205f3373ffffffffffffffffffffffffffffffffffffffff1673ffffffffffffffffffffffffffffffffffffffff1681526020019081526020015f205f015f9054906101000a900473ffffffffffffffffffffffffffffffffffffffff1673ffffffffffffffffffffffffffffffffffffffff1614613f32578033908060018154018082558091505060019003905f5260205f20015f9091909190916101000a81548173ffffffffffffffffffffffffffffffffffffffff021916908373ffffffffffffffffffffffffffffffffffffffff1602179055505b33825f015f6101000a81548173ffffffffffffffffffffffffffffffffffffffff021916908373ffffffffffffffffffffffffffffffffffffffff1602179055508334613f7f9190615145565b826001015f828254613f91919061543f565b925050819055508882600201819055508982600301819055506040518060400160405280600a81526020017f4d6f6e6579204c696e6500000000000000000000000000000000000000000000815250826004019081613ff091906155f4565b504282600501819055506001826006015f6101000a81548160ff02191690831515021790555050505050505050505050565b5f8060075f8581526020019081526020015f205f8481526020019081526020015f205490505f60065f8681526020019081526020015f205490508060648361406a9190615104565b61407491906150d4565b9250505092915050565b5f600a5f8381526020019081526020015f20600101549050919050565b7f000000000000000000000000000000000000000000000000000000000000000073ffffffffffffffffffffffffffffffffffffffff1663ee8ca3b5826040518263ffffffff1660e01b81526004016140f49190615836565b5f604051808303815f87803b15801561410b575f80fd5b505af115801561411d573d5f803e3d5ffd5b5050505050565b73eeeeeeeeeeeeeeeeeeeeeeeeeeeeeeeeeeeeeeee73ffffffffffffffffffffffffffffffffffffffff168273ffffffffffffffffffffffffffffffffffffffff160361422f57600546146141ae576040517f08c379a00000000000000000000000000000000000000000000000000000000081526004016141a590615899565b60405180910390fd5b737506c12a824d73d9b08564d5afc22c949434755e73ffffffffffffffffffffffffffffffffffffffff166333bb7f9184836040518363ffffffff1660e01b81526004016141fc919061480f565b5f604051808303818588803b158015614213575f80fd5b505af1158015614225573d5f803e3d5ffd5b50505050506143cc565b60894614801561427e5750732791bca1f2de4661ed88a30c99a7a9449aa8417473ffffffffffffffffffffffffffffffffffffffff168273ffffffffffffffffffffffffffffffffffffffff16145b6142bd576040517f08c379a00000000000000000000000000000000000000000000000000000000081526004016142b490615901565b60405180910390fd5b8173ffffffffffffffffffffffffffffffffffffffff1663095ea7b3737506c12a824d73d9b08564d5afc22c949434755e856040518363ffffffff1660e01b815260040161430c92919061591f565b6020604051808303815f875af1158015614328573d5f803e3d5ffd5b505050506040513d601f19601f8201168201806040525081019061434c9190615970565b50737506c12a824d73d9b08564d5afc22c949434755e73ffffffffffffffffffffffffffffffffffffffff1663fb0f97a88284866040518463ffffffff1660e01b815260040161439e9392919061599b565b5f604051808303815f87803b1580156143b5575f80fd5b505af11580156143c7573d5f803e3d5ffd5b505050505b505050565b606060405180602001604052805f815250905090565b606061440d8273ffffffffffffffffffffffffffffffffffffffff16601460ff166144ea565b9050919050565b60608282604051602001614429929190615a22565b604051602081830303815290604052905092915050565b5f7f000000000000000000000000000000000000000000000000000000000000000073ffffffffffffffffffffffffffffffffffffffff16633323b467868686866040518563ffffffff1660e01b81526004016144a09493929190615c89565b6020604051808303815f875af11580156144bc573d5f803e3d5ffd5b505050506040513d601f19601f820116820180604052508101906144e09190615d04565b9050949350505050565b60605f60028360026144fc9190615104565b614506919061543f565b67ffffffffffffffff81111561451f5761451e61532c565b5b6040519080825280601f01601f1916602001820160405280156145515781602001600182028036833780820191505090505b5090507f3000000000000000000000000000000000000000000000000000000000000000815f815181106145885761458761504d565b5b60200101907effffffffffffffffffffffffffffffffffffffffffffffffffffffffffffff191690815f1a9053507f7800000000000000000000000000000000000000000000000000000000000000816001815181106145eb576145ea61504d565b5b60200101907effffffffffffffffffffffffffffffffffffffffffffffffffffffffffffff191690815f1a9053505f60018460026146299190615104565b614633919061543f565b90505b60018111156146d2577f3031323334353637383961626364656600000000000000000000000000000000600f8616601081106146755761467461504d565b5b1a60f81b82828151811061468c5761468b61504d565b5b60200101907effffffffffffffffffffffffffffffffffffffffffffffffffffffffffffff191690815f1a905350600485901c9450806146cb90615d2f565b9050614636565b505f8414614715576040517f08c379a000000000000000000000000000000000000000000000000000000000815260040161470c90615da0565b60405180910390fd5b8091505092915050565b6040518060e001604052805f73ffffffffffffffffffffffffffffffffffffffff1681526020015f81526020015f81526020015f8152602001606081526020015f81526020015f151581525090565b5f80fd5b5f819050919050565b61478481614772565b811461478e575f80fd5b50565b5f8135905061479f8161477b565b92915050565b5f602082840312156147ba576147b961476e565b5b5f6147c784828501614791565b91505092915050565b5f73ffffffffffffffffffffffffffffffffffffffff82169050919050565b5f6147f9826147d0565b9050919050565b614809816147ef565b82525050565b5f6020820190506148225f830184614800565b92915050565b5f805f6060848603121561483f5761483e61476e565b5b5f61484c86828701614791565b935050602061485d86828701614791565b925050604061486e86828701614791565b9150509250925092565b5f819050919050565b5f61489b614896614891846147d0565b614878565b6147d0565b9050919050565b5f6148ac82614881565b9050919050565b5f6148bd826148a2565b9050919050565b6148cd816148b3565b82525050565b5f6020820190506148e65f8301846148c4565b92915050565b6148f5816147ef565b81146148ff575f80fd5b50565b5f81359050614910816148ec565b92915050565b5f6020828403121561492b5761492a61476e565b5b5f61493884828501614902565b91505092915050565b5f8115159050919050565b61495581614941565b82525050565b5f60208201905061496e5f83018461494c565b92915050565b61497d81614772565b82525050565b5f6020820190506149965f830184614974565b92915050565b5f819050919050565b6149ae8161499c565b82525050565b5f6080820190506149c75f830187614974565b6149d46020830186614974565b6149e16040830185614974565b6149ee60608301846149a5565b95945050505050565b5f8060408385031215614a0d57614a0c61476e565b5b5f614a1a85828601614791565b9250506020614a2b85828601614791565b9150509250929050565b5f805f60608486031215614a4c57614a4b61476e565b5b5f614a5986828701614791565b9350506020614a6a86828701614902565b9250506040614a7b86828701614902565b9150509250925092565b5f81519050919050565b5f82825260208201905092915050565b5f819050602082019050919050565b614ab7816147ef565b82525050565b614ac681614772565b82525050565b5f81519050919050565b5f82825260208201905092915050565b5f5b83811015614b03578082015181840152602081019050614ae8565b5f8484015250505050565b5f601f19601f8301169050919050565b5f614b2882614acc565b614b328185614ad6565b9350614b42818560208601614ae6565b614b4b81614b0e565b840191505092915050565b614b5f81614941565b82525050565b5f60e083015f830151614b7a5f860182614aae565b506020830151614b8d6020860182614abd565b506040830151614ba06040860182614abd565b506060830151614bb36060860182614abd565b5060808301518482036080860152614bcb8282614b1e565b91505060a0830151614be060a0860182614abd565b5060c0830151614bf360c0860182614b56565b508091505092915050565b5f614c098383614b65565b905092915050565b5f602082019050919050565b5f614c2782614a85565b614c318185614a8f565b935083602082028501614c4385614a9f565b805f5b85811015614c7e5784840389528151614c5f8582614bfe565b9450614c6a83614c11565b925060208a01995050600181019050614c46565b50829750879550505050505092915050565b5f6020820190508181035f830152614ca88184614c1d565b905092915050565b5f60e083015f830151614cc55f860182614aae565b506020830151614cd86020860182614abd565b506040830151614ceb6040860182614abd565b506060830151614cfe6060860182614abd565b5060808301518482036080860152614d168282614b1e565b91505060a0830151614d2b60a0860182614abd565b5060c0830151614d3e60c0860182614b56565b508091505092915050565b5f6020820190508181035f830152614d618184614cb0565b905092915050565b5f614d73826148a2565b9050919050565b614d8381614d69565b82525050565b5f602082019050614d9c5f830184614d7a565b92915050565b5f805f805f8060c08789031215614dbc57614dbb61476e565b5b5f614dc989828a01614791565b9650506020614dda89828a01614791565b9550506040614deb89828a01614791565b9450506060614dfc89828a01614791565b9350506080614e0d89828a01614791565b92505060a0614e1e89828a01614791565b9150509295509295509295565b5f819050919050565b614e3d81614e2b565b8114614e47575f80fd5b50565b5f81359050614e5881614e34565b92915050565b5f805f805f8060c08789031215614e7857614e7761476e565b5b5f614e8589828a01614791565b9650506020614e9689828a01614791565b9550506040614ea789828a01614791565b9450506060614eb889828a01614791565b9350506080614ec989828a01614e4a565b92505060a0614eda89828a01614791565b9150509295509295509295565b5f805f805f60a08688031215614f0057614eff61476e565b5b5f614f0d88828901614791565b9550506020614f1e88828901614e4a565b9450506040614f2f88828901614e4a565b9350506060614f4088828901614791565b9250506080614f5188828901614791565b9150509295509295909350565b5f805f805f60a08688031215614f7757614f7661476e565b5b5f614f8488828901614791565b9550506020614f9588828901614791565b9450506040614fa688828901614791565b9350506060614fb788828901614791565b9250506080614fc888828901614791565b9150509295509295909350565b5f82825260208201905092915050565b7f4f6e6c7920646564696361746564206d73672e73656e646572000000000000005f82015250565b5f615019601983614fd5565b915061502482614fe5565b602082019050919050565b5f6020820190508181035f8301526150468161500d565b9050919050565b7f4e487b71000000000000000000000000000000000000000000000000000000005f52603260045260245ffd5b7f4e487b71000000000000000000000000000000000000000000000000000000005f52601260045260245ffd5b7f4e487b71000000000000000000000000000000000000000000000000000000005f52601160045260245ffd5b5f6150de82614772565b91506150e983614772565b9250826150f9576150f861507a565b5b828204905092915050565b5f61510e82614772565b915061511983614772565b925082820261512781614772565b9150828204841483151761513e5761513d6150a7565b5b5092915050565b5f61514f82614772565b915061515a83614772565b9250828203905081811115615172576151716150a7565b5b92915050565b5f81905092915050565b7f4d6f6e6579204c696e65000000000000000000000000000000000000000000005f82015250565b5f6151b6600a83615178565b91506151c182615182565b600a82019050919050565b5f6151d6826151aa565b9150819050919050565b7f4e487b71000000000000000000000000000000000000000000000000000000005f52602260045260245ffd5b5f600282049050600182168061522457607f821691505b602082108103615237576152366151e0565b5b50919050565b5f819050815f5260205f209050919050565b5f815461525b8161520d565b6152658186615178565b9450600182165f811461527f5760018114615294576152c6565b60ff19831686528115158202860193506152c6565b61529d8561523d565b5f5b838110156152be5781548189015260018201915060208101905061529f565b838801955050505b50505092915050565b5f6152da828461524f565b915081905092915050565b5f6152ef82614772565b91507fffffffffffffffffffffffffffffffffffffffffffffffffffffffffffffffff8203615321576153206150a7565b5b600182019050919050565b7f4e487b71000000000000000000000000000000000000000000000000000000005f52604160045260245ffd5b7f4e487b71000000000000000000000000000000000000000000000000000000005f52602160045260245ffd5b5f61539082614acc565b61539a8185614fd5565b93506153aa818560208601614ae6565b6153b381614b0e565b840191505092915050565b5f6040820190508181035f8301526153d68185615386565b90506153e56020830184614974565b9392505050565b5f7fffffffff0000000000000000000000000000000000000000000000000000000082169050919050565b615420816153ec565b82525050565b5f6020820190506154395f830184615417565b92915050565b5f61544982614772565b915061545483614772565b925082820190508082111561546c5761546b6150a7565b5b92915050565b5f6020601f8301049050919050565b5f82821b905092915050565b5f600883026154bc7fffffffffffffffffffffffffffffffffffffffffffffffffffffffffffffffff82615481565b6154c68683615481565b95508019841693508086168417925050509392505050565b5f6154f86154f36154ee84614772565b614878565b614772565b9050919050565b5f819050919050565b615511836154de565b61552561551d826154ff565b84845461548d565b825550505050565b5f90565b61553961552d565b615544818484615508565b505050565b5b818110156155675761555c5f82615531565b60018101905061554a565b5050565b601f8211156155ac5761557d8161523d565b61558684615472565b81016020851015615595578190505b6155a96155a185615472565b830182615549565b50505b505050565b5f82821c905092915050565b5f6155cc5f19846008026155b1565b1980831691505092915050565b5f6155e483836155bd565b9150826002028217905092915050565b6155fd82614acc565b67ffffffffffffffff8111156156165761561561532c565b5b615620825461520d565b61562b82828561556b565b5f60209050601f83116001811461565c575f841561564a578287015190505b61565485826155d9565b8655506156bb565b601f19841661566a8661523d565b5f5b828110156156915784890151825560018201915060208501945060208101905061566c565b868310156156ae57848901516156aa601f8916826155bd565b8355505b6001600288020188555050505b505050505050565b7f506f696e7420546f74616c0000000000000000000000000000000000000000005f82015250565b5f6156f7600b83615178565b9150615702826156c3565b600b82019050919050565b5f615717826156eb565b9150819050919050565b5f61572b82614e2b565b915061573683614e2b565b925082820261574481614e2b565b91507f800000000000000000000000000000000000000000000000000000000000000084145f8412161561577b5761577a6150a7565b5b82820584148315176157905761578f6150a7565b5b5092915050565b5f6157a182614e2b565b91506157ac83614e2b565b92508282019050828112155f8312168382125f8412151617156157d2576157d16150a7565b5b92915050565b7f506f696e742053707265616400000000000000000000000000000000000000005f82015250565b5f61580c600c83615178565b9150615817826157d8565b600c82019050919050565b5f61582c82615800565b9150819050919050565b5f6020820190506158495f8301846149a5565b92915050565b7f4f6e6c79206465706f73697420455448206f6e20676f65726c690000000000005f82015250565b5f615883601a83614fd5565b915061588e8261584f565b602082019050919050565b5f6020820190508181035f8301526158b081615877565b9050919050565b7f4f6e6c79206465706f7369742055534443206f6e20706f6c79676f6e000000005f82015250565b5f6158eb601c83614fd5565b91506158f6826158b7565b602082019050919050565b5f6020820190508181035f830152615918816158df565b9050919050565b5f6040820190506159325f830185614800565b61593f6020830184614974565b9392505050565b61594f81614941565b8114615959575f80fd5b50565b5f8151905061596a81615946565b92915050565b5f602082840312156159855761598461476e565b5b5f6159928482850161595c565b91505092915050565b5f6060820190506159ae5f830186614800565b6159bb6020830185614800565b6159c86040830184614974565b949350505050565b5f81519050919050565b5f82825260208201905092915050565b5f6159f4826159d0565b6159fe81856159da565b9350615a0e818560208601614ae6565b615a1781614b0e565b840191505092915050565b5f6040820190508181035f830152615a3a8185615386565b90508181036020830152615a4e81846159ea565b90509392505050565b5f81519050919050565b5f82825260208201905092915050565b5f819050602082019050919050565b60058110615a9157615a90615359565b5b50565b5f819050615aa182615a80565b919050565b5f615ab082615a94565b9050919050565b615ac081615aa6565b82525050565b5f615ad18383615ab7565b60208301905092915050565b5f602082019050919050565b5f615af382615a57565b615afd8185615a61565b9350615b0883615a71565b805f5b83811015615b38578151615b1f8882615ac6565b9750615b2a83615add565b925050600181019050615b0b565b5085935050505092915050565b5f81519050919050565b5f82825260208201905092915050565b5f819050602082019050919050565b5f82825260208201905092915050565b5f615b88826159d0565b615b928185615b6e565b9350615ba2818560208601614ae6565b615bab81614b0e565b840191505092915050565b5f615bc18383615b7e565b905092915050565b5f602082019050919050565b5f615bdf82615b45565b615be98185615b4f565b935083602082028501615bfb85615b5f565b805f5b85811015615c365784840389528151615c178582615bb6565b9450615c2283615bc9565b925060208a01995050600181019050615bfe565b50829750879550505050505092915050565b5f604083015f8301518482035f860152615c628282615ae9565b91505060208301518482036020860152615c7c8282615bd5565b9150508091505092915050565b5f608082019050615c9c5f830187614800565b8181036020830152615cae81866159ea565b90508181036040830152615cc28185615c48565b9050615cd16060830184614800565b95945050505050565b615ce38161499c565b8114615ced575f80fd5b50565b5f81519050615cfe81615cda565b92915050565b5f60208284031215615d1957615d1861476e565b5b5f615d2684828501615cf0565b91505092915050565b5f615d3982614772565b91505f8203615d4b57615d4a6150a7565b5b600182039050919050565b7f537472696e67733a20686578206c656e67746820696e73756666696369656e745f82015250565b5f615d8a602083614fd5565b9150615d9582615d56565b602082019050919050565b5f6020820190508181035f830152615db781615d7e565b905091905056fea264697066735822122073f22d556176d7157d0909e24e39496bf37346fc63b9c3305953a9b2228d43ce64736f6c63430008150033",
  "linkReferences": {},
  "deployedLinkReferences": {}
}