{
  "_format": "hh-sol-artifact-1",
  "contractName": "Bet",
  "sourceName": "contracts/Bet.sol",
  "abi": [
    {
      "inputs": [
        {
          "internalType": "address",
          "name": "",
          "type": "address"
        }
      ],
      "name": "balances",
      "outputs": [
        {
          "internalType": "uint256",
          "name": "",
          "type": "uint256"
        }
      ],
      "stateMutability": "view",
      "type": "function"
    },
    {
      "inputs": [
        {
          "internalType": "uint256",
          "name": "gameID",
          "type": "uint256"
        },
        {
          "internalType": "uint256",
          "name": "teamID",
          "type": "uint256"
        },
        {
          "internalType": "uint256",
          "name": "homeTeamID",
          "type": "uint256"
        },
        {
          "internalType": "uint256",
          "name": "awayTeamID",
          "type": "uint256"
        }
      ],
      "name": "moneyLineBet",
      "outputs": [
        {
          "internalType": "uint256",
          "name": "",
          "type": "uint256"
        }
      ],
      "stateMutability": "payable",
      "type": "function"
    },
    {
      "inputs": [
        {
          "internalType": "uint256",
          "name": "gameID",
          "type": "uint256"
        },
        {
          "internalType": "uint256",
          "name": "teamID",
          "type": "uint256"
        },
        {
          "internalType": "uint256",
          "name": "opposingTeamID",
          "type": "uint256"
        },
        {
          "internalType": "uint256",
          "name": "amount",
          "type": "uint256"
        }
      ],
      "name": "moneyLineBetCalculator",
      "outputs": [
        {
          "internalType": "uint256",
          "name": "",
          "type": "uint256"
        }
      ],
      "stateMutability": "payable",
      "type": "function"
    },
    {
      "inputs": [
        {
          "internalType": "uint256",
          "name": "",
          "type": "uint256"
        }
      ],
      "name": "newMoneyLineBet",
      "outputs": [
        {
          "internalType": "uint256",
          "name": "total",
          "type": "uint256"
        },
        {
          "internalType": "uint256",
          "name": "homeTeamID",
          "type": "uint256"
        },
        {
          "internalType": "uint256",
          "name": "awayTeamID",
          "type": "uint256"
        },
        {
          "internalType": "uint256",
          "name": "winner",
          "type": "uint256"
        }
      ],
      "stateMutability": "view",
      "type": "function"
    },
    {
      "inputs": [
        {
          "internalType": "uint256",
          "name": "gameID",
          "type": "uint256"
        },
        {
          "internalType": "uint256",
          "name": "bettingTeamID",
          "type": "uint256"
        },
        {
          "internalType": "uint256",
          "name": "opposingTeamID",
          "type": "uint256"
        }
      ],
      "name": "returnOdds",
      "outputs": [
        {
          "internalType": "uint256",
          "name": "",
          "type": "uint256"
        }
      ],
      "stateMutability": "view",
      "type": "function"
    },
    {
      "inputs": [
        {
          "internalType": "uint256",
          "name": "",
          "type": "uint256"
        }
      ],
      "name": "totalBetOnGame",
      "outputs": [
        {
          "internalType": "uint256",
          "name": "",
          "type": "uint256"
        }
      ],
      "stateMutability": "view",
      "type": "function"
    },
    {
      "inputs": [
        {
          "internalType": "uint256",
          "name": "",
          "type": "uint256"
        },
        {
          "internalType": "uint256",
          "name": "",
          "type": "uint256"
        }
      ],
      "name": "totalBetOnTeam",
      "outputs": [
        {
          "internalType": "uint256",
          "name": "",
          "type": "uint256"
        }
      ],
      "stateMutability": "view",
      "type": "function"
    }
  ],
  "bytecode": "0x608060405234801561001057600080fd5b50610c53806100206000396000f3fe6080604052600436106100705760003560e01c806352bdac501161004e57806352bdac501461012c5780638edd39711461015c578063b6bb73f21461019c578063c1b2bddc146101cc57610070565b806323821c211461007557806327e235e3146100b25780632b3a4ef6146100ef575b600080fd5b34801561008157600080fd5b5061009c600480360381019061009791906107f7565b610209565b6040516100a99190610a03565b60405180910390f35b3480156100be57600080fd5b506100d960048036038101906100d491906107ce565b610221565b6040516100e69190610a03565b60405180910390f35b3480156100fb57600080fd5b5061011660048036038101906101119190610820565b610239565b6040516101239190610a03565b60405180910390f35b610146600480360381019061014191906108ab565b61025e565b6040516101539190610a03565b60405180910390f35b34801561016857600080fd5b50610183600480360381019061017e91906107f7565b61064e565b6040516101939493929190610a1e565b60405180910390f35b6101b660048036038101906101b191906108ab565b61067e565b6040516101c39190610a03565b60405180910390f35b3480156101d857600080fd5b506101f360048036038101906101ee919061085c565b610716565b6040516102009190610a03565b60405180910390f35b60026020528060005260406000206000915090505481565b60006020528060005260406000206000915090505481565b6003602052816000526040600020602052806000526040600020600091509150505481565b60008034116102a2576040517f08c379a0000000000000000000000000000000000000000000000000000000008152600401610299906109e3565b60405180910390fd5b828414806102af57508184145b6102ee576040517f08c379a00000000000000000000000000000000000000000000000000000000081526004016102e5906109c3565b60405180910390fd5b600060026000878152602001908152602001600020549050600060036000888152602001908152602001600020600087815260200190815260200160002054905060006001600089815260200190815260200160002060010160008881526020019081526020016000205490506000600160008a815260200190815260200160002060000154905034846103829190610a74565b600260008b81526020019081526020016000208190555034836103a59190610a74565b600360008b815260200190815260200160002060008a81526020019081526020016000208190555034816103d99190610a74565b600160008b81526020019081526020016000206000018190555034826103ff9190610a74565b600160008b815260200190815260200160002060010160008a81526020019081526020016000208190555086600160008b81526020019081526020016000206002018190555085600160008b81526020019081526020016000206003018190555060405180606001604052803373ffffffffffffffffffffffffffffffffffffffff16815260200134815260200189815250600160008b815260200190815260200160002060060160003373ffffffffffffffffffffffffffffffffffffffff1673ffffffffffffffffffffffffffffffffffffffff16815260200190815260200160002060008201518160000160006101000a81548173ffffffffffffffffffffffffffffffffffffffff021916908373ffffffffffffffffffffffffffffffffffffffff1602179055506020820151816001015560408201518160020155905050868814156105c657600160008a8152602001908152602001600020600501339080600181540180825580915050600190039060005260206000200160009091909190916101000a81548173ffffffffffffffffffffffffffffffffffffffff021916908373ffffffffffffffffffffffffffffffffffffffff16021790555061063e565b600160008a8152602001908152602001600020600401339080600181540180825580915050600190039060005260206000200160009091909190916101000a81548173ffffffffffffffffffffffffffffffffffffffff021916908373ffffffffffffffffffffffffffffffffffffffff1602179055505b6000945050505050949350505050565b60016020528060005260406000206000915090508060000154908060020154908060030154908060070154905084565b600080600160008781526020019081526020016000206001016000868152602001908152602001600020549050600083826106b99190610a74565b9050600060016000898152602001908152602001600020600101600087815260200190815260200160002054826106f09190610a74565b82866106fc9190610aca565b6107069190610afb565b9050809350505050949350505050565b6000600360008581526020019081526020016000206000838152602001908152602001600020546003600086815260200190815260200160002060008581526020019081526020016000205461076c9190610a74565b6003600086815260200190815260200160002060008581526020019081526020016000205461079b9190610aca565b90509392505050565b6000813590506107b381610bef565b92915050565b6000813590506107c881610c06565b92915050565b6000602082840312156107e057600080fd5b60006107ee848285016107a4565b91505092915050565b60006020828403121561080957600080fd5b6000610817848285016107b9565b91505092915050565b6000806040838503121561083357600080fd5b6000610841858286016107b9565b9250506020610852858286016107b9565b9150509250929050565b60008060006060848603121561087157600080fd5b600061087f868287016107b9565b9350506020610890868287016107b9565b92505060406108a1868287016107b9565b9150509250925092565b600080600080608085870312156108c157600080fd5b60006108cf878288016107b9565b94505060206108e0878288016107b9565b93505060406108f1878288016107b9565b9250506060610902878288016107b9565b91505092959194509250565b600061091b603383610a63565b91507f596f75206d75737420626574206f6e2061207465616d2074686174206973207060008301527f6c6179696e6720696e20746869732067616d65000000000000000000000000006020830152604082019050919050565b6000610981601683610a63565b91507f596f75206d7573742062657420736f6d657468696e67000000000000000000006000830152602082019050919050565b6109bd81610b87565b82525050565b600060208201905081810360008301526109dc8161090e565b9050919050565b600060208201905081810360008301526109fc81610974565b9050919050565b6000602082019050610a1860008301846109b4565b92915050565b6000608082019050610a3360008301876109b4565b610a4060208301866109b4565b610a4d60408301856109b4565b610a5a60608301846109b4565b95945050505050565b600082825260208201905092915050565b6000610a7f82610b87565b9150610a8a83610b87565b9250827fffffffffffffffffffffffffffffffffffffffffffffffffffffffffffffffff03821115610abf57610abe610b91565b5b828201905092915050565b6000610ad582610b87565b9150610ae083610b87565b925082610af057610aef610bc0565b5b828204905092915050565b6000610b0682610b87565b9150610b1183610b87565b9250817fffffffffffffffffffffffffffffffffffffffffffffffffffffffffffffffff0483118215151615610b4a57610b49610b91565b5b828202905092915050565b6000610b6082610b67565b9050919050565b600073ffffffffffffffffffffffffffffffffffffffff82169050919050565b6000819050919050565b7f4e487b7100000000000000000000000000000000000000000000000000000000600052601160045260246000fd5b7f4e487b7100000000000000000000000000000000000000000000000000000000600052601260045260246000fd5b610bf881610b55565b8114610c0357600080fd5b50565b610c0f81610b87565b8114610c1a57600080fd5b5056fea264697066735822122027ae8e963953f67e899a952903b5274f4f56685e74c7e8ee47db0ef1d4aa86d664736f6c63430008000033",
  "linkReferences": {},
  "deployedLinkReferences": {}
}